:100000000C9420040C9448040C94A0070C94E8076A
:100010000C94C4070C9448040C9448040C944804B1
:100020000C9448040C9448040C94070B0C94AA08F4
:100030000C9448040C9448040C9448040C94480410
:100040000C9448040C9448040C9448040C94480400
:100050000C9448040C9448040C9448040C94A31881
:100060000C9448040C9448040C9448040C944804E0
:100070000C9448040C9448040C9448040C944804D0
:100080000C9448040C9448040C9448040C944804C0
:100090000C94DC0F0C9448040C9448040C94480411
:1000A0000C9448040C9448040C944804721FD31F09
:1000B0007A2170202F222A246B23CB241425452556
:1000C0007725E925B025112DFA29762A2D2E542BD6
:1000D000BA2D892ADC2B2D2E2D2E2D2E2D2E2D2EB8
:1000E0002D2E022ADC2B2D2E972991292D2EF92831
:1000F0007829842B2D2EDF2BDC2BF62B102C2A2C91
:10010000442C5E2C782C922CAC2C2D2E2D2E2D2EAA
:100110002D2E2D2E2D2E2D2E2D2E2D2EC62CF42DAA
:10012000F92DD62DDB2D2D2EE02DD12D2D2EEF2DC1
:10013000FE2D2D2E2D2EEA2D2D2E2D2E2D2E2D2E5B
:100140002D2EE52DEE11F311F81102124C124C1266
:100150004C120C12161220122A1237124C123F1295
:1001600049164C163F1643166D166D166D16501631
:10017000541658165E1662166D16681605A84CCDF4
:10018000B2D44EB93836A9020C50B9918688083CD1
:10019000A6AAAA2ABE000000803F000000000000BE
:1001A00000002A2B280000000000000000000000D2
:1001B000000000000000000000002C9EB4A0A1A2DE
:1001C000A434A6A7A5AE362D3738271E1F2021221E
:1001D00023242526B333B62EB7B89F848586878817
:1001E000898A8B8C8D8E8F90919293949596979807
:1001F000999A9B9C9D2F3130A3AD350405060708C5
:10020000090A0B0C0D0E0F101112131415161718E6
:10021000191A1B1C1DAFB1B0B500080B0002020279
:100220000100090400000102020000052400100181
:100230000524010101042402060524060001070526
:10024000810310004009040100020A0000000705B4
:10025000020240000007058302400000090402007A
:10026000020300000009210101000122E104070549
:10027000840340000107050503400001050109044E
:10028000A10185040901A100093017000000002721
:10029000FFFF0000350047FFFF000075109501814A
:1002A00002093116000027FFFF0000350047FFFF5D
:1002B0000000751095018102093216000027FF0F1A
:1002C0000000350047FF0F0000750C950181020901
:1002D0003316000027FF0F0000350047FF0F000016
:1002E000750C95018102093416000027FF0F0000EC
:1002F000350047FF0F0000750C9501810209391583
:100300000125083500463B0165145500750495012B
:1003100081020509150025015500650019012918FC
:1003200075019518810285F10901150026FF0095D8
:100330003F7508918285F20901953F75088182C059
:10034000050F0992A1028502099F09A009A409A528
:1003500009A61500250135004501750195058102A5
:1003600095038103099415002501350045017501A8
:1003700095018102092215012528350145287507B7
:1003800095018102C00921A10285010922150125DB
:1003900028350145287508950191020925A1020912
:1003A000260927093009310932093309340940097E
:1003B0004109420943250B15013501450B75089587
:1003C000019100C009500954150027FFFF000035B6
:1003D0000047FFFF000066011055FD751095029162
:1003E0000255006600000952150026FF7F350046C1
:1003F000FF7F7510950191020953150125083501FC
:1004000045087508950191020955A10205010930B9
:10041000093115002501750195029102C0050F09EA
:100420005695019102950591030957A1020B010010
:100430000A000B02000A0066140055FE150026FF94
:100440007F3500479F8C0000751095019102550083
:10045000660000C0050F09A766011055FD150027AD
:10046000FFFF0000350047FFFF0000751095019168
:10047000026600005500C0050F095AA10285020955
:100480002215012528350145287508950191020995
:100490005B095D150026FF00350046FF7F75089556
:1004A000029102095C095E66011055FD26FF7F4638
:1004B000FF7F7510950291026600005500C0095F2C
:1004C000A102850309221501252835014528750853
:1004D0009501910209231500250135004501750498
:1004E000950191020958A1020B01000A000B0200BC
:1004F0000A00750295029102C0096016008026FF6D
:100500007F36008046FF7F751095019102096136A4
:10051000008046FF7F95019102150026FF7F350080
:1005200046FF7F0963751095019102096515002644
:10053000FF0046FF7F750895019102C0096EA10278
:1005400085040922150125283501452875089501DE
:1005500091020970150026FF7F350046FF7F751058
:1005600095019102096F16008026FF7F36008046B4
:10057000FF7F950191020971150026FF00350046A5
:1005800067016614005500750895019102097227EC
:10059000FFFF000047FFFF000066011055FD7510CA
:1005A000950191026600005500C00973A1028505FE
:1005B0000922150125283501452875089501910264
:1005C000097016018026FF7F36018046FF7F751077
:1005D00095019102C00974A1028506092215012521
:1005E0002835014528750895019102097509761588
:1005F00081257F36018046FF7F750895029102C0F4
:10060000050F0977A102850A092215012528350160
:1006100045287508950191020978A1020979097A9E
:10062000097B15012503750895019100C0097C150A
:100630000026FF00350046FF009102C00990A1028C
:10064000850B0922150125283501452875089501D6
:100650009102C00996A102850C0997099809990988
:100660009A099B099C15012506750895019100C002
:10067000097DA102850D097E150026FF0035004683
:100680001027750895019102C009ABA102850509E3
:1006900025A1020926092709300931093209330940
:1006A0003409400941094209431501250B3501452B
:1006B0000B75089501B100C00501093B150026FF27
:1006C00001350046FF01750A9501B1027506B101B9
:1006D000C0050F0989A102850609222528150135C3
:1006E00001452875089501B102098BA102098C0901
:1006F0008D098E250315013501450375089501B156
:1007000000C009AC150027FFFF0000350047FFFFC0
:10071000000075109501B100C0097FA1028507098D
:100720008075109501150027FFFF0000350047FF79
:10073000FF0000B102098326FF0046FF00750895FF
:1007400001B10209A909AA75019502150025013513
:10075000004501B10275069501B103C0C0180341FF
:100760000072006400750069006E006F0020004C8C
:10077000004C00430004030904220341007200649A
:1007800000750069006E006F0020004D0069006375
:100790000072006F00200020002000120100020003
:1007A00000004041233780000101020001120100D6
:1007B00002020000404123378000010102000100D5
:1007C000C18081C1C000000000240027002A002D44
:1007D00000300000000000250028002B002E003112
:1007E00000040404040403040502020202040302D8
:1007F00002020206060606060604040202020404B9
:10080000040802011040804010204080408008020F
:100810000401804020100201108010204040200080
:1008200000000200080E0000030401000B0000009D
:100830000000000000000000000000000000472E43
:1008400011241FBECFEFDAE0DEBFCDBF11E0A0E084
:10085000B1E0E8EBF4E602C005900D92A43AB107CE
:10086000D9F725E0A4EAB1E001C01D92A035B20796
:10087000E1F714E0C0E2D4E004C02197FE010E9439
:100880004832CF31D107C9F70E94ED180C945A3283
:100890000C9400008C30F8F4282F30E09EE1899F02
:1008A000F0011124EA51FE4F90819923A1F090812B
:1008B0009D7F9083F901E855FC4F958191110BC004
:1008C000E091A501F091A6010084F185E02D099544
:1008D0001092B80308950895FC01CB012091E8001F
:1008E00022FFFCCF282F215028F03091F1003083D7
:1008F0003196F9CF24E620939C032BEF2093E80058
:1009000008950F931F93CF93DF93DB01A40FB51FBF
:10091000FB016EEFEA17FB0791F187FF02C02491FC
:1009200001C020810091A0031091A103C0919E03FA
:10093000D0919F030C171D07B4F49091E8009570B7
:10094000E1F39091E80092FD1CC02093F10020910A
:10095000A0033091A1032F5F3F4F2F733327232B29
:1009600011F46093E8002091A0033091A1032F5F60
:100970003F4F3093A1032093A0033196CBCFCA0100
:1009800002C08FEF9FEFDF91CF911F910F910895DC
:10099000CF93DF9300D000D01F92CDB7DEB7FC011C
:1009A00081819081913A29F5813009F0BCC0828122
:1009B000863051F445E050E063EA73E080E40E9441
:1009C00081041092A303AFC0873009F0ACC08983C3
:1009D0008FEF9FEF9B838A838BE08C8383E08D83F3
:1009E00045E050E0BE016F5F7F4F80E40E948104CC
:1009F0009AC0913209F097C0893009F094C0828181
:100A0000853009F090C064E070E0CE0101960E944C
:100A10006C0486E08093A30380910F018B3021F159
:100A2000A0910F0181E08A0F80930F019EE1E09178
:100A30000F019E9FF0011124EA51FE4F808188230F
:100A400051F080910F018B3030F480910F018F5F56
:100A500080930F01ECCF8EE1A89FF0011124EA51A1
:100A6000FE4F81E0808301C0A0E0A093A403A11108
:100A700004C082E08093A50350C01092290581E054
:100A80008093A5038A819EE1A99FD0011124AA51D8
:100A9000BE4F11968C9311978FEF9FEF50969C93BA
:100AA0008E931F9754961C921E92539752961C92A7
:100AB0001E92519713968C93139714968C931497B8
:100AC00056961C921E9255971E961C921E921D972A
:100AD00016961C9216978FEF9FE71A969C938E930B
:100AE000199758961C921E9257975C961C921E92CC
:100AF0005B975D961C925D9788EE93E01C969C93A5
:100B00008E931B97E091A501F091A6010684F785CD
:100B1000E02DBD01CE01019609958FEF9FEF9093D7
:100B2000A7038093A60381E00F900F900F900F9082
:100B30000F90DF91CF91089542E450E06AE172E0B6
:100B400080E80E94810440E250E06CE572E080E8B9
:100B50000E94810483E090E00895EF92FF921F933A
:100B6000CF93DF93EC01162FE881F9810480F581A2
:100B7000E02D09957C01E881F9810680F781E02D5F
:100B8000612FCE010995C7019927DF91CF911F9160
:100B9000FF90EF900895FC0191818081813A29F4C2
:100BA0009D7F81E0913091F414C0813279F49A30C4
:100BB00049F09B3019F0993049F40AC08281809342
:100BC0000E0106C0828180930D0102C080E008956D
:100BD00081E008958C30F0F49EE1899FF0011124AA
:100BE000EA51FE4F80818823A9F080818260808352
:100BF0008091B80381110EC00E94E4176093B60182
:100C00007093B7018093B8019093B90181E080930C
:100C1000B80308950895CF92DF92EF92FF9260910A
:100C2000B3017091B401072E000C880B990B0E9440
:100C300072306B017C0160914E0370914F03809183
:100C40005003909151030E9472309B01AC01C70187
:100C5000B6010E94C82FFF90EF90DF90CF900895CB
:100C6000CF92DF92EF92FF920F931F938B019C0123
:100C70004091AE015091AF016A01E12CF12C662741
:100C80007727CB016C197D098E099F090617170775
:100C9000280739074CF0C901B801C016D106E20691
:100CA000F30614F4C701B6011F910F91FF90EF9066
:100CB000DF90CF9008954F925F926F927F928F92C4
:100CC0009F92AF92BF92CF92DF92EF92FF92CF931B
:100CD000DF9300D000D0CDB7DEB74B015C0157FFEA
:100CE00002C04D5F5F4F6A01D594C794D594C794F5
:100CF0000E940B0669837A838B839C839B01AC01E2
:100D0000C501B4010E94273120E030E040E251E407
:100D10000E9427312B013C0120E030E040E85FE3F6
:100D20000E9422310D2C000CEE08FF0818161CF44E
:100D3000C701B60128C020E030E040E85FEBC30106
:100D4000B2010E94C32F87FF06C0C701B6010E94EF
:100D50003006CB011EC0C701B6010E9472309B0154
:100D6000AC01C501B4010E94273129813A814B8130
:100D70005C810E94273120E030E040E251E40E9493
:100D800027310E943A300E94300688279927861B17
:100D9000970B0F900F900F900F90DF91CF91FF90D6
:100DA000EF90DF90CF90BF90AF909F908F907F900B
:100DB0006F905F904F9008958F929F92AF92BF92E5
:100DC000CF92DF92EF92FF924B015C01BA01550F77
:100DD000880B990B0E9472306B017C0120E030E09F
:100DE000A901C501B4010E942231A5019401181680
:100DF0000CF05058C701B6010E9427316B017C01ED
:100E00000E940B069B01AC01C701B6010E9427316D
:100E100020E030E040E851E40E94273120E030E05B
:100E200040E251E40E94273120E030E040E05DE301
:100E30000E9427310E943A300E9430066B017C01EB
:100E400020E030E0A901C501B4010E94223118164A
:100E50002CF4882799278C199D090DC020E030E0DB
:100E6000A901C501B4010E94C32F87FF02C0C601BA
:100E700002C080E090E0FF90EF90DF90CF90BF90B5
:100E8000AF909F908F900895CF92DF92EF92FF9254
:100E9000CF93DF936B017C01EA0120E030E0A901F0
:100EA0000E942231181694F020E030E0A901C70119
:100EB000B6010E94C32F87FF3AC020E030E0A901AD
:100EC000C701B6010E94572F6B017C01BE01DD0FE7
:100ED000880B990B0E9472309B01AC01C701B601CF
:100EE0000E9427316B017C010E940B069B01AC0123
:100EF000C701B6010E94273120E030E040E851E40C
:100F00000E94273120E030E040E251E40E94273186
:100F100020E030E040E05BE30E9427310E943A305D
:100F20000E94300688279927861B970B02C080E015
:100F300090E0DF91CF91FF90EF90DF90CF900895F8
:100F40001F920F920FB60F9211248F939F93AF931E
:100F5000BF938091520390915303A0915403B09199
:100F60005503F89480937D0490937E04A0937F04AE
:100F7000B09380047894BF91AF919F918F910F901F
:100F80000FBE0F901F9018951F920F920FB60F92E1
:100F900011242F933F934F935F936F937F938F937E
:100FA0009F93AF93BF93EF93FF930E948116FF919E
:100FB000EF91BF91AF919F918F917F916F915F91D1
:100FC0004F913F912F910F900FBE0F901F9018954A
:100FD0001F920F920FB60F9211242F933F934F93AE
:100FE0005F936F937F938F939F93AF93BF93EF9391
:100FF000FF930E948116FF91EF91BF91AF919F9156
:101000008F917F916F915F914F913F912F910F90B1
:101010000FBE0F901F901895CF92DF92EF92FF9224
:101020000F931F93CF93DF931F92CDB7DEB7F82EA8
:10103000E42E8B01C82ED92E8C2D8F198E1588F495
:10104000F80161918F01C60169830E94DD2E6981DB
:10105000681719F0C6010E94E52EFFEFCF1ADF0ACC
:10106000EBCF0F90DF91CF911F910F91FF90EF90F9
:10107000DF90CF900895CF92DF92EF92FF920F937F
:101080001F93CF93DF931F92CDB7DEB78B016B0118
:101090007C01E61AF70A9C2D901B941758F4C7019F
:1010A0008C0D9D1D49830E94DD2EF60181936F01F9
:1010B0004981F1CF0F90DF91CF911F910F91FF9058
:1010C000EF90DF90CF9008958F929F92AF92BF9252
:1010D000CF92DF92EF92FF9240E050E020E0682F45
:1010E00070E0812C912C54018394FA013296DB013B
:1010F00002C0B595A795EA95E2F775016401042E43
:1011000004C0CC0CDD1CEE1CFF1C0A94D2F7A0FF1F
:1011100002C02C2902C0C0942C214F5F5F4F443085
:10112000510519F730E0220F331FF901EC5CFE4F37
:1011300080FF05C0808191819695879502C080814E
:101140009181FF90EF90DF90CF90BF90AF909F90F4
:101150008F9008951F920F920FB60F921124EF9265
:10116000FF921F932F933F934F935F936F937F93C0
:101170008F939F93AF93BF93EF93FF93CF93DF939F
:10118000CDB7DEB76197DEBFCDBF1092E900809189
:10119000E80083FF59C1FE013A96CF0128E02E0FE7
:1011A0002E1729F03091F10030833196F9CF24E6E3
:1011B00020939C0322EF2093E8002A8527FF05C097
:1011C0003091E80030FFFCCF03C03EEF3093E800E1
:1011D000322F307609F0C5C08B85811105C0109281
:1011E000F1001092F10029C1982F9D7F913009F4F0
:1011F00024C1853049F48091E80080FFFCCF8C85C4
:1012000080688093E30019C1863009F07CC01D8599
:10121000E888F9881092E9001092A1031092A003C7
:10122000123091F510929F0310929E030E949C052C
:1012300099E0BE016F5F7F4FFB01292F11922A9524
:10124000E9F799831A8391E09E8390E898879AEF53
:1012500099872091A0033091A103275F3F4F3C83E2
:101260002B838D831092E9001092A1031092A003AA
:10127000F0929F03E0929E0349E050E080E00E94DC
:1012800081040E949C05D9C0F0929F03E0929E03C6
:10129000123259F441EE54E06CE772E080E80E94AB
:1012A0008104892B09F0C9C0CCC0113069F4888948
:1012B0009989089711F410939D0380919D038111E2
:1012C00011C06BE977E016C0133009F0BAC08C8505
:1012D000882359F0823061F0813009F0B2C06DE5A9
:1012E00077E008C06DEA77E005C065E777E002C007
:1012F00069E777E06115710509F4A3C0FB0144912A
:1013000050E080E849C0873009F49BC0883021F460
:1013100081E08093F10091C0893009F08EC0237084
:1013200009F08FC080E090E031E026E341E0480F13
:101330004093E9003093EB000196FC01E154F84F33
:10134000E491E093EC002093ED008530910571F776
:101350008EE78093EA001092EA008C858093A401C6
:101360006CC0288939891092E9001092A10310926B
:10137000A00330939F0320939E032E85211154C018
:101380008B859A85913A59F4813209F05AC047E029
:1013900050E060E171E080E00E9481044EC0913233
:1013A00009F04FC0803239F467E070E080E191E0ED
:1013B0000E946C0442C0823209F043C08C85809345
:1013C00017018091100190911101A0911201B0912B
:1013D0001301803B9440A105B10579F58091170177
:1013E00080FD11C087E797E790930108809300087C
:1013F0009BE088E10FB6F894A895809360000FBE3B
:10140000909360001AC00FB6F894A8958091600080
:10141000886180936000109260000FBEA8951092C2
:1014200001081092000809C0223059F4E0912A0501
:10143000F0912B050995882321F08EEF8093E80029
:1014400003C081E28093EB0061960FB6F894DEBF93
:101450000FBECDBFDF91CF91FF91EF91BF91AF91C3
:101460009F918F917F916F915F914F913F912F91BC
:101470001F91FF90EF900F900FBE0F901F90189547
:101480008F929F92AF92BF92CF92DF92EF92FF9294
:101490000F931F93CF93DF9300D01F92CDB7DEB78A
:1014A000382F8B018091A401882389F04A018AEFAB
:1014B000F82E832F8770E82E90E4C92E832F807238
:1014C000B82E2AE3D22E832F8074A82E21C08FEF4E
:1014D0009FEF5FC08FB7F894E092E9009091E80029
:1014E00095FF1AC09091F2002C2D291B8FBF21115E
:1014F00015C0FA94FF2059F361E070E080E090E0BD
:1015000039834A835B830E94BE1739814A815B819C
:1015100081149104F9F634C020E0E8CF822F90E0E6
:10152000881699060CF4282D822F90E0881A990AC3
:101530006FB7F894E092E900BB2029F02150A8F0A1
:101540001092F100FBCFF80137FF07C0215058F08F
:1015500074917093F1003196F9CF215020F0719180
:101560007093F100FACF080F191F8091E80085FFF2
:101570000DC08114910411F4A11008C06FBFC8CF31
:101580005D9A84E68093A203CA0103C0D092E8006A
:10159000F5CF0F900F900F90DF91CF911F910F918A
:1015A000FF90EF90DF90CF90BF90AF909F908F9083
:1015B00008959091A401992311F057FF03C08FEF74
:1015C0009FEF08952FB7F89487708093E90080917A
:1015D000F20090E0841795070CF4AC01842FFB0116
:1015E00094E6815030F090939C033091F100319358
:1015F000F8CF4115510521F08091F200882319F0B0
:101600002FBFCA0108958BE68093E800F9CF1F929F
:101610000F920FB60F9211242F933F934F935F9326
:101620006F937F938F939F93AF93BF93EF93FF93AA
:10163000CF93DF93CDB7DEB7C054D109DEBFCDBFA6
:101640008091E1001092E10083FF0FC01092E90049
:1016500091E09093EB001092EC0092E39093ED00F8
:101660001092A40198E09093F00082FF46C083E0BE
:101670008093E9008091F200882319F08AE3809337
:10168000E8009FB7F89482E08093E9008091F2002F
:101690009FBF882321F082E894E00E94A10F9FB7AA
:1016A000F89485E08093E9008091F2009FBF882341
:1016B000C1F080912C0590912D05892B91F040E48B
:1016C00050E0BE016F5F7F4F85E00E94D90A97FD11
:1016D00008C0E0912C05F0912D05BC01CE010196CA
:1016E00009958091A203882341F08091A203815043
:1016F0008093A203811101C05D98C05CDF4F0FB6DB
:10170000F894DEBF0FBECDBFDF91CF91FF91EF9177
:10171000BF91AF919F918F917F916F915F914F9109
:101720003F912F910F900FBE0F901F901895EF9241
:10173000FF920F931F93CF93DF931F92CDB7DEB726
:1017400089838B017A0141E050E0BE016F5F7F4FDA
:1017500084E00E94400AA701B80184E40E94400A84
:101760000F90DF91CF911F910F91FF90EF9008950F
:101770001F93CF93DF93DC0111961C9111979C91DD
:10178000953009F467C060F5923009F443C0A8F4BD
:10179000913009F04DC1E091A501F091A6012EE133
:1017A000129FB00111246A517E4F028CF38DE02DFF
:1017B000CD01DF91CF911F9109949330C9F19430FD
:1017C00009F036C1E091A501F091A6012EE1129F2A
:1017D000B00111246A517E4F0488F589E02D35C08F
:1017E0009B3009F49DC038F4963009F441C09A301A
:1017F00009F44CC01DC19C3009F4CBC0913F09F0E5
:1018000017C140E450E0BD0182EFDF91CF911F91FD
:101810000C94970BE091A501F091A6013EE1139F76
:10182000B00111246A517E4F0088F189E02D0DC06E
:10183000E091A501F091A6018EE1189FB00111245D
:101840006A517E4F0288F389E02DCD01DF91CF915F
:101850001F910994E091A501F091A6013EE1139F2B
:10186000B00111246A517E4F0688F789E02DEDCF33
:10187000E091A501F091A6018EE1189FB00111241D
:101880006A517E4F008CF18DE02DDFCF1F3F09F4B0
:101890001FE712969C91913099F4812F0E94EA05DE
:1018A000E12FF0E0E855FC4F85818111C1C0E09146
:1018B000A501F091A6010680F781E02D812F47C098
:1018C000923029F5C1E08C2F0E944A04CF5FCC30C2
:1018D000D1F7C12FD0E0C855DC4F8D81811109C0EF
:1018E000E091A501F091A6010084F185E02D8FE73C
:1018F0000995812F0E94EA058D81811199C0E0919F
:10190000A501F091A6010680F781E02D1FC093305C
:1019100009F08EC0812FDF91CF911F910C944A0462
:1019200081E01F3FC1F480930F0188E691E0E6EE6D
:10193000F1E0DF019C011D9221503040E1F7E09180
:10194000A501F091A6010284F385E02D8FE7DF91D8
:10195000CF911F910994809329051C3008F068C02D
:101960003EE1139FF0011124EA51FE4F1082809155
:101970000F01181710F410930F01E091A501F091D9
:10198000A6010284F385E02D812F09951092B803FA
:101990004FC082E08093B9039091BA039460909312
:1019A000BA039091BA0390619093BA031092BB036B
:1019B0001330B1F040F4113079F01230C9F5809154
:1019C000BA03826033C0153071F1B0F0163081F582
:1019D0008091BA038E7F2AC08091BA038D7F26C082
:1019E000E091A501F091A6010480F581E02D80E051
:1019F00009951092BB031CC0E091A501F091A601CE
:101A00000480F581E02D81E0099581E080930F014C
:101A100088E691E0E6EEF1E0DF019C011D922150A5
:101A20003040E1F705C08091BA0381608093BA032A
:101A3000DF91CF911F910895DC01683810F068584C
:101A400025C0E62FF0E067FF12C0E058F10981E001
:101A500090E001C0880FEA95EAF7809514969C9172
:101A60001497892314968C93149760E00FC0E65660
:101A7000FE4F6491662311F167FF08C014968C91A4
:101A800014978D7F14968C9314976F77FD0136967B
:101A900086E0662321F09081961301C01082815068
:101AA00031968111F6CFBD016C5F7F4F48E050E069
:101AB00082E00E94970B81E090E0089580E090E042
:101AC0000895FC01168217821086118612861386ED
:101AD0001482BC016C5F7F4F48E050E082E00C94C0
:101AE000970BDC01683810F068582DC0E62FF0E045
:101AF00067FF11C0E058F10981E090E001C0880F54
:101B0000EA95EAF714969C911497892B14968C9376
:101B1000149760E018C0E656FE4F6491611109C049
:101B200081E090E013969C938E93129780E090E072
:101B3000089567FF08C014968C91149782601496DC
:101B40008C9314976F7716968C911697861751F190
:101B500017968C911797861729F118968C911897DC
:101B6000861701F119968C9119978617D9F01A9654
:101B70008C911A978617B1F01B968C911B9786173C
:101B800089F0FD01369680E090E02191211105C099
:101B9000FD01E80FF91F668305C0019686309105A7
:101BA000A1F7BECFBD016C5F7F4F48E050E082E0FF
:101BB0000E94970B81E090E00895CF92DF92EF9220
:101BC000FF920F931F93CF93DF936C01EB017B0187
:101BD000E40EF51E00E010E0CE15DF0561F069911E
:101BE000D601ED91FC910190F081E02DC60109959F
:101BF000080F191FF1CFC801DF91CF911F910F91ED
:101C0000FF90EF90DF90CF90089583E08093E900FC
:101C10008091F200882319F08AE38093E800089508
:101C200020917704309178048091790490917A041E
:101C300028173907A9F0E0917904F0917A04E95C5A
:101C4000FB4F80812091790430917A042F5F3F4FC0
:101C50002F73332730937A042093790490E008950A
:101C60008FEF9FEF08952091770430917804809151
:101C7000790490917A042817390749F0E0917904A2
:101C8000F0917A04E95CFB4F808190E008958FEF3A
:101C90009FEF0895809177049091780420917904C2
:101CA00030917A04821B930B8F739927089585EDE9
:101CB0008093BC008091BC0084FDFCCF1092110485
:101CC00008954091EB03262F30E0240F311D21327F
:101CD0003105DCF4209111042430C9F4FC0180E0CA
:101CE00090E0861758F43091EB032191DC01A75363
:101CF000BC4FA30FB11D2C930196F3CF8091EB0342
:101D0000680F6093EB0380E0089581E0089582E01E
:101D1000089508958FEF9FEF08958FEF9FEF089537
:101D20008091C80390E09195819591090895CF9392
:101D3000DF9300D0CDB7DEB7CB01642F49835A8340
:101D40000E94610E4981842F5A81952F0F900F9028
:101D5000DF91CF910895CF93DF931F92CDB7DEB778
:101D6000698361E0CE0101960E94610E81E090E0FE
:101D70000F90DF91CF9108950895CF93DF93FC01E9
:101D8000EB01718182818983878190859A87898718
:101D900025853685438154816EE1769FC0011124EB
:101DA0008A519E4FDC0150965C934E931F97569636
:101DB0003C932E93559764E0769FD0011124AA544A
:101DC000BE4F1D921D921D921C9213978385948580
:101DD0009E878D8782858E8381E0DF91CF910895E4
:101DE000FC012281FB012783FC018381FB018087A9
:101DF0000895FC0182819381FB01908F878B089568
:101E0000DC01FB0112968D919C911397908F878B2B
:101E100014968D919C911597948F838F16968C9123
:101E20001697858F17968D919C9118979487838725
:101E30000895DC01FB0112968C91129782838281B6
:101E4000811110C015968D919C911697908F878B5C
:101E500013968D919C911497948F838F17968C91E4
:101E60008583089582810895DC01FB0112968C918F
:101E70001297838313968C911397848314968D9174
:101E80009C911597948B838B16968D919C911797A7
:101E9000928B818B08959EE1899FF0011124EA5174
:101EA000FE4F708B6787568B458B94E0899FF001BE
:101EB0001124EA54FE4F1082118212821382089577
:101EC000089508951092290524E0829FC0011124ED
:101ED000FC01EA54FE4F108211821282138208958F
:101EE00025E0FC0120838EE491E00895089580931D
:101EF000290508950E9455320F931F93CF93DF93C6
:101F00001F92CDB7DEB78C016983809117018823BA
:101F100059F041E050E0BE016F5F7F4F83E00E94C7
:101F2000400A181619063CF081E090E0F80193830E
:101F3000828380E090E00F90DF91CF911F910F910D
:101F400008950F931F93CF93DF931F92CDB7DEB702
:101F500000917704109178040F5F1F4F0F731127C2
:101F60008091790490917A0408171907F9F041E0FB
:101F700050E0BE016F5F7F4F82E00E94D90A019757
:101F800019F4898190E002C08FEF9FEF8F3F2FEF10
:101F9000920761F0E0917704F0917804E95CFB4FDF
:101FA00080831093780400937704D2CF0F90DF9151
:101FB000CF911F910F9108951F920F920FB60F921C
:101FC00011242F933F934F935F936F937F938F933E
:101FD0009F93AF93BF93EF93FF938091B900887F56
:101FE000803609F49CC068F5883209F45BC090F42F
:101FF000803109F454C038F4882309F4F6C08830DD
:1020000009F44DC0F6C0883109F44CC0803209F49F
:102010005DC0EFC0803409F468C048F4803309F42F
:1020200055C0883309F0E5C080931004D8C08035CE
:1020300009F44FC0883509F45DC0883409F0D9C06F
:10204000D6C0883909F4C7C0A8F4883709F467C036
:1020500038F4883609F463C0803709F460C0C9C019
:10206000883809F4B8C0803909F45FC0803809F0B5
:10207000C0C05BC0803B09F486C038F4803A09F4E4
:1020800066C0883A09F47FC0B4C0803C09F4A7C098
:10209000883C09F4A4C0883B09F48AC0AAC0809196
:1020A000360410C09091350480913404981770F56F
:1020B000E091350481E08E0F80933504F0E0EC5E12
:1020C000FB4F80818093BB0085EC86C08093100419
:1020D0008EC0E091350481E08E0F809335048091AD
:1020E000BB00F0E0EC5EFB4F808390913504809163
:1020F00034046EC0E091350481E08E0F8093350486
:102100008091BB00F0E0EC5EFB4F80838091130474
:1021100081116DC081E08093120484EA61C083E084
:102120008093110410920F04CFCF80910F0480325E
:1021300008F051C0E0910F0481E08E0F80930F04EE
:102140008091BB00F0E0E151FC4F8083BDCF85EC76
:102150008093BC001092110480910F04803230F4FF
:10216000E0910F04F0E0E151FC4F108260910F0408
:1021700070E0E091ED03F091EE038FEE93E00995AE
:1021800010920F0436C084E0809311041092EC0387
:102190001092EB03E091E903F091EA030995809135
:1021A000EB03811105C081E08093EB031092C9031A
:1021B000E091EC0381E08E0F8093EC03F0E0E753B5
:1021C000FC4F80818093BB009091EC038091EB03E6
:1021D000981708F479CF85E88093BC000AC085EC95
:1021E0008093BC001092110404C0109210040E944D
:1021F000570EFF91EF91BF91AF919F918F917F917A
:102200006F915F914F913F912F910F900FBE0F9063
:102210001F9018952091A7013091A8012817390720
:1022200008F4C90190938B0080938A00089520914F
:10223000A7013091A8012817390708F4C901909324
:1022400089008093880008954F925F926F927F92E9
:102250008F929F92AF92BF92CF92DF92EF92FF92B6
:102260000F931F93CF93DF93CDB7DEB760970FB671
:10227000F894DEBF0FBECDBF009709F46DC38C018B
:102280006091B50170E080E090E00E9472302AE039
:1022900037ED43E25CE30E94273169837A838B83C5
:1022A0009C83F80180809180A280B380B7FE08C033
:1022B000B094A09490948094811C911CA11CB11C9A
:1022C000C501B4010E9472306B017C016091AE01C6
:1022D0007091AF0180E090E00E9470302B013C01D2
:1022E00026E636E646E65FE30E94273129813A81F9
:1022F0004B815C810E9427316D837E838F83988719
:102300009B01AC01C701B6010E94223187FDCAC002
:10231000A301920169817A818B819C810E9427317E
:1023200069877A878B879C8720E030E040E85FE30D
:102330000E94562F9B01AC01C701B6010E94C32F1A
:1023400087FFB0C06D817E818F8198850E943A3071
:102350006B017C01A5019401261B370B480B590B1F
:10236000AEE3B0E00E94122F4B015C0169857A85D3
:102370008B859C850E943A309B01AC012C193D094C
:102380004E095F09C501B4010E94F32E69017A016B
:10239000FFEFCF1ADF0AEF0AFF0A560161E083E080
:1023A0000E945D17C114D10411F480E005C08FEFC5
:1023B000C816D10421F481E00E9427168AC0E2E207
:1023C000F8E0E4918E2F90E0FC013197EE30F105BA
:1023D00008F062C0EE55FF4F0C94483284B5806817
:1023E00084BDC7BC76C084B5806284BDC8BC71C0E2
:1023F00080918000806880938000D0928900C09294
:10240000880067C080918000806280938000D092B5
:102410008B00C0928A005DC080919000806880939C
:102420009000D0929900C092980053C08091900083
:10243000806280939000D0929B00C0929A0049C025
:1024400080919000886080939000D0929D00C0920F
:102450009C003FC08091C00080688093C000809144
:10246000C0008F7B8093C000C092CF0032C08091AB
:10247000C00080628093C000C092D0002AC08091CA
:10248000C20088608093C2008091C2008B7F8093DD
:10249000C200C092D2001DC0E0E8AE16B1040CF03C
:1024A0008ACF83CFA301920169817A818B819C813C
:1024B0000E94273120E030E040E85FE30E94562F81
:1024C0009B01AC01C701B6010E94223187FD6DCF8F
:1024D00072CF6091B00170E060587109072E000C56
:1024E000880B990B0E94723020E030E04FE753E4F4
:1024F0000E94C82F6B017C016093C4037093C503D5
:102500008093C6039093C70320E030E0A9010E94A6
:10251000223187FD1DC0A701960160E070E080E8D0
:102520009FE30E94562F6093C0037093C103809372
:10253000C2039093C30380E090E0A0E8BFE38093E0
:10254000BC039093BD03A093BE03B093BF0323C00D
:1025500020E030E0A901C701B6010E94C32F87FF28
:102560001AC080E090E0A0E8BFE38093C00390939E
:10257000C103A093C203B093C3039C01AD01C70183
:10258000B6010E94572F6093BC037093BD038093E4
:10259000BE039093BF039091AD01F801C080D1803C
:1025A000E280F380892F807491FDEAC0811195C08B
:1025B0001C141D041E041F04E4F54090AE0150904D
:1025C000AF012091B1013091B2014901A12CB12C90
:1025D000612C712CC301B2010E9470302091BC03A8
:1025E0003091BD034091BE035091BF030E9427313B
:1025F0000E943A30681979098A099B09A701960156
:102600000E942432A30192010E94F32EDA01C90133
:10261000880D991DAA1DBB1DF80180839183A2839B
:10262000B38380E090E00E941711F80180819181CE
:1026300046C0C114D104E104F10409F444C040903F
:10264000AE015090AF018091B1019091B2014C0167
:10265000A12CB12CF094E094D094C094C11CD11C56
:10266000E11CF11C612C712CC301B2010E9470307D
:102670002091C0033091C1034091C2035091C30324
:102680000E9427310E943A30681979098A099B090A
:10269000A70196010E942432A30192010E94F32E09
:1026A000DA01C901880D991DAA1DBB1DF80180839F
:1026B0009183A283B3830E94171180E090E00E946F
:1026C0000A112A9A49C180E090E00E94171180E027
:1026D00090E00E940A112A983FC1E091AE01F0916A
:1026E000AF011C141D041E041F04DCF44F0196945A
:1026F00087948091B1019091B201880E991EA12C0E
:10270000B12C2F01612C712CC301B2016819790918
:102710008A099B09A70196010E942432A301920114
:1027200019C0C114D104E104F10411F14F019694D0
:1027300087948091B1019091B201881A990AA12CD5
:10274000B12CA5019401C701B6010E9424329F015A
:1027500040E050E00E94F32EDA01C901880D991D76
:10276000AA1DBB1DF80180839183A283B38303C09C
:10277000CF01969587950E94171180E090E0D4C014
:10278000811133C0F7FC02C02A9A01C02A988091B7
:10279000B1019091B2016C01E12CF12C8090AE015D
:1027A0009090AF01A12CB12CF801208131814281A0
:1027B000538157FF07C050954095309521953F4F65
:1027C0004F4F5F4FC501B4016C197D098E099F09F8
:1027D0000E942432A50194010E94F32EDA01C9015E
:1027E0008C0D9D1DAE1DBF1D81C01C141D041E043B
:1027F0001F046CF520E030E040E85FE36091A90140
:102800007091AA018091AB019091AC010E94572F69
:10281000209104013091050140910601509107017A
:102820000E9427310E943A304B015C016091000107
:102830007091010180910201909103010E943A3050
:10284000681979098A099B09A70196013FC0C1143B
:10285000D104E104F10409F44FC02091A9013091A1
:10286000AA014091AB015091AC0160E070E080E8BA
:102870009FE30E94562F2091040130910501409161
:102880000601509107010E9427310E943A304B0106
:102890005C0122273327A9012C193D094E095F0944
:1028A000609108017091090180910A0190910B01DA
:1028B0002D873E874F87588B0E943A3068197909D7
:1028C0008A099B092D853E854F8558890E942432AF
:1028D0002091AE013091AF0140E050E00E94F32E14
:1028E000DA01C901880D991DAA1DBB1DF80180835D
:1028F0009183A283B3830BC06091040170910501A1
:1029000080910601909107010E944130CB010E9405
:102910001711609104017091050180910601909159
:1029200007010E944130CB0160960FB6F894DEBFDC
:102930000FBECDBFDF91CF911F910F91FF90EF9010
:10294000DF90CF90BF90AF909F908F907F906F90CF
:102950005F904F900C940A1160960FB6F894DEBF0A
:102960000FBECDBFDF91CF911F910F91FF90EF90E0
:10297000DF90CF90BF90AF909F908F907F906F909F
:102980005F904F9008956091A7017091A80180E039
:1029900090E00E9470309B01AC0160E07EEF8FEF11
:1029A00096E40E94C82F08952F923F924F925F9213
:1029B0006F927F928F929F92AF92BF92CF92DF924F
:1029C000EF92FF920F931F93CF93DF93CDB7DEB7B4
:1029D00029970FB6F894DEBF0FBECDBF99878887C1
:1029E0004B012B831D830C831701DF82CE82042FC2
:1029F00010E08C819D816C01E12CF12CE885F9853A
:102A0000F7FD2BC0C8019695982F88279795879535
:102A1000BF01681B790B072E000C880B990B0E94D5
:102A200072302B013C01C701B6010E9470309B013E
:102A3000AC01C301B2010E94C82F2B013C01C801A7
:102A40009695982F8827979587959A838983EB8108
:102A500090E8E99FB00111242AC0B8017695762F3D
:102A6000662777956795E885F9856E0F7F1F072E96
:102A7000000C880B990B0E9472302B013C01C7019E
:102A8000B6010E9470309B01AC01C301B2010E94EB
:102A9000C82F2B013C0160E86003C001619F900DCD
:102AA00011249A8389832B816203B00111248885C4
:102AB0009985681B790B072E000C880B990B0E94D7
:102AC00072306B017C01B10180E090E00E947030B7
:102AD0009B01AC01C701B6010E94C82F6B017C01AC
:102AE0008A149B0408F43FC08E819F818A0D9B1D30
:102AF00088169906C0F50C811D810A0D1B1D8016D4
:102B0000910690F4B4016A197B0980E090E00E947C
:102B100070309B01AC01C301B2010E9427310E94B9
:102B20003A3089819A811CC08219930988159905C8
:102B3000E8F48A189B08EE81FF818E1A9F0AB4017F
:102B4000620D731D80E090E00E9470309B01AC012B
:102B5000C701B6010E9427310E943A3088859985C5
:102B6000860F971F05C080E090E002C08885998598
:102B700029960FB6F894DEBF0FBECDBFDF91CF917F
:102B80001F910F91FF90EF90DF90CF90BF90AF908B
:102B90009F908F907F906F905F904F903F902F907D
:102BA00008958F929F92AF92BF92CF92DF92EF9251
:102BB000FF92CF93DF934B015C01EA010E940B0669
:102BC0006B017C01DE01A50194010E941D2F0E9472
:102BD0007230A70196010E94273120E030E040E0EA
:102BE00051E40E94273120E030E040E251E40E94AD
:102BF000273120E030E040E85BE30E9427310E946B
:102C00003A300E94300690958095709561957F4F7F
:102C10008F4F9F4FDF91CF91FF90EF90DF90CF903C
:102C2000BF90AF909F908F900895009769F0FC013E
:102C300001900020E9F73197AF01481B590BBC0107
:102C400082E894E00C94DD0D80E090E00895E2E2EB
:102C5000F8E04491E3E0F8E09491E4EEF7E02491A9
:102C6000222309F44DC04423C1F150E0FA01319709
:102C7000EE30F10590F5E055FF4F0C94483230915D
:102C800080003F7703C0309180003F7D309380000B
:102C900024C034B53F7702C034B53F7D34BD1DC07C
:102CA000309190003F7707C0309190003F7D03C086
:102CB00030919000377F309390000FC03091C0006A
:102CC0003F7703C03091C0003F7D3093C00005C006
:102CD0003091C200377F3093C200E22FF0E0EE0F58
:102CE000FF1FED52F84FA591B4912FB7F894EC91D6
:102CF000811103C090959E2301C09E2B9C932FBFF2
:102D000008959091810489B18C70892B90E09C0189
:102D100035952795359527952093810440917D041D
:102D200050917E0460917F0470918004FC01ED5A03
:102D3000FE4F8081082E000C990BAA0BBB0B840F51
:102D4000951FA61FB71F80937D0490937E04A093C8
:102D50007F04B093800480917C040895E091820404
:102D6000F09183040190F081E02D682F82E894E0D7
:102D70000994CF93DF938DE00E94AE16EC018AE0B8
:102D80000E94AE168C0F9D1FDF91CF9108958F92F8
:102D90009F92AF92BF92EF92FF920F931F93CF93A8
:102DA000DF93CDB7DEB7A1970FB6F894DEBF0FBEA5
:102DB000CDBF162F042F19A2423008F40AE07E017D
:102DC00021E2E20EF11C802E912CA12CB12C612F5E
:102DD000A50194010E94252F029F1019112481E062
:102DE000E81AF1081A3014F4105D01C0195CF701FB
:102DF0001083122F732FCA01232B242B252B39F775
:102E0000C7010E941516A1960FB6F894DEBF0FBE3B
:102E1000CDBFDF91CF911F910F91FF90EF90BF90A9
:102E2000AF909F908F900895CF92DF92EF92FF9294
:102E3000CF93DF9397FF19C06B017C018DE20E9455
:102E4000AE16EC0166277727CB016C197D098E0938
:102E50009F094AE00E94C7168C0F9D1FDF91CF91FA
:102E6000FF90EF90DF90CF9008954AE0DF91CF91EF
:102E7000FF90EF90DF90CF900C94C716CF93DF9325
:102E8000BC01990F880B990B0E941417EC010E944A
:102E9000B9168C0F9D1FDF91CF910895BC01990F3A
:102EA000880B990B0C941417682F70E080E090E069
:102EB0004AE00C94C7160C941516CF93DF9390E05C
:102EC000FC01E050F84F2491FC01EF51F84F849140
:102ED000882361F190E0880F991FFC01EB53F84FB4
:102EE000C591D491FC01ED52F84FA591B4916111B7
:102EF00009C09FB7F8948881209582238883EC913C
:102F00002E230BC0623061F49FB7F8943881822F72
:102F1000809583238883EC912E2B2C939FBF06C032
:102F20008FB7F894E8812E2B28838FBFDF91CF9144
:102F300008953FB7F8948091330590913405A0919E
:102F40003505B091360526B5A89B05C02F3F19F071
:102F50000196A11DB11D3FBFBA2FA92F982F882719
:102F6000820F911DA11DB11DBC01CD0142E0660F74
:102F7000771F881F991F4A95D1F70895CF92DF9246
:102F8000EF92FF92CF93DF936B017C010E94991720
:102F9000EB01C114D104E104F10479F00E94991706
:102FA0006C1B7D0B683E7340A0F381E0C81AD1080A
:102FB000E108F108C851DC4FECCFDF91CF91FF90D1
:102FC000EF90DF90CF9008952FB7F89460912F0580
:102FD0007091300580913105909132052FBF089591
:102FE0000F931F930E94E41760938A0470938B04DD
:102FF00080938C0490938D04E0918204F09183047B
:103000000084F185E02D82E894E0099597FF1FC0C8
:103010000E94E41700918A0410918B0420918C0483
:1030200030918D04DC01CB01801B910BA20BB30B03
:1030300000918604109187042091880430918904BE
:1030400080179107A207B307B8F28FEF9FEF1F9188
:103050000F910895FF920F931F93CF93DF9300D0AA
:1030600000D0CDB7DEB70E94F017FC0197FD11C06C
:103070008D32910591F0C0970A9778F0E091820423
:10308000F09183040680F781E02D82E894E00995B1
:10309000EACF60E070E0CB014CC020E030E0A90155
:1030A000F12CE130F105F1F0ED32F105C9F0CF017D
:1030B000C0970A97B8F4AAE0B0E00E94122F8F01DF
:1030C000FF0F220B330BDC01CB01800F911FA21FDE
:1030D000B31F9C01AD01205331094109510902C0C0
:1030E000FF24F394E0918204F09183040680F78139
:1030F000E02D82E894E029833A834B835C83099531
:103100000E94F017FC01C09729813A814B815C81B4
:103110000A9738F2E130F10521F2FF2041F06627ED
:103120007727CB01621B730B840B950B02C0CA017E
:10313000B9010F900F900F900F90DF91CF911F91D9
:103140000F91FF9008951F920F920FB60F921124C6
:103150002F933F938F939F93AF93BF9380912F05AE
:1031600090913005A0913105B091320530912E0536
:1031700023E0230F2D3720F40196A11DB11D05C0BA
:1031800026E8230F0296A11DB11D20932E058093E2
:103190002F0590933005A0933105B09332058091AF
:1031A000330590913405A0913505B091360501960F
:1031B000A11DB11D8093330590933405A09335056F
:1031C000B0933605BF91AF919F918F913F912F9111
:1031D0000F900FBE0F901F901895CF93DF93CDB730
:1031E000DEB7C054D1090FB6F894DEBF0FBECDBF15
:1031F000789484B5826084BD84B5816084BD85B5D2
:10320000826085BD85B5816085BD80916E008160DD
:1032100080936E0010928100809181008260809383
:103220008100809181008160809381008091800085
:1032300081608093800080919100826080939100F2
:1032400080919100816080939100809190008160D5
:10325000809390008091C10084608093C100809130
:10326000C10082608093C1008091C1008160809321
:10327000C1008091C30081608093C3008091C00031
:1032800082608093C0008091C20081608093C20000
:1032900080917A00846080937A0080917A008260C5
:1032A00080937A0080917A00816080937A00809187
:1032B0007A00806880937A001092A40181E0809364
:1032C000D70080EA8093D80082E189BD09B400FE6E
:1032D000FDCF61E070E080E090E00E94BE1780E9E1
:1032E0008093D8001CE01093E2001092E00010924E
:1032F0007E0310927D031092830310928403109238
:10330000850310928603109278031092770310922F
:103310008C0310928D0310928E0310928F031092E3
:10332000900310929103109292031092930342E043
:10333000BE01615F7F4F80E090E00E943B088F8577
:1033400098898A3F910509F407C18AEF90E09E872A
:103350008D8742E0BE01635F7F4F80E090E00E9476
:103360000C0819821A821B821C8244E0BE016F5F26
:103370007F4F82E090E00E940C0888E394E09E87F3
:103380008D8742E0BE01635F7F4F86E090E00E9440
:103390000C0884E6898B41E0BE016F5E7F4F88E0B8
:1033A00090E00E940C0841E0BE016F5E7F4F8BE011
:1033B00090E00E940C0841E0BE016F5E7F4F8CE000
:1033C00090E00E940C0841E0BE016F5E7F4F80E1FB
:1033D00090E00E940C0841E0BE016F5E7F4F8DE0DF
:1033E00090E00E940C0882E3898B41E0BE016F5E91
:1033F0007F4F89E090E00E940C0841E0BE016F5EC3
:103400007F4F8AE090E00E940C0841E0BE016F5EB1
:103410007F4F8EE090E00E940C0886E4898B41E0AB
:10342000BE016F5E7F4F8FE090E00E940C081E8609
:103430001D8642E0BE01635F7F4F81E190E00E9404
:103440000C088FEF97E09E878D8742E0BE01635F97
:103450007F4F83E190E00E940C088FEF9FE09E87F2
:103460008D8742E0BE01635F7F4F85E190E00E945F
:103470000C0880E8898B41E0BE016F5E7F4F87E1D9
:1034800090E00E940C0881E0898B41E0BE016F5EF4
:103490007F4F88E190E00E940C0880E699E0A0E070
:1034A000B0E089839A83AB83BC8344E0BE016F5F45
:1034B0007F4F89E190E00E940C08198B41E0BE012A
:1034C0006F5E7F4F8DE190E00E940C081E861D8686
:1034D00042E0BE01635F7F4F8AE290E00E940C08E9
:1034E00042E0BE01635F7F4F8EE290E00E940C08D5
:1034F00042E0BE01635F7F4F82E390E00E940C08D0
:1035000042E0BE01635F7F4F86E390E00E940C08BB
:103510008FEF93E09E878D8742E0BE01635F7F4F10
:103520008CE290E00E940C0842E0BE01635F7F4F96
:1035300080E390E00E940C0842E0BE01635F7F4F91
:1035400084E390E00E940C0842E0BE01635F7F4F7D
:1035500088E390E00E940C0842E063EB71E086E0B3
:1035600090E00E943B0844E06BE573E089E190E065
:103570000E943B0841E065EB71E088E090E00E942A
:103580003B0841E062E673E089E090E00E943B087E
:1035900041E060E673E08AE090E00E943B0841E091
:1035A00065E673E08BE090E00E943B0841E064E652
:1035B00073E08CE090E00E943B0841E063E673E03A
:1035C0008DE090E00E943B0841E061E673E08EE010
:1035D00090E00E943B0841E066E673E08FE090E0F7
:1035E0000E943B0841E06FE573E080E190E00E94BB
:1035F0003B0841E060EB71E087E190E00E943B080E
:1036000041E06BE873E088E190E00E943B0842E013
:1036100061EB71E081E190E00E943B0842E06EEADC
:1036200071E083E190E00E943B0842E069E573E0CD
:1036300085E190E00E943B0841E06DEA71E08DE198
:1036400090E00E943B0842E06FE773E08AE290E07E
:103650000E943B0842E061E873E08CE290E00E9447
:103660003B0842E067E873E08EE290E00E943B088E
:1036700042E069E873E080E390E00E943B0842E0AA
:1036800069E773E082E390E00E943B0842E06BE769
:1036900073E084E390E00E943B0842E063E773E05C
:1036A00086E390E00E943B0842E065E773E088E330
:1036B00090E00E943B0860915B0370915C038091F5
:1036C0005D0390915E030E94723020E030E044EB95
:1036D00053E40E94C82F6B017C018091B30190914B
:1036E000B401BC01990F880B990B0E9472309B01A9
:1036F000AC01C701B6010E9427310E943A306093A5
:103700004E0370934F0380935003909351036B01CA
:103710007C01F594E794D794C794C0925203D09259
:103720005303E0925403F092550362E080E00E945C
:103730005D1762E081E00E945D1762E082E00E9416
:103740005D17809169008C6080936900E99A1092FE
:103750007C04C0927D04D0927E04E0927F04F092BB
:103760008004109281044A9B05C08091810481608D
:10377000809381044B9B05C080918104826080937B
:103780008104809169008F7C806180936900EA9A4E
:10379000809169008F73806480936900EB9A60E088
:1037A00082E10E945D1760E083E10E945D1760E0A6
:1037B00084E10E945D1760E085E10E945D1762E090
:1037C00084E00E945D1762E08EE00E945D1762E077
:1037D0008FE00E945D1762E083E00E945D1762E067
:1037E00086E00E945D1762E087E00E945D1762E05C
:1037F00088E00E945D1762E085E00E945D1788E125
:1038000091E09093A6018093A50188EC94E09093B9
:103810002B0580932A0588EB9BE090932D058093E0
:103820002C05229A1091AD01812F0E9464085C0141
:103830009093A8018093A7019093AF018093AE016C
:103840006091B1017091B20180E090E00E9470300F
:103850006B017C01B50180E090E00E9470309B011B
:10386000AC01C701B6010E94C82F6093A9017093F3
:10387000AA018093AB019093AC01012F017010FD60
:1038800005C020E030E04AEF54E404C020E030E01E
:103890004AE754E4609108017091090180910A019E
:1038A00090910B010E9427316093080170930901E8
:1038B00080930A0190930B01011105C020E030E0D4
:1038C0004AEF54E404C020E030E04AE754E4609159
:1038D00004017091050180910601909107010E94F9
:1038E0002731609304017093050180930601909342
:1038F0000701011105C020E030E04AEF54E404C0A4
:1039000020E030E04AE754E4609100017091010149
:1039100080910201909103010E9427316093000180
:103920007093010180930201909303011092800033
:103930001092810010926F0016BA8091A7019091A9
:10394000A8019093870080938600109289001092BE
:10395000880010928B0010928A008091AD018274D1
:10396000823421F480918100826003C080918100C3
:103970008160809381008091AD0180FF09C08091BA
:10398000800082608093800080918100806108C007
:1039900080918000826080938000809181008861A6
:1039A0008093810080E090E00E9417118091800058
:1039B000806880938000259A80E090E00E940A1140
:1039C00080918000806280938000269A61E083E08D
:1039D0000E945D1713E081E00E94271664E170E009
:1039E00080E090E00E94BE1780E00E94271664E10C
:1039F00070E080E090E00E94BE17115061F71092D5
:103A00006D0310926E0310926F03109270038DE697
:103A100093E00E9424118091520390915303A0914E
:103A20005403B0915503F89480937D0490937E04E1
:103A3000A0937F04B0938004789410926C0310924A
:103A40006B038FEF97E09093580380935703809117
:103A5000B001809356030E9499176093940370936A
:103A6000950380939603909397030E949917609310
:103A70009404709395048093960490939704009116
:103A800098031091990320919A0330919B036B0145
:103A90007C01C01AD10AE20AF30AC0929004D092C3
:103AA0009104E0929204F092930400919403109197
:103AB000950320919603309197036B017C01C01A06
:103AC000D10AE20AF30A40EDC41647E0D406E10445
:103AD000F10410F40C943D2E6093940370939503BD
:103AE0008093960390939703F89480917D0490912E
:103AF0007E04A0917F04B091800478944091520399
:103B0000509153036091540370915503841B950B9E
:103B1000A60BB70B8093900390939103A09392030D
:103B2000B093930380938C0390938D03A0938E03A3
:103B3000B0938F0310918B0315FB882780F916FD36
:103B4000826017FF02C084601DC08130D9F46A0111
:103B50007B01C094D094E094F0949A01AB012C19AD
:103B60003D094E095F096091830370918403809140
:103B70008503909186030E9424322FEF3FEF40E0AF
:103B800050E032C0823059F46A017B01C094D09475
:103B9000E094F094A0917D03B0917E0319C083302E
:103BA00059F46A017B01C094D094E094F094A09100
:103BB0007703B09178030CC0843021F56A017B0152
:103BC000C094D094E094F094A0917103B0917203EA
:103BD0009A01AB012C193D094E095F090E941D2F66
:103BE0002FEF3FE040E050E00E94F32EC20ED31EC4
:103BF000E41EF51EC0928C03D0928D03E0928E03DA
:103C0000F0928F0380908C0390908D03A0908E0390
:103C1000B0908F0380919D0490919E04A0919F0489
:103C2000B091A00480929D0490929E04A0929F0463
:103C3000B092A0042091A504222309F449C0009168
:103C4000CE0454E0059F90011124B90163567B4FC7
:103C50007B01A5019401281B390B4A0B5B0BCA01A0
:103C6000B9010E947230D70119966D937D938D939F
:103C70009C931C97F02E3AE0E32E60E070E0CB01BD
:103C8000B4E0FB9EF0011124E356FB4F2185328501
:103C9000438554850E94572FFF2011F0FA9402C0EB
:103CA00029E0F22EEA94E110EBCF20E030E040E290
:103CB00051E40E94C82F0F5F0A3018F40093CE041D
:103CC00002C01092CE0468A779A78AA79BA70FC04D
:103CD00081E08093A5041092A1041092A204109296
:103CE000A3041092A40418A619A61AA61BA6209134
:103CF000CF043091D0044091D1045091D20488A5D2
:103D000099A5AAA5BBA58093CF049093D004A093B6
:103D1000D104B093D2048091D704882309F444C01D
:103D200000912805E4E00E9FC0011124BC016A55F2
:103D30007B4F7B0168A579A5CD010E94562FD70145
:103D4000D2966D937D938D939C93D597F02EB4E18D
:103D5000EB2E60E070E0CB01B4E0FB9EF00111249B
:103D6000EA55FB4F22A933A944A955A90E94572F10
:103D7000FF2011F0FA9402C0A3E1FA2EEA94E110B8
:103D8000EBCF20E030E040EA51E40E94C82F0F5F03
:103D9000043118F40093280502C01092280568AB7E
:103DA00079AB8AAB9BAB0FC081E08093D7041092B4
:103DB000D3041092D4041092D5041092D60418AAF9
:103DC00019AA1AAA1BAA80912905882359F110FF64
:103DD00023C70E94C3149B01AC0160E070E080E047
:103DE00094E40E94C82F6B017C016091660370E02F
:103DF00080E090E00E9472309B01AC01C701B601E7
:103E00000E94273120E030E048EC52E40E94C82FA5
:103E10000E943A30AB01C501B4010E94D1152B01BB
:103E20003C01FDC6EAEBF1E0FFA3EEA31F8A1E8A68
:103E3000412C512C32010E891F890F5F1F4F1F8BA0
:103E40000E8B4EE19801429F8001439F100D11247B
:103E50000A511E4FD8018C918370833009F0CFC670
:103E60000E94C3146B017C01F80121853285A7896A
:103E7000B08D0E944E322FEF3FE740E050E00E94AD
:103E8000F32ECA01B9010E947230A70196010E9467
:103E9000C82F0E943A309B01AC01D8011B968D912E
:103EA0009C911C97059730F4E4E0F0E01C96FC939D
:103EB000EE931B97FEE1EF2ECE88DF88EC9CF0019D
:103EC000ED9CF00D1124EA51FE4FE1818E2F90E020
:103ED000FC013197ED30F10508F07BC6EA5AFF4F3F
:103EE0000C9448320E94C3146A8B7B8B8C8B9D8B05
:103EF0002EE10E891F89209FC001219F900D112462
:103F0000AC014A515E4F1A01DA0119968D909C90CE
:103F10001A975596AD90BC9056971F96CD90DC9011
:103F200050975196ED90FC90529753960D911C919D
:103F3000549714962C91149713964C911397579667
:103F40008D919C915897EEA1FFA1608171810E9493
:103F5000D4149401DC010E944E322FEF3FE740E081
:103F600050E00E94F32ECA01B9010E9472302A89E2
:103F70003B894C895D890E94C82F0E943A300E947B
:103F800030069B01AC01A0916503B0E00E94122FA6
:103F900024E630E040E050E00E94F32E421A530A3B
:103FA000640A750A72C10E94C3146A8B7B8B8C8B66
:103FB0009D8B5EE1E52ECE88DF88EC9CF001ED9CC8
:103FC000F00D1124EA51FE4F018512851B8F0A8FD7
:103FD000C588D688DF8ECE8EE784F088FBA2EAA261
:103FE000018912891DA70CA7038914891CAF0BAF87
:103FF00084809380AEA1BFA12D903C90078510894D
:104000006085A7800A2C000CBB08062E000C770BDD
:104010006A197B09CB01770FAA0BBB0B6627782F98
:10402000892F9A2F0E9472306B017C01B80180E0C9
:1040300090E00E94703020E030E04AE754E40E94B3
:10404000C82F9B01AC01C701B6010E94C82F6B01AC
:104050007C01C101B8010E943432BC0180E090E0D3
:104060000E94703020E030E04AE754E40E94C82FFC
:104070009B01AC01C701B6010E9427310E943A3072
:10408000BA2CAA24C501860F971FAE8CBF8CCAA07C
:10409000DBA0ECA4FDA40BAD1CAD282D492DB10176
:1040A0000E94D4142A8D3B8DDC010E944E322FEFEA
:1040B0003FE740E050E00E94F32ECA01B9010E94A0
:1040C00072302A893B894C895D890E94C82F0E94E1
:1040D0003A300E943006461A570A680A790A79C5AA
:1040E0000E94C3146A8F7B8F8C8F9D8F4EE1C42EEC
:1040F000EE89FF89CE9EC001CF9E900D11248C01C8
:104100000A511E4F1801D80119960D90BC91A02D8F
:10411000BF8FAE8FF801038CF48DE02DFBA3EAA3D3
:10412000D8015D96BC91BCA7F80183849484A588CE
:10413000B688C784D088E188F288038914892481ED
:104140004381AEA1BFA10D90BC91A02DBB8BAA8BCA
:104150008789908DBD010E94D4148C01B40180E048
:1041600090E00E94703020E030E04AE754E40E9482
:10417000C82F9B01AC0160E070E080E89FE30E94E3
:10418000C82F6B017C018A899B89B4010E9434325B
:10419000BC0180E090E00E94703020E030E04AE70F
:1041A00054E40E94C82F9B01AC01C701B6010E94D4
:1041B00027316B017C01BCA56B2F70E080E090E0A3
:1041C0000E94703020E030E040E85BE30E9427313D
:1041D0009B01AC01C701B6010E94572F2BED3FE0B8
:1041E00049EC50E40E9427310E9494319B01AC01BC
:1041F000EAA1FBA16F01FF0FEE08FF08B801110F44
:10420000880B990B2DAF21963FAF21974EAF5FAF33
:104210000E9472302DAD21963FAD21974EAD5FAD1E
:104220000E9427310E943A30CB01770FAA0BBB0BBB
:10423000A7019601280F391F4A1F5B1FAE8DBF8D46
:104240000E94122F2FEF3FE740E050E00E94F32E34
:10425000CA01B9010E9472302A8D3B8D4C8D5D8D53
:104260000E94C82F0E943A309B01AC01A0916403C8
:10427000B0E00E94122F24E630E040E050E00E94BF
:10428000F32E420E531E641E751ED10116968C919C
:10429000169782FF9EC41D966D917C911E9780E0BB
:1042A00090E00E9470302BED3FE049EC50E40E941A
:1042B000273120E030E040E058E30E9427310E949F
:1042C00094319B01AC01C301B2012DAF21963FAFE8
:1042D00021974EAF5FAF0E9472302DAD21963FAD5A
:1042E00021974EAD5FAD0E9427310E943A302B01DD
:1042F0003C016FC40E94C3146A8F7B8F8C8F9D8F8B
:104300003EE1E32ECE88DF88EC9CF001ED9CF00DC1
:104310001124EA51FE4F018512851F8F0E8F238DC8
:10432000348DA901330F660B770B4AA35BA36CA3F3
:104330007DA3558D5CA723843484A588B688C78463
:10434000D088E188F2880389148924814381AEA151
:10435000BFA10D90BC91A02DBB8BAA8B8789908D9E
:10436000BD010E94D414BC01990F880B990B0E94C7
:1043700072304B015C01B10180E090E00E9470302E
:1043800020E030E04AE754E40E94C82F9B01AC01D2
:1043900060E070E080E89FE30E94C82F6B017C0121
:1043A0008A899B89B1010E943432BC0180E090E08F
:1043B0000E94703020E030E04AE754E40E94C82FA9
:1043C0009B01AC01C701B6010E9427316B017C0142
:1043D000BCA56B2F70E080E090E00E94703020E080
:1043E00030E040E85BE30E9427319B01AC01C7014C
:1043F000B6010E94572F2BED3FE049EC50E40E949C
:1044000027310E9494316B017C0120E030E0A9014A
:104410000E94223187FF0CC020E030E0A901C701D3
:10442000B6010E94C32F87FF05C0EFEFECAB02C0BF
:10443000F1E0FCABCCA86C2DCC0C770B880B990B66
:104440000E9472309B01AC01C501B4010E9427316A
:104450000E943A30CB01770FAA0BBB0BE0C10E9440
:10446000C3146E8F7F8F88A399A30EE1EE88FF8817
:104470000E9DF0010F9DF00D1124EA51FE4F218594
:1044800032853BA32AA3238D348DA901330F660BFC
:10449000770B4CA75DA76EA77FA7358D63857485C5
:1044A0007B8B6A8BA588B688C784D088E188F28820
:1044B0000389148924814381AEA1BFA10D90BC91D1
:1044C000A02DBB8FAA8F8789908DBD0121963FAF0C
:1044D00021970E94D4141C01EA89FB89BF0180E066
:1044E00090E00E9470304B015C0121963FAD219716
:1044F00060E4630F70E080E090E00E94703020E0A4
:1045000030E040E85BE30E942731A50194010E945E
:1045100027310E9441308A8D9B8D860F971F6A89B3
:104520007B890E9434328C01BC0180E090E00E94C3
:10453000703020E030E04AE754E40E94C82F6B015D
:104540007C0120E030E0A9010E94223187FD3CC0BF
:1045500020E030E04AE754E4C501B4010E94C82FCE
:104560006A8F7B8F8C8F9D8F20E030E040E05FE38F
:104570000E9427319B01AC01C701B6010E94C32FE5
:1045800087FF22C0B101032C000C880B990B0E94FD
:10459000723020E030E040E850E40E9427312A8D5C
:1045A0003B8D4C8D5D8D0E94C82FA70196010E9406
:1045B00027310E943A303194219431086101C60EAE
:1045C000D71EDEAACDAA51C020E030E04AE754E46D
:1045D000C501B4010E94C82F4B015C0120E030E00E
:1045E00040E05FE30E9427319B01AC01C701B601A7
:1045F0000E94223187FD39C0A5019401C701B6018F
:104600000E94C32F87FF31C0B101032C000C880B1F
:10461000990B0E94723020E030E040E850EC0E949C
:104620002731A50194010E94C82F6B017C018A8962
:104630009B8996958795B801681B790B80E090E07F
:104640000E94703020E030E04AE754E40E94C82F16
:104650009B01AC01C701B6010E9427310E943A308C
:104660007101E60EF71EFEAAEDAA0DA91EA9C8014A
:10467000110FAA0BBB0B2CA53DA54EA55FA5280FBE
:10468000391F4A1F5B1FAAA1BBA10E94122F2FEF47
:104690003FE740E050E00E94F32ECA01B9010E94BA
:1046A00072302E8D3F8D48A159A10E94C82F0E94C3
:1046B0003A309B01AC01A0916403B0E00E94122F3C
:1046C00024E630E040E050E00E94F32E420E531EFC
:1046D000641E751E7EC20E94C3146A8F7B8F8C8FEE
:1046E0009D8F4EE12E893F89429FF001439FF00D3F
:1046F0001124EA51FE4F618572857F8F6E8F238D65
:10470000348DC901330FAA0BBB0B8AA39BA3ACA3A7
:10471000BDA3358D23843484A588B688C784D0880A
:10472000E188F2880389148924814381AEA1BFA165
:104730000D90BC91A02DBB8BAA8B8789908DBD015C
:1047400021963FAF21970E94D4148C01B10180E0E3
:1047500090E00E9470304B015C0121963FAD2197A3
:1047600060E8630F70E080E090E00E94703020E02D
:1047700030E040E85BE30E942731A50194010E94EC
:1047800027310E9441308A899B89860F971FB1018A
:104790000E9434329B8B8A8B82159305D0F5B80129
:1047A000012E000C880B990B0E9472309B01AC010A
:1047B0000E94572F6B017C0120E030E04AE754E46F
:1047C000C501B4010E94C82F9B01AC01C701B6010D
:1047D0000E94C82F4B015C01CA88DB88B60180E0CB
:1047E00090E00E94703020E030E04AE754E40E94FC
:1047F000C82F9B01AC01C501B4010E9427310E9462
:104800003A301195019511097801E60EF71EF8AEC0
:10481000EFAA0FA918ADC801110FAA0BBB0B2AA153
:104820003BA14CA15DA1280F391F4A1F5B1FAE8D14
:10483000BF8D0E94122F2FEF3FE740E050E00E9413
:10484000F32ECA01B9010E9472302A8D3B8D4C8D26
:104850005D8D2BCF0E94C3146A8F7B8F8C8F9D8FB1
:104860004EE12E893F89429FF001439FF00D1124B4
:10487000EA51FE4F618572857F8F6E8F238D348D57
:10488000C901330FAA0BBB0B8AA39BA3ACA3BDA387
:10489000358D23843484A588B688C784D088E18880
:1048A000F2880389148924814381AEA1BFA10D90B0
:1048B000BC91A02DBB8BAA8B8789908DBD012196C1
:1048C0003FAF21970E94D4148C01B10180E090E0A9
:1048D0000E9470304B015C0121963FAD219760E84A
:1048E000630F70E080E090E00E94703020E030E0E4
:1048F00040E85BE30E942731A50194010E94273123
:104900000E9441308A899B89860F971FB1010E94BE
:1049100034329B8B8A8B82159305D0F566277727D7
:10492000601B710B072E000C880B990B0E947230D4
:104930009B01AC010E94572F6B017C0120E030E00D
:104940004AE754E4C501B4010E94C82F9B01AC01A1
:10495000C701B6010E94C82F4B015C01CA88DB88E1
:10496000B60180E090E00E94703020E030E04AE73D
:1049700054E40E94C82F9B01AC01C501B4010E9400
:1049800027310E943A307801E60EF71EFAAEE9AE02
:1049900009AD1AAD40CF8EE16E897F89869FF00107
:1049A000879FF00D1124EA51FE4F038D148DA091C5
:1049B0006303B0E00E94122F20E436E040E050E0B4
:1049C0000E94F32E69017A01209152033091530322
:1049D0004091540350915503D8010E941D2FDC01D2
:1049E000CB010FE0B595A795979587950A95D1F7D7
:1049F000092E000CAA0BBB0B40918C0350918D0328
:104A000060918E0370918F038A019B01081B190B23
:104A10002A0B3B0BC901B801A6010E94D115460E15
:104A2000571E681E791ED5C08EE16E897F89869FCC
:104A3000F001879FF00D1124EA51FE4F038D148D74
:104A4000A0916203B0E00E94122F24E630E040E023
:104A500050E00E94F32E69017A01B801110F880B12
:104A6000990B0E9472302AE939EC4CEC54E40E9414
:104A7000C82F9B01AC0168A579A58AA59BA50E94BA
:104A8000562FA6010E94440762C01EE1C12EAE89C6
:104A9000BF89CA9EF001CB9EF00D1124EA51FE4F52
:104AA000038D148DA0916103B0E00E94122F24E6C3
:104AB00030E040E050E00E94F32E69017A01B80135
:104AC000110F880B990B0E94723020E03EEF4FEFE0
:104AD00056E40E94C82F9B01AC0168A979A98AA954
:104AE0009BA90E94562FA6010E94DC0630C00EE151
:104AF000EE88FF880E9DF0010F9DF00D1124EA5104
:104B0000FE4F038D148DA0916003B0E00E94122F20
:104B100024E630E040E050E00E94F32E69017A0183
:104B2000B801110F880B990B0E9472302AE939ECF9
:104B30004CEC54E40E94C82F9B01AC0168A579A5F8
:104B40008AA59BA50E94562FA6010E945B06092EEE
:104B5000000CAA0BBB0B480E591E6A1E7B1E39C0E7
:104B60000E94C3149B01AC018EE16E897F89869FF0
:104B7000F001879FF00D1124EA51FE4F838D948D33
:104B8000BC01990F880B990B2DAF21963FAF219750
:104B90004EAF5FAF0E9472302DAD21963FAD219791
:104BA0004EAD5FAD0E94C82F0E943A300E94300681
:104BB0009B01AC01A0916403B0E00E94122F24E697
:104BC00030E040E050E00E94F32E421A530A640A9B
:104BD000750A0E94E4170091B6011091B701209167
:104BE000B8013091B901DC01CB01801B910BA20B04
:104BF000B30BEEA1FFA180839183A283B3830EA1A7
:104C00001FA10C5F1F4F1FA30EA32E893F892B30BE
:104C1000310509F010C903C0412C512C320110910B
:104C20008B0311FF31C00E94C3149B01AC01E091C2
:104C3000620367E471E0E69FC001E79F900D1124D5
:104C4000BC0180E090E02DAF21963FAF21974EAFA1
:104C50005FAF0E9472302DAD21963FAD21974EADD2
:104C60005FAD0E94C82F0E943A30AB0168A579A5BC
:104C70008AA59BA50E944407092E000CAA0BBB0B1A
:104C8000480E591E6A1E7B1E12FF31C00E94C314BB
:104C90009B01AC01E091610367E471E0E69FC00114
:104CA000E79F900D1124BC0180E090E02DAF21968C
:104CB0003FAF21974EAF5FAF0E9472302DAD21966E
:104CC0003FAD21974EAD5FAD0E94C82F0E943A3094
:104CD000AB0168A979A98AA99BA90E94DC06092EC3
:104CE000000CAA0BBB0B480E591E6A1E7B1E13FF3D
:104CF00031C00E94C3149B01AC01E091600367E4E2
:104D000071E0E69FC001E79F900D1124BC0180E097
:104D100090E02DAF21963FAF21974EAF5FAF0E943D
:104D200072302DAD21963FAD21974EAD5FAD0E9403
:104D3000C82F0E943A30AB0168A579A58AA59BA52A
:104D40000E945B06092E000CAA0BBB0B480E591ED5
:104D50006A1E7B1E4091520350915303609154038D
:104D60007091550380918C0390918D03A0918E03D7
:104D7000B0918F03CC24DD247601C41AD50AE60A4B
:104D8000F70A8C159D05AE05BF0534F04817590785
:104D90006A077B070CF045C0B7FD05C0841B950B67
:104DA000A60BB70B04C0840F951FA61FB71F8093D7
:104DB0008C0390938D03A0938E03B0938F030E9476
:104DC000C3149B01AC0160E07EEF8FEF96E40E947C
:104DD000C82F6B017C0160915F0370E080E090E080
:104DE0000E9472309B01AC01C701B6010E942731BD
:104DF00020E030E048EC52E40E94C82F0E943A3094
:104E00006B017C0160918C0370918D0380918E0306
:104E100090918F03A6010E94D115460E571E681E61
:104E2000791EA091B501B0E0A30192010E94122F5A
:104E300024E630E040E050E00E94F32ECA01B901C0
:104E40000E9430066B017C0114FF04C00E941417FD
:104E50000E94B916C0926D03D0926E03E0926F0368
:104E6000F09270036091900370919103809192038E
:104E7000909193030E9472306B017C0160914E030C
:104E800070914F0380915003909151030E947230B2
:104E90009B01AC0160E07FEF8FE797E40E94C82F91
:104EA0009B01AC01C701B6010E9427310E943A3034
:104EB0004B015C01611570488105910534F088242F
:104EC0008A94BFE79B2EA12CB12C811440E8940654
:104ED0004FEFA406B40634F4812CA0E89A2EAA243D
:104EE000AA94BA2C8092900390929103A09292037C
:104EF000B09293038DE693E00E94241100916B031E
:104F000010916C0340907F0350908003400E511E1F
:104F1000612C712CC0907903D0907A03C00ED11E01
:104F2000E12CF12C2091770330917803C901330FE4
:104F3000AA0BBB0B9C01AD012C193D094E095F0961
:104F4000AFEFBFE00E94122F20917B0330917C03D2
:104F5000201B310B40E050E02C193D094E095F0940
:104F60000E94F32E2E8B3F8B488F598FC090730376
:104F7000D0907403C00ED11EE12CF12C209171034E
:104F800030917203C901330FAA0BBB0B9C01AD0119
:104F90002C193D094E095F09AFEFBFE00E94122FA7
:104FA0002091750330917603201B310B40E050E0D7
:104FB0002C193D094E095F090E94F32E69017A01FF
:104FC00020917D0330917E03C901330FAA0BBB0BE7
:104FD0009C01AD012419350946095709AFEFBFE01F
:104FE0000E94122F2091810330918203201B310BEC
:104FF00040E050E024193509460957090E94F32E74
:105000002901411450E1550624F044244A94FFE05C
:105010005F2E57FE02C0412C512C50927E034092CD
:105020007D036E887F88611460E1760624F0662433
:105030006A94EFE07E2E77FE02C0612C712C709294
:10504000780360927703C11470E1D70624F0CC2472
:10505000CA947FE0D72ED7FE02C0C12CD12CD092AB
:105060007203C09271038091870390918803800F2F
:10507000911F9C0140E050E02E8B3F8B488F598F51
:1050800020918303309184034091850350918603DE
:105090006E897F89888D998D261B370B480B590B9C
:1050A000AFEFBFEF0E94122F2091890330918A0346
:1050B000201B310B40E050E0EE88FF88088D198DF1
:1050C0002E193F09400B510B0E94F32E211531057B
:1050D00001E04007510524F02FEF3FEF40E050E0A2
:1050E00057FF03C020E030E0A901209383033093F1
:1050F0008403409385035093860389B182958F7012
:1051000091E0892790E0A0E0B0E081709927AA277C
:10511000BB271B9B8260199B8460489B88604F9BC8
:105120008061669B80621C9B8064369B806844E043
:10513000880F991FAA1FBB1F4A95D1F78093670359
:1051400090936803A0936903B0936A0310E8911ADF
:1051500089829A822B833C834D82262D2295207F43
:1051600025292E8354E0769467945A95E1F76F824F
:10517000C886D98664E0B695A795979587956A9570
:10518000D1F78A871B861C864CE050E0BE016F5F1A
:105190007F4F84E00E94970B80919004909191043E
:1051A000A0919204B091930480319742A105B1057A
:1051B00008F463C582E894E00E944A0E18161906A6
:1051C0000CF04BC582E894E00E94100EE82F8FE9A6
:1051D0008E0F8A3108F4E0528E2F90E0FC01E154EA
:1051E000F109EA31F10508F038C5ED59FF4F0C948B
:1051F00048328091B3019091B4010E944E1780E231
:105200000E94AE168091B5010E94541780E20E9460
:10521000AE16809162030E94541780E20E94AE167F
:10522000809160030E94541780E20E94AE16809124
:1052300065030E94541780E20E94AE1680916403B9
:105240000E94541780E20E94AE16809163030E9470
:10525000541780E20E94AE16809161030E94541799
:1052600080E20E94AE16809166030E94541780E28D
:105270000E94AE1680915F030E94541780E20E9444
:10528000AE166091B1017091B20180E090E04AE009
:105290000E94C71680E20E94AE168091B0010E9463
:1052A000541780E20E94AE1680918B030E9454171F
:1052B00080E20E94AE166091AE017091AF0180E075
:1052C00090E04AE00E94C71680E20E94AE1660910C
:1052D0005B0370915C0380915D0390915E030E947B
:1052E000141780E20E94AE166091AD0170E060C2BA
:1052F00083E991E00E945B178AEF90E00E944E17CD
:1053000088E991E00E945B178AE991E00E945B17AF
:105310008CE991E00E945B178EE991E00E945B1797
:105320009CC480919C04082E000C990B94C4F894A2
:10533000C0907D04D0907E04E0907F04F0908004C3
:1053400078948091AE019091AF012091B10130919C
:10535000B201821B930B9695879596958795A0E051
:10536000B0E089839A83AB83BC83CE0101960E940F
:105370002411D701C6011EEFF89480907D0490900F
:105380007E04A0907F04B0908004789488159905DD
:10539000AA05BB0554F46CE271E080E090E00E9445
:1053A000BE171150D501C40139F719821A821B8228
:1053B0001C82CE0101960E94241180914E0390918F
:1053C0004F03A0915003B0915103F89480937D0452
:1053D00090937E04A0937F04B09380047894C814C3
:1053E000D904EA04FB0411F482E001C081E0809357
:1053F0009C042FC40E942A18611101C061E06093CF
:10540000B00127C4F89440907D0450907E046090D1
:105410007F0470908004789480915203909153039C
:10542000A0915403B0915503481A590A6A0A7B0A9D
:105430008091980490919904A0919A04B0919B0452
:10544000480E591E6A1E7B1E0E942A186430710580
:10545000810591057CF06B017C01613C77428940BC
:1054600091056CF010ECC12E17E2D12E19E0E12E5F
:10547000F12C05C0B4E0CB2ED12CE12CF12CC9824B
:10548000DA82EB82FC826091B3017091B401072E45
:10549000000C880B990B0E9472304B015C01C30118
:1054A000B2010E947230A50194010E9427312B01A4
:1054B0003C0160914E0370914F0380915003909195
:1054C00051030E9472309B01AC01C301B2010E94E2
:1054D000C82F2B013C01C0925B03D0925C03E09289
:1054E0005D03F0925E03C701B60191C08091520343
:1054F00090915303A0915403B0915503F894809375
:105500007D0490937E04A0937F04B09380047894EC
:1055100053C1F89480907D0490907E04A0907F0405
:10552000B090800478948091520390915303A0919D
:105530005403B0915503881A990AAA0ABB0A8091AC
:10554000980490919904A0919A04B0919B04880EBC
:10555000991EAA1EBB1E0E942A186E317105810574
:10556000910574F06B017C016930774081059105EC
:1055700064F0A8E0CA2EA7E0DA2EE12CF12C05C0D9
:10558000FEE1CF2ED12CE12CF12CC982DA82EB8204
:10559000FC82C501B4010E9472304B015C01609134
:1055A000B3017091B401072E000C880B990B0E9477
:1055B00072309B01AC01C501B4010E9427314B013F
:1055C0005C0160914E0370914F0380915003909164
:1055D00051030E9472309B01AC01C501B4010E94CD
:1055E000C82F2B013C01D092B401C092B301B60187
:1055F000DD0C880B990B0E9472304B015C016091AD
:105600005B0370915C0380915D0390915E030E9447
:10561000723020E030E044EB53E40E94C82FA50133
:1056200094010E9427310E943A3060934E03709398
:105630004F0380935003909351036B017C01F594C9
:10564000E794D794C794C0925203D0925303E09248
:105650005403F09255030E9472309B01AC01C301C8
:10566000B2010E942731A50194010E94C82F0E9417
:105670003A30C60ED71EE81EF91E8091980490910C
:105680009904A0919A04B0919B04C81AD90AEA0A15
:10569000FB0AF894C0927D04D0927E04E0927F04CD
:1056A000F09280047894D5C20E942A18262F609127
:1056B0008B0380E090E030E0F901082E02C0F59500
:1056C000E7950A94E2F7C12CD12C7601C394082EF9
:1056D00004C0CC0CDD1CEE1CFF1C0A94D2F7E0FFCA
:1056E00002C06C2902C0C0946C21019688309105DB
:1056F00019F760938B0370E080E090E042E00E9435
:10570000C7160E94B916A9C20E942A188091AD013D
:1057100020E030E070E0AB01022E02C055954795C5
:105720000A94E2F7C12CD12C7601C394022E04C056
:10573000CC0CDD1CEE1CFF1C0A94D2F740FF02C00B
:105740008C2902C0C0948C212F5F3F4F2830310537
:1057500011F78093AD0141E06DEA71E08DE190E0D9
:105760000E940C088091AD010E946408BC0180E099
:1057700090E00E9470302091A9013091AA014091DF
:10578000AB015091AC010E9427310E943A306983ED
:105790007A838B839C8344E0BE016F5F7F4F81E1FE
:1057A00090E00E940C088091AD010E946408BC0149
:1057B00080E090E04AE0A3CF80E090E04CC282E835
:1057C00094E00E94100EE82F8FE98E0F8A3108F4C2
:1057D000E0528E2F90E0FC01E154F109E231F10535
:1057E00008F03BC2E358FF4F0C9448320E942A183D
:1057F000611550E175078105910524F06FEF7FE099
:1058000080E090E097FF03C060E070E0CB01698327
:105810007A838B839C83709388036093870319C278
:105820000E942A186115A0E17A078105910524F0EC
:105830006FEF7FE080E090E097FF03C060E070E0F2
:10584000CB0169837A838B839C8370938A036093F3
:105850008903FFC10E942A186115B0E17B07810509
:10586000910524F06FEF7FE080E090E097FF03C0A8
:1058700060E070E0CB0169837A838B839C837093B3
:10588000800360937F03E5C10E942A186115E0E15F
:105890007E078105910524F06FEF7FE080E090E0C6
:1058A00097FF03C060E070E0CB0169837A838B834C
:1058B0009C837093820360938103CBC10E942A185A
:1058C0006115F0E17F078105910524F06FEF7FE01E
:1058D00080E090E097FF03C060E070E0CB01698357
:1058E0007A838B839C8370937A0360937903B1C12D
:1058F0000E942A18611500E170078105910524F0C6
:105900006FEF7FE080E090E097FF03C060E070E021
:10591000CB0169837A838B839C8370937C03609330
:105920007B0397C10E942A18611510E17107810558
:10593000910524F06FEF7FE080E090E097FF03C0D7
:1059400060E070E0CB0169837A838B839C837093E2
:105950007403609373037DC10E942A18611520E1CE
:1059600072078105910524F06FEF7FE080E090E001
:1059700097FF03C060E070E0CB0169837A838B837B
:105980009C83709376036093750363C18091870352
:10599000909188030E944E1781EA91E00E945B1764
:1059A0008091890390918A030E944E1781EA91E0C9
:1059B0000E945B1780917F03909180030E944E1795
:1059C00081EA91E00E945B178091810390918203AC
:1059D0000E944E1781EA91E00E945B178091790343
:1059E00090917A030E944E1781EA91E00E945B1722
:1059F00080917B0390917C030E944E1781EA91E095
:105A00000E945B1780917303909174030E944E175C
:105A100081EA91E00E945B17809175039091760373
:105A20001AC142E063EB71E086E090E00E940C084E
:105A300044E06BE573E089E190E00E940C0841E0EE
:105A400065EB71E088E090E00E940C0841E062E6BE
:105A500073E089E090E00E940C0841E060E673E0AA
:105A60008AE090E00E940C0841E065E673E08BE07C
:105A700090E00E940C0841E064E673E08CE090E066
:105A80000E940C0841E063E673E08DE090E00E9424
:105A90000C0841E061E673E08EE090E00E940C08A3
:105AA00041E066E673E08FE090E00E940C0841E080
:105AB0006FE573E080E190E00E940C0841E060EB4C
:105AC00071E087E190E00E940C0841E06BE873E030
:105AD00088E190E00E940C0842E061EB71E081E116
