:100000000C9420040C9448040C9448040C942D0E79
:100010000C94090E0C9448040C9448040C94480465
:100020000C9448040C9448040C94F6110C94990F09
:100030000C9448040C9448040C9448040C94480410
:100040000C9448040C9448040C9448040C94480400
:100050000C9448040C9448040C9448040C94F61531
:100060000C9448040C9448040C9448040C944804E0
:100070000C9448040C9448040C9448040C944804D0
:100080000C9448040C9448040C9448040C944804C0
:100090000C9481170C9448040C9448040C94480464
:1000A0000C9448040C9448040C944804441FA51F65
:1000B0004C2142200122FC233D239D24E6241725C8
:1000C0004925BB258225D32CBC29382AEF2D162B98
:1000D0007C2D4B2A9E2BEF2DEF2DEF2DEF2DEF2DAD
:1000E000EF2DC4299E2BEF2D59295329EF2DBB2825
:1000F0003A29462BEF2DA12B9E2BB82BD22BEC2B84
:10010000062C202C3A2C542C6E2CEF2DEF2DEF2D9D
:10011000EF2DEF2DEF2DEF2DEF2DEF2D882CB62DA0
:10012000BB2D982D9D2DEF2DA22D932DEF2DB12DB3
:10013000C02DEF2DEF2DAC2DEF2DEF2DEF2DEF2D51
:10014000EF2DA72D720877087C088608D008D00804
:10015000D00890089A08A408AE08BB08D008C308C5
:100160009C139F1392139613C013C013C013A313B1
:10017000A713AB13B113B513C013BB1305A84CCD14
:10018000B2D44EB93836A9020C50B9918688083CD1
:10019000A6AAAA2ABE000000803F000000000000BE
:1001A00000002A2B280000000000000000000000D2
:1001B000000000000000000000002C9EB4A0A1A2DE
:1001C000A434A6A7A5AE362D3738271E1F2021221E
:1001D00023242526B333B62EB7B89F848586878817
:1001E000898A8B8C8D8E8F90919293949596979807
:1001F000999A9B9C9D2F3130A3AD350405060708C5
:10020000090A0B0C0D0E0F101112131415161718E6
:10021000191A1B1C1DAFB1B0B500080B0002020279
:100220000100090400000102020000052400100181
:100230000524010101042402060524060001070526
:10024000810310004009040100020A0000000705B4
:10025000020240000007058302400000090402007A
:10026000020300000009210101000122E104070549
:10027000840340000107050503400001050109044E
:10028000A10185040901A100093017000000002721
:10029000FFFF0000350047FFFF000075109501814A
:1002A00002093116000027FFFF0000350047FFFF5D
:1002B0000000751095018102093216000027FF0F1A
:1002C0000000350047FF0F0000750C950181020901
:1002D0003316000027FF0F0000350047FF0F000016
:1002E000750C95018102093416000027FF0F0000EC
:1002F000350047FF0F0000750C9501810209391583
:100300000125083500463B0165145500750495012B
:1003100081020509150025015500650019012918FC
:1003200075019518810285F10901150026FF0095D8
:100330003F7508918285F20901953F75088182C059
:10034000050F0992A1028502099F09A009A409A528
:1003500009A61500250135004501750195058102A5
:1003600095038103099415002501350045017501A8
:1003700095018102092215012528350145287507B7
:1003800095018102C00921A10285010922150125DB
:1003900028350145287508950191020925A1020912
:1003A000260927093009310932093309340940097E
:1003B0004109420943250B15013501450B75089587
:1003C000019100C009500954150027FFFF000035B6
:1003D0000047FFFF000066011055FD751095029162
:1003E0000255006600000952150026FF7F350046C1
:1003F000FF7F7510950191020953150125083501FC
:1004000045087508950191020955A10205010930B9
:10041000093115002501750195029102C0050F09EA
:100420005695019102950591030957A1020B010010
:100430000A000B02000A0066140055FE150026FF94
:100440007F3500479F8C0000751095019102550083
:10045000660000C0050F09A766011055FD150027AD
:10046000FFFF0000350047FFFF0000751095019168
:10047000026600005500C0050F095AA10285020955
:100480002215012528350145287508950191020995
:100490005B095D150026FF00350046FF7F75089556
:1004A000029102095C095E66011055FD26FF7F4638
:1004B000FF7F7510950291026600005500C0095F2C
:1004C000A102850309221501252835014528750853
:1004D0009501910209231500250135004501750498
:1004E000950191020958A1020B01000A000B0200BC
:1004F0000A00750295029102C0096016008026FF6D
:100500007F36008046FF7F751095019102096136A4
:10051000008046FF7F95019102150026FF7F350080
:1005200046FF7F0963751095019102096515002644
:10053000FF0046FF7F750895019102C0096EA10278
:1005400085040922150125283501452875089501DE
:1005500091020970150026FF7F350046FF7F751058
:1005600095019102096F16008026FF7F36008046B4
:10057000FF7F950191020971150026FF00350046A5
:1005800067016614005500750895019102097227EC
:10059000FFFF000047FFFF000066011055FD7510CA
:1005A000950191026600005500C00973A1028505FE
:1005B0000922150125283501452875089501910264
:1005C000097016018026FF7F36018046FF7F751077
:1005D00095019102C00974A1028506092215012521
:1005E0002835014528750895019102097509761588
:1005F00081257F36018046FF7F750895029102C0F4
:10060000050F0977A102850A092215012528350160
:1006100045287508950191020978A1020979097A9E
:10062000097B15012503750895019100C0097C150A
:100630000026FF00350046FF009102C00990A1028C
:10064000850B0922150125283501452875089501D6
:100650009102C00996A102850C0997099809990988
:100660009A099B099C15012506750895019100C002
:10067000097DA102850D097E150026FF0035004683
:100680001027750895019102C009ABA102850509E3
:1006900025A1020926092709300931093209330940
:1006A0003409400941094209431501250B3501452B
:1006B0000B75089501B100C00501093B150026FF27
:1006C00001350046FF01750A9501B1027506B101B9
:1006D000C0050F0989A102850609222528150135C3
:1006E00001452875089501B102098BA102098C0901
:1006F0008D098E250315013501450375089501B156
:1007000000C009AC150027FFFF0000350047FFFFC0
:10071000000075109501B100C0097FA1028507098D
:100720008075109501150027FFFF0000350047FF79
:10073000FF0000B102098326FF0046FF00750895FF
:1007400001B10209A909AA75019502150025013513
:10075000004501B10275069501B103C0C0180341FF
:100760000072006400750069006E006F0020004C8C
:10077000004C00430004030904220341007200649A
:1007800000750069006E006F0020004D0069006375
:100790000072006F00200020002000120100020003
:1007A00000004041233780000101020001120100D6
:1007B00002020000404123378000010102000100D5
:1007C000C18081C1C000000000240027002A002D44
:1007D00000300000000000250028002B002E003112
:1007E00000040404040403040502020202040302D8
:1007F00002020206060606060604040202020404B9
:10080000040802011040804010204080408008020F
:100810000401804020100201108010204040200080
:1008200000000200080E0000030401000B0000009D
:100830000000000000000000000000000000092E81
:1008400011241FBECFEFDAE0DEBFCDBF11E0A0E084
:10085000B1E0ECE3F4E602C005900D92A43AB107D2
:10086000D9F725E0A4EAB1E001C01D92A035B20796
:10087000E1F714E0C0E2D4E004C02197FE010E9439
:100880000A32CF31D107C9F70E94C9180C941C3223
:100890000C9400000895CF93DF93FC01EB0171816C
:1008A00082818983878190859A8789872585368586
:1008B000438154816EE1769FC00111248A519E4F7D
:1008C000DC0150965C934E931F9756963C932E9363
:1008D000559764E0769FD0011124AA54BE4F1D9213
:1008E0001D921D921C921397838594859E878D87F8
:1008F00082858E8381E0DF91CF910895FC01228172
:10090000FB012783FC018381FB0180870895FC01A3
:1009100082819381FB01908F878B0895DC01FB011D
:1009200012968D919C911397908F878B14968D9131
:100930009C911597948F838F16968C911697858F1F
:1009400017968D919C911897948783870895DC0161
:10095000FB0112968C91129782838281811110C0C3
:1009600015968D919C911697908F878B13968D91EC
:100970009C911497948F838F17968C9185830895FB
:1009800082810895DC01FB0112968C91129783837A
:1009900013968C911397848314968D919C9115973F
:1009A000948B838B16968D919C911797928B818B4C
:1009B00008959EE1899FF0011124EA51FE4F708B4A
:1009C0006787568B458B94E0899FF0011124EA5488
:1009D000FE4F1082118212821382089508950895A5
:1009E0001092760424E0829FC0011124FC01EA5495
:1009F000FE4F1082118212821382089525E0FC01BD
:100A0000208384E391E00895089580937604089507
:100A1000CF92DF92EF92FF926091B3017091B40197
:100A2000072E000C880B990B0E9434306B017C015F
:100A300060914E0370914F03809150039091510348
:100A40000E9434309B01AC01C701B6010E948A2F7D
:100A5000FF90EF90DF90CF9008958C30F8F4282F1E
:100A600030E09EE1899FF0011124EA51FE4F908110
:100A70009923A1F090819D7F9083F901EF55FC4F60
:100A8000958191110BC0E091A501F091A601008420
:100A9000F185E02D09951092B103089508958C30E9
:100AA000F0F49EE1899FF0011124EA51FE4F80810C
:100AB0008823A9F08081826080838091B1038111B5
:100AC0000EC00E9437156093B6017093B7018093F2
:100AD000B8019093B90181E08093B103089508951E
:100AE0001F93CF93DF93DC0111961C9111979C917A
:100AF000953009F467C060F5923009F443C0A8F45A
:100B0000913009F04DC1E091A501F091A6012EE1CF
:100B1000129FB00111246A517E4F028CF38DE02D9B
:100B2000CD01DF91CF911F9109949330C9F1943099
:100B300009F036C1E091A501F091A6012EE1129FC6
:100B4000B00111246A517E4F0488F589E02D35C02B
:100B50009B3009F49DC038F4963009F441C09A30B6
:100B600009F44CC01DC19C3009F4CBC0913F09F081
:100B700017C140E450E0BD0182EFDF91CF911F919A
:100B80000C948612E091A501F091A6013EE1139F1D
:100B9000B00111246A517E4F0088F189E02D0DC00B
:100BA000E091A501F091A6018EE1189FB0011124FA
:100BB0006A517E4F0288F389E02DCD01DF91CF91FC
:100BC0001F910994E091A501F091A6013EE1139FC8
:100BD000B00111246A517E4F0688F789E02DEDCFD0
:100BE000E091A501F091A6018EE1189FB0011124BA
:100BF0006A517E4F008CF18DE02DDFCF1F3F09F44D
:100C00001FE712969C91913099F4812F0E944F0515
:100C1000E12FF0E0EF55FC4F85818111C1C0E091DB
:100C2000A501F091A6010680F781E02D812F47C034
:100C3000923029F5C1E08C2F0E942D05CF5FCC307A
:100C4000D1F7C12FD0E0CF55DC4F8D81811109C084
:100C5000E091A501F091A6010084F185E02D8FE7D8
:100C60000995812F0E944F058D81811199C0E091D6
:100C7000A501F091A6010680F781E02D1FC09330F9
:100C800009F08EC0812FDF91CF911F910C942D051B
:100C900081E01F3FC1F480930C0188E691E0E6EE0D
:100CA000F1E0DF019C011D9221503040E1F7E0911D
:100CB000A501F091A6010284F385E02D8FE7DF9175
:100CC000CF911F910994809376041C3008F068C07E
:100CD0003EE1139FF0011124EA51FE4F10828091F2
:100CE0000C01181710F410930C01E091A501F0917C
:100CF000A6010284F385E02D812F09951092B1039E
:100D00004FC082E08093B2039091B30394609093BC
:100D1000B3039091B30390619093B3031092B40323
:100D20001330B1F040F4113079F01230C9F58091F0
:100D3000B303826033C0153071F1B0F0163081F525
:100D40008091B3038E7F2AC08091B3038D7F26C02C
:100D5000E091A501F091A6010480F581E02D80E0ED
:100D600009951092B4031CC0E091A501F091A60171
:100D70000480F581E02D81E0099581E080930C01EC
:100D800088E691E0E6EEF1E0DF019C011D92215042
:100D90003040E1F705C08091B30381608093B303D5
:100DA000DF91CF911F910895CF93DF9300D000D0B2
:100DB0001F92CDB7DEB7FC0181819081913A29F570
:100DC000813009F0BCC08281863051F445E050E0AA
:100DD0006CE973E080E40E94410F10929C03AFC065
:100DE000873009F0ACC089838FEF9FEF9B838A83A4
:100DF0008BE08C8383E08D8345E050E0BE016F5F24
:100E00007F4F80E40E94410F9AC0913209F097C051
:100E1000893009F094C08281853009F090C064E087
:100E200070E0CE0101960E942C0F86E080939C0317
:100E300080910C018B3021F1A0910C0181E08A0F8F
:100E400080930C019EE1E0910C019E9FF001112422
:100E5000EA51FE4F8081882351F080910C018B3044
:100E600030F480910C018F5F80930C01ECCF8EE108
:100E7000A89FF0011124EA51FE4F81E0808301C058
:100E8000A0E0A0939D03A11104C082E080939E0383
:100E900050C01092760481E080939E038A819EE187
:100EA000A99FD0011124AA51BE4F11968C9311977E
:100EB0008FEF9FEF50969C938E931F9754961C92A2
:100EC0001E92539752961C921E92519713968C9392
:100ED000139714968C93149756961C921E925597BE
:100EE0001E961C921E921D9716961C9216978FEFB7
:100EF0009FE71A969C938E93199758961C921E9270
:100F000057975C961C921E925B975D961C925D971C
:100F100088EE93E01C969C938E931B97E091A5011D
:100F2000F091A6010684F785E02DBD01CE01019662
:100F300009958FEF9FEF9093A00380939F0381E02B
:100F40000F900F900F900F900F90DF91CF91089519
:100F50004F925F926F927F928F929F92AF92BF92C9
:100F6000CF92DF92EF92FF920F931F93CF93DF9375
:100F7000CDB7DEB760970FB6F894DEBF0FBECDBF1A
:100F8000009709F46DC38C016091B50170E080E0B9
:100F900090E00E9434302AE037ED43E25CE30E94A7
:100FA000E93069837A838B839C83F8018080918008
:100FB000A280B380B7FE08C0B094A09490948094AF
:100FC000811C911CA11CB11CC501B4010E943430CC
:100FD0006B017C016091AE017091AF0180E090E007
:100FE0000E9432302B013C0126E636E646E65FE3FE
:100FF0000E94E93029813A814B815C810E94E9306D
:101000006D837E838F8398879B01AC01C701B601F6
:101010000E94E43087FDCAC0A301920169817A81F0
:101020008B819C810E94E93069877A878B879C87B6
:1010300020E030E040E85FE30E94182F9B01AC0104
:10104000C701B6010E94852F87FFB0C06D817E81E8
:101050008F8198850E94FC2F6B017C01A501940172
:10106000261B370B480B590BAEE3B0E00E94D42E81
:101070004B015C0169857A858B859C850E94FC2FDC
:101080009B01AC012C193D094E095F09C501B40152
:101090000E94B52E69017A01FFEFCF1ADF0AEF0A2D
:1010A000FF0A560161E083E00E94B014C114D1042C
:1010B00011F480E005C08FEFC816D10421F481E05F
:1010C0000E947A138AC0E2E2F8E0E4918E2F90E069
:1010D000FC013197EE30F10508F062C0EE55FF4F8C
:1010E0000C940A3284B5806884BDC7BC76C084B5D0
:1010F000806284BDC8BC71C080918000806880938C
:101100008000D0928900C092880067C080918000E2
:10111000806280938000D0928B00C0928A005DC074
:1011200080919000806880939000D0929900C09246
:10113000980053C080919000806280939000D0927C
:101140009B00C0929A0049C0809190008860809373
:101150009000D0929D00C0929C003FC08091C00042
:1011600080688093C0008091C0008F7B8093C00016
:10117000C092CF0032C08091C00080628093C000D6
:10118000C092D0002AC08091C20088608093C200C3
:101190008091C2008B7F8093C200C092D2001DC09C
:1011A000E0E8AE16B1040CF08ACF83CFA301920120
:1011B00069817A818B819C810E94E93020E030E056
:1011C00040E85FE30E94182F9B01AC01C701B60104
:1011D0000E94E43087FD6DCF72CF6091B00170E066
:1011E00060587109072E000C880B990B0E9434304F
:1011F00020E030E04FE753E40E948A2F6B017C012E
:101200006093BD037093BE038093BF039093C003AC
:1012100020E030E0A9010E94E43087FD1DC0A70155
:10122000960160E070E080E89FE30E94182F6093D1
:10123000B9037093BA038093BB039093BC0380E01F
:1012400090E0A0E8BFE38093B5039093B603A0932A
:10125000B703B093B80323C020E030E0A901C70171
:10126000B6010E94852F87FF1AC080E090E0A0E8B9
:10127000BFE38093B9039093BA03A093BB03B093E9
:10128000BC039C01AD01C701B6010E94192F6093F8
:10129000B5037093B6038093B7039093B80390910E
:1012A000AD01F801C080D180E280F380892F807485
:1012B00091FDEAC0811195C01C141D041E041F0479
:1012C000E4F54090AE015090AF012091B101309112
:1012D000B2014901A12CB12C612C712CC301B201C6
:1012E0000E9432302091B5033091B6034091B7038C
:1012F0005091B8030E94E9300E94FC2F68197909C7
:101300008A099B09A70196010E94E631A301920177
:101310000E94B52EDA01C901880D991DAA1DBB1DB9
:10132000F80180839183A283B38380E090E00E94E0
:10133000BC18F8018081918146C0C114D104E10438
:10134000F10409F444C04090AE015090AF01809187
:10135000B1019091B2014C01A12CB12CF094E09418
:10136000D094C094C11CD11CE11CF11C612C712CC7
:10137000C301B2010E9432302091B9033091BA0307
:101380004091BB035091BC030E94E9300E94FC2FA6
:10139000681979098A099B09A70196010E94E6311B
:1013A000A30192010E94B52EDA01C901880D991D91
:1013B000AA1DBB1DF80180839183A283B3830E9481
:1013C000BC1880E090E00E94AF182A9A49C180E0E2
:1013D00090E00E94BC1880E090E00E94AF182A982C
:1013E0003FC1E091AE01F091AF011C141D041E0439
:1013F0001F04DCF44F01969487948091B101909181
:10140000B201880E991EA12CB12C2F01612C712CD8
:10141000C301B201681979098A099B09A7019601DC
:101420000E94E631A301920119C0C114D104E10464
:10143000F10411F14F01969487948091B10190913C
:10144000B201881A990AA12CB12CA5019401C701F7
:10145000B6010E94E6319F0140E050E00E94B52EA7
:10146000DA01C901880D991DAA1DBB1DF8018083F1
:101470009183A283B38303C0CF01969587950E9481
:10148000BC1880E090E0D4C0811133C0F7FC02C0EA
:101490002A9A01C02A988091B1019091B2016C0101
:1014A000E12CF12C8090AE019090AF01A12CB12CD9
:1014B000F801208131814281538157FF07C0509547
:1014C0004095309521953F4F4F4F5F4FC501B40177
:1014D0006C197D098E099F090E94E631A5019401CE
:1014E0000E94B52EDA01C9018C0D9D1DAE1DBF1DD8
:1014F00081C01C141D041E041F046CF520E030E0A4
:1015000040E85FE36091A9017091AA018091AB016D
:101510009091AC010E94192F209104013091050196
:1015200040910601509107010E94E9300E94FC2F72
:101530004B015C01609100017091010180910201F9
:10154000909103010E94FC2F681979098A099B096F
:10155000A70196013FC0C114D104E104F10409F4CC
:101560004FC02091A9013091AA014091AB01509147
:10157000AC0160E070E080E89FE30E94182F2091AA
:1015800004013091050140910601509107010E942C
:10159000E9300E94FC2F4B015C0122273327A9016F
:1015A0002C193D094E095F096091080170910901EC
:1015B00080910A0190910B012D873E874F87588BB0
:1015C0000E94FC2F681979098A099B092D853E859F
:1015D0004F8558890E94E6312091AE013091AF01CC
:1015E00040E050E00E94B52EDA01C901880D991D36
:1015F000AA1DBB1DF80180839183A283B3830BC016
:10160000609104017091050180910601909107019C
:101610000E940330CB010E94BC18609104017091BC
:10162000050180910601909107010E940330CB01D2
:1016300060960FB6F894DEBF0FBECDBFDF91CF919D
:101640001F910F91FF90EF90DF90CF90BF90AF90E0
:101650009F908F907F906F905F904F900C94AF18F9
:1016600060960FB6F894DEBF0FBECDBFDF91CF916D
:101670001F910F91FF90EF90DF90CF90BF90AF90B0
:101680009F908F907F906F905F904F9008956091A2
:10169000A7017091A80180E090E00E9432309B0188
:1016A000AC0160E07EEF8FEF96E40E948A2F0895F0
:1016B0002F923F924F925F926F927F928F929F9262
:1016C000AF92BF92CF92DF92EF92FF920F931F9350
:1016D000CF93DF93CDB7DEB729970FB6F894DEBF6F
:1016E0000FBECDBF998788874B012B831D830C8349
:1016F0001701DF82CE82042F10E08C819D816C0166
:10170000E12CF12CE885F985F7FD2BC0C8019695F1
:10171000982F882797958795BF01681B790B072E0F
:10172000000C880B990B0E9434302B013C01C7013F
:10173000B6010E9432309B01AC01C301B2010E948C
:101740008A2F2B013C01C8019695982F88279795E1
:1017500087959A838983EB8190E8E99FB0011124F2
:101760002AC0B8017695762F662777956795E88524
:10177000F9856E0F7F1F072E000C880B990B0E94B6
:1017800034302B013C01C701B6010E9432309B016D
:10179000AC01C301B2010E948A2F2B013C0160E819
:1017A0006003C001619F900D11249A8389832B816E
:1017B0006203B001112488859985681B790B072E77
:1017C000000C880B990B0E9434306B017C01B10135
:1017D00080E090E00E9432309B01AC01C701B6016D
:1017E0000E948A2F6B017C018A149B0408F43FC07D
:1017F0008E819F818A0D9B1D88169906C0F50C81EC
:101800001D810A0D1B1D8016910690F4B4016A1902
:101810007B0980E090E00E9432309B01AC01C30163
:10182000B2010E94E9300E94FC2F89819A811CC07C
:101830008219930988159905E8F48A189B08EE81A6
:10184000FF818E1A9F0AB401620D731D80E090E043
:101850000E9432309B01AC01C701B6010E94E93001
:101860000E94FC2F88859985860F971F05C080E010
:1018700090E002C08885998529960FB6F894DEBF5E
:101880000FBECDBFDF91CF911F910F91FF90EF90D1
:10189000DF90CF90BF90AF909F908F907F906F9090
:1018A0005F904F903F902F900895CF92DF92EF92EC
:1018B000FF920F931F938B019C014091AE015091B9
:1018C000AF016A01E12CF12C66277727CB016C1957
:1018D0007D098E099F0906171707280739074CF05D
:1018E000C901B801C016D106E206F30614F4C70117
:1018F000B6011F910F91FF90EF90DF90CF90089568
:101900008F929F92AF92BF92CF92DF92EF92FF920F
:10191000CF93DF934B015C01EA010E9408056B0144
:101920007C01DE01A50194010E94DF2E0E9434306B
:10193000A70196010E94E93020E030E040E051E448
:101940000E94E93020E030E040E251E40E94E930BA
:1019500020E030E040E85BE30E94E9300E94FC2F89
:101960000E94550C90958095709561957F4F8F4F93
:101970009F4FDF91CF91FF90EF90DF90CF90BF907E
:10198000AF909F908F9008954F925F926F927F9249
:101990008F929F92AF92BF92CF92DF92EF92FF927F
:1019A000CF93DF9300D000D0CDB7DEB74B015C0101
:1019B00057FF02C04D5F5F4F6A01D594C794D5941D
:1019C000C7940E94080569837A838B839C839B015B
:1019D000AC01C501B4010E94E93020E030E040E2F2
:1019E00051E40E94E9302B013C0120E030E040E866
:1019F0005FE30E94E4300D2C000CEE08FF0818167F
:101A00001CF4C701B60128C020E030E040E85FEBDD
:101A1000C301B2010E94852F87FF06C0C701B6012E
:101A20000E94550CCB011EC0C701B6010E94343084
:101A30009B01AC01C501B4010E94E93029813A81C2
:101A40004B815C810E94E93020E030E040E251E4CB
:101A50000E94E9300E94FC2F0E94550C882799278C
:101A6000861B970B0F900F900F900F90DF91CF91E7
:101A7000FF90EF90DF90CF90BF90AF909F908F90AE
:101A80007F906F905F904F9008958F929F92AF924A
:101A9000BF92CF92DF92EF92FF924B015C01BA01AD
:101AA000550F880B990B0E9434306B017C0120E0AC
:101AB00030E0A901C501B4010E94E430A501940100
:101AC00018160CF05058C701B6010E94E9306B019E
:101AD0007C010E9408059B01AC01C701B6010E9470
:101AE000E93020E030E040E851E40E94E93020E0B5
:101AF00030E040E251E40E94E93020E030E040E094
:101B00005DE30E94E9300E94FC2F0E94550C6B019E
:101B10007C0120E030E0A901C501B4010E94E4305D
:101B200018162CF4882799278C199D090DC020E0E0
:101B300030E0A901C501B4010E94852F87FF02C0D2
:101B4000C60102C080E090E0FF90EF90DF90CF9060
:101B5000BF90AF909F908F900895CF92DF92EF92B9
:101B6000FF92CF93DF936B017C01EA0120E030E02C
:101B7000A9010E94E430181694F020E030E0A90199
:101B8000C701B6010E94852F87FF3AC020E030E0F0
:101B9000A901C701B6010E94192F6B017C01BE018A
:101BA000DD0F880B990B0E9434309B01AC01C701FB
:101BB000B6010E94E9306B017C010E9408059B017F
:101BC000AC01C701B6010E94E93020E030E040E8F6
:101BD00051E40E94E93020E030E040E251E40E940C
:101BE000E93020E030E040E05BE30E94E9300E9411
:101BF000FC2F0E94550C88279927861B970B02C043
:101C000080E090E0DF91CF91FF90EF90DF90CF9058
:101C100008951F920F920FB60F9211242F933F93A6
:101C20004F935F936F937F938F939F93AF93BF93E4
:101C3000EF93FF930E94D413FF91EF91BF91AF9167
:101C40009F918F917F916F915F914F913F912F91D4
:101C50000F900FBE0F901F9018951F920F920FB606
:101C60000F9211242F933F934F935F936F937F9322
:101C70008F939F93AF93BF93EF93FF930E94D413DF
:101C8000FF91EF91BF91AF919F918F917F916F9154
:101C90005F914F913F912F910F900FBE0F901F902A
:101CA0001895EF92FF921F93CF93DF93EC01162FBD
:101CB000E881F9810480F581E02D09957C01E881B6
:101CC000F9810680F781E02D612FCE010995C701CA
:101CD0009927DF91CF911F91FF90EF900895FC011C
:101CE00091818081813A29F49D7F81E0913091F446
:101CF00014C0813279F49A3049F09B3019F0993050
:101D000049F40AC0828180930F0106C082818093CA
:101D10000E0102C080E0089581E00895CF92DF9225
:101D2000EF92FF920F931F93CF93DF931F92CDB744
:101D3000DEB7F82EE42E8B01C82ED92E8C2D8F19EC
:101D40008E1588F4F80161918F01C60169830E94A4
:101D50009F2E6981681719F0C6010E94A72EFFEF18
:101D6000CF1ADF0AEBCF0F90DF91CF911F910F9128
:101D7000FF90EF90DF90CF900895CF92DF92EF9297
:101D8000FF920F931F93CF93DF931F92CDB7DEB7D0
:101D90008B016B017C01E61AF70A9C2D901B9417AE
:101DA00058F4C7018C0D9D1D49830E949F2EF6019A
:101DB00081936F014981F1CF0F90DF91CF911F91F6
:101DC0000F91FF90EF90DF90CF9008958F929F92A8
:101DD000AF92BF92CF92DF92EF92FF9240E050E03D
:101DE00020E0682F70E0812C912C54018394FA013B
:101DF0003296DB0102C0B595A795EA95E2F7750129
:101E00006401042E04C0CC0CDD1CEE1CFF1C0A94E3
:101E1000D2F7A0FF02C02C2902C0C0942C214F5F32
:101E20005F4F4430510519F730E0220F331FF9019D
:101E3000E75CFE4F80FF05C0808191819695879574
:101E400002C080819181FF90EF90DF90CF90BF9092
:101E5000AF909F908F900895FC01CB012091E800F6
:101E600022FFFCCF282F215028F03091F100308341
:101E70003196F9CF24E62093C1032BEF2093E8009D
:101E800008950F931F93CF93DF93DB01A40FB51F2A
:101E9000FB016EEFEA17FB0791F187FF02C0249167
:101EA00001C020810091C5031091C603C091C303F6
:101EB000D091C4030C171D07B4F49091E8009570FD
:101EC000E1F39091E80092FD1CC02093F100209175
:101ED000C5033091C6032F5F3F4F2F733327232B4A
:101EE00011F46093E8002091C5033091C6032F5F81
:101EF0003F4F3093C6032093C5033196CBCFCA0121
:101F000002C08FEF9FEFDF91CF911F910F91089546
:101F100042E450E06AE172E080E80E94410F40E252
:101F200050E06CE572E080E80E94410F83E090E0B1
:101F300008951F920F920FB60F921124EF92FF9205
:101F40001F932F933F934F935F936F937F938F9341
:101F50009F93AF93BF93EF93FF93CF93DF93CDB74F
:101F6000DEB76197DEBFCDBF1092E9008091E80037
:101F700083FF59C1FE013A96CF0128E02E0F2E179C
:101F800029F03091F10030833196F9CF24E6209387
:101F9000C10322EF2093E8002A8527FF05C0309176
:101FA000E80030FFFCCF03C03EEF3093E800322F53
:101FB000307609F0C5C08B85811105C01092F10003
:101FC0001092F10029C1982F9D7F913009F424C10E
:101FD000853049F48091E80080FFFCCF8C858068D3
:101FE0008093E30019C1863009F07CC01D85E88824
:101FF000F9881092E9001092C6031092C5031230BE
:1020000091F51092C4031092C3030E94880F99E0C7
:10201000BE016F5F7F4FFB01292F11922A95E9F7CF
:1020200099831A8391E09E8390E898879AEF998725
:102030002091C5033091C603275F3F4F3C832B831C
:102040008D831092E9001092C6031092C503F0929E
:10205000C403E092C30349E050E080E00E94410FD6
:102060000E94880FD9C0F092C403E092C3031232D9
:1020700059F441EE54E06CE772E080E80E94410FB1
:10208000892B09F0C9C0CCC0113069F488899989BD
:10209000089711F41093C2038091C203811111C0FB
:1020A0006BE977E016C0133009F0BAC08C8588233D
:1020B00059F0823061F0813009F0B2C06DE577E00F
:1020C00008C06DEA77E005C065E777E002C069E720
:1020D00077E06115710509F4A3C0FB01449150E05C
:1020E00080E849C0873009F49BC0883021F481E042
:1020F0008093F10091C0893009F08EC0237009F0FF
:102100008FC080E090E031E026E341E0480F40934B
:10211000E9003093EB000196FC01E154F84FE491A3
:10212000E093EC002093ED008530910571F78EE788
:102130008093EA001092EA008C858093A4016CC021
:10214000288939891092E9001092C6031092C503BC
:102150003093C4032093C3032E85211154C08B8573
:102160009A85913A59F4813209F05AC047E050E01B
:1021700060E171E080E00E94410F4EC0913209F0B1
:102180004FC0803239F467E070E080E191E00E9456
:102190002C0F42C0823209F043C08C858093170116
:1021A0008091100190911101A0911201B091130141
:1021B000803B9440A105B10579F58091170180FD20
:1021C00011C087E797E790930108809300089BE090
:1021D00088E10FB6F894A895809360000FBE9093A5
:1021E00060001AC00FB6F894A895809160008861CD
:1021F00080936000109260000FBEA89510920108B5
:102200001092000809C0223059F4E0917704F0914F
:1022100078040995882321F08EEF8093E80003C0AD
:1022200081E28093EB0061960FB6F894DEBF0FBE9B
:10223000CDBFDF91CF91FF91EF91BF91AF919F9172
:102240008F917F916F915F914F913F912F911F914E
:10225000FF90EF900F900FBE0F901F9018958F92E8
:102260009F92AF92BF92CF92DF92EF92FF920F9325
:102270001F93CF93DF9300D01F92CDB7DEB7382FD7
:102280008B018091A401882389F04A018AEFF82EFE
:10229000832F8770E82E90E4C92E832F8072B82E8A
:1022A0002AE3D22E832F8074A82E21C08FEF9FEFB8
:1022B0005FC08FB7F894E092E9009091E80095FF35
:1022C0001AC09091F2002C2D291B8FBF211115C02F
:1022D000FA94FF2059F361E070E080E090E03983E8
:1022E0004A835B830E94111539814A815B81811485
:1022F0009104F9F634C020E0E8CF822F90E08816F0
:1023000099060CF4282D822F90E0881A990A6FB74D
:10231000F894E092E900BB2029F02150A8F0109237
:10232000F100FBCFF80137FF07C0215058F074913E
:102330007093F1003196F9CF215020F07191709394
:10234000F100FACF080F191F8091E80085FF0DC03A
:102350008114910411F4A11008C06FBFC8CF5D9A19
:1023600084E68093C703CA0103C0D092E800F5CF8A
:102370000F900F900F90DF91CF911F910F91FF90D1
:10238000EF90DF90CF90BF90AF909F908F90089587
:102390009091A401992311F057FF03C08FEF9FEF95
:1023A00008952FB7F89487708093E9008091F20028
:1023B00090E0841795070CF4AC01842FFB0194E6A0
:1023C000815030F09093C1033091F1003193F8CFF8
:1023D0004115510521F08091F200882319F02FBF9B
:1023E000CA0108958BE68093E800F9CF1F920F92FF
:1023F0000FB60F9211242F933F934F935F936F93D8
:102400007F938F939F93AF93BF93EF93FF93CF935C
:10241000DF93CDB7DEB7C054D109DEBFCDBF809109
:10242000E1001092E10083FF0FC01092E90091E0FB
:102430009093EB001092EC0092E39093ED001092D9
:10244000A40198E09093F00082FF46C083E080935F
:10245000E9008091F200882319F08AE38093E80074
:102460009FB7F89482E08093E9008091F2009FBFCB
:10247000882321F08FEC93E00E9446179FB7F894D1
:1024800085E08093E9008091F2009FBF8823C1F02E
:102490008091790490917A04892B91F040E450E086
:1024A000BE016F5F7F4F85E00E94C81197FD08C095
:1024B000E0917904F0917A04BC01CE01019609956E
:1024C0008091C703882341F08091C7038150809396
:1024D000C703811101C05D98C05CDF4F0FB6F8944F
:1024E000DEBF0FBECDBFDF91CF91FF91EF91BF91C6
:1024F000AF919F918F917F916F915F914F913F919C
:102500002F910F900FBE0F901F901895EF92FF9292
:102510000F931F93CF93DF931F92CDB7DEB78983BD
:102520008B017A0141E050E0BE016F5F7F4F84E094
:102530000E942F11A701B80184E40E942F110F906F
:10254000DF91CF911F910F91FF90EF900895DC01E3
:10255000683810F0685825C0E62FF0E067FF12C019
:10256000E058F10981E090E001C0880FEA95EAF7B0
:10257000809514969C911497892314968C931497A4
:1025800060E00FC0E656FE4F6491662311F167FFCD
:1025900008C014968C9114978D7F14968C93149781
:1025A0006F77FD01369686E0662321F090819613C1
:1025B00001C01082815031968111F6CFBD016C5F50
:1025C0007F4F48E050E082E00E94861281E090E078
:1025D000089580E090E00895FC011682178210862D
:1025E0001186128613861482BC016C5F7F4F48E00F
:1025F00050E082E00C948612DC01683810F06858D4
:102600002DC0E62FF0E067FF11C0E058F10981E02E
:1026100090E001C0880FEA95EAF714969C91149710
:10262000892B14968C93149760E018C0E656FE4FE1
:102630006491611109C081E090E013969C938E93A0
:10264000129780E090E0089567FF08C014968C917F
:102650001497826014968C9314976F7716968C91CA
:102660001697861751F117968C911797861729F1AF
:1026700018968C911897861701F119968C911997D5
:102680008617D9F01A968C911A978617B1F01B9677
:102690008C911B97861789F0FD01369680E090E0BB
:1026A0002191211105C0FD01E80FF91F668305C0C6
:1026B000019686309105A1F7BECFBD016C5F7F4FBB
:1026C00048E050E082E00E94861281E090E00895A8
:1026D000009769F0FC0101900020E9F73197AF0104
:1026E000481B590BBC018FEC93E00C94401680E022
:1026F00090E00895E2E2F8E04491E3E0F8E094919C
:10270000E4EEF7E02491222309F44DC04423C1F103
:1027100050E0FA013197EE30F10590F5E055FF4FAA
:102720000C940A32309180003F7703C030918000D2
:102730003F7D3093800024C034B53F7702C034B56C
:102740003F7D34BD1DC0309190003F7707C0309170
:1027500090003F7D03C030919000377F3093900010
:102760000FC03091C0003F7703C03091C0003F7D63
:102770003093C00005C03091C200377F3093C20053
:10278000E22FF0E0EE0FFF1FED52F84FA591B4914C
:102790002FB7F894EC91811103C090959E2301C04E
:1027A0009E2B9C932FBF08959091CE0389B18C707E
:1027B000892B90E09C013595279535952795209399
:1027C000CE034091CA035091CB036091CC0370912A
:1027D000CD03FC01ED5AFE4F8081082E000C990BB1
:1027E000AA0BBB0B840F951FA61FB71F8093CA03AC
:1027F0009093CB03A093CC03B093CD038091C903F6
:102800000895E091CF03F091D0030190F081E02D85
:10281000682F8FEC93E00994CF93DF938DE00E94B3
:102820000114EC018AE00E9401148C0F9D1FDF91BE
:10283000CF9108958F929F92AF92BF92EF92FF92A5
:102840000F931F93CF93DF93CDB7DEB7A1970FB64A
:10285000F894DEBF0FBECDBF162F042F19A2423051
:1028600008F40AE07E0121E2E20EF11C802E912C98
:10287000A12CB12C612FA50194010E94E72E029F8B
:102880001019112481E0E81AF1081A3014F4105DCF
:1028900001C0195CF7011083122F732FCA01232B7B
:1028A000242B252B39F7C7010E946813A1960FB678
:1028B000F894DEBF0FBECDBFDF91CF911F910F9176
:1028C000FF90EF90BF90AF909F908F900895CF9220
:1028D000DF92EF92FF92CF93DF9397FF19C06B01C6
:1028E0007C018DE20E940114EC0166277727CB0161
:1028F0006C197D098E099F094AE00E941A148C0FF9
:102900009D1FDF91CF91FF90EF90DF90CF900895C2
:102910004AE0DF91CF91FF90EF90DF90CF900C9441
:102920001A14CF93DF93BC01990F880B990B0E9467
:102930006714EC010E940C148C0F9D1FDF91CF9146
:102940000895BC01990F880B990B0C946714682F9C
:1029500070E080E090E04AE00C941A140C94681344
:10296000CF93DF9390E0FC01E050F84F2491FC01FD
:10297000EF51F84F8491882361F190E0880F991FFF
:10298000FC01EB53F84FC591D491FC01ED52F84F87
:10299000A591B491611109C09FB7F89488812095E1
:1029A00082238883EC912E230BC0623061F49FB7A1
:1029B000F8943881822F809583238883EC912E2B85
:1029C0002C939FBF06C08FB7F894E8812E2B2883E5
:1029D0008FBFDF91CF9108953FB7F8948091800425
:1029E00090918104A0918204B091830426B5A89BA4
:1029F00005C02F3F19F00196A11DB11D3FBFBA2F91
:102A0000A92F982F8827820F911DA11DB11DBC01F0
:102A1000CD0142E0660F771F881F991F4A95D1F7B5
:102A20000895CF92DF92EF92FF92CF93DF936B01E5
:102A30007C010E94EC14EB01C114D104E104F10407
:102A400079F00E94EC146C1B7D0B683E7340A0F380
:102A500081E0C81AD108E108F108C851DC4FECCF79
:102A6000DF91CF91FF90EF90DF90CF9008952FB737
:102A7000F89460917C0470917D0480917E04909123
:102A80007F042FBF08950F931F930E943715609303
:102A9000D7037093D8038093D9039093DA03E0911E
:102AA000CF03F091D0030084F185E02D8FEC93E00B
:102AB000099597FF1FC00E9437150091D703109109
:102AC000D8032091D9033091DA03DC01CB01801BBC
:102AD000910BA20BB30B0091D3031091D40320915F
:102AE000D5033091D60380179107A207B307B8F238
:102AF0008FEF9FEF1F910F910895FF920F931F93F8
:102B0000CF93DF9300D000D0CDB7DEB70E9443153E
:102B1000FC0197FD11C08D32910591F0C0970A9785
:102B200078F0E091CF03F091D0030680F781E02D9B
:102B30008FEC93E00995EACF60E070E0CB014CC0E8
:102B400020E030E0A901F12CE130F105F1F0ED32A7
:102B5000F105C9F0CF01C0970A97B8F4AAE0B0E038
:102B60000E94D42E8F01FF0F220B330BDC01CB010F
:102B7000800F911FA21FB31F9C01AD01205331098B
:102B80004109510902C0FF24F394E091CF03F09171
:102B9000D0030680F781E02D8FEC93E029833A8300
:102BA0004B835C8309950E944315FC01C0972981E2
:102BB0003A814B815C810A9738F2E130F10521F2CC
:102BC000FF2041F066277727CB01621B730B840B34
:102BD000950B02C0CA01B9010F900F900F900F9092
:102BE000DF91CF911F910F91FF9008951F920F9247
:102BF0000FB60F9211242F933F938F939F93AF9310
:102C0000BF9380917C0490917D04A0917E04B0914B
:102C10007F0430917B0423E0230F2D3720F40196AD
:102C2000A11DB11D05C026E8230F0296A11DB11DEF
:102C300020937B0480937C0490937D04A0937E0476
:102C4000B0937F048091800490918104A0918204CC
:102C5000B09183040196A11DB11D809380049093CF
:102C60008104A0938204B0938304BF91AF919F919C
:102C70008F913F912F910F900FBE0F901F9018953D
:102C8000CF92DF92EF92FF920F931F93CF93DF9338
:102C90006C01EB017B01E40EF51E00E010E0CE15A7
:102CA000DF0561F06991D601ED91FC910190F08111
:102CB000E02DC6010995080F191FF1CFC801DF915A
:102CC000CF911F910F91FF90EF90DF90CF900895DB
:102CD00083E08093E9008091F200882319F08AE371
:102CE0008093E800089520914C0530914D05809126
:102CF0004E0590914F0528173907A9F0E0914E0530
:102D0000F0914F05E45FFA4F808120914E0530919C
:102D10004F052F5F3F4F2F73332730934F0520937D
:102D20004E0590E008958FEF9FEF089520914C0598
:102D300030914D0580914E0590914F052817390728
:102D400049F0E0914E05F0914F05E45FFA4F808124
:102D500090E008958FEF9FEF089580914C0590913A
:102D60004D0520914E0530914F05821B930B8F73BB
:102D70009927089585ED8093BC008091BC0084FD67
:102D8000FCCF1092E60408954091C004262F30E055
:102D9000240F311D21323105DCF42091E60424306A
:102DA000C9F4FC0180E090E0861758F43091C0042B
:102DB0002191DC01A256BB4FA30FB11D2C930196AC
:102DC000F3CF8091C004680F6093C00480E0089541
:102DD00081E0089582E0089508958FEF9FEF0895B0
:102DE0008FEF9FEF089580919D0490E091958195DC
:102DF00091090895CF93DF9300D0CDB7DEB7CB0113
:102E0000642F49835A830E94C4164981842F5A81B2
:102E1000952F0F900F90DF91CF910895CF93DF936F
:102E20001F92CDB7DEB7698361E0CE0101960E94A3
:102E3000C41681E090E00F90DF91CF9108950E9439
:102E400017320F931F93CF93DF931F92CDB7DEB747
:102E50008C01698380911701882359F041E050E08B
:102E6000BE016F5F7F4F83E00E942F111816190675
:102E70003CF081E090E0F8019383828380E090E071
:102E80000F90DF91CF911F910F9108950F931F9392
:102E9000CF93DF931F92CDB7DEB700914C05109111
:102EA0004D050F5F1F4F0F73112780914E059091B5
:102EB0004F0508171907F9F041E050E0BE016F5FB8
:102EC0007F4F82E00E94C811019719F4898190E038
:102ED00002C08FEF9FEF8F3F2FEF920761F0E091DD
:102EE0004C05F0914D05E45FFA4F808310934D053A
:102EF00000934C05D2CF0F90DF91CF911F910F918E
:102F000008951F920F920FB60F9211242F933F93A3
:102F10004F935F936F937F938F939F93AF93BF93E1
:102F2000EF93FF938091B900887F803609F49CC0AD
:102F300068F5883209F45BC090F4803109F454C01C
:102F400038F4882309F4F6C0883009F44DC0F6C07F
:102F5000883109F44CC0803209F45DC0EFC0803480
:102F600009F468C048F4803309F455C0883309F087
:102F7000E5C08093E504D8C0803509F44FC088359A
:102F800009F45DC0883409F0D9C0D6C0883909F485
:102F9000C7C0A8F4883709F467C038F4883609F444
:102FA00063C0803709F460C0C9C0883809F4B8C06C
:102FB000803909F45FC0803809F0C0C05BC0803B35
:102FC00009F486C038F4803A09F466C0883A09F4F6
:102FD0007FC0B4C0803C09F4A7C0883C09F4A4C0F9
:102FE000883B09F48AC0AAC080910B0510C090915B
:102FF0000A0580910905981770F5E0910A0581E0AE
:103000008E0F80930A05F0E0E751FB4F808180939B
:10301000BB0085EC86C08093E5048EC0E0910A0574
:1030200081E08E0F80930A058091BB00F0E0E751AC
:10303000FB4F808390910A05809109056EC0E09155
:103040000A0581E08E0F80930A058091BB00F0E0B5
:10305000E751FB4F80838091E80481116DC081E0CE
:103060008093E70484EA61C083E08093E6041092D1
:10307000E404CFCF8091E404803208F051C0E091A5
:10308000E40481E08E0F8093E4048091BB00F0E0C3
:10309000EC53FB4F8083BDCF85EC8093BC00109236
:1030A000E6048091E404803230F4E091E404F0E03E
:1030B000EC53FB4F10826091E40470E0E091C20495
:1030C000F091C30484EC94E009951092E40436C0B6
:1030D00084E08093E6041092C1041092C004E09151
:1030E000BE04F091BF0409958091C004811105C010
:1030F00081E08093C00410929E04E091C10481E0BD
:103100008E0F8093C104F0E0E256FB4F80818093E4
:10311000BB009091C1048091C004981708F479CF46
:1031200085E88093BC000AC085EC8093BC001092B7
:10313000E60404C01092E5040E94BA16FF91EF91D4
:10314000BF91AF919F918F917F916F915F914F91BF
:103150003F912F910F900FBE0F901F9018952091C7
:10316000A7013091A8012817390708F4C9019093E5
:103170008B0080938A0008952091A7013091A801C7
:103180002817390708F4C9019093890080938800B3
:103190000895CF93DF93CDB7DEB7C054D1090FB6F2
:1031A000F894DEBF0FBECDBF789484B5826084BD35
:1031B00084B5816084BD85B5826085BD85B581603B
:1031C00085BD80916E00816080936E0010928100B9
:1031D0008091810082608093810080918100816074
:1031E0008093810080918000816080938000809135
:1031F0009100826080939100809191008160809322
:103200009100809190008160809390008091C10036
:1032100084608093C1008091C10082608093C1006E
:103220008091C10081608093C1008091C300816062
:103230008093C3008091C00082608093C000809121
:10324000C20081608093C20080917A008460809384
:103250007A0080917A00826080937A0080917A006F
:10326000816080937A0080917A00806880937A00F0
:103270001092A40181E08093D70080EA8093D80067
:1032800082E189BD09B400FEFDCF61E070E080E01D
:1032900090E00E94111580E98093D8001CE0109303
:1032A000E2001092E00010927A03109279031092DB
:1032B0007F03109280031092810310928203109278
:1032C0007403109273031092880310928903109272
:1032D0008A0310928B0310928C0310928D0310922C
:1032E0008E0310928F0342E0BE01615F7F4F80E04A
:1032F00090E00E94BD0E8F8598898A3F910509F460
:1033000007C18AEF90E09E878D8742E0BE01635F30
:103310007F4F80E090E00E948E0E19821A821B82FD
:103320001C8244E0BE016F5F7F4F82E090E00E940C
:103330008E0E88E394E09E878D8742E0BE01635F36
:103340007F4F86E090E00E948E0E84E6898B41E0FC
:10335000BE016F5E7F4F88E090E00E948E0E41E0DC
:10336000BE016F5E7F4F8BE090E00E948E0E41E0C9
:10337000BE016F5E7F4F8CE090E00E948E0E41E0B8
:10338000BE016F5E7F4F80E190E00E948E0E41E0B3
:10339000BE016F5E7F4F8DE090E00E948E0E82E353
:1033A000898B41E0BE016F5E7F4F89E090E00E9413
:1033B0008E0E41E0BE016F5E7F4F8AE090E00E947A
:1033C0008E0E41E0BE016F5E7F4F8EE090E00E9466
:1033D0008E0E86E4898B41E0BE016F5E7F4F8FE0E9
:1033E00090E00E948E0E1E861D8642E0BE01635F45
:1033F0007F4F81E190E00E948E0E8FEF97E09E87D5
:103400008D8742E0BE01635F7F4F83E190E00E94C1
:103410008E0E8FEF9FE09E878D8742E0BE01635F37
:103420007F4F85E190E00E948E0E80E8898B41E01D
:10343000BE016F5E7F4F87E190E00E948E0E81E0BB
:10344000898B41E0BE016F5E7F4F88E190E00E9472
:103450008E0E80E699E0A0E0B0E089839A83AB838A
:10346000BC8344E0BE016F5F7F4F89E190E00E9422
:103470008E0E198B41E0BE016F5E7F4F8DE190E0B3
:103480000E948E0E1E861D8642E0BE01635F7F4F46
:103490008AE290E00E948E0E42E0BE01635F7F4FA1
:1034A0008EE290E00E948E0E42E0BE01635F7F4F8D
:1034B00082E390E00E948E0E42E0BE01635F7F4F88
:1034C00086E390E00E948E0E8FEF93E09E878D87BB
:1034D00042E0BE01635F7F4F8CE290E00E948E0E5F
:1034E00042E0BE01635F7F4F80E390E00E948E0E5A
:1034F00042E0BE01635F7F4F84E390E00E948E0E46
:1035000042E0BE01635F7F4F88E390E00E948E0E31
:1035100042E063EB71E086E090E00E94BD0E44E083
:1035200067E573E089E190E00E94BD0E41E065EB44
:1035300071E088E090E00E94BD0E41E06EE573E02E
:1035400089E090E00E94BD0E41E06CE573E08AE006
:1035500090E00E94BD0E41E061E673E08BE090E0F8
:103560000E94BD0E41E060E673E08CE090E00E94B6
:10357000BD0E41E06FE573E08DE090E00E94BD0E6E
:1035800041E06DE573E08EE090E00E94BD0E41E009
:1035900062E673E08FE090E00E94BD0E41E06BE5D3
:1035A00073E080E190E00E94BD0E41E060EB71E0CD
:1035B00087E190E00E94BD0E41E067E873E088E19A
:1035C00090E00E94BD0E42E061EB71E081E190E08D
:1035D0000E94BD0E42E06EEA71E083E190E00E943D
:1035E000BD0E42E065E573E085E190E00E94BD0E0E
:1035F00041E06DEA71E08DE190E00E94BD0E42E095
:103600006BE773E08AE290E00E94BD0E42E06DE756
:1036100073E08CE290E00E94BD0E42E063E873E04C
:103620008EE290E00E94BD0E42E065E873E080E328
:1036300090E00E94BD0E42E065E773E082E390E017
:103640000E94BD0E42E067E773E084E390E00E94D1
:10365000BD0E42E06FE673E086E390E00E94BD0E8F
:1036600042E061E773E088E390E00E94BD0E609164
:103670005703709158038091590390915A030E9407
:10368000343020E030E044EB53E40E948A2F6B0199
:103690007C018091B3019091B401BC01990F880B1A
:1036A000990B0E9434309B01AC01C701B6010E9406
:1036B000E9300E94FC2F60934E0370934F03809378
:1036C0005003909351036B017C01F594E794D794D8
:1036D000C794C0929003D0929103E0929203F0922B
:1036E000930362E080E00E94B01462E081E00E94F7
:1036F000B0141092C903C092CA03D092CB03E092D7
:10370000CC03F092CD031092CE034A9B05C080916A
:10371000CE0381608093CE034B9B05C08091CE0386
:1037200082608093CE03809169008F7C806180935A
:103730006900EA9A809169008F73806480936900C0
:10374000EB9A60E082E10E94B01460E083E10E94A5
:10375000B01460E084E10E94B01460E085E10E9452
:10376000B01462E084E00E94B01462E08EE00E9437
:10377000B01462E08FE00E94B01462E082E00E9428
:10378000B01462E086E00E94B01462E087E00E941C
:10379000B01462E088E00E94B01462E085E00E940C
:1037A000B01488E191E09093A6018093A50184ED87
:1037B00096E0909378048093770480E795E0909367
:1037C0007A0480937904229A1091AD01812F0E948E
:1037D000E60E5C019093A8018093A7019093AF013E
:1037E0008093AE016091B1017091B20180E090E0F0
:1037F0000E9432306B017C01B50180E090E00E94B4
:1038000032309B01AC01C701B6010E948A2F609340
:10381000A9017093AA018093AB019093AC01012F91
:10382000017010FD05C020E030E04AEF54E404C010
:1038300020E030E04AE754E460910801709109010A
:1038400080910A0190910B010E94E9306093080178
:103850007093090180930A0190930B01011105C037
:1038600020E030E04AEF54E404C020E030E04AE7D2
:1038700054E46091040170910501809106019091DA
:1038800007010E94E9306093040170930501809361
:10389000060190930701011105C020E030E04AEFD6
:1038A00054E404C020E030E04AE754E460910001B1
:1038B0007091010180910201909103010E94E93011
:1038C00060930001709301018093020190930301C2
:1038D000109280001092810010926F0016BA8091B1
:1038E000A7019091A8019093870080938600109281
:1038F00089001092880010928B0010928A008091AB
:10390000AD018274823421F480918100826003C011
:10391000809181008160809381008091AD0180FF62
:1039200009C0809180008260809380008091810036
:10393000806108C0809180008260809380008091C7
:10394000810088618093810080E090E00E94BC1833
:1039500080918000806880938000259A80E090E0CC
:103960000E94AF1880918000806280938000269A28
:1039700061E083E00E94B01413E081E00E947A13BA
:1039800064E170E080E090E00E94111580E00E9408
:103990007A1364E170E080E090E00E94111511500C
:1039A00061F71092690310926A0310926B031092F0
:1039B0006C0389E693E00E94A807809190039091A0
:1039C0009103A0919203B0919303F8948093CA035A
:1039D0009093CB03A093CC03B093CD037894109233
:1039E0006803109267038FEF97E0909354038093DE
:1039F00053038091B001809352030E94EC146093B2
:103A000094037093950380939603909397030E9479
:103A1000EC146093E1037093E2038093E3039093CB
:103A2000E403009198031091990320919A03309137
:103A30009B036B017C01C01AD10AE20AF30AC0920F
:103A4000DD03D092DE03E092DF03F092E003009109
:103A500094031091950320919603309197036B0185
:103A60007C01C01AD10AE20AF30A40EDC41647E00D
:103A7000D406E104F10410F40C94FF2D6093940338
:103A8000709395038093960390939703F894809195
:103A9000CA039091CB03A091CC03B091CD0378944D
:103AA0004091900350919103609192037091930320
:103AB000841B950BA60BB70B80938C0390938D03FF
:103AC000A0938E03B0938F03809388039093890310
:103AD000A0938A03B0938B031091870315FB88276B
:103AE00080F916FD826017FF02C084601DC081301E
:103AF000D9F46A017B01C094D094E094F0949A01C7
:103B0000AB012C193D094E095F0960917F0370914B
:103B1000800380918103909182030E94E6312FEF10
:103B20003FEF40E050E032C0823059F46A017B013F
:103B3000C094D094E094F094A0917903B0917A036A
:103B400019C0833059F46A017B01C094D094E09489
:103B5000F094A0917303B09174030CC0843021F5EC
:103B60006A017B01C094D094E094F094A0916D031D
:103B7000B0916E039A01AB012C193D094E095F0902
:103B80000E94DF2E2FEF3FE040E050E00E94B52E74
:103B9000C20ED31EE41EF51EC0928803D092890384
:103BA000E0928A03F0928B038090880390908903BF
:103BB000A0908A03B0908B038091EA039091EB036D
:103BC000A091EC03B091ED038092EA039092EB0395
:103BD000A092EC03B092ED032091F203222309F4AA
:103BE00049C000911B0454E0059F90011124B901C4
:103BF00066517C4F7B01A5019401281B390B4A0BB0
:103C00005B0BCA01B9010E943430D70119966D933C
:103C10007D938D939C931C97F02E3AE0E32E60E009
:103C200070E0CB01B4E0FB9EF0011124E651FC4FA3
:103C300021853285438554850E94192FFF2011F07C
:103C4000FA9402C029E0F22EEA94E110EBCF20E0D2
:103C500030E040E251E40E948A2F0F5F0A3018F4EE
:103C600000931B0402C010921B0468A779A78AA7BF
:103C70009BA70FC081E08093F2031092EE03109295
:103C8000EF031092F0031092F10318A619A61AA6DA
:103C90001BA620911C0430911D0440911E045091DC
:103CA0001F0488A599A5AAA5BBA580931C04909381
:103CB0001D04A0931E04B0931F0480912404882344
:103CC00009F444C000917504E4E00E9FC001112482
:103CD000BC016D507C4F7B0168A579A5CD010E9488
:103CE000182FD701D2966D937D938D939C93D59782
:103CF000F02EB4E1EB2E60E070E0CB01B4E0FB9E6F
:103D0000F0011124ED50FC4F22A933A944A955A973
:103D10000E94192FFF2011F0FA9402C0A3E1FA2E9D
:103D2000EA94E110EBCF20E030E040EA51E40E9459
:103D30008A2F0F5F043118F40093750402C01092AB
:103D4000750468AB79AB8AAB9BAB0FC081E0809305
:103D50002404109220041092210410922204109244
:103D6000230418AA19AA1AAA1BAA809176048823E8
:103D700059F110FF23C70E94470B9B01AC0160E083
:103D800070E080E094E40E948A2F6B017C016091D6
:103D9000620370E080E090E00E9434309B01AC014F
:103DA000C701B6010E94E93020E030E048EC52E45F
:103DB0000E948A2F0E94FC2FAB01C501B4010E9412
:103DC000800C2B013C01FDC6EAEBF1E0FFA3EEA362
:103DD0001F8A1E8A412C512C32010E891F890F5FC8
:103DE0001F4F1F8B0E8B4EE19801429F8001439F16
:103DF000100D11240A511E4FD8018C91837083300D
:103E000009F0CFC60E94470B6B017C01F8012185A8
:103E10003285A789B08D0E9410322FEF3FE740E036
:103E200050E00E94B52ECA01B9010E943430A701AA
:103E300096010E948A2F0E94FC2F9B01AC01D801A1
:103E40001B968D919C911C97059730F4E4E0F0E06F
:103E50001C96FC93EE931B97FEE1EF2ECE88DF8835
:103E6000EC9CF001ED9CF00D1124EA51FE4FE18134
:103E70008E2F90E0FC013197ED30F10508F07BC604
:103E8000EA5AFF4F0C940A320E94470B6A8B7B8BD5
:103E90008C8B9D8B2EE10E891F89209FC001219F55
:103EA000900D1124AC014A515E4F1A01DA011996A6
:103EB0008D909C901A975596AD90BC9056971F96F2
:103EC000CD90DC9050975196ED90FC905297539680
:103ED0000D911C91549714962C91149713964C9114
:103EE000139757968D919C915897EEA1FFA16081F1
:103EF00071810E94580B9401DC010E9410322FEF57
:103F00003FE740E050E00E94B52ECA01B9010E948F
:103F100034302A893B894C895D890E948A2F0E940E
:103F2000FC2F0E94550C9B01AC01A0916103B0E0F5
:103F30000E94D42E24E630E040E050E00E94B52EEE
:103F4000421A530A640A750A72C10E94470B6A8BAF
:103F50007B8B8C8B9D8B5EE1E52ECE88DF88EC9C85
:103F6000F001ED9CF00D1124EA51FE4F0185128500
:103F70001B8F0A8FC588D688DF8ECE8EE784F088A7
:103F8000FBA2EAA2018912891DA70CA70389148943
:103F900018AF0FAB84809380AEA1BFA12D903C9051
:103FA000078510896085A7800A2C000CBB08062EA7
:103FB000000C770B6A197B09CB01770FAA0BBB0B9F
:103FC0006627782F892F9A2F0E9434306B017C014D
:103FD000B80180E090E00E94323020E030E04AE713
:103FE00054E40E948A2F9B01AC01C701B6010E94D4
:103FF0008A2F6B017C01C101B8010E94F631BC011E
:1040000080E090E00E94323020E030E04AE754E463
:104010000E948A2F9B01AC01C701B6010E94E930C2
:104020000E94FC2FBA2CAA24C501860F971FAE8CC4
:10403000BF8CCAA0DBA0ECA4FDA40FA918AD282D4D
:10404000492DB1010E94580B2A8D3B8DDC010E9445
:1040500010322FEF3FE740E050E00E94B52ECA013A
:10406000B9010E9434302A893B894C895D890E94BC
:104070008A2F0E94FC2F0E94550C461A570A680A84
:10408000790A79C50E94470B6A8F7B8F8C8F9D8F31
:104090004EE1C42EEE89FF89CE9EC001CF9E900DC9
:1040A00011248C010A511E4F1801D80119960D9048
:1040B000BC91A02DBF8FAE8FF801038CF48DE02D45
:1040C000FBA3EAA3D8015D96BC91BCA7F801838449
:1040D0009484A588B688C784D088E188F28803894B
:1040E000148924814381AEA1BFA10D90BC91A02D64
:1040F000BB8BAA8B8789908DBD010E94580B8C01C8
:10410000B40180E090E00E94323020E030E04AE7E5
:1041100054E40E948A2F9B01AC0160E070E080E8CB
:104120009FE30E948A2F6B017C018A899B89B401DD
:104130000E94F631BC0180E090E00E94323020E025
:1041400030E04AE754E40E948A2F9B01AC01C7018A
:10415000B6010E94E9306B017C01BCA56B2F70E0B9
:1041600080E090E00E94323020E030E040E85BE305
:104170000E94E9309B01AC01C701B6010E94192FD2
:104180002BED3FE049EC50E40E94E9300E945631AB
:104190009B01AC01EAA1FBA16F01FF0FEE08FF0834
:1041A000B801110F880B990B2DAF21963FAF2197C6
:1041B0004EAF5FAF0E9434302DAD21963FAD2197B9
:1041C0004EAD5FAD0E94E9300E94FC2FCB01770F0E
:1041D000AA0BBB0BA7019601280F391F4A1F5B1FB3
:1041E000AE8DBF8D0E94D42E2FEF3FE740E050E010
:1041F0000E94B52ECA01B9010E9434302A8D3B8D30
:104200004C8D5D8D0E948A2F0E94FC2F9B01AC017A
:10421000A0916003B0E00E94D42E24E630E040E09C
:1042200050E00E94B52E420E531E641E751ED10131
:1042300016968C91169782FF9EC41D966D917C9167
:104240001E9780E090E00E9432302BED3FE049EC79
:1042500050E40E94E93020E030E040E058E30E9462
:10426000E9300E9456319B01AC01C301B2012DAF70
:1042700021963FAF21974EAF5FAF0E9434302DADF6
:1042800021963FAD21974EAD5FAD0E94E9300E946F
:10429000FC2F2B013C016FC40E94470B6A8F7B8F60
:1042A0008C8F9D8F3EE1E32ECE88DF88EC9CF00161
:1042B000ED9CF00D1124EA51FE4F018512851F8FF0
:1042C0000E8F238D348DA901330F660B770B4AA314
:1042D0005BA36CA37DA3558D5CA723843484A58840
:1042E000B688C784D088E188F2880389148924813C
:1042F0004381AEA1BFA10D90BC91A02DBB8BAA8B19
:104300008789908DBD010E94580BBC01990F880BC5
:10431000990B0E9434304B015C01B10180E090E0C8
:104320000E94323020E030E04AE754E40E948A2FB5
:104330009B01AC0160E070E080E89FE30E948A2F5F
:104340006B017C018A899B89B1010E94F631BC0115
:1043500080E090E00E94323020E030E04AE754E410
:104360000E948A2F9B01AC01C701B6010E94E9306F
:104370006B017C01BCA56B2F70E080E090E00E9497
:10438000323020E030E040E85BE30E94E9309B01FE
:10439000AC01C701B6010E94192F2BED3FE049EC9B
:1043A00050E40E94E9300E9456316B017C0120E00C
:1043B00030E0A9010E94E43087FF0CC020E030E02B
:1043C000A901C701B6010E94852F87FF05C0EFEF45
:1043D000ECAB02C0F1E0FCABCCA86C2DCC0C770BA5
:1043E000880B990B0E9434309B01AC01C501B401CC
:1043F0000E94E9300E94FC2FCB01770FAA0BBB0B68
:10440000E0C10E94470B6E8F7F8F88A399A30EE1B6
:10441000EE88FF880E9DF0010F9DF00D1124EA51EA
:10442000FE4F218532853BA32AA3238D348DA9011C
:10443000330F660B770B4CA75DA76EA77FA7358D53
:10444000638574857B8B6A8BA588B688C784D08882
:10445000E188F2880389148924814381AEA1BFA138
:104460000D90BC91A02DBB8FAA8F8789908DBD0127
:1044700021963FAF21970E94580B1C01EA89FB89C6
:10448000BF0180E090E00E9432304B015C01219638
:104490003FAD219760E4630F70E080E090E00E9400
:1044A000323020E030E040E85BE30E94E930A501D3
:1044B00094010E94E9300E9403308A8D9B8D860F03
:1044C000971F6A897B890E94F6318C01BC0180E0CC
:1044D00090E00E94323020E030E04AE754E40E944D
:1044E0008A2F6B017C0120E030E0A9010E94E430BA
:1044F00087FD3CC020E030E04AE754E4C501B40148
:104500000E948A2F6A8F7B8F8C8F9D8F20E030E0F6
:1045100040E05FE30E94E9309B01AC01C701B601B6
:104520000E94852F87FF22C0B101032C000C880B4D
:10453000990B0E94343020E030E040E850E40E94C3
:10454000E9302A8D3B8D4C8D5D8D0E948A2FA7010D
:1045500096010E94E9300E94FC2F31942194310889
:104560006101C60ED71EDEAACDAA51C020E030E000
:104570004AE754E4C501B4010E948A2F4B015C0153
:1045800020E030E040E05FE30E94E9309B01AC01B5
:10459000C701B6010E94E43087FD39C0A50194012E
:1045A000C701B6010E94852F87FF31C0B101032CDE
:1045B000000C880B990B0E94343020E030E040E87A
:1045C00050EC0E94E930A50194010E948A2F6B01F2
:1045D0007C018A899B8996958795B801681B790B20
:1045E00080E090E00E94323020E030E04AE754E47E
:1045F0000E948A2F9B01AC01C701B6010E94E930DD
:104600000E94FC2F7101E60EF71EFEAAEDAA0DA96D
:104610001EA9C801110FAA0BBB0B2CA53DA54EA5C9
:104620005FA5280F391F4A1F5B1FAAA1BBA10E94CB
:10463000D42E2FEF3FE740E050E00E94B52ECA0194
:10464000B9010E9434302E8D3F8D48A159A10E949E
:104650008A2F0E94FC2F9B01AC01A0916003B0E067
:104660000E94D42E24E630E040E050E00E94B52EB7
:10467000420E531E641E751E7EC20E94470B6A8F37
:104680007B8F8C8F9D8F4EE12E893F89429FF00159
:10469000439FF00D1124EA51FE4F618572857F8F93
:1046A0006E8F238D348DC901330FAA0BBB0B8AA3E8
:1046B0009BA3ACA3BDA3358D23843484A588B68881
:1046C000C784D088E188F2880389148924814381D2
:1046D000AEA1BFA10D90BC91A02DBB8BAA8B8789E9
:1046E000908DBD0121963FAF21970E94580B8C0100
:1046F000B10180E090E00E9432304B015C012196D4
:104700003FAD219760E8630F70E080E090E00E9489
:10471000323020E030E040E85BE30E94E930A50160
:1047200094010E94E9300E9403308A899B89860F98
:10473000971FB1010E94F6319B8B8A8B82159305DE
:10474000D0F5B801012E000C880B990B0E94343073
:104750009B01AC010E94192F6B017C0120E030E02D
:104760004AE754E4C501B4010E948A2F9B01AC01C1
:10477000C701B6010E948A2F4B015C01CA88DB8801
:10478000B60180E090E00E94323020E030E04AE75D
:1047900054E40E948A2F9B01AC01C501B4010E9420
:1047A000E9300E94FC2F1195019511097801E60E60
:1047B000F71EFCAEEBAE0BAD1CADC801110FAA0B82
:1047C000BB0B2AA13BA14CA15DA1280F391F4A1F99
:1047D0005B1FAE8DBF8D0E94D42E2FEF3FE740E0D0
:1047E00050E00E94B52ECA01B9010E9434302A8DD2
:1047F0003B8D4C8D5D8D2BCF0E94470B6A8F7B8F3D
:104800008C8F9D8F4EE12E893F89429FF001439FFF
:10481000F00D1124EA51FE4F618572857F8F6E8FF6
:10482000238D348DC901330FAA0BBB0B8AA39BA325
:10483000ACA3BDA3358D23843484A588B688C784F2
:10484000D088E188F2880389148924814381AEA14C
:10485000BFA10D90BC91A02DBB8BAA8B8789908D99
:10486000BD0121963FAF21970E94580B8C01B101E9
:1048700080E090E00E9432304B015C0121963FAD18
:10488000219760E8630F70E080E090E00E94323092
:1048900020E030E040E85BE30E94E930A5019401AC
:1048A0000E94E9300E9403308A899B89860F971FF6
:1048B000B1010E94F6319B8B8A8B82159305D0F54E
:1048C00066277727601B710B072E000C880B990B4E
:1048D0000E9434309B01AC010E94192F6B017C01B6
:1048E00020E030E04AE754E4C501B4010E948A2F79
:1048F0009B01AC01C701B6010E948A2F4B015C01EC
:10490000CA88DB88B60180E090E00E94323020E067
:1049100030E04AE754E40E948A2F9B01AC01C501B4
:10492000B4010E94E9300E94FC2F7801E60EF71EC8
:10493000FAAEE9AE09AD1AAD40CF8EE16E897F893E
:10494000869FF001879FF00D1124EA51FE4F038DE1
:10495000148DA0915F03B0E00E94D42E20E436E0D5
:1049600040E050E00E94B52E69017A012091900349
:10497000309191034091920350919303D8010E948A
:10498000DF2EDC01CB010FE0B595A79597958795B4
:104990000A95D1F7092E000CAA0BBB0B4091880396
:1049A0005091890360918A0370918B038A019B0166
:1049B000081B190B2A0B3B0BC901B801A6010E9469
:1049C000800C460E571E681E791ED5C08EE16E897A
:1049D0007F89869FF001879FF00D1124EA51FE4FD9
:1049E000038D148DA0915E03B0E00E94D42E24E6C6
:1049F00030E040E050E00E94B52E69017A01B80134
:104A0000110F880B990B0E9434302AE939EC4CECD9
:104A100054E40E948A2F9B01AC0168A579A58AA560
:104A20009BA50E94182FA6010E94AD0D62C01EE139
:104A3000C12EAE89BF89CA9EF001CB9EF00D112414
:104A4000EA51FE4F038D148DA0915D03B0E00E94EA
:104A5000D42E24E630E040E050E00E94B52E6901FB
:104A60007A01B801110F880B990B0E94343020E0B5
:104A70003EEF4FEF56E40E948A2F9B01AC0168A9DC
:104A800079A98AA99BA90E94182FA6010E94450D09
:104A900030C00EE1EE88FF880E9DF0010F9DF00DF5
:104AA0001124EA51FE4F038D148DA0915C03B0E0F8
:104AB0000E94D42E24E630E040E050E00E94B52E63
:104AC00069017A01B801110F880B990B0E943430EB
:104AD0002AE939EC4CEC54E40E948A2F9B01AC018A
:104AE00068A579A58AA59BA50E94182FA6010E94FA
:104AF000C40C092E000CAA0BBB0B480E591E6A1ED3
:104B00007B1E39C00E94470B9B01AC018EE16E8970
:104B10007F89869FF001879FF00D1124EA51FE4F97
:104B2000838D948DBC01990F880B990B2DAF219625
:104B30003FAF21974EAF5FAF0E9434302DAD21962D
:104B40003FAD21974EAD5FAD0E948A2F0E94FC2F92
:104B50000E94550C9B01AC01A0916003B0E00E9443
:104B6000D42E24E630E040E050E00E94B52E421AF8
:104B7000530A640A750A0E9437150091B601109114
:104B8000B7012091B8013091B901DC01CB01801B44
:104B9000910BA20BB30BEEA1FFA180839183A283A3
:104BA000B3830EA11FA10C5F1F4F1FA30EA32E895D
:104BB0003F892B30310509F010C903C0412C512C1D
:104BC00032011091870311FF31C00E94470B9B01F6
:104BD000AC01E0915E0367E471E0E69FC001E79FEE
:104BE000900D1124BC0180E090E02DAF21963FAFE5
:104BF00021974EAF5FAF0E9434302DAD21963FAD6F
:104C000021974EAD5FAD0E948A2F0E94FC2FAB0111
:104C100068A579A58AA59BA50E94AD0D092E000C5B
:104C2000AA0BBB0B480E591E6A1E7B1E12FF31C019
:104C30000E94470B9B01AC01E0915D0367E471E0CA
:104C4000E69FC001E79F900D1124BC0180E090E039
:104C50002DAF21963FAF21974EAF5FAF0E9434300A
:104C60002DAD21963FAD21974EAD5FAD0E948A2FAD
:104C70000E94FC2FAB0168A979A98AA99BA90E946F
:104C8000450D092E000CAA0BBB0B480E591E6A1EBF
:104C90007B1E13FF31C00E94470B9B01AC01E091CA
:104CA0005C0367E471E0E69FC001E79F900D11246B
:104CB000BC0180E090E02DAF21963FAF21974EAF31
:104CC0005FAF0E9434302DAD21963FAD21974EADA0
:104CD0005FAD0E948A2F0E94FC2FAB0168A579A5C9
:104CE0008AA59BA50E94C40C092E000CAA0BBB0B25
:104CF000480E591E6A1E7B1E4091900350919103ED
:104D0000609192037091930380918803909189033D
:104D1000A0918A03B0918B03CC24DD247601C41AC0
:104D2000D50AE60AF70A8C159D05AE05BF0534F0D5
:104D3000481759076A077B070CF045C0B7FD05C047
:104D4000841B950BA60BB70B04C0840F951FA61FE1
:104D5000B71F8093880390938903A0938A03B0932D
:104D60008B030E94470B9B01AC0160E07EEF8FEF4D
:104D700096E40E948A2F6B017C0160915B0370E0D6
:104D800080E090E00E9434309B01AC01C701B60185
:104D90000E94E93020E030E048EC52E40E948A2F83
:104DA0000E94FC2F6B017C01609188037091890344
:104DB00080918A0390918B03A6010E94800C460E7D
:104DC000571E681E791EA091B501B0E0A3019201A3
:104DD0000E94D42E24E630E040E050E00E94B52E40
:104DE000CA01B9010E94550C6B017C0114FF04C07B
:104DF0000E9467140E940C14C0926903D0926A0347
:104E0000E0926B03F0926C0360918C0370918D03C0
:104E100080918E0390918F030E9434306B017C014E
:104E200060914E0370914F03809150039091510314
:104E30000E9434309B01AC0160E07FEF8FE797E484
:104E40000E948A2F9B01AC01C701B6010E94E93084
:104E50000E94FC2F4B015C01611570488105910592
:104E600034F088248A94BFE79B2EA12CB12C8114A6
:104E700040E894064FEFA406B40634F4812CA0E871
:104E80009A2EAA24AA94BA2C80928C0390928D0315
:104E9000A0928E03B0928F0389E693E00E94A80748
:104EA000009167031091680340907B0350907C034E
:104EB000400E511E612C712CC0907503D09076036A
:104EC000C00ED11EE12CF12C20917303309174039C
:104ED000C901330FAA0BBB0B9C01AD012C193D0975
:104EE0004E095F09AFEFBFE00E94D42E20917703F7
:104EF00030917803201B310B40E050E02C193D0924
:104F00004E095F090E94B52E2E8B3F8B488F598F1B
:104F1000C0906F03D0907003C00ED11EE12CF12C15
:104F200020916D0330916E03C901330FAA0BBB0BA7
:104F30009C01AD012C193D094E095F09AFEFBFE09F
:104F40000E94D42E2091710330917203201B310BEB
:104F500040E050E02C193D094E095F090E94B52E32
:104F600069017A01A1E0B0EFA30192010E94E22E53
:104F700020917D0330917E03201B310B40E050E0F7
:104F800024193509460957090E94B52E29014114F3
:104F900050E1550624F044244A94FFE05F2E57FE6A
:104FA00002C0412C512C50927A03409279036E88B2
:104FB0007F88611460E1760624F066246A94EFE04D
:104FC0007E2E77FE02C0612C712C70927403609269
:104FD0007303C11470E1D70624F0CC24CA947FE097
:104FE000D72ED7FE02C0C12CD12CD0926E03C09216
:104FF0006D038091830390918403800F911F9C0126
:1050000040E050E02E8B3F8B488F598F2FEF33E0DD
:1050100040E050E06E897F89888D998D261B370B83
:10502000480B590BAFEFBFEF0E94D42E20918503A0
:1050300030918603201B310B40E050E0EE88FF8862
:10504000088D198D2E193F09400B510B0E94B52E6A
:105050002115310501E04007510524F02FEF3FEF06
:1050600040E050E057FF03C020E030E0A90120936A
:105070007F0330938003409381035093820389B16F
:1050800082958F7091E0892790E0A0E0B0E0817078
:105090009927AA27BB271B9B8260199B8460499B89
:1050A00088604F9B8061669B80621C9B8064369BFE
:1050B000806844E0880F991FAA1FBB1F4A95D1F74B
:1050C0008093630390936403A0936503B093660396
:1050D00010E8911A89829A822B833C834D82262D77
:1050E0002295207F25292E8354E0769467945A9543
:1050F000E1F76F82C886D98664E0B695A795979543
:1051000087956A95D1F78A871B861C864CE050E00C
:10511000BE016F5F7F4F84E00E9486128091DD03A5
:105120009091DE03A091DF03B091E00380319742BC
:10513000A105B10508F463C58FEC93E00E94AD169C
:10514000181619060CF04BC58FEC93E00E947316ED
:10515000E82F8FE98E0F8A3108F4E0528E2F90E00D
:10516000FC01E154F109EA31F10508F038C5ED59C7
:10517000FF4F0C940A328091B3019091B4010E94C8
:10518000A11480E20E9401148091B5010E94A7142D
:1051900080E20E94011480915E030E94A71480E2C5
:1051A0000E94011480915C030E94A71480E20E9477
:1051B0000114809161030E94A71480E20E940114EF
:1051C000809160030E94A71480E20E9401148091E4
:1051D0005F030E94A71480E20E94011480915D0386
:1051E0000E94A71480E20E940114809162030E9431
:1051F000A71480E20E94011480915B030E94A7140F
:1052000080E20E9401146091B1017091B20180E0CE
:1052100090E04AE00E941A1480E20E9401148091FA
:10522000B0010E94A71480E20E94011480918703BC
:105230000E94A71480E20E9401146091AE01709157
:10524000AF0180E090E04AE00E941A1480E20E94E0
:105250000114609157037091580380915903909104
:105260005A030E94671480E20E9401146091AD010C
:1052700070E060C283E991E00E94AE148AEF90E092
:105280000E94A11488E991E00E94AE148AE991E09D
:105290000E94AE148CE991E00E94AE148EE991E078
:1052A0000E94AE149CC48091E903082E000C990B57
:1052B00094C4F894C090CA03D090CB03E090CC0380
:1052C000F090CD0378948091AE019091AF01209140
:1052D000B1013091B201821B930B969587959695FB
:1052E0008795A0E0B0E089839A83AB83BC83CE012D
:1052F00001960E94A807D701C6011EEFF89480907E
:10530000CA039090CB03A090CC03B090CD037894C7
:1053100088159905AA05BB0554F46CE271E080E09C
:1053200090E00E9411151150D501C40139F719827E
:105330001A821B821C82CE0101960E94A8078091CE
:105340004E0390914F03A0915003B0915103F894F4
:105350008093CA039093CB03A093CC03B093CD0367
:105360007894C814D904EA04FB0411F482E001C063
:1053700081E08093E9032FC40E947D15611101C073
:1053800061E06093B00127C4F8944090CA03509044
:10539000CB036090CC037090CD0378948091900300
:1053A00090919103A0919203B0919303481A590AE6
:1053B0006A0A7B0A8091E5039091E603A091E703D6
:1053C000B091E803480E591E6A1E7B1E0E947D158F
:1053D00064307105810591057CF06B017C01613CB5
:1053E0007742894091056CF010ECC12E17E2D12E66
:1053F00019E0E12EF12C05C0B4E0CB2ED12CE12C2C
:10540000F12CC982DA82EB82FC826091B301709147
:10541000B401072E000C880B990B0E9434304B010D
:105420005C01C301B2010E943430A50194010E94C5
:10543000E9302B013C0160914E0370914F03809144
:105440005003909151030E9434309B01AC01C30181
:10545000B2010E948A2F2B013C01C0925703D092C7
:105460005803E0925903F0925A03C701B60191C064
:105470008091900390919103A0919203B091930336
:10548000F8948093CA039093CB03A093CC03B0937A
:10549000CD03789453C1F8948090CA039090CB03C5
:1054A000A090CC03B090CD0378948091900390911C
:1054B0009103A0919203B0919303881A990AAA0AC2
:1054C000BB0A8091E5039091E603A091E703B091B8
:1054D000E803880E991EAA1EBB1E0E947D156E3120
:1054E00071058105910574F06B017C01693077408D
:1054F0008105910564F0A8E0CA2EA7E0DA2EE12C20
:10550000F12C05C0FEE1CF2ED12CE12CF12CC9826B
:10551000DA82EB82FC82C501B4010E9434304B0177
:105520005C016091B3017091B401072E000C880BEF
:10553000990B0E9434309B01AC01C501B4010E945B
:10554000E9304B015C0160914E0370914F038091F3
:105550005003909151030E9434309B01AC01C5016E
:10556000B4010E948A2F2B013C01D092B401C09259
:10557000B301B601DD0C880B990B0E9434304B014E
:105580005C01609157037091580380915903909189
:105590005A030E94343020E030E044EB53E40E9490
:1055A0008A2FA50194010E94E9300E94FC2F60938C
:1055B0004E0370934F0380935003909351036B01FC
:1055C0007C01F594E794D794C794C0929003D0924D
:1055D0009103E0929203F09293030E9434309B0176
:1055E000AC01C301B2010E94E930A50194010E94FF
:1055F0008A2F0E94FC2FC60ED71EE81EF91E80912E
:10560000E5039091E603A091E703B091E803C81A7F
:10561000D90AEA0AFB0AF894C092CA03D092CB03D3
:10562000E092CC03F092CD037894D5C20E947D1510
:10563000262F6091870380E090E030E0F901082E8A
:1056400002C0F595E7950A94E2F7C12CD12C7601BA
:10565000C394082E04C0CC0CDD1CEE1CFF1C0A9465
:10566000D2F7E0FF02C06C2902C0C0946C21019601
:105670008830910519F76093870370E080E090E02F
:1056800042E00E941A140E940C14A9C20E947D15C7
:105690008091AD0120E030E070E0AB01022E02C04D
:1056A000559547950A94E2F7C12CD12C7601C39405
:1056B000022E04C0CC0CDD1CEE1CFF1C0A94D2F799
:1056C00040FF02C08C2902C0C0948C212F5F3F4F45
:1056D0002830310511F78093AD0141E06DEA71E0AA
:1056E0008DE190E00E948E0E8091AD010E94E60E49
:1056F000BC0180E090E00E9432302091A9013091FD
:10570000AA014091AB015091AC010E94E9300E9486
:10571000FC2F69837A838B839C8344E0BE016F5F97
:105720007F4F81E190E00E948E0E8091AD010E943A
:10573000E60EBC0180E090E04AE0A3CF80E090E07C
:105740004CC28FEC93E00E947316E82F8FE98E0F06
:105750008A3108F4E0528E2F90E0FC01E154F10907
:10576000E231F10508F03BC2E358FF4F0C940A32D6
:105770000E947D15611550E175078105910524F0A2
:105780006FEF7FE080E090E097FF03C060E070E0A3
:10579000CB0169837A838B839C83709384036093AA
:1057A000830319C20E947D156115A0E17A07810566
:1057B000910524F06FEF7FE080E090E097FF03C059
:1057C00060E070E0CB0169837A838B839C83709364
:1057D000860360938503FFC10E947D156115B0E1CA
:1057E0007B078105910524F06FEF7FE080E090E07A
:1057F00097FF03C060E070E0CB0169837A838B83FD
:105800009C8370937C0360937B03E5C10E947D15AC
:105810006115E0E17E078105910524F06FEF7FE0DF
:1058200080E090E097FF03C060E070E0CB01698307
:105830007A838B839C8370937E0360937D03CBC1BB
:105840000E947D156115F0E17F078105910524F027
:105850006FEF7FE080E090E097FF03C060E070E0D2
:10586000CB0169837A838B839C83709376036093E7
:105870007503B1C10E947D15611500E170078105B6
:10588000910524F06FEF7FE080E090E097FF03C088
:1058900060E070E0CB0169837A838B839C83709393
:1058A00078036093770397C10E947D15611510E11D
:1058B00071078105910524F06FEF7FE080E090E0B3
:1058C00097FF03C060E070E0CB0169837A838B832C
:1058D0009C837093700360936F037DC10E947D155C
:1058E000611520E172078105910524F06FEF7FE0DB
:1058F00080E090E097FF03C060E070E0CB01698337
:105900007A838B839C83709372036093710363C16A
:1059100080918303909184030E94A11481EA91E015
:105920000E94AE1480918503909186030E94A11479
:1059300081EA91E00E94AE1480917B0390917C03F8
:105940000E94A11481EA91E00E94AE1480917D032F
:1059500090917E030E94A11481EA91E00E94AE140E
:1059600080917503909176030E94A11481EA91E0E1
:105970000E94AE1480917703909178030E94A11445
:1059800081EA91E00E94AE1480916F0390917003C0
:105990000E94A11481EA91E00E94AE1480917103EB
:1059A000909172031AC142E063EB71E086E090E0EF
:1059B0000E948E0E44E067E573E089E190E00E946A
:1059C0008E0E41E065EB71E088E090E00E948E0E63
:1059D00041E06EE573E089E090E00E948E0E41E0C8
:1059E0006CE573E08AE090E00E948E0E41E061E693
:1059F00073E08BE090E00E948E0E41E060E673E081
:105A00008CE090E00E948E0E41E06FE573E08DE047
:105A100090E00E948E0E41E06DE573E08EE090E034
:105A20000E948E0E41E062E673E08FE090E00E94FB
:105A30008E0E41E06BE573E080E190E00E948E0EF7
:105A400041E060EB71E087E190E00E948E0E41E062
:105A500067E873E088E190E00E948E0E42E061EB1F
:105A600071E081E190E00E948E0E42E06EEA71E00A
:105A700083E190E00E948E0E42E065E573E085E1EF
:105A800090E00E948E0E42E06BE773E08AE290E0C5
:105A90000E948E0E42E06DE773E08CE290E00E947F
:105AA0008E0E42E063E873E08EE290E00E948E0E7C
:105AB00042E065E873E080E390E00E948E0E42E0F1
:105AC00065E773E082E390E00E948E0E42E067E7B4
:105AD00073E084E390E00E948E0E42E06FE673E094
