:100000000C9412040C943A040C94FD050C941B06F9
:100010000C940C060C943A040C943A040C943A0494
:100020000C943A040C943A040C9464090C94070759
:100030000C943A040C943A040C943A040C943A0448
:100040000C943A040C943A040C943A040C943A0438
:100050000C943A040C943A040C943A040C94B1199C
:100060000C943A040C943A040C943A040C943A0418
:100070000C943A040C943A040C943A040C943A0408
:100080000C943A040C943A040C943A040C943A04F8
:100090000C94B60E0C943A040C943A040C943A0462
:1000A0000C943A040C943A040C943A048820E92005
:1000B00090228621452340258124E1252A265B269E
:1000C0008D26FF26C626052E2E2B982B212F482C59
:1000D000AE2EA32BD02C212F212F212F212F212FEA
:1000E000212F362BD02C212FDE2AD82A212F342A5B
:1000F000B32A782C212FD32CD02CEA2C042D1E2DA2
:10010000382D522D6C2D862DA02D212F212F212F02
:10011000212F212F212F212F212F212FBA2DE82E02
:10012000ED2ECA2ECF2E212FD42EC52E212FE32E19
:10013000F22E212F212FDE2E212F212F212F212FB3
:10014000212FD92EE618E918DC18E0180A190A1927
:100150000A19ED18F118F518FB18FF180A190519F6
:1001600005A84CCDB2D44EB93836A9020C50B9917D
:100170008688083CA6AAAA2ABE000000803F00008C
:100180000000000000002A2B2800000000000000F2
:1001900000000000000000000000000000002C9E95
:1001A000B4A0A1A2A434A6A7A5AE362D3738271E29
:1001B0001F20212223242526B333B62EB7B89F84CF
:1001C00085868788898A8B8C8D8E8F909192939467
:1001D00095969798999A9B9C9D2F3130A3AD3504A5
:1001E00005060708090A0B0C0D0E0F101112131447
:1001F00015161718191A1B1C1DAFB1B0B500080B46
:1002000000020202010009040000010202000005D0
:10021000240010010524010101042402060524061E
:1002200000010705810310004009040100020A00D3
:10023000000007050202400000070583024000009D
:10024000090402000203000000092101010001224B
:10025000E104070584034000010705050340000190
:1002600005010904A10185040901A1000930170055
:1002700000000027FFFF0000350047FFFF0000756A
:100280001095018102093116000027FFFF0000359B
:100290000047FFFF0000751095018102093216002A
:1002A0000027FF0F0000350047FF0F0000750C9579
:1002B000018102093316000027FF0F0000350047B7
:1002C000FF0F0000750C950181020934160000270C
:1002D000FF0F0000350047FF0F0000750C950181EE
:1002E000020939150125083500463B016514550002
:1002F0007504950181020509150025015500650069
:100300001901291875019518810285F10901150057
:1003100026FF00953F7508918285F20901953F758A
:10032000088182C0050F0992A1028502099F09A0D8
:1003300009A409A509A61500250135004501750187
:100340009505810295038103099415002501350067
:100350004501750195018102092215012528350104
:100360004528750795018102C00921A1028501096F
:1003700022150125283501452875089501910209A6
:1003800025A1020926092709300931093209330953
:10039000340940094109420943250B15013501453E
:1003A0000B750895019100C009500954150027FFED
:1003B000FF0000350047FFFF000066011055FD7586
:1003C000109502910255006600000952150026FFA3
:1003D0007F350046FF7F7510950191020953150185
:1003E0002508350145087508950191020955A102B6
:1003F00005010930093115002501750195029102A9
:10040000C0050F095695019102950591030957A161
:10041000020B01000A000B02000A0066140055FEE0
:10042000150026FF7F3500479F8C00007510950151
:1004300091025500660000C0050F09A7660110551E
:10044000FD150027FFFF0000350047FFFF00007586
:1004500010950191026600005500C0050F095AA1D0
:1004600002850209221501252835014528750895C0
:10047000019102095B095D150026FF00350046FF6A
:100480007F750895029102095C095E66011055FDB1
:1004900026FF7F46FF7F751095029102660000558A
:1004A00000C0095FA1028503092215012528350135
:1004B000452875089501910209231500250135008D
:1004C00045017504950191020958A1020B01000A2A
:1004D000000B02000A00750295029102C009601625
:1004E000008026FF7F36008046FF7F7510950191C2
:1004F00002096136008046FF7F95019102150026B2
:10050000FF7F350046FF7F09637510950191020951
:1005100065150026FF0046FF7F750895019102C012
:10052000096EA102850409221501252835014528F7
:100530007508950191020970150026FF7F35004668
:10054000FF7F751095019102096F16008026FF7FCD
:1005500036008046FF7F950191020971150026FF44
:100560000035004667016614005500750895019135
:1005700002097227FFFF000047FFFF00006601101D
:1005800055FD7510950191026600005500C0097374
:10059000A102850509221501252835014528750880
:1005A00095019102097016018026FF7F3601804671
:1005B000FF7F751095019102C00974A1028506099B
:1005C0002215012528350145287508950191020954
:1005D0007509761581257F36018046FF7F75089560
:1005E000029102C0050F0977A102850A09221501AF
:1005F0002528350145287508950191020978A10241
:100600000979097A097B150125037508950191007F
:10061000C0097C150026FF00350046FF009102C08E
:100620000990A102850B09221501252835014528CD
:10063000750895019102C00996A102850C099709D8
:10064000980999099A099B099C1501250675089531
:10065000019100C0097DA102850D097E150026FFCC
:10066000003500461027750895019102C009ABA11D
:100670000285050925A10209260927093009310942
:10068000320933093409400941094209431501255A
:100690000B3501450B75089501B100C00501093BFB
:1006A000150026FF01350046FF01750A9501B102CC
:1006B0007506B101C0050F0989A102850609222529
:1006C0002815013501452875089501B102098BA14E
:1006D00002098C098D098E25031501350145037525
:1006E000089501B100C009AC150027FFFF000035D7
:1006F0000047FFFF000075109501B100C0097FA100
:10070000028507098075109501150027FFFF00007D
:10071000350047FFFF0000B102098326FF0046FFB6
:100720000075089501B10209A909AA75019502157C
:1007300000250135004501B10275069501B103C0E0
:10074000C01803410072006400750069006E006FFC
:100750000020004C004C0043000403090422034124
:100760000072006400750069006E006F0020004D8B
:10077000006900630072006F00200020002000125A
:100780000100020000004041233780000101020007
:1007900001120100020200004041233780000101E4
:1007A00002000100C18081C1C000000000240027B8
:1007B000002A002D00300000000000250028002B3A
:1007C000002E0031000404040404030405020202A4
:1007D00002040302020202060606060606040402DA
:1007E00002020404040802011040804010204080EE
:1007F0004080080204018040201002011080102077
:100800004040200000000200080E00000304010028
:100810000B000000000000000000000000000000CD
:1008200000003B2F11241FBECFEFDAE0DEBFCDBFAB
:1008300011E0A0E0B1E0ECEFF6E602C005900D9209
:10084000AA3AB107D9F725E0AAEAB1E001C01D92A2
:10085000A03BB207E1F714E0C2E1D4E004C0219765
:10086000FE010E946A33C131D107C9F70E94FB190A
:100870000C947C330C9400008C30F8F4282F30E07A
:100880009EE1899FF0011124E551FE4F908199234B
:10089000A1F090819D7F9083F901EB54FC4F9581ED
:1008A00091110BC0E091AB01F091AC010084F18596
:1008B000E02D09951092C50308950895FC01CB0120
:1008C0002091E80022FFFCCF282F215028F0309102
:1008D000F10030833196F9CF24E62093A3032BEF68
:1008E0002093E80008950F931F93CF93DF93DB01CC
:1008F000A40FB51FFB016EEFEA17FB0791F187FF0D
:1009000002C0249101C020810091A7031091A80387
:10091000C091A503D091A6030C171D07B4F49091C4
:10092000E8009570E1F39091E80092FD1CC02093DF
:10093000F1002091A7033091A8032F5F3F4F2F7341
:100940003327232B11F46093E8002091A703309103
:10095000A8032F5F3F4F3093A8032093A70331963E
:10096000CBCFCA0102C08FEF9FEFDF91CF911F91D4
:100970000F910895CF93DF9300D000D01F92CDB791
:10098000DEB7FC0181819081913A29F5813009F02F
:10099000BCC08281863051F445E050E060EB73E0EA
:1009A00080E40E9473041092B003AFC0873009F056
:1009B000ACC089838FEF9FEF9B838A838BE08C830E
:1009C00083E08D8345E050E0BE016F5F7F4F80E4A0
:1009D0000E9473049AC0913209F097C0893009F0DF
:1009E00094C08281853009F090C064E070E0CE014F
:1009F00001960E945E0486E08093B00380910F010F
:100A00008B3021F1A0910F0181E08A0F80930F01BB
:100A10009EE1E0910F019E9FF0011124E551FE4FF0
:100A20008081882351F080910F018B3030F48091C8
:100A30000F018F5F80930F01ECCF8EE1A89FF00133
:100A40001124E551FE4F81E0808301C0A0E0A09316
:100A5000B103A11104C082E08093B20350C0109290
:100A6000950581E08093B2038A819EE1A99FD00120
:100A70001124A551BE4F11968C9311978FEF9FEFC4
:100A800050969C938E931F9754961C921E92539748
:100A900052961C921E92519713968C93139714960C
:100AA0008C93149756961C921E9255971E961C92E4
:100AB0001E921D9716961C9216978FEF9FE71A9617
:100AC0009C938E93199758961C921E9257975C96FA
:100AD0001C921E925B975D961C925D9788EE93E048
:100AE0001C969C938E931B97E091AB01F091AC0107
:100AF0000684F785E02DBD01CE01019609958FEFA3
:100B00009FEF9093B4038093B30381E00F900F9015
:100B10000F900F900F90DF91CF91089542E450E035
:100B20006EEF71E080E80E94730440E250E060E400
:100B300072E080E80E94730483E090E00895EF92F1
:100B4000FF921F93CF93DF93EC01162FE881F98179
:100B50000480F581E02D09957C01E881F98106800A
:100B6000F781E02D612FCE010995C7019927DF910B
:100B7000CF911F91FF90EF900895FC0191818081AA
:100B8000813A29F49D7F81E0913091F414C0813243
:100B900079F49A3049F09B3019F0993049F40AC041
:100BA000828180930E0106C0828180930D0102C074
:100BB00080E0089581E008958C30F0F49EE1899FF3
:100BC000F0011124E551FE4F80818823A9F0808136
:100BD000826080838091C50381110EC00E94A51997
:100BE0006093BB017093BC018093BD019093BE01E3
:100BF00081E08093C503089508951F920F920FB668
:100C00000F9211248F9381E0809357038F910F905F
:100C10000FBE0F901F9018951F920F920FB60F9254
:100C200011248F9381E0809357038F910F900FBE13
:100C30000F901F9018951F920F920FB60F921124CC
:100C40002F933F934F935F936F937F938F939F93D4
:100C5000AF93BF93EF93FF939091AF0389B18C70E3
:100C6000892B90E09C013595279535952795209304
:100C7000AF034091AB035091AC036091AD03709111
:100C8000AE03FC01E25BFE4F8081082E000C990B45
:100C9000AA0BBB0B840F951FA61FB71F8093AB0336
:100CA0009093AC03A093AD03B093AE038091AA03DD
:100CB000FF91EF91BF91AF919F918F917F916F9134
:100CC0005F914F913F912F910F900FBE0F901F900A
:100CD0001895CF92DF92EF92FF920F931F93CF93CD
:100CE000DF931F92CDB7DEB7F82EE42E8B01C82E0E
:100CF000D92E8C2D8F198E1588F4F80161918F01F2
:100D0000C60169830E94FF2F6981681719F0C60127
:100D10000E940730FFEFCF1ADF0AEBCF0F90DF9171
:100D2000CF911F910F91FF90EF90DF90CF9008959A
:100D3000CF92DF92EF92FF920F931F93CF93DF93A7
:100D40001F92CDB7DEB78B016B017C01E61AF70A63
:100D50009C2D901B941758F4C7018C0D9D1D498341
:100D60000E94FF2FF60181936F014981F1CF0F900F
:100D7000DF91CF911F910F91FF90EF90DF90CF9077
:100D800008958F929F92AF92BF92CF92DF92EF928F
:100D9000FF9240E050E020E0682F70E0812C912C21
:100DA00054018394FA013296DB0102C0B595A795F0
:100DB000EA95E2F775016401042E04C0CC0CDD1C39
:100DC000EE1CFF1C0A94D2F7A0FF02C02C2902C01F
:100DD000C0942C214F5F5F4F4430510519F730E02C
:100DE000220F331FF901EC5CFE4F80FF05C08081AC
:100DF00091819695879502C080819181FF90EF90B7
:100E0000DF90CF90BF90AF909F908F9008951F92EA
:100E10000F920FB60F921124EF92FF921F932F9310
:100E20003F934F935F936F937F938F939F93AF9372
:100E3000BF93EF93FF93CF93DF93CDB7DEB7619767
:100E4000DEBFCDBF1092E9008091E80083FF59C159
:100E5000FE013A96CF0128E02E0F2E1729F030918F
:100E6000F10030833196F9CF24E62093A30322EFDB
:100E70002093E8002A8527FF05C03091E80030FF65
:100E8000FCCF03C03EEF3093E800322F307609F0FC
:100E9000C5C08B85811105C01092F1001092F10040
:100EA00029C1982F9D7F913009F424C1853049F4E0
:100EB0008091E80080FFFCCF8C8580688093E30000
:100EC00019C1863009F07CC01D85E888F988109228
:100ED000E9001092A8031092A703123091F5109226
:100EE000A6031092A5030E948E0599E0BE016F5FD4
:100EF0007F4FFB01292F11922A95E9F799831A83D5
:100F000091E09E8390E898879AEF99872091A703B4
:100F10003091A803275F3F4F3C832B838D83109232
:100F2000E9001092A8031092A703F092A603E092A2
:100F3000A50349E050E080E00E9473040E948E0502
:100F4000D9C0F092A603E092A503123259F441EE03
:100F500054E060E672E080E80E947304892B09F097
:100F6000C9C0CCC0113069F488899989089711F4F7
:100F70001093A4038091A403811111C06FE777E05F
:100F800016C0133009F0BAC08C85882359F082301E
:100F900061F0813009F0B2C061E477E008C061E936
:100FA00077E005C069E577E002C06DE577E061159F
:100FB000710509F4A3C0FB01449150E080E849C0E9
:100FC000873009F49BC0883021F481E08093F100E0
:100FD00091C0893009F08EC0237009F08FC080E085
:100FE00090E031E026E341E0480F4093E900309380
:100FF000EB000196FC01ED55F84FE491E093EC0015
:101000002093ED008530910571F78EE78093EA001B
:101010001092EA008C858093AA016CC028893989D6
:101020001092E9001092A8031092A7033093A60330
:101030002093A5032E85211154C08B859A85913A62
:1010400059F4813209F05AC047E050E060E171E0A4
:1010500080E00E9473044EC0913209F04FC080328C
:1010600039F467E070E080E191E00E945E0442C0E4
:10107000823209F043C08C85809317018091100162
:1010800090911101A0911201B0911301803B944005
:10109000A105B10579F58091170180FD11C087E7A1
:1010A00097E790930108809300089BE088E10FB6D2
:1010B000F894A895809360000FBE909360001AC0CA
:1010C0000FB6F894A89580916000886180936000C5
:1010D000109260000FBEA8951092010810920008AF
:1010E00009C0223059F4E0919605F09197050995D1
:1010F000882321F08EEF8093E80003C081E2809383
:10110000EB0061960FB6F894DEBF0FBECDBFDF9146
:10111000CF91FF91EF91BF91AF919F918F917F916F
:101120006F915F914F913F912F911F91FF90EF90A1
:101130000F900FBE0F901F9018958F929F92AF92B5
:10114000BF92CF92DF92EF92FF920F931F93CF93B4
:10115000DF9300D01F92CDB7DEB7382F8B0180917F
:10116000AA01882389F04A018AEFF82E832F87701D
:10117000E82E90E4C92E832F8072B82E2AE3D22E57
:10118000832F8074A82E21C08FEF9FEF5FC08FB791
:10119000F894E092E9009091E80095FF1AC09091D0
:1011A000F2002C2D291B8FBF211115C0FA94FF20AE
:1011B00059F361E070E080E090E039834A835B831B
:1011C0000E947F1939814A815B8181149104F9F66B
:1011D00034C020E0E8CF822F90E0881699060CF406
:1011E000282D822F90E0881A990A6FB7F894E09220
:1011F000E900BB2029F02150A8F01092F100FBCFAC
:10120000F80137FF07C0215058F074917093F10036
:101210003196F9CF215020F071917093F100FACFFF
:10122000080F191F8091E80085FF0DC081149104FB
:1012300011F4A11008C06FBFC8CF5D9A84E68093F7
:10124000A903CA0103C0D092E800F5CF0F900F9018
:101250000F90DF91CF911F910F91FF90EF90DF9052
:10126000CF90BF90AF909F908F9008959091AA01DA
:10127000992311F057FF03C08FEF9FEF08952FB709
:10128000F89487708093E9008091F20090E08417D1
:1012900095070CF4AC01842FFB0194E6815030F0EB
:1012A0009093A3033091F1003193F8CF411551058C
:1012B00021F08091F200882319F02FBFCA01089510
:1012C0008BE68093E800F9CF1F920F920FB60F9232
:1012D00011242F933F934F935F936F937F938F933B
:1012E0009F93AF93BF93EF93FF93CF93DF93CDB7CC
:1012F000DEB7C054D109DEBFCDBF8091E1001092AE
:10130000E10083FF0FC01092E90091E09093EB00A1
:101310001092EC0092E39093ED001092AA0198E0F5
:101320009093F00082FF46C083E08093E9008091B3
:10133000F200882319F08AE38093E8009FB7F894BD
:1013400082E08093E9008091F2009FBF882321F022
:101350008DEC94E00E947B0E9FB7F89485E080931B
:10136000E9008091F2009FBF8823C1F08091980529
:1013700090919905892B91F040E450E0BE016F5F98
:101380007F4F85E00E94360997FD08C0E0919805DF
:10139000F0919905BC01CE01019609958091A903B0
:1013A000882341F08091A90381508093A903811182
:1013B00001C05D98C05CDF4F0FB6F894DEBF0FBE72
:1013C000CDBFDF91CF91FF91EF91BF91AF919F91F1
:1013D0008F917F916F915F914F913F912F910F90DE
:1013E0000FBE0F901F901895EF92FF920F931F93CF
:1013F000CF93DF931F92CDB7DEB789838B017A013C
:1014000041E050E0BE016F5F7F4F84E00E949D0885
:10141000A701B80184E40E949D080F90DF91CF914D
:101420001F910F91FF90EF9008951F93CF93DF933B
:10143000DC0111961C9111979C91953009F467C0BD
:1014400060F5923009F443C0A8F4913009F04DC121
:10145000E091AB01F091AC012EE1129FB00111249B
:1014600065517E4F028CF38DE02DCD01DF91CF9140
:101470001F9109949330C9F1943009F036C1E0917D
:10148000AB01F091AC012EE1129FB0011124655126
:101490007E4F0488F589E02D35C09B3009F49DC04E
:1014A00038F4963009F441C09A3009F44CC01DC19B
:1014B0009C3009F4CBC0913F09F017C140E450E0E3
:1014C000BD0182EFDF91CF911F910C94F409E0915F
:1014D000AB01F091AC013EE1139FB00111246551C5
:1014E0007E4F0088F189E02D0DC0E091AB01F091B5
:1014F000AC018EE1189FB001112465517E4F028826
:10150000F389E02DCD01DF91CF911F910994E091F6
:10151000AB01F091AC013EE1139FB0011124655184
:101520007E4F0688F789E02DEDCFE091AB01F09179
:10153000AC018EE1189FB001112465517E4F008CE3
:10154000F18DE02DDFCF1F3F09F41FE712969C912C
:10155000913099F4812F0E94DC05E12FF0E0EB54EB
:10156000FC4F85818111C1C0E091AB01F091AC01CC
:101570000680F781E02D812F47C0923029F5C1E028
:101580008C2F0E943C04CF5FCC30D1F7C12FD0E02C
:10159000CB54DC4F8D81811109C0E091AB01F091FA
:1015A000AC010084F185E02D8FE70995812F0E9421
:1015B000DC058D81811199C0E091AB01F091AC0106
:1015C0000680F781E02D1FC0933009F08EC0812F77
:1015D000DF91CF911F910C943C0481E01F3FC1F437
:1015E00080930F0188E691E0EBEEF1E0DF019C01D2
:1015F0001D9221503040E1F7E091AB01F091AC0138
:101600000284F385E02D8FE7DF91CF911F9109943C
:10161000809395051C3008F068C03EE1139FF001EF
:101620001124E551FE4F108280910F01181710F41C
:1016300010930F01E091AB01F091AC010284F385AE
:10164000E02D812F09951092C5034FC082E0809351
:10165000C6039091C70394609093C7039091C7030A
:1016600090619093C7031092C8031330B1F040F417
:10167000113079F01230C9F58091C703826033C010
:10168000153071F1B0F0163081F58091C7038E7F6F
:101690002AC08091C7038D7F26C0E091AB01F091F5
:1016A000AC010480F581E02D80E009951092C8031B
:1016B0001CC0E091AB01F091AC010480F581E02DFC
:1016C00081E0099581E080930F0188E691E0EBEEDF
:1016D000F1E0DF019C011D9221503040E1F705C08F
:1016E0008091C70381608093C703DF91CF911F91E1
:1016F0000895DC01683810F0685825C0E62FF0E046
:1017000067FF12C0E058F10981E090E001C0880F46
:10171000EA95EAF7809514969C911497892314967C
:101720008C93149760E00FC0E258FE4F64916623DB
:1017300011F167FF08C014968C9114978D7F149651
:101740008C9314976F77FD01369686E0662321F01F
:101750009081961301C01082815031968111F6CF8D
:10176000BD016C5F7F4F48E050E082E00E94F409C9
:1017700081E090E0089580E090E00895FC011682F9
:10178000178210861186128613861482BC016C5F44
:101790007F4F48E050E082E00C94F409DC016838A7
:1017A00010F068582DC0E62FF0E067FF11C0E05838
:1017B000F10981E090E001C0880FEA95EAF71496FC
:1017C0009C911497892B14968C93149760E018C001
:1017D000E258FE4F6491611109C081E090E01396D8
:1017E0009C938E93129780E090E0089567FF08C065
:1017F00014968C911497826014968C9314976F773B
:1018000016968C911697861751F117968C9117970B
:10181000861729F118968C911897861701F1199659
:101820008C9119978617D9F01A968C911A9786176A
:10183000B1F01B968C911B97861789F0FD013696A7
:1018400080E090E02191211105C0FD01E80FF91F12
:10185000668305C0019686309105A1F7BECFBD0114
:101860006C5F7F4F48E050E082E00E94F40981E025
:1018700090E00895CF92DF92EF92FF920F931F9323
:10188000CF93DF936C01EB017B01E40EF51E00E0CA
:1018900010E0CE15DF0561F06991D601ED91FC9164
:1018A0000190F081E02DC6010995080F191FF1CFB5
:1018B000C801DF91CF911F910F91FF90EF90DF90C2
:1018C000CF90089583E08093E9008091F20088230F
:1018D00019F08AE38093E800089520917C04309108
:1018E0007D0480917E0490917F0428173907A9F028
:1018F000E0917E04F0917F04E45CFB4F80812091B5
:101900007E0430917F042F5F3F4F2F733327309336
:101910007F0420937E0490E008958FEF9FEF089559
:1019200020917C0430917D0480917E0490917F040D
:101930002817390749F0E0917E04F0917F04E45CB8
:10194000FB4F808190E008958FEF9FEF0895809185
:101950007C0490917D0420917E0430917F04821B51
:10196000930B8F739927089585ED8093BC00809128
:10197000BC0084FDFCCF1092CC0408954091170464
:10198000262F30E0240F311D21323105DCF4209167
:10199000CC042430C9F4FC0180E090E0861758F4B0
:1019A000309117042191DC01AB50BC4FA30FB11D46
:1019B0002C930196F3CF80911704680F609317045E
:1019C00080E0089581E0089582E008950895E0910F
:1019D000810480918004E81730F4F0E0EA57FB4F6F
:1019E000808190E008958FEF9FEF0895909181049A
:1019F00080918004981750F4E92FF0E0EA57FB4FEC
:101A0000208130E09F5F9093810402C02FEF3FEF71
:101A1000C90108958091800490E020918104821B87
:101A200091090895CF92DF92EF92FF920F931F9347
:101A3000CF93DF937C01262F972F8A018091850415
:101A4000882391F0C62FD72F6E01C40ED51ECC155A
:101A5000DD0571F06991D701ED91FC910190F08164
:101A6000E02DC7010995F3CF642F822F0E94BE0C91
:101A7000C801DF91CF911F910F91FF90EF90DF9000
:101A8000CF900895CF93DF931F92CDB7DEB76983D0
:101A9000209185042223D1F020918204203240F04D
:101AA00021E030E0FC013383228380E090E015C028
:101AB00080918304E82FF0E0EB52FC4F99819083F2
:101AC0008F5F809383048093820405C061E0CE0120
:101AD00001960E94BE0C81E090E00F90DF91CF91C3
:101AE00008950895CF93DF93FC01EB01718182810A
:101AF0008983878190859A87898725853685438163
:101B000054816EE1769FC001112485519E4FDC0106
:101B100050965C934E931F9756963C932E935597F1
:101B200064E0769FD0011124A554BE4F1D921D92F2
:101B30001D921C921397838594859E878D8782853D
:101B40008E8381E0DF91CF910895FC012281FB011A
:101B50002783FC018381FB0180870895FC0182813A
:101B60009381FB01908F878B0895DC01FB01129616
:101B70008D919C911397908F878B14968D919C914A
:101B80001597948F838F16968C911697858F17963D
:101B90008D919C911897948783870895DC01FB01B0
:101BA00012968C91129782838281811110C01596B2
:101BB0008D919C911697908F878B13968D919C9108
:101BC0001497948F838F17968C91858308958281C3
:101BD0000895DC01FB0112968C9112978383139672
:101BE0008C911397848314968D919C911597948B67
:101BF000838B16968D919C911797928B818B08956C
:101C00009EE1899FF0011124E551FE4F708B67879B
:101C1000568B458B94E0899FF0011124E554FE4FCB
:101C200010821182128213820895089508951092ED
:101C3000950524E0829FC0011124FC01E554FE4F6C
:101C40001082118212821382089525E0FC01208304
:101C50008EE591E008950895809395050895CF92BB
:101C6000DF92EF92FF926091B9017091BA01072E55
:101C7000000C880B990B0E9494316B017C016091E0
:101C800053037091540380915503909156030E9421
:101C900094319B01AC01C701B6010E94EA30FF906C
:101CA000EF90DF90CF9008950E9477330F931F93AA
:101CB000CF93DF931F92CDB7DEB78C0169838091FC
:101CC0001701882359F041E050E0BE016F5F7F4F5C
:101CD00083E00E949D08181619063CF081E090E010
:101CE000F8019383828380E090E00F90DF91CF91A1
:101CF0001F910F9108950F931F93CF93DF931F921E
:101D0000CDB7DEB700917C0410917D040F5F1F4FAB
:101D10000F73112780917E0490917F040817190793
:101D2000F9F041E050E0BE016F5F7F4F82E00E941A
:101D30003609019719F4898190E002C08FEF9FEF77
:101D40008F3F2FEF920761F0E0917C04F0917D04CA
:101D5000E45CFB4F808310937D0400937C04D2CF1E
:101D60000F90DF91CF911F910F9108951F920F92C5
:101D70000FB60F9211242F933F934F935F936F935E
:101D80007F938F939F93AF93BF93EF93FF93809134
:101D9000B900887F803609F49CC068F5883209F460
:101DA0005BC090F4803109F454C038F4882309F4FE
:101DB000F6C0883009F44DC0F6C0883109F44CC033
:101DC000803209F45DC0EFC0803409F468C048F483
:101DD000803309F455C0883309F0E5C08093CA0404
:101DE000D8C0803509F44FC0883509F45DC0883407
:101DF00009F0D9C0D6C0883909F4C7C0A8F488371B
:101E000009F467C038F4883609F463C0803709F4F0
:101E100060C0C9C0883809F4B8C0803909F45FC00F
:101E2000803809F0C0C05BC0803B09F486C038F43C
:101E3000803A09F466C0883A09F47FC0B4C0803C97
:101E400009F4A7C0883C09F4A4C0883B09F48AC0FF
:101E5000AAC08091C70410C09091C9048091C804A1
:101E6000981770F5E091C90481E08E0F8093C90442
:101E7000F0E0EA55FB4F80818093BB0085EC86C083
:101E80008093CA048EC0E091C90481E08E0F8093D4
:101E9000C9048091BB00F0E0EA55FB4F808390912C
:101EA000C9048091C8046EC0E091C90481E08E0F1E
:101EB0008093C9048091BB00F0E0EA55FB4F80831A
:101EC0008091CB0481116DC081E08093C60484EAC7
:101ED00061C083E08093CC0410923B04CFCF80910B
:101EE0003B04803208F051C0E0913B0481E08E0F4A
:101EF00080933B048091BB00F0E0E55EFB4F808364
:101F0000BDCF85EC8093BC001092CC0480913B0443
:101F1000803230F4E0913B04F0E0E55EFB4F10824C
:101F200060913B0470E0E0911904F0911A048BE198
:101F300094E0099510923B0436C084E08093CC0471
:101F40001092180410921704E0911504F0911604F1
:101F5000099580911704811105C081E080931704D1
:101F60001092F503E091180481E08E0F809318041D
:101F7000F0E0EB50FC4F80818093BB0090911804FF
:101F800080911704981708F479CF85E88093BC00F6
:101F90000AC085EC8093BC001092CC0404C010925F
:101FA000CA040E94B40CFF91EF91BF91AF919F9131
:101FB0008F917F916F915F914F913F912F910F90F2
:101FC0000FBE0F901F901895209182049091840469
:101FD000213208F049C08091CC048111FCCF32E05D
:101FE0003093CC046093CB043FEF3093CA0410923B
:101FF000C9042093C804A5EDB3E046EA54E0FA0111
:102000003E2F341B321718F43D913193F9CF1092C3
:10201000C7042091C704990F922B9093C704909105
:10202000C604913061F41092C6049091C704909355
:10203000BB009091BC0093FDF8CF95EC01C095EEEC
:102040009093BC009091CC049230E1F39091CA043B
:102050009F3F79F08091CA04803241F08091CA0498
:10206000803331F084E005C081E003C082E001C02C
:1020700083E01092830410928204109285040895E4
:102080002091AD013091AE012817390708F4C9013C
:1020900090938B0080938A0008952091AD01309138
:1020A000AE012817390708F4C9019093890080937D
:1020B000880008954F925F926F927F928F929F92C5
:1020C000AF92BF92CF92DF92EF92FF920F931F9346
:1020D000CF93DF9300D000D0CDB7DEB7009709F4DF
:1020E00042C28C016091B60170E060587109072E00
:1020F000000C880B990B0E94943120E030E04FE7F0
:1021000053E40E94EA306B017C016093D103709329
:10211000D2038093D3039093D40320E030E0A9014D
:102120000E94443287FD1DC0A701960160E070E067
:1021300080E89FE30E9478306093CD037093CE03D4
:102140008093CF039093D00380E090E0A0E8BFE3BA
:102150008093C9039093CA03A093CB03B093CC039D
:1021600023C020E030E0A901C701B6010E94E5309C
:1021700087FF1AC080E090E0A0E8BFE38093CD0322
:102180009093CE03A093CF03B093D0039C01AD01F5
:10219000C701B6010E9479306093C9037093CA03E6
:1021A0008093CB039093CC039091B301892F8074DB
:1021B000F801C080D180E280F38091FDEAC08111F6
:1021C00095C01C141D041E041F04E4F54090B401C6
:1021D0005090B5012091B7013091B8014901A12C6F
:1021E000B12C612C712CC301B2010E94923120915B
:1021F000C9033091CA034091CB035091CC030E9494
:1022000049320E945C31681979098A099B09A70142
:1022100096010E944633A30192010E941530DA0113
:10222000C901880D991DAA1DBB1DF80180839183EA
:10223000A283B38380E090E00E944D10F80180817A
:10224000918146C0C114D104E104F10409F444C0F1
:102250004090B4015090B5018091B7019091B801C0
:102260004C01A12CB12CF094E094D094C094C11CEA
:10227000D11CE11CF11C612C712CC301B2010E9424
:1022800092312091CD033091CE034091CF035091F4
:10229000D0030E9449320E945C31681979098A0989
:1022A0009B09A70196010E944633A30192010E9457
:1022B0001530DA01C901880D991DAA1DBB1DF80151
:1022C00080839183A283B3830E944D1080E090E0CD
:1022D0000E9440102A9A47C180E090E00E944D1071
:1022E00080E090E00E9440102A983DC1E091B40146
:1022F000F091B5011C141D041E041F04DCF44F01F1
:10230000969487948091B7019091B801880E991E98
:10231000A12CB12C2F01612C712CC301B2016819C1
:1023200079098A099B09A70196010E944633A301F6
:10233000920119C0C114D104E104F10411F14F015B
:10234000969487948091B7019091B801881A990A60
:10235000A12CB12CA5019401C701B6010E944633FE
:102360009F0140E050E00E941530DA01C901880D5C
:10237000991DAA1DBB1DF80180839183A283B3839D
:1023800003C0CF01969587950E944D1080E090E0A4
:10239000D4C0811133C0F7FC02C02A9A01C02A9828
:1023A0008091B7019091B8016C01E12CF12C8090E3
:1023B000B4019090B501A12CB12CF801208131819C
:1023C0004281538157FF07C0509540953095219524
:1023D0003F4F4F4F5F4FC501B4016C197D098E0906
:1023E0009F090E944633A50194010E941530DA012D
:1023F000C9018C0D9D1DAE1DBF1D81C01C141D0487
:102400001E041F046CF520E030E040E85FE36091BB
:10241000AF017091B0018091B1019091B2010E9421
:1024200079302091040130910501409106015091CD
:1024300007010E9449320E945C314B015C016091AE
:1024400000017091010180910201909103010E94AD
:102450005C31681979098A099B09A70196013FC077
:10246000C114D104E104F10409F44FC02091AF017B
:102470003091B0014091B1015091B20160E070E043
:1024800080E89FE30E94783020910401309105019B
:1024900040910601509107010E9449320E945C312F
:1024A0004B015C0122273327A9012C193D094E0954
:1024B0005F09609108017091090180910A01909172
:1024C0000B0129833A834B835C830E945C3168193A
:1024D00079098A099B0929813A814B815C810E9493
:1024E00046332091B4013091B50140E050E00E94A4
:1024F0001530DA01C901880D991DAA1DBB1DF8010F
:1025000080839183A283B3830BC060910401709197
:10251000050180910601909107010E946331CB0172
:102520000E944D1060910401709105018091060197
:10253000909107010E946331CB010F900F900F9093
:102540000F90DF91CF911F910F91FF90EF90DF904F
:10255000CF90BF90AF909F908F907F906F905F9043
:102560004F900C9440100F900F900F900F90DF91B0
:10257000CF911F910F91FF90EF90DF90CF90BF9080
:10258000AF909F908F907F906F905F904F90089545
:102590006091AD017091AE0180E090E00E949231B7
:1025A0009B01AC0160E07EEF8FEF96E40E94EA3081
:1025B00008952F923F924F925F926F927F928F92E7
:1025C0009F92AF92BF92CF92DF92EF92FF920F93C2
:1025D0001F93CF93DF93CDB7DEB729970FB6F8944B
:1025E000DEBF0FBECDBF998788874B012B831D832C
:1025F0000C831701DF82CE82042F10E08C819D8135
:102600006C01E12CF12CE885F985F7FD2BC0C801A0
:102610009695982F882797958795BF01681B790B0A
:10262000072E000C880B990B0E9494312B013C0162
:10263000C701B6010E9492319B01AC01C301B201F6
:102640000E94EA302B013C01C8019695982F8827FB
:10265000979587959A838983EB8190E8E99FB001EC
:1026600011242AC0B8017695762F6627779567954D
:10267000E885F9856E0F7F1F072E000C880B990BDC
:102680000E9494312B013C01C701B6010E94923196
:102690009B01AC01C301B2010E94EA302B013C0155
:1026A00060E86003C001619F900D11249A838983C3
:1026B0002B816203B001112488859985681B790BF1
:1026C000072E000C880B990B0E9494316B017C0142
:1026D000B10180E090E00E9492319B01AC01C70102
:1026E000B6010E94EA306B017C018A149B0408F455
:1026F0003FC08E819F818A0D9B1D88169906C0F56B
:102700000C811D810A0D1B1D8016910690F4B401E9
:102710006A197B0980E090E00E9492319B01AC0134
:10272000C301B2010E9449320E945C3189819A81C1
:102730001CC08219930988159905E8F48A189B082A
:10274000EE81FF818E1A9F0AB401620D731D80E035
:1027500090E00E9492319B01AC01C701B6010E943A
:1027600049320E945C3188859985860F971F05C084
:1027700080E090E002C08885998529960FB6F8948C
:10278000DEBF0FBECDBFDF91CF911F910F91FF90A4
:10279000EF90DF90CF90BF90AF909F908F907F9001
:1027A0006F905F904F903F902F900895CF92DF925F
:1027B000EF92FF920F931F938B019C014091B40104
:1027C0005091B5016A01E12CF12C66277727CB01E6
:1027D0006C197D098E099F09061717072807390705
:1027E0004CF0C901B801C016D106E206F30614F494
:1027F000C701B6011F910F91FF90EF90DF90CF902E
:1028000008958F929F92AF92BF92CF92DF92EF92F4
:10281000FF92CF93DF934B015C01EA010E942F0EE0
:102820006B017C01DE01A50194010E943F300E94F2
:102830009431A70196010E94493220E030E040E047
:1028400051E40E94493220E030E040E251E40E942D
:10285000493220E030E040E85BE30E9449320E94C8
:102860005C310E94D61390958095709561957F4F4D
:102870008F4F9F4FDF91CF91FF90EF90DF90CF90E0
:10288000BF90AF909F908F9008954F925F926F92FC
:102890007F928F929F92AF92BF92CF92DF92EF92F0
:1028A000FF92CF93DF9300D000D0CDB7DEB74B01BE
:1028B0005C0157FF02C04D5F5F4F6A01D594C7941A
:1028C000D594C7940E942F0E69837A838B839C834F
:1028D0009B01AC01C501B4010E94493220E030E007
:1028E00040E251E40E9449322B013C0120E030E0FB
:1028F00040E85FE30E9444320D2C000CEE08FF0814
:1029000018161CF4C701B60128C020E030E040E8EA
:102910005FEBC301B2010E94E53087FF06C0C7012B
:10292000B6010E94D613CB011EC0C701B6010E949A
:1029300094319B01AC01C501B4010E944932298147
:102940003A814B815C810E94493220E030E040E2D4
:1029500051E40E9449320E945C310E94D6138827BC
:102960009927861B970B0F900F900F900F90DF9178
:10297000CF91FF90EF90DF90CF90BF90AF909F905E
:102980008F907F906F905F904F9008958F929F925D
:10299000AF92BF92CF92DF92EF92FF924B015C0118
:1029A000BA01550F880B990B0E9494316B017C0181
:1029B00020E030E0A901C501B4010E944432A50124
:1029C000940118160CF05058C701B6010E94493204
:1029D0006B017C010E942F0E9B01AC01C701B60167
:1029E0000E94493220E030E040E851E40E94493240
:1029F00020E030E040E251E40E94493220E030E043
:102A000040E05DE30E9449320E945C310E94D6138F
:102A10006B017C0120E030E0A901C501B4010E94F6
:102A2000443218162CF4882799278C199D090DC05B
:102A300020E030E0A901C501B4010E94E53087FF24
:102A400002C0C60102C080E090E0FF90EF90DF90EE
:102A5000CF90BF90AF909F908F900895CF92DF92CC
:102A6000EF92FF92CF93DF936B017C01EA0120E0AC
:102A700030E0A9010E944432181694F020E030E0C2
:102A8000A901C701B6010E94E53087FF3AC020E0E6
:102A900030E0A901C701B6010E9479306B017C01C9
:102AA000BE01DD0F880B990B0E9494319B01AC0194
:102AB000C701B6010E9449326B017C010E942F0EB2
:102AC0009B01AC01C701B6010E94493220E030E011
:102AD00040E851E40E94493220E030E040E251E415
:102AE0000E94493220E030E040E05BE30E9449323E
:102AF0000E945C310E94D61388279927861B970B6A
:102B000002C080E090E0DF91CF91FF90EF90DF90E6
:102B1000CF9008959091CC049111FCCF91E09093C7
:102B2000CC049093CB042FEF2093CA041092C904D5
:102B3000260F2093C8049093C7049091C704880F70
:102B4000892B8093C7048091C604813061F4109270
:102B5000C6048091C7048093BB008091BC0083FDB4
:102B6000F8CF85EC01C085EE8093BC008091CC0449
:102B70008130E1F38091C904861710F46091C90493
:102B8000A6EAB4E026E834E0F9018E2F821B86170E
:102B900018F48D918193F9CF862F0895009769F0ED
:102BA000FC0101900020E9F73197AF01481B590B58
:102BB000BC018DEC94E00C943A0C80E090E0089518
:102BC000CF93DF931092EB041092EA049091E70404
:102BD00021E0209385049093840410928304109242
:102BE0008204A091EC04B091ED04ED91FC91119759
:102BF0000190F081E02D682FCD01099561E0809171
:102C0000EC049091ED040E94E40F882319F08AE906
:102C10009FEF0DC062E08091E7040E948A15109238
:102C2000810480938004823049F089E99FEF90937A
:102C3000EB048093EA0480E090E01BC08091EC04F8
:102C40009091ED04DC01ED91FC910680F781E02D7F
:102C50000995D82FB0E0CB2F8091EC049091ED0432
:102C6000DC01ED91FC910680F781E02D09958C0F38
:102C70009D1FDF91CF910895E091CD04F091CE0496
:102C80000190F081E02D682F8DEC94E00994CF93B2
:102C9000DF938DE00E943C16EC018AE00E943C1616
:102CA0008C0F9D1FDF91CF9108958F929F92AF92CD
:102CB000BF92EF92FF920F931F93CF93DF93CDB705
:102CC000DEB7A1970FB6F894DEBF0FBECDBF162FAB
:102CD000042F19A2423008F40AE07E0121E2E20E3C
:102CE000F11C802E912CA12CB12C612FA5019401F7
:102CF0000E944730029F1019112481E0E81AF10860
:102D00001A3014F4105D01C0195CF7011083122F02
:102D1000732FCA01232B242B252B39F7C7010E94BF
:102D2000CE15A1960FB6F894DEBF0FBECDBFDF91D2
:102D3000CF911F910F91FF90EF90BF90AF909F9018
:102D40008F900895CF92DF92EF92FF92CF93DF930F
:102D500097FF19C06B017C018DE20E943C16EC01CB
:102D600066277727CB016C197D098E099F094AE0F8
:102D70000E9455168C0F9D1FDF91CF91FF90EF9011
:102D8000DF90CF9008954AE0DF91CF91FF90EF90D0
:102D9000DF90CF900C945516CF92DF92EF92FF9276
:102DA0006B017C018CE00E94E015E7EEF4E09F707F
:102DB000948B838B6785708981899289C786D08A35
:102DC000E18AF28AFF90EF90DF90CF900895CF9341
:102DD0001092EB041092EA048091E70491E0909342
:102DE000850480938404109283041092820480915D
:102DF000EC049091ED04DC01ED91FC910190F081E7
:102E0000E02D67E0099561E08091EC049091ED047C
:102E10000E94E40FC82F882341F08CE99FEF909324
:102E2000EB048093EA04C0E01EC061E08091E704F7
:102E30000E948A151092810480938004813039F0B9
:102E40008BE99FEF9093EB048093EA040CC0809190
:102E5000EC049091ED04DC01ED91FC910680F7818A
:102E6000E02D0995C82F8C2FCF910895CF93C82FAF
:102E70001092EB041092EA048091E70491E09093A1
:102E800085048093840410928304109282048091BC
:102E9000EC049091ED04DC01ED91FC910190F08146
:102EA000E02D67E009958091EC049091ED04DC0140
:102EB000ED91FC910190F081E02D6C2F099561E07E
:102EC0008091EC049091ED040E94E40F882331F08E
:102ED00088E39FEF9093EB048093EA048091EA04E7
:102EE000CF910895CF93DF93BC01990F880B990B75
:102EF0000E94A216EC010E9447168C0F9D1FDF91C5
:102F0000CF9108958F929F92AF92BF92CF92DF920E
:102F1000EF92FF920F931F938EE00E94E015209195
:102F2000EA043091EB044091F6045091F70460916B
:102F3000F8047091F904232B21F0342F252FCB01B5
:102F40004FC09F702091FA043091FB044901032E79
:102F5000000CAA08BB086C01092E000CEE08FF0843
:102F60002130E8E03E075CF0F901F8508E179F072A
:102F700034F4505F6F4F7F4F8A019B010EC0813048
:102F8000E8E09E078CF0FC01F8502E173F0764F430
:102F90008A019B01105121093109081919092A09CF
:102FA0003B09B901A80104C0481959096A097B09FC
:102FB0004C0D5D1D6E1D7F1D4093F6045093F7046C
:102FC0006093F8047093F9049093FB048093FA04DF
:102FD0003091F6042091F7048091F8049091F9045F
:102FE000632F722F1F910F91FF90EF90DF90CF9082
:102FF000BF90AF909F908F900895BC01990F880B60
:10300000990B0C94A216682F70E080E090E04AE0E3
:103010000C9455160C94CE150F931F930E94A5196E
:103020006093D5047093D6048093D7049093D8040A
:10303000E091CD04F091CE040084F185E02D8DEC7B
:1030400094E0099597FF1FC00E94A5190091D5042F
:103050001091D6042091D7043091D804DC01CB0123
:10306000801B910BA20BB30B0091D1041091D204E1
:103070002091D3043091D40480179107A207B3079D
:10308000B8F28FEF9FEF1F910F910895FF920F936A
:103090001F93CF93DF9300D000D0CDB7DEB70E944F
:1030A0000C18FC0197FD11C08D32910591F0C0976D
:1030B0000A9778F0E091CD04F091CE040680F78174
:1030C000E02D8DEC94E00995EACF60E070E0CB0153
:1030D0004CC020E030E0A901F12CE130F105F1F025
:1030E000ED32F105C9F0CF01C0970A97B8F4AAE014
:1030F000B0E00E9434308F01FF0F220B330BDC0154
:10310000CB01800F911FA21FB31F9C01AD01205363
:1031100031094109510902C0FF24F394E091CD0423
:10312000F091CE040680F781E02D8DEC94E02983A8
:103130003A834B835C8309950E940C18FC01C0976D
:1031400029813A814B815C810A9738F2E130F1059F
:1031500021F2FF2041F066277727CB01621B730B1A
:10316000840B950B02C0CA01B9010F900F900F900C
:103170000F90DF91CF911F910F91FF900895362FFF
:1031800090E0FC01ED5FF74F4491FC01EC51F84FEA
:103190002491FC01EB53F84F8491882309F44DC02E
:1031A0004423C1F150E0FA013197EE30F10590F57A
:1031B000EE55FF4F0C946A33909180009F7703C0C7
:1031C000909180009F7D9093800024C094B59F775C
:1031D00002C094B59F7D94BD1DC0909190009F77D3
:1031E00007C0909190009F7D03C090919000977FC1
:1031F000909390000FC09091C0009F7703C0909172
:10320000C0009F7D9093C00005C09091C200977F41
:103210009093C200E82FF0E0EE0FFF1FE954F84F43
:10322000A591B4918FB7F894EC91311103C020951A
:103230002E2301C02E2B2C938FBF0895CF93DF93A5
:1032400090E0FC01EC51F84F2491FC01EB53F84F56
:103250008491882361F190E0880F991FFC01E75564
:10326000F84FC591D491FC01E954F84FA591B49160
:10327000611109C09FB7F8948881209582238883C3
:10328000EC912E230BC0623061F49FB7F894388123
:10329000822F809583238883EC912E2B2C939FBFC4
:1032A00006C08FB7F894E8812E2B28838FBFDF915B
:1032B000CF9108953FB7F8948091AC059091AD05FA
:1032C000A091AE05B091AF0526B5A89B05C02F3FD4
:1032D00019F00196A11DB11D3FBFBA2FA92F982F3C
:1032E0008827820F911DA11DB11DBC01CD0142E0B7
:1032F000660F771F881F991F4A95D1F70895CF92BF
:10330000DF92EF92FF92CF93DF936B017C010E94DB
:103310005A19EB01C114D104E104F10479F00E94BF
:103320005A196C1B7D0B683E7340A0F381E0C81AEC
:10333000D108E108F108C851DC4FECCFDF91CF9103
:10334000FF90EF90DF90CF9008952FB7F8946091A1
:10335000A8057091A9058091AA059091AB052FBF92
:1033600008951F920F920FB60F9211242F933F933F
:103370008F939F93AF93BF938091A8059091A905D8
:10338000A091AA05B091AB053091A70523E0230FCA
:103390002D3720F40196A11DB11D05C026E8230F8D
:1033A0000296A11DB11D2093A7058093A8059093B7
:1033B000A905A093AA05B093AB058091AC059091A7
:1033C000AD05A091AE05B091AF050196A11DB11D4F
:1033D0008093AC059093AD05A093AE05B093AF0577
:1033E000BF91AF919F918F913F912F910F900FBE01
:1033F0000F901F901895CF93DF93CDB7DEB7C054D1
:10340000D1090FB6F894DEBF0FBECDBF789484B556
:10341000826084BD84B5816084BD85B5826085BDD0
:1034200085B5816085BD80916E00816080936E005E
:103430001092810080918100826080938100809150
:103440008100816080938100809180008160809301
:103450008000809191008260809391008091910022
:1034600081608093910080919000816080939000B2
:103470008091C10084608093C1008091C10082600E
:103480008093C1008091C10081608093C1008091D0
:10349000C30081608093C3008091C00082608093EC
:1034A000C0008091C20081608093C20080917A0048
:1034B000846080937A0080917A00826080937A00A1
:1034C00080917A00816080937A0080917A00806890
:1034D00080937A001092AA0181E08093D70080EA5D
:1034E0008093D80082E189BD09B400FEFDCF61E080
:1034F00070E080E090E00E947F1980E98093D8001E
:103500001CE01093E2001092E000109281031092F0
:103510008003109286031092870310928803109202
:10352000890310927B0310927A0310928F031092FA
:1035300090031092910310929203109293031092B1
:103540009403109295031092960342E0BE01615FCE
:103550007F4F80E090E00E9498068F8598898A3F8F
:10356000910509F407C18AEF90E09E878D8742E0BC
:10357000BE01635F7F4F80E090E00E946906198280
:103580001A821B821C8244E0BE016F5F7F4F82E083
:1035900090E00E94690688E394E09E878D8742E070
:1035A000BE01635F7F4F86E090E00E94690684E67B
:1035B000898B41E0BE016F5E7F4F88E090E00E9402
:1035C000690641E0BE016F5E7F4F8BE090E00E9494
:1035D000690641E0BE016F5E7F4F8CE090E00E9483
:1035E000690641E0BE016F5E7F4F80E190E00E947E
:1035F000690641E0BE016F5E7F4F8DE090E00E9462
:10360000690682E3898B41E0BE016F5E7F4F89E0EE
:1036100090E00E94690641E0BE016F5E7F4F8AE044
:1036200090E00E94690641E0BE016F5E7F4F8EE030
:1036300090E00E94690686E4898B41E0BE016F5EDE
:103640007F4F8FE090E00E9469061E861D8642E053
:10365000BE01635F7F4F81E190E00E9469068FEFBA
:1036600097E09E878D8742E0BE01635F7F4F83E1D5
:1036700090E00E9469068FEF9FE09E878D8742E071
:10368000BE01635F7F4F85E190E00E94690680E89C
:10369000898B41E0BE016F5E7F4F87E190E00E9421
:1036A000690681E0898B41E0BE016F5E7F4F88E152
:1036B00090E00E94690680E090E1A0E0B0E089839C
:1036C0009A83AB83BC8344E0BE016F5F7F4F89E187
:1036D00090E00E946906198B41E0BE016F5E7F4F4A
:1036E0008DE190E00E9469061E861D8642E0BE01C3
:1036F000635F7F4F8AE290E00E94690642E0BE016C
:10370000635F7F4F8EE290E00E94690642E0BE0157
:10371000635F7F4F82E390E00E94690642E0BE0152
:10372000635F7F4F86E390E00E9469068FEF93E02E
:103730009E878D8742E0BE01635F7F4F8CE290E001
:103740000E94690642E0BE01635F7F4F80E390E024
:103750000E94690642E0BE01635F7F4F84E390E010
:103760000E94690642E0BE01635F7F4F88E390E0FC
:103770000E94690642E069EB71E086E090E00E94F9
:10378000980644E06DE573E089E190E00E949806B8
:1037900041E061E673E088E090E00E94980641E035
:1037A00065E673E089E090E00E94980641E063E6F8
:1037B00073E08AE090E00E94980641E068E673E0DA
:1037C0008BE090E00E94980641E067E673E08CE0B1
:1037D00090E00E94980641E066E673E08DE090E09C
:1037E0000E94980641E064E673E08EE090E00E945B
:1037F000980641E069E673E08FE090E00E94980649
:1038000041E062E673E080E190E00E94980641E0CA
:1038100066EB71E087E190E00E94980641E06EE877
:1038200073E088E190E00E94980642E067EB71E067
:1038300081E190E00E94980642E064EB71E083E150
:1038400090E00E94980642E06BE573E085E190E02D
:103850000E94980641E063EB71E08DE190E00E94E8
:10386000980642E062E873E08AE290E00E949806DF
:1038700042E064E873E08CE290E00E94980642E047
:103880006AE873E08EE290E00E94980642E06CE8FD
:1038900073E080E390E00E94980642E06CE773E0FA
:1038A00082E390E00E94980642E06EE773E084E3D2
:1038B00090E00E94980642E066E773E086E390E0BD
:1038C0000E94980642E068E773E088E390E00E9477
:1038D000980660915D0370915E0380915F03909103
:1038E00060030E94943120E030E044EB53E40E94F6
:1038F000EA306B017C018091B9019091BA01BC0161
:10390000990F880B990B0E9494319B01AC01C70160
:10391000B6010E9449320E945C3160935303709358
:1039200054038093550390935603DC01CB01B59566
:10393000A795979587958093970390939803A09365
:103940009903B0939A0360E082E10E941E1960E03F
:1039500083E10E941E1960E084E10E941E1960E06C
:1039600085E10E941E1962E085E00E941E1962E056
:103970008EE00E941E1962E08FE00E941E1962E034
:1039800083E00E941E1962E084E00E941E1962E03A
:1039900087E00E941E1962E088E00E941E1962E022
:1039A00086E00E941E1962E081E00E941E1980914B
:1039B0006900806C80936900EB9A88E191E09093B4
:1039C000AC018093AB018AEB94E0909397058093D0
:1039D000960585E19AE09093990580939805229A3F
:1039E0001091B301812F0E94C1065C019093AE013A
:1039F0008093AD019093B5018093B4016091B701BC
:103A00007091B80180E090E00E9492316B017C01DE
:103A1000B50180E090E00E9492319B01AC01C701AA
:103A2000B6010E94EA306093AF017093B0018093B9
:103A3000B1019093B201012F017010FD05C020E08B
:103A400030E04AEF54E404C020E030E04AE754E4B8
:103A5000609108017091090180910A0190910B0118
:103A60000E944932609308017093090180930A0112
:103A700090930B01011105C020E030E04AEF54E4BF
:103A800004C020E030E04AE754E460910401709102
:103A9000050180910601909107010E9449326093CF
:103AA00004017093050180930601909307010111B1
:103AB00005C020E030E04AEF54E404C020E030E0EC
:103AC0004AE754E460910001709101018091020184
:103AD000909103010E9449326093000170930101AB
:103AE0008093020190930301109280001092810054
:103AF00010926F0016BA8091AD019091AE01909333
:103B0000870080938600109289001092880010929E
:103B10008B0010928A008091B3018274823421F468
:103B200080918100826003C08091810081608093D8
:103B300081008091B30180FF09C080918000826084
:103B40008093800080918100806108C08091800016
:103B500082608093800080918100886180938100E1
:103B600080E090E00E944D108091800080688093FA
:103B70008000259A80E090E00E94401080918000B3
:103B8000806280938000269A1092700310927103D5
:103B9000109272031092730380E793E00E945A1010
:103BA00010926F0310926E038FEF97E090935A0379
:103BB000809359038091B601809358031092810439
:103BC0001092800410928304109282041092CC040C
:103BD00011E01093CB041092C60461E082E00E94D1
:103BE000BF1861E083E00E94BF188091B9008E7F0A
:103BF0008093B9008091B9008D7F8093B90088E4EB
:103C00008093B80085E48093BC008FEF8093E80434
:103C10001092E9048091E704109385048093840452
:103C2000109283041092820461E08091EC049091E0
:103C3000ED040E94E40F0E94E716837E0E9436176F
:103C40000E94E7168C7F0E9436176091970370914F
:103C500098038091990390919A030E94CC160E9438
:103C60005A1960939B0370939C0380939D039093D8
:103C70009E030E945A19609300057093010580937A
:103C800002059093030500919F031091A0032091DA
:103C9000A1033091A2036B017C01C01AD10AE20A90
:103CA000F30AC092FC04D092FD04E092FE04F0926C
:103CB000FF0400919B0310919C0320919D03309180
:103CC0009E036B017C01C01AD10AE20AF30A40ED9F
:103CD000C41647E0D406E104F10410F40C94312F2B
:103CE00060939B0370939C0380939D0390939E032A
:103CF000809157038823A1F06091970370919803F6
:103D00008091990390919A030E94CC16609393033B
:103D100070939403809395039093960310925703A6
:103D20000E9482178090970390909803A090990327
:103D3000B0909A03DC01CB0188199909AA09BB0943
:103D40008093930390939403A0939503B093960369
:103D500080938F0390939003A0939103B093920369
:103D600010918E0315FB882780F916FD826017FFDE
:103D700002C084601DC08130D9F475016401C09413
:103D8000D094E094F094A50194012C193D094E09BA
:103D90005F096091860370918703809188039091F9
:103DA00089030E9446332FEF3FEF40E050E032C0DE
:103DB000823059F475016401C094D094E094F09479
:103DC000A0918003B091810319C0833059F475012B
:103DD0006401C094D094E094F094A0917A03B091DF
:103DE0007B030CC0843021F575016401C094D0942C
:103DF000E094F094A0917403B0917503A50194012F
:103E00002C193D094E095F090E943F302FEF3FE01A
:103E100040E050E00E941530C20ED31EE41EF51E95
:103E2000C0928F03D0929003E0929103F09292039C
:103E300080908F0390909003A0909103B090920394
:103E40008091090590910A05A0910B05B0910C0590
:103E50008092090590920A05A0920B05B0920C057C
:103E600020911105222309F449C000913A0554E03C
:103E7000059F90011124B901675F7A4F7B01A5016D
:103E80009401281B390B4A0B5B0BCA01B9010E9434
:103E90009431D70119966D937D938D939C931C97C4
:103EA000F02E3AE0E32E60E070E0CB01B4E0FB9E40
:103EB000F0011124E75FFA4F21853285438554854F
:103EC0000E947930FF2011F0FA9402C029E0F22E0E
:103ED000EA94E110EBCF20E030E040E251E40E94B0
:103EE000EA300F5F0A3018F400933A0502C01092CE
:103EF0003A0568A779A78AA79BA70FC081E080939E
:103F0000110510920D0510920E0510920F051092DA
:103F1000100518A619A61AA61BA620913B053091DC
:103F20003C0540913D0550913E0588A599A5AAA55F
:103F3000BBA580933B0590933C05A0933D05B093B2
:103F40003E0580914305882309F444C000919405FF
:103F5000E4E00E9FC0011124BC016E5E7A4F7B012C
:103F600068A579A5CD010E947830D701D2966D93CE
:103F70007D938D939C93D597F02EB4E1EB2E60E06A
:103F800070E0CB01B4E0FB9EF0011124EE5EFA4F2D
:103F900022A933A944A955A90E947930FF2011F024
:103FA000FA9402C0A3E1FA2EEA94E110EBCF20E0EC
:103FB00030E040EA51E40E94EA300F5F043118F427
:103FC0000093940502C01092940568AB79AB8AAB5C
:103FD0009BAB0FC081E08093430510923F05109288
:103FE0004005109241051092420518AA19AA1AAA72
:103FF0001BAA80919505882359F110FF23C70E94C1
:10400000C8129B01AC0160E070E080E094E40E9483
:10401000EA306B017C016091690370E080E090E020
:104020000E9494319B01AC01C701B6010E94493244
:1040300020E030E048EC52E40E94EA300E945C311B
:10404000AB01C501B4010E9401142B013C01FDC666
:10405000EFEBF1E0FFA3EEA31F8A1E8A412C512C47
:1040600032010E891F890F5F1F4F1F8B0E8B4EE190
:104070009801429F8001439F100D112405511E4F4E
:10408000D8018C918370833009F0CFC60E94C8128A
:104090006B017C01F80121853285A789B08D0E94D2
:1040A00070332FEF3FE740E050E00E941530CA0127
:1040B000B9010E949431A70196010E94EA300E9442
:1040C0005C319B01AC01D8011B968D919C911C9792
:1040D000059730F4E4E0F0E01C96FC93EE931B9718
:1040E000FEE1EF2ECE88DF88EC9CF001ED9CF00D18
:1040F0001124E551FE4FE1818E2F90E0FC013197B4
:10410000ED30F10508F07BC6EA5AFF4F0C946A3394
:104110000E94C8126A8B7B8B8C8B9D8B2EE10E8943
:104120001F89209FC001219F900D1124AC01455192
:104130005E4F1A01DA0119968D909C901A97559648
:10414000AD90BC9056971F96CD90DC9050975196AD
:10415000ED90FC90529753960D911C9154971496A4
:104160002C91149713964C91139757968D919C917F
:104170005897EEA1FFA1608171810E94D91294012C
:10418000DC010E9470332FEF3FE740E050E00E94D7
:104190001530CA01B9010E9494312A893B894C89A2
:1041A0005D890E94EA300E945C310E94D6139B0117
:1041B000AC01A0916803B0E00E94343024E630E006
:1041C00040E050E00E941530421A530A640A750A12
:1041D00072C10E94C8126A8B7B8B8C8B9D8B5EE1B7
:1041E000E52ECE88DF88EC9CF001ED9CF00D1124CB
:1041F000E551FE4F018512851B8F0A8FC588D68831
:10420000DF8ECE8EE784F088FBA2EAA201891289B4
:104210001DA70CA70389148918AF0FAB8480938066
:10422000AEA1BFA12D903C90078510896085A78025
:104230000A2C000CBB08062E000C770B6A197B09B0
:10424000CB01770FAA0BBB0B6627782F892F9A2FEC
:104250000E9494316B017C01B80180E090E00E94E3
:10426000923120E030E04AE754E40E94EA309B01BA
:10427000AC01C701B6010E94EA306B017C01C101AB
:10428000B8010E945633BC0180E090E00E94923158
:1042900020E030E04AE754E40E94EA309B01AC01A0
:1042A000C701B6010E9449320E945C31BA2CAA248F
:1042B000C501860F971FAE8CBF8CCAA0DBA0ECA4F3
:1042C000FDA40FA918AD282D492DB1010E94D912C6
:1042D0002A8D3B8DDC010E9470332FEF3FE740E0D9
:1042E00050E00E941530CA01B9010E9494312A8918
:1042F0003B894C895D890E94EA300E945C310E94B2
:10430000D613461A570A680A790A79C50E94C81254
:104310006A8F7B8F8C8F9D8F4EE1C42EEE89FF8933
:10432000CE9EC001CF9E900D11248C0105511E4FD1
:104330001801D80119960D90BC91A02DBF8FAE8F9A
:10434000F801038CF48DE02DFBA3EAA3D8015D9660
:10435000BC91BCA7F80183849484A588B688C784DF
:10436000D088E188F2880389148924814381AEA131
:10437000BFA10D90BC91A02DBB8BAA8B8789908D7E
:10438000BD010E94D9128C01B40180E090E00E942E
:10439000923120E030E04AE754E40E94EA309B0189
:1043A000AC0160E070E080E89FE30E94EA306B01BE
:1043B0007C018A899B89B4010E945633BC0180E04C
:1043C00090E00E94923120E030E04AE754E40E94FD
:1043D000EA309B01AC01C701B6010E9449326B0172
:1043E0007C01BCA56B2F70E080E090E00E949231D0
:1043F00020E030E040E85BE30E9449329B01AC01E1
:10440000C701B6010E9479302BED3FE049EC50E442
:104410000E9449320E94B6329B01AC01EAA1FBA185
:104420006F01FF0FEE08FF08B801110F880B990B01
:104430002DAF21963FAF21974EAF5FAF0E949431D1
:104440002DAD21963FAD21974EAD5FAD0E94493213
:104450000E945C31CB01770FAA0BBB0BA701960121
:10446000280F391F4A1F5B1FAE8DBF8D0E9434304D
:104470002FEF3FE740E050E00E941530CA01B9013C
:104480000E9494312A8D3B8D4C8D5D8D0E94EA30C7
:104490000E945C319B01AC01A0916703B0E00E94D7
:1044A000343024E630E040E050E00E941530420E07
:1044B000531E641E751ED10116968C91169782FFAD
:1044C0009EC41D966D917C911E9780E090E00E94A5
:1044D00092312BED3FE049EC50E40E94493220E05C
:1044E00030E040E058E30E9449320E94B6329B011E
:1044F000AC01C301B2012DAF21963FAF21974EAF62
:104500005FAF0E9494312DAD21963FAD21974EAD06
:104510005FAD0E9449320E945C312B013C016FC4A7
:104520000E94C8126A8F7B8F8C8F9D8F3EE1E32E95
:10453000CE88DF88EC9CF001ED9CF00D1124E55154
:10454000FE4F018512851F8F0E8F238D348DA9019B
:10455000330F660B770B4AA35BA36CA37DA3558D2A
:104560005CA723843484A588B688C784D088E18872
:10457000F2880389148924814381AEA1BFA10D90E3
:10458000BC91A02DBB8BAA8B8789908DBD010E9409
:10459000D912BC01990F880B990B0E9494314B01E1
:1045A0005C01B10180E090E00E94923120E030E0B7
:1045B0004AE754E40E94EA309B01AC0160E070E0FD
:1045C00080E89FE30E94EA306B017C018A899B8925
:1045D000B1010E945633BC0180E090E00E9492310C
:1045E00020E030E04AE754E40E94EA309B01AC014D
:1045F000C701B6010E9449326B017C01BCA56B2F3B
:1046000070E080E090E00E94923120E030E040E8ED
:104610005BE30E9449329B01AC01C701B6010E94D5
:1046200079302BED3FE049EC50E40E9449320E9482
:10463000B6326B017C0120E030E0A9010E944432D7
:1046400087FF0CC020E030E0A901C701B6010E943D
:10465000E53087FF05C0EFEFEEAB02C0F1E0FEAB47
:10466000CEA86C2DCC0C770B880B990B0E94943143
:104670009B01AC01C501B4010E9449320E945C312A
:10468000CB01770FAA0BBB0BE0C10E94C8126E8F43
:104690007F8F88A399A30EE1EE88FF880E9DF0011D
:1046A0000F9DF00D1124E551FE4F218532853BA36E
:1046B0002AA3238D348DA901330F660B770B4CA7EA
:1046C0005DA76EA77FA7358D638574857B8B6A8B0D
:1046D000A588B688C784D088E188F28803891489C0
:1046E00024814381AEA1BFA10D90BC91A02DBB8FB1
:1046F000AA8F8789908DBD0121963FAF21970E9497
:10470000D9121C01EA89FB89BF0180E090E00E9478
:1047100092314B015C0121963FAD219760E4630F1C
:1047200070E080E090E00E94923120E030E040E8CC
:104730005BE30E944932A50194010E9449320E9424
:1047400063318A8D9B8D860F971F6A897B890E94B2
:1047500056338C01BC0180E090E00E94923120E051
:1047600030E04AE754E40E94EA306B017C0120E02B
:1047700030E0A9010E94443287FD3CC020E030E0D7
:104780004AE754E4C501B4010E94EA306A8F7B8F86
:104790008C8F9D8F20E030E040E05FE30E94493243
:1047A0009B01AC01C701B6010E94E53087FF22C022
:1047B000B101032C000C880B990B0E94943120E06E
:1047C00030E040E850E40E9449322A8D3B8D4C8D08
:1047D0005D8D0E94EA30A70196010E9449320E9435
:1047E0005C313194219431086101C60ED71EDDAAD7
:1047F000CCAA51C020E030E04AE754E4C501B4013E
:104800000E94EA304B015C0120E030E040E05FE3D1
:104810000E9449329B01AC01C701B6010E9444329B
:1048200087FD39C0A5019401C701B6010E94E5309A
:1048300087FF31C0B101032C000C880B990B0E943B
:10484000943120E030E040E850EC0E944932A5016C
:1048500094010E94EA306B017C018A899B899695BC
:104860008795B801681B790B80E090E00E94923137
:1048700020E030E04AE754E40E94EA309B01AC01BA
:10488000C701B6010E9449320E945C317101E60EF7
:10489000F71EFDAAECAA0CA91DA9C801110FAA0BAD
:1048A000BB0B2CA53DA54EA55FA5280F391F4A1FA0
:1048B0005B1FAAA1BBA10E9434302FEF3FE740E06D
:1048C00050E00E941530CA01B9010E9494312E8D2A
:1048D0003F8D48A159A10E94EA300E945C319B01A2
:1048E000AC01A0916703B0E00E94343024E630E0D0
:1048F00040E050E00E941530420E531E641E751EAB
:104900007EC20E94C8126A8F7B8F8C8F9D8F4EE172
:104910002E893F89429FF001439FF00D1124E551FC
:10492000FE4F618572857F8F6E8F238D348DC90117
:10493000330FAA0BBB0B8AA39BA3ACA3BDA3358DDE
:1049400023843484A588B688C784D088E188F28817
:104950000389148924814381AEA1BFA10D90BC912C
:10496000A02DBB8BAA8B8789908DBD0121963FAF6F
:1049700021970E94D9128C01B10180E090E00E9441
:1049800092314B015C0121963FAD219760E8630FA6
:1049900070E080E090E00E94923120E030E040E85A
:1049A0005BE30E944932A50194010E9449320E94B2
:1049B00063318A899B89860F971FB1010E94563304
:1049C0009B8B8A8B82159305D0F5B801012E000CC4
:1049D000880B990B0E9494319B01AC010E947930A5
:1049E0006B017C0120E030E04AE754E4C501B401EA
:1049F0000E94EA309B01AC01C701B6010E94EA3077
:104A00004B015C01CA88DB88B60180E090E00E941F
:104A1000923120E030E04AE754E40E94EA309B0102
:104A2000AC01C501B4010E9449320E945C3111956C
:104A3000019511097801E60EF71EFCAEEBAE0BAD49
:104A40001CADC801110FAA0BBB0B2AA13BA14CA1A5
:104A50005DA1280F391F4A1F5B1FAE8DBF8D0E94BD
:104A600034302FEF3FE740E050E00E941530CA019C
:104A7000B9010E9494312A8D3B8D4C8D5D8D2BCFD9
:104A80000E94C8126A8F7B8F8C8F9D8F4EE12E897A
:104A90003F89429FF001439FF00D1124E551FE4FE5
:104AA000618572857F8F6E8F238D348DC901330FA1
:104AB000AA0BBB0B8AA39BA3ACA3BDA3358D2384F8
:104AC0003484A588B688C784D088E188F2880389B1
:104AD000148924814381AEA1BFA10D90BC91A02D6A
:104AE000BB8BAA8B8789908DBD0121963FAF219703
:104AF0000E94D9128C01B10180E090E00E949231B5
:104B00004B015C0121963FAD219760E8630F70E097
:104B100080E090E00E94923120E030E040E85BE3EA
:104B20000E944932A50194010E9449320E946331DA
:104B30008A899B89860F971FB1010E9456339B8BF0
:104B40008A8B82159305D0F566277727601B710B3A
:104B5000072E000C880B990B0E9494319B01AC012D
:104B60000E9479306B017C0120E030E04AE754E498
:104B7000C501B4010E94EA309B01AC01C701B60136
:104B80000E94EA304B015C01CA88DB88B60180E0F4
:104B900090E00E94923120E030E04AE754E40E9425
:104BA000EA309B01AC01C501B4010E9449320E9468
:104BB0005C317801E60EF71EFAAEE9AE09AD1AAD2A
:104BC00040CF8EE16E897F89869FF001879FF00D2F
:104BD0001124E551FE4F038D148DA0916603B0E0C2
:104BE0000E94343020E436E040E050E00E9415306E
:104BF00069017A01209197033091980340919903BC
:104C000050919A03D8010E943F30DC01CB011FE094
:104C1000B595A795979587951A95D1F7092E000C0C
:104C2000AA0BBB0B40918F035091900360919103AD
:104C3000709192038A019B01081B190B2A0B3B0BF5
:104C4000C901B801A6010E940114460E571E681E34
:104C5000791ED5C08EE16E897F89869FF001879F7E
:104C6000F00D1124E551FE4F038D148DA0916503C5
:104C7000B0E00E94343024E630E040E050E00E9492
:104C8000153069017A01B801110F880B990B0E9448
:104C900094312AE939EC4CEC54E40E94EA309B014F
:104CA000AC0168A579A58AA59BA50E947830A601CC
:104CB0000E942E1562C0FEE1CF2EAE89BF89CA9E2A
:104CC000F001CB9EF00D1124E551FE4F038D148DA4
:104CD000A0916403B0E00E94343024E630E040E06C
:104CE00050E00E94153069017A01B801110F880B5C
:104CF000990B0E94943120E03EEF4FEF56E40E9462
:104D0000EA309B01AC0168A979A98AA99BA90E94F4
:104D10007830A6010E94C61430C00EE1EE88FF88EC
:104D20000E9DF0010F9DF00D1124E551FE4F038DF6
:104D3000148DA0916303B0E00E94343024E630E08B
:104D400040E050E00E94153069017A01B801110F6E
:104D5000880B990B0E9494312AE939EC4CEC54E40D
:104D60000E94EA309B01AC0168A579A58AA59BA5A4
:104D70000E947830A6010E944514092E000CAA0B4F
:104D8000BB0B480E591E6A1E7B1E39C00E94C812FA
:104D90009B01AC018EE16E897F89869FF001879F20
:104DA000F00D1124E551FE4F838D948DBC01990FB8
:104DB000880B990B2DAF21963FAF21974EAF5FAF78
:104DC0000E9494312DAD21963FAD21974EAD5FAD40
:104DD0000E94EA300E945C310E94D6139B01AC0114
:104DE000A0916703B0E00E94343024E630E040E058
:104DF00050E00E941530421A530A640A750A0E9454
:104E0000A5190091BB011091BC012091BD01309109
:104E1000BE01DC01CB01801B910BA20BB30BEEA1F9
:104E2000FFA180839183A283B3830EA11FA10C5F96
:104E30001F4F1FA30EA32E893F892B30310509F088
:104E400010C903C0412C512C320110918E0311FF67
:104E500031C00E94C8129B01AC01E091650367E478
:104E600071E0E69FC001E79F900D1124BC0180E036
:104E700090E02DAF21963FAF21974EAF5FAF0E94DC
:104E800094312DAD21963FAD21974EAD5FAD0E947F
:104E9000EA300E945C31AB0168A579A58AA59BA583
:104EA0000E942E15092E000CAA0BBB0B480E591E92
:104EB0006A1E7B1E12FF31C00E94C8129B01AC010A
:104EC000E091640367E471E0E69FC001E79F900D05
:104ED0001124BC0180E090E02DAF21963FAF2197D7
:104EE0004EAF5FAF0E9494312DAD21963FAD21971B
:104EF0004EAD5FAD0E94EA300E945C31AB0168A903
:104F000079A98AA99BA90E94C614092E000CAA0B94
:104F1000BB0B480E591E6A1E7B1E13FF31C00E9438
:104F2000C8129B01AC01E091630367E471E0E69F66
:104F3000C001E79F900D1124BC0180E090E02DAFEF
:104F400021963FAF21974EAF5FAF0E9494312DADB8
:104F500021963FAD21974EAD5FAD0E94EA300E9491
:104F60005C31AB0168A579A58AA59BA50E94451473
:104F7000092E000CAA0BBB0B480E591E6A1E7B1E85
:104F800040919703509198036091990370919A030F
:104F900080918F0390919003A0919103B09192031F
:104FA000CC24DD247601C41AD50AE60AF70A8C154A
:104FB0009D05AE05BF0534F0481759076A077B0702
:104FC0000CF045C0B7FD05C0841B950BA60BB70BB5
:104FD00004C0840F951FA61FB71F80938F03909363
:104FE0009003A0939103B09392030E94C8129B0177
:104FF000AC0160E07EEF8FEF96E40E94EA306B0137
:105000007C016091620370E080E090E00E94943146
:105010009B01AC01C701B6010E94493220E030E09B
:1050200048EC52E40E94EA300E945C316B017C0142
:1050300060918F03709190038091910390919203FE
:10504000A6010E940114460E571E681E791EA091EB
:105050006103B0E0A30192010E94343024E630E005
:1050600040E050E00E941530CA01B9010E94D613F9
:105070006B017C0114FF04C00E94A2160E94471617
:10508000C0927003D0927103E0927203F0927303A6
:10509000609193037091940380919503909196038E
:1050A0000E9494316B017C01609153037091540311
:1050B00080915503909156030E9494319B01AC015D
:1050C00060E07FEF8FE797E40E94EA309B01AC013C
:1050D000C701B6010E9449320E945C314B015C015C
:1050E000611570488105910534F088248A94EFE7B2
:1050F0009E2EA12CB12C811440E894064FEFA406FB
:10510000B40634F4812C70E8972EAA24AA94BA2C01
:105110008092930390929403A0929503B092960389
:1051200080E793E00E945A1000916E0310916F0384
:105130004090820350908303400E511E612C712CCD
:10514000C0907C03D0907D03C00ED11EE12CF12CC9
:1051500020917A0330917B03C901330FAA0BBB0B5B
:105160009C01AD012C193D094E095F09AFEFBFE06D
:105170000E94343020917E0330917F03201B310B3D
:1051800040E050E02C193D094E095F090E9415309E
:105190002E8B3F8B488F598FC0907603D09077032A
:1051A000C00ED11EE12CF12C2091740330917503B7
:1051B000C901330FAA0BBB0B9C01AD012C193D0992
:1051C0004E095F09AFEFBFE00E94343020917803B1
:1051D00030917903201B310B40E050E02C193D0940
:1051E0004E095F090E94153069017A012091800300
:1051F00030918103C901330FAA0BBB0B9C01AD0198
:105200002419350946095709AFEFBFE00E94343031
:105210002091840330918503201B310B40E050E046
:1052200024193509460957090E94153029014114EE
:1052300050E1550624F044244A946FE0562E57FE60
:1052400002C0412C512C50928103409280036E8801
:105250007F88611460E1760624F066246A945FE03A
:10526000752E77FE02C0612C712C70927B036092C8
:105270007A03C11470E1D70624F0CC24CA944FE01D
:10528000D42ED7FE02C0C12CD12CD0927503C0926F
:10529000740380918A0390918B03800F911F9C016E
:1052A00040E050E02E8B3F8B488F598F2091860332
:1052B0003091870340918803509189036E897F89DB
:1052C000888D998D261B370B480B590BAFEFBFEF1D
:1052D0000E94343020918C0330918D03201B310BC0
:1052E00040E050E0EE88FF88088D198D2E193F09A7
:1052F000400B510B0E9415302115310501E040078C
:10530000510524F02FEF3FEF40E050E057FF03C07E
:1053100020E030E0A9012093860330938703409377
:1053200088035093890386B182958695869583700C
:1053300091E0892790E0A0E0B0E081709927AA274A
:10534000BB271B9B8260199B84604C9B8061669B82
:1053500080621C9B80644F9902C0886001C0877F77
:10536000682F6F70613081F0623081F0643081F0BD
:10537000683081F0633081F0663081F0693081F00F
:105380006C3081F060E00FC061E00DC063E00BC0E5
:1053900065E009C067E007C062E005C064E003C0E3
:1053A00068E001C066E08077862B80936A03909363
:1053B0006B03A0936C03B0936D0310E8911A89827C
:1053C0009A822B833C834D82262D2295207F25298E
:1053D0002E8324E0769467942A95E1F76F82C8863D
:1053E000282F2295207F2D29298734E0B695A7956F
:1053F000979587953A95D1F78A871B861C864CE04E
:1054000050E0BE016F5F7F4F84E00E94F4098091FD
:10541000FC049091FD04A091FE04B091FF04803142
:105420009742A105B10508F41CC58DEC94E00E94DB
:10543000A70C181619060CF004C58DEC94E00E9418
:105440006D0CE82F8FE98E0F8A3108F4E0528E2F11
:1054500090E0FC01E154F109EA31F10508F0F1C4F2
:10546000ED59FF4F0C946A338091B9019091BA01C4
:105470000E94FD1780E20E943C16809161030E9409
:10548000031880E20E943C16809165030E94031875
:1054900080E20E943C16809163030E94031880E220
:1054A0000E943C16809168030E94031880E20E94CB
:1054B0003C16809167030E94031880E20E943C160C
:1054C000809166030E94031880E20E943C1680913E
:1054D00064030E94031880E20E943C1680916903D5
:1054E0000E94031880E20E943C16809162030E9491
:1054F000031880E20E943C166091B7017091B801D8
:1055000080E090E04AE00E94551680E20E943C163E
:105510008091B6010E94031880E20E943C1680919F
:105520008E030E94031880E20E943C166091B40131
:105530007091B50180E090E04AE00E94551680E24B
:105540000E943C1660915D0370915E0380915F0341
:10555000909160030E94A21680E20E943C16609126
:10556000B30170E019C283E991E00E940A188AEF42
:1055700090E00E94FD1788E991E00E940A188AE9EC
:1055800091E00E940A188CE991E00E940A188EE9C5
:1055900091E00E940A1880EA91E00E940A1882EACB
:1055A00091E00E940A1884EA91E00E940A1849C416
:1055B00080910805082E000C990B41C40E948217A7
:1055C0004B015C018091B4019091B5012091B7012C
:1055D0003091B801821B930B969587959695879588
:1055E000A0E0B0E089839A83AB83BC83CE010196AF
:1055F0000E945A10240135011EEF0E9482176B0190
:105600007C014616570668067906CCF019821A8284
:105610001B821C82CE0101960E945A106091530396
:105620007091540380915503909156030E94CC16BB
:105630008C149D04AE04BF0469F482E00CC06CE2DB
:1056400071E080E090E00E947F191150260137013F
:10565000A1F6DCCF81E080930805EFC30E944618D5
:10566000611101C061E06093B601E7C30E94821737
:1056700000919703109198032091990330919A0318
:105680002B013C01401A510A620A730A0E94461813
:1056900064307105810591057CF06B017C01613CF2
:1056A0007742894091056CF010ECC12E17E2D12EA3
:1056B00019E0E12EF12C05C0B4E0CB2ED12CE12C69
:1056C000F12CC982DA82EB82FC826091B90170917F
:1056D000BA01072E000C880B990B0E9494314B01E4
:1056E0005C01C301B2010E949431A50194010E94A2
:1056F00049322B013C016091530370915403809116
:105700005503909156030E9494319B01AC01C30153
:10571000B2010E94EA302B013C01C0925D03D0929D
:105720005E03E0925F03F0926003C701B60177C0A9
:1057300060919703709198038091990390919A03D7
:105740000E94CC162DC10E948217009197031091E0
:1057500098032091990330919A034B015C01801AC0
:10576000910AA20AB30A0E9446186E31710581059A
:10577000910574F06B017C016930774081059105DA
:1057800064F0A8E0CA2EA7E0DA2EE12CF12C05C0C7
:10579000FEE1CF2ED12CE12CF12CC982DA82EB82F2
:1057A000FC82C501B4010E9494314B015C016091FF
:1057B000B9017091BA01072E000C880B990B0E9459
:1057C00094319B01AC01C501B4010E9449324B01E7
:1057D0005C01609153037091540380915503909143
:1057E00056030E9494319B01AC01C501B4010E9493
:1057F000EA302B013C01D092BA01C092B901B60146
:10580000DD0C880B990B0E9494314B015C01609177
:105810005D0370915E0380915F03909160030E942D
:10582000943120E030E044EB53E40E94EA30A501DB
:1058300094010E9449320E945C316093530370933B
:10584000540380935503909356036B017C01F594A8
:10585000E794D794C794C0929703D0929803E092AC
:105860009903F0929A030E9494319B01AC01C30109
:10587000B2010E944932A50194010E94EA300E94BF
:105880005C316C0D7D1D8E1D9F1D0E94CC16D5C2F6
:105890000E944618262F60918E0380E090E030E051
:1058A000F901082E02C0F595E7950A94E2F7C12C9C
:1058B000D12C7601C394082E04C0CC0CDD1CEE1C48
:1058C000FF1C0A94D2F7E0FF02C06C2902C0C0940A
:1058D0006C2101968830910519F760938E0370E072
:1058E00080E090E042E00E9455160E944716A9C24F
:1058F0000E9446188091B30120E030E070E0AB01D7
:10590000022E02C0559547950A94E2F7C12CD12C7E
:105910007601C394022E04C0CC0CDD1CEE1CFF1CCF
:105920000A94D2F740FF02C08C2902C0C0948C2197
:105930002F5F3F4F2830310511F78093B30141E0CD
:1059400063EB71E08DE190E00E9469068091B30104
:105950000E94C106BC0180E090E00E94923120913B
:10596000AF013091B0014091B1015091B2010E945C
:1059700049320E945C3169837A838B839C8344E043
:10598000BE016F5F7F4F81E190E00E9469068091C8
:10599000B3010E94C106BC0180E090E04AE0A3CFC1
:1059A00080E090E04CC28DEC94E00E946D0CE82FFA
:1059B0008FE98E0F8A3108F4E0528E2F90E0FC01BF
:1059C000E154F109E231F10508F03BC2E358FF4F21
:1059D0000C946A330E944618611550E175078105E1
:1059E000910524F06FEF7FE080E090E097FF03C027
:1059F00060E070E0CB0169837A838B839C83709332
:105A00008B0360938A0319C20E9446186115A0E1B6
:105A10007A078105910524F06FEF7FE080E090E048
:105A200097FF03C060E070E0CB0169837A838B83CA
:105A30009C8370938D0360938C03FFC10E94461872
:105A40006115B0E17B078105910524F06FEF7FE0E0
:105A500080E090E097FF03C060E070E0CB016983D5
:105A60007A838B839C837093830360938203E5C165
:105A70000E9446186115E0E17E078105910524F03A
:105A80006FEF7FE080E090E097FF03C060E070E0A0
:105A9000CB0169837A838B839C83709385036093A6
:105AA0008403CBC10E9446186115F0E17F07810590
:105AB000910524F06FEF7FE080E090E097FF03C056
:105AC00060E070E0CB0169837A838B839C83709361
:105AD0007D0360937C03B1C10E944618611500E10B
