:100000000C9412040C943A040C943A040C94CD060B
:100010000C94A9060C943A040C943A040C943A04F7
:100020000C943A040C943A040C94A6090C944907D5
:100030000C943A040C943A040C943A040C943A0448
:100040000C943A040C943A040C943A040C943A0438
:100050000C943A040C943A040C943A040C947C17D3
:100060000C943A040C943A040C943A040C943A0418
:100070000C943A040C943A040C943A040C943A0408
:100080000C943A040C943A040C943A040C943A04F8
:100090000C94CD0E0C943A040C943A040C943A044B
:1000A0000C943A040C943A040C943A04701ED11E39
:1000B00078206E1F2D2128236922C923122443246E
:1000C0007524E724AE243D2C2829A429592D822A01
:1000D000E62CB729082B592D592D592D592D592D5D
:1000E000592D3029082B592DC528BF28592D1F28D7
:1000F0009E28B22A592D0B2B082B222B3C2B562B3A
:10010000702B8A2BA42BBE2BD82B592D592D592D52
:10011000592D592D592D592D592D592DF22B202D51
:10012000252D022D072D592D0C2DFD2C592D1B2D64
:100130002A2D592D592D162D592D592D592D592D01
:10014000592D112D1E162116141618164216421678
:100150004216251629162D163316371642163D1649
:1001600005A84CCDB2D44EB93836A9020C50B9917D
:100170008688083CA6AAAA2ABE000000803F00008C
:100180000000000000002A2B2800000000000000F2
:1001900000000000000000000000000000002C9E95
:1001A000B4A0A1A2A434A6A7A5AE362D3738271E29
:1001B0001F20212223242526B333B62EB7B89F84CF
:1001C00085868788898A8B8C8D8E8F909192939467
:1001D00095969798999A9B9C9D2F3130A3AD3504A5
:1001E00005060708090A0B0C0D0E0F101112131447
:1001F00015161718191A1B1C1DAFB1B0B500080B46
:1002000000020202010009040000010202000005D0
:10021000240010010524010101042402060524061E
:1002200000010705810310004009040100020A00D3
:10023000000007050202400000070583024000009D
:10024000090402000203000000092101010001224B
:10025000E104070584034000010705050340000190
:1002600005010904A10185040901A1000930170055
:1002700000000027FFFF0000350047FFFF0000756A
:100280001095018102093116000027FFFF0000359B
:100290000047FFFF0000751095018102093216002A
:1002A0000027FF0F0000350047FF0F0000750C9579
:1002B000018102093316000027FF0F0000350047B7
:1002C000FF0F0000750C950181020934160000270C
:1002D000FF0F0000350047FF0F0000750C950181EE
:1002E000020939150125083500463B016514550002
:1002F0007504950181020509150025015500650069
:100300001901291875019518810285F10901150057
:1003100026FF00953F7508918285F20901953F758A
:10032000088182C0050F0992A1028502099F09A0D8
:1003300009A409A509A61500250135004501750187
:100340009505810295038103099415002501350067
:100350004501750195018102092215012528350104
:100360004528750795018102C00921A1028501096F
:1003700022150125283501452875089501910209A6
:1003800025A1020926092709300931093209330953
:10039000340940094109420943250B15013501453E
:1003A0000B750895019100C009500954150027FFED
:1003B000FF0000350047FFFF000066011055FD7586
:1003C000109502910255006600000952150026FFA3
:1003D0007F350046FF7F7510950191020953150185
:1003E0002508350145087508950191020955A102B6
:1003F00005010930093115002501750195029102A9
:10040000C0050F095695019102950591030957A161
:10041000020B01000A000B02000A0066140055FEE0
:10042000150026FF7F3500479F8C00007510950151
:1004300091025500660000C0050F09A7660110551E
:10044000FD150027FFFF0000350047FFFF00007586
:1004500010950191026600005500C0050F095AA1D0
:1004600002850209221501252835014528750895C0
:10047000019102095B095D150026FF00350046FF6A
:100480007F750895029102095C095E66011055FDB1
:1004900026FF7F46FF7F751095029102660000558A
:1004A00000C0095FA1028503092215012528350135
:1004B000452875089501910209231500250135008D
:1004C00045017504950191020958A1020B01000A2A
:1004D000000B02000A00750295029102C009601625
:1004E000008026FF7F36008046FF7F7510950191C2
:1004F00002096136008046FF7F95019102150026B2
:10050000FF7F350046FF7F09637510950191020951
:1005100065150026FF0046FF7F750895019102C012
:10052000096EA102850409221501252835014528F7
:100530007508950191020970150026FF7F35004668
:10054000FF7F751095019102096F16008026FF7FCD
:1005500036008046FF7F950191020971150026FF44
:100560000035004667016614005500750895019135
:1005700002097227FFFF000047FFFF00006601101D
:1005800055FD7510950191026600005500C0097374
:10059000A102850509221501252835014528750880
:1005A00095019102097016018026FF7F3601804671
:1005B000FF7F751095019102C00974A1028506099B
:1005C0002215012528350145287508950191020954
:1005D0007509761581257F36018046FF7F75089560
:1005E000029102C0050F0977A102850A09221501AF
:1005F0002528350145287508950191020978A10241
:100600000979097A097B150125037508950191007F
:10061000C0097C150026FF00350046FF009102C08E
:100620000990A102850B09221501252835014528CD
:10063000750895019102C00996A102850C099709D8
:10064000980999099A099B099C1501250675089531
:10065000019100C0097DA102850D097E150026FFCC
:10066000003500461027750895019102C009ABA11D
:100670000285050925A10209260927093009310942
:10068000320933093409400941094209431501255A
:100690000B3501450B75089501B100C00501093BFB
:1006A000150026FF01350046FF01750A9501B102CC
:1006B0007506B101C0050F0989A102850609222529
:1006C0002815013501452875089501B102098BA14E
:1006D00002098C098D098E25031501350145037525
:1006E000089501B100C009AC150027FFFF000035D7
:1006F0000047FFFF000075109501B100C0097FA100
:10070000028507098075109501150027FFFF00007D
:10071000350047FFFF0000B102098326FF0046FFB6
:100720000075089501B10209A909AA75019502157C
:1007300000250135004501B10275069501B103C0E0
:10074000C01803410072006400750069006E006FFC
:100750000020004C004C0043000403090422034124
:100760000072006400750069006E006F0020004D8B
:10077000006900630072006F00200020002000125A
:100780000100020000004041233780000101020007
:1007900001120100020200004041233780000101E4
:1007A00002000100C18081C1C000000000240027B8
:1007B000002A002D00300000000000250028002B3A
:1007C000002E0031000404040404030405020202A4
:1007D00002040302020202060606060606040402DA
:1007E00002020404040802011040804010204080EE
:1007F0004080080204018040201002011080102077
:100800004040200000000200080E00000304010028
:100810000B000000000000000000000000000000CD
:100820000000732D11241FBECFEFDAE0DEBFCDBF75
:1008300011E0A0E0B1E0E0E1F3E602C005900D9226
:10084000AE38B107D9F725E0AEE8B1E001C01D929E
:10085000A936B207E1F714E0C2E1D4E004C0219761
:10086000FE010E947431C131D107C9F70E94C61739
:100870000C9486310C9400008C30F8F4282F30E072
:100880009EE1899FF0011124EF52FE4F9081992340
:10089000A1F090819D7F9083F901E456FC4F9581F2
:1008A00091110BC0E0918F01F09190010084F185CE
:1008B000E02D09951092AC0308950895FC01CB0139
:1008C0002091E80022FFFCCF282F215028F0309102
:1008D000F10030833196F9CF24E6209390032BEF7B
:1008E0002093E80008950F931F93CF93DF93DB01CC
:1008F000A40FB51FFB016EEFEA17FB0791F187FF0D
:1009000002C0249101C020810091940310919503AD
:10091000C0919203D09193030C171D07B4F49091EA
:10092000E8009570E1F39091E80092FD1CC02093DF
:10093000F10020919403309195032F5F3F4F2F7367
:100940003327232B11F46093E80020919403309116
:1009500095032F5F3F4F3093950320939403319677
:10096000CBCFCA0102C08FEF9FEFDF91CF911F91D4
:100970000F910895CF93DF9300D000D01F92CDB791
:10098000DEB7FC0181819081913A29F5813009F02F
:10099000BCC08281863051F445E050E067E973E0E5
:1009A00080E40E94730410929703AFC0873009F06F
:1009B000ACC089838FEF9FEF9B838A838BE08C830E
:1009C00083E08D8345E050E0BE016F5F7F4F80E4A0
:1009D0000E9473049AC0913209F097C0893009F0DF
:1009E00094C08281853009F090C064E070E0CE014F
:1009F00001960E945E0486E08093970380910F0128
:100A00008B3021F1A0910F0181E08A0F80930F01BB
:100A10009EE1E0910F019E9FF0011124EF52FE4FE5
:100A20008081882351F080910F018B3030F48091C8
:100A30000F018F5F80930F01ECCF8EE1A89FF00133
:100A40001124EF52FE4F81E0808301C0A0E0A0930B
:100A50009803A11104C082E08093990350C01092C2
:100A60004B0581E0809399038A819EE1A99FD00183
:100A70001124AF52BE4F11968C9311978FEF9FEFB9
:100A800050969C938E931F9754961C921E92539748
:100A900052961C921E92519713968C93139714960C
:100AA0008C93149756961C921E9255971E961C92E4
:100AB0001E921D9716961C9216978FEF9FE71A9617
:100AC0009C938E93199758961C921E9257975C96FA
:100AD0001C921E925B975D961C925D9788EE93E048
:100AE0001C969C938E931B97E0918F01F09190013F
:100AF0000684F785E02DBD01CE01019609958FEFA3
:100B00009FEF90939B0380939A0381E00F900F9047
:100B10000F900F900F90DF91CF91089542E450E035
:100B20006EEF71E080E80E94730440E250E060E400
:100B300072E080E80E94730483E090E00895EF92F1
:100B4000FF921F93CF93DF93EC01162FE881F98179
:100B50000480F581E02D09957C01E881F98106800A
:100B6000F781E02D612FCE010995C7019927DF910B
:100B7000CF911F91FF90EF900895FC0191818081AA
:100B8000813A29F49D7F81E0913091F414C0813243
:100B900079F49A3049F09B3019F0993049F40AC041
:100BA000828180930E0106C0828180930D0102C074
:100BB00080E0089581E008958C30F0F49EE1899FF3
:100BC000F0011124EF52FE4F80818823A9F080812B
:100BD000826080838091AC0381110EC00E947017E7
:100BE0006093A1017093A2018093A3019093A4014B
:100BF00081E08093AC0308950895CF92DF92EF9245
:100C0000FF9260919F017091A001072E000C880B4C
:100C1000990B0E949E2F6B017C01609139037091AA
:100C20003A0380913B0390913C030E949E2F9B01CD
:100C3000AC01C701B6010E94F42EFF90EF90DF9047
:100C4000CF900895CF92DF92EF92FF920F931F9370
:100C50008B019C0140919A0150919B016A01E12C0A
:100C6000F12C66277727CB016C197D098E099F0926
:100C700006171707280739074CF0C901B801C01635
:100C8000D106E206F30614F4C701B6011F910F91D5
:100C9000FF90EF90DF90CF900895CF92DF92EF9288
:100CA000FF92CF93DF936B017C01EA0120E030E0FB
:100CB000A9010E944E30181694F020E030E0A901FE
:100CC000C701B6010E94EF2E87FF3AC020E030E056
:100CD000A901C701B6010E94832E6B017C01BE01F0
:100CE000DD0F880B990B0E949E2F9B01AC01C70161
:100CF000B6010E9453306B017C010E94FD059B01EF
:100D0000AC01C701B6010E94533020E030E040E85A
:100D100051E40E94533020E030E040E251E40E9470
:100D2000533020E030E040E05BE30E9453300E940B
:100D3000662F0E94220688279927861B970B02C0E0
:100D400080E090E0DF91CF91FF90EF90DF90CF9027
:100D500008951F920F920FB60F9211242F933F9375
:100D60004F935F936F937F938F939F93AF93BF93B3
:100D7000EF93FF930E94B114FF91EF91BF91AF9158
:100D80009F918F917F916F915F914F913F912F91A3
:100D90000F900FBE0F901F9018951F920F920FB6D5
:100DA0000F9211242F933F934F935F936F937F93F1
:100DB0008F939F93AF93BF93EF93FF930E94B114D0
:100DC000FF91EF91BF91AF919F918F917F916F9123
:100DD0005F914F913F912F910F900FBE0F901F90F9
:100DE0001895CF92DF92EF92FF920F931F93CF93BC
:100DF000DF931F92CDB7DEB7F82EE42E8B01C82EFD
:100E0000D92E8C2D8F198E1588F4F80161918F01E0
:100E1000C60169830E94092E6981681719F0C6010D
:100E20000E94112EFFEFCF1ADF0AEBCF0F90DF9158
:100E3000CF911F910F91FF90EF90DF90CF90089589
:100E4000CF92DF92EF92FF920F931F93CF93DF9396
:100E50001F92CDB7DEB78B016B017C01E61AF70A52
:100E60009C2D901B941758F4C7018C0D9D1D498330
:100E70000E94092EF60181936F014981F1CF0F90F5
:100E8000DF91CF911F910F91FF90EF90DF90CF9066
:100E900008951F920F920FB60F921124EF92FF92B6
:100EA0001F932F933F934F935F936F937F938F93F2
:100EB0009F93AF93BF93EF93FF93CF93DF93CDB700
:100EC000DEB76197DEBFCDBF1092E9008091E800E8
:100ED00083FF59C1FE013A96CF0128E02E0F2E174D
:100EE00029F03091F10030833196F9CF24E6209338
:100EF000900322EF2093E8002A8527FF05C0309158
:100F0000E80030FFFCCF03C03EEF3093E800322F03
:100F1000307609F0C5C08B85811105C01092F100B3
:100F20001092F10029C1982F9D7F913009F424C1BE
:100F3000853049F48091E80080FFFCCF8C85806883
:100F40008093E30019C1863009F07CC01D85E888D4
:100F5000F9881092E90010929503109294031230D0
:100F600091F510929303109292030E948E0599E0DE
:100F7000BE016F5F7F4FFB01292F11922A95E9F780
:100F800099831A8391E09E8390E898879AEF9987D6
:100F90002091940330919503275F3F4F3C832B832F
:100FA0008D831092E9001092950310929403F092B1
:100FB0009303E092920349E050E080E00E947304C2
:100FC0000E948E05D9C0F0929303E09292031232F0
:100FD00059F441EE54E060E672E080E80E94730448
:100FE000892B09F0C9C0CCC0113069F4888999896E
:100FF000089711F41093910380919103811111C00E
:101000006FE777E016C0133009F0BAC08C858823EB
:1010100059F0823061F0813009F0B2C061E477E0CC
:1010200008C061E977E005C069E577E002C06DE5D9
:1010300077E06115710509F4A3C0FB01449150E00C
:1010400080E849C0873009F49BC0883021F481E0F2
:101050008093F10091C0893009F08EC0237009F0AF
:101060008FC080E090E031E026E341E0480F4093FC
:10107000E9003093EB000196FC01ED55F84FE49147
:10108000E093EC002093ED008530910571F78EE739
:101090008093EA001092EA008C8580938E016CC0E8
:1010A000288939891092E9001092950310929403CF
:1010B00030939303209392032E85211154C08B8586
:1010C0009A85913A59F4813209F05AC047E050E0CC
:1010D00060E171E080E00E9473044EC0913209F03B
:1010E0004FC0803239F467E070E080E191E00E9407
:1010F0005E0442C0823209F043C08C8580931701A0
:101100008091100190911101A0911201B0911301F1
:10111000803B9440A105B10579F58091170180FDD0
:1011200011C087E797E790930108809300089BE040
:1011300088E10FB6F894A895809360000FBE909355
:1011400060001AC00FB6F894A8958091600088617D
:1011500080936000109260000FBEA8951092010865
:101160001092000809C0223059F4E0914E05F09128
:101170004F050995882321F08EEF8093E80003C086
:1011800081E28093EB0061960FB6F894DEBF0FBE4C
:10119000CDBFDF91CF91FF91EF91BF91AF919F9123
:1011A0008F917F916F915F914F913F912F911F91FF
:1011B000FF90EF900F900FBE0F901F9018958F9299
:1011C0009F92AF92BF92CF92DF92EF92FF920F93D6
:1011D0001F93CF93DF9300D01F92CDB7DEB7382F88
:1011E0008B0180918E01882389F04A018AEFF82EC5
:1011F000832F8770E82E90E4C92E832F8072B82E3B
:101200002AE3D22E832F8074A82E21C08FEF9FEF68
:101210005FC08FB7F894E092E9009091E80095FFE5
:101220001AC09091F2002C2D291B8FBF211115C0DF
:10123000FA94FF2059F361E070E080E090E0398398
:101240004A835B830E94251739814A815B8181141F
:101250009104F9F634C020E0E8CF822F90E08816A0
:1012600099060CF4282D822F90E0881A990A6FB7FE
:10127000F894E092E900BB2029F02150A8F01092E8
:10128000F100FBCFF80137FF07C0215058F07491EF
:101290007093F1003196F9CF215020F07191709345
:1012A000F100FACF080F191F8091E80085FF0DC0EB
:1012B0008114910411F4A11008C06FBFC8CF5D9ACA
:1012C00084E680939603CA0103C0D092E800F5CF6C
:1012D0000F900F900F90DF91CF911F910F91FF9082
:1012E000EF90DF90CF90BF90AF909F908F90089538
:1012F00090918E01992311F057FF03C08FEF9FEF5C
:1013000008952FB7F89487708093E9008091F200D8
:1013100090E0841795070CF4AC01842FFB0194E650
:10132000815030F0909390033091F1003193F8CFD9
:101330004115510521F08091F200882319F02FBF4B
:10134000CA0108958BE68093E800F9CF1F920F92AF
:101350000FB60F9211242F933F934F935F936F9388
:101360007F938F939F93AF93BF93EF93FF93CF930D
:10137000DF93CDB7DEB7C054D109DEBFCDBF8091BA
:10138000E1001092E10083FF0FC01092E90091E0AC
:101390009093EB001092EC0092E39093ED0010928A
:1013A0008E0198E09093F00082FF46C083E0809326
:1013B000E9008091F200882319F08AE38093E80025
:1013C0009FB7F89482E08093E9008091F2009FBF7C
:1013D000882321F088E994E00E94920E9FB7F89448
:1013E00085E08093E9008091F2009FBF8823C1F0DF
:1013F0008091500590915105892B91F040E450E087
:10140000BE016F5F7F4F85E00E94780997FD08C09D
:10141000E0915005F0915105BC01CE01019609956E
:1014200080919603882341F08091960381508093A8
:101430009603811101C05D98C05CDF4F0FB6F89430
:10144000DEBF0FBECDBFDF91CF91FF91EF91BF9176
:10145000AF919F918F917F916F915F914F913F914C
:101460002F910F900FBE0F901F901895EF92FF9243
:101470000F931F93CF93DF931F92CDB7DEB789836E
:101480008B017A0141E050E0BE016F5F7F4F84E045
:101490000E94DF08A701B80184E40E94DF080F90D2
:1014A000DF91CF911F910F91FF90EF9008951F93BF
:1014B000CF93DF93DC0111961C9111979C9195308D
:1014C00009F467C060F5923009F443C0A8F4913084
:1014D00009F04DC1E0918F01F09190012EE1129F32
:1014E000B00111246F527E4F028CF38DE02DCD019F
:1014F000DF91CF911F9109949330C9F1943009F095
:1015000036C1E0918F01F09190012EE1129FB00160
:1015100011246F527E4F0488F589E02D35C09B3031
:1015200009F49DC038F4963009F441C09A3009F4AA
:101530004CC01DC19C3009F4CBC0913F09F017C1CC
:1015400040E450E0BD0182EFDF91CF911F910C94F8
:10155000360AE0918F01F09190013EE1139FB001B6
:1015600011246F527E4F0088F189E02D0DC0E0916B
:101570008F01F09190018EE1189FB00111246F52FC
:101580007E4F0288F389E02DCD01DF91CF911F912D
:101590000994E0918F01F09190013EE1139FB00119
:1015A00011246F527E4F0688F789E02DEDCFE09130
:1015B0008F01F09190018EE1189FB00111246F52BC
:1015C0007E4F008CF18DE02DDFCF1F3F09F41FE728
:1015D00012969C91913099F4812F0E94DC05E12FA5
:1015E000F0E0E456FC4F85818111C1C0E0918F018C
:1015F000F09190010680F781E02D812F47C0923055
:1016000029F5C1E08C2F0E943C04CF5FCC30D1F78C
:10161000C12FD0E0C456DC4F8D81811109C0E0910B
:101620008F01F09190010084F185E02D8FE70995FD
:10163000812F0E94DC058D81811199C0E0918F017D
:10164000F09190010680F781E02D1FC0933009F0E2
:101650008EC0812FDF91CF911F910C943C0481E0CB
:101660001F3FC1F480930F0188E691E0E1EDF1E0C6
:10167000DF019C011D9221503040E1F7E0918F0184
:10168000F09190010284F385E02D8FE7DF91CF91F7
:101690001F91099480934B051C3008F068C03EE10F
:1016A000139FF0011124EF52FE4F108280910F0121
:1016B000181710F410930F01E0918F01F091900131
:1016C0000284F385E02D812F09951092AC034FC061
:1016D00082E08093AD039091AE0394609093AE034B
:1016E0009091AE0390619093AE031092AF031330CC
:1016F000B1F040F4113079F01230C9F58091AE03A9
:10170000826033C0153071F1B0F0163081F58091F0
:10171000AE038E7F2AC08091AE038D7F26C0E091FC
:101720008F01F09190010480F581E02D80E0099512
:101730001092AF031CC0E0918F01F09190010480E2
:10174000F581E02D81E0099581E080930F0188E625
:1017500091E0E1EDF1E0DF019C011D92215030406C
:10176000E1F705C08091AE0381608093AE03DF9105
:10177000CF911F910895DC01683810F0685825C09A
:10178000E62FF0E067FF12C0E058F10981E090E039
:1017900001C0880FEA95EAF7809514969C911497FA
:1017A000892314968C93149760E00FC0E258FE4F83
:1017B0006491662311F167FF08C014968C91149709
:1017C0008D7F14968C9314976F77FD01369686E083
:1017D000662321F09081961301C0108281503196CA
:1017E0008111F6CFBD016C5F7F4F48E050E082E091
:1017F0000E94360A81E090E0089580E090E008952C
:10180000FC011682178210861186128613861482B6
:10181000BC016C5F7F4F48E050E082E00C94360AD8
:10182000DC01683810F068582DC0E62FF0E067FF43
:1018300011C0E058F10981E090E001C0880FEA95FD
:10184000EAF714969C911497892B14968C9314970D
:1018500060E018C0E258FE4F6491611109C081E058
:1018600090E013969C938E93129780E090E00895F9
:1018700067FF08C014968C911497826014968C931D
:1018800014976F7716968C911697861751F11796C5
:101890008C911797861729F118968C9118978617AF
:1018A00001F119968C9119978617D9F01A968C9197
:1018B0001A978617B1F01B968C911B97861789F0A3
:1018C000FD01369680E090E02191211105C0FD01D7
:1018D000E80FF91F668305C0019686309105A1F7D0
:1018E000BECFBD016C5F7F4F48E050E082E00E94B8
:1018F000360A81E090E00895CF92DF92EF92FF9256
:101900000F931F93CF93DF936C01EB017B01E40EE8
:10191000F51E00E010E0CE15DF0561F06991D601FB
:10192000ED91FC910190F081E02DC6010995080F21
:10193000191FF1CFC801DF91CF911F910F91FF9037
:10194000EF90DF90CF90089583E08093E90080913D
:10195000F200882319F08AE38093E800089520912B
:101960004304309144048091450490914604281723
:101970003907A9F0E0914504F0914604ED5FFB4F73
:10198000808120914504309146042F5F3F4F2F7393
:101990003327309346042093450490E008958FEF59
:1019A0009FEF0895209143043091440480914504B1
:1019B000909146042817390749F0E0914504F091C9
:1019C0004604ED5FFB4F808190E008958FEF9FEF1D
:1019D00008958091430490914404209145043091EE
:1019E0004604821B930B8F739927089585ED80938E
:1019F000BC008091BC0084FDFCCF10926D04089562
:101A00004091DE03262F30E0240F311D21323105B5
:101A1000DCF420916D042430C9F4FC0180E090E0F6
:101A2000861758F43091DE032191DC01A454BC4F99
:101A3000A30FB11D2C930196F3CF8091DE03680FA5
:101A40006093DE0380E0089581E0089582E00895C8
:101A5000089581E090E03091920120919101321738
:101A600010F480E090E0919581959109089580911E
:101A7000920190919101891730F48F5F80939201C8
:101A800080E090E008958FEF9FEF0895809191019D
:101A900090E020919201821B91090895CF92DF92EC
:101AA000EF92FF920F931F93CF93DF937C01262F2A
:101AB000972F8A0180919004882391F0C62FD72F09
:101AC0006E01C40ED51ECC15DD0571F06991D701EC
:101AD000ED91FC910190F081E02DC7010995F3CFC4
:101AE000642F822F0E94000DC801DF91CF911F91BA
:101AF0000F91FF90EF90DF90CF900895CF93DF93F9
:101B00001F92CDB7DEB76983209190042223D1F0D4
:101B100020918E04203240F021E030E0FC0133833C
:101B2000228380E090E015C080918F04E82FF0E0E0
:101B3000E259FB4F998190838F5F80938F0480934C
:101B40008E0405C061E0CE0101960E94000D81E087
:101B500090E00F90DF91CF9108950895CF93DF9398
:101B6000FC01EB01718182818983878190859A874D
:101B7000898725853685438154816EE1769FC00132
:101B800011248F529E4FDC0150965C934E931F9709
:101B900056963C932E93559764E0769FD00111247E
:101BA000AF55BE4F1D921D921D921C9213978385B7
:101BB00094859E878D8782858E8381E0DF91CF918A
:101BC0000895FC012281FB012783FC018381FB0135
:101BD00080870895FC0182819381FB01908F878B20
:101BE0000895DC01FB0112968D919C911397908FC3
:101BF000878B14968D919C911597948F838F169651
:101C00008C911697858F17968D919C911897948734
:101C100083870895DC01FB0112968C9112978283D1
:101C20008281811110C015968D919C911697908F8D
:101C3000878B13968D919C911497948F838F179611
:101C40008C918583089582810895DC01FB011296B1
:101C50008C911297838313968C9113978483149697
:101C60008D919C911597948B838B16968D919C9159
:101C70001797928B818B08959EE1899FF001112423
:101C8000EF52FE4F708B6787568B458B94E0899F90
:101C9000F0011124EF55FE4F10821182128213823F
:101CA00008950895089510924B0524E0829FC00185
:101CB0001124FC01EF55FE4F108211821282138213
:101CC000089525E0FC01208384E391E008950895C0
:101CD00080934B0508950E9481310F931F93CF93FA
:101CE000DF931F92CDB7DEB78C0169838091170116
:101CF000882359F041E050E0BE016F5F7F4F83E0E1
:101D00000E94DF08181619063CF081E090E0F80107
:101D10009383828380E090E00F90DF91CF911F91B9
:101D20000F9108950F931F93CF93DF931F92CDB719
:101D3000DEB700914304109144040F5F1F4F0F73EF
:101D40001127809145049091460408171907F9F06E
:101D500041E050E0BE016F5F7F4F82E00E94780952
:101D6000019719F4898190E002C08FEF9FEF8F3FB8
:101D70002FEF920761F0E0914304F0914404ED5F8E
:101D8000FB4F80831093440400934304D2CF0F9001
:101D9000DF91CF911F910F9108951F920F920FB66F
:101DA0000F9211242F933F934F935F936F937F93E1
:101DB0008F939F93AF93BF93EF93FF938091B9005D
:101DC000887F803609F49CC068F5883209F45BC0CE
:101DD00090F4803109F454C038F4882309F4F6C033
:101DE000883009F44DC0F6C0883109F44CC0803207
:101DF00009F45DC0EFC0803409F468C048F4803352
:101E000009F455C0883309F0E5C080936B04D8C04D
:101E1000803509F44FC0883509F45DC0883409F075
:101E2000D9C0D6C0883909F4C7C0A8F4883709F4E6
:101E300067C038F4883609F463C0803709F460C09D
:101E4000C9C0883809F4B8C0803909F45FC0803847
:101E500009F0C0C05BC0803B09F486C038F4803A0A
:101E600009F466C0883A09F47FC0B4C0803C09F424
:101E7000A7C0883C09F4A4C0883B09F48AC0AAC062
:101E80008091480410C090916A0480916904981769
:101E900070F5E0916A0481E08E0F80936A04F0E0AF
:101EA000E75BFB4F80818093BB0085EC86C080930D
:101EB0006B048EC0E0916A0481E08E0F80936A0407
:101EC0008091BB00F0E0E75BFB4F808390916A0458
:101ED000809169046EC0E0916A0481E08E0F809366
:101EE0006A048091BB00F0E0E75BFB4F8083809148
:101EF0006C0481116DC081E08093470484EA61C065
:101F000083E080936D0410920204CFCF809102048D
:101F1000803208F051C0E091020481E08E0F80937E
:101F200002048091BB00F0E0EE51FC4F8083BDCFF6
:101F300085EC8093BC0010926D0480910204803285
:101F400030F4E0910204F0E0EE51FC4F1082609119
:101F5000020470E0E091E003F091E10382EE93E08F
:101F600009951092020436C084E080936D041092AB
:101F7000DF031092DE03E091DC03F091DD030995AD
:101F80008091DE03811105C081E08093DE03109211
:101F9000BC03E091DF0381E08E0F8093DF03F0E06C
:101FA000E454FC4F80818093BB009091DF038091CB
:101FB000DE03981708F479CF85E88093BC000AC047
:101FC00085EC8093BC0010926D0404C010926B04E9
:101FD0000E94F60CFF91EF91BF91AF919F918F916D
:101FE0007F916F915F914F913F912F910F900FBE15
:101FF0000F901F90189510926D0481E080936C04EF
:102000001092470482E00E94F81583E00E94F815C0
:10201000E9EBF0E080818E7F808380818D7F8083FB
:1020200088E48093B80085E48093BC0008954F92C3
:102030005F926F927F928F929F92AF92BF92CF9258
:10204000DF92EF92FF920F931F93CF93DF9300D015
:1020500000D0CDB7DEB7009709F4E7C18C016091DD
:102060009C0170E060587109072E000C880B990BD9
:102070000E949E2F20E030E04FE753E40E94F42EB0
:102080006B017C016093B8037093B9038093BA032A
:102090009093BB0320E030E0A9010E944E3087FD01
:1020A0001DC0A701960160E070E080E89FE30E94F8
:1020B000822E6093B4037093B5038093B60390931C
:1020C000B70380E090E0A0E8BFE38093B003909373
:1020D000B103A093B203B093B30323C020E030E078
:1020E000A901C701B6010E94EF2E87FF1AC080E048
:1020F00090E0A0E8BFE38093B4039093B503A0936E
:10210000B603B093B7039C01AD01C701B6010E94AD
:10211000832E6093B0037093B1038093B2039093C6
:10212000B30380919901982F907487FF51C1F801F2
:10213000C080D180E280F3809111FFC085FDA2C0F4
:102140001C141D041E041F040CF047C040E060E096
:1021500070E08DE495E00E946E1580909A01909059
:102160009B01A12CB12CC501B4010E949C2F2B0115
:102170003C01209195013091960140919701509139
:1021800098010E9453300E94662F6B017C012091C0
:10219000B0033091B1034091B2035091B303C30136
:1021A000B2010E9453300E94662F9B01AC012C1992
:1021B0003D094E095F09F801608171818281938137
:1021C0000E945031A50194010E941F2ECA01B9013D
:1021D0006C0D7D1D8E1D9F1DAEC0C114D104E10488
:1021E000F10409F44BC080909A0190909B01A12CBE
:1021F000B12CC501B4010E949C2F2B013C01209100
:1022000095013091960140919701509198010E945B
:1022100053300E94662F69837A838B839C83F0946A
:10222000E094D094C094C11CD11CE11CF11C2091FD
:10223000B4033091B5034091B6035091B703C30185
:10224000B2010E9453300E94662F29813A814B814E
:102250005C81621B730B840B950BA70196010E9496
:102260005031A50194010E941F2E69817A818B81D2
:102270009C81620F731F841F951FA1C040E060E026
:1022800070E09EC0E0919A01F0919B011C141D0426
:102290001E041F04DCF44F019694879480919D01E5
:1022A00090919E01880E991EA12CB12C2F01612CBA
:1022B000712CC301B201681979098A099B09A70128
:1022C00096010E945031A301920119C0C114D1049A
:1022D000E104F10411F14F019694879480919D01DE
:1022E00090919E01881A990AA12CB12CA501940104
:1022F000C701B6010E9450319F0140E050E00E94AA
:102300001F2ECA01B901680D791D8A1D9B1DF80198
:10231000608371838283938303C0BF017695679541
:1023200040E08DE495E00E946E1560919A017091F5
:102330009B017695679540E060C0F7FC02C02A9A41
:1023400001C02A9880909A0190909B01A12CB12CF9
:10235000C501B4010E949C2F2091950130919601F6
:1023600040919701509198010E9453300E94662F2E
:102370006B017C01F801208131814281538157FF3B
:1023800007C050954095309521953F4F4F4F5F4F77
:10239000C501B4016C197D098E099F090E94503155
:1023A000A50194010E941F2ECA01B9016C0D7D1D6B
:1023B0008E1D9F1DF801608371838283938340E0AB
:1023C0008DE495E00E946E1540E060E070E015C07D
:1023D000911109C085FF07C0E0909A01F0909B0120
:1023E000F694E79402C0E12CF12C40E0B7018DE4B3
:1023F00095E00E946E1540E0B7018CE495E00F90E7
:102400000F900F900F90DF91CF911F910F91FF9040
:10241000EF90DF90CF90BF90AF909F908F907F9084
:102420006F905F904F900C946E150F900F900F90DF
:102430000F90DF91CF911F910F91FF90EF90DF9060
:10244000CF90BF90AF909F908F907F906F905F9054
:102450004F900895609193017091940180E090E015
:102460000E949C2F9B01AC0160E07EEF8FEF96E411
:102470000E94F42E08952F923F924F925F926F9296
:102480007F928F929F92AF92BF92CF92DF92EF9204
:10249000FF920F931F93CF93DF93CDB7DEB72997AA
:1024A0000FB6F894DEBF0FBECDBF998788874B016A
:1024B0002B831D830C831701DF82CE82042F10E053
:1024C0008C819D816C01E12CF12CE885F985F7FD6B
:1024D0002BC0C8019695982F882797958795BF019F
:1024E000681B790B072E000C880B990B0E949E2FFE
:1024F0002B013C01C701B6010E949C2F9B01AC013E
:10250000C301B2010E94F42E2B013C01C801969533
:10251000982F8827979587959A838983EB8190E8F0
:10252000E99FB00111242AC0B8017695762F66275D
:1025300077956795E885F9856E0F7F1F072E000C4C
:10254000880B990B0E949E2F2B013C01C701B601FD
:102550000E949C2F9B01AC01C301B2010E94F42E8A
:102560002B013C0160E86003C001619F900D1124C4
:102570009A8389832B816203B00111248885998510
:10258000681B790B072E000C880B990B0E949E2F5D
:102590006B017C01B10180E090E00E949C2F9B01C7
:1025A000AC01C701B6010E94F42E6B017C018A14B4
:1025B0009B0408F43FC08E819F818A0D9B1D881665
:1025C0009906C0F50C811D810A0D1B1D8016910610
:1025D00090F4B4016A197B0980E090E00E949C2F7E
:1025E0009B01AC01C301B2010E9453300E94662FCF
:1025F00089819A811CC08219930988159905E8F48C
:102600008A189B08EE81FF818E1A9F0AB401620D21
:10261000731D80E090E00E949C2F9B01AC01C701DC
:10262000B6010E9453300E94662F88859985860FD7
:10263000971F05C080E090E002C0888599852996A3
:102640000FB6F894DEBF0FBECDBFDF91CF911F91C3
:102650000F91FF90EF90DF90CF90BF90AF909F9041
:102660008F907F906F905F904F903F902F90089544
:102670008F929F92AF92BF92CF92DF92EF92FF9292
:10268000CF93DF934B015C01EA010E94FD056B01D2
:102690007C01DE01A50194010E94492E0E949E2F1B
:1026A000A70196010E94533020E030E040E051E461
:1026B0000E94533020E030E040E251E40E94533069
:1026C00020E030E040E85BE30E9453300E94662F38
:1026D0000E94220690958095709561957F4F8F4F4F
:1026E0009F4FDF91CF91FF90EF90DF90CF90BF9001
:1026F000AF909F908F9008954F925F926F927F92CC
:102700008F929F92AF92BF92CF92DF92EF92FF9201
:10271000CF93DF9300D000D0CDB7DEB74B015C0183
:1027200057FF02C04D5F5F4F6A01D594C794D5949F
:10273000C7940E94FD0569837A838B839C839B01E8
:10274000AC01C501B4010E94533020E030E040E20A
:1027500051E40E9453302B013C0120E030E040E87E
:102760005FE30E944E300D2C000CEE08FF08181697
:102770001CF4C701B60128C020E030E040E85FEB60
:10278000C301B2010E94EF2E87FF06C0C701B60148
:102790000E942206CB011EC0C701B6010E949E2FD7
:1027A0009B01AC01C501B4010E94533029813A81DB
:1027B0004B815C810E94533020E030E040E251E4E4
:1027C0000E9453300E94662F0E9422068827992774
:1027D000861B970B0F900F900F900F90DF91CF916A
:1027E000FF90EF90DF90CF90BF90AF909F908F9031
:1027F0007F906F905F904F9008958F929F92AF92CD
:10280000BF92CF92DF92EF92FF924B015C01BA012F
:10281000550F880B990B0E949E2F6B017C0120E0C5
:1028200030E0A901C501B4010E944E30A501940118
:1028300018160CF05058C701B6010E9453306B01B6
:102840007C010E94FD059B01AC01C701B6010E94FD
:10285000533020E030E040E851E40E94533020E063
:1028600030E040E251E40E94533020E030E040E0AC
:102870005DE30E9453300E94662F0E9422066B0186
:102880007C0120E030E0A901C501B4010E944E3076
:1028900018162CF4882799278C199D090DC020E063
:1028A00030E0A901C501B4010E94EF2E87FF02C0EC
:1028B000C60102C080E090E0FF90EF90DF90CF90E3
:1028C000BF90AF909F908F900895009769F0FC01A2
:1028D00001900020E9F73197AF01481B590BBC016B
:1028E00088E994E00C947C0C80E090E008950F93CC
:1028F0001F930E9470176093A0047093A1048093AB
:10290000A2049093A304E0919804F09199040084A8
:10291000F185E02D88E994E0099597FF1FC00E949A
:1029200070170091A0041091A1042091A20430918D
:10293000A304DC01CB01801B910BA20BB30B009114
:102940009C0410919D0420919E0430919F04801757
:102950009107A207B307B8F28FEF9FEF1F910F9176
:1029600008959091970489B18C70892B90E09C0117
:102970003595279535952795209397044091930495
:10298000509194046091950470919604FC01E75C69
:10299000FE4F8081082E000C990BAA0BBB0B840FF5
:1029A000951FA61FB71F8093930490939404A09340
:1029B0009504B0939604809192040895E091980450
:1029C000F09199040190F081E02D682F88E994E05E
:1029D0000994CF93DF938DE00E94DE14EC018AE02E
:1029E0000E94DE148C0F9D1FDF91CF9108958F926E
:1029F0009F92AF92BF92EF92FF920F931F93CF934C
:102A0000DF93CDB7DEB7A1970FB6F894DEBF0FBE48
:102A1000CDBF162F042F19A2423008F40AE07E0120
:102A200021E2E20EF11C802E912CA12CB12C612F01
:102A3000A50194010E94512E029F1019112481E0DA
:102A4000E81AF1081A3014F4105D01C0195CF7019E
:102A50001083122F732FCA01232B242B252B39F718
:102A6000C7010E946514A1960FB6F894DEBF0FBE91
:102A7000CDBFDF91CF911F910F91FF90EF90BF904D
:102A8000AF909F908F900895CF92DF92EF92FF9238
:102A9000CF93DF9397FF19C06B017C018DE20E94F9
:102AA000DE14EC0166277727CB016C197D098E09AE
:102AB0009F094AE00E94F7148C0F9D1FDF91CF9170
:102AC000FF90EF90DF90CF9008954AE0DF91CF9193
:102AD000FF90EF90DF90CF900C94F7140F931F931B
:102AE000CF93DF938B01D091B8002CE02093B800F6
:102AF000FC01C08181E080939004C0935205109244
:102B00008F0410928E04442311F060E601C060E44B
:102B100086EA94E00E947E0DB80184E07695679580
:102B20008A95E1F786EA94E00E947E0DB80194E070
:102B3000660F771F9A95E1F786EA94E00E947E0D72
:102B400080918E04813208F046C090916D049111FD
:102B5000FCCF92E090936D0491E090936C049FEF12
:102B600090936B0410926A0480936904AEE6B4E01B
:102B700029E434E0F9019E2F921B981718F49D91D7
:102B80009193F9CF1092480480914804CC0FC82B40
:102B9000C093480480914704813061F41092470447
:102BA000809148048093BB008091BC0083FDF8CFE6
:102BB00085EC01C085EE8093BC0080916D0482306D
:102BC000E1F380916B048F3F31F080916B04803290
:102BD00011F080916B0410928F0410928E04109269
:102BE0009004D093B800DF91CF911F910F91089579
:102BF00090E0FC01ED5FF74F4491FC01EC51F84F80
:102C00002491FC01EB53F84F8491882309F448C0C8
:102C10004423C1F150E0FA013197EE30F10590F50F
:102C2000EE55FF4F0C947431909180009F7703C054
:102C3000909180009F7D9093800024C094B59F77F1
:102C400002C094B59F7D94BD1DC0909190009F7768
:102C500007C0909190009F7D03C090919000977F56
:102C6000909390000FC09091C0009F7703C0909107
:102C7000C0009F7D9093C00005C09091C200977FD7
:102C80009093C200E82FF0E0EE0FFF1FE954F84FD9
:102C9000A591B4918FB7F894EC912E2B2C938FBF04
:102CA0000895CF93DF93BC01990F880B990B0E9475
:102CB0004415EC010E94E9148C0F9D1FDF91CF9108
:102CC0000895BC01990F880B990B0C944415682F3B
:102CD00070E080E090E04AE00C94F7140C946514E6
:102CE000FF920F931F93CF93DF9300D000D0CDB707
:102CF000DEB70E947714FC0197FD11C08D3291055B
:102D000091F0C0970A9778F0E0919804F0919904B7
:102D10000680F781E02D88E994E00995EACF60E02C
:102D200070E0CB014CC020E030E0A901F12CE13093
:102D3000F105F1F0ED32F105C9F0CF01C0970A9726
:102D4000B8F4AAE0B0E00E943E2E8F01FF0F220BE4
:102D5000330BDC01CB01800F911FA21FB31F9C011D
:102D6000AD01205331094109510902C0FF24F394F8
:102D7000E0919804F09199040680F781E02D88E9AC
:102D800094E029833A834B835C8309950E947714EE
:102D9000FC01C09729813A814B815C810A9738F206
:102DA000E130F10521F2FF2041F066277727CB01C2
:102DB000621B730B840B950B02C0CA01B9010F9003
:102DC0000F900F900F90DF91CF911F910F91FF9077
:102DD0000895CF93DF9390E0FC01EC51F84F2491DC
:102DE000FC01EB53F84F8491882361F190E0880F48
:102DF000991FFC01E755F84FC591D491FC01E954A6
:102E0000F84FA591B491611109C09FB7F8948881DA
:102E1000209582238883EC912E230BC0623061F4CD
:102E20009FB7F8943881822F809583238883EC9113
:102E30002E2B2C939FBF06C08FB7F894E8812E2BC2
:102E400028838FBFDF91CF910895CF92DF92EF92C9
:102E5000FF92CF93DF936B017C010E944B17EB0134
:102E6000C114D104E104F10479F00E944B176C1BEA
:102E70007D0B683E7340A0F381E0C81AD108E108D9
:102E8000F108C851DC4FECCFDF91CF91FF90EF906C
:102E9000DF90CF9008953FB7F894809165059091A9
:102EA0006605A0916705B091680526B5A89B05C089
:102EB0002F3F19F00196A11DB11D3FBFBA2FA92FB9
:102EC000982F8827820F911DA11DB11DBC01CD0136
:102ED00042E0660F771F881F991F4A95D1F7089522
:102EE0002FB7F89460916105709162058091630538
:102EF000909164052FBF08951F920F920FB60F9205
:102F000011242F933F938F939F93AF93BF938091FF
:102F1000610590916205A0916305B09164053091BF
:102F2000600523E0230F2D3720F40196A11DB11D6C
:102F300005C026E8230F0296A11DB11D2093600550
:102F40008093610590936205A0936305B093640537
:102F50008091650590916605A0916705B09168051F
:102F60000196A11DB11D8093650590936605A09300
:102F70006705B0936805BF91AF919F918F913F9185
:102F80002F910F900FBE0F901F901895CF93DF9346
:102F9000CDB7DEB7C054D1090FB6F894DEBF0FBE6F
:102FA000CDBF789484B5826084BD84B5816084BDD2
:102FB00085B5826085BD85B5816085BD80916E00D7
:102FC000816080936E001092810080918100826008
:102FD0008093810080918100816080938100809145
:102FE0008000816080938000809191008260809356
:102FF0009100809191008160809391008091900078
:103000008160809390008091C10084608093C100B2
:103010008091C10082608093C1008091C100816075
:103020008093C1008091C30081608093C300809130
:10303000C00082608093C0008091C2008160809354
:10304000C20080917A00846080937A0080917A0037
:10305000826080937A0080917A00816080937A0008
:1030600080917A00806880937A0010928E0181E0CE
:103070008093D70080EA8093D80082E189BD09B4AB
:1030800000FEFDCF61E070E080E090E00E94251737
:1030900080E98093D8008CE08093E2001092E000F9
:1030A00010926E0310926D031092730310927403CA
:1030B00010927503109276031092680310926703C2
:1030C00010927C0310927D0310927E0310927F0376
:1030D0001092800310928103109282031092830356
:1030E00042E0BE01615F7F4F80E090E00E942007D8
:1030F0008F8598898A3F910509F407C18AEF90E08E
:103100009E878D8742E0BE01635F7F4F80E090E045
:103110000E94F10619821A821B821C8244E0BE01C1
:103120006F5F7F4F82E090E00E94F10688E394E0B9
:103130009E878D8742E0BE01635F7F4F86E090E00F
:103140000E94F10684E6898B41E0BE016F5E7F4FED
:1031500088E090E00E94F10641E0BE016F5E7F4F83
:103160008BE090E00E94F10641E0BE016F5E7F4F70
:103170008CE090E00E94F10641E0BE016F5E7F4F5F
:1031800080E190E00E94F10641E0BE016F5E7F4F5A
:103190008DE090E00E94F10682E3898B41E0BE0160
:1031A0006F5E7F4F89E090E00E94F10641E0BE0132
:1031B0006F5E7F4F8AE090E00E94F10641E0BE0121
:1031C0006F5E7F4F8EE090E00E94F10686E4898B6F
:1031D00041E0BE016F5E7F4F8FE090E00E94F106FC
:1031E0001E861D8642E0BE01635F7F4F81E190E055
:1031F0000E94F1068FEF97E09E878D8742E0BE0127
:10320000635F7F4F83E190E00E94F1068FEF9FE0C4
:103210009E878D8742E0BE01635F7F4F85E190E02E
:103220000E94F10610E8198B41E0BE016F5E7F4FEE
:1032300087E190E00E94F10681E0898B41E0BE01C8
:103240006F5E7F4F88E190E00E94F10680E699E092
:10325000A0E0B0E089839A83AB83BC8344E0BE01E5
:103260006F5F7F4F89E190E00E94F106198B41E08A
:10327000BE016F5E7F4F8DE190E00E94F1061E86D9
:103280001D8642E0BE01635F7F4F8AE290E00E94AC
:10329000F10642E0BE01635F7F4F8EE290E00E9444
:1032A000F10642E0BE01635F7F4F82E390E00E943F
:1032B000F10642E0BE01635F7F4F86E390E00E942B
:1032C000F1068FEF93E09E878D8742E0BE01635F3A
:1032D0007F4F8CE290E00E94F10642E0BE01635F06
:1032E0007F4F80E390E00E94F10642E0BE01635F01
:1032F0007F4F84E390E00E94F10642E0BE01635FED
:103300007F4F88E390E00E94F10642E06FE971E0B0
:1033100086E090E00E94200744E066E473E089E1E3
:1033200090E00E94200741E06EE473E088E090E0C6
:103330000E94200741E062E573E089E090E00E948E
:10334000200741E060E573E08AE090E00E942007FA
:1033500041E065E573E08BE090E00E94200741E0EA
:1033600064E573E08CE090E00E94200741E063E5B3
:1033700073E08DE090E00E94200741E061E573E09A
:103380008EE090E00E94200741E066E573E08FE068
:1033900090E00E94200741E06FE473E080E190E05C
:1033A0000E94200741E06CE971E087E190E00E9413
:1033B000200741E06BE773E088E190E00E9420077E
:1033C00042E06DE971E081E190E00E94200742E077
:1033D0006AE971E083E190E00E94200742E064E442
:1033E00073E085E190E00E94200780914403909172
:1033F000450390939B0180939A0141E069E971E054
:103400008DE190E00E94200742E06FE673E08AE2DF
:1034100090E00E94200742E061E773E08CE290E0D8
:103420000E94200742E067E773E08EE290E00E948E
:10343000200742E069E773E080E390E00E94200704
:1034400042E069E673E082E390E00E94200742E0F8
:103450006BE673E084E390E00E94200742E063E6BD
:1034600073E086E390E00E94200742E065E673E0A7
:1034700088E390E00E942007609146037091470323
:1034800080914803909149030E949E2F20E030E0F4
:1034900044EB53E40E94F42E6B017C0180919F0168
:1034A0009091A001BC01990F880B990B0E949E2F4F
:1034B0009B01AC01C701B6010E9453300E94662FE8
:1034C0006093390370933A0380933B0390933C03DA
:1034D0006B017C01F594E794D794C794C092840360
:1034E000D0928503E0928603F092870362E080E049
:1034F0000E94E91662E081E00E94E91610929204AF
:10350000C0929304D0929404E0929504F0929604B1
:10351000109297044A9B05C0809197048160809324
:1035200097044B9B05C08091970482608093970419
:10353000809169008F7C806180936900EA9A809114
:1035400069008F73806480936900EB9A60E082E188
:103550000E94E91660E083E10E94E91660E084E1E0
:103560000E94E91660E085E10E94E9166E9A57987C
:10357000249A109242031092410310924A0310922F
:103580004B0310924C0310924D0310924003109283
:10359000430388E191E09093900180938F018AEB3F
:1035A00094E090934F0580934E0587E59AE09093C1
:1035B000510580935005229A0091440310914503D0
:1035C000109394010093930110939B0100939A012F
:1035D00060919D0170919E0180E090E00E949C2F7F
:1035E0006B017C01B80180E090E00E949C2F9B0160
:1035F000AC01C701B6010E94F42E6093950170934F
:103600009601809397019093980180919901182FCA
:10361000117080FD05C020E030E04AEF54E404C0A2
:1036200020E030E04AE754E460910801709109011C
:1036300080910A0190910B010E9453306093080120
:103640007093090180930A0190930B01111105C039
:1036500020E030E04AEF54E404C020E030E04AE7E4
:1036600054E46091040170910501809106019091EC
:1036700007010E9453306093040170930501809309
:10368000060190930701111105C020E030E04AEFD8
:1036900054E404C020E030E04AE754E460910001C3
:1036A0007091010180910201909103010E945330B9
:1036B00060930001709301018093020190930301D4
:1036C00080E680934D051092920110929101109224
:1036D0008F0410928E040E94FB0F81E680934C05AC
:1036E00010928F0410928E040E94FB0F41E060E064
:1036F00070E08DE495E00E946E1541E060E070E0BE
:103700008CE495E00E946E1510925D0310925E03AA
:1037100010925F03109260038DE593E00E941710F2
:103720008091840390918503A0918603B0918703D3
:10373000F8948093930490939404A0939504B09389
:103740009604789410925C0310925B038FEF97E0DD
:1037500090933F0380933E0380919C0180933D03AF
:103760000E944B17609388037093890380938A03A8
:1037700090938B030E944B176093B6047093B70429
:103780008093B8049093B90400918C0310918D0339
:1037900020918E0330918F036B017C01C01AD10AF6
:1037A000E20AF30AC092B204D092B304E092B404E5
:1037B000F092B504009188031091890320918A0347
:1037C00030918B036B017C01C01AD10AE20AF30A23
:1037D00040EDC41647E0D406E104F10410F40C9463
:1037E000692D609388037093890380938A03909373
:1037F0008B03E2E2109243038091410390914203D4
:10380000829774F0109242031092410310924A037F
:1038100010924B0310924C0310924D0310924003F0
:1038200080914103909142038230910564F4892B89
:1038300009F42C9A8091410390914203019709F079
:1038400045C02C9843C09C012170332780FD3AC0AD
:1038500099B1991F9927991F909343038091400331
:10386000803258F540914A0350914B0360914C03CC
:1038700070914D0301E010E020E030E0082E04C01C
:10388000000F111F221F331F0A94D2F7992329F02A
:10389000402B512B622B732B08C00095109520955F
:1038A0003095402351236223732340934A0350935E
:1038B0004B0360934C0370934D038F5F80934003E1
:1038C000769A04C02130310509F47698809141033D
:1038D0009091420301969093420380934103E150FB
:1038E00009F088CFF8948091930490919404A0916A
:1038F0009504B09196047894409184035091850387
:103900006091860370918703841B950BA60BB70B00
:103910008093800390938103A0938203B0938303E9
:1039200080937C0390937D03A0937E03B0937F03E9
:1039300010917B0315FB882780F916FD826017FF25
:1039400002C084601DC08130D9F46A017B01C0943B
:10395000D094E094F0949A01AB012C193D094E09E2
:103960005F09609173037091740380917503909166
:1039700076030E9450312FEF3FEF40E050E032C01D
:10398000823059F46A017B01C094D094E094F094A1
:10399000A0916D03B0916E0319C0833059F46A0190
:1039A0007B01C094D094E094F094A0916703B0910F
:1039B00068030CC0843021F56A017B01C094D09467
:1039C000E094F094A0916103B09162039A01AB017D
:1039D0002C193D094E095F090E94492E2FEF3FE047
:1039E00040E050E00E941F2EC20ED31EE41EF51EC2
:1039F000C0927C03D0927D03E0927E03F0927F031D
:103A000080907C0390907D03A0907E03B0907F0314
:103A10008091BF049091C004A091C104B091C204F0
:103A20008092BF049092C004A092C104B092C204DC
:103A30002091C704222309F449C00091F00454E006
:103A4000059F90011124B90161547B4F7B01A501B1
:103A50009401281B390B4A0B5B0BCA01B9010E9468
:103A60009E2FD70119966D937D938D939C931C97F0
:103A7000F02EBAE0EB2E60E070E0CB01B4E0FB9EEC
:103A8000F0011124E154FB4F218532854385548593
:103A90000E94832EFF2011F0FA9402C0A9E0FA2EB2
:103AA000EA94E110EBCF20E030E040E251E40E94E4
:103AB000F42E0F5F0A3018F40093F00402C0109245
:103AC000F00468A779A78AA79BA70FC081E080931D
:103AD000C7041092C3041092C4041092C50410923B
:103AE000C60418A619A61AA61BA62091F1043091A7
:103AF000F2044091F3045091F40488A599A5AAA575
:103B0000BBA58093F1049093F204A093F304B093C7
:103B1000F4048091F904882309F444C000914A0513
:103B2000E4E00E9FC0011124BC0168537B4F7B0170
:103B300068A579A5CD010E94822ED701D2966D93FA
:103B40007D938D939C93D597F02EF4E1EF2E60E05A
:103B500070E0CB01B4E0FB9EF0011124E853FB4F71
:103B600022A933A944A955A90E94832EFF2011F050
:103B7000FA9402C0E3E1FE2EEA94E110EBCF20E0DC
:103B800030E040EA51E40E94F42E0F5F043118F453
:103B900000934A0502C010924A0568AB79AB8AAB24
:103BA0009BAB0FC081E08093F9041092F504109252
:103BB000F6041092F7041092F80418AA19AA1AAA87
:103BC0001BAA80914B05882359F110FF23C70E943F
:103BD0002A129B01AC0160E070E080E094E40E9456
:103BE000F42E6B017C016091560370E080E090E060
:103BF0000E949E2F9B01AC01C701B6010E94533069
:103C000020E030E048EC52E40E94F42E0E94662F3F
:103C1000AB01C501B4010E9438132B013C01FDC664
:103C2000E5EAF1E0FFA3EEA31F8A1E8A412C512C86
:103C300032010E891F890F5F1F4F1F8B0E8B4EE1C4
:103C40009801429F8001439F100D11240F521E4F77
:103C5000D8018C918370833009F0CFC60E942A125C
:103C60006B017C01F80121853285A789B08D0E9406
:103C70007A312FEF3FE740E050E00E941F2ECA014B
:103C8000B9010E949E2FA70196010E94F42E0E9466
:103C9000662F9B01AC01D8011B968D919C911C97BE
:103CA000059730F4E4E0F0E01C96FC93EE931B974C
:103CB0006EE1E62ECE88DF88EC9CF001ED9CF00DE5
:103CC0001124EF52FE4FE1818E2F90E0FC013197DD
:103CD000ED30F10508F07BC6EA5AFF4F0C947431C1
:103CE0000E942A126A8B7B8B8C8B9D8B2EE10E8916
:103CF0001F89209FC001219F900D1124AC014F52BC
:103D00005E4F1A01DA0119968D909C901A9755967C
:103D1000AD90BC9056971F96CD90DC9050975196E1
:103D2000ED90FC90529753960D911C9154971496D8
:103D30002C91149713964C91139757968D919C91B3
:103D40005897EEA1FFA1608171810E943B129401FE
:103D5000DC010E947A312FEF3FE740E050E00E9403
:103D60001F2ECA01B9010E949E2F2A893B894C89C6
:103D70005D890E94F42E0E94662F0E9422069B01FC
:103D8000AC01A0915503B0E00E943E2E24E630E045
:103D900040E050E00E941F2E421A530A640A750A3E
:103DA00072C10E942A126A8B7B8B8C8B9D8BBEE129
:103DB000EB2ECE88DF88EC9CF001ED9CF00D1124F9
:103DC000EF52FE4F018512851B8F0A8FC588D6885A
:103DD000DF8ECE8EE784F088FBA2EAA201891289E9
:103DE0001DA70CA7038914891CAF0BAF8480938097
:103DF000AEA1BFA12D903C90078510896085A7805A
:103E00000A2C000CBB08062E000C770B6A197B09E4
:103E1000CB01770FAA0BBB0B6627782F892F9A2F20
:103E20000E949E2F6B017C01B80180E090E00E940F
:103E30009C2F20E030E04AE754E40E94F42E9B01DE
:103E4000AC01C701B6010E94F42E6B017C01C101D7
:103E5000B8010E946031BC0180E090E00E949C2F7C
:103E600020E030E04AE754E40E94F42E9B01AC01CC
:103E7000C701B6010E9453300E94662FBA2CAA24B3
:103E8000C501860F971FAE8CBF8CCAA0DBA0ECA427
:103E9000FDA40BAD1CAD282D492DB1010E943B1294
:103EA0002A8D3B8DDC010E947A312FEF3FE740E005
:103EB00050E00E941F2ECA01B9010E949E2F2A893C
:103EC0003B894C895D890E94F42E0E94662F0E94D6
:103ED0002206461A570A680A790A79C50E942A12E8
:103EE0006A8F7B8F8C8F9D8FAEE1CA2EEE89FF8902
:103EF000CE9EC001CF9E900D11248C010F521E4FFB
:103F00001801D80119960D90BC91A02DBF8FAE8FCE
:103F1000F801038CF48DE02DFBA3EAA3D8015D9694
:103F2000BC91BCA7F80183849484A588B688C78413
:103F3000D088E188F2880389148924814381AEA165
:103F4000BFA10D90BC91A02DBB8BAA8B8789908DB2
:103F5000BD010E943B128C01B40180E090E00E9400
:103F60009C2F20E030E04AE754E40E94F42E9B01AD
:103F7000AC0160E070E080E89FE30E94F42E6B01EA
:103F80007C018A899B89B4010E946031BC0180E078
:103F900090E00E949C2F20E030E04AE754E40E9429
:103FA000F42E9B01AC01C701B6010E9453306B0196
:103FB0007C01BCA56B2F70E080E090E00E949C2FFC
:103FC00020E030E040E85BE30E9453309B01AC010D
:103FD000C701B6010E94832E2BED3FE049EC50E46F
:103FE0000E9453300E94C0309B01AC01EAA1FBA1AA
:103FF0006F01FF0FEE08FF08B801110F880B990B36
:104000002DAF21963FAF21974EAF5FAF0E949E2FFD
:104010002DAD21963FAD21974EAD5FAD0E9453303F
:104020000E94662FCB01770FAA0BBB0BA70196014D
:10403000280F391F4A1F5B1FAE8DBF8D0E943E2E79
:104040002FEF3FE740E050E00E941F2ECA01B90168
:104050000E949E2F2A8D3B8D4C8D5D8D0E94F42EEB
:104060000E94662F9B01AC01A0915403B0E00E9416
:104070003E2E24E630E040E050E00E941F2E420E2B
:10408000531E641E751ED10116968C91169782FFE1
:104090009EC41D966D917C911E9780E090E00E94D9
:1040A0009C2F2BED3FE049EC50E40E94533020E080
:1040B00030E040E058E30E9453300E94C0309B0142
:1040C000AC01C301B2012DAF21963FAF21974EAF96
:1040D0005FAF0E949E2F2DAD21963FAD21974EAD33
:1040E0005FAD0E9453300E94662F2B013C016FC4CC
:1040F0000E942A126A8F7B8F8C8F9D8FFEE1EF2E9C
:10410000CE88DF88EC9CF001ED9CF00D1124EF527D
:10411000FE4F018512851F8F0E8F238D348DA901CF
:10412000330F660B770B4AA35BA36CA37DA3558D5E
:104130005CA723843484A588B688C784D088E188A6
:10414000F2880389148924814381AEA1BFA10D9017
:10415000BC91A02DBB8BAA8B8789908DBD010E943D
:104160003B12BC01990F880B990B0E949E2F4B01AB
:104170005C01B10180E090E00E949C2F20E030E0E3
:104180004AE754E40E94F42E9B01AC0160E070E029
:1041900080E89FE30E94F42E6B017C018A899B8951
:1041A000B1010E946031BC0180E090E00E949C2F30
:1041B00020E030E04AE754E40E94F42E9B01AC0179
:1041C000C701B6010E9453306B017C01BCA56B2F67
:1041D00070E080E090E00E949C2F20E030E040E81A
:1041E0005BE30E9453309B01AC01C701B6010E9402
:1041F000832E2BED3FE049EC50E40E9453300E94A7
:10420000C0306B017C0120E030E0A9010E944E30FB
:1042100087FF0CC020E030E0A901C701B6010E9471
:10422000EF2E87FF05C0EFEFEEAB02C0F1E0FEAB73
:10423000CEA86C2DCC0C770B880B990B0E949E2F6F
:104240009B01AC01C501B4010E9453300E94662F4E
:10425000CB01770FAA0BBB0BE0C10E942A126E8F15
:104260007F8F88A399A30EE1EE88FF880E9DF00151
:104270000F9DF00D1124EF52FE4F218532853BA397
:104280002AA3238D348DA901330F660B770B4CA71E
:104290005DA76EA77FA7358D638574857B8B6A8B41
:1042A000A588B688C784D088E188F28803891489F4
:1042B00024814381AEA1BFA10D90BC91A02DBB8FE5
:1042C000AA8F8789908DBD0121963FAF21970E94CB
:1042D0003B121C01EA89FB89BF0180E090E00E944B
:1042E0009C2F4B015C0121963FAD219760E4630F49
:1042F00070E080E090E00E949C2F20E030E040E8F9
:104300005BE30E945330A50194010E9453300E9448
:104310006D2F8A8D9B8D860F971F6A897B890E94DE
:1043200060318C01BC0180E090E00E949C2F20E075
:1043300030E04AE754E40E94F42E6B017C0120E057
:1043400030E0A9010E944E3087FD3CC020E030E003
:104350004AE754E4C501B4010E94F42E6A8F7B8FB2
:104360008C8F9D8F20E030E040E05FE30E9453306F
:104370009B01AC01C701B6010E94EF2E87FF22C04E
:10438000B101032C000C880B990B0E949E2F20E09A
:1043900030E040E850E40E9453302A8D3B8D4C8D34
:1043A0005D8D0E94F42EA70196010E9453300E9459
:1043B000662F3194219431086101C60ED71EDDAA03
:1043C000CCAA51C020E030E04AE754E4C501B40172
:1043D0000E94F42E4B015C0120E030E040E05FE3FE
:1043E0000E9453309B01AC01C701B6010E944E30C0
:1043F00087FD39C0A5019401C701B6010E94EF2EC7
:1044000087FF31C0B101032C000C880B990B0E946F
:104410009E2F20E030E040E850EC0E945330A50190
:1044200094010E94F42E6B017C018A899B899695E8
:104430008795B801681B790B80E090E00E949C2F63
:1044400020E030E04AE754E40E94F42E9B01AC01E6
:10445000C701B6010E9453300E94662F7101E60E1B
:10446000F71EFDAAECAA0CA91DA9C801110FAA0BE1
:10447000BB0B2CA53DA54EA55FA5280F391F4A1FD4
:104480005B1FAAA1BBA10E943E2E2FEF3FE740E099
:1044900050E00E941F2ECA01B9010E949E2F2E8D4E
:1044A0003F8D48A159A10E94F42E0E94662F9B01C6
:1044B000AC01A0915403B0E00E943E2E24E630E00F
:1044C00040E050E00E941F2E420E531E641E751ED7
:1044D0007EC20E942A126A8F7B8F8C8F9D8F4EE145
:1044E0002E893F89429FF001439FF00D1124EF5226
:1044F000FE4F618572857F8F6E8F238D348DC9014C
:10450000330FAA0BBB0B8AA39BA3ACA3BDA3358D12
:1045100023843484A588B688C784D088E188F2884B
:104520000389148924814381AEA1BFA10D90BC9160
:10453000A02DBB8BAA8B8789908DBD0121963FAFA3
:1045400021970E943B128C01B10180E090E00E9413
:104550009C2F4B015C0121963FAD219760E8630FD2
:1045600070E080E090E00E949C2F20E030E040E886
:104570005BE30E945330A50194010E9453300E94D6
:104580006D2F8A899B89860F971FB1010E94603128
:104590009B8B8A8B82159305D0F5B801012E000CF8
:1045A000880B990B0E949E2F9B01AC010E94832EC9
:1045B0006B017C0120E030E04AE754E4C501B4011E
:1045C0000E94F42E9B01AC01C701B6010E94F42E9B
:1045D0004B015C01CA88DB88B60180E090E00E9454
:1045E0009C2F20E030E04AE754E40E94F42E9B0127
:1045F000AC01C501B4010E9453300E94662F119591
:10460000019511097801E60EF71EF8AEEFAA0FA981
:1046100018ADC801110FAA0BBB0B2AA13BA14CA1DD
:104620005DA1280F391F4A1F5B1FAE8DBF8D0E94F1
:104630003E2E2FEF3FE740E050E00E941F2ECA01C0
:10464000B9010E949E2F2A8D3B8D4C8D5D8D2BCF05
:104650000E942A126A8F7B8F8C8F9D8F4EE12E894C
:104660003F89429FF001439FF00D1124EF52FE4F0E
:10467000618572857F8F6E8F238D348DC901330FD5
:10468000AA0BBB0B8AA39BA3ACA3BDA3358D23842C
:104690003484A588B688C784D088E188F2880389E5
:1046A000148924814381AEA1BFA10D90BC91A02D9E
:1046B000BB8BAA8B8789908DBD0121963FAF219737
:1046C0000E943B128C01B10180E090E00E949C2F7F
:1046D0004B015C0121963FAD219760E8630F70E0CC
:1046E00080E090E00E949C2F20E030E040E85BE317
:1046F0000E945330A50194010E9453300E946D2FF7
:104700008A899B89860F971FB1010E9460319B8B1C
:104710008A8B82159305D0F566277727601B710B6E
:10472000072E000C880B990B0E949E2F9B01AC0159
:104730000E94832E6B017C0120E030E04AE754E4C4
:10474000C501B4010E94F42E9B01AC01C701B60162
:104750000E94F42E4B015C01CA88DB88B60180E020
:1047600090E00E949C2F20E030E04AE754E40E9451
:10477000F42E9B01AC01C501B4010E9453300E948C
:10478000662F7801E60EF71EFAAEE9AE09AD1AAD56
:1047900040CF8EE16E897F89869FF001879FF00D63
:1047A0001124EF52FE4F038D148DA0915303B0E0FE
:1047B0000E943E2E20E436E040E050E00E941F2E92
:1047C00069017A0120918403309185034091860329
:1047D00050918703D8010E94492EDC01CB017FE074
:1047E000B595A795979587957A95D1F7092E000CE1
:1047F000AA0BBB0B40917C0350917D0360917E031B
:1048000070917F038A019B01081B190B2A0B3B0B3C
:10481000C901B801A6010E943813460E571E681E32
:10482000791ED5C08EE16E897F89869FF001879FB2
:10483000F00D1124EF52FE4F038D148DA091520301
:10484000B0E00E943E2E24E630E040E050E00E94BE
:104850001F2E69017A01B801110F880B990B0E9474
:104860009E2F2AE939EC4CEC54E40E94F42E9B0173
:10487000AC0168A579A58AA59BA50E94822EA601F8
:104880000E944D0662C06EE1C62EAE89BF89CA9EE7
:10489000F001CB9EF00D1124EF52FE4F038D148DCD
:1048A000A0915103B0E00E943E2E24E630E040E0AB
:1048B00050E00E941F2E69017A01B801110F880B88
:1048C000990B0E949E2F20E03EEF4FEF56E40E948E
:1048D000F42E9B01AC0168A979A98AA99BA90E9421
:1048E000822EA6010E94FD1330C00EE1EE88FF88E3
:1048F0000E9DF0010F9DF00D1124EF52FE4F038D20
:10490000148DA0915003B0E00E943E2E24E630E0CA
:1049100040E050E00E941F2E69017A01B801110F9A
:10492000880B990B0E949E2F2AE939EC4CEC54E439
:104930000E94F42E9B01AC0168A579A58AA59BA5D0
:104940000E94822EA6010E947C13092E000CAA0B45
:10495000BB0B480E591E6A1E7B1E39C00E942A12CC
:104960009B01AC018EE16E897F89869FF001879F54
:10497000F00D1124EF52FE4F838D948DBC01990FE1
:10498000880B990B2DAF21963FAF21974EAF5FAFAC
:104990000E949E2F2DAD21963FAD21974EAD5FAD6C
:1049A0000E94F42E0E94662F0E9422069B01AC01F9
:1049B000A0915403B0E00E943E2E24E630E040E097
:1049C00050E00E941F2E421A530A640A750A0E9480
:1049D00070170091A1011091A2012091A3013091C3
:1049E000A401DC01CB01801B910BA20BB30BEEA148
:1049F000FFA180839183A283B3830EA11FA10C5FCB
:104A00001F4F1FA30EA32E893F892B30310509F0BC
:104A100010C903C0412C512C320110917B0311FFAE
:104A200031C00E942A129B01AC01E091520367E45D
:104A300071E0E69FC001E79F900D1124BC0180E06A
:104A400090E02DAF21963FAF21974EAF5FAF0E9410
:104A50009E2F2DAD21963FAD21974EAD5FAD0E94AB
:104A6000F42E0E94662FAB0168A579A58AA59BA5A7
:104A70000E944D06092E000CAA0BBB0B480E591EB6
:104A80006A1E7B1E12FF31C00E942A129B01AC01DC
:104A9000E091510367E471E0E69FC001E79F900D4C
:104AA0001124BC0180E090E02DAF21963FAF21970B
:104AB0004EAF5FAF0E949E2F2DAD21963FAD219747
:104AC0004EAD5FAD0E94F42E0E94662FAB0168A927
:104AD00079A98AA99BA90E94FD13092E000CAA0B93
:104AE000BB0B480E591E6A1E7B1E13FF31C00E946D
:104AF0002A129B01AC01E091500367E471E0E69F4C
:104B0000C001E79F900D1124BC0180E090E02DAF23
:104B100021963FAF21974EAF5FAF0E949E2F2DADE4
:104B200021963FAD21974EAD5FAD0E94F42E0E94BD
:104B3000662FAB0168A579A58AA59BA50E947C1369
:104B4000092E000CAA0BBB0B480E591E6A1E7B1EB9
:104B5000409184035091850360918603709187038F
:104B600080917C0390917D03A0917E03B0917F039F
:104B7000CC24DD247601C41AD50AE60AF70A8C157E
:104B80009D05AE05BF0534F0481759076A077B0736
:104B90000CF045C0B7FD05C0841B950BA60BB70BE9
:104BA00004C0840F951FA61FB71F80937C039093AA
:104BB0007D03A0937E03B0937F030E942A129B0182
:104BC000AC0160E07EEF8FEF96E40E94F42E6B0163
:104BD0007C0160914F0370E080E090E00E949E2F86
:104BE0009B01AC01C701B6010E94533020E030E0C8
:104BF00048EC52E40E94F42E0E94662F6B017C0167
:104C000060917C0370917D0380917E0390917F037E
:104C1000A6010E943813460E571E681E791EA091E9
:104C20004E03B0E0A30192010E943E2E24E630E044
:104C300040E050E00E941F2ECA01B9010E942206E6
:104C40006B017C0114FF04C00E9444150E94E9140A
:104C5000C0925D03D0925E03E0925F03F092600326
:104C6000609180037091810380918203909183030E
:104C70000E949E2F6B017C016091390370913A0371
:104C800080913B0390913C030E949E2F9B01AC01BD
:104C900060E07FEF8FE797E40E94F42E9B01AC0168
:104CA000C701B6010E9453300E94662F4B015C0180
:104CB000611570488105910534F088248A942FE7A6
:104CC000922EA12CB12C811440E894064FEFA4063B
:104CD000B40634F4812C90E8992EAA24AA94BA2C14
:104CE0008092800390928103A0928203B09283030A
:104CF0008DE593E00E94171000915B0310915C0317
:104D000040906F0350907003400E511E612C712C27
:104D1000C0906903D0906A03C00ED11EE12CF12C23
:104D20002091670330916803C901330FAA0BBB0BB5
:104D30009C01AD012C193D094E095F09AFEFBFE0A1
:104D40000E943E2E20916B0330916C03201B310B8F
:104D500040E050E02C193D094E095F090E941F2ECA
:104D60002E8B3F8B488F598FC0906303D090640384
:104D7000C00ED11EE12CF12C209161033091620311
:104D8000C901330FAA0BBB0B9C01AD012C193D09C6
:104D90004E095F09AFEFBFE00E943E2E20916503F0
:104DA00030916603201B310B40E050E02C193D0987
:104DB0004E095F090E941F2E69017A0120916D033F
:104DC00030916E03C901330FAA0BBB0B9C01AD01DF
:104DD0002419350946095709AFEFBFE00E943E2E5E
:104DE0002091710330917203201B310B40E050E0A1
:104DF00024193509460957090E941F2E290141141B
:104E000050E1550624F044244A948FE0582E57FE72
:104E100002C0412C512C50926E0340926D036E885B
:104E20007F88611460E1760624F066246A94BFE00E
:104E30007B2E77FE02C0612C712C70926803609209
:104E40006703C11470E1D70624F0CC24CA94AFE004
:104E5000DA2ED7FE02C0C12CD12CD0926203C092B0
:104E600061038091770390917803800F911F9C01DB
:104E700040E050E02E8B3F8B488F598F2091730379
:104E80003091740340917503509176036E897F8948
:104E9000888D998D261B370B480B590BAFEFBFEF51
:104EA0000E943E2E2091790330917A03201B310B12
:104EB00040E050E0EE88FF88088D198D2E193F09DB
:104EC000400B510B0E941F2E2115310501E04007B8
:104ED000510524F02FEF3FEF40E050E057FF03C0B3
:104EE00020E030E0A90120937303309374034093D2
:104EF000750350937603E0904A03F0904B030091C2
:104F00004C0310914D039E2D9F70913081F0923093
:104F100081F0943081F0983081F0933081F09630B8
:104F200081F0993081F09C3081F060E00FC061E049
:104F30000DC063E00BC065E009C067E007C062E038
:104F400005C064E003C068E001C066E0D801C701A5
:104F5000807F8A8B9B8BAC8BBD8B862B809357037A
:104F600090935803A0935903B0935A03E0E89E1A14
:104F700089829A822B833C834D82262D2295207F25
:104F800025292E8324E0769467942A95E1F76F8291
:104F9000C886282F2295207F2D292987AC01BD01A5
:104FA00034E076956795579547953A95D1F74A87B6
:104FB000AC01BD01ECE07695679557954795EA956C
:104FC000D1F74B87F4E1B695A79597958795FA9514
:104FD000D1F78C874CE050E0BE016F5F7F4F84E0DB
:104FE0000E94360A8091B2049091B304A091B40457
:104FF000B091B50480319742A105B10508F469C5A7
:1050000088E994E00E94E90C181619060CF051C5C5
:1050100088E994E00E94AF0CE82F8FE98E0F8A3167
:1050200008F4E0528E2F90E0FC01E154F109EA31DE
:10503000F10508F03EC5ED59FF4F0C947431809195
:105040009F019091A0010E94611680E20E94DE14EF
:1050500080914E030E94671680E20E94DE148091C8
:1050600052030E94671680E20E94DE148091500372
:105070000E94671680E20E94DE14809155030E9410
:10508000671680E20E94DE14809154030E94671626
:1050900080E20E94DE14809153030E94671680E232
:1050A0000E94DE14809151030E94671680E20E94E4
:1050B000DE14809156030E94671680E20E94DE147F
:1050C00080914F030E94671680E20E94DE14609177
:1050D0009D0170919E0180E090E04AE00E94F714EB
:1050E00080E20E94DE1480919C010E94671680E29B
:1050F0000E94DE1480917B030E94671680E20E946A
:10510000DE1460919A0170919B0180E090E04AE08A
:105110000E94F71480E20E94DE14609146037091B1
:10512000470380914803909149030E94441580E20F
:105130000E94DE146091990170E066C289E791E0F7
:105140000E946E168AEF90E00E9461168EE791E051
:105150000E946E1680E891E00E946E1682E891E04F
:105160000E946E1684E891E00E946E1686E891E037
:105170000E946E1688E891E00E946E169AC4809193
:10518000BE04082E000C990B92C4F894C0909304AE
:10519000D0909404E0909504F090960478948091D7
:1051A0009A0190919B0120919D0130919E01821B5B
:1051B000930B9695879596958795A0E0B0E08983A7
:1051C0009A83AB83BC83CE0101960E941710D7014E
:1051D000C6011EEFF8948090930490909404A090E0
:1051E0009504B0909604789488159905AA05BB0596
:1051F00054F46CE271E080E090E00E9425171150B9
:10520000D501C40139F719821A821B821C82CE0192
:1052100001960E9417108091390390913A03A09152
:105220003B03B0913C03F8948093930490939404CF
:10523000A0939504B09396047894C814D904EA0412
:10524000FB0411F482E001C081E08093BE042DC410
:105250000E947016611101C061E060939C0125C439
:10526000F89440909304509094046090950470904A
:10527000960478948091840390918503A09186038D
:10528000B0918703481A590A6A0A7B0A8091BA04C6
:105290009091BB04A091BC04B091BD04480E591E6E
:1052A0006A1E7B1E0E94701664307105810591058F
:1052B0007CF06B017C01613C7742894091056CF088
:1052C00010ECC12E17E2D12E19E0E12EF12C05C011
:1052D000B4E0CB2ED12CE12CF12CC982DA82EB8206
:1052E000FC8260919F017091A001072E000C880B39
:1052F000990B0E949E2F4B015C01C301B2010E94D9
:105300009E2FA50194010E9453302B013C01609116
:10531000390370913A0380913B0390913C030E94C2
:105320009E2F9B01AC01C301B2010E94F42E2B0100
:105330003C01C0924603D0924703E0924803F092AA
:105340004903C701B60191C0809184039091850300
:10535000A0918603B0918703F8948093930490936F
:105360009404A0939504B0939604789451C1F89452
:105370008090930490909404A0909504B09096042B
:1053800078948091840390918503A0918603B091D5
:105390008703881A990AAA0ABB0A8091BA049091D5
:1053A000BB04A091BC04B091BD04880E991EAA1E36
:1053B000BB1E0E9470166E3171058105910574F057
:1053C0006B017C01693077408105910564F0A8E0AC
:1053D000CA2EA7E0DA2EE12CF12C05C0FEE1CF2E7B
:1053E000D12CE12CF12CC982DA82EB82FC82C5013E
:1053F000B4010E949E2F4B015C0160919F0170914E
:10540000A001072E000C880B990B0E949E2F9B0178
:10541000AC01C501B4010E9453304B015C016091A5
:10542000390370913A0380913B0390913C030E94B1
:105430009E2F9B01AC01C501B4010E94F42E2B01EB
:105440003C01D092A001C0929F01B601DD0C880BF7
:10545000990B0E949E2F4B015C0160914603709155
:10546000470380914803909149030E949E2F20E0BA
:1054700030E044EB53E40E94F42EA50194010E9415
:1054800053300E94662F6093390370933A038093E0
:105490003B0390933C036B017C01F594E794D79414
:1054A000C794C0928403D0928503E0928603F09261
:1054B00087030E949E2F9B01AC01C301B2010E9491
:1054C0005330A50194010E94F42E0E94662FC60E4F
:1054D000D71EE81EF91E8091BA049091BB04A091DA
:1054E000BC04B091BD04C81AD90AEA0AFB0AF894B0
:1054F000C0929304D0929404E0929504F0929604A2
:105500007894D3C20E947016262F60917B0380E0AE
:1055100090E030E0F901082E02C0F595E7950A9475
:10552000E2F7C12CD12C7601C394082E04C0CC0C18
:10553000DD1CEE1CFF1C0A94D2F7E0FF02C06C29B0
:1055400002C0C0946C2101968830910519F76093D0
:105550007B0370E080E090E042E00E94F7140E943C
:10556000E914A7C20E9470168091990120E030E0F2
:1055700070E0AB01022E02C0559547950A94E2F700
:10558000C12CD12C7601C394022E04C0CC0CDD1C9E
:10559000EE1CFF1C0A94D2F740FF02C08C2902C007
:1055A000C0948C212F5F3F4F2830310511F7809335
:1055B000990141E069E971E08DE190E00E94F10616
:1055C000609144037091450380E090E00E949C2F1D
:1055D0002091950130919601409197015091980149
:1055E0000E9453300E94662F69837A838B839C8349
:1055F00044E0BE016F5F7F4F81E190E00E94F106C1
:10560000609144037091450380E090E04AE0A5CFAB
:1056100080E090E04CC288E994E00E94AF0CE82F53
:105620008FE98E0F8A3108F4E0528E2F90E0FC0152
:10563000E154F109E231F10508F03BC2E358FF4FB4
:105640000C9474310E947016611520E17207810577
:10565000910524F06FEF7FE080E090E097FF03C0BA
:1056600060E070E0CB0169837A838B839C837093C5
:1056700078036093770319C20E947016611530E1B8
:1056800073078105910524F06FEF7FE080E090E0E3
:1056900097FF03C060E070E0CB0169837A838B835E
:1056A0009C8370937A0360937903FFC10E94701604
:1056B000611540E174078105910524F06FEF7FE0EB
:1056C00080E090E097FF03C060E070E0CB01698369
:1056D0007A838B839C837093700360936F03E5C11F
:1056E0000E947016611550E175078105910524F03F
:1056F0006FEF7FE080E090E097FF03C060E070E034
:10570000CB0169837A838B839C837093720360934C
:105710007103CBC10E9470166115A0E17A07810563
:10572000910524F06FEF7FE080E090E097FF03C0E9
:1057300060E070E0CB0169837A838B839C837093F4
:105740006A0360936903B1C10E9470166115B0E1EC
:105750007B078105910524F06FEF7FE080E090E00A
:1057600097FF03C060E070E0CB0169837A838B838D
:105770009C8370936C0360936B0397C10E947016B7
:105780006115E0E17E078105910524F06FEF7FE070
:1057900080E090E097FF03C060E070E0CB01698398
:1057A0007A838B839C8370936403609363037DC1CE
:1057B0000E9470166115F0E17F078105910524F0C4
:1057C0006FEF7FE080E090E097FF03C060E070E063
:1057D000CB0169837A838B839C8370936603609388
:1057E000650363C180917703909178030E946116ED
:1057F0008BE891E00E946E168091790390917A0374
:105800000E9461168BE891E00E946E1680916F03F2
:10581000909170030E9461168BE891E00E946E16D1
:1058200080917103909172030E9461168BE891E060
:105830000E946E168091690390916A030E9461161E
:105840008BE891E00E946E1680916B0390916C033F
:105850000E9461168BE891E00E946E1680916303AE
:10586000909164030E9461168BE891E00E946E168D
:1058700080916503909166031AC142E06FE971E07F
:1058800086E090E00E94F10644E066E473E089E17E
:1058900090E00E94F10641E06EE473E088E090E061
:1058A0000E94F10641E062E573E089E090E00E9429
:1058B000F10641E060E573E08AE090E00E94F106C5
:1058C00041E065E573E08BE090E00E94F10641E085
:1058D00064E573E08CE090E00E94F10641E063E54E
:1058E00073E08DE090E00E94F10641E061E573E035
:1058F0008EE090E00E94F10641E066E573E08FE003
:1059000090E00E94F10641E06FE473E080E190E0F6
:105910000E94F10641E06CE971E087E190E00E94AD
:10592000F10641E06BE773E088E190E00E94F10648
:1059300042E06DE971E081E190E00E94F10642E011
:105940006AE971E083E190E00E94F10642E064E4DC
:1059500073E085E190E00E94F10642E06FE673E0BB
:105960008AE290E00E94F10642E061E773E08CE297
:1059700090E00E94F10642E067E773E08EE290E07B
:105980000E94F10642E069E773E080E390E00E9444
:10599000F10642E069E673E082E390E00E94F106DE
:1059A00042E06BE673E084E390E00E94F10642E09F
:1059B00063E673E086E390E00E94F10642E065E66C
:1059C00073E088E390E00E94F1066FC088E994E0FC
:1059D0000E94AF0CE82F8FE98E0F8A3108F4E05255
:1059E0008E2F90E0FC01E154F109E331F10508F05C
:1059F00060C0E157FF4F0C9474310E9470166093A1
:105A00004E0353C00E947016609355034EC00E940F
:105A100070166093520349C00E9470166093500341
:105A200044C00E947016609354033FC00E947016D9
:105A3000609353033AC00E9470166093510335C0BF
:105A40000E9470166093560330C00E9470166093D7
:105A50004F032BC00E94701670E080E090E00E941F
:105A60009C2F2FE632E143E85AE30E9453306B014A
:105A70007C016093950170939601809397019093B8
:105A8000980160919A0170919B0180E090E00E94E2
:105A90009C2F9B01AC01C701B6010E9453300E94AC
:105AA0006D2F70939E0160939D0181E090E00E94B4
:105AB00051168091B6049091B704A091B804B091AA
:105AC000B90480938C0390938D03A0938E03B093BD
:105AD0008F0380E090E0892B11F40C94BA1B0E9494
