:100000000C9432040C945A040C9448060C949006F8
:100010000C946C060C945A040C945A040C945A04D4
:100020000C945A040C945A040C94AF090C94520783
:100030000C945A040C945A040C945A040C945A04C8
:100040000C945A040C945A040C945A040C945A04B8
:100050000C945A040C945A040C945A040C94B51839
:100060000C945A040C945A040C945A040C945A0498
:100070000C945A040C945A040C945A040C945A0488
:100080000C945A040C945A040C945A040C945A0478
:100090000C94A90E0C945A040C945A040C945A040F
:1000A0000C945A040C945A040C945A045E20BF20F9
:1000B00066225C211B2316255724B72500263126EE
:1000C0006326D5269C260130E62B622C4731422D33
:1000D000D430772CC72D473147314731473147312D
:1000E0004731EE2B742C4731832B7D2B4731D62A99
:1000F000542B722D4731CF2E742CDE2DF82D122E5D
:100100002C2E462E602E782E47314731473147310D
:10011000473147314731473147314731C02EE62E0D
:10012000002F1A2F342F4E2F682F822F9C2F4731EC
:1001300047314731473147314731473147314731FF
:10014000B62F0E311331F030F5304731FA30EB3045
:10015000473109311831473147310431473147318F
:10016000473147314731FF30BB10C010C510CF10A9
:10017000191119111911D910E310ED10F71004110C
:1001800019110C115B165E16511655167F167F1647
:100190007F16621666166A16701674167F167A1621
:1001A00005A84CCDB2D44EB93836A9020C50B9913D
:1001B0008688083CA6AAAA2ABE000000803F00004C
:1001C0000000000000002A2B2800000000000000B2
:1001D00000000000000000000000000000002C9E55
:1001E000B4A0A1A2A434A6A7A5AE362D3738271EE9
:1001F0001F20212223242526B333B62EB7B89F848F
:1002000085868788898A8B8C8D8E8F909192939426
:1002100095969798999A9B9C9D2F3130A3AD350464
:1002200005060708090A0B0C0D0E0F101112131406
:1002300015161718191A1B1C1DAFB1B0B500080B05
:100240000002020201000904000001020200000590
:1002500024001001052401010104240206052406DE
:1002600000010705810310004009040100020A0093
:10027000000007050202400000070583024000005D
:10028000090402000203000000092101010001220B
:10029000E104070584034000010705050340000150
:1002A00005010904A10185040901A1000930170015
:1002B00000000027FFFF0000350047FFFF0000752A
:1002C0001095018102093116000027FFFF0000355B
:1002D0000047FFFF000075109501810209321600EA
:1002E0000027FF0F0000350047FF0F0000750C9539
:1002F000018102093316000027FF0F000035004777
:10030000FF0F0000750C95018102093416000027CB
:10031000FF0F0000350047FF0F0000750C950181AD
:10032000020939150125083500463B0165145500C1
:100330007504950181020509150025015500650028
:100340001901291875019518810285F10901150017
:1003500026FF00953F7508918285F20901953F754A
:10036000088182C0050F0992A1028502099F09A098
:1003700009A409A509A61500250135004501750147
:100380009505810295038103099415002501350027
:1003900045017501950181020922150125283501C4
:1003A0004528750795018102C00921A1028501092F
:1003B0002215012528350145287508950191020966
:1003C00025A1020926092709300931093209330913
:1003D000340940094109420943250B1501350145FE
:1003E0000B750895019100C009500954150027FFAD
:1003F000FF0000350047FFFF000066011055FD7546
:10040000109502910255006600000952150026FF62
:100410007F350046FF7F7510950191020953150144
:100420002508350145087508950191020955A10275
:100430000501093009311500250175019502910268
:10044000C0050F095695019102950591030957A121
:10045000020B01000A000B02000A0066140055FEA0
:10046000150026FF7F3500479F8C00007510950111
:1004700091025500660000C0050F09A766011055DE
:10048000FD150027FFFF0000350047FFFF00007546
:1004900010950191026600005500C0050F095AA190
:1004A0000285020922150125283501452875089580
:1004B000019102095B095D150026FF00350046FF2A
:1004C0007F750895029102095C095E66011055FD71
:1004D00026FF7F46FF7F751095029102660000554A
:1004E00000C0095FA10285030922150125283501F5
:1004F000452875089501910209231500250135004D
:1005000045017504950191020958A1020B01000AE9
:10051000000B02000A00750295029102C0096016E4
:10052000008026FF7F36008046FF7F751095019181
:1005300002096136008046FF7F9501910215002671
:10054000FF7F350046FF7F09637510950191020911
:1005500065150026FF0046FF7F750895019102C0D2
:10056000096EA102850409221501252835014528B7
:100570007508950191020970150026FF7F35004628
:10058000FF7F751095019102096F16008026FF7F8D
:1005900036008046FF7F950191020971150026FF04
:1005A00000350046670166140055007508950191F5
:1005B00002097227FFFF000047FFFF0000660110DD
:1005C00055FD7510950191026600005500C0097334
:1005D000A102850509221501252835014528750840
:1005E00095019102097016018026FF7F3601804631
:1005F000FF7F751095019102C00974A1028506095B
:100600002215012528350145287508950191020913
:100610007509761581257F36018046FF7F7508951F
:10062000029102C0050F0977A102850A092215016E
:100630002528350145287508950191020978A10200
:100640000979097A097B150125037508950191003F
:10065000C0097C150026FF00350046FF009102C04E
:100660000990A102850B092215012528350145288D
:10067000750895019102C00996A102850C09970998
:10068000980999099A099B099C15012506750895F1
:10069000019100C0097DA102850D097E150026FF8C
:1006A000003500461027750895019102C009ABA1DD
:1006B0000285050925A10209260927093009310902
:1006C000320933093409400941094209431501251A
:1006D0000B3501450B75089501B100C00501093BBB
:1006E000150026FF01350046FF01750A9501B1028C
:1006F0007506B101C0050F0989A1028506092225E9
:100700002815013501452875089501B102098BA10D
:1007100002098C098D098E250315013501450375E4
:10072000089501B100C009AC150027FFFF00003596
:100730000047FFFF000075109501B100C0097FA1BF
:10074000028507098075109501150027FFFF00003D
:10075000350047FFFF0000B102098326FF0046FF76
:100760000075089501B10209A909AA75019502153C
:1007700000250135004501B10275069501B103C0A0
:10078000C01803410072006400750069006E006FBC
:100790000020004C004C00430004030904220341E4
:1007A0000072006400750069006E006F0020004D4B
:1007B000006900630072006F00200020002000121A
:1007C00001000200000040412337800001010200C7
:1007D00001120100020200004041233780000101A4
:1007E00002000100C18081C1C00000000024002778
:1007F000002A002D00300000000000250028002BFA
:10080000002E003100040404040403040502020263
:100810000204030202020206060606060604040299
:1008200002020404040802011040804010204080AD
:100830004080080204018040201002011080102036
:100840004040200000000200080E000003040100E8
:100850000B0000000000000000000000000000008D
:100860000000613111241FBECFEFDAE0DEBFCDBF43
:1008700011E0A0E0B1E0ECEEFAE602C005900D92C6
:10088000AC3AB107D9F725E0ACEAB1E001C01D925E
:10089000AF36B207E1F714E0C2E3D4E004C0219719
:1008A000FE010E946235C133D107C9F70E94FF18CB
:1008B0000C9474350C9400008C30F8F4282F30E040
:1008C0009EE1899FF0011124E251FE4F908199230E
:1008D000A1F090819D7F9083F901E953FC4F9581B0
:1008E00091110BC0E091AD01F091AE010084F18552
:1008F000E02D09951092D70308950895FC01CB01CE
:100900002091E80022FFFCCF282F215028F03091C1
:10091000F10030833196F9CF24E62093BB032BEF0F
:100920002093E80008950F931F93CF93DF93DB018B
:10093000A40FB51FFB016EEFEA17FB0791F187FFCC
:1009400002C0249101C020810091BF031091C00317
:10095000C091BD03D091BE030C171D07B4F4909154
:10096000E8009570E1F39091E80092FD1CC020939F
:10097000F1002091BF033091C0032F5F3F4F2F73D1
:100980003327232B11F46093E8002091BF033091AB
:10099000C0032F5F3F4F3093C0032093BF033196B6
:1009A000CBCFCA0102C08FEF9FEFDF91CF911F9194
:1009B0000F910895CF93DF9300D000D01F92CDB751
:1009C000DEB7FC0181819081913A29F5813009F0EF
:1009D000BCC08281863051F445E050E062EC73E0A7
:1009E00080E40E9493041092C203AFC0873009F0E4
:1009F000ACC089838FEF9FEF9B838A838BE08C83CE
:100A000083E08D8345E050E0BE016F5F7F4F80E45F
:100A10000E9493049AC0913209F097C0893009F07E
:100A200094C08281853009F090C064E070E0CE010E
:100A300001960E947E0486E08093C20380910F019C
:100A40008B3021F1A0910F0181E08A0F80930F017B
:100A50009EE1E0910F019E9FF0011124E251FE4FB3
:100A60008081882351F080910F018B3030F4809188
:100A70000F018F5F80930F01ECCF8EE1A89FF001F3
:100A80001124E251FE4F81E0808301C0A0E0A093D9
:100A9000C303A11104C082E08093C40350C010922C
:100AA000480581E08093C4038A819EE1A99FD0011B
:100AB0001124A251BE4F11968C9311978FEF9FEF87
:100AC00050969C938E931F9754961C921E92539708
:100AD00052961C921E92519713968C9313971496CC
:100AE0008C93149756961C921E9255971E961C92A4
:100AF0001E921D9716961C9216978FEF9FE71A96D7
:100B00009C938E93199758961C921E9257975C96B9
:100B10001C921E925B975D961C925D9788EE93E007
:100B20001C969C938E931B97E091AD01F091AE01C2
:100B30000684F785E02DBD01CE01019609958FEF62
:100B40009FEF9093C6038093C50381E00F900F90B1
:100B50000F900F900F90DF91CF91089542E450E0F5
:100B60006EE372E080E80E94930440E250E060E8A7
:100B700072E080E80E94930483E090E00895EF9291
:100B8000FF921F93CF93DF93EC01162FE881F98139
:100B90000480F581E02D09957C01E881F9810680CA
:100BA000F781E02D612FCE010995C7019927DF91CB
:100BB000CF911F91FF90EF900895FC01918180816A
:100BC000813A29F49D7F81E0913091F414C0813203
:100BD00079F49A3049F09B3019F0993049F40AC001
:100BE000828180930E0106C0828180930D0102C034
:100BF00080E0089581E008958C30F0F49EE1899FB3
:100C0000F0011124E251FE4F80818823A9F08081F8
:100C1000826080838091D70381110EC00E94F617F5
:100C20006093BE017093BF018093C0019093C10196
:100C300081E08093D70308950895CF92DF92EF92D9
:100C4000FF920F931F938B019C014091B60150912D
:100C5000B7016A01E12CF12C66277727CB016C19CB
:100C60007D098E099F0906171707280739074CF0D9
:100C7000C901B801C016D106E206F30614F4C70193
:100C8000B6011F910F91FF90EF90DF90CF900895E4
:100C90001F920F920FB60F9211248F939F93AF93D1
:100CA000BF9380915A0390915B03A0915C03B09134
:100CB0005D03F89480939C0490939D04A0939E04FC
:100CC000B0939F047894BF91AF919F918F910F90B3
:100CD0000FBE0F901F9018951F920F920FB60F9294
:100CE00011242F933F934F935F936F937F938F9331
:100CF0009F93AF93BF93EF93FF930E949316FF913F
:100D0000EF91BF91AF919F918F917F916F915F9183
:100D10004F913F912F910F900FBE0F901F901895FC
:100D20001F920F920FB60F9211242F933F934F9360
:100D30005F936F937F938F939F93AF93BF93EF9343
:100D4000FF930E949316FF91EF91BF91AF919F91F6
:100D50008F917F916F915F914F913F912F910F9064
:100D60000FBE0F901F901895CF92DF92EF92FF92D7
:100D70000F931F93CF93DF931F92CDB7DEB7F82E5B
:100D8000E42E8B01C82ED92E8C2D8F198E1588F448
:100D9000F80161918F01C60169830E94F731698171
:100DA000681719F0C6010E94FF31FFEFCF1ADF0A62
:100DB000EBCF0F90DF91CF911F910F91FF90EF90AC
:100DC000DF90CF900895CF92DF92EF92FF920F9332
:100DD0001F93CF93DF931F92CDB7DEB78B016B01CB
:100DE0007C01E61AF70A9C2D901B941758F4C70152
:100DF0008C0D9D1D49830E94F731F60181936F018F
:100E00004981F1CF0F90DF91CF911F910F91FF900A
:100E1000EF90DF90CF9008958F929F92AF92BF9204
:100E2000CF92DF92EF92FF9240E050E020E0682FF7
:100E300070E0812C912C54018394FA013296DB01ED
:100E400002C0B595A795EA95E2F775016401042EF5
:100E500004C0CC0CDD1CEE1CFF1C0A94D2F7A0FFD2
:100E600002C02C2902C0C0942C214F5F5F4F443038
:100E7000510519F730E0220F331FF901EC5CFE4FEA
:100E800080FF05C0808191819695879502C0808101
:100E90009181FF90EF90DF90CF90BF90AF909F90A7
:100EA0008F9008951F920F920FB60F921124EF9218
:100EB000FF921F932F933F934F935F936F937F9373
:100EC0008F939F93AF93BF93EF93FF93CF93DF9352
:100ED000CDB7DEB76197DEBFCDBF1092E90080913C
:100EE000E80083FF59C1FE013A96CF0128E02E0F9A
:100EF0002E1729F03091F10030833196F9CF24E696
:100F00002093BB0322EF2093E8002A8527FF05C02A
:100F10003091E80030FFFCCF03C03EEF3093E80093
:100F2000322F307609F0C5C08B85811105C0109233
:100F3000F1001092F10029C1982F9D7F913009F4A2
:100F400024C1853049F48091E80080FFFCCF8C8576
:100F500080688093E30019C1863009F07CC01D854C
:100F6000E888F9881092E9001092C0031092BF033C
:100F7000123091F51092BE031092BD030E94AE058F
:100F800099E0BE016F5F7F4FFB01292F11922A95D7
:100F9000E9F799831A8391E09E8390E898879AEF06
:100FA00099872091BF033091C003275F3F4F3C8357
:100FB0002B838D831092E9001092C0031092BF031F
:100FC000F092BE03E092BD0349E050E080E00E9451
:100FD00093040E94AE05D9C0F092BE03E092BD0317
:100FE000123259F441EE54E060EA72E080E80E9467
:100FF0009304892B09F0C9C0CCC0113069F48889E9
:101000009989089711F41093BC038091BC03811156
:1010100011C06FEB77E016C0133009F0BAC08C85B1
:10102000882359F0823061F0813009F0B2C061E864
:1010300077E008C061ED77E005C069E977E002C0BC
:101040006DE977E06115710509F4A3C0FB014491D6
:1010500050E080E849C0873009F49BC0883021F413
:1010600081E08093F10091C0893009F08EC0237037
:1010700009F08FC080E090E031E026E341E0480FC6
:101080004093E9003093EB000196FC01ED51F84FDD
:10109000E491E093EC002093ED008530910571F729
:1010A0008EE78093EA001092EA008C858093AC0171
:1010B0006CC0288939891092E9001092C0031092FF
:1010C000BF033093BE032093BD032E85211154C06E
:1010D0008B859A85913A59F4813209F05AC047E0DC
:1010E00050E060E171E080E00E9493044EC09132D4
:1010F00009F04FC0803239F467E070E080E191E0A0
:101100000E947E0442C0823209F043C08C858093E5
:1011100017018091100190911101A0911201B091DD
:101120001301803B9440A105B10579F58091170129
:1011300080FD11C087E797E790930108809300082E
:101140009BE088E10FB6F894A895809360000FBEED
:10115000909360001AC00FB6F894A8958091600033
:10116000886180936000109260000FBEA895109275
:1011700001081092000809C0223059F4E091490595
:10118000F0914A050995882321F08EEF8093E800BD
:1011900003C081E28093EB0061960FB6F894DEBF46
:1011A0000FBECDBFDF91CF91FF91EF91BF91AF9176
:1011B0009F918F917F916F915F914F913F912F916F
:1011C0001F91FF90EF900F900FBE0F901F901895FA
:1011D0008F929F92AF92BF92CF92DF92EF92FF9247
:1011E0000F931F93CF93DF9300D01F92CDB7DEB73D
:1011F000382F8B018091AC01882389F04A018AEF56
:10120000F82E832F8770E82E90E4C92E832F8072EA
:10121000B82E2AE3D22E832F8074A82E21C08FEF00
:101220009FEF5FC08FB7F894E092E9009091E800DB
:1012300095FF1AC09091F2002C2D291B8FBF211110
:1012400015C0FA94FF2059F361E070E080E090E06F
:1012500039834A835B830E94D01739814A815B813D
:1012600081149104F9F634C020E0E8CF822F90E099
:10127000881699060CF4282D822F90E0881A990A76
:101280006FB7F894E092E900BB2029F02150A8F054
:101290001092F100FBCFF80137FF07C0215058F042
:1012A00074917093F1003196F9CF215020F0719133
:1012B0007093F100FACF080F191F8091E80085FFA5
:1012C0000DC08114910411F4A11008C06FBFC8CFE4
:1012D0005D9A84E68093C103CA0103C0D092E800FE
:1012E000F5CF0F900F900F90DF91CF911F910F913D
:1012F000FF90EF90DF90CF90BF90AF909F908F9036
:1013000008959091AC01992311F057FF03C08FEF1E
:101310009FEF08952FB7F89487708093E90080912C
:10132000F20090E0841795070CF4AC01842FFB01C8
:1013300094E6815030F09093BB033091F1003193EB
:10134000F8CF4115510521F08091F200882319F062
:101350002FBFCA0108958BE68093E800F9CF1F9252
:101360000F920FB60F9211242F933F934F935F93D9
:101370006F937F938F939F93AF93BF93EF93FF935D
:10138000CF93DF93CDB7DEB7C054D109DEBFCDBF59
:101390008091E1001092E10083FF0FC01092E900FC
:1013A00091E09093EB001092EC0092E39093ED00AB
:1013B0001092AC0198E09093F00082FF46C083E069
:1013C0008093E9008091F200882319F08AE38093EA
:1013D000E8009FB7F89482E08093E9008091F200E2
:1013E0009FBF882321F081EA94E00E946E0E9FB790
:1013F000F89485E08093E9008091F2009FBF8823F4
:10140000C1F080914B0590914C05892B91F040E4FF
:1014100050E0BE016F5F7F4F85E00E94810997FD1C
:1014200008C0E0914B05F0914C05BC01CE0101963E
:1014300009958091C103882341F08091C1038150B7
:101440008093C103811101C05D98C05CDF4F0FB66E
:10145000F894DEBF0FBECDBFDF91CF91FF91EF912A
:10146000BF91AF919F918F917F916F915F914F91BC
:101470003F912F910F900FBE0F901F901895EF92F4
:10148000FF920F931F93CF93DF931F92CDB7DEB7D9
:1014900089838B017A0141E050E0BE016F5F7F4F8D
:1014A00084E00E94E808A701B80184E40E94E808EB
:1014B0000F90DF91CF911F910F91FF90EF900895C2
:1014C0001F93CF93DF93DC0111961C9111979C9190
:1014D000953009F467C060F5923009F443C0A8F470
:1014E000913009F04DC1E091AD01F091AE012EE1D6
:1014F000129FB001112462517E4F028CF38DE02DBA
:10150000CD01DF91CF911F9109949330C9F19430AF
:1015100009F036C1E091AD01F091AE012EE1129FCC
:10152000B001112462517E4F0488F589E02D35C049
:101530009B3009F49DC038F4963009F441C09A30CC
:1015400009F44CC01DC19C3009F4CBC0913F09F097
:1015500017C140E450E0BD0182EFDF91CF911F91B0
:101560000C943F0AE091AD01F091AE013EE1139F72
:10157000B001112462517E4F0088F189E02D0DC029
:10158000E091AD01F091AE018EE1189FB001112400
:1015900062517E4F0288F389E02DCD01DF91CF911A
:1015A0001F910994E091AD01F091AE013EE1139FCE
:1015B000B001112462517E4F0688F789E02DEDCFEE
:1015C000E091AD01F091AE018EE1189FB0011124C0
:1015D00062517E4F008CF18DE02DDFCF1F3F09F46B
:1015E0001FE712969C91913099F4812F0E94FC057F
:1015F000E12FF0E0E953FC4F85818111C1C0E091FA
:10160000AD01F091AE010680F781E02D812F47C03A
:10161000923029F5C1E08C2F0E945C04CF5FCC3062
:10162000D1F7C12FD0E0C953DC4F8D81811109C0A2
:10163000E091AD01F091AE010084F185E02D8FE7DE
:101640000995812F0E94FC058D81811199C0E0913F
:10165000AD01F091AE010680F781E02D1FC09330FF
:1016600009F08EC0812FDF91CF911F910C945C0403
:1016700081E01F3FC1F480930F0188E691E0EEEE18
:10168000F1E0DF019C011D9221503040E1F7E09133
:10169000AD01F091AE010284F385E02D8FE7DF917B
:1016A000CF911F910994809348051C3008F068C0C1
:1016B0003EE1139FF0011124E251FE4F1082809110
:1016C0000F01181710F410930F01E091AD01F09184
:1016D000AE010284F385E02D812F09951092D70386
:1016E0004FC082E08093D8039091D9039460909387
:1016F000D9039091D90390619093D9031092DA03A2
:101700001330B1F040F4113079F01230C9F5809106
:10171000D903826033C0153071F1B0F0163081F515
:101720008091D9038E7F2AC08091D9038D7F26C0F6
:10173000E091AD01F091AE010480F581E02D80E0F3
:1017400009951092DA031CC0E091AD01F091AE0151
:101750000480F581E02D81E0099581E080930F01FF
:1017600088E691E0EEEEF1E0DF019C011D92215050
:101770003040E1F705C08091D90381608093D9039F
:10178000DF91CF911F910895DC01683810F06858FF
:1017900025C0E62FF0E067FF12C0E058F10981E0B4
:1017A00090E001C0880FEA95EAF7809514969C9125
:1017B0001497892314968C93149760E00FC0E25419
:1017C000FE4F6491662311F167FF08C014968C9157
:1017D00014978D7F14968C9314976F77FD0136962E
:1017E00086E0662321F09081961301C0108281501B
:1017F00031968111F6CFBD016C5F7F4F48E050E01C
:1018000082E00E943F0A81E090E0089580E090E04D
:101810000895FC011682178210861186128613869F
:101820001482BC016C5F7F4F48E050E082E00C9472
:101830003F0ADC01683810F068582DC0E62FF0E050
:1018400067FF11C0E058F10981E090E001C0880F06
:10185000EA95EAF714969C911497892B14968C9329
:10186000149760E018C0E254FE4F6491611109C002
:1018700081E090E013969C938E93129780E090E025
:10188000089567FF08C014968C911497826014968F
:101890008C9314976F7716968C911697861751F143
:1018A00017968C911797861729F118968C9118978F
:1018B000861701F119968C9119978617D9F01A9607
:1018C0008C911A978617B1F01B968C911B978617EF
:1018D00089F0FD01369680E090E02191211105C04C
:1018E000FD01E80FF91F668305C00196863091055A
:1018F000A1F7BECFBD016C5F7F4F48E050E082E0B2
:101900000E943F0A81E090E00895CF92DF92EF922B
:10191000FF920F931F93CF93DF936C01EB017B0139
:10192000E40EF51E00E010E0CE15DF0561F06991D0
:10193000D601ED91FC910190F081E02DC601099551
:10194000080F191FF1CFC801DF91CF911F910F919F
:10195000FF90EF90DF90CF90089583E08093E900AF
:101960008091F200882319F08AE38093E8000895BB
:101970002091960430919704809198049091990455
:1019800028173907A9F0E0919804F0919904EA5AD0
:10199000FB4F808120919804309199042F5F3F4F35
:1019A0002F733327309399042093980490E008957F
:1019B0008FEF9FEF089520919604309197048091C6
:1019C0009804909199042817390749F0E0919804F8
:1019D000F0919904EA5AFB4F808190E008958FEFCF
:1019E0009FEF089580919604909197042091980418
:1019F00030919904821B930B8F739927089585ED7D
:101A00008093BC008091BC0084FDFCCF1092300418
:101A1000089540910A04262F30E0240F311D213211
:101A20003105DCF4209130042430C9F4FC0180E05D
:101A300090E0861758F430910A042191DC01A851F6
:101A4000BC4FA30FB11D2C930196F3CF80910A04D4
:101A5000680F60930A0480E0089581E0089582E0B1
:101A6000089508958FEF9FEF08958FEF9FEF0895EA
:101A70008091E70390E09195819591090895CF9326
:101A8000DF9300D0CDB7DEB7CB01642F49835A83F3
:101A90000E94090D4981842F5A81952F0F900F9034
:101AA000DF91CF910895CF93DF931F92CDB7DEB72B
:101AB000698361E0CE0101960E94090D81E090E00A
:101AC0000F90DF91CF9108950895CF93DF93FC019C
:101AD000EB01718182818983878190859A878987CB
:101AE00025853685438154816EE1769FC00111249E
:101AF00082519E4FDC0150965C934E931F975696F1
:101B00003C932E93559764E0769FD0011124A25404
:101B1000BE4F1D921D921D921C9213978385948532
:101B20009E878D8782858E8381E0DF91CF91089596
:101B3000FC012281FB012783FC018381FB0180875B
:101B40000895FC0182819381FB01908F878B08951A
:101B5000DC01FB0112968D919C911397908F878BDE
:101B600014968D919C911597948F838F16968C91D6
:101B70001697858F17968D919C91189794878387D8
:101B80000895DC01FB0112968C9112978283828169
:101B9000811110C015968D919C911697908F878B0F
:101BA00013968D919C911497948F838F17968C9197
:101BB0008583089582810895DC01FB0112968C9142
:101BC0001297838313968C911397848314968D9127
:101BD0009C911597948B838B16968D919C9117975A
:101BE000928B818B08959EE1899FF0011124E2512F
:101BF000FE4F708B6787568B458B94E0899FF00171
:101C00001124E254FE4F1082118212821382089531
:101C1000089508951092480524E0829FC001112480
:101C2000FC01E254FE4F1082118212821382089549
:101C300025E0FC0120838EE491E0089508958093CF
:101C400048050895CF92DF92EF92FF926091BB0119
:101C50007091BC01072E000C880B990B0E948C33ED
:101C60006B017C016091560370915703809158037A
:101C7000909159030E948C339B01AC01C701B601BE
:101C80000E94E232FF90EF90DF90CF9008950E9483
:101C90006F350F931F93CF93DF931F92CDB7DEB7AE
:101CA0008C01698380911701882359F041E050E04D
:101CB000BE016F5F7F4F83E00E94E8081816190687
:101CC0003CF081E090E0F8019383828380E090E033
:101CD0000F90DF91CF911F910F9108950F931F9354
:101CE000CF93DF931F92CDB7DEB70091960410918A
:101CF00097040F5F1F4F0F731127809198049091E5
:101D0000990408171907F9F041E050E0BE016F5F30
:101D10007F4F82E00E948109019719F4898190E048
:101D200002C08FEF9FEF8F3F2FEF920761F0E0919E
:101D30009604F0919704EA5AFB4F8083109397041E
:101D400000939604D2CF0F90DF91CF911F910F9106
:101D500008951F920F920FB60F9211242F933F9365
:101D60004F935F936F937F938F939F93AF93BF93A3
:101D7000EF93FF938091B900887F803609F49CC06F
:101D800068F5883209F45BC090F4803109F454C0DE
:101D900038F4882309F4F6C0883009F44DC0F6C041
:101DA000883109F44CC0803209F45DC0EFC0803442
:101DB00009F468C048F4803309F455C0883309F049
:101DC000E5C080932F04D8C0803509F44FC0883512
:101DD00009F45DC0883409F0D9C0D6C0883909F447
:101DE000C7C0A8F4883709F467C038F4883609F406
:101DF00063C0803709F460C0C9C0883809F4B8C02E
:101E0000803909F45FC0803809F0C0C05BC0803BF6
:101E100009F486C038F4803A09F466C0883A09F4B7
:101E20007FC0B4C0803C09F4A7C0883C09F4A4C0BA
:101E3000883B09F48AC0AAC08091550410C09091D3
:101E4000540480915304981770F5E091540481E094
:101E50008E0F80935404F0E0ED5CFB4F8081809303
:101E6000BB0085EC86C080932F048EC0E0915404A3
:101E700081E08E0F809354048091BB00F0E0ED5C14
:101E8000FB4F808390915404809153046EC0E09185
:101E9000540481E08E0F809354048091BB00F0E0E5
:101EA000ED5CFB4F80838091320481116DC081E035
:101EB0008093310484EA61C083E0809330041092FF
:101EC0002E04CFCF80912E04803208F051C0E091D3
:101ED0002E0481E08E0F80932E048091BB00F0E0F1
:101EE000E25FFB4F8083BDCF85EC8093BC001092F6
:101EF000300480912E04803230F4E0912E04F0E022
:101F0000E25FFB4F108260912E0470E0E0910C04C0
:101F1000F0910D048EE094E0099510922E0436C0E5
:101F200084E08093300410920B0410920A04E09134
:101F30000804F0910904099580910A04811105C0F3
:101F400081E080930A041092E803E0910B0481E0A1
:101F50008E0F80930B04F0E0E851FC4F808180935A
:101F6000BB0090910B0480910A04981708F479CF74
:101F700085E88093BC000AC085EC8093BC00109279
:101F8000300404C010922F040E94FF0CFF91EF91C7
:101F9000BF91AF919F918F917F916F915F914F9181
:101FA0003F912F910F900FBE0F901F901895209189
:101FB000AF013091B0012817390708F4C901909397
:101FC0008B0080938A0008952091AF013091B00179
:101FD0002817390708F4C901909389008093880075
:101FE00008954F925F926F927F928F929F92AF92DD
:101FF000BF92CF92DF92EF92FF920F931F93CF93F6
:10200000DF93CDB7DEB760970FB6F894DEBF0FBE93
:10201000CDBF009709F46DC38C016091BD0170E0E4
:1020200080E090E00E948C332AE037ED43E25CE3ED
:102030000E94413469837A838B839C83F80180807A
:102040009180A280B380B7FE08C0B094A094909411
:102050008094811C911CA11CB11CC501B4010E947B
:102060008C336B017C016091B6017091B70180E007
:1020700090E00E948A332B013C0126E636E646E6D4
:102080005FE30E94413429813A814B815C810E9447
:1020900041346D837E838F8398879B01AC01C70198
:1020A000B6010E943C3487FDCAC0A3019201698138
:1020B0007A818B819C810E94413469877A878B87E2
:1020C0009C8720E030E040E85FE30E9470329B0193
:1020D000AC01C701B6010E94DD3287FFB0C06D813F
:1020E0007E818F8198850E9454336B017C01A5010C
:1020F0009401261B370B480B590BAEE3B0E00E944E
:102100002C324B015C0169857A858B859C850E9408
:1021100054339B01AC012C193D094E095F09C501DF
:10212000B4010E940D3269017A01FFEFCF1ADF0A74
:10213000EF0AFF0A560161E083E00E946F17C114A5
:10214000D10411F480E005C08FEFC816D10421F44A
:1021500081E00E9439168AC0E6E4F8E0E4918E2F0F
:1021600090E0FC013197EE30F10508F062C0EC54CC
:10217000FF4F0C94623584B5806884BDC7BC76C0BF
:1021800084B5806284BDC8BC71C0809180008068C5
:1021900080938000D0928900C092880067C08091AF
:1021A0008000806280938000D0928B00C0928A0071
:1021B0005DC080919000806880939000D0929900DB
:1021C000C092980053C080919000806280939000EC
:1021D000D0929B00C0929A0049C080919000886084
:1021E00080939000D0929D00C0929C003FC080914F
:1021F000C00080688093C0008091C0008F7B809376
:10220000C000C092CF0032C08091C0008062809335
:10221000C000C092D0002AC08091C2008860809324
:10222000C2008091C2008B7F8093C200C092D20016
:102230001DC0E0E8AE16B1040CF08ACF83CFA30135
:10224000920169817A818B819C810E94413420E0D6
:1022500030E040E85FE30E9470329B01AC01C701AF
:10226000B6010E943C3487FD6DCF72CF6091B801FA
:1022700070E060587109072E000C880B990B0E94C2
:102280008C3320E030E04FE753E40E94E2326B01F0
:102290007C016093E3037093E4038093E5039093E0
:1022A000E60320E030E0A9010E943C3487FD1DC018
:1022B000A701960160E070E080E89FE30E94703221
:1022C0006093DF037093E0038093E1039093E20354
:1022D00080E090E0A0E8BFE38093DB039093DC0311
:1022E000A093DD03B093DE0323C020E030E0A9011A
:1022F000C701B6010E94DD3287FF1AC080E090E07E
:10230000A0E8BFE38093DF039093E003A093E10391
:10231000B093E2039C01AD01C701B6010E94713286
:102320006093DB037093DC038093DD039093DE0303
:102330009091B501F801C080D180E280F380892FAF
:10234000807491FDEAC0811195C01C141D041E0407
:102350001F04E4F54090B6015090B7012091B901F7
:102360003091BA014901A12CB12C612C712CC3010F
:10237000B2010E948A332091DB033091DC0340914B
:10238000DD035091DE030E9441340E9454336819EA
:1023900079098A099B09A70196010E943E35A3018C
:1023A00092010E940D32DA01C901880D991DAA1D02
:1023B000BB1DF80180839183A283B38380E090E00A
:1023C0000E94E40FF8018081918146C0C114D104BC
:1023D000E104F10409F444C04090B6015090B70103
:1023E0008091B9019091BA014C01A12CB12CF094CB
:1023F000E094D094C094C11CD11CE11CF11C612C50
:10240000712CC301B2010E948A332091DF03309105
:10241000E0034091E1035091E2030E9441340E94A5
:102420005433681979098A099B09A70196010E940A
:102430003E35A30192010E940D32DA01C901880DD7
:10244000991DAA1DBB1DF80180839183A283B383CC
:102450000E94E40F80E090E00E94D70F2A9A49C1C1
:1024600080E090E00E94E40F80E090E00E94D70FAF
:102470002A983FC1E091B601F091B7011C141D04E8
:102480001E041F04DCF44F01969487948091B901D7
:102490009091BA01880E991EA12CB12C2F01612CAC
:1024A000712CC301B201681979098A099B09A70136
:1024B00096010E943E35A301920119C0C114D104B6
:1024C000E104F10411F14F01969487948091B901D0
:1024D0009091BA01881A990AA12CB12CA5019401F6
:1024E000C701B6010E943E359F0140E050E00E94C6
:1024F0000D32DA01C901880D991DAA1DBB1DF80115
:1025000080839183A283B38303C0CF01969587957F
:102510000E94E40F80E090E0D4C0811133C0F7FC4A
:1025200002C02A9A01C02A988091B9019091BA01FB
:102530006C01E12CF12C8090B6019090B701A12C98
:10254000B12CF801208131814281538157FF07C0AE
:1025500050954095309521953F4F4F4F5F4FC501A6
:10256000B4016C197D098E099F090E943E35A501B1
:1025700094010E940D32DA01C9018C0D9D1DAE1D22
:10258000BF1D81C01C141D041E041F046CF520E037
:1025900030E040E85FE36091B1017091B201809159
:1025A000B3019091B4010E947132209104013091E5
:1025B000050140910601509107010E9441340E949B
:1025C00054334B015C0160910001709101018091D5
:1025D0000201909103010E945433681979098A0914
:1025E0009B09A70196013FC0C114D104E104F10485
:1025F00009F44FC02091B1013091B2014091B30173
:102600005091B40160E070E080E89FE30E94703276
:10261000209104013091050140910601509107017C
:102620000E9441340E9454334B015C01222733271E
:10263000A9012C193D094E095F09609108017091AB
:10264000090180910A0190910B012D873E874F87E8
:10265000588B0E945433681979098A099B092D8582
:102660003E854F8558890E943E352091B6013091B4
:10267000B70140E050E00E940D32DA01C901880D37
:10268000991DAA1DBB1DF80180839183A283B3838A
:102690000BC0609104017091050180910601909139
:1026A00007010E945B33CB010E94E40F609104019B
:1026B0007091050180910601909107010E945B33A2
:1026C000CB0160960FB6F894DEBF0FBECDBFDF9191
:1026D000CF911F910F91FF90EF90DF90CF90BF901F
:1026E000AF909F908F907F906F905F904F900C94E1
:1026F000D70F60960FB6F894DEBF0FBECDBFDF9147
:10270000CF911F910F91FF90EF90DF90CF90BF90EE
:10271000AF909F908F907F906F905F904F900895B3
:102720006091AF017091B00180E090E00E948A3327
:102730009B01AC0160E07EEF8FEF96E40E94E232F5
:1027400008952F923F924F925F926F927F928F9255
:102750009F92AF92BF92CF92DF92EF92FF920F9330
:102760001F93CF93DF93CDB7DEB729970FB6F894B9
:10277000DEBF0FBECDBF998788874B012B831D839A
:102780000C831701DF82CE82042F10E08C819D81A3
:102790006C01E12CF12CE885F985F7FD2BC0C8010F
:1027A0009695982F882797958795BF01681B790B79
:1027B000072E000C880B990B0E948C332B013C01D7
:1027C000C701B6010E948A339B01AC01C301B2016B
:1027D0000E94E2322B013C01C8019695982F882770
:1027E000979587959A838983EB8190E8E99FB0015B
:1027F00011242AC0B8017695762F662777956795BC
:10280000E885F9856E0F7F1F072E000C880B990B4A
:102810000E948C332B013C01C701B6010E948A3310
:102820009B01AC01C301B2010E94E2322B013C01C9
:1028300060E86003C001619F900D11249A83898331
:102840002B816203B001112488859985681B790B5F
:10285000072E000C880B990B0E948C336B017C01B6
:10286000B10180E090E00E948A339B01AC01C70176
:10287000B6010E94E2326B017C018A149B0408F4C9
:102880003FC08E819F818A0D9B1D88169906C0F5D9
:102890000C811D810A0D1B1D8016910690F4B40158
:1028A0006A197B0980E090E00E948A339B01AC01A9
:1028B000C301B2010E9441340E94543389819A813C
:1028C0001CC08219930988159905E8F48A189B0899
:1028D000EE81FF818E1A9F0AB401620D731D80E0A4
:1028E00090E00E948A339B01AC01C701B6010E94AF
:1028F00041340E94543388859985860F971F05C0FF
:1029000080E090E002C08885998529960FB6F894FA
:10291000DEBF0FBECDBFDF91CF911F910F91FF9012
:10292000EF90DF90CF90BF90AF909F908F907F906F
:102930006F905F904F903F902F9008958F929F924D
:10294000AF92BF92CF92DF92EF92FF92CF93DF933D
:102950004B015C01EA010E94220E6B017C01DE0149
:10296000A50194010E9437320E948C33A701960181
:102970000E94413420E030E040E051E40E944134C4
:1029800020E030E040E251E40E94413420E030E0B9
:1029900040E85BE30E9441340E9454330E941D06CC
:1029A00090958095709561957F4F8F4F9F4FDF91E8
:1029B000CF91FF90EF90DF90CF90BF90AF909F901E
:1029C0008F9008954F925F926F927F928F929F9215
:1029D000AF92BF92CF92DF92EF92FF92CF93DF93AD
:1029E00000D000D0CDB7DEB74B015C0157FF02C06D
:1029F0004D5F5F4F6A01D594C794D594C7940E94E8
:102A0000220E69837A838B839C839B01AC01C50171
:102A1000B4010E94413420E030E040E251E40E94E1
:102A200041342B013C0120E030E040E85FE30E94AC
:102A30003C340D2C000CEE08FF0818161CF4C701DE
:102A4000B60128C020E030E040E85FEBC301B201EE
:102A50000E94DD3287FF06C0C701B6010E941D0635
:102A6000CB011EC0C701B6010E948C339B01AC0193
:102A7000C501B4010E94413429813A814B815C81B6
:102A80000E94413420E030E040E251E40E944134B1
:102A90000E9454330E941D0688279927861B970B96
:102AA0000F900F900F900F90DF91CF91FF90EF90CC
:102AB000DF90CF90BF90AF909F908F907F906F905E
:102AC0005F904F9008958F929F92AF92BF92CF9256
:102AD000DF92EF92FF924B015C01BA01550F880B18
:102AE000990B0E948C336B017C0120E030E0A9013E
:102AF000C501B4010E943C34A501940118160CF0E4
:102B00005058C701B6010E9441346B017C010E94FC
:102B1000220E9B01AC01C701B6010E94413420E0A6
:102B200030E040E851E40E94413420E030E040E2EF
:102B300051E40E94413420E030E040E05DE30E9437
:102B400041340E9454330E941D066B017C0120E039
:102B500030E0A901C501B4010E943C3418162CF4E0
:102B6000882799278C199D090DC020E030E0A90124
:102B7000C501B4010E94DD3287FF02C0C60102C058
:102B800080E090E0FF90EF90DF90CF90BF90AF900B
:102B90009F908F900895CF92DF92EF92FF92CF9304
:102BA000DF936B017C01EA0120E030E0A9010E9483
:102BB0003C34181694F020E030E0A901C701B601BA
:102BC0000E94DD3287FF3AC020E030E0A901C70152
:102BD000B6010E9471326B017C01BE01DD0F880BD2
:102BE000990B0E948C339B01AC01C701B6010E9476
:102BF00041346B017C010E94220E9B01AC01C70194
:102C0000B6010E94413420E030E040E851E40E94E7
:102C1000413420E030E040E251E40E94413420E0C1
:102C200030E040E05BE30E9441340E9454330E9454
:102C30001D0688279927861B970B02C080E090E02D
:102C4000DF91CF91FF90EF90DF90CF9008950097A4
:102C500069F0FC0101900020E9F73197AF01481BB2
:102C6000590BBC0181EA94E00C94850C80E090E063
:102C70000895E6E4F8E04491E7E2F8E09491E8E0B2
:102C8000F8E02491222309F44DC04423C1F150E01F
:102C9000FA013197EE30F10590F5EE53FF4F0C94A9
:102CA0006235309180003F7703C0309180003F7DD6
:102CB0003093800024C034B53F7702C034B53F7DE7
:102CC00034BD1DC0309190003F7707C03091900017
:102CD0003F7D03C030919000377F309390000FC04C
:102CE0003091C0003F7703C03091C0003F7D3093EA
:102CF000C00005C03091C200377F3093C200E22F80
:102D0000F0E0EE0FFF1FE950F84FA591B4912FB7F7
:102D1000F894EC91811103C090959E2301C09E2BE5
:102D20009C932FBF08959091A00489B18C70892B3A
:102D300090E09C0135952795359527952093A00423
:102D400040919C0450919D0460919E0470919F0459
:102D5000FC01ED5AFE4F8081082E000C990BAA0B46
:102D6000BB0B840F951FA61FB71F80939C049093E5
:102D70009D04A0939E04B0939F0480919B040895AA
:102D8000E091A104F091A2040190F081E02D682F60
:102D900081EA94E00994CF93DF938DE00E94C016FE
:102DA000EC018AE00E94C0168C0F9D1FDF91CF912D
:102DB00008958F929F92AF92BF92EF92FF920F93DE
:102DC0001F93CF93DF93CDB7DEB7A1970FB6F894DB
:102DD000DEBF0FBECDBF162F042F19A2423008F45C
:102DE0000AE07E0121E2E20EF11C802E912CA12C42
:102DF000B12C612FA50194010E943F32029F10194E
:102E0000112481E0E81AF1081A3014F4105D01C0B1
:102E1000195CF7011083122F732FCA01232B242B67
:102E2000252B39F7C7010E942716A1960FB6F894F3
:102E3000DEBF0FBECDBFDF91CF911F910F91FF90ED
:102E4000EF90BF90AF909F908F900895CF92DF92B8
:102E5000EF92FF92CF93DF9397FF19C06B017C0134
:102E60008DE20E94C016EC0166277727CB016C1912
:102E70007D098E099F094AE00E94D9168C0F9D1F7B
:102E8000DF91CF91FF90EF90DF90CF9008954AE0CF
:102E9000DF91CF91FF90EF90DF90CF900C94D916F7
:102EA000CF93DF93BC01990F880B990B0E942617D3
:102EB000EC010E94CB168C0F9D1FDF91CF910895DE
:102EC000BC01990F880B990B0C942617682F70E0A2
:102ED00080E090E04AE00C94D9160C942716CF932A
:102EE000DF9390E0FC01EC5DF74F2491FC01EB5F78
:102EF000F74F8491882361F190E0880F991FFC01BE
:102F0000E751F84FC591D491FC01E950F84FA591D4
:102F1000B491611109C09FB7F894888120958223EC
:102F20008883EC912E230BC0623061F49FB7F89434
:102F30003881822F809583238883EC912E2B2C93CC
:102F40009FBF06C08FB7F894E8812E2B28838FBFD0
:102F5000DF91CF9108953FB7F894809152059091F9
:102F60005305A0915405B091550526B5A89B05C001
:102F70002F3F19F00196A11DB11D3FBFBA2FA92FF8
:102F8000982F8827820F911DA11DB11DBC01CD0175
:102F900042E0660F771F881F991F4A95D1F7089561
:102FA000CF92DF92EF92FF92CF93DF936B017C0180
:102FB0000E94AB17EB01C114D104E104F10479F0D4
:102FC0000E94AB176C1B7D0B683E7340A0F381E041
:102FD000C81AD108E108F108C851DC4FECCFDF91E5
:102FE000CF91FF90EF90DF90CF9008952FB7F89496
:102FF00060914E0570914F0580915005909151055B
:103000002FBF08950F931F930E94F6176093A90492
:103010007093AA048093AB049093AC04E091A10454
:10302000F091A2040084F185E02D81EA94E00995F5
:1030300097FF1FC00E94F6170091A9041091AA04DF
:103040002091AB043091AC04DC01CB01801B910BCF
:10305000A20BB30B0091A5041091A6042091A70424
:103060003091A80480179107A207B307B8F28FEF39
:103070009FEF1F910F910895FF920F931F93CF938E
:10308000DF9300D000D0CDB7DEB70E940218FC015C
:1030900097FD11C08D32910591F0C0970A9778F095
:1030A000E091A104F091A2040680F781E02D81EA6D
:1030B00094E00995EACF60E070E0CB014CC020E0DD
:1030C00030E0A901F12CE130F105F1F0ED32F1052C
:1030D000C9F0CF01C0970A97B8F4AAE0B0E00E9407
:1030E0002C328F01FF0F220B330BDC01CB01800F41
:1030F000911FA21FB31F9C01AD012053310941094B
:10310000510902C0FF24F394E091A104F091A204BC
:103110000680F781E02D81EA94E029833A834B838E
:103120005C8309950E940218FC01C09729813A81AD
:103130004B815C810A9738F2E130F10521F2FF20E2
:1031400041F066277727CB01621B730B840B950B2D
:1031500002C0CA01B9010F900F900F900F90DF913C
:10316000CF911F910F91FF9008951F920F920FB66C
:103170000F9211242F933F938F939F93AF93BF93FD
:1031800080914E0590914F05A0915005B091510549
:1031900030914D0523E0230F2D3720F40196A11D1A
:1031A000B11D05C026E8230F0296A11DB11D209375
:1031B0004D0580934E0590934F05A0935005B09315
:1031C00051058091520590915305A0915405B091FD
:1031D00055050196A11DB11D80935205909353058D
:1031E000A0935405B0935505BF91AF919F918F91D6
:1031F0003F912F910F900FBE0F901F901895CF9376
:10320000DF93CDB7DEB7C054D1090FB6F894DEBF57
:103210000FBECDBF789484B5826084BD84B58160D3
:1032200084BD85B5826085BD85B5816085BD809191
:103230006E00816080936E00109281008091810009
:103240008260809381008091810081608093810001
:1032500080918000816080938000809191008260E5
:103260008093910080919100816080939100809182
:1032700090008160809390008091C1008460809371
:10328000C1008091C10082608093C1008091C10023
:1032900081608093C1008091C30081608093C300EE
:1032A0008091C00082608093C0008091C2008160E4
:1032B0008093C20080917A00846080937A0080912C
:1032C0007A00826080937A0080917A008160809396
:1032D0007A0080917A00806880937A001092AC0125
:1032E00081E08093D70080EA8093D80082E189BD95
:1032F00009B400FEFDCF61E070E080E090E00E9444
:10330000D01780E98093D8001CE01093E20010925F
:10331000E00010929D0310929C031092A203109261
:10332000A3031092A4031092A50310929703109286
:1033300096031092AB031092AC031092AD0310925F
:10334000AE031092AF031092B0031092B10310922B
:10335000B20342E0BE01615F7F4F80E090E00E94D7
:10336000E3068F8598898A3F910509F44AC18AEF5F
:1033700090E09E878D8742E0BE01635F7F4F80E0D3
:1033800090E00E94B40619821A821B821C8244E0DB
:10339000BE016F5F7F4F82E090E00E94B40688E339
:1033A00094E09E878D8742E0BE01635F7F4F86E099
:1033B00090E00E94B40684E6898B41E0BE016F5E16
:1033C0007F4F88E090E00E94B40641E0BE016F5E4E
:1033D0007F4F8BE090E00E94B40641E0BE016F5E3B
:1033E0007F4F8CE090E00E94B40641E0BE016F5E2A
:1033F0007F4F80E190E00E94B40641E0BE016F5E25
:103400007F4F8DE090E00E94B40682E3898B41E01B
:10341000BE016F5E7F4F89E090E00E94B40641E0FC
:10342000BE016F5E7F4F8AE090E00E94B40641E0EB
:10343000BE016F5E7F4F8EE090E00E94B40686E48E
:10344000898B41E0BE016F5E7F4F8FE090E00E946C
:10345000B4061E861D8642E0BE01635F7F4F81E198
:1034600090E00E94B4068FEF97E09E878D8742E040
:10347000BE01635F7F4F83E190E00E94B4068FEF4F
:103480009FE09E878D8742E0BE01635F7F4F85E1AD
:1034900090E00E94B40680E8898B41E0BE016F5E37
:1034A0007F4F87E190E00E94B40681E0898B41E084
:1034B000BE016F5E7F4F88E190E00E94B40680E617
:1034C00099E0A0E0B0E089839A83AB83BC8344E0B9
:1034D000BE016F5F7F4F89E190E00E94B406198BB7
:1034E00041E0BE016F5E7F4F8DE190E00E94B40627
:1034F000EE24EA94F12CFE86ED8642E0BE01635F85
:103500007F4F8EE190E00E94B4060FEF11E01E871E
:103510000D8742E0BE01635F7F4F80E290E00E9432
:10352000B4068FEF92E09E878D8742E0BE01635F15
:103530007F4F82E290E00E94B406FE86ED8642E074
:10354000BE01635F7F4F84E290E00E94B4061E8755
:103550000D8742E0BE01635F7F4F86E290E00E94EC
:10356000B4061E861D8642E0BE01635F7F4F88E27F
:1035700090E00E94B4061E861D8642E0BE01635F95
:103580007F4F8AE290E00E94B40642E0BE01635F92
:103590007F4F8EE290E00E94B40642E0BE01635F7E
:1035A0007F4F82E390E00E94B40642E0BE01635F79
:1035B0007F4F86E390E00E94B4068FEF93E09E87F2
:1035C0008D8742E0BE01635F7F4F8CE290E00E94F6
:1035D000B40642E0BE01635F7F4F80E390E00E944B
:1035E000B40642E0BE01635F7F4F84E390E00E9437
:1035F000B40642E0BE01635F7F4F88E390E00E9423
:10360000B40642E06BEB71E086E090E00E94E306D6
:1036100044E067E673E089E190E00E94E30641E060
:103620006DEB71E088E090E00E94E30641E062E724
:1036300073E089E090E00E94E30641E060E773E018
:103640008AE090E00E94E30641E065E773E08BE0EA
:1036500090E00E94E30641E064E773E08CE090E0D4
:103660000E94E30641E063E773E08DE090E00E9492
:10367000E30641E061E773E08EE090E00E94E3063C
:1036800041E066E773E08FE090E00E94E30641E0EE
:103690006FE673E080E190E00E94E30641E068EBB2
:1036A00071E087E190E00E94E30641E06AEA73E09E
:1036B00088E190E00E94E30642E069EB71E081E17D
:1036C00090E00E94E30642E066EB71E083E190E067
:1036D0000E94E30642E065E673E085E190E00E9427
:1036E000E30641E065EB71E08DE190E00E94E306C6
:1036F00042E067E773E08EE190E00E94E30642E07B
:1037000069E773E080E290E00E94E30642E06BE745
:1037100073E082E290E00E94E30642E06DE773E02E
:1037200084E290E00E94E30642E06FE773E086E205
:1037300090E00E94E30641E061E873E088E290E0F7
:103740000E94E30642E06EE973E08AE290E00E94A4
:10375000E30642E060EA73E08CE290E00E94E30658
:1037600042E066EA73E08EE290E00E94E30642E007
:1037700068EA73E080E390E00E94E30642E068E9D3
:1037800073E082E390E00E94E30642E06AE973E0BE
:1037900084E390E00E94E30642E062E973E086E39E
:1037A00090E00E94E30642E064E973E088E390E081
:1037B0000E94E3066091670370916803809169033A
:1037C00090916A030E948C3320E030E044EB53E494
:1037D0000E94E2326B017C018091BB019091BC019F
:1037E000BC01990F880B990B0E948C339B01AC0193
:1037F000C701B6010E9441340E94543360935603BE
:103800007093570380935803909359036B017C0185
:10381000F594E794D794C794C0925A03D0925B036F
:10382000E0925C03F0925D0362E080E00E946F171B
:1038300062E081E00E946F1762E082E00E946F17F1
:10384000809169008C6080936900E99A10929B04D2
:10385000C0929C04D0929D04E0929E04F0929F043A
:103860001092A0044A9B05C08091A00481608093BF
:10387000A0044B9B05C08091A00482608093A004AB
:10388000809169008F7C806180936900EA9A8091C1
:1038900069008F73806480936900EB9A60E082E135
:1038A0000E946F1760E083E10E946F1760E084E17F
:1038B0000E946F1760E085E10E946F176E9A57981B
:1038C000249A109263031092620310926B03109279
:1038D0006C0310926D0310926E03109261031092AC
:1038E000640388E191E09093AE018093AD018AED8D
:1038F00094E090934A058093490580E69AE090937E
:103900004C0580934B05229A1091B501812F0E949E
:103910000C075C019093B0018093AF019093B701C5
:103920008093B6016091B9017091BA0180E090E096
:103930000E948A336B017C01B50180E090E00E9417
:103940008A339B01AC01C701B6010E94E232609349
:10395000B1017093B2018093B3019093B401012F30
:10396000017010FD05C020E030E04AEF54E404C0CF
:1039700020E030E04AE754E46091080170910901C9
:1039800080910A0190910B010E94413460930801DB
:103990007093090180930A0190930B01011105C0F6
:1039A00020E030E04AEF54E404C020E030E04AE791
:1039B00054E4609104017091050180910601909199
:1039C00007010E94413460930401709305018093C4
:1039D000060190930701011105C020E030E04AEF95
:1039E00054E404C020E030E04AE754E46091000170
:1039F0007091010180910201909103010E94413474
:103A00006093000170930101809302019093030180
:103A1000109280001092810010926F0016BA80916F
:103A2000AF019091B001909387008093860010922F
:103A300089001092880010928B0010928A00809169
:103A4000B5018274823421F480918100826003C0C8
:103A5000809181008160809381008091B50180FF19
:103A600009C08091800082608093800080918100F5
:103A7000806108C080918000826080938000809186
:103A8000810088618093810080E090E00E94E40FD3
:103A900080918000806880938000259A80E090E08B
:103AA0000E94D70F80918000806280938000269AC8
:103AB00061E083E00E946F1713E081E00E943916F5
:103AC00064E170E080E090E00E94D01780E00E9406
:103AD000391664E170E080E090E00E94D017115048
:103AE00061F710928C0310928D0310928E03109246
:103AF0008F038CE893E00E94F10F80915A0390911C
:103B00005B03A0915C03B0915D03F89480939C04E7
:103B100090939D04A0939E04B0939F047894109278
:103B20008B0310928A038FEF97E09093600380934A
:103B30005F038091B80180935E030E94AB1760938E
:103B4000B3037093B4038093B5039093B6030E94BC
:103B5000AB176093B3047093B4048093B50490934F
:103B6000B6040091B7031091B8032091B9033091C6
:103B7000BA036B017C01C01AD10AE20AF30AC092AF
:103B8000AF04D092B004E092B104F092B20400917C
:103B9000B3031091B4032091B5033091B6036B01C8
:103BA0007C01C01AD10AE20AF30A40EDC41647E0CC
:103BB000D406E104F10410F40C9457316093B3037C
:103BC0007093B4038093B5039093B603E2E210922E
:103BD00064038091620390916303829774F0109262
:103BE00063031092620310926B0310926C031092A5
:103BF0006D0310926E0310926103809162039091A5
:103C000063038230910574F4892B19F42C98769A09
:103C100076988091620390916303019709F044C004
:103C20002C9A42C09C012170332780FD39C091E05D
:103C30004F9990E09093640380916103803258F52E
:103C400040916B0350916C0360916D0370916E0312
:103C500001E010E020E030E0082E04C0000F111F4A
:103C6000221F331F0A94D2F7992329F0402B512B9E
:103C7000622B732B08C0009510952095309540233A
:103C800051236223732340936B0350936C0360931F
:103C90006D0370936E038F5F80936103769A04C007
:103CA0002130310509F47698809162039091630385
:103CB00001969093630380936203E15009F087CFEC
:103CC000F89480919C0490919D04A0919E04B091E1
:103CD0009F04789440915A0350915B0360915C0378
:103CE00070915D03841B950BA60BB70B8093AF03FC
:103CF0009093B003A093B103B093B2038093AB034E
:103D00009093AC03A093AD03B093AE031091AA03BC
:103D100015FB882780F916FD826017FF02C08460BA
:103D20001DC08130D9F46A017B01C094D094E09425
:103D3000F0949A01AB012C193D094E095F0960917D
:103D4000A2037091A3038091A4039091A5030E9404
:103D50003E352FEF3FEF40E050E032C0823059F463
:103D60006A017B01C094D094E094F094A0919C03EC
:103D7000B0919D0319C0833059F46A017B01C0944E
:103D8000D094E094F094A0919603B09197030CC066
:103D9000843021F56A017B01C094D094E094F094C2
:103DA000A0919003B09191039A01AB012C193D09A8
:103DB0004E095F090E9437322FEF3FE040E050E0AC
:103DC0000E940D32C20ED31EE41EF51EC092AB033C
:103DD000D092AC03E092AD03F092AE038090AB03BF
:103DE0009090AC03A090AD03B090AE038091BC0462
:103DF0009091BD04A091BE04B091BF048092BC0418
:103E00009092BD04A092BE04B092BF042091C4045D
:103E1000222309F449C00091ED0454E0059F90016C
:103E20001124B90164547B4F7B01A5019401281B27
:103E3000390B4A0B5B0BCA01B9010E948C33D701C5
:103E400019966D937D938D939C931C97F02E3AE079
:103E5000E32E60E070E0CB01B4E0FB9EF0011124A2
:103E6000E454FB4F21853285438554850E9471328D
:103E7000FF2011F0FA9402C029E0F22EEA94E1103A
:103E8000EBCF20E030E040E251E40E94E2320F5FED
:103E90000A3018F40093ED0402C01092ED0468A7F4
:103EA00079A78AA79BA70FC081E08093C4041092D2
:103EB000C0041092C1041092C2041092C30418A648
:103EC00019A61AA61BA62091EE043091EF0440918A
:103ED000F0045091F10488A599A5AAA5BBA58093EB
:103EE000EE049093EF04A093F004B093F10480915A
:103EF000F604882309F444C000914705E4E00E9FCE
:103F0000C0011124BC016B537B4F7B0168A579A5CF
:103F1000CD010E947032D701D2966D937D938D931F
:103F20009C93D597F02EB4E1EB2E60E070E0CB01CE
:103F3000B4E0FB9EF0011124EB53FB4F22A933A9FF
:103F400044A955A90E947132FF2011F0FA9402C0D1
:103F5000A3E1FA2EEA94E110EBCF20E030E040EA52
:103F600051E40E94E2320F5F043118F400934705D8
:103F700002C01092470568AB79AB8AAB9BAB0FC010
:103F800081E08093F6041092F2041092F3041092F0
:103F9000F4041092F50418AA19AA1AAA1BAA80916F
:103FA0004805882359F110FF23C70E9490139B01F5
:103FB000AC0160E070E080E094E40E94E2326B01CA
:103FC0007C016091760370E080E090E00E948C3389
:103FD0009B01AC01C701B6010E94413420E030E0F2
:103FE00048EC52E40E94E2320E945433AB01C50116
:103FF000B4010E949E142B013C01FDC6E2ECF1E0ED
:10400000FFA3EEA31F8A1E8A412C512C32010E8978
:104010001F890F5F1F4F1F8B0E8B4EE19801429F30
:104020008001439F100D112402511E4FD8018C9125
:104030008370833009F0CFC60E9490136B017C011E
:10404000F80121853285A789B08D0E9468352FEF50
:104050003FE740E050E00E940D32CA01B9010E94E2
:104060008C33A70196010E94E2320E9454339B01D7
:10407000AC01D8011B968D919C911C97059730F44B
:10408000E4E0F0E01C96FC93EE931B97FEE1EF2E2C
:10409000CE88DF88EC9CF001ED9CF00D1124E251FC
:1040A000FE4FE1818E2F90E0FC013197ED30F1055C
:1040B00008F07BC6EA5AFF4F0C9462350E949013B9
:1040C0006A8B7B8B8C8B9D8B2EE10E891F89209FA9
:1040D000C001219F900D1124AC0142515E4F1A0185
:1040E000DA0119968D909C901A975596AD90BC90D8
:1040F00056971F96CD90DC9050975196ED90FC907E
:10410000529753960D911C91549714962C91149795
:1041100013964C91139757968D919C915897EEA1B9
:10412000FFA1608171810E94A1139401DC010E94B2
:1041300068352FEF3FE740E050E00E940D32CA01A2
:10414000B9010E948C332A893B894C895D890E9480
:10415000E2320E9454330E941D069B01AC01A091E3
:104160007503B0E00E942C3224E630E040E050E0DD
:104170000E940D32421A530A640A750A72C10E94E3
:1041800090136A8B7B8B8C8B9D8B5EE1E52ECE88AA
:10419000DF88EC9CF001ED9CF00D1124E251FE4F04
:1041A000018512851B8F0A8FC588D688DF8ECE8E3B
:1041B000E784F088FBA2EAA2018912891DA70CA757
:1041C000038914891CAF0BAF84809380AEA1BFA17B
:1041D0002D903C90078510896085A7800A2C000CE3
:1041E000BB08062E000C770B6A197B09CB01770FF1
:1041F000AA0BBB0B6627782F892F9A2F0E948C332E
:104200006B017C01B80180E090E00E948A3320E0DD
:1042100030E04AE754E40E94E2329B01AC01C7015E
:10422000B6010E94E2326B017C01C101B8010E941B
:104230004E35BC0180E090E00E948A3320E030E0FF
:104240004AE754E40E94E2329B01AC01C701B60187
:104250000E9441340E945433BA2CAA24C501860F0F
:10426000971FAE8CBF8CCAA0DBA0ECA4FDA40BAD45
:104270001CAD282D492DB1010E94A1132A8D3B8D23
:10428000DC010E9468352FEF3FE740E050E00E94DC
:104290000D32CA01B9010E948C332A893B894C89AD
:1042A0005D890E94E2320E9454330E941D06461A24
:1042B000570A680A790A79C50E9490136A8F7B8F22
:1042C0008C8F9D8F4EE1C42EEE89FF89CE9EC0015A
:1042D000CF9E900D11248C0102511E4F1801D80160
:1042E00019960D90BC91A02DBF8FAE8FF801038C55
:1042F000F48DE02DFBA3EAA3D8015D96BC91BCA789
:10430000F80183849484A588B688C784D088E1881E
:10431000F2880389148924814381AEA1BFA10D9045
:10432000BC91A02DBB8BAA8B8789908DBD010E946B
:10433000A1138C01B40180E090E00E948A3320E058
:1043400030E04AE754E40E94E2329B01AC0160E0B5
:1043500070E080E89FE30E94E2326B017C018A8971
:104360009B89B4010E944E35BC0180E090E00E9420
:104370008A3320E030E04AE754E40E94E2329B01B5
:10438000AC01C701B6010E9441346B017C01BCA5A0
:104390006B2F70E080E090E00E948A3320E030E0F4
:1043A00040E85BE30E9441349B01AC01C701B601C8
:1043B0000E9471322BED3FE049EC50E40E94413401
:1043C0000E94AE349B01AC01EAA1FBA16F01FF0F7B
:1043D000EE08FF08B801110F880B990B2DAF21963D
:1043E0003FAF21974EAF5FAF0E948C332DAD21962A
:1043F0003FAD21974EAD5FAD0E9441340E945433D2
:10440000CB01770FAA0BBB0BA7019601280F391F11
:104410004A1F5B1FAE8DBF8D0E942C322FEF3FE7EE
:1044200040E050E00E940D32CA01B9010E948C3375
:104430002A8D3B8D4C8D5D8D0E94E2320E9454335B
:104440009B01AC01A0917403B0E00E942C3224E6E1
:1044500030E040E050E00E940D32420E531E641ED8
:10446000751ED10116968C91169782FF9EC41D96DB
:104470006D917C911E9780E090E00E948A332BED35
:104480003FE049EC50E40E94413420E030E040E05D
:1044900058E30E9441340E94AE349B01AC01C30139
:1044A000B2012DAF21963FAF21974EAF5FAF0E9473
:1044B0008C332DAD21963FAD21974EAD5FAD0E945F
:1044C00041340E9454332B013C016FC40E9490136D
:1044D0006A8F7B8F8C8F9D8F3EE1E32ECE88DF88A5
:1044E000EC9CF001ED9CF00D1124E251FE4F018592
:1044F00012851F8F0E8F238D348DA901330F660B0C
:10450000770B4AA35BA36CA37DA3558D5CA7238483
:104510003484A588B688C784D088E188F288038966
:10452000148924814381AEA1BFA10D90BC91A02D1F
:10453000BB8BAA8B8789908DBD010E94A113BC0102
:10454000990F880B990B0E948C334B015C01B101D0
:1045500080E090E00E948A3320E030E04AE754E4B3
:104560000E94E2329B01AC0160E070E080E89FE3D2
:104570000E94E2326B017C018A899B89B1010E9411
:104580004E35BC0180E090E00E948A3320E030E0AC
:104590004AE754E40E94E2329B01AC01C701B60134
:1045A0000E9441346B017C01BCA56B2F70E080E060
:1045B00090E00E948A3320E030E040E85BE30E9414
:1045C00041349B01AC01C701B6010E9471322BED51
:1045D0003FE049EC50E40E9441340E94AE346B014C
:1045E0007C0120E030E0A9010E943C3487FF0CC030
:1045F00020E030E0A901C701B6010E94DD3287FF4B
:1046000005C0EFEFECAB02C0F1E0FCABCCA86C2D29
:10461000CC0C770B880B990B0E948C339B01AC015F
:10462000C501B4010E9441340E945433CB01770F7D
:10463000AA0BBB0BE0C10E9490136E8F7F8F88A3E3
:1046400099A30EE1EE88FF880E9DF0010F9DF00DFD
:104650001124E251FE4F218532853BA32AA3238DED
:10466000348DA901330F660B770B4CA75DA76EA79E
:104670007FA7358D638574857B8B6A8BA588B6880B
:10468000C784D088E188F288038914892481438112
:10469000AEA1BFA10D90BC91A02DBB8FAA8F878921
:1046A000908DBD0121963FAF21970E94A1131C015F
:1046B000EA89FB89BF0180E090E00E948A334B01C8
:1046C0005C0121963FAD219760E4630F70E080E0CC
:1046D00090E00E948A3320E030E040E85BE30E94F3
:1046E0004134A50194010E9441340E945B338A8DBC
:1046F0009B8D860F971F6A897B890E944E358C019E
:10470000BC0180E090E00E948A3320E030E04AE77C
:1047100054E40E94E2326B017C0120E030E0A90108
:104720000E943C3487FD3CC020E030E04AE754E47E
:10473000C501B4010E94E2326A8F7B8F8C8F9D8FFE
:1047400020E030E040E05FE30E9441349B01AC0197
:10475000C701B6010E94DD3287FF22C0B101032CE0
:10476000000C880B990B0E948C3320E030E040E86D
:1047700050E40E9441342A8D3B8D4C8D5D8D0E940A
:10478000E232A70196010E9441340E9454333194D1
:10479000219431086101C60ED71EDEAACDAA51C0F0
:1047A00020E030E04AE754E4C501B4010E94E2325F
:1047B0004B015C0120E030E040E05FE30E944134C7
:1047C0009B01AC01C701B6010E943C3487FD39C092
:1047D000A5019401C701B6010E94DD3287FF31C0F7
:1047E000B101032C000C880B990B0E948C3320E044
:1047F00030E040E850EC0E944134A50194010E9451
:10480000E2326B017C018A899B8996958795B80174
:10481000681B790B80E090E00E948A3320E030E052
:104820004AE754E40E94E2329B01AC01C701B601A1
:104830000E9441340E9454337101E60EF71EFEAA15
:10484000EDAA0DA91EA9C801110FAA0BBB0B2CA51F
:104850003DA54EA55FA5280F391F4A1F5B1FAAA1C2
:10486000BBA10E942C322FEF3FE740E050E00E94B6
:104870000D32CA01B9010E948C332E8D3F8D48A1A3
:1048800059A10E94E2320E9454339B01AC01A091D5
:104890007403B0E00E942C3224E630E040E050E0A7
:1048A0000E940D32420E531E641E751E7EC20E946F
:1048B00090136A8F7B8F8C8F9D8F4EE12E893F895D
:1048C000429FF001439FF00D1124E251FE4F61859C
:1048D00072857F8F6E8F238D348DC901330FAA0BA4
:1048E000BB0B8AA39BA3ACA3BDA3358D23843484C7
:1048F000A588B688C784D088E188F288038914899E
:1049000024814381AEA1BFA10D90BC91A02DBB8B92
:10491000AA8B8789908DBD0121963FAF21970E9478
:10492000A1138C01B10180E090E00E948A334B0119
:104930005C0121963FAD219760E8630F70E080E055
:1049400090E00E948A3320E030E040E85BE30E9480
:104950004134A50194010E9441340E945B338A894D
:104960009B89860F971FB1010E944E359B8B8A8BC6
:1049700082159305D0F5B801012E000C880B990B18
:104980000E948C339B01AC010E9471326B017C014F
:1049900020E030E04AE754E4C501B4010E94E2326D
:1049A0009B01AC01C701B6010E94E2324B015C01E0
:1049B000CA88DB88B60180E090E00E948A3320E05C
:1049C00030E04AE754E40E94E2329B01AC01C501A9
:1049D000B4010E9441340E9454331195019511098C
:1049E0007801E60EF71EF8AEEFAA0FA918ADC801C0
:1049F000110FAA0BBB0B2AA13BA14CA15DA1280F53
:104A0000391F4A1F5B1FAE8DBF8D0E942C322FEFC6
:104A10003FE740E050E00E940D32CA01B9010E9418
:104A20008C332A8D3B8D4C8D5D8D2BCF0E94901346
:104A30006A8F7B8F8C8F9D8F4EE12E893F89429F9D
:104A4000F001439FF00D1124E251FE4F6185728504
:104A50007F8F6E8F238D348DC901330FAA0BBB0B53
:104A60008AA39BA3ACA3BDA3358D23843484A588DE
:104A7000B688C784D088E188F288038914892481A4
:104A80004381AEA1BFA10D90BC91A02DBB8BAA8B81
:104A90008789908DBD0121963FAF21970E94A11378
:104AA0008C01B10180E090E00E948A334B015C01EF
:104AB00021963FAD219760E8630F70E080E090E0C1
:104AC0000E948A3320E030E040E85BE30E944134FA
:104AD000A50194010E9441340E945B338A899B891D
:104AE000860F971FB1010E944E359B8B8A8B8215D2
:104AF0009305D0F566277727601B710B072E000CF6
:104B0000880B990B0E948C339B01AC010E9471327F
:104B10006B017C0120E030E04AE754E4C501B401B8
:104B20000E94E2329B01AC01C701B6010E94E23251
:104B30004B015C01CA88DB88B60180E090E00E94EE
:104B40008A3320E030E04AE754E40E94E2329B01DD
:104B5000AC01C501B4010E9441340E945433780174
:104B6000E60EF71EFAAEE9AE09AD1AAD40CF8EE102
:104B70006E897F89869FF001879FF00D1124E25195
:104B8000FE4F038D148DA0917303B0E00E942C3270
:104B900020E436E040E050E00E940D3269017A01E5
:104BA00020915A0330915B0340915C0350915D0367
:104BB000D8010E943732DC01CB010FE0B595A795F3
:104BC000979587950A95D1F7092E000CAA0BBB0B78
:104BD0004091AB035091AC036091AD037091AE0373
:104BE0008A019B01081B190B2A0B3B0BC901B80159
:104BF000A6010E949E14460E571E681E791ED5C03F
:104C00008EE16E897F89869FF001879FF00D1124C8
:104C1000E251FE4F038D148DA0917203B0E00E940B
:104C20002C3224E630E040E050E00E940D32690171
:104C30007A01B801110F880B990B0E948C332AE975
:104C400039EC4CEC54E40E94E2329B01AC0168A5C3
:104C500079A58AA59BA50E947032A6010E94CB155A
:104C600062C01EE1C12EAE89BF89CA9EF001CB9EF3
:104C7000F00D1124E251FE4F038D148DA0917103AC
:104C8000B0E00E942C3224E630E040E050E00E9488
:104C90000D3269017A01B801110F880B990B0E943E
:104CA0008C3320E03EEF4FEF56E40E94E2329B014E
:104CB000AC0168A979A98AA99BA90E947032A601B2
:104CC0000E94631530C00EE1EE88FF880E9DF00152
:104CD0000F9DF00D1124E251FE4F038D148DA09114
:104CE0007003B0E00E942C3224E630E040E050E057
:104CF0000E940D3269017A01B801110F880B990BDE
:104D00000E948C332AE939EC4CEC54E40E94E232E4
:104D10009B01AC0168A579A58AA59BA50E9470326C
:104D2000A6010E94E214092E000CAA0BBB0B480E30
:104D3000591E6A1E7B1E39C00E9490139B01AC0154
:104D40008EE16E897F89869FF001879FF00D112487
:104D5000E251FE4F838D948DBC01990F880B990B06
:104D60002DAF21963FAF21974EAF5FAF0E948C339E
:104D70002DAD21963FAD21974EAD5FAD0E94E23241
:104D80000E9454330E941D069B01AC01A091740344
:104D9000B0E00E942C3224E630E040E050E00E9477
:104DA0000D32421A530A640A750A0E94F6170091DE
:104DB000BE011091BF012091C0013091C101DC0101
:104DC000CB01801B910BA20BB30BEEA1FFA1808343
:104DD0009183A283B3830EA11FA10C5F1F4F1FA35A
:104DE0000EA32E893F892B30310509F010C903C06D
:104DF000412C512C32011091AA0311FF31C00E94A5
:104E000090139B01AC01E091720367E471E0E69FAF
:104E1000C001E79F900D1124BC0180E090E02DAF10
:104E200021963FAF21974EAF5FAF0E948C332DADDF
:104E300021963FAD21974EAD5FAD0E94E2320E94B8
:104E40005433AB0168A579A58AA59BA50E94CB1513
:104E5000092E000CAA0BBB0B480E591E6A1E7B1EA6
:104E600012FF31C00E9490139B01AC01E0917103CD
:104E700067E471E0E69FC001E79F900D1124BC013B
:104E800080E090E02DAF21963FAF21974EAF5FAF0E
:104E90000E948C332DAD21963FAD21974EAD5FAD75
:104EA0000E94E2320E945433AB0168A979A98AA911
:104EB0009BA90E946315092E000CAA0BBB0B480E80
:104EC000591E6A1E7B1E13FF31C00E9490139B0166
:104ED000AC01E091700367E471E0E69FC001E79FD9
:104EE000900D1124BC0180E090E02DAF21963FAFE2
:104EF00021974EAF5FAF0E948C332DAD21963FAD11
:104F000021974EAD5FAD0E94E2320E945433AB0157
:104F100068A579A58AA59BA50E94E214092E000C1C
:104F2000AA0BBB0B480E591E6A1E7B1E40915A03EA
:104F300050915B0360915C0370915D038091AB03C2
:104F40009091AC03A091AD03B091AE03CC24DD24CD
:104F50007601C41AD50AE60AF70A8C159D05AE0536
:104F6000BF0534F0481759076A077B070CF045C0A6
:104F7000B7FD05C0841B950BA60BB70B04C0840FAF
:104F8000951FA61FB71F8093AB039093AC03A0930C
:104F9000AD03B093AE030E9490139B01AC0160E09F
:104FA0007EEF8FEF96E40E94E2326B017C0160910C
:104FB0006F0370E080E090E00E948C339B01AC01B5
:104FC000C701B6010E94413420E030E048EC52E4D1
:104FD0000E94E2320E9454336B017C016091AB036A
:104FE0007091AC038091AD039091AE03A6010E9435
:104FF0009E14460E571E681E791EA091BD01B0E09A
:10500000A30192010E942C3224E630E040E050E0FF
:105010000E940D32CA01B9010E941D066B017C017C
:1050200014FF04C00E9426170E94CB16C0928C0366
:10503000D0928D03E0928E03F0928F036091AF03C4
:105040007091B0038091B1039091B2030E948C33B0
:105050006B017C0160915603709157038091580356
:10506000909159030E948C339B01AC0160E07FEF6B
:105070008FE797E40E94E2329B01AC01C701B601C1
:105080000E9441340E9454332B013C016115704849
:105090008105910534F044244A94BFE75B2E612CCE
:1050A000712C411440E854064FEF6406740634F442
:1050B000412CA0E85A2E66246A94762C4092AF03C5
:1050C0005092B0036092B1037092B2038CE893E007
:1050D0000E94F10F00918A0310918B03C0909E03F0
:1050E000D0909F03C00ED11EE12CF12C809098032C
:1050F00090909903800E911EA12CB12CA1E0B0EFED
:10510000A50194010E943A3220919A0330919B03A9
:10511000201B310B40E050E0281939094A095B098E
:105120000E940D322E8B3F8B488F598F80909203B7
:1051300090909303800E911EA12CB12CA1E0B0EFB2
:10514000A50194010E943A32209194033091950375
:10515000201B310B40E050E0281939094A095B094E
:105160000E940D3249015A0120919C0330919D0308
:10517000C901330FAA0BBB0B9C01AD012C193D09D2
:105180004E095F09AFEFBFE00E942C322091A003CF
:105190003091A103201B310B40E050E02C193D0958
:1051A0004E095F090E940D326901C11450E1D50614
:1051B00024F0CC24CA94FFE0DF2ED7FE02C0C12C1D
:1051C000D12CD0929D03C0929C032E883F8821143D
:1051D00060E1360624F022242A94EFE03E2E37FECA
:1051E00002C0212C312C3092970320929603811417
:1051F00070E1970624F088248A947FE0972E97FE2A
:1052000002C0812C912C9092910380929003809106
:10521000A6039091A703800F911F9C0140E050E0EE
:105220002E8B3F8B488F598F2091A2033091A3037F
:105230004091A4035091A5036E897F89888D998D33
:10524000261B370B480B590BAFEFBFEF0E942C32D8
:105250002091A8033091A903201B310B40E050E0BE
:10526000EE88FF88088D198D2E193F09400B510BD0
:105270000E940D322115310501E04007510524F04F
:105280002FEF3FEF40E050E057FF03C020E030E059
:10529000A9012093A2033093A3034093A403509346
:1052A000A503E0906B03F0906C0300916D031091E7
:1052B0006E039E2D9F70913081F0923081F094307A
:1052C00081F0983081F0933081F0963081F0993000
:1052D00081F09C3081F060E00FC061E00DC063E0C0
:1052E0000BC065E009C067E007C062E005C064E08C
:1052F00003C068E001C066E0D801C701807F8A8BE7
:105300009B8BAC8BBD8B862B6091810362FF0CC0A5
:105310000091820310918303EFEFF3E0E01BF10BA8
:10532000F0938303E093820363FF0CC00091840336
:1053300010918503EFEFF3E0E01BF10BF093850391
:10534000E093840360FF05C084FF02C08F7E01C02C
:105350008061E0918203F0918303009177031091C3
:105360007803E017F107A0F40091840310918503FE
:10537000E0907F03F09080030E151F0508F066C0D3
:10538000E0907D03F0907E030E151F05E0F463C0EE
:105390000091790310917A03E017F107A0F40091CE
:1053A000840310918503E0907F03F09080030E1535
:1053B0001F0508F055C0E0907D03F0907E030E15A8
:1053C0001F0508F452C00091790310917A03E01789
:1053D000F107F0F000917B0310917C03E017F107D7
:1053E000B8F40091840310918503E0907F03F0905E
:1053F00080030E151F05F0F5E0907D03F0907E030D
:105400000E151F0528F461FD3AC084FD4BC037C05E
:1054100000917B0310917C03E017F107D0F1E0913C
:105420008403F091850300917F0310918003E017BE
:10543000F10750F500917D0310917E03E017F1070D
:1054400040F561FF2AC084FF28C02CC0E12CF12C5C
:1054500001E010E02BC0E12CF12C02E010E026C0AE
:10546000E12CF12C04E010E021C0E12CF12C08E04B
:1054700010E01CC0E12CF12C00E110E017C0E12C81
:10548000F12C00E210E012C0E12CF12C00E410E05D
:105490000DC0E12CF12C870109C0E12CF12C00E8B2
:1054A00010E004C0E12CF12C8701E39444E0EE0C01
:1054B000FF1C001F111F4A95D1F78F7EAF70B07F80
:1054C0008E299F29A02BB12B80938603909387036D
:1054D000A0938803B0938903B201705869837A83DB
:1054E0002B833C83CD82222D2295207F2D292E8354
:1054F000210154E0569447945A95E1F74F828886EB
:10550000282F2295207F29292987AC01BD01E4E0BD
:105510007695679557954795EA95D1F74A87AC01F7
:10552000BD01FCE07695679557954795FA95D1F7BB
:105530004B8714E1B695A795979587951A95D1F75E
:105540008C874CE050E0BE016F5F7F4F84E00E948B
:105550003F0A8091AF049091B004A091B104B09142
:10556000B20480319742A105B10508F4A0C681EAD2
:1055700094E00E94F20C181619060CF088C681EA15
:1055800094E00E94B80CE82F8FE98E0F8A3108F45E
:10559000E0528E2F90E0FC01E154F109EA31F1056F
:1055A00008F075C6ED59FF4F0C9462358091BB0130
:1055B0009091BC010E94601780E20E94C016809109
:1055C000BD010E94661780E20E94C016809172039E
:1055D0000E94661780E20E94C016809170030E94AC
:1055E000661780E20E94C016809175030E946617BC
:1055F00080E20E94C016809174030E94661780E2C8
:105600000E94C016809173030E94661780E20E9478
:10561000C016809171030E94661780E20E94C01636
:10562000809176030E94661780E20E94C0168091E6
:105630006F030E94661780E20E94C0166091B90154
:105640007091BA0180E090E04AE00E94D91680E2B1
:105650000E94C0168091B8010E94661780E20E94E5
:10566000C0168091AA030E94661780E20E94C016AD
:105670006091B6017091B70180E090E04AE00E942D
:10568000D91680E20E94C01660916703709168038A
:105690008091690390916A030E94261780E20E941C
:1056A000C0166091B50167C383E991E00E946D1750
:1056B0008AEF90E00E94601788E991E00E946D17E0
:1056C0008AE991E00E946D178CE991E00E946D17C4
:1056D0008EE991E00E946D1780EA91E00E946D17BB
:1056E00082EA91E00E946D1784EA91E00E946D17B2
:1056F00086EA91E00E946D17CAC58091BB04082E0E
:10570000000C990BC2C5F894C0909C04D0909D04E5
:10571000E0909E04F0909F0478948091B60190915F
:10572000B7012091B9013091BA01821B930B969574
:10573000879596958795A0E0B0E089839A83AB839F
:10574000BC83CE0101960E94F10FD701C6011EEF66
:10575000F89480909C0490909D04A0909E04B0903A
:105760009F04789488159905AA05BB0554F46CE24A
:1057700071E080E090E00E94D0171150D501C40183
:1057800039F719821A821B821C82CE0101960E946F
:10579000F10F8091560390915703A0915803B09157
:1057A0005903F89480939C0490939D04A0939E04C5
:1057B000B0939F047894C814D904EA04FB0411F44C
:1057C00082E001C081E08093BB045DC50E943C186B
:1057D000611101C061E06093B80155C5F894409033
:1057E0009C0450909D0460909E0470909F04789457
:1057F00080915A0390915B03A0915C03B0915D038B
:10580000481A590A6A0A7B0A8091B7049091B80431
:10581000A091B904B091BA04480E591E6A1E7B1EAD
:105820000E943C1864307105810591057CF06B0184
:105830007C01613C7742894091056CF010ECC12EEF
:1058400017E2D12E19E0E12EF12C05C0B4E0CB2EE9
:10585000D12CE12CF12CC982DA82EB82FC8260919E
:10586000BB017091BC01072E000C880B990B0E94A4
:105870008C334B015C01C301B2010E948C33A50142
:1058800094010E9441342B013C01609156037091B8
:10589000570380915803909159030E948C339B01C8
:1058A000AC01C301B2010E94E2322B013C01C09263
:1058B0006703D0926803E0926903F0926A03C7011C
:1058C000B60193C080915A0390915B03A0915C0351
:1058D000B0915D03F89480939C0490939D04A093F1
:1058E0009E04B0939F04789480E090E0CEC4F89436
:1058F00080909C0490909D04A0909E04B0909F0482
:10590000789480915A0390915B03A0915C03B091CD
:105910005D03881A990AAA0ABB0A8091B70490917C
:10592000B804A091B904B091BA04880E991EAA1EB9
:10593000BB1E0E943C186E3171058105910574F003
:105940006B017C01693077408105910564F0A8E026
:10595000CA2EA7E0DA2EE12CF12C05C0FEE1CF2EF5
:10596000D12CE12CF12CC982DA82EB82FC82C501B8
:10597000B4010E948C334B015C016091BB017091BA
:10598000BC01072E000C880B990B0E948C339B01E5
:10599000AC01C501B4010E9441344B015C0160912E
:1059A00056037091570380915803909159030E94B8
:1059B0008C339B01AC01C501B4010E94E2322B0182
:1059C0003C01D092BC01C092BB01B601DD0C880B3A
:1059D000990B0E948C334B015C01609167037091BD
:1059E00068038091690390916A030E948C3320E0E0
:1059F00030E044EB53E40E94E232A50194010E949E
:105A000041340E945433609356037093570380933C
:105A10005803909359036B017C01F594E794D79454
:105A2000C794C0925A03D0925B03E0925C03F09259
:105A30005D030E948C339B01AC01C301B2010E9443
:105A40004134A50194010E94E2320E945433C60EF3
:105A5000D71EE81EF91E8091B7049091B804A0915A
:105A6000B904B091BA04C81AD90AEA0AFB0AF89430
:105A7000C0929C04D0929D04E0929E04F0929F04F8
:105A8000789401C40E943C18262F6091AA0380E0FC
:105A900090E030E0F901082E02C0F595E7950A94F0
:105AA000E2F7C12CD12C7601C394082E04C0CC0C93
:105AB000DD1CEE1CFF1C0A94D2F7E0FF02C06C292B
:105AC00002C0C0946C2101968830910519F760934B
:105AD000AA0370E080E090E042E00E94D9160E94A4
