:100000000C9420040C9448040C9448040C94150699
:100010000C940B060C9448040C9448040C9448046B
:100020000C9448040C9448040C945E090C94010749
:100030000C9448040C9448040C9448040C94480410
:100040000C9448040C9448040C9448040C94480400
:100050000C9448040C9448040C9448040C946218C2
:100060000C9448040C9448040C9448040C944804E0
:100070000C9448040C9448040C9448040C944804D0
:100080000C9448040C9448040C9448040C944804C0
:100090000C94580E0C9448040C9448040C94480496
:1000A0000C9448040C9448040C944804C81E291F5E
:1000B000D020C61F85218023C12221246A249B24AD
:1000C000CD243F250625722B18293D2A8E2CB529D3
:1000D0001B2C5C293D2A8E2C8E2C8E2C8E2C8E2C4B
:1000E0008E2C20293D2A8E2CF428EE288E2C562882
:1000F000D528E5298E2C402A3D2A572A712A8B2A99
:10010000A52ABF2AD92AF32A0D2B8E2C8E2C8E2CB1
:100110008E2C8E2C8E2C8E2C8E2C8E2C272B552CB0
:100120005A2C372C3C2C8E2C412C322C8E2C502CC3
:100130005F2C8E2C8E2C4B2C8E2C8E2C8E2C8E2C61
:100140008E2C462C6A106F1074107E10C810C810C8
:10015000C810881092109C10A610B310C810BB10C5
:10016000351638162B162F165916591659163C16D1
:10017000401644164A164E165916541605A84CCD6C
:10018000B2D44EB93836A9020C50B9918688083CD1
:10019000A6AAAA2ABE000000803F000000000000BE
:1001A00000002A2B280000000000000000000000D2
:1001B000000000000000000000002C9EB4A0A1A2DE
:1001C000A434A6A7A5AE362D3738271E1F2021221E
:1001D00023242526B333B62EB7B89F848586878817
:1001E000898A8B8C8D8E8F90919293949596979807
:1001F000999A9B9C9D2F3130A3AD350405060708C5
:10020000090A0B0C0D0E0F101112131415161718E6
:10021000191A1B1C1DAFB1B0B500080B0002020279
:100220000100090400000102020000052400100181
:100230000524010101042402060524060001070526
:10024000810310004009040100020A0000000705B4
:10025000020240000007058302400000090402007A
:10026000020300000009210101000122E104070549
:10027000840340000107050503400001050109044E
:10028000A10185040901A100093017000000002721
:10029000FFFF0000350047FFFF000075109501814A
:1002A00002093116000027FFFF0000350047FFFF5D
:1002B0000000751095018102093216000027FF0F1A
:1002C0000000350047FF0F0000750C950181020901
:1002D0003316000027FF0F0000350047FF0F000016
:1002E000750C95018102093416000027FF0F0000EC
:1002F000350047FF0F0000750C9501810209391583
:100300000125083500463B0165145500750495012B
:1003100081020509150025015500650019012918FC
:1003200075019518810285F10901150026FF0095D8
:100330003F7508918285F20901953F75088182C059
:10034000050F0992A1028502099F09A009A409A528
:1003500009A61500250135004501750195058102A5
:1003600095038103099415002501350045017501A8
:1003700095018102092215012528350145287507B7
:1003800095018102C00921A10285010922150125DB
:1003900028350145287508950191020925A1020912
:1003A000260927093009310932093309340940097E
:1003B0004109420943250B15013501450B75089587
:1003C000019100C009500954150027FFFF000035B6
:1003D0000047FFFF000066011055FD751095029162
:1003E0000255006600000952150026FF7F350046C1
:1003F000FF7F7510950191020953150125083501FC
:1004000045087508950191020955A10205010930B9
:10041000093115002501750195029102C0050F09EA
:100420005695019102950591030957A1020B010010
:100430000A000B02000A0066140055FE150026FF94
:100440007F3500479F8C0000751095019102550083
:10045000660000C0050F09A766011055FD150027AD
:10046000FFFF0000350047FFFF0000751095019168
:10047000026600005500C0050F095AA10285020955
:100480002215012528350145287508950191020995
:100490005B095D150026FF00350046FF7F75089556
:1004A000029102095C095E66011055FD26FF7F4638
:1004B000FF7F7510950291026600005500C0095F2C
:1004C000A102850309221501252835014528750853
:1004D0009501910209231500250135004501750498
:1004E000950191020958A1020B01000A000B0200BC
:1004F0000A00750295029102C0096016008026FF6D
:100500007F36008046FF7F751095019102096136A4
:10051000008046FF7F95019102150026FF7F350080
:1005200046FF7F0963751095019102096515002644
:10053000FF0046FF7F750895019102C0096EA10278
:1005400085040922150125283501452875089501DE
:1005500091020970150026FF7F350046FF7F751058
:1005600095019102096F16008026FF7F36008046B4
:10057000FF7F950191020971150026FF00350046A5
:1005800067016614005500750895019102097227EC
:10059000FFFF000047FFFF000066011055FD7510CA
:1005A000950191026600005500C00973A1028505FE
:1005B0000922150125283501452875089501910264
:1005C000097016018026FF7F36018046FF7F751077
:1005D00095019102C00974A1028506092215012521
:1005E0002835014528750895019102097509761588
:1005F00081257F36018046FF7F750895029102C0F4
:10060000050F0977A102850A092215012528350160
:1006100045287508950191020978A1020979097A9E
:10062000097B15012503750895019100C0097C150A
:100630000026FF00350046FF009102C00990A1028C
:10064000850B0922150125283501452875089501D6
:100650009102C00996A102850C0997099809990988
:100660009A099B099C15012506750895019100C002
:10067000097DA102850D097E150026FF0035004683
:100680001027750895019102C009ABA102850509E3
:1006900025A1020926092709300931093209330940
:1006A0003409400941094209431501250B3501452B
:1006B0000B75089501B100C00501093B150026FF27
:1006C00001350046FF01750A9501B1027506B101B9
:1006D000C0050F0989A102850609222528150135C3
:1006E00001452875089501B102098BA102098C0901
:1006F0008D098E250315013501450375089501B156
:1007000000C009AC150027FFFF0000350047FFFFC0
:10071000000075109501B100C0097FA1028507098D
:100720008075109501150027FFFF0000350047FF79
:10073000FF0000B102098326FF0046FF00750895FF
:1007400001B10209A909AA75019502150025013513
:10075000004501B10275069501B103C0C0180341FF
:100760000072006400750069006E006F0020004C8C
:10077000004C00430004030904220341007200649A
:1007800000750069006E006F0020004D0069006375
:100790000072006F00200020002000120100020003
:1007A00000004041233780000101020001120100D6
:1007B00002020000404123378000010102000100D5
:1007C000C18081C1C000000000240027002A002D44
:1007D00000300000000000250028002B002E003112
:1007E00000040404040403040502020202040302D8
:1007F00002020206060606060604040202020404B9
:10080000040802011040804010204080408008020F
:100810000401804020100201108010204040200080
:1008200000000200080E0000030401000B0000009D
:100830000000000000000000000000000000A82CE4
:1008400011241FBECFEFDAE0DEBFCDBF11E0A0E084
:10085000B1E0EAE7F1E602C005900D92A43AB107D3
:10086000D9F725E0A4EAB1E001C01D92AF34B20788
:10087000E1F714E0C0E2D4E004C02197FE010E9439
:10088000A930CF31D107C9F70E94AC180C94BB3006
:100890000C9400008C30F8F4282F30E09EE1899F02
:1008A000F0011124E752FE4F90819923A1F090812D
:1008B0009D7F9083F901E255FC4F958191110BC00A
:1008C000E091A501F091A6010084F185E02D099544
:1008D0001092BE0308950895FC01CB012091E80019
:1008E00022FFFCCF282F215028F03091F1003083D7
:1008F0003196F9CF24E620939C032BEF2093E80058
:1009000008950F931F93CF93DF93DB01A40FB51FBF
:10091000FB016EEFEA17FB0791F187FF02C02491FC
:1009200001C020810091A0031091A103C0919E03FA
:10093000D0919F030C171D07B4F49091E8009570B7
:10094000E1F39091E80092FD1CC02093F10020910A
:10095000A0033091A1032F5F3F4F2F733327232B29
:1009600011F46093E8002091A0033091A1032F5F60
:100970003F4F3093A1032093A0033196CBCFCA0100
:1009800002C08FEF9FEFDF91CF911F910F910895DC
:10099000CF93DF9300D000D01F92CDB7DEB7FC011C
:1009A00081819081913A29F5813009F0BCC0828122
:1009B000863051F445E050E069EA73E080E40E943B
:1009C00081041092A903AFC0873009F0ACC08983BD
:1009D0008FEF9FEF9B838A838BE08C8383E08D83F3
:1009E00045E050E0BE016F5F7F4F80E40E948104CC
:1009F0009AC0913209F097C0893009F094C0828181
:100A0000853009F090C064E070E0CE0101960E944C
:100A10006C0486E08093A90380910F018B3021F153
:100A2000A0910F0181E08A0F80930F019EE1E09178
:100A30000F019E9FF0011124E752FE4F8081882311
:100A400051F080910F018B3030F480910F018F5F56
:100A500080930F01ECCF8EE1A89FF0011124E752A3
:100A6000FE4F81E0808301C0A0E0A093AA03A11102
:100A700004C082E08093AB0350C01092280581E04F
:100A80008093AB038A819EE1A99FD0011124A752D4
:100A9000BE4F11968C9311978FEF9FEF50969C93BA
:100AA0008E931F9754961C921E92539752961C92A7
:100AB0001E92519713968C93139714968C931497B8
:100AC00056961C921E9255971E961C921E921D972A
:100AD00016961C9216978FEF9FE71A969C938E930B
:100AE000199758961C921E9257975C961C921E92CC
:100AF0005B975D961C925D9788EE93E01C969C93A5
:100B00008E931B97E091A501F091A6010684F785CD
:100B1000E02DBD01CE01019609958FEF9FEF9093D7
:100B2000AD038093AC0381E00F900F900F900F9076
:100B30000F90DF91CF91089542E450E06AE172E0B6
:100B400080E80E94810440E250E06CE572E080E8B9
:100B50000E94810483E090E00895EF92FF921F933A
:100B6000CF93DF93EC01162FE881F9810480F581A2
:100B7000E02D09957C01E881F9810680F781E02D5F
:100B8000612FCE010995C7019927DF91CF911F9160
:100B9000FF90EF900895FC0191818081813A29F4C2
:100BA0009D7F81E0913091F414C0813279F49A30C4
:100BB00049F09B3019F0993049F40AC08281809342
:100BC0000E0106C0828180930D0102C080E008956D
:100BD00081E008958C30F0F49EE1899FF0011124AA
:100BE000E752FE4F80818823A9F080818260808354
:100BF0008091BE0381110EC00E94A3176093A901CA
:100C00007093AA018093AB019093AC0181E0809333
:100C1000BE03089508951F920F920FB60F921124EC
:100C20000F900FBE0F901F9018951F920F920FB646
:100C30000F9211242F933F934F935F936F937F9362
:100C40008F939F93AF93BF93EF93FF939091A803DC
:100C500089B18C70892B90E09C013595279535954D
:100C600027952093A8034091A4035091A503609178
:100C7000A6037091A703FC01E25BFE4F8081082E62
:100C8000000C990BAA0BBB0B840F951FA61FB71F57
:100C90008093A4039093A503A093A603B093A70306
:100CA0008091A303FF91EF91BF91AF919F918F919D
:100CB0007F916F915F914F913F912F910F900FBE58
:100CC0000F901F901895CF92DF92EF92FF920F93A3
:100CD0001F93CF93DF931F92CDB7DEB7F82EE42E8C
:100CE0008B01C82ED92E8C2D8F198E1588F4F80102
:100CF00061918F01C60169830E943E2D6981681749
:100D000019F0C6010E94462DFFEFCF1ADF0AEBCF84
:100D10000F90DF91CF911F910F91FF90EF90DF9097
:100D2000CF900895CF92DF92EF92FF920F931F938F
:100D3000CF93DF931F92CDB7DEB78B016B017C01A0
:100D4000E61AF70A9C2D901B941758F4C7018C0DD6
:100D50009D1D49830E943E2DF60181936F014981BB
:100D6000F1CF0F90DF91CF911F910F91FF90EF90F6
:100D7000DF90CF9008958F929F92AF92BF92CF92C3
:100D8000DF92EF92FF9240E050E020E0682F70E0A9
:100D9000812C912C54018394FA013296DB0102C01C
:100DA000B595A795EA95E2F775016401042E04C094
:100DB000CC0CDD1CEE1CFF1C0A94D2F7A0FF02C075
:100DC0002C2902C0C0942C214F5F5F4F4430510545
:100DD00019F730E0220F331FF901EC5CFE4F80FF62
:100DE00005C0808191819695879502C0808191810F
:100DF000FF90EF90DF90CF90BF90AF909F908F903B
:100E000008951F920F920FB60F921124EF92FF9246
:100E10001F932F933F934F935F936F937F938F9382
:100E20009F93AF93BF93EF93FF93CF93DF93CDB790
:100E3000DEB76197DEBFCDBF1092E9008091E80078
:100E400083FF59C1FE013A96CF0128E02E0F2E17DD
:100E500029F03091F10030833196F9CF24E62093C8
:100E60009C0322EF2093E8002A8527FF05C03091DC
:100E7000E80030FFFCCF03C03EEF3093E800322F94
:100E8000307609F0C5C08B85811105C01092F10044
:100E90001092F10029C1982F9D7F913009F424C14F
:100EA000853049F48091E80080FFFCCF8C85806814
:100EB0008093E30019C1863009F07CC01D85E88865
:100EC000F9881092E9001092A1031092A003123049
:100ED00091F510929F0310929E030E949C0599E049
:100EE000BE016F5F7F4FFB01292F11922A95E9F711
:100EF00099831A8391E09E8390E898879AEF998767
:100F00002091A0033091A103275F3F4F3C832B83A7
:100F10008D831092E9001092A1031092A003F09229
:100F20009F03E0929E0349E050E080E00E9481042C
:100F30000E949C05D9C0F0929F03E0929E0312325A
:100F400059F441EE54E06CE772E080E80E948104BD
:100F5000892B09F0C9C0CCC0113069F488899989FE
:100F6000089711F410939D0380919D03811111C086
:100F70006BE977E016C0133009F0BAC08C8588237E
:100F800059F0823061F0813009F0B2C06DE577E050
:100F900008C06DEA77E005C065E777E002C069E761
:100FA00077E06115710509F4A3C0FB01449150E09D
:100FB00080E849C0873009F49BC0883021F481E083
:100FC0008093F10091C0893009F08EC0237009F040
:100FD0008FC080E090E031E026E341E0480F40938D
:100FE000E9003093EB000196FC01E154F84FE491E5
:100FF000E093EC002093ED008530910571F78EE7CA
:101000008093EA001092EA008C858093A4016CC062
:10101000288939891092E9001092A1031092A00347
:1010200030939F0320939E032E85211154C08B85FE
:101030009A85913A59F4813209F05AC047E050E05C
:1010400060E171E080E00E9481044EC0913209F0BD
:101050004FC0803239F467E070E080E191E00E9497
:101060006C0442C0823209F043C08C858093170122
:101070008091100190911101A0911201B091130182
:10108000803B9440A105B10579F58091170180FD61
:1010900011C087E797E790930108809300089BE0D1
:1010A00088E10FB6F894A895809360000FBE9093E6
:1010B00060001AC00FB6F894A8958091600088610E
:1010C00080936000109260000FBEA89510920108F6
:1010D0001092000809C0223059F4E0912905F091DE
:1010E0002A050995882321F08EEF8093E80003C03C
:1010F00081E28093EB0061960FB6F894DEBF0FBEDD
:10110000CDBFDF91CF91FF91EF91BF91AF919F91B3
:101110008F917F916F915F914F913F912F911F918F
:10112000FF90EF900F900FBE0F901F9018958F9229
:101130009F92AF92BF92CF92DF92EF92FF920F9366
:101140001F93CF93DF9300D01F92CDB7DEB7382F18
:101150008B018091A401882389F04A018AEFF82E3F
:10116000832F8770E82E90E4C92E832F8072B82ECB
:101170002AE3D22E832F8074A82E21C08FEF9FEFF9
:101180005FC08FB7F894E092E9009091E80095FF76
:101190001AC09091F2002C2D291B8FBF211115C070
:1011A000FA94FF2059F361E070E080E090E0398329
:1011B0004A835B830E947D1739814A815B81811458
:1011C0009104F9F634C020E0E8CF822F90E0881631
:1011D00099060CF4282D822F90E0881A990A6FB78F
:1011E000F894E092E900BB2029F02150A8F0109279
:1011F000F100FBCFF80137FF07C0215058F0749180
:101200007093F1003196F9CF215020F071917093D5
:10121000F100FACF080F191F8091E80085FF0DC07B
:101220008114910411F4A11008C06FBFC8CF5D9A5A
:1012300084E68093A203CA0103C0D092E800F5CFF0
:101240000F900F900F90DF91CF911F910F91FF9012
:10125000EF90DF90CF90BF90AF909F908F900895C8
:101260009091A401992311F057FF03C08FEF9FEFD6
:1012700008952FB7F89487708093E9008091F20069
:1012800090E0841795070CF4AC01842FFB0194E6E1
:10129000815030F090939C033091F1003193F8CF5E
:1012A0004115510521F08091F200882319F02FBFDC
:1012B000CA0108958BE68093E800F9CF1F920F9240
:1012C0000FB60F9211242F933F934F935F936F9319
:1012D0007F938F939F93AF93BF93EF93FF93CF939E
:1012E000DF93CDB7DEB7C054D109DEBFCDBF80914B
:1012F000E1001092E10083FF0FC01092E90091E03D
:101300009093EB001092EC0092E39093ED0010921A
:10131000A40198E09093F00082FF46C083E08093A0
:10132000E9008091F200882319F08AE38093E800B5
:101330009FB7F89482E08093E9008091F2009FBF0C
:10134000882321F081E894E00E941D0E9FB7F89455
:1013500085E08093E9008091F2009FBF8823C1F06F
:1013600080912B0590912C05892B91F040E450E061
:10137000BE016F5F7F4F85E00E94300997FD08C076
:10138000E0912B05F0912C05BC01CE010196099549
:101390008091A203882341F08091A2038150809321
:1013A000A203811101C05D98C05CDF4F0FB6F894B5
:1013B000DEBF0FBECDBFDF91CF91FF91EF91BF9107
:1013C000AF919F918F917F916F915F914F913F91DD
:1013D0002F910F900FBE0F901F901895EF92FF92D4
:1013E0000F931F93CF93DF931F92CDB7DEB78983FF
:1013F0008B017A0141E050E0BE016F5F7F4F84E0D6
:101400000E949708A701B80184E40E9497080F90F2
:10141000DF91CF911F910F91FF90EF9008951F934F
:10142000CF93DF93DC0111961C9111979C9195301D
:1014300009F467C060F5923009F443C0A8F4913014
:1014400009F04DC1E091A501F091A6012EE1129F96
:10145000B001112467527E4F028CF38DE02DCD0137
:10146000DF91CF911F9109949330C9F1943009F025
:1014700036C1E091A501F091A6012EE1129FB001C5
:10148000112467527E4F0488F589E02D35C09B30CA
:1014900009F49DC038F4963009F441C09A3009F43B
:1014A0004CC01DC19C3009F4CBC0913F09F017C15D
:1014B00040E450E0BD0182EFDF91CF911F910C9489
:1014C000EE09E091A501F091A6013EE1139FB00164
:1014D000112467527E4F0088F189E02D0DC0E09104
:1014E000A501F091A6018EE1189FB0011124675269
:1014F0007E4F0288F389E02DCD01DF91CF911F91BE
:101500000994E091A501F091A6013EE1139FB0017D
:10151000112467527E4F0688F789E02DEDCFE091C8
:10152000A501F091A6018EE1189FB0011124675228
:101530007E4F008CF18DE02DDFCF1F3F09F41FE7B8
:1015400012969C91913099F4812F0E94EA05E12F27
:10155000F0E0E255FC4F85818111C1C0E091A50109
:10156000F091A6010680F781E02D812F47C09230CF
:1015700029F5C1E08C2F0E944A04CF5FCC30D1F70F
:10158000C12FD0E0C255DC4F8D81811109C0E0919F
:10159000A501F091A6010084F185E02D8FE7099562
:1015A000812F0E94EA058D81811199C0E091A501EA
:1015B000F091A6010680F781E02D1FC0933009F05D
:1015C0008EC0812FDF91CF911F910C944A0481E04E
:1015D0001F3FC1F480930F0188E691E0E9EDF1E04F
:1015E000DF019C011D9221503040E1F7E091A501FF
:1015F000F091A6010284F385E02D8FE7DF91CF9172
:101600001F910994809328051C3008F068C03EE1C2
:10161000139FF0011124E752FE4F108280910F01B9
:10162000181710F410930F01E091A501F091A60195
:101630000284F385E02D812F09951092BE034FC0DF
:1016400082E08093BF039091C00394609093C003A5
:101650009091C00390619093C0031092C103133026
:10166000B1F040F4113079F01230C9F58091C00327
:10167000826033C0153071F1B0F0163081F5809181
:10168000C0038E7F2AC08091C0038D7F26C0E09169
:10169000A501F091A6010480F581E02D80E0099577
:1016A0001092C1031CC0E091A501F091A601048035
:1016B000F581E02D81E0099581E080930F0188E6B6
:1016C00091E0E9EDF1E0DF019C011D9221503040F5
:1016D000E1F705C08091C00381608093C003DF9172
:1016E000CF911F910895DC01683810F0685825C02B
:1016F000E62FF0E067FF12C0E058F10981E090E0CA
:1017000001C0880FEA95EAF7809514969C9114978A
:10171000892314968C93149760E00FC0E656FE4F11
:101720006491662311F167FF08C014968C91149799
:101730008D7F14968C9314976F77FD01369686E013
:10174000662321F09081961301C01082815031965A
:101750008111F6CFBD016C5F7F4F48E050E082E021
:101760000E94EE0981E090E0089580E090E0089505
:10177000FC01168217821086118612861386148247
:10178000BC016C5F7F4F48E050E082E00C94EE09B2
:10179000DC01683810F068582DC0E62FF0E067FFD4
:1017A00011C0E058F10981E090E001C0880FEA958E
:1017B000EAF714969C911497892B14968C9314979E
:1017C00060E018C0E656FE4F6491611109C081E0E7
:1017D00090E013969C938E93129780E090E008958A
:1017E00067FF08C014968C911497826014968C93AE
:1017F00014976F7716968C911697861751F1179656
:101800008C911797861729F118968C91189786173F
:1018100001F119968C9119978617D9F01A968C9127
:101820001A978617B1F01B968C911B97861789F033
:10183000FD01369680E090E02191211105C0FD0167
:10184000E80FF91F668305C0019686309105A1F760
:10185000BECFBD016C5F7F4F48E050E082E00E9448
:10186000EE0981E090E00895CF92DF92EF92FF922F
:101870000F931F93CF93DF936C01EB017B01E40E79
:10188000F51E00E010E0CE15DF0561F06991D6018C
:10189000ED91FC910190F081E02DC6010995080FB2
:1018A000191FF1CFC801DF91CF911F910F91FF90C8
:1018B000EF90DF90CF90089583E08093E9008091CE
:1018C000F200882319F08AE38093E80008952091BC
:1018D0007D0430917E0480917F04909180042817CC
:1018E0003907A9F0E0917F04F0918004E35CFB4F9D
:1018F000808120917F04309180042F5F3F4F2F73B0
:1019000033273093800420937F0490E008958FEF75
:101910009FEF089520917D0430917E0480917F0493
:10192000909180042817390749F0E0917F04F091E5
:101930008004E35CFB4F808190E008958FEF9FEF80
:10194000089580917D0490917E0420917F043091D0
:101950008004821B930B8F739927089585ED8093E4
:10196000BC008091BC0084FDFCCF10921704089548
:101970004091F103262F30E0240F311D2132310533
:10198000DCF4209117042430C9F4FC0180E090E0DD
:10199000861758F43091F1032191DC01A153BC4F1B
:1019A000A30FB11D2C930196F3CF8091F103680F23
:1019B0006093F10380E0089581E0089582E0089546
:1019C00008958FEF9FEF08958FEF9FEF0895809117
:1019D000CE0390E09195819591090895CF93DF937F
:1019E00000D0CDB7DEB7CB01642F49835A830E9464
:1019F000B80C4981842F5A81952F0F900F90DF9159
:101A0000CF910895CF93DF931F92CDB7DEB769834F
:101A100061E0CE0101960E94B80C81E090E00F9049
:101A2000DF91CF9108950895CF93DF93FC01EB01EF
:101A3000718182818983878190859A8789872585AD
:101A40003685438154816EE1769FC001112487520F
:101A50009E4FDC0150965C934E931F9756963C9395
:101A60002E93559764E0769FD0011124A755BE4F61
:101A70001D921D921D921C921397838594859E87BB
:101A80008D8782858E8381E0DF91CF910895FC015F
:101A90002281FB012783FC018381FB01808708955C
:101AA000FC0182819381FB01908F878B0895DC017B
:101AB000FB0112968D919C911397908F878B1496B2
:101AC0008D919C911597948F838F16968C91169774
:101AD000858F17968D919C91189794878387089589
:101AE000DC01FB0112968C91129782838281811115
:101AF00010C015968D919C911697908F878B139699
:101B00008D919C911497948F838F17968C918583D8
:101B1000089582810895DC01FB0112968C91129741
:101B2000838313968C911397848314968D919C9143
:101B30001597948B838B16968D919C911797928B0A
:101B4000818B08959EE1899FF0011124E752FE4F99
:101B5000708B6787568B458B94E0899FF001112429
:101B6000E755FE4F10821182128213820895089564
:101B700008951092280524E0829FC0011124FC01E1
:101B8000E755FE4F1082118212821382089525E0DC
:101B9000FC0120838EE591E0089508958093280547
:101BA0000895CF92DF92EF92FF9260914C03709173
:101BB0004D03072E000C880B990B0E94D32E6B014E
:101BC0007C0160914E0370914F038091500390917E
:101BD00051030E94D32E9B01AC01C701B6010E94A4
:101BE000292EFF90EF90DF90CF9008950E94B6309D
:101BF0000F931F93CF93DF931F92CDB7DEB78C0166
:101C0000698380911701882359F041E050E0BE01BB
:101C10006F5F7F4F83E00E949708181619063CF00B
:101C200081E090E0F8019383828380E090E00F9060
:101C3000DF91CF911F910F9108950F931F93CF9331
:101C4000DF931F92CDB7DEB700917D0410917E0423
:101C50000F5F1F4F0F73112780917F0490918004B5
:101C600008171907F9F041E050E0BE016F5F7F4FA0
:101C700082E00E943009019719F4898190E002C046
:101C80008FEF9FEF8F3F2FEF920761F0E0917D0480
:101C9000F0917E04E35CFB4F808310937E040093FD
:101CA0007D04D2CF0F90DF91CF911F910F910895B6
:101CB0001F920F920FB60F9211242F933F934F93C1
:101CC0005F936F937F938F939F93AF93BF93EF93A4
:101CD000FF938091B900887F803609F49CC068F535
:101CE000883209F45BC090F4803109F454C038F4B0
:101CF000882309F4F6C0883009F44DC0F6C0883155
:101D000009F44CC0803209F45DC0EFC0803409F49E
:101D100068C048F4803309F455C0883309F0E5C041
:101D200080931604D8C0803509F44FC0883509F473
:101D30005DC0883409F0D9C0D6C0883909F4C7C05D
:101D4000A8F4883709F467C038F4883609F463C00A
:101D5000803709F460C0C9C0883809F4B8C0803938
:101D600009F45FC0803809F0C0C05BC0803B09F453
:101D700086C038F4803A09F466C0883A09F47FC016
:101D8000B4C0803C09F4A7C0883C09F4A4C0883BD7
:101D900009F48AC0AAC080913C0410C090913B0411
:101DA00080913A04981770F5E0913B0481E08E0F22
:101DB00080933B04F0E0E65EFB4F80818093BB00A4
:101DC00085EC86C0809316048EC0E0913B0481E0D0
:101DD0008E0F80933B048091BB00F0E0E65EFB4FEA
:101DE000808390913B0480913A046EC0E0913B0463
:101DF00081E08E0F80933B048091BB00F0E0E65EB3
:101E0000FB4F80838091190481116DC081E0809324
:101E1000180484EA61C083E08093170410921504CB
:101E2000CFCF80911504803208F051C0E0911504A5
:101E300081E08E0F809315048091BB00F0E0EB50A1
:101E4000FC4F8083BDCF85EC8093BC0010921704BB
:101E500080911504803230F4E0911504F0E0EB50ED
:101E6000FC4F10826091150470E0E091F303F09153
:101E7000F40385EF93E009951092150436C084E0D1
:101E8000809317041092F2031092F103E091EF0394
:101E9000F091F00309958091F103811105C081E073
:101EA0008093F1031092CF03E091F20381E08E0F53
:101EB0008093F203F0E0E153FC4F80818093BB00FC
:101EC0009091F2038091F103981708F479CF85E897
:101ED0008093BC000AC085EC8093BC00109217046C
:101EE00004C0109216040E94AE0CFF91EF91BF91B6
:101EF000AF919F918F917F916F915F914F913F91A2
:101F00002F910F900FBE0F901F9018952091A70151
:101F10003091A8012817390708F4C90190938B0064
:101F200080938A0008952091A7013091A801281775
:101F3000390708F4C90190938900809388000895B7
:101F40004F925F926F927F928F929F92AF92BF92C9
:101F5000CF92DF92EF92FF920F931F93CF93DF9375
:101F6000CDB7DEB760970FB6F894DEBF0FBECDBF1A
:101F7000009709F46DC38C0160914B0370E080E021
:101F800090E00E94D32E2AE037ED43E25CE30E940A
:101F9000882F69837A838B839C83F801808091806A
:101FA000A280B380B7FE08C0B094A09490948094AF
:101FB000811C911CA11CB11CC501B4010E94D32E2F
:101FC0006B017C01609146037091470380E090E0D3
:101FD0000E94D12E2B013C0126E636E646E65FE361
:101FE0000E94882F29813A814B815C810E94882F31
:101FF0006D837E838F8398879B01AC01C701B601F7
:102000000E94832F87FDCAC0A301920169817A8152
:102010008B819C810E94882F69877A878B879C8718
:1020200020E030E040E85FE30E94B72D9B01AC0167
:10203000C701B6010E94242E87FFB0C06D817E814A
:102040008F8198850E949B2E6B017C01A5019401D4
:10205000261B370B480B590BAEE3B0E00E94732DE3
:102060004B015C0169857A858B859C850E949B2E3E
:102070009B01AC012C193D094E095F09C501B40152
:102080000E94542D69017A01FFEFCF1ADF0AEF0A8F
:10209000FF0A560161E083E00E941C17C114D104BD
:1020A00011F480E005C08FEFC816D10421F481E05F
:1020B0000E9413168AC0E2E2F8E0E4918E2F90E0CD
:1020C000FC013197EE30F10508F062C0EE55FF4F8C
:1020D0000C94A93084B5806884BDC7BC76C084B533
:1020E000806284BDC8BC71C080918000806880938C
:1020F0008000D0928900C092880067C080918000E3
:10210000806280938000D0928B00C0928A005DC074
:1021100080919000806880939000D0929900C09246
:10212000980053C080919000806280939000D0927C
:102130009B00C0929A0049C0809190008860809373
:102140009000D0929D00C0929C003FC08091C00042
:1021500080688093C0008091C0008F7B8093C00016
:10216000C092CF0032C08091C00080628093C000D6
:10217000C092D0002AC08091C20088608093C200C3
:102180008091C2008B7F8093C200C092D2001DC09C
:10219000E0E8AE16B1040CF08ACF83CFA301920120
:1021A00069817A818B819C810E94882F20E030E0B8
:1021B00040E85FE30E94B72D9B01AC01C701B60167
:1021C0000E94832F87FD6DCF72CF6091480370E02E
:1021D00060587109072E000C880B990B0E94D32EB2
:1021E00020E030E04FE753E40E94292E6B017C0190
:1021F0006093CA037093CB038093CC039093CD0379
:1022000020E030E0A9010E94832F87FD1DC0A701B7
:10221000960160E070E080E89FE30E94B72D609334
:10222000C6037093C7038093C8039093C90380E0EB
:1022300090E0A0E8BFE38093C2039093C303A09310
:10224000C403B093C50323C020E030E0A901C70157
:10225000B6010E94242E87FF1AC080E090E0A0E81B
:10226000BFE38093C6039093C703A093C803B093C2
:10227000C9039C01AD01C701B6010E94B82D60934E
:10228000C2037093C3038093C4039093C5039091DA
:102290004503F801C080D180E280F380892F8074EB
:1022A00091FDEAC0811195C01C141D041E041F0479
:1022B000E4F5409046035090470320914903309144
:1022C0004A034901A12CB12C612C712CC301B2012C
:1022D0000E94D12E2091C2033091C3034091C403C8
:1022E0005091C5030E94882F0E949B2E681979097E
:1022F0008A099B09A70196010E948530A3019201DA
:102300000E94542DDA01C901880D991DAA1DBB1D1B
:10231000F80180839183A283B38380E090E00E94E0
:10232000930FF8018081918146C0C114D104E1046A
:10233000F10409F444C04090460350904703809153
:10234000490390914A034C01A12CB12CF094E094E4
:10235000D094C094C11CD11CE11CF11C612C712CC7
:10236000C301B2010E94D12E2091C6033091C70350
:102370004091C8035091C9030E94882F0E949B2E50
:10238000681979098A099B09A70196010E9485307D
:10239000A30192010E94542DDA01C901880D991DF3
:1023A000AA1DBB1DF80180839183A283B3830E9481
:1023B000930F80E090E00E94860F2A9A49C180E046
:1023C00090E00E94930F80E090E00E94860F2A9890
:1023D0003FC1E0914603F09147031C141D041E0405
:1023E0001F04DCF44F0196948794809149039091E7
:1023F0004A03880E991EA12CB12C2F01612C712C3F
:10240000C301B201681979098A099B09A7019601DC
:102410000E948530A301920119C0C114D104E104C6
:10242000F10411F14F0196948794809149039091A2
:102430004A03881A990AA12CB12CA5019401C7015D
:10244000B6010E9485309F0140E050E00E94542D6B
:10245000DA01C901880D991DAA1DBB1DF8018083F1
:102460009183A283B38303C0CF01969587950E9481
:10247000930F80E090E0D4C0811133C0F7FC02C01C
:102480002A9A01C02A988091490390914A036C01CD
:10249000E12CF12C8090460390904703A12CB12CA5
:1024A000F801208131814281538157FF07C0509547
:1024B0004095309521953F4F4F4F5F4FC501B40177
:1024C0006C197D098E099F090E948530A501940130
:1024D0000E94542DDA01C9018C0D9D1DAE1DBF1D3A
:1024E00081C01C141D041E041F046CF520E030E0A4
:1024F00040E85FE3609141037091420380914303A0
:10250000909144030E94B82D20910401309105015F
:1025100040910601509107010E94882F0E949B2E36
:102520004B015C01609100017091010180910201F9
:10253000909103010E949B2E681979098A099B09D1
:10254000A70196013FC0C114D104E104F10409F4CC
:102550004FC0209141033091420340914303509179
:10256000440360E070E080E89FE30E94B72D209173
:1025700004013091050140910601509107010E942C
:10258000882F0E949B2E4B015C0122273327A90133
:102590002C193D094E095F096091080170910901EC
:1025A00080910A0190910B012D873E874F87588BB0
:1025B0000E949B2E681979098A099B092D853E8501
:1025C0004F8558890E9485302091460330914703FA
:1025D00040E050E00E94542DDA01C901880D991D98
:1025E000AA1DBB1DF80180839183A283B3830BC016
:1025F000609104017091050180910601909107019D
:102600000E94A22ECB010E94930F60910401709151
:10261000050180910601909107010E94A22ECB0135
:1026200060960FB6F894DEBF0FBECDBFDF91CF919D
:102630001F910F91FF90EF90DF90CF90BF90AF90E0
:102640009F908F907F906F905F904F900C94860F2B
:1026500060960FB6F894DEBF0FBECDBFDF91CF916D
:102660001F910F91FF90EF90DF90CF90BF90AF90B0
:102670009F908F907F906F905F904F9008956091A2
:10268000A7017091A80180E090E00E94D12E9B01EB
:10269000AC0160E07EEF8FEF96E40E94292E089552
:1026A0002F923F924F925F926F927F928F929F9262
:1026B000AF92BF92CF92DF92EF92FF920F931F9350
:1026C000CF93DF93CDB7DEB729970FB6F894DEBF6F
:1026D0000FBECDBF998788874B012B831D830C8349
:1026E0001701DF82CE82042F10E08C819D816C0166
:1026F000E12CF12CE885F985F7FD2BC0C8019695F2
:10270000982F882797958795BF01681B790B072E0F
:10271000000C880B990B0E94D32E2B013C01C701A2
:10272000B6010E94D12E9B01AC01C301B2010E94EF
:10273000292E2B013C01C8019695982F8827979543
:1027400087959A838983EB8190E8E99FB0011124F2
:102750002AC0B8017695762F662777956795E88524
:10276000F9856E0F7F1F072E000C880B990B0E94B6
:10277000D32E2B013C01C701B6010E94D12E9B0133
:10278000AC01C301B2010E94292E2B013C0160E87B
:102790006003C001619F900D11249A8389832B816E
:1027A0006203B001112488859985681B790B072E77
:1027B000000C880B990B0E94D32E6B017C01B10198
:1027C00080E090E00E94D12E9B01AC01C701B601D0
:1027D0000E94292E6B017C018A149B0408F43FC0DF
:1027E0008E819F818A0D9B1D88169906C0F50C81EC
:1027F0001D810A0D1B1D8016910690F4B4016A1903
:102800007B0980E090E00E94D12E9B01AC01C301C6
:10281000B2010E94882F0E949B2E89819A811CC040
:102820008219930988159905E8F48A189B08EE81A6
:10283000FF818E1A9F0AB401620D731D80E090E043
:102840000E94D12E9B01AC01C701B6010E94882FC6
:102850000E949B2E88859985860F971F05C080E072
:1028600090E002C08885998529960FB6F894DEBF5E
:102870000FBECDBFDF91CF911F910F91FF90EF90D1
:10288000DF90CF90BF90AF909F908F907F906F9090
:102890005F904F903F902F900895CF92DF92EF92EC
:1028A000FF920F931F938B019C014091460350911F
:1028B00047036A01E12CF12C66277727CB016C19BD
:1028C0007D098E099F0906171707280739074CF05D
:1028D000C901B801C016D106E206F30614F4C70117
:1028E000B6011F910F91FF90EF90DF90CF90089568
:1028F0008F929F92AF92BF92CF92DF92EF92FF9210
:10290000CF93DF934B015C01EA010E94D10D6B0173
:102910007C01DE01A50194010E947E2D0E94D32E30
:10292000A70196010E94882F20E030E040E051E4AA
:102930000E94882F20E030E040E251E40E94882F7E
:1029400020E030E040E85BE30E94882F0E949B2E4D
:102950000E944D1490958095709561957F4F8F4F93
:102960009F4FDF91CF91FF90EF90DF90CF90BF907E
:10297000AF909F908F9008954F925F926F927F9249
:102980008F929F92AF92BF92CF92DF92EF92FF927F
:10299000CF93DF9300D000D0CDB7DEB74B015C0101
:1029A00057FF02C04D5F5F4F6A01D594C794D5941D
:1029B000C7940E94D10D69837A838B839C839B018A
:1029C000AC01C501B4010E94882F20E030E040E254
:1029D00051E40E94882F2B013C0120E030E040E8C8
:1029E0005FE30E94832F0D2C000CEE08FF081816E1
:1029F0001CF4C701B60128C020E030E040E85FEBDE
:102A0000C301B2010E94242E87FF06C0C701B60190
:102A10000E944D14CB011EC0C701B6010E94D32EE7
:102A20009B01AC01C501B4010E94882F29813A8124
:102A30004B815C810E94882F20E030E040E251E42D
:102A40000E94882F0E949B2E0E944D148827992750
:102A5000861B970B0F900F900F900F90DF91CF91E7
:102A6000FF90EF90DF90CF90BF90AF909F908F90AE
:102A70007F906F905F904F9008958F929F92AF924A
:102A8000BF92CF92DF92EF92FF924B015C01BA01AD
:102A9000550F880B990B0E94D32E6B017C0120E00F
:102AA00030E0A901C501B4010E94832FA501940162
:102AB00018160CF05058C701B6010E94882F6B0100
:102AC0007C010E94D10D9B01AC01C701B6010E949F
:102AD000882F20E030E040E851E40E94882F20E079
:102AE00030E040E251E40E94882F20E030E040E0F6
:102AF0005DE30E94882F0E949B2E0E944D146B0163
:102B00007C0120E030E0A901C501B4010E94832FBF
:102B100018162CF4882799278C199D090DC020E0E0
:102B200030E0A901C501B4010E94242E87FF02C034
:102B3000C60102C080E090E0FF90EF90DF90CF9060
:102B4000BF90AF909F908F900895CF92DF92EF92B9
:102B5000FF92CF93DF936B017C01EA0120E030E02C
:102B6000A9010E94832F181694F020E030E0A901FB
:102B7000C701B6010E94242E87FF3AC020E030E052
:102B8000A901C701B6010E94B82D6B017C01BE01ED
:102B9000DD0F880B990B0E94D32E9B01AC01C7015E
:102BA000B6010E94882F6B017C010E94D10D9B0110
:102BB000AC01C701B6010E94882F20E030E040E858
:102BC00051E40E94882F20E030E040E251E40E946E
:102BD000882F20E030E040E05BE30E94882F0E94D5
:102BE0009B2E0E944D1488279927861B970B02C0A5
:102BF00080E090E0DF91CF91FF90EF90DF90CF9059
:102C00000895009769F0FC0101900020E9F73197E1
:102C1000AF01481B590BBC0181E894E00C94340CC3
:102C200080E090E00895E2E2F8E04491E3E0F8E02B
:102C30009491E4EEF7E02491222309F44DC044235B
:102C4000C1F150E0FA013197EE30F10590F5E05511
:102C5000FF4F0C94A930309180003F7703C0309132
:102C600080003F7D3093800024C034B53F7702C0A0
:102C700034B53F7D34BD1DC0309190003F7707C013
:102C8000309190003F7D03C030919000377F3093AA
:102C900090000FC03091C0003F7703C03091C0005A
:102CA0003F7D3093C00005C03091C200377F309324
:102CB000C200E22FF0E0EE0FFF1FED52F84FA5919A
:102CC000B4912FB7F894EC91811103C090959E2395
:102CD00001C09E2B9C932FBF0895E0918104F09139
:102CE00082040190F081E02D682F81E894E009943E
:102CF000CF93DF938DE00E946D16EC018AE00E9475
:102D00006D168C0F9D1FDF91CF9108958F929F922A
:102D1000AF92BF92EF92FF920F931F93CF93DF93E7
:102D2000CDB7DEB7A1970FB6F894DEBF0FBECDBF0B
:102D3000162F042F19A2423008F40AE07E0121E286
:102D4000E20EF11C802E912CA12CB12C612FA5013B
:102D500094010E94862D029F1019112481E0E81A27
:102D6000F1081A3014F4105D01C0195CF7011083EA
:102D7000122F732FCA01232B242B252B39F7C701C0
:102D80000E940116A1960FB6F894DEBF0FBECDBF0C
:102D9000DF91CF911F910F91FF90EF90BF90AF9077
:102DA0009F908F900895CF92DF92EF92FF92CF93F2
:102DB000DF9397FF19C06B017C018DE20E946D16B5
:102DC000EC0166277727CB016C197D098E099F09D5
:102DD0004AE00E9486168C0F9D1FDF91CF91FF90D5
:102DE000EF90DF90CF9008954AE0DF91CF91FF9070
:102DF000EF90DF90CF900C948616CF93DF93BC01B9
:102E0000990F880B990B0E94D316EC010E9478163B
:102E10008C0F9D1FDF91CF910895BC01990F880BF6
:102E2000990B0C94D316682F70E080E090E04AE094
:102E30000C9486160C940116CF93DF9390E0FC015E
:102E4000E050F84F2491FC01EF51F84F8491882312
:102E500061F190E0880F991FFC01EB53F84FC59189
:102E6000D491FC01ED52F84FA591B491611109C0C4
:102E70009FB7F8948881209582238883EC912E2334
:102E80000BC0623061F49FB7F8943881822F80952F
:102E900083238883EC912E2B2C939FBF06C08FB782
:102EA000F894E8812E2B28838FBFDF91CF9108956E
:102EB0003FB7F8948091320590913305A091340585
:102EC000B091350526B5A89B05C02F3F19F0019696
:102ED000A11DB11D3FBFBA2FA92F982F8827820FA0
:102EE000911DA11DB11DBC01CD0142E0660F771FF0
:102EF000881F991F4A95D1F70895CF92DF92EF92DC
:102F0000FF92CF93DF936B017C010E945817EB0176
:102F1000C114D104E104F10479F00E9458176C1B2C
:102F20007D0B683E7340A0F381E0C81AD108E10828
:102F3000F108C851DC4FECCFDF91CF91FF90EF90BB
:102F4000DF90CF9008952FB7F89460912E0570917F
:102F50002F0580913005909131052FBF08950F9373
:102F60001F930E94A3176093890470938A0480932F
:102F70008B0490938C04E0918104F091820400848E
:102F8000F185E02D81E894E0099597FF1FC00E942C
:102F9000A3170091890410918A0420918B04309129
:102FA0008C04DC01CB01801B910BA20BB30B0091B5
:102FB000850410918604209187043091880480173D
:102FC0009107A207B307B8F28FEF9FEF1F910F9100
:102FD0000895FF920F931F93CF93DF9300D000D0FB
:102FE000CDB7DEB70E94AF17FC0197FD11C08D323F
:102FF000910591F0C0970A9778F0E0918104F091E3
:1030000082040680F781E02D81E894E00995EACFFB
:1030100060E070E0CB014CC020E030E0A901F12C71
:10302000E130F105F1F0ED32F105C9F0CF01C097C3
:103030000A97B8F4AAE0B0E00E94732D8F01FF0F49
:10304000220B330BDC01CB01800F911FA21FB31F9A
:103050009C01AD01205331094109510902C0FF24EF
:10306000F394E0918104F09182040680F781E02DD1
:1030700081E894E029833A834B835C8309950E941D
:10308000AF17FC01C09729813A814B815C810A9777
:1030900038F2E130F10521F2FF2041F06627772771
:1030A000CB01621B730B840B950B02C0CA01B901E3
:1030B0000F900F900F900F90DF91CF911F910F9174
:1030C000FF9008951F920F920FB60F9211242F9325
:1030D0003F938F939F93AF93BF9380912E059091D1
:1030E0002F05A0913005B091310530912D0523E0D9
:1030F000230F2D3720F40196A11DB11D05C026E830
:10310000230F0296A11DB11D20932D0580932E053E
:1031100090932F05A0933005B0933105809132052F
:1031200090913305A0913405B09135050196A11D0C
:10313000B11D8093320590933305A0933405B0936D
:103140003505BF91AF919F918F913F912F910F9036
:103150000FBE0F901F901895CF93DF93CDB7DEB7BA
:10316000C054D1090FB6F894DEBF0FBECDBF78941E
:1031700084B5826084BD84B5816084BD85B582607C
:1031800085BD85B5816085BD80916E00816080932D
:103190006E00109281008091810082608093810096
:1031A00080918100816080938100809180008160A6
:1031B0008093800080919100826080939100809143
:1031C0009100816080939100809190008160809354
:1031D00090008091C10084608093C1008091C10003
:1031E00082608093C1008091C10081608093C100A2
:1031F0008091C30081608093C3008091C000826091
:103200008093C0008091C20081608093C200809151
:103210007A00846080937A0080917A008260809343
:103220007A0080917A00816080937A0080917A00A0
:10323000806880937A001092A40181E08093D70087
:1032400080EA8093D80082E189BD09B400FEFDCFF9
:1032500061E070E080E090E00E947D1780E980935B
:10326000D8001CE01093E2001092E00010928B0353
:1032700010928A031092790310927A0310927B03C2
:1032800010927C03109274031092730310928203C5
:103290001092830310928403109285031092860388
:1032A00010928703109288031092890342E0BE01B6
:1032B000615F7F4F80E090E00E9492068F85988941
:1032C0008A3F910509F407C18AEF90E09E878D87B8
:1032D00042E0BE01635F7F4F80E090E00E946306A2
:1032E00019821A821B821C8244E0BE016F5F7F4FED
:1032F00082E090E00E94630688E394E09E878D87D9
:1033000042E0BE01635F7F4F86E090E00E9463066B
:1033100084E6898B41E0BE016F5E7F4F88E090E0DC
:103320000E94630641E0BE016F5E7F4F8BE090E03C
:103330000E94630641E0BE016F5E7F4F8CE090E02B
:103340000E94630641E0BE016F5E7F4F80E190E026
:103350000E94630641E0BE016F5E7F4F8DE090E00A
:103360000E94630682E3898B41E0BE016F5E7F4F5E
:1033700089E090E00E94630641E0BE016F5E7F4FEE
:103380008AE090E00E94630641E0BE016F5E7F4FDD
:103390008EE090E00E94630686E4898B41E0BE01E6
:1033A0006F5E7F4F8FE090E00E9463061E861D8651
:1033B00042E0BE01635F7F4F81E190E00E946306BF
:1033C0008FEF97E09E878D8742E0BE01635F7F4F5E
:1033D00083E190E00E9463068FEF9FE09E878D87D8
:1033E00042E0BE01635F7F4F85E190E00E9463068B
:1033F00080E8898B41E0BE016F5E7F4F87E190E0FE
:103400000E94630681E0898B41E0BE016F5E7F4FC1
:1034100088E190E00E94630680E699E0A0E0B0E0D9
:1034200089839A83AB83BC8344E0BE016F5F7F4F87
:1034300089E190E00E946306198B41E0BE016F5E56
:103440007F4F8DE190E00E9463061E861D8642E05C
:10345000BE01635F7F4F8AE290E00E94630642E014
:10346000BE01635F7F4F8EE290E00E94630642E000
:10347000BE01635F7F4F82E390E00E94630642E0FB
:10348000BE01635F7F4F86E390E00E9463068FEF8B
:1034900093E09E878D8742E0BE01635F7F4F8CE2A1
:1034A00090E00E94630642E0BE01635F7F4F80E3CD
:1034B00090E00E94630642E0BE01635F7F4F84E3B9
:1034C00090E00E94630642E0BE01635F7F4F88E3A5
:1034D00090E00E94630642E06CE473E086E090E0D6
:1034E0000E94920644E067E573E089E190E00E9463
:1034F000920641E06BE473E088E090E00E9492065F
:1035000041E062E673E089E090E00E94920641E0CB
:1035100061E673E08AE090E00E94920641E060E696
:1035200073E08BE090E00E94920641E06FE573E06B
:103530008CE090E00E94920641E06EE573E08DE041
:1035400090E00E94920641E06DE573E08EE090E02D
:103550000E94920641E06CE573E08FE090E00E94EB
:10356000920641E06BE573E080E190E00E949206F4
:1035700041E068E473E087E190E00E94920641E058
:1035800061E873E088E190E00E94920642E069E41D
:1035900073E081E190E00E94920642E066E473E00D
:1035A00083E190E00E94920642E065E573E085E1E8
:1035B00090E00E94920641E065E473E08DE190E0C6
:1035C0000E94920642E06CE873E08AE290E00E947A
:1035D000920642E06EE873E08CE290E00E94920670
:1035E00042E06DE773E08EE290E00E94920642E0D6
:1035F0006FE773E080E390E00E94920642E065E7A7
:1036000073E082E390E00E94920642E067E773E095
:1036100084E390E00E94920642E06FE673E086E366
:1036200090E00E94920642E061E773E088E390E058
:103630000E9492066091570370915803809159033C
:1036400090915A030E94D32E20E030E044EB53E4E3
:103650000E94292E6B017C0180914C0390914D03B7
:10366000BC01990F880B990B0E94D32E9B01AC01D2
:10367000C701B6010E94882F0E949B2E60934E03C3
:1036800070934F038093500390935103DC01CB015F
:10369000B595A795979587958093900390939103FF
:1036A000A0939203B093930360E082E10E941C1701
:1036B00060E083E10E941C1760E084E10E941C1717
:1036C00060E085E10E941C1762E084E00E941C1704
:1036D00062E08EE00E941C1762E08FE00E941C17DF
:1036E00062E082E00E941C1762E086E00E941C17E4
:1036F00062E087E00E941C1762E088E00E941C17CD
:1037000062E085E00E941C1788E191E09093A60199
:103710008093A50188EC94E090932A058093290575
:103720008FE09AE090932C0580932B05229A1091BC
:103730004503812F0E94BB065C019093A8018093F2
:10374000A7019093470380934603609149037091CA
:103750004A0380E090E00E94D12E6B017C01B5010C
:1037600080E090E00E94D12E9B01AC01C701B60120
:103770000E94292E60934103709342038093430378
:1037800090934403012F017010FD05C020E030E04C
:103790004AEF54E404C020E030E04AE754E460918A
:1037A00008017091090180910A0190910B010E941A
:1037B000882F609308017093090180930A01909308
:1037C0000B01011105C020E030E04AEF54E404C0D1
:1037D00020E030E04AE754E4609104017091050173
:1037E00080910601909107010E94882F6093040147
:1037F000709305018093060190930701011105C0A4
:1038000020E030E04AEF54E404C020E030E04AE732
:1038100054E4609100017091010180910201909146
:1038200003010E94882F609300017093010180932F
:103830000201909303011092800010928100109277
:103840006F0016BA8091A7019091A801909387000C
:1038500080938600109289001092880010928B004D
:1038600010928A00809145038274823421F4809101
:103870008100826003C0809181008160809381001B
:103880008091450380FF09C0809180008260809311
:10389000800080918100806108C0809180008260FA
:1038A000809380008091810088618093810080E016
:1038B00090E00E94930F8091800080688093800048
:1038C000259A80E090E00E94860F809180008062BF
:1038D00080938000269A61E083E00E941C1713E029
:1038E00081E00E94131664E170E080E090E00E94A5
:1038F0007D1780E00E94131664E170E080E090E0A4
:103900000E947D17115061F71092690310926A03AB
:1039100010926B0310926C0389E693E00E94A00F53
:1039200010926803109267038FEF97E0909354030F
:103930008093530380914803809352030E94581749
:1039400060939403709395038093960390939703E9
:103950000E94581760939304709394048093950485
:1039600090939604009198031091990320919A03E3
:1039700030919B036B017C01C01AD10AE20AF30A61
:10398000C0928F04D0929004E0929104F09292043D
:103990000091940310919503209196033091970321
:1039A0006B017C01C01AD10AE20AF30A40EDC41689
:1039B00047E0D406E104F10410F40C949E2C6093CB
:1039C000940370939503809396039093970340908C
:1039D0009003509091036090920370909303730151
:1039E0006201C094D094E094F0944C185D086E0885
:1039F0007F08A0918A03B0918B03A30192010E94DA
:103A00007E2D2FEF3FE040E050E00E94542DDA0180
:103A1000C9018C0D9D1DAE1DBF1D80938603909323
:103A20008703A0938803B0938903809382039093C4
:103A30008303A0938403B0938503B0908103B5FA08
:103A4000882780F9B6FC8260B7FE02C0846013C08C
:103A5000813089F46091790370917A0380917B03BE
:103A600090917C03A30192010E9485302FEF3FEFDC
:103A700040E050E017C0823019F1833029F4A09162
:103A80007303B091740306C08430D1F4A0916D0328
:103A9000B0916E03A30192010E947E2D2FEF3FE0B3
:103AA00040E050E00E94542DC20ED31EE41EF51ECD
:103AB000C0928203D0928303E0928403F092850344
:103AC000C0908203D0908303E0908403F09085033C
:103AD00080919C0490919D04A0919E04B0919F04BC
:103AE000C0929C04D0929D04E0929E04F0929F04A8
:103AF0002091A404222309F445C0A090CD0454E0F1
:103B0000A59E8001112404561B4FA7019601281B76
:103B1000390B4A0B5B0BCA01B9010E94D32ED801A5
:103B200019966D937D938D939C931C971A2D0AE0A3
:103B300060E070E0CB01B4E01B9FF0011124E4567B
:103B4000FB4F21853285438554850E94B82D112372
:103B500011F0115001C019E0015069F720E030E088
:103B600040E251E40E94292E21E02A0D2A3018F467
:103B70002093CD0402C01092CD0468A779A78AA72C
:103B80009BA70FC081E08093A4041092A004109220
:103B9000A1041092A2041092A30418A619A61AA6B2
:103BA0001BA62091CE043091CF044091D0045091B7
:103BB000D10488A599A5AAA5BBA58093CE0490930E
:103BC000CF04A093D004B093D1048091D60488236D
:103BD00009F440C0A0902705E4E0AE9E80011124C6
:103BE0000B551B4F68A5792FCD010E94B72DD80129
:103BF000D2966D937D938D939C93D5971A2D04E166
:103C000060E070E0CB01B4E01B9FF0011124EB55A4
:103C1000FB4F22A933A944A955A90E94B82D11230D
:103C200011F0115001C013E1015069F720E030E0BC
:103C300040EA51E40E94292E21E02A0D243118F493
:103C40002093270502C01092270568AB79AB8AAB99
:103C50009BAB0FC081E08093D6041092D2041092E7
:103C6000D3041092D4041092D50418AA19AA1AAA3F
:103C70001BAA80912805882359F1B0FE23C70E9412
:103C80003F139B01AC0160E070E080E094E40E948F
:103C9000292E4B015C0160915C0370E080E090E0B4
:103CA0000E94D32E9B01AC01C501B4010E94882F54
:103CB00020E030E048EC52E40E94292E0E949B2E26
:103CC000AB01C701B6010E9478142B013C01FDC66F
:103CD000EDEAF1E0FFA3EEA31F8A1E8A412C512CCE
:103CE00032010E891F890F5F1F4F1F8B0E8B4EE114
:103CF0009801429F8001439F100D112407521E4FCF
:103D0000D8018C918370833009F0CFC60E943F1395
:103D10006B017C01F80121853285A789B08D0E9455
:103D2000AF302FEF3FE740E050E00E94542DCA0132
:103D3000B9010E94D32EA70196010E94292E0E944C
:103D40009B2E9B01AC01D8011B968D919C911C97D9
:103D5000059730F4E4E0F0E01C96FC93EE931B979B
:103D6000FEE1EF2ECE88DF88EC9CF001ED9CF00D9B
:103D70001124E752FE4FE1818E2F90E0FC01319734
:103D8000ED30F10508F07BC6EA5AFF4F0C94A930DC
:103D90000E943F136A8B7B8B8C8B9D8B2EE10E894F
:103DA0001F89209FC001219F900D1124AC01475213
:103DB0005E4F1A01DA0119968D909C901A975596CC
:103DC000AD90BC9056971F96CD90DC905097519631
:103DD000ED90FC90529753960D911C915497149628
:103DE0002C91149713964C91139757968D919C9103
:103DF0005897EEA1FFA1608171810E945013940138
:103E0000DC010E94AF302FEF3FE740E050E00E941E
:103E1000542DCA01B9010E94D32E2A893B894C89AD
:103E20005D890E94292E0E949B2E0E944D149B01A9
:103E3000AC01A0916003B0E00E94732D24E630E055
:103E400040E050E00E94542D421A530A640A750A59
:103E500072C10E943F136A8B7B8B8C8B9D8B5EE1C2
:103E6000E52ECE88DF88EC9CF001ED9CF00D11244E
:103E7000E752FE4F018512851B8F0A8FC588D688B1
:103E8000DF8ECE8EE784F088FBA2EAA20189128938
:103E90001DA70CA70389148918AF0FAB84809380EA
:103EA000AEA1BFA12D903C90078510896085A780A9
:103EB0000A2C000CBB08062E000C770B6A197B0934
:103EC000CB01770FAA0BBB0B6627782F892F9A2F70
:103ED0000E94D32E6B017C01B80180E090E00E942B
:103EE000D12E20E030E04AE754E40E94292E9B01C5
:103EF000AC01C701B6010E94292E6B017C01C101F2
:103F0000B8010E949530BC0180E090E00E94D12E63
:103F100020E030E04AE754E40E94292E9B01AC01E6
:103F2000C701B6010E94882F0E949B2EBA2CAA249A
:103F3000C501860F971FAE8CBF8CCAA0DBA0ECA476
:103F4000FDA40FA918AD282D492DB1010E945013D1
:103F50002A8D3B8DDC010E94AF302FEF3FE740E020
:103F600050E00E94542DCA01B9010E94D32E2A8923
:103F70003B894C895D890E94292E0E949B2E0E94BC
:103F80004D14461A570A680A790A79C50E943F13E8
:103F90006A8F7B8F8C8F9D8F4EE1C42EEE89FF89B7
:103FA000CE9EC001CF9E900D11248C0107521E4F52
:103FB0001801D80119960D90BC91A02DBF8FAE8F1E
:103FC000F801038CF48DE02DFBA3EAA3D8015D96E4
:103FD000BC91BCA7F80183849484A588B688C78463
:103FE000D088E188F2880389148924814381AEA1B5
:103FF000BFA10D90BC91A02DBB8BAA8B8789908D02
:10400000BD010E9450138C01B40180E090E00E9439
:10401000D12E20E030E04AE754E40E94292E9B0193
:10402000AC0160E070E080E89FE30E94292E6B0104
:104030007C018A899B89B4010E949530BC0180E093
:1040400090E00E94D12E20E030E04AE754E40E9444
:10405000292E9B01AC01C701B6010E94882F6B017C
:104060007C01BCA56B2F70E080E090E00E94D12E17
:1040700020E030E040E85BE30E94882F9B01AC0128
:10408000C701B6010E94B82D2BED3FE049EC50E48A
:104090000E94882F0E94F52F9B01AC01EAA1FBA191
:1040A0006F01FF0FEE08FF08B801110F880B990B85
:1040B0002DAF21963FAF21974EAF5FAF0E94D32E19
:1040C0002DAD21963FAD21974EAD5FAD0E94882F5B
:1040D0000E949B2ECB01770FAA0BBB0BA701960169
:1040E000280F391F4A1F5B1FAE8DBF8D0E94732D95
:1040F0002FEF3FE740E050E00E94542DCA01B90184
:104100000E94D32E2A8D3B8D4C8D5D8D0E94292ED1
:104110000E949B2E9B01AC01A0915F03B0E00E9426
:10412000732D24E630E040E050E00E94542D420E12
:10413000531E641E751ED10116968C91169782FF30
:104140009EC41D966D917C911E9780E090E00E9428
:10415000D12E2BED3FE049EC50E40E94882F20E067
:1041600030E040E058E30E94882F0E94F52F9B0129
:10417000AC01C301B2012DAF21963FAF21974EAFE5
:104180005FAF0E94D32E2DAD21963FAD21974EAD4E
:104190005FAD0E94882F0E949B2E2B013C016FC4B3
:1041A0000E943F136A8F7B8F8C8F9D8F3EE1E32EA1
:1041B000CE88DF88EC9CF001ED9CF00D1124E752D5
:1041C000FE4F018512851F8F0E8F238D348DC901FF
:1041D000330FAA0BBB0B8AA39BA3ACA3BDA3958DE6
:1041E0009CA723843484A588B688C784D088E188B6
:1041F000F2880389148924814381AEA1BFA10D9067
:10420000BC91A02DBB8BAA8B8789908DBD010E948C
:104210005013BC01990F880B990B0E94D32E4B01B0
:104220005C01B10180E090E00E94D12E20E030E0FE
:104230004AE754E40E94292E9B01AC0160E070E043
:1042400080E89FE30E94292E6B017C018A899B896B
:10425000B1010E949530BC0180E090E00E94D12E17
:1042600020E030E04AE754E40E94292E9B01AC0193
:10427000C701B6010E94882F6B017C01BCA56B2F82
:1042800070E080E090E00E94D12E20E030E040E835
:104290005BE30E94882F9B01AC01C701B6010E941D
:1042A000B82D2BED3FE049EC50E40E94882F0E948E
:1042B000F52F6B017C0120E030E0A9010E94832FE3
:1042C00087FF0CC020E030E0A901C701B6010E94C1
:1042D000242E87FF05C0EFEFECAB02C0F1E0FCAB92
:1042E000CCA86C2DCC0C770B880B990B0E94D32E8D
:1042F0009B01AC01C501B4010E94882F0E949B2E36
:10430000CB01770FAA0BBB0BE0C10E943F136E8F4E
:104310007F8F88A399A30EE1EE88FF880E9DF001A0
:104320000F9DF00D1124E752FE4F218532853BA3EE
:104330002AA3238D348DC901330FAA0BBB0B8CA785
:104340009DA7AEA7BFA7358DA385B485BB8BAA8BD0
:10435000A588B688C784D088E188F2880389148943
:1043600024814381AEA1BFA10D90BC91A02DBB8F34
:10437000AA8F8789908DBD0121963FAF21970E941A
:1043800050131C01EA89FB89BF0180E090E00E9484
:10439000D12E4B015C0121963FAD219760E4630F64
:1043A00070E080E090E00E94D12E20E030E040E814
:1043B0005BE30E94882FA50194010E94882F0E9430
:1043C000A22E8A8D9B8D860F971F6A897B890E94FA
:1043D00095308C01BC0180E090E00E94D12E20E05D
:1043E00030E04AE754E40E94292E6B017C0120E072
:1043F00030E0A9010E94832F87FD3CC020E030E01F
:104400004AE754E4C501B4010E94292E6A8F7B8FCC
:104410008C8F9D8F20E030E040E05FE30E94882F8A
:104420009B01AC01C701B6010E94242E87FF22C068
:10443000B101032C000C880B990B0E94D32E20E0B5
:1044400030E040E850E40E94882F2A8D3B8D4C8D4F
:104450005D8D0E94292EA70196010E94882F0E943F
:104460009B2E3194219431086101C60ED71EDEAA1D
:10447000CDAA51C020E030E04AE754E4C501B401C0
:104480000E94292E4B015C0120E030E040E05FE318
:104490000E94882F9B01AC01C701B6010E94832FA7
:1044A00087FD39C0A5019401C701B6010E94242EE1
:1044B00087FF31C0B101032C000C880B990B0E94BF
:1044C000D32E20E030E040E850EC0E94882FA50178
:1044D00094010E94292E6B017C018A899B89969503
:1044E0008795B801681B790B80E090E00E94D12E7F
:1044F00020E030E04AE754E40E94292E9B01AC0101
:10450000C701B6010E94882F0E949B2E7101E60E02
:10451000F71EFEAAEDAA0DA91EA9C801110FAA0B2C
:10452000BB0B2CA53DA54EA55FA5280F391F4A1F23
:104530005B1FAAA1BBA10E94732D2FEF3FE740E0B4
:1045400050E00E94542DCA01B9010E94D32E2E8D35
:104550003F8D48A159A10E94292E0E949B2E9B01AC
:10456000AC01A0915F03B0E00E94732D24E630E01F
:1045700040E050E00E94542D420E531E641E751EF2
:104580007EC20E943F136A8F7B8F8C8F9D8F4EE17E
:104590002E893F89429FF001439FF00D1124E7527D
:1045A000FE4F818592859F8F8E8F238D348D69017B
:1045B000330FEE08FF08CAA2DBA2ECA2FDA2358DE4
:1045C00023843484A588B688C784D088E188F2889B
:1045D0000389148924814381AEA1BFA10D90BC91B0
:1045E000A02DBB8BAA8B8789908DBD0121963FAFF3
:1045F00021970E9450138C01B10180E090E00E944D
:10460000D12E4B015C0121963FAD219760E8630FED
:1046100070E080E090E00E94D12E20E030E040E8A1
:104620005BE30E94882FA50194010E94882F0E94BD
:10463000A22E8A899B89860F971FB1010E9495300F
:104640009B8B8A8B82159305D0F5B801012E000C47
:10465000880B990B0E94D32E9B01AC010E94B82DB0
:104660006B017C0120E030E04AE754E4C501B4016D
:104670000E94292E9B01AC01C701B6010E94292E80
:104680004B015C01CA88DB88B60180E090E00E94A3
:10469000D12E20E030E04AE754E40E94292E9B010D
:1046A000AC01C501B4010E94882F0E949B2E119578
:1046B000019511097801E60EF71EFCAEEBAE0BADCD
:1046C0001CADC801110FAA0BBB0B2AA13BA14CA129
:1046D0005DA1280F391F4A1F5B1FAE8DBF8D0E9441
:1046E000732D2FEF3FE740E050E00E94542DCA01A8
:1046F000B9010E94D32E2A8D3B8D4C8D5D8D2BCF21
:104700000E943F136A8F7B8F8C8F9D8F4EE12E8985
:104710003F89429FF001439FF00D1124E752FE4F65
:10472000818592859F8F8E8F238D348D6901330F04
:10473000EE08FF08CAA2DBA2ECA2FDA2358D2384FD
:104740003484A588B688C784D088E188F288038934
:10475000148924814381AEA1BFA10D90BC91A02DED
:10476000BB8BAA8B8789908DBD0121963FAF219786
:104770000E9450138C01B10180E090E00E94D12E84
:104780004B015C0121963FAD219760E8630F70E01B
:1047900080E090E00E94D12E20E030E040E85BE332
:1047A0000E94882FA50194010E94882F0E94A22EAA
:1047B0008A899B89860F971FB1010E9495309B8B38
:1047C0008A8B82159305D0F566277727601B710BBE
:1047D000072E000C880B990B0E94D32E9B01AC0175
:1047E0000E94B82D6B017C0120E030E04AE754E4E0
:1047F000C501B4010E94292E9B01AC01C701B6017D
:104800000E94292E4B015C01CA88DB88B60180E03A
:1048100090E00E94D12E20E030E04AE754E40E946C
:10482000292E9B01AC01C501B4010E94882F0E9472
:104830009B2E7801E60EF71EFAAEE9AE09AD1AAD71
:1048400040CFAEE18E899F89A89FF001A99FF00D0E
:104850001124E752FE4F038D148DA0915E03B0E04A
:104860000E94732D20E436E040E050E00E94542D79
:1048700069017A0120919003309191034091920354
:1048800050919303D8010E947E2DDC01CB011FE0E3
:10489000B595A795979587951A95D1F7092E000C90
:1048A000AA0BBB0B40918203509183036091840358
:1048B000709185038A019B01081B190B2A0B3B0B86
:1048C000C901B801A6010E947814460E571E681E41
:1048D000791ED5C0AEE18E899F89A89FF001A99F5E
:1048E000F00D1124E752FE4F038D148DA091620349
:1048F000B0E00E94732D24E630E040E050E00E94DA
:10490000542D69017A01B801110F880B990B0E948F
:10491000D32E2AE939EC4CEC54E40E94292E9B0159
:10492000AC0168A579A58AA59BA50E94B72DA60113
:104930000E94A51562C0FEE1EF2ECE88DF88EC9CB8
:10494000F001ED9CF00D1124E752FE4F038D148D04
:10495000A0915D03B0E00E94732D24E630E040E0BA
:1049600050E00E94542D69017A01B801110F880BA3
:10497000990B0E94D32E20E03EEF4FEF56E40E94A9
:10498000292E9B01AC0168A979A98AA99BA90E943B
:10499000B72DA6010E943D1530C06EE10E891F891A
:1049A000609FF001619FF00D1124E752FE4F038DCF
:1049B000148DA0916103B0E00E94732D24E630E0D5
:1049C00040E050E00E94542D69017A01B801110FB6
:1049D000880B990B0E94D32E2AE939EC4CEC54E455
:1049E0000E94292E9B01AC0168A579A58AA59BA5EB
:1049F0000E94B72DA6010E94BC14092E000CAA0B20
:104A0000BB0B480E591E6A1E7B1E39C00E943F1305
:104A10009B01AC01AEE18E899F89A89FF001A99FFF
:104A2000F00D1124E752FE4F838D948DBC01990F38
:104A3000880B990B2DAF21963FAF21974EAF5FAFFB
:104A40000E94D32E2DAD21963FAD21974EAD5FAD87
:104A50000E94292E0E949B2E0E944D149B01AC01A6
:104A6000A0915F03B0E00E94732D24E630E040E0A7
:104A700050E00E94542D421A530A640A750A0E949B
:104A8000A3170091A9011091AA012091AB013091C7
:104A9000AC01DC01CB01801B910BA20BB30BEEA18F
:104AA000FFA180839183A283B3830EA11FA10C5F1A
:104AB0001F4F1FA30EA32E893F892B30310509F00C
:104AC00010C903C0412C512C32011091810311FFF8
:104AD00031C00E943F139B01AC01E091620367E487
:104AE00071E0E69FC001E79F900D1124BC0180E0BA
:104AF00090E02DAF21963FAF21974EAF5FAF0E9460
:104B0000D32E2DAD21963FAD21974EAD5FAD0E94C6
:104B1000292E0E949B2EAB0168A579A58AA59BA58D
:104B20000E94A515092E000CAA0BBB0B480E591E9E
:104B30006A1E7B1E12FF31C00E943F139B01AC0115
:104B4000E0915D0367E471E0E69FC001E79F900D8F
:104B50001124BC0180E090E02DAF21963FAF21975A
:104B60004EAF5FAF0E94D32E2DAD21963FAD219762
:104B70004EAD5FAD0E94292E0E949B2EAB0168A90D
:104B800079A98AA99BA90E943D15092E000CAA0BA0
:104B9000BB0B480E591E6A1E7B1E13FF31C00E94BC
:104BA0003F139B01AC01E091610367E471E0E69F74
:104BB000C001E79F900D1124BC0180E090E02DAF73
:104BC00021963FAF21974EAF5FAF0E94D32E2DAD00
:104BD00021963FAD21974EAD5FAD0E94292E0E94D8
:104BE0009B2EAB0168A579A58AA59BA50E94BC1444
:104BF000092E000CAA0BBB0B480E591E6A1E7B1E09
:104C00008091900390919103A0919203B0919303AE
:104C1000AC01BD01E6E07595679557954795EA9516
:104C2000D1F7841B950BA60BB70B409182035091D3
:104C300083036091840370918503CC24DD24760185
:104C4000C81AD90AEA0AFB0A4C155D056E057F05EC
:104C500034F084179507A607B7070CF049C077FD15
:104C600009C06A017B01C81AD90AEA0AFB0AD701FE
:104C7000C60104C0840F951FA61FB71F809382032F
:104C800090938303A0938403B09385030E943F1302
:104C90009B01AC0160E07EEF8FEF96E40E94292E2D
:104CA0006B017C0160915B0370E080E090E00E940A
:104CB000D32E9B01AC01C701B6010E94882F20E0D2
:104CC00030E048EC52E40E94292E0E949B2E6B019A
:104CD0007C016091820370918303809184039091A1
:104CE0008503A6010E947814460E571E681E791E81
:104CF000A0914B03B0E0A30192010E94732D24E622
:104D000030E040E050E00E94542DCA01B9010E94F9
:104D10004D146B017C0114FF04C00E94D3160E9445
:104D20007816C0926903D0926A03E0926B03F09206
:104D30006C03609186037091870380918803909142
:104D400089030E94D32E6B017C0160914E03709108
:104D50004F0380915003909151030E94D32E9B01E9
:104D6000AC0160E07FEF8FE797E40E94292E9B0162
:104D7000AC01C701B6010E94882F0E949B2E4B01F7
:104D80005C01611570488105910534F088248A948E
:104D90006FE7962EA12CB12C811410E891061FEF1D
:104DA000A106B10634F4812C50E8952EAA24AA94C9
:104DB000BA2C8092860390928703A0928803B092C7
:104DC000890389E693E00E94A00F00916703109188
:104DD000680340908C0350908D03400E511E612C4F
:104DE000712CC0907503D0907603C00ED11EE12CBB
:104DF000F12C2091730330917403C901330FAA0B76
:104E0000BB0B9C01AD012C193D094E095F09AFEFA9
:104E1000BFE00E94732D2091770330917803201B0F
:104E2000310B40E050E02C193D094E095F090E940A
:104E3000542D2E8B3F8B488F598FC0906F03D0908D
:104E40007003C00ED11EE12CF12C20916D03309126
:104E50006E03C901330FAA0BBB0B9C01AD012C19CA
:104E60003D094E095F09AFEFBFE00E94732D20910D
:104E7000710330917203201B310B40E050E02C197C
:104E80003D094E095F090E94542D69017A01209164
:104E90008A0330918B03C901330FAA0BBB0B9C0112
:104EA000AD012419350946095709AFEFBFE00E944B
:104EB000732D20918E0330918F03201B310B40E026
:104EC00050E024193509460957090E94542D21152F
:104ED00040E1340714F02FEF3FE037FF02C020E03D
:104EE00030E030938B0320938A036E887F886114AF
:104EF00050E1750624F066246A944FE0742E77FE24
:104F000002C0612C712C7092740360927303C114FF
:104F100060E1D60624F0CC24CA943FE0D32ED7FE1D
:104F200002C0C12CD12CD0926E03C0926D03209090
:104F30007D0330907E03200E311E412C512C809138
:104F4000790390917A03A0917B03B0917C039C013B
:104F5000AD012219330944095509AFEFBFEF0E9493
:104F6000732D20917F0330918003201B310B890129
:104F700020E030E0A90198012219330944095509BC
:104F80000E94542D2115310581E04807510524F078
:104F90002FEF3FEF40E050E057FF03C020E030E04C
:104FA000A9012093790330937A0340937B035093B4
:104FB0007C0389B182958F7091E0892790E0A0E011
:104FC000B0E081709927AA27BB271B9B8260199BA1
:104FD0008460499B88604F9B8061669B80621C9BBC
:104FE0008064369B806814E0880F991FAA1FBB1F3E
:104FF0001A95D1F78093630390936403A09365039C
:10500000B0936603E0E89E1A89829A822B833C83E0
:105010002FEF2D83262D2295207F27602E8304E0FD
:10502000769467940A95E1F76F82C886D98624E062
:10503000B695A795979587952A95D1F78A871B8668
:105040001C864CE050E0BE016F5F7F4F84E00E9401
:10505000EE0980918F0490919004A0919104B091F9
:10506000920480319742A105B10508F467C481E834
:1050700094E00E94A10C181619060CF04FC481E8A8
:1050800094E00E94670CE82F8FE98E0F8A3108F4B4
:10509000E0528E2F90E0FC01E154F109EA31F10574
:1050A00008F03CC4ED59FF4F0C94A93080914C039B
:1050B00090914D030E940D1780E20E946D16809121
:1050C0004B030E94131780E20E946D1680916203C9
:1050D0000E94131780E20E946D16809161030E9466
:1050E000131780E20E946D16809160030E941317CF
:1050F00080E20E946D1680915F030E94131780E288
:105100000E946D1680915E030E94131780E20E9438
:105110006D1680915D030E94131780E20E946D1648
:1051200080915C030E94131780E20E946D168091AB
:105130005B030E94131780E20E946D166091490381
:1051400070914A0380E090E04AE00E94861680E277
:105150000E946D16809148030E94131780E20E94FE
:105160006D16809181030E94131780E20E946D16D4
:10517000609146037091470380E090E04AE00E940E
:10518000861680E20E946D16609157037091580355
:105190008091590390915A030E94D31680E20E9495
:1051A0006D166091450370E064C183E991E00E944F
:1051B0001A178AEF90E00E940D1788E991E00E948B
:1051C0001A178AE991E00E941A178CE991E00E946F
:1051D0001A178EE991E00E941A17A0C380919B04D0
:1051E000082E000C990B98C38091460390914703B9
:1051F0002091490330914A03821B930B9695879522
:1052000096958795A0E0B0E089839A83AB83BC83B1
:10521000CE0101960E94A00F19821A821B821C8265
:10522000CE0101960E94A00F82E080939B0472C37E
:105230000E94E917611101C061E0609348036AC3ED
:105240000E94E917643071058105910564F0613CA5
:1052500007E2700709E0800791054CF060EC77E207
:1052600089E090E004C064E070E080E090E0698351
:105270007A838B839C836093570370935803809346
:10528000590390935A030E94D32E20E030E044EB60
:1052900053E40E94292E6B017C0160914C037091B4
:1052A0004D03072E000C880B990B0E94D32E9B01F7
:1052B000AC01C701B6013EC00E94E9176E3171050D
:1052C0008105910574F06B017C016930774081059F
:1052D000910564F0A8E0CA2EA7E0DA2EE12CF12CAB
:1052E00005C0FEE1CF2ED12CE12CF12CC982DA824F
:1052F000EB82FC82D0924D03C0924C036091570325
:10530000709158038091590390915A030E94D32EB3
:1053100020E030E044EB53E40E94292E4B015C0175
:10532000B601DD0C880B990B0E94D32E9B01AC01BA
:10533000C501B4010E94882F0E949B2E60934E03EA
:1053400070934F038093500390935103DC01CB0182
:10535000B595A79597958795809390039093910322
:10536000A0939203B0939303D5C20E94E917262F0E
:105370006091810380E090E030E0F901082E02C0E6
:10538000F595E7950A94E2F7C12CD12C7601C394E8
:10539000082E04C0CC0CDD1CEE1CFF1C0A94D2F7B6
:1053A000E0FF02C06C2902C0C0946C2101968830D5
:1053B000910519F76093810370E080E090E042E08E
:1053C0000E9486160E947816A9C20E94E917809151
:1053D000450320E030E070E0AB01022E02C055959D
:1053E00047950A94E2F7C12CD12C7601C394022E82
:1053F00004C0CC0CDD1CEE1CFF1C0A94D2F740FF4D
:1054000002C08C2902C0C0948C212F5F3F4F2830EE
:10541000310511F78093450341E065E473E08DE1C8
:1054200090E00E946306809145030E94BB06BC0188
:1054300080E090E00E94D12E209141033091420300
:1054400040914303509144030E94882F0E949B2E59
:1054500069837A838B839C8344E0BE016F5F7F4FB7
:1054600081E190E00E946306809145030E94BB06A3
:10547000BC0180E090E04AE0A3CF80E090E04CC225
:1054800081E894E00E94670CE82F8FE98E0F8A3143
:1054900008F4E0528E2F90E0FC01E154F109E23172
:1054A000F10508F03BC2E358FF4F0C94A9300E946D
:1054B000E917611520E172078105910524F06FEF6E
:1054C0007FE080E090E097FF03C060E070E0CB01F8
:1054D00069837A838B839C8370937E0360937D03BF
:1054E00019C20E94E917611530E173078105910522
:1054F00024F06FEF7FE080E090E097FF03C060E072
:1055000070E0CB0169837A838B839C8370938003E3
:1055100060937F03FFC10E94E917611540E17407A2
:105520008105910524F06FEF7FE080E090E097FF28
:1055300003C060E070E0CB0169837A838B839C8336
:1055400070938D0360938C03E5C10E94E917611588
:1055500050E175078105910524F06FEF7FE080E051
:1055600090E097FF03C060E070E0CB0169837A832D
:105570008B839C8370938F0360938E03CBC10E94B7
:10558000E9176115A0E17A078105910524F06FEF15
:105590007FE080E090E097FF03C060E070E0CB0127
:1055A00069837A838B839C837093760360937503FE
:1055B000B1C10E94E9176115B0E17B078105910532
:1055C00024F06FEF7FE080E090E097FF03C060E0A1
:1055D00070E0CB0169837A838B839C83709378031B
:1055E0006093770397C10E94E9176115E0E17E0798
:1055F0008105910524F06FEF7FE080E090E097FF58
:1056000003C060E070E0CB0169837A838B839C8365
:105610007093700360936F037DC10E94E917611559
:10562000F0E17F078105910524F06FEF7FE080E0D6
:1056300090E097FF03C060E070E0CB0169837A835C
:105640008B839C83709372036093710363C1809119
:105650007D0390917E030E940D1781EA91E00E94E4
:105660001A1780917F03909180030E940D1781EAA1
:1056700091E00E941A1780918C0390918D030E94F3
:105680000D1781EA91E00E941A1780918E03909184
:105690008F030E940D1781EA91E00E941A178091F2
:1056A0007503909176030E940D1781EA91E00E94A4
:1056B0001A1780917703909178030E940D1781EA61
:1056C00091E00E941A1780916F03909170030E94DD
:1056D0000D1781EA91E00E941A1780917103909151
:1056E00072031AC142E06CE473E086E090E00E942D
:1056F000630644E067E573E089E190E00E94630699
:1057000041E06BE473E088E090E00E94630641E0D2
:1057100062E673E089E090E00E94630641E061E6A2
:1057200073E08AE090E00E94630641E060E673E087
:105730008BE090E00E94630641E06FE573E08CE04F
:1057400090E00E94630641E06EE573E08DE090E03A
:105750000E94630641E06DE573E08EE090E00E94F8
:10576000630641E06CE573E08FE090E00E94630621
:1057700041E06BE573E080E190E00E94630641E068
:1057800068E473E087E190E00E94630641E061E82D
:1057900073E088E190E00E94630642E069E473E010
:1057A00081E190E00E94630642E066E473E083E1F9
:1057B00090E00E94630642E065E573E085E190E0D9
:1057C0000E94630642E06CE873E08AE290E00E9487
:1057D000630642E06EE873E08CE290E00E946306AC
:1057E00042E06DE773E08EE290E00E94630642E0E3
:1057F0006FE773E080E390E00E94630642E065E7B4
:1058000073E082E390E00E94630642E067E773E0A2
:1058100084E390E00E94630642E06FE673E086E373
:1058200090E00E94630642E061E773E088E390E065
:105830000E9463066FC081E894E00E94670CE82F25
:105840008FE98E0F8A3108F4E0528E2F90E0FC0130
:10585000E154F109E331F10508F060C0E157FF4F71
:105860000C94A9300E94E91760934B0353C00E9427
:10587000E917609360034EC00E94E91760936203CA
:1058800049C00E94E9176093610344C00E94E91770
:1058900060935F033FC00E94E91760935E033AC0C4
:1058A0000E94E91760935D0335C00E94E917609379
:1058B0005C0330C00E94E91760935B032BC00E9419
:1058C000E91770E080E090E00E94D12E2FE632E1EF
:1058D00043E85AE30E94882F6B017C0160934103E7
:1058E0007093420380934303909344036091460373
:1058F0007091470380E090E00E94D12E9B01AC01A3
:10590000C701B6010E94882F0E94A22E70934A03FD
:105910006093490381E090E00E94FD16809193041A
:1059200090919404A0919504B0919604809398036B
:1059300090939903A0939A03B0939B0380E090E027
:10594000892B11F40C94A81C0E9400000C94A81C34
:10595000109284041092830488EE93E0A0E0B0E0FB
:105960008093850490938604A0938704B093880461
:1059700027E631E0309382042093810410923905A8
:105980001092380580933A0590933B05A0933C050F
:10599000B0933D0589E791E09093370580933605F4
:1059A00010929C0410929D0410929E0410929F04E9
:1059B0001092A0041092A1041092A2041092A304C9
:1059C0001092A4041092CD04E5EAF4E01192119231
:1059D0001192119284E0ED3CF807C1F71092CE04C9
:1059E0001092CF041092D0041092D1041092D204DD
:1059F0001092D3041092D4041092D5041092D604BD
:105A000010922705E7EDF4E0119211921192119294
:105A100085E0E732F807C1F781E08093280510920E
:105A20009704109298041092990410929A0410927C
:105A30009B040E945817609393047093940480937E
:105A400095049093960460938F04709390048093D0
:105A50009104909392048BEC95E090932A058093A7
:105A6000290510924E05109245051092440589E8CB
:105A700091E090934305809342050895F999FECFF4
:105A800092BD81BDF89A992780B50895262FF9997E
:105A9000FECF1FBA92BD81BD20BD0FB6F894FA9A11
:105AA000F99A0FBE01960895052E97FB1EF40094F7
:105AB0000E946B2D57FD07D00E94862D07FC03D056
:105AC0004EF40C946B2D50954095309521953F4F99
:105AD0004F4F5F4F089590958095709561957F4FDA
