:100000000C9439040C9461040C9461040C94210840
:100010000C94FD070C9461040C9461040C9461042D
:100020000C9461040C9461040C94400B0C94E30850
:100030000C9461040C9461040C9461040C946104AC
:100040000C9461040C9461040C9461040C9461049C
:100050000C9461040C9461040C9461040C94A9192F
:100060000C9461040C9461040C9461040C9461047C
:100070000C9461040C9461040C9461040C9461046C
:100080000C9461040C9461040C9461040C9461045C
:100090000C9415100C9461040C9461040C9461048C
:1000A0000C9461040C9461040C9461042621872152
:1000B0003E232422F323EB252F258C26D526062745
:1000C0003827B22771276A314F2DCB2DB032AB2E96
:1000D0003D32E02D302FB032B032B032B032B032DB
:1000E000B032572DDD2DB032EC2CE62CB0324B2C3B
:1000F000C92CDB2EB0323830DD2D472F612F7B2FFE
:10010000952FAF2FC92FE12FB032B032B032B032BD
:10011000B032B032B032B032B032B03229304F30BB
:10012000693083309D30B730D130EB300531B0329B
:10013000B032B032B032B032B032B032B032B032AF
:100140001F3177327C3259325E32B03263325432F0
:10015000B03272328132B032B0326D32B032B0323F
:10016000B032B032B032683228122D1232123C1244
:10017000861286128612461250125A126412711298
:1001800086127912A815AB159E15A215CC15CC15A3
:10019000CC15AF15B315B715BD15C115CC15C715C1
:1001A00005A84CCDB2D44EB93836A9020C50B9913D
:1001B0008688083CA6AAAA2ABE000000803F00004C
:1001C0000000000000002A2B2800000000000000B2
:1001D00000000000000000000000000000002C9E55
:1001E000B4A0A1A2A434A6A7A5AE362D3738271EE9
:1001F0001F20212223242526B333B62EB7B89F848F
:1002000085868788898A8B8C8D8E8F909192939426
:1002100095969798999A9B9C9D2F3130A3AD350464
:1002200005060708090A0B0C0D0E0F101112131406
:1002300015161718191A1B1C1DAFB1B0B500080B05
:100240000002020201000904000001020200000590
:1002500024001001052401010104240206052406DE
:1002600000010705810310004009040100020A0093
:10027000000007050202400000070583024000005D
:10028000090402000203000000092101010001220B
:10029000E104070584034000010705050340000150
:1002A00005010904A10185040901A1000930170015
:1002B00000000027FFFF0000350047FFFF0000752A
:1002C0001095018102093116000027FFFF0000355B
:1002D0000047FFFF000075109501810209321600EA
:1002E0000027FF0F0000350047FF0F0000750C9539
:1002F000018102093316000027FF0F000035004777
:10030000FF0F0000750C95018102093416000027CB
:10031000FF0F0000350047FF0F0000750C950181AD
:10032000020939150125083500463B0165145500C1
:100330007504950181020509150025015500650028
:100340001901291875019518810285F10901150017
:1003500026FF00953F7508918285F20901953F754A
:10036000088182C0050F0992A1028502099F09A098
:1003700009A409A509A61500250135004501750147
:100380009505810295038103099415002501350027
:1003900045017501950181020922150125283501C4
:1003A0004528750795018102C00921A1028501092F
:1003B0002215012528350145287508950191020966
:1003C00025A1020926092709300931093209330913
:1003D000340940094109420943250B1501350145FE
:1003E0000B750895019100C009500954150027FFAD
:1003F000FF0000350047FFFF000066011055FD7546
:10040000109502910255006600000952150026FF62
:100410007F350046FF7F7510950191020953150144
:100420002508350145087508950191020955A10275
:100430000501093009311500250175019502910268
:10044000C0050F095695019102950591030957A121
:10045000020B01000A000B02000A0066140055FEA0
:10046000150026FF7F3500479F8C00007510950111
:1004700091025500660000C0050F09A766011055DE
:10048000FD150027FFFF0000350047FFFF00007546
:1004900010950191026600005500C0050F095AA190
:1004A0000285020922150125283501452875089580
:1004B000019102095B095D150026FF00350046FF2A
:1004C0007F750895029102095C095E66011055FD71
:1004D00026FF7F46FF7F751095029102660000554A
:1004E00000C0095FA10285030922150125283501F5
:1004F000452875089501910209231500250135004D
:1005000045017504950191020958A1020B01000AE9
:10051000000B02000A00750295029102C0096016E4
:10052000008026FF7F36008046FF7F751095019181
:1005300002096136008046FF7F9501910215002671
:10054000FF7F350046FF7F09637510950191020911
:1005500065150026FF0046FF7F750895019102C0D2
:10056000096EA102850409221501252835014528B7
:100570007508950191020970150026FF7F35004628
:10058000FF7F751095019102096F16008026FF7F8D
:1005900036008046FF7F950191020971150026FF04
:1005A00000350046670166140055007508950191F5
:1005B00002097227FFFF000047FFFF0000660110DD
:1005C00055FD7510950191026600005500C0097334
:1005D000A102850509221501252835014528750840
:1005E00095019102097016018026FF7F3601804631
:1005F000FF7F751095019102C00974A1028506095B
:100600002215012528350145287508950191020913
:100610007509761581257F36018046FF7F7508951F
:10062000029102C0050F0977A102850A092215016E
:100630002528350145287508950191020978A10200
:100640000979097A097B150125037508950191003F
:10065000C0097C150026FF00350046FF009102C04E
:100660000990A102850B092215012528350145288D
:10067000750895019102C00996A102850C09970998
:10068000980999099A099B099C15012506750895F1
:10069000019100C0097DA102850D097E150026FF8C
:1006A000003500461027750895019102C009ABA1DD
:1006B0000285050925A10209260927093009310902
:1006C000320933093409400941094209431501251A
:1006D0000B3501450B75089501B100C00501093BBB
:1006E000150026FF01350046FF01750A9501B1028C
:1006F0007506B101C0050F0989A1028506092225E9
:100700002815013501452875089501B102098BA10D
:1007100002098C098D098E250315013501450375E4
:10072000089501B100C009AC150027FFFF00003596
:100730000047FFFF000075109501B100C0097FA1BF
:10074000028507098075109501150027FFFF00003D
:10075000350047FFFF0000B102098326FF0046FF76
:100760000075089501B10209A909AA75019502153C
:1007700000250135004501B10275069501B103C0A0
:10078000C01803410072006400750069006E006FBC
:100790000020004C004C00430004030904220341E4
:1007A0000072006400750069006E006F0020004D4B
:1007B000006900630072006F00200020002000121A
:1007C00001000200000040412337800001010200C7
:1007D00001120100020200004041233780000101A4
:1007E00002000100C18081C1C00000000024002778
:1007F000002A002D00300000000000250028002BFA
:10080000002E003100000000002300260029002CEB
:10081000002F00040404040403040502020202047D
:10082000030202020206060606060604040202028B
:1008300004040408020110408040102040804080E1
:100840000802040180402010020110801020404066
:10085000200000000200080E0000030401000B004D
:100860000000000000000000000000000000000088
:10087000CA3211241FBECFEFDAE0DEBFCDBF11E0D8
:10088000A0E0B1E0EEEBFEE602C005900D92A63AC4
:10089000B107D9F725E0A6EAB1E001C01D92A03A60
:1008A000B207E1F714E0C9E3D4E004C02197FE01E8
:1008B0000E944B37C833D107C9F70E94F3190C9433
:1008C0005D370C940000CF92DF92EF92FF9260911F
:1008D000B4017091B501072E000C880B990B0E9492
:1008E00075356B017C0160914F03709150038091CD
:1008F0005103909152030E9475359B01AC01C701D1
:10090000B6010E94CB34FF90EF90DF90CF90089516
:100910008C30F8F4282F30E09EE1899FF0011124FB
:10092000E951FE4F90819923A1F090819D7F9083A2
:10093000F901E754FC4F958191110BC0E091A7019B
:10094000F091A8010084F185E02D09951092C9036A
:1009500008950895FC01CB012091E80022FFFCCF0F
:10096000282F215028F03091F10030833196F9CFB3
:1009700024E62093AD032BEF2093E80008950F9316
:100980001F93CF93DF93DB01A40FB51FFB016EEF25
:10099000EA17FB0791F187FF02C0249101C0208173
:1009A0000091B1031091B203C091AF03D091B00395
:1009B0000C171D07B4F49091E8009570E1F3909145
:1009C000E80092FD1CC02093F1002091B10330910A
:1009D000B2032F5F3F4F2F733327232B11F4609304
:1009E000E8002091B1033091B2032F5F3F4F309365
:1009F000B2032093B1033196CBCFCA0102C08FEF6F
:100A00009FEFDF91CF911F910F910895CF93DF93C7
:100A100000D000D01F92CDB7DEB7FC01818190815C
:100A2000913A29F5813009F0BCC08281863051F4B9
:100A300045E050E064EB73E080E40E94BF04109254
:100A4000B403AFC0873009F0ACC089838FEF9FEF4C
:100A50009B838A838BE08C8383E08D8345E050E029
:100A6000BE016F5F7F4F80E40E94BF049AC0913245
:100A700009F097C0893009F094C08281853009F06F
:100A800090C064E070E0CE0101960E94AA0486E066
:100A90008093B40380910F018B3021F1A0910F015D
:100AA00081E08A0F80930F019EE1E0910F019E9FEC
:100AB000F0011124E951FE4F8081882351F080918B
:100AC0000F018B3030F480910F018F5F80930F0105
:100AD000ECCF8EE1A89FF0011124E951FE4F81E097
:100AE000808301C0A0E0A093B503A11104C082E0FF
:100AF0008093B60350C01092810581E08093B603C5
:100B00008A819EE1A99FD0011124A951BE4F11965F
:100B10008C9311978FEF9FEF50969C938E931F9716
:100B200054961C921E92539752961C921E92519765
:100B300013968C93139714968C93149756961C9235
:100B40001E9255971E961C921E921D9716961C92E9
:100B500016978FEF9FE71A969C938E931997589646
:100B60001C921E9257975C961C921E925B975D9604
:100B70001C925D9788EE93E01C969C938E931B9736
:100B8000E091A701F091A8010684F785E02DBD0151
:100B9000CE01019609958FEF9FEF9093B803809354
:100BA000B70381E00F900F900F900F900F90DF919F
:100BB000CF91089542E450E06EE372E080E80E9435
:100BC000BF0440E250E060E872E080E80E94BF04A9
:100BD00083E090E00895EF92FF921F93CF93DF930D
:100BE000EC01162FE881F9810480F581E02D09954B
:100BF0007C01E881F9810680F781E02D612FCE012B
:100C00000995C7019927DF91CF911F91FF90EF9030
:100C10000895FC0191818081813A29F49D7F81E0D2
:100C2000913091F414C0813279F49A3049F09B30BC
:100C300019F0993049F40AC0828180930E0106C0F0
:100C4000828180930D0102C080E0089581E00895C3
:100C50008C30F0F49EE1899FF0011124E951FE4FA0
:100C600080818823A9F08081826080838091C9037C
:100C700081110EC00E949B176093B7017093B80159
:100C80008093B9019093BA0181E08093C9030895DC
:100C90000895CF92DF92EF92FF920F931F938B01F3
:100CA0009C014091B0015091B1016A01E12CF12CFD
:100CB00066277727CB016C197D098E099F090617D6
:100CC0001707280739074CF0C901B801C016D1062B
:100CD000E206F30614F4C701B6011F910F91FF90CD
:100CE000EF90DF90CF9008958F929F92AF92BF9236
:100CF000CF92DF92EF92FF92CF93DF934B015C0193
:100D0000EA010E9463046B017C01DE01A5019401EC
:100D10000E9420340E947535A70196010E942A3650
:100D200020E030E040E051E40E942A3620E030E04C
:100D300040E251E40E942A3620E030E040E85BE3E4
:100D40000E942A360E943D350E9449069095809562
:100D5000709561957F4F8F4F9F4FDF91CF91FF909F
:100D6000EF90DF90CF90BF90AF909F908F900895BD
:100D70004F925F926F927F928F929F92AF92BF92AB
:100D8000CF92DF92EF92FF92CF93DF9300D000D00B
:100D9000CDB7DEB74B015C0157FF02C04D5F5F4F1F
:100DA0006A01D594C794D594C7940E94630469835B
:100DB0007A838B839C839B01AC01C501B4010E94A3
:100DC0002A3620E030E040E251E40E942A362B012E
:100DD0003C0120E030E040E85FE30E9425360D2C26
:100DE000000CEE08FF0818161CF4C701B60128C055
:100DF00020E030E040E85FEBC301B2010E94C6345E
:100E000087FF06C0C701B6010E944906CB011EC07C
:100E1000C701B6010E9475359B01AC01C501B40143
:100E20000E942A3629813A814B815C810E942A36B0
:100E300020E030E040E251E40E942A360E943D3535
:100E40000E94490688279927861B970B0F900F90C1
:100E50000F900F90DF91CF91FF90EF90DF90CF90A8
:100E6000BF90AF909F908F907F906F905F904F90CA
:100E700008958F929F92AF92BF92CF92DF92EF929E
:100E8000FF924B015C01BA01550F880B990B0E9430
:100E900075356B017C0120E030E0A901C501B4018A
:100EA0000E942536A501940118160CF05058C70170
:100EB000B6010E942A366B017C010E9463049B01EB
:100EC000AC01C701B6010E942A3620E030E040E8BC
:100ED00051E40E942A3620E030E040E251E40E94D2
:100EE0002A3620E030E040E05DE30E942A360E948E
:100EF0003D350E9449066B017C0120E030E0A901EC
:100F0000C501B4010E94253618162CF488279927AC
:100F10008C199D090DC020E030E0A901C501B40184
:100F20000E94C63487FF02C0C60102C080E090E084
:100F3000FF90EF90DF90CF90BF90AF909F908F90F9
:100F40000895CF92DF92EF92FF92CF93DF936B01E0
:100F50007C01EA0120E030E0A9010E942536181644
:100F600094F020E030E0A901C701B6010E94C63428
:100F700087FF3AC020E030E0A901C701B6010E9416
:100F80005A346B017C01BE01DD0F880B990B0E9466
:100F900075359B01AC01C701B6010E942A366B0171
:100FA0007C010E9463049B01AC01C701B6010E9451
:100FB0002A3620E030E040E851E40E942A3620E062
:100FC00030E040E251E40E942A3620E030E040E088
:100FD0005BE30E942A360E943D350E94490688271D
:100FE0009927861B970B02C080E090E0DF91CF919C
:100FF000FF90EF90DF90CF9008951F920F920FB661
:101000000F9211242F933F934F935F936F937F938E
:101010008F939F93AF93BF93EF93FF930E94081614
:10102000FF91EF91BF91AF919F918F917F916F91C0
:101030005F914F913F912F910F900FBE0F901F9096
:1010400018951F920F920FB60F9211242F933F9372
:101050004F935F936F937F938F939F93AF93BF93C0
:10106000EF93FF930E940816FF91EF91BF91AF910C
:101070009F918F917F916F915F914F913F912F91B0
:101080000F900FBE0F901F901895CF92DF92EF92A6
:10109000FF920F931F93CF93DF931F92CDB7DEB7CD
:1010A000F82EE42E8B01C82ED92E8C2D8F198E157B
:1010B00088F4F80161918F01C60169830E94E033D1
:1010C0006981681719F0C6010E94E833FFEFCF1A53
:1010D000DF0AEBCF0F90DF91CF911F910F91FF901F
:1010E000EF90DF90CF900895CF92DF92EF92FF9232
:1010F0000F931F93CF93DF931F92CDB7DEB78B0172
:101100006B017C01E61AF70A9C2D901B941758F48A
:10111000C7018C0D9D1D49830E94E033F601819328
:101120006F014981F1CF0F90DF91CF911F910F9106
:10113000FF90EF90DF90CF9008958F929F92AF92A3
:10114000BF92CF92DF92EF92FF9240E050E020E01A
:10115000682F70E0812C912C54018394FA0132960F
:10116000DB0102C0B595A795EA95E2F77501640128
:10117000042E04C0CC0CDD1CEE1CFF1C0A94D2F71C
:10118000A0FF02C02C2902C0C0942C214F5F5F4FEA
:101190004430510519F730E0220F331FF901EC5CA0
:1011A000FE4F80FF05C0808191819695879502C092
:1011B00080819181FF90EF90DF90CF90BF90AF90B2
:1011C0009F908F9008951F920F920FB60F92112447
:1011D000EF92FF921F932F933F934F935F936F93E1
:1011E0007F938F939F93AF93BF93EF93FF93CF938F
:1011F000DF93CDB7DEB76197DEBFCDBF1092E900B8
:101200008091E80083FF59C1FE013A96CF0128E0A2
:101210002E0F2E1729F03091F10030833196F9CF3F
:1012200024E62093AD0322EF2093E8002A8527FFD0
:1012300005C03091E80030FFFCCF03C03EEF309393
:10124000E800322F307609F0C5C08B85811105C0CA
:101250001092F1001092F10029C1982F9D7F9130DA
:1012600009F424C1853049F48091E80080FFFCCF67
:101270008C8580688093E30019C1863009F07CC0BA
:101280001D85E888F9881092E9001092B203109247
:10129000B103123091F51092B0031092AF030E9487
:1012A000DA0599E0BE016F5F7F4FFB01292F119294
:1012B0002A95E9F799831A8391E09E8390E89887AD
:1012C0009AEF99872091B1033091B203275F3F4F86
:1012D0003C832B838D831092E9001092B20310920D
:1012E000B103F092B003E092AF0349E050E080E038
:1012F0000E94BF040E94DA05D9C0F092B003E092C8
:10130000AF03123259F441EE54E060EA72E080E833
:101310000E94BF04892B09F0C9C0CCC0113069F408
:1013200088899989089711F41093AE038091AE03D0
:10133000811111C06FEB77E016C0133009F0BAC00D
:101340008C85882359F0823061F0813009F0B2C079
:1013500061E877E008C061ED77E005C069E977E012
:1013600002C06DE977E06115710509F4A3C0FB01C6
:10137000449150E080E849C0873009F49BC0883030
:1013800021F481E08093F10091C0893009F08EC092
:10139000237009F08FC080E090E031E026E341E067
:1013A000480F4093E9003093EB000196FC01ED51AA
:1013B000F84FE491E093EC002093ED008530910527
:1013C00071F78EE78093EA001092EA008C85809393
:1013D000A6016CC0288939891092E9001092B203E5
:1013E0001092B1033093B0032093AF032E852111E7
:1013F00054C08B859A85913A59F4813209F05AC0CC
:1014000047E050E060E171E080E00E94BF044EC020
:10141000913209F04FC0803239F467E070E080E12A
:1014200091E00E94AA0442C0823209F043C08C8538
:10143000809317018091100190911101A0911201E8
:10144000B0911301803B9440A105B10579F58091DD
:10145000170180FD11C087E797E7909301088093FB
:1014600000089BE088E10FB6F894A895809360008F
:101470000FBE909360001AC00FB6F894A8958091A3
:101480006000886180936000109260000FBEA89594
:10149000109201081092000809C0223059F4E0911E
:1014A0008205F09183050995882321F08EEF8093C2
:1014B000E80003C081E28093EB0061960FB6F894D8
:1014C000DEBF0FBECDBFDF91CF91FF91EF91BF91F6
:1014D000AF919F918F917F916F915F914F913F91CC
:1014E0002F911F91FF90EF900F900FBE0F901F90C4
:1014F00018958F929F92AF92BF92CF92DF92EF9208
:10150000FF920F931F93CF93DF9300D01F92CDB71D
:10151000DEB7382F8B018091A601882389F04A011C
:101520008AEFF82E832F8770E82E90E4C92E832F40
:101530008072B82E2AE3D22E832F8074A82E21C069
:101540008FEF9FEF5FC08FB7F894E092E900909122
:10155000E80095FF1AC09091F2002C2D291B8FBF37
:10156000211115C0FA94FF2059F361E070E080E08A
:1015700090E039834A835B830E94751739814A81E1
:101580005B8181149104F9F634C020E0E8CF822F0A
:1015900090E0881699060CF4282D822F90E0881A86
:1015A000990A6FB7F894E092E900BB2029F0215026
:1015B000A8F01092F100FBCFF80137FF07C02150CF
:1015C00058F074917093F1003196F9CF215020F0CA
:1015D00071917093F100FACF080F191F8091E80004
:1015E00085FF0DC08114910411F4A11008C06FBFD4
:1015F000C8CF5D9A84E68093B303CA0103C0D0923A
:10160000E800F5CF0F900F900F90DF91CF911F91D1
:101610000F91FF90EF90DF90CF90BF90AF909F9091
:101620008F9008959091A601992311F057FF03C060
:101630008FEF9FEF08952FB7F89487708093E9009C
:101640008091F20090E0841795070CF4AC01842F90
:10165000FB0194E6815030F09093AD033091F1009E
:101660003193F8CF4115510521F08091F200882384
:1016700019F02FBFCA0108958BE68093E800F9CFD7
:101680001F920F920FB60F9211242F933F934F93F7
:101690005F936F937F938F939F93AF93BF93EF93DA
:1016A000FF93CF93DF93CDB7DEB7C054D109DEBF30
:1016B000CDBF8091E1001092E10083FF0FC0109236
:1016C000E90091E09093EB001092EC0092E390938C
:1016D000ED001092A60198E09093F00082FF46C0C2
:1016E00083E08093E9008091F200882319F08AE377
:1016F0008093E8009FB7F89482E08093E90080919E
:10170000F2009FBF882321F087E994E00E94DA0F5E
:101710009FB7F89485E08093E9008091F2009FBF25
:101720008823C1F08091840590918505892B91F0E3
:1017300040E450E0BE016F5F7F4F85E00E94120BD6
:1017400097FD08C0E0918405F0918505BC01CE01AC
:10175000019609958091B303882341F08091B303EA
:1017600081508093B303811101C05D98C05CDF4F4D
:101770000FB6F894DEBF0FBECDBFDF91CF91FF91C2
:10178000EF91BF91AF919F918F917F916F915F91F9
:101790004F913F912F910F900FBE0F901F90189572
:1017A000EF92FF920F931F93CF93DF931F92CDB7CA
:1017B000DEB789838B017A0141E050E0BE016F5FA3
:1017C0007F4F84E00E94790AA701B80184E40E9457
:1017D000790A0F90DF91CF911F910F91FF90EF90B9
:1017E00008951F93CF93DF93DC0111961C911197FD
:1017F0009C91953009F467C060F5923009F443C0BC
:10180000A8F4913009F04DC1E091A701F091A80131
:101810002EE1129FB001112469517E4F028CF38D8D
:10182000E02DCD01DF91CF911F9109949330C9F143
:10183000943009F036C1E091A701F091A8012EE1A2
:10184000129FB001112469517E4F0488F589E02D63
:1018500035C09B3009F49DC038F4963009F441C07E
:101860009A3009F44CC01DC19C3009F4CBC0913FA3
:1018700009F017C140E450E0BD0182EFDF91CF9144
:101880001F910C94D00BE091A701F091A8013EE1CB
:10189000139FB001112469517E4F0088F189E02D1A
:1018A0000DC0E091A701F091A8018EE1189FB00151
:1018B000112469517E4F0288F389E02DCD01DF911B
:1018C000CF911F910994E091A701F091A8013EE109
:1018D000139FB001112469517E4F0688F789E02DCE
:1018E000EDCFE091A701F091A8018EE1189FB00122
:1018F000112469517E4F008CF18DE02DDFCF1F3F09
:1019000009F41FE712969C91913099F4812F0E945F
:101910002806E12FF0E0E754FC4F85818111C1C01A
:10192000E091A701F091A8010680F781E02D812FB9
:1019300047C0923029F5C1E08C2F0E948804CF5F08
:10194000CC30D1F7C12FD0E0C754DC4F8D8181114D
:1019500009C0E091A701F091A8010084F185E02D74
:101960008FE70995812F0E9428068D81811199C0EA
:10197000E091A701F091A8010680F781E02D1FC03A
:10198000933009F08EC0812FDF91CF911F910C947D
:10199000880481E01F3FC1F480930F0188E691E045
:1019A000E7EEF1E0DF019C011D9221503040E1F7AC
:1019B000E091A701F091A8010284F385E02D8FE763
:1019C000DF91CF911F910994809381051C3008F01D
:1019D00068C03EE1139FF0011124E951FE4F1082CF
:1019E00080910F01181710F410930F01E091A701D7
:1019F000F091A8010284F385E02D812F09951092C2
:101A0000C9034FC082E08093CA039091CB039460D6
:101A10009093CB039091CB0390619093CB03109262
:101A2000CC031330B1F040F4113079F01230C9F525
:101A30008091CB03826033C0153071F1B0F0163065
:101A400081F58091CB038E7F2AC08091CB038D7F5F
:101A500026C0E091A701F091A8010480F581E02D56
:101A600080E009951092CC031CC0E091A701F09191
:101A7000A8010480F581E02D81E0099581E0809343
:101A80000F0188E691E0E7EEF1E0DF019C011D9295
:101A900021503040E1F705C08091CB0381608093F5
:101AA000CB03DF91CF911F910895DC01683810F0CE
:101AB000685825C0E62FF0E067FF12C0E058F10932
:101AC00081E090E001C0880FEA95EAF780951496CE
:101AD0009C911497892314968C93149760E00FC0FF
:101AE000E254FE4F6491662311F167FF08C014961B
:101AF0008C9114978D7F14968C9314976F77FD01BA
:101B0000369686E0662321F09081961301C01082FC
:101B1000815031968111F6CFBD016C5F7F4F48E057
:101B200050E082E00E94D00B81E090E0089580E0D8
:101B300090E00895FC0116821782108611861286A5
:101B400013861482BC016C5F7F4F48E050E082E056
:101B50000C94D00BDC01683810F068582DC0E62FCB
:101B6000F0E067FF11C0E058F10981E090E001C0AA
:101B7000880FEA95EAF714969C911497892B14968E
:101B80008C93149760E018C0E254FE4F6491611189
:101B900009C081E090E013969C938E93129780E0A9
:101BA00090E0089567FF08C014968C9114978260A6
:101BB00014968C9314976F7716968C9116978617B8
:101BC00051F117968C911797861729F118968C91D9
:101BD0001897861701F119968C9119978617D9F0E5
:101BE0001A968C911A978617B1F01B968C911B97B9
:101BF000861789F0FD01369680E090E02191211151
:101C000005C0FD01E80FF91F668305C00196863007
:101C10009105A1F7BECFBD016C5F7F4F48E050E05A
:101C200082E00E94D00B81E090E00895CF92DF9295
:101C3000EF92FF920F931F93CF93DF936C01EB0111
:101C40007B01E40EF51E00E010E0CE15DF0561F02B
:101C50006991D601ED91FC910190F081E02DC601D2
:101C60000995080F191FF1CFC801DF91CF911F917E
:101C70000F91FF90EF90DF90CF90089583E08093D5
:101C8000E9008091F200882319F08AE38093E8004C
:101C90000895209184043091850480918604909168
:101CA000870428173907A9F0E0918604F09187048A
:101CB000EC5BFB4F808120918604309187042F5F7D
:101CC0003F4F2F733327309387042093860490E08F
:101CD00008958FEF9FEF089520918404309185043B
:101CE00080918604909187042817390749F0E09184
:101CF0008604F0918704EC5BFB4F808190E00895AF
:101D00008FEF9FEF08958091840490918504209136
:101D1000860430918704821B930B8F739927089553
:101D200085ED8093BC008091BC0084FDFCCF1092B7
:101D30001E0408954091F803262F30E0240F311D32
:101D400021323105DCF420911E042430C9F4FC0159
:101D500080E090E0861758F43091F8032191DC017F
:101D6000AA52BC4FA30FB11D2C930196F3CF8091C3
:101D7000F803680F6093F80380E0089581E0089508
:101D800082E0089508958FEF9FEF08958FEF9FEF02
:101D900008958091D50390E09195819591090895DA
:101DA000CF93DF9300D0CDB7DEB7CB01642F49834B
:101DB0005A830E949A0E4981842F5A81952F0F9041
:101DC0000F90DF91CF910895CF93DF931F92CDB7FE
:101DD000DEB7698361E0CE0101960E949A0E81E030
:101DE00090E00F90DF91CF9108950895CF93DF9306
:101DF000FC01EB01718182818983878190859A87BB
:101E0000898725853685438154816EE1769FC0019F
:101E1000112489519E4FDC0150965C934E931F977D
:101E200056963C932E93559764E0769FD0011124EB
:101E3000A954BE4F1D921D921D921C92139783852B
:101E400094859E878D8782858E8381E0DF91CF91F7
:101E50000895FC012281FB012783FC018381FB01A2
:101E600080870895FC0182819381FB01908F878B8D
:101E70000895DC01FB0112968D919C911397908F30
:101E8000878B14968D919C911597948F838F1696BE
:101E90008C911697858F17968D919C9118979487A2
:101EA00083870895DC01FB0112968C91129782833F
:101EB0008281811110C015968D919C911697908FFB
:101EC000878B13968D919C911497948F838F17967F
:101ED0008C918583089582810895DC01FB0112961F
:101EE0008C911297838313968C9113978483149605
:101EF0008D919C911597948B838B16968D919C91C7
:101F00001797928B818B08959EE1899FF001112490
:101F1000E951FE4F708B6787568B458B94E0899F04
:101F2000F0011124E954FE4F1082118212821382B3
:101F30000895089508951092810524E0829FC001BC
:101F40001124FC01E954FE4F108211821282138287
:101F5000089525E0FC0120838EE491E00895089522
:101F60008093810508950E9458370F931F93CF9354
:101F7000DF931F92CDB7DEB78C0169838091170183
:101F8000882359F041E050E0BE016F5F7F4F83E04E
:101F90000E94790A181619063CF081E090E0F801D9
:101FA0009383828380E090E00F90DF91CF911F9127
:101FB0000F9108950F931F93CF93DF931F92CDB787
:101FC000DEB700918404109185040F5F1F4F0F73DB
:101FD0001127809186049091870408171907F9F05A
:101FE00041E050E0BE016F5F7F4F82E00E94120B24
:101FF000019719F4898190E002C08FEF9FEF8F3F26
:102000002FEF920761F0E0918404F0918504EC5B7E
:10201000FB4F80831093850400938404D2CF0F90EC
:10202000DF91CF911F910F9108951F920F920FB6DC
:102030000F9211242F933F934F935F936F937F934E
:102040008F939F93AF93BF93EF93FF938091B900CA
:10205000887F803609F49CC068F5883209F45BC03B
:1020600090F4803109F454C038F4882309F4F6C0A0
:10207000883009F44DC0F6C0883109F44CC0803274
:1020800009F45DC0EFC0803409F468C048F48033BF
:1020900009F455C0883309F0E5C080931D04D8C009
:1020A000803509F44FC0883509F45DC0883409F0E3
:1020B000D9C0D6C0883909F4C7C0A8F4883709F454
:1020C00067C038F4883609F463C0803709F460C00B
:1020D000C9C0883809F4B8C0803909F45FC08038B5
:1020E00009F0C0C05BC0803B09F486C038F4803A78
:1020F00009F466C0883A09F47FC0B4C0803C09F492
:10210000A7C0883C09F4A4C0883B09F48AC0AAC0CF
:102110008091430410C0909142048091410498172B
:1021200070F5E091420481E08E0F80934204F0E06C
:10213000EF5DFB4F80818093BB0085EC86C0809370
:102140001D048EC0E091420481E08E0F8093420412
:102150008091BB00F0E0EF5DFB4F808390914204E3
:10216000809141046EC0E091420481E08E0F809323
:1021700042048091BB00F0E0EF5DFB4F80838091D3
:10218000200481116DC081E080931F0484EA61C046
:1021900083E080931E0410921C04CFCF80911C0416
:1021A000803208F051C0E0911C0481E08E0F8093D2
:1021B0001C048091BB00F0E0E450FC4F8083BDCF55
:1021C00085EC8093BC0010921E0480911C04803228
:1021D00030F4E0911C04F0E0E450FC4F1082609178
:1021E0001C0470E0E091FA03F091FB038CEF93E0A4
:1021F000099510921C0436C084E080931E0410924E
:10220000F9031092F803E091F603F091F7030995B2
:102210008091F803811105C081E08093F80310924A
:10222000D603E091F90381E08E0F8093F903F0E08B
:10223000EA52FC4F80818093BB009091F90380911A
:10224000F803981708F479CF85E88093BC000AC09A
:1022500085EC8093BC0010921E0404C010921D04F3
:102260000E94900EFF91EF91BF91AF919F918F913E
:102270007F916F915F914F913F912F910F900FBE82
:102280000F901F9018952091A9013091AA0128174D
:10229000390708F4C90190938B0080938A00089550
:1022A0002091A9013091AA012817390708F4C90122
:1022B000909389008093880008954F925F926F9267
:1022C0007F928F929F92AF92BF92CF92DF92EF92C6
:1022D000FF920F931F93CF93DF93CDB7DEB7609735
:1022E0000FB6F894DEBF0FBECDBF009709F4F7C25A
:1022F0008C016091B60170E080E090E00E9475353D
:102300002AE037ED43E25CE30E942A3669837A8350
:102310008B839C83F80180809180A280B380B7FE7C
:1023200008C0B094A09490948094811C911CA11C2E
:10233000B11CC501B4010E9475356B017C0160912F
:10234000B0017091B10180E090E00E9473352B01E3
:102350003C0126E636E646E65FE30E942A362981FE
:102360003A814B815C810E942A366D837E838F8304
:1023700098879B01AC01C701B6010E94253687FDF5
:10238000CBC0A301920169817A818B819C810E94DB
:102390002A3669877A878B879C8720E030E040E87F
:1023A0005FE30E9459349B01AC01C701B6010E9452
:1023B000C63487FFB1C06D817E818F8198850E9470
:1023C0003D356B017C01A5019401261B370B480BA1
:1023D000590BAEE3B0E00E9415344B015C016985F6
:1023E0007A858B859C850E943D359B01AC012C191B
:1023F0003D094E095F09C501B4010E94F633690128
:102400007A01FFEFCF1ADF0AEF0AFF0A560161E0F7
:1024100083E00E941417C114D10411F460E005C0D8
:102420008FEFC816D10429F461E083E00E94E4161E
:102430008AC0E4E5F8E0E4918E2F90E0FC0131974A
:10244000EE30F10508F062C0EC54FF4F0C944B37AE
:1024500084B5806884BDC7BC76C084B5806284BD05
:10246000C8BC71C080918000806880938000D09249
:102470008900C092880067C080918000806280934C
:102480008000D0928B00C0928A005DC08091900045
:10249000806880939000D0929900C092980053C0B9
:1024A00080919000806280939000D0929B00C092B7
:1024B0009A0049C080919000886080939000D092EB
:1024C0009D00C0929C003FC08091C00080688093B6
:1024D000C0008091C0008F7B8093C000C092CF006D
:1024E00032C08091C00080628093C000C092D00052
:1024F0002AC08091C20088608093C2008091C2008F
:102500008B7F8093C200C092D2001DC0E0E8AE165F
:10251000B1040CF089CF82CFA301920169817A8145
:102520008B819C810E942A3620E030E040E85FE306
:102530000E9459349B01AC01C701B6010E942536A7
:1025400087FD6CCF71CF80E090E0A0E8BFE380937F
:10255000D1039093D203A093D303B093D403809379
:10256000CD039093CE03A093CF03B093D00390916B
:10257000AF01F801C080D180E280F380892F8074A0
:1025800091FDC1C081116CC01C141D041E041F04E8
:102590005CF54090B0015090B1018090B2019090F4
:1025A000B301A12CB12C612C712CC301B2016819AB
:1025B00079098A099B09A70196010E942737A3017F
:1025C00092010E94F633820E931EA41EB51EF801DE
:1025D00080829182A282B38280E090E00E945011BA
:1025E000F801808191812EC0C114D104E104F1046D
:1025F00069F14090B0015090B1018090B20190908B
:10260000B301A12CB12C612C712CA50194012419CA
:10261000350946095709C701B6010E942737A301AA
:1026200092010E94F633DA01C901880D991DAA1D95
:10263000BB1DF80180839183A283B3830E94501154
:1026400080E090E00E9443112A9A49C180E090E026
:102650000E94501180E090E00E9443112A983FC1EF
:10266000E091B001F091B1011C141D041E041F047F
:10267000DCF44F01969487948091B2019091B3015C
:10268000880E991EA12CB12C2F01612C712CC30135
:10269000B201681979098A099B09A70196010E946C
:1026A0002737A301920119C0C114D104E104F10438
:1026B00011F14F01969487948091B2019091B301EA
:1026C000881A990AA12CB12CA5019401C701B60161
:1026D0000E9427379F0140E050E00E94F633DA0164
:1026E000C901880D991DAA1DBB1DF8018083918326
:1026F000A283B38303C0CF01969587950E945011A2
:1027000080E090E0D4C0811133C0F7FC02C02A9A67
:1027100001C02A988091B2019091B3016C01E12C23
:10272000F12C8090B0019090B101A12CB12CF80156
:10273000208131814281538157FF07C050954095D8
:10274000309521953F4F4F4F5F4FC501B4016C1934
:102750007D098E099F090E942737A50194010E94D7
:10276000F633DA01C9018C0D9D1DAE1DBF1D81C060
:102770001C141D041E041F046CF520E030E040E82A
:102780005FE36091AB017091AC018091AD019091DC
:10279000AE010E945A34209104013091050140910C
:1027A0000601509107010E942A360E943D354B01D7
:1027B0005C01609100017091010180910201909192
:1027C00003010E943D35681979098A099B09A7010F
:1027D00096013FC0C114D104E104F10409F44FC0D3
:1027E0002091AB013091AC014091AD015091AE010F
:1027F00060E070E080E89FE30E945934209104017A
:102800003091050140910601509107010E942A363E
:102810000E943D354B015C0122273327A9012C1969
:102820003D094E095F09609108017091090180918D
:102830000A0190910B012D873E874F87588B0E948C
:102840003D35681979098A099B092D853E854F8593
:1028500058890E9427372091B0013091B10140E0A2
:1028600050E00E94F633DA01C901880D991DAA1DB6
:10287000BB1DF80180839183A283B3830BC0609159
:1028800004017091050180910601909107010E9459
:102890004435CB010E9450116091040170910501F3
:1028A00080910601909107010E944435CB0160960A
:1028B0000FB6F894DEBF0FBECDBFDF91CF911F9151
:1028C0000F91FF90EF90DF90CF90BF90AF909F90CF
:1028D0008F907F906F905F904F900C944311609613
:1028E0000FB6F894DEBF0FBECDBFDF91CF911F9121
:1028F0000F91FF90EF90DF90CF90BF90AF909F909F
:102900008F907F906F905F904F9008956091A90194
:102910007091AA0180E090E00E9473359B01AC01A8
:1029200060E07EEF8FEF96E40E94CB3408952F9203
:102930003F924F925F926F927F928F929F92AF924F
:10294000BF92CF92DF92EF92FF920F931F93CF939C
:10295000DF93CDB7DEB729970FB6F894DEBF0FBE71
:10296000CDBF998788874B012B831D830C8317016B
:10297000DF82CE82042F10E08C819D816C01E12CDE
:10298000F12CE885F985F7FD2BC0C8019695982FA5
:10299000882797958795BF01681B790B072E000C38
:1029A000880B990B0E9475352B013C01C701B601BC
:1029B0000E9473359B01AC01C301B2010E94CB346C
:1029C0002B013C01C8019695982F882797958795EC
:1029D0009A838983EB8190E8E99FB00111242AC092
:1029E000B8017695762F662777956795E885F985FE
:1029F0006E0F7F1F072E000C880B990B0E947535F8
:102A00002B013C01C701B6010E9473359B01AC014B
:102A1000C301B2010E94CB342B013C0160E860038A
:102A2000C001619F900D11249A8389832B816203D9
:102A3000B001112488859985681B790B072E000C3D
:102A4000880B990B0E9475356B017C01B10180E008
:102A500090E00E9473359B01AC01C701B6010E9452
:102A6000CB346B017C018A149B0408F43FC08E8137
:102A70009F818A0D9B1D88169906C0F50C811D81CA
:102A80000A0D1B1D8016910690F4B4016A197B098A
:102A900080E090E00E9473359B01AC01C301B2015C
:102AA0000E942A360E943D3589819A811CC0821974
:102AB000930988159905E8F48A189B08EE81FF812F
:102AC0008E1A9F0AB401620D731D80E090E00E948F
:102AD00073359B01AC01C701B6010E942A360E94E2
:102AE0003D3588859985860F971F05C080E090E069
:102AF00002C08885998529960FB6F894DEBF0FBE6F
:102B0000CDBFDF91CF911F910F91FF90EF90DF909C
:102B1000CF90BF90AF909F908F907F906F905F907D
:102B20004F903F902F90089590E0FC013197EE3048
:102B3000F10590F5EE53FF4F0C944B3780918000D8
:102B40008F7703C0809180008F7D809380000895EF
:102B500084B58F7702C084B58F7D84BD0895809140
:102B600090008F7707C0809190008F7D03C0809187
:102B70009000877F8093900008958091C0008F77A8
:102B800003C08091C0008F7D8093C0000895809124
:102B9000C200877F8093C2000895CF93DF93282FD0
:102BA00030E0F901EF5AF74F8491F901EE5CF74FED
:102BB000D491F901ED5EF74FC491CC2391F08111CE
:102BC0000E949415EC2FF0E0EE0FFF1FEB5FF74F24
:102BD000A591B491EC91ED2381E090E021F480E0A7
:102BE00002C080E090E0DF91CF910895009769F0F6
:102BF000FC0101900020E9F73197AF01481B590B08
:102C0000BC0187E994E00C94160E80E090E00895F2
:102C10009091960489B18C70892B90E09C01359538
:102C200027953595279520939604409192045091CD
:102C300093046091940470919504FC01ED5AFE4F49
:102C40008081082E000C990BAA0BBB0B840F951FDB
:102C5000A61FB71F8093920490939304A0939404AB
:102C6000B0939504809191040895E0919704F091B8
:102C700098040190F081E02D682F87E994E0099491
:102C8000CF93DF938DE00E943516EC018AE00E941D
:102C900035168C0F9D1FDF91CF9108958F929F92D3
:102CA000AF92BF92EF92FF920F931F93CF93DF9358
:102CB000CDB7DEB7A1970FB6F894DEBF0FBECDBF7C
:102CC000162F042F19A2423008F40AE07E0121E2F7
:102CD000E20EF11C802E912CA12CB12C612FA501AC
:102CE00094010E942834029F1019112481E0E81AEF
:102CF000F1081A3014F4105D01C0195CF70110835B
:102D0000122F732FCA01232B242B252B39F7C70130
:102D10000E94F615A1960FB6F894DEBF0FBECDBF88
:102D2000DF91CF911F910F91FF90EF90BF90AF90E7
:102D30009F908F900895CF92DF92EF92FF92CF9362
:102D4000DF9397FF19C06B017C018DE20E9435165D
:102D5000EC0166277727CB016C197D098E099F0945
:102D60004AE00E944E168C0F9D1FDF91CF91FF907D
:102D7000EF90DF90CF9008954AE0DF91CF91FF90E0
:102D8000EF90DF90CF900C944E16CF93DF93BC0161
:102D9000990F880B990B0E949B16EC010E9440161C
:102DA0008C0F9D1FDF91CF910895BC01990F880B67
:102DB000990B0C949B16682F70E080E090E04AE03D
:102DC0000C944E160C94F6151F93CF93DF93282F77
:102DD00030E0F901EF5AF74F8491F901EE5CF74FBB
:102DE000D491F901ED5EF74FC491CC23C9F0162FB1
:102DF00081110E949415EC2FF0E0EE0FFF1FE950B7
:102E0000F84FA591B4918FB7F894111105C09C911A
:102E1000ED2FE095E92302C0EC91ED2BEC938FBFF1
:102E2000DF91CF911F910895CF93DF9390E0FC0144
:102E3000EE5CF74F2491FC01ED5EF74F84918823FF
:102E400061F190E0880F991FFC01E751F84FC5919F
:102E5000D491FC01E950F84FA591B491611109C0DA
:102E60009FB7F8948881209582238883EC912E2344
:102E70000BC0623061F49FB7F8943881822F80953F
:102E800083238883EC912E2B2C939FBF06C08FB792
:102E9000F894E8812E2B28838FBFDF91CF9108957E
:102EA0003FB7F89480918C0490918D04A0918E048A
:102EB000B0918F0426B5A89B05C02F3F19F001964D
:102EC000A11DB11D3FBFBA2FA92F982F8827820FB0
:102ED000911DA11DB11DBC01CD0142E0660F771F00
:102EE000881F991F4A95D1F70895CF92DF92EF92EC
:102EF000FF92CF93DF936B017C010E945017EB018F
:102F0000C114D104E104F10479F00E9450176C1B44
:102F10007D0B683E7340A0F381E0C81AD108E10838
:102F2000F108C851DC4FECCFDF91CF91FF90EF90CB
:102F3000DF90CF9008952FB7F89460918804709136
:102F4000890480918A0490918B042FBF08958F92F9
:102F50009F92AF92BF92CF92DF92EF92FF920F9328
:102F60001F93CF938091A6040E94CD158111E4C0D8
:102F70000E945017C090BE04D090BF04E090C004DF
:102F8000F090C104DC01CB018C199D09AE09BF0989
:102F90008093C2049093C304A093C404B093C50467
:102FA0000E9450176093BE047093BF048093C004C6
:102FB0009093C1041092D404C0E0C12CD12C7601AE
:102FC0008091A70490E047962C2F30E0821793075A
:102FD000BCF061E08091A5040E94E41660E080915D
:102FE000A5040E94E416C83148F48091A6040E940A
:102FF000CD15CC0CDD1CEE1CFF1CC82ACF5FE0CF2A
:10300000D701C601A0580097A10511E0B10718F03B
:1030100021E02093E0042091E604222361F04FEFA9
:103020005FEF6FEF70E08A019B01081B190B2A0B01
:103030003B0BD901C8014091BC045091BD042091C3
:10304000DA043091DB04B901615071094617570762
:1030500029F41092BD041092BC0406C04F5F5F4F6C
:103060005093BD044093BC040097A105B10509F439
:1030700056C0F090D40441E04F0D4093D404E09149
:10308000BC04F091BD04EE0FFF1FEE0FFF1FEB55C8
:10309000FB4F83879487A587B6878091CA048823CE
:1030A000F1F18091C704811104C081E08093C704CD
:1030B00036C0A0E040E050E0BA018A2F90E08217CD
:1030C00093078CF4880F991F880F991FFC01EB550B
:1030D000FB4F83849484A584B684480D591D6A1DD2
:1030E0007B1DAF5FEACF0090C80404C0759567955B
:1030F000579547950A94D2F74093B8045093B90472
:103100006093BA047093BB041092C7041092CA046F
:1031100081E08093D504F394F394F092D4040E9458
:103120009B176093E1047093E2048093E30490930F
:10313000E4041092E5041AC00E949B17C090E104B9
:10314000D090E204E090E304F090E404DC01CB01D1
:103150008C199D09AE09BF0985369105A105B105F8
:1031600018F081E08093E5041092D4048091D40497
:10317000CF911F910F91FF90EF90DF90CF90BF9074
:10318000AF909F908F900895CF92DF92EF92FF9231
:10319000CF9381E08093CA041092C7041092D804A0
:1031A0000E949B172091D6043091D7046B017C01BB
:1031B000C20ED31EE11CF11C0E94A717C82F8091DC
:1031C000D90481110BC00E949B17C616D706E806CA
:1031D000F90620F481E08093D80402C0C23061F780
:1031E000CF91FF90EF90DF90CF9008950F931F93B2
:1031F0000E949B1760939F047093A0048093A10486
:103200009093A204E0919704F09198040084F185D2
:10321000E02D87E994E0099597FF1FC00E949B1756
:1032200000919F041091A0042091A1043091A20468
:10323000DC01CB01801B910BA20BB30B00919B0413
:1032400010919C0420919D0430919E048017910759
:10325000A207B307B8F28FEF9FEF1F910F91089568
:10326000FF920F931F93CF93DF9300D000D0CDB781
:10327000DEB70E94F618FC0197FD11C08D32910552
:1032800091F0C0970A9778F0E0919704F091980434
:103290000680F781E02D87E994E00995EACF60E0A8
:1032A00070E0CB014CC020E030E0A901F12CE1300E
:1032B000F105F1F0ED32F105C9F0CF01C0970A97A1
:1032C000B8F4AAE0B0E00E9415348F01FF0F220B82
:1032D000330BDC01CB01800F911FA21FB31F9C0198
:1032E000AD01205331094109510902C0FF24F39473
:1032F000E0919704F09198040680F781E02D87E92A
:1033000094E029833A834B835C8309950E94F618E5
:10331000FC01C09729813A814B815C810A9738F280
:10332000E130F10521F2FF2041F066277727CB013C
:10333000621B730B840B950B02C0CA01B9010F907D
:103340000F900F900F90DF91CF911F910F91FF90F1
:1033500008951F920F920FB60F9211242F933F934F
:103360008F939F93AF93BF9380918804909189042A
:10337000A0918A04B0918B0430919F0523E0230F24
:103380002D3720F40196A11DB11D05C026E8230F9D
:103390000296A11DB11D20939F05809388049093F0
:1033A0008904A0938A04B0938B0480918C0490913B
:1033B0008D04A0918E04B0918F040196A11DB11DC2
:1033C00080938C0490938D04A0938E04B0938F040B
:1033D000BF91AF919F918F913F912F910F900FBE11
:1033E0000F901F901895CF93DF93CDB7DEB7C254DF
:1033F000D1090FB6F894DEBF0FBECDBF789484B567
:10340000826084BD84B5816084BD85B5826085BDE0
:1034100085B5816085BD80916E00816080936E006E
:103420001092810080918100826080938100809160
:103430008100816080938100809180008160809311
:103440008000809191008260809391008091910032
:1034500081608093910080919000816080939000C2
:103460008091C10084608093C1008091C10082601E
:103470008093C1008091C10081608093C1008091E0
:10348000C30081608093C3008091C00082608093FC
:10349000C0008091C20081608093C20080917A0058
:1034A000846080937A0080917A00826080937A00B1
:1034B00080917A00816080937A0080917A008068A0
:1034C00080937A001092A60181E08093D70080EA71
:1034D0008093D80082E189BD09B400FEFDCF61E090
:1034E00070E080E090E00E94751780E98093D8003A
:1034F0001CE01093E2001092E00010928B031092F7
:103500008A031092900310929103109292031092EA
:1035100093031092850310928403109299031092E2
:103520009A0310929B0310929C0310929D03109299
:103530009E0310929F031092A00342E0BE01615FC0
:103540007F4F80E090E00E9474088F8598898A3FC1
:10355000910509F44AC18AEF90E09E878D8742E089
:10356000BE01635F7F4F80E090E00E9445081982B2
:103570001A821B821C8244E0BE016F5F7F4F82E093
:1035800090E00E94450888E394E09E878D8742E0A2
:10359000BE01635F7F4F86E090E00E94450884E6AD
:1035A000898B41E0BE016F5E7F4F88E090E00E9412
:1035B000450841E0BE016F5E7F4F8BE090E00E94C6
:1035C000450841E0BE016F5E7F4F8CE090E00E94B5
:1035D000450841E0BE016F5E7F4F80E190E00E94B0
:1035E000450841E0BE016F5E7F4F8DE090E00E9494
:1035F000450882E3898B41E0BE016F5E7F4F89E021
:1036000090E00E94450841E0BE016F5E7F4F8AE076
:1036100090E00E94450841E0BE016F5E7F4F8EE062
:1036200090E00E94450886E4898B41E0BE016F5E10
:103630007F4F8FE090E00E9445081E861D8642E085
:10364000BE01635F7F4F81E190E00E9445088FEFEC
:1036500097E09E878D8742E0BE01635F7F4F83E1E5
:1036600090E00E9445088FEF9FE09E878D8742E0A3
:10367000BE01635F7F4F85E190E00E9445088DE2C7
:10368000898B41E0BE016F5E7F4F87E190E00E9431
:10369000450881E0898B41E0BE016F5E7F4F88E184
:1036A00090E00E94450880E699E0A0E0B0E08983C0
:1036B0009A83AB83BC8344E0BE016F5F7F4F89E197
:1036C00090E00E944508198B41E0BE016F5E7F4F7C
:1036D0008DE190E00E944508EE24EA94F12CFE86EC
:1036E000ED8642E0BE01635F7F4F8EE190E00E9475
:1036F00045080FEF11E01E870D8742E0BE01635FB2
:103700007F4F80E290E00E9445088FEF92E09E8715
:103710008D8742E0BE01635F7F4F82E290E00E94AE
:103720004508FE86ED8642E0BE01635F7F4F84E27E
:1037300090E00E9445081E870D8742E0BE01635F4E
:103740007F4F86E290E00E9445081E861D8642E07B
:10375000BE01635F7F4F88E290E00E9445081E86AD
:103760001D8642E0BE01635F7F4F8AE290E00E94C7
:10377000450842E0BE01635F7F4F8EE290E00E9409
:10378000450842E0BE01635F7F4F82E390E00E9404
:10379000450842E0BE01635F7F4F86E390E00E94F0
:1037A00045088FEF93E09E878D8742E0BE01635FFF
:1037B0007F4F8CE290E00E94450842E0BE01635FCB
:1037C0007F4F80E390E00E94450842E0BE01635FC6
:1037D0007F4F84E390E00E94450842E0BE01635FB2
:1037E0007F4F88E390E00E94450842E064EB71E07F
:1037F00086E090E00E94740844E065E573E089E1AA
:1038000090E00E94740841E066EB71E088E090E08F
:103810000E94740841E06CE573E089E090E00E944A
:10382000740841E06AE573E08AE090E00E94740861
:1038300041E06FE573E08BE090E00E94740841E0A6
:103840006EE573E08CE090E00E94740841E06DE565
:1038500073E08DE090E00E94740841E06BE573E056
:103860008EE090E00E94740841E060E673E08FE033
:1038700090E00E94740841E069E573E080E190E027
:103880000E94740841E069E773E087E190E00E94DC
:10389000740841E068E973E088E190E00E947408F0
:1038A00042E062EB71E081E190E00E94740842E046
:1038B00060EB71E083E190E00E94740842E063E510
:1038C00073E085E190E00E94740841E06FEA71E0E6
:1038D0008DE190E00E94740842E061E673E08EE1C1
:1038E00090E00E94740842E063E673E080E290E0BA
:1038F0000E94740842E065E673E082E290E00E9474
:10390000740842E067E673E084E290E00E94740885
:1039100042E069E673E086E290E00E94740841E0CC
:103920006BE673E088E290E00E94740842E06CE885
:1039300073E08AE290E00E94740842E06EE873E06F
:103940008CE290E00E94740842E064E973E08EE249
:1039500090E00E94740842E066E973E080E390E042
:103960000E94740842E066E873E082E390E00E94FF
:10397000740842E068E873E084E390E00E94740811
:1039800042E060E873E086E390E00E94740842E061
:1039900062E873E088E390E00E9474086091550348
:1039A0007091560380915703909158030E9475358A
:1039B00020E030E044EB53E40E94CB346B017C0107
:1039C0008091B4019091B501BC01990F880B990BBE
:1039D0000E9475359B01AC01C701B6010E942A36D1
:1039E0000E943D3560934F037093500380935103C1
:1039F000909352036B017C01F594E794D794C7949C
:103A0000C092A103D092A203E092A303F092A40378
:103A100062E080E00E94141762E081E00E941417C7
:103A200010929104C0929204D0929304E092940474
:103A3000F0929504109296044A9B05C080919604DA
:103A40008160809396044B9B05C0809196048260B0
:103A500080939604809169008F7C806180936900D7
:103A6000EA9A809169008F73806480936900EB9A71
:103A700060E082E10E94141760E083E10E94141765
:103A800060E084E10E94141762E085E10E9414174F
:103A900062E08EE00E94141762E08FE00E9414172B
:103AA00062E082E00E94141762E086E00E94141730
:103AB00062E087E00E94141762E088E00E94141719
:103AC00061E08091A5040E94141760E08091A60433
:103AD0000E94141711E01093A70460E08091A504E0
:103AE0000E94E4161093A7040E949B176093E104C0
:103AF0007093E2048093E3049093E4040E949B1784
:103B0000603679408105910518F40E94A717F6CF19
:103B10000E94C4181092D5046091790370E080E08F
:103B200090E00E94733520E030E040E85EE30E94C0
:103B30002A369B01AC016093A8047093A90480937A
:103B4000AA049093AB0460E070E080E89FE30E94D9
:103B5000CB346093AC047093AD048093AE04909327
:103B6000AF0488E191E09093A8018093A70186E0DB
:103B700095E0909383058093820581EF9BE090937D
:103B8000850580938405229A1091AF01812F0E94B0
:103B90009D085C019093AA018093A9019093B101C3
:103BA0008093B0016091B2017091B30180E090E028
:103BB0000E9473356B017C01B50180E090E00E94AA
:103BC00073359B01AC01C701B6010E94CB346093F1
:103BD000AB017093AC018093AD019093AE01012FC6
:103BE000017010FD05C020E030E04AEF54E404C04D
:103BF00020E030E04AE754E4609108017091090147
:103C000080910A0190910B010E942A36609308016D
:103C10007093090180930A0190930B01011105C073
:103C200020E030E04AEF54E404C020E030E04AE70E
:103C300054E4609104017091050180910601909116
:103C400007010E942A366093040170930501809356
:103C5000060190930701011105C020E030E04AEF12
:103C600054E404C020E030E04AE754E460910001ED
:103C70007091010180910201909103010E942A3606
:103C800060930001709301018093020190930301FE
:103C9000109280001092810010926F0016BA8091ED
:103CA000A9019091AA0190938700809386001092B9
:103CB00089001092880010928B0010928A008091E7
:103CC000AF018274823421F480918100826003C04C
:103CD000809181008160809381008091AF0180FF9D
:103CE00009C0809180008260809380008091810073
:103CF000806108C080918000826080938000809104
:103D0000810088618093810080E090E00E945011E2
:103D100080918000806880938000259A80E090E008
:103D20000E94431180918000806280938000269AD7
:103D300061E083E00E94141713E061E083E00E94D9
:103D4000E41664E170E080E090E00E94751760E0A6
:103D500083E00E94E41664E170E080E090E00E945D
:103D60007517115051F710927A0310927B0310923D
:103D70007C0310927D038AE793E00E945D1180919D
:103D8000A1039091A203A091A303B091A403F8947E
:103D90008093920490939304A0939404B093950419
:103DA000789410927703109276038FEF97E09093B8
:103DB00075038093740380917903809378030E9444
:103DC00050176093A5037093A6038093A703909365
:103DD000A8030E9450176093EC047093ED04809345
:103DE000EE049093EF040091A9031091AA0320918F
:103DF000AB033091AC036B017C01C01AD10AE20A1B
:103E0000F30AC092E804D092E904E092EA04F09246
:103E1000EB040091A5031091A6032091A703309114
:103E2000A8036B017C01C01AD10AE20AF30A40ED33
:103E3000C41647E0D406E104F10410F40C94C03237
:103E40006093A5037093A6038093A7039093A803A0
:103E5000F8948091920490919304A0919404B0916D
:103E6000950478944091A1035091A2036091A3031B
:103E70007091A403841B950BA60BB70B80939D0335
:103E800090939E03A0939F03B093A0038093990304
:103E900090939A03A0939B03B0939C031091980373
:103EA00015FB882780F916FD826017FF02C0846029
:103EB0001DC08130D9F46A017B01C094D094E09494
:103EC000F0949A01AB012C193D094E095F096091EC
:103ED00090037091910380919203909193030E94BB
:103EE00027372FEF3FEF40E050E032C0823059F4E7
:103EF0006A017B01C094D094E094F094A0918A036D
:103F0000B0918B0319C0833059F46A017B01C094CE
:103F1000D094E094F094A0918403B09185030CC0F8
:103F2000843021F56A017B01C094D094E094F09430
:103F3000A0917E03B0917F039A01AB012C193D093A
:103F40004E095F090E9420342FEF3FE040E050E02F
:103F50000E94F633C20ED31EE41EF51EC0929903D2
:103F6000D0929A03E0929B03F0929C038090990375
:103F700090909A03A0909B03B0909C038091F504CD
:103F80009091F604A091F704B091F8048092F504A2
:103F90009092F604A092F704B092F8042091FD04E8
:103FA000222309F449C00091260554E0059F9001A1
:103FB0001124B9016B507B4F7B01A5019401281B93
:103FC000390B4A0B5B0BCA01B9010E947535D70149
:103FD00019966D937D938D939C931C97F02E3AE0E8
:103FE000E32E60E070E0CB01B4E0FB9EF001112411
:103FF000EB50FB4F21853285438554850E945A340E
:10400000FF2011F0FA9402C029E0F22EEA94E110A8
:10401000EBCF20E030E040E251E40E94CB340F5F70
:104020000A3018F40093260502C0109226056AA7EC
:104030007BA78CA79DA70FC081E08093FD04109201
:10404000F9041092FA041092FB041092FC041AA6D0
:104050001BA61CA61DA6209127053091280540917E
:10406000290550912A058AA59BA5ACA5BDA58093DD
:10407000270590932805A0932905B0932A058091E0
:104080002F05882309F444C000918005E4E00E9FC9
:10409000C0011124BC0162507B4F7B016AA57BA546
:1040A000CD010E945934D701D2966D937D938D93A3
:1040B0009C93D597F02EB4E1EB2E60E070E0CB013D
:1040C000B4E0FB9EF0011124E250FB4F22A933A97A
:1040D00044A955A90E945A34FF2011F0FA9402C055
:1040E000A3E1FA2EEA94E110EBCF20E030E040EAC1
:1040F00051E40E94CB340F5F043118F40093800523
:1041000002C0109280056AAB7BAB8CAB9DAB0FC03D
:1041100081E080932F0510922B0510922C051092B0
:104120002D0510922E051AAA1BAA1CAA1DAA809161
:104130008105882359F110FF38C70E9486149B011E
:10414000AC0160E070E080E094E40E94CB346B014D
:104150007C016091600370E080E090E00E94753522
:104160009B01AC01C701B6010E942A3620E030E075
:1041700048EC52E40E94CB340E943D35AB01C501AE
:10418000B4010E9474062B013C0112C7EBEBF1E075
:10419000FF8FEE8F1B8A1A8A412C512C32010A891B
:1041A0001B890F5F1F4F1B8B0A8B4EE19801429FAB
:1041B0008001439F100D112409511E4FD8018C918D
:1041C0008370833009F0E4C60E9486146B017C0181
:1041D000F80121853285A789B08D0E9451372FEFD4
:1041E0003FE740E050E00E94F633CA01B9010E9467
:1041F0007535A70196010E94CB340E943D359B0185
:10420000AC01D8011B968D919C911C97059730F4B9
:10421000E4E0F0E01C96FC93EE931B97FEE1EF2E9A
:10422000CA88DB88EC9CF001ED9CF00D1124E9516B
:10423000FE4FE1818E2F90E0FC013197ED30F105CA
:1042400008F090C6EA5AFF4F0C944B370E94861430
:104250006E8B7F8B888F998F2EE10A891B89209F17
:10426000C001219F900D1124AC0149515E4F1A01EC
:10427000DA0119968D909C901A975596AD90BC9046
:1042800056971F96CD90DC9050975196ED90FC90EC
:10429000529753960D911C91549714962C91149704
:1042A00013964C91139757968D919C915897EE8D3C
:1042B000FF8D608171810E9497149401DC010E943E
:1042C00051372FEF3FE740E050E00E94F633CA013C
:1042D000B9010E9475352E893F89488D598D0E94FC
:1042E000CB340E943D350E9449069B01AC01A09150
:1042F0005F03B0E00E94153424E630E040E050E077
:104300000E94F633421A530A640A750A7AC10E945F
:1043100086146E8B7F8B888F998F5EE1E52ECA881D
:10432000DB88EC9CF001ED9CF00D1124E951FE4F6F
:10433000018512851B8F0A8FC588D688DBA2CAA289
:10434000E784F088FFA2EEA2018912891FA70EA7B9
:10435000038914891AAF09AF84809380AE8DBF8D15
:104360002D903C90078510896085A7800A2C000C51
:10437000BB08062E000C770B6A197B09CB01770F5F
:10438000AA0BBB0B6627782F892F9A2F0E947535B1
:104390006B017C01B80180E090E00E94733520E061
:1043A00030E04AE754E40E94CB349B01AC01C701E2
:1043B000B6010E94CB346B017C01C101B8010E949F
:1043C0003737BC0180E090E00E94733520E030E098
:1043D0004AE754E40E94CB349B01AC01C701B6010B
:1043E0000E942A360E943D35BA2CAA24C501860FA8
:1043F000971FAAA0BBA0CEA0DFA0EEA4FFA409AD8A
:104400001AAD282D492DB1010E9497142A8D3B8D9C
:10441000DC010E9451372FEF3FE740E050E00E945F
:10442000F633CA01B9010E9475352E893F89488D3E
:10443000598D0E94CB340E943D350E944906461A90
:10444000570A680A790A8EC50E9486146A8F7B8F84
:104450008C8F9D8F4EE1C42EEA89FB89CE9EC001D0
:10446000CF9E900D11248C0109511E4F1801D801C7
:1044700019960D90BC91A02DBBA3AAA3F801038CA3
:10448000F48DE02DFFA3EEA3D8015D96BC91BEA7ED
:10449000F80183849484A588B688C784D088E1888D
:1044A000F2880389148924814381AE8DBF8D0D90DC
:1044B000BC91A02DBF8BAE8B8789908DBD010E94D2
:1044C00097148C01B40180E090E00E94733520E0E5
:1044D00030E04AE754E40E94CB349B01AC0160E039
:1044E00070E080E89FE30E94CB346B017C018E89F1
:1044F0009F89B4010E943737BC0180E090E00E94A0
:10450000733520E030E04AE754E40E94CB349B014D
:10451000AC01C701B6010E942A366B017C01BEA521
:104520006B2F70E080E090E00E94733520E030E077
:1045300040E85BE30E942A369B01AC01C701B6014B
:104540000E945A342BED3FE049EC50E40E942A3699
:104550000E9497369B01AC01EEA1FFA16F01FF0FF6
:10456000EE08FF08B801110F880B990B2FAF2396A7
:104570003FAF239721964FAF219722965FAF2297A7
:104580000E9475352FAD23963FAD239721964FADF1
:10459000219722965FAD22970E942A360E943D35D0
:1045A000CB01770FAA0BBB0BA7019601280F391F70
:1045B0004A1F5B1FAAA1BBA10E9415342FEF3FE742
:1045C00040E050E00E94F633CA01B9010E947535FF
:1045D0002A8D3B8D4C8D5D8D0E94CB340E943D35E4
:1045E0009B01AC01A0915E03B0E00E94153424E66B
:1045F00030E040E050E00E94F633420E531E641E4D
:10460000751ED10116968C91169782FFABC41D962C
:104610006D917C911E9780E090E00E9473352BEDA8
:104620003FE049EC50E40E942A3620E030E040E0D0
:1046300058E30E942A360E9497369B01AC01C301C1
:10464000B2012FAF23963FAF239721964FAF21970B
:1046500022965FAF22970E9475352FAD23963FAD0E
:10466000239721964FAD219722965FAD22970E9406
:104670002A360E943D352B013C0174C40E948614E9
:104680006A8F7B8F8C8F9D8F3EE1E32ECA88DB88FB
:10469000EC9CF001ED9CF00D1124E951FE4F0185D9
:1046A00012851BA30AA3238D348DA901330F660B3A
:1046B000770B4EA35FA368A779A7558D5EA72384C8
:1046C0003484A588B688C784D088E188F2880389B5
:1046D000148924814381AE8DBF8D0D90BC91A02D96
:1046E000BF8BAE8B8789908DBD010E949714BC0152
:1046F000990F880B990B0E9475354B015C01B10134
:1047000080E090E00E94733520E030E04AE754E416
:104710000E94CB349B01AC0160E070E080E89FE335
:104720000E94CB346B017C018E899F89B1010E946C
:104730003737BC0180E090E00E94733520E030E024
:104740004AE754E40E94CB349B01AC01C701B60197
:104750000E942A366B017C01BEA56B2F70E080E0C1
:1047600090E00E94733520E030E040E85BE30E9477
:104770002A369B01AC01C701B6010E945A342BEDC9
:104780003FE049EC50E40E942A360E9497366B01C4
:104790007C0120E030E0A9010E94253687FF0CC093
:1047A00020E030E0A901C701B6010E94C63487FFAE
:1047B00005C0EFEFE8AF02C0F1E0F8AFC8AC6C2D78
:1047C000CC0C770B880B990B0E9475359B01AC01C3
:1047D000C501B4010E942A360E943D35CB01770FF6
:1047E000AA0BBB0BDDC10E9486146AA37BA38CA31A
:1047F0009DA30EE1EA88FB880E9DF0010F9DF00D50
:104800001124E951FE4F218532853FA32EA3238D2C
:10481000348DA901330F660B770B4EA75FA768ABEA
:1048200079AB358D638574857F8B6E8BA588B68853
:10483000C784D088E188F288038914892481438160
:10484000AE8DBF8D0D90BC91A02DBB8FAA8F878997
:10485000908DBD0123963FAF23970E9497141C01B2
:10486000EE89FF89BF0180E090E00E9473354B0123
:104870005C0123963FAD239760E4630F70E080E016
:1048800090E00E94733520E030E040E85BE30E9456
:104890002A36A50194010E942A360E9444358A8D49
:1048A0009B8D860F971F6E897F890E9437378C01F9
:1048B000BC0180E090E00E94733520E030E04AE7E0
:1048C00054E40E94CB346B017C0120E030E0A9016C
:1048D0000E94253687FD3CC020E030E04AE754E4E2
:1048E000C501B4010E94CB346A8F7B8F8C8F9D8F62
:1048F00020E030E040E05FE30E942A369B01AC01FB
:10490000C701B6010E94C63487FF22C0B101032C43
:10491000000C880B990B0E94753520E030E040E8D0
:1049200050E40E942A362A8D3B8D4C8D5D8D0E946D
:10493000CB34A70196010E942A360E943D3531945E
:10494000219431086101C60ED71EDFAACEAA51C03C
:1049500020E030E04AE754E4C501B4010E94CB34C2
:104960004B015C0120E030E040E05FE30E942A362A
:104970009B01AC01C701B6010E94253687FD39C0F5
:10498000A5019401C701B6010E94C63487FF31C05A
:10499000B101032C000C880B990B0E94753520E0A7
:1049A00030E040E850EC0E942A36A50194010E94B4
:1049B000CB346B017C018E899F8996958795B801D0
:1049C000681B790B80E090E00E94733520E030E0B6
:1049D0004AE754E40E94CB349B01AC01C701B60105
:1049E0000E942A360E943D357101E60EF71EFFAA8D
:1049F000EEAA0EA91FA9C801110FAA0BBB0B2EA569
:104A00003FA548A959A9280F391F4A1F5B1FAEA10E
:104A1000BFA10E9415342FEF3FE740E050E00E9415
:104A2000F633CA01B9010E9475352AA13BA14CA1F8
:104A30005DA10E94CB340E943D359B01AC01A09149
:104A40005E03B0E00E94153424E630E040E050E020
:104A50000E94F633420E531E641E751E83C20E94CE
:104A600086146A8F7B8F8C8F9D8F4EE12A893B89BC
:104A7000429FF001439FF00D1124E951FE4F6185E3
:104A800072857BA36AA3238D348DC901330FAA0BD2
:104A9000BB0B8EA39FA3A8A7B9A7358D238434840D
:104AA000A588B688C784D088E188F28803891489EC
:104AB00024814381AE8DBF8D8D909C908789908D90
:104AC000B40123963FAF23970E9497149F8B8E8B40
:104AD000B10180E090E00E9473356B017C01239668
:104AE0003FAD239760E8630F70E080E090E00E94A4
:104AF000733520E030E040E85BE30E942A36A701EE
:104B000096010E942A360E944435C401860F971FE1
:104B1000B1010E9437378C0182159305D8F5EE89D3
:104B2000FF89BF01FF0F880B990B0E9475359B0110
:104B3000AC010E945A344B015C0120E030E04AE7AE
:104B400054E4C701B6010E94CB349B01AC01C501FE
:104B5000B4010E94CB346B017C01B80180E090E08D
:104B60000E94733520E030E04AE754E40E94CB34E1
:104B70009B01AC01C701B6010E942A360E943D3557
:104B80002E893F893195219531096901C60ED71EBD
:104B9000DEAECDAEEDACFEACC701FF0CAA0BBB0B7D
:104BA0002EA13FA148A559A5280F391F4A1F5B1FF9
:104BB000AAA1BBA10E9415342FEF3FE740E050E0CF
:104BC0000E94F633CA01B9010E9475352A8D3B8DCA
:104BD0004C8D5D8D2ECF0E9486146A8F7B8F8C8FBB
:104BE0009D8F2EE10A891B89209FF001219FF00DE6
:104BF0001124E951FE4F418552855BA34AA3238DC1
:104C0000348DB901330F880B990B6EA37FA388A74E
:104C100099A7358D23843484A588B688C784D08825
:104C2000E188F2880389148924814381AE8DBF8D88
:104C30008D909C908789908DB40123963FAF2397E8
:104C40000E9497149F8B8E8BB10180E090E00E94B0
:104C500073356B017C0123963FAD239760E8630FAA
:104C600070E080E090E00E94733520E030E040E8A2
:104C70005BE30E942A36A70196010E942A360E9411
:104C80004435C401860F971FB1010E9437378C014C
:104C900082159305D0F56E897F89719561957109AB
:104CA000072E000C880B990B0E9475359B01AC01F7
:104CB0000E945A344B015C0120E030E04AE754E4A2
:104CC000C701B6010E94CB349B01AC01C501B40100
:104CD0000E94CB346B017C01B80180E090E00E941F
:104CE000733520E030E04AE754E40E94CB349B0166
:104CF000AC01C701B6010E942A360E943D35EE89FB
:104D0000FF89E60FF71FFCAFEBAFCBACDCACC60105
:104D1000DD0CAA0BBB0B44CF0EE1EA88FB880E9D8D
:104D2000F0010F9DF00D1124E951FE4F038D148DFC
:104D3000A0915D03B0E00E94153420E436E040E02D
:104D400050E00E94F63369017A012091A10330916D
:104D5000A2034091A3035091A403D8010E942034E0
:104D6000DC01CB011FE0B595A795979587951A951E
:104D7000D1F7092E000CAA0BBB0B4091990350915F
:104D80009A0360919B0370919C038A019B01081B0D
:104D9000190B2A0B3B0BC901B801A6010E9474062E
:104DA000460E571E681E791EDDC08EE16A897B891A
:104DB000869FF001879FF00D1124E951FE4F038D6E
:104DC000148DA0915C03B0E00E94153424E630E01D
:104DD00040E050E00E94F63369017A01B801110FFA
:104DE000880B990B0E9475352AE939EC4CEC54E498
:104DF0000E94CB349B01AC016AA57BA58CA59DA527
:104E00000E945934A6010E94A10762C0FEE1CF2E84
:104E1000AA89BB89CA9EF001CB9EF00D1124E951ED
:104E2000FE4F038D148DA0915B03B0E00E941534FA
:104E300024E630E040E050E00E94F63369017A0158
:104E4000B801110F880B990B0E94753520E03EEFD9
:104E50004FEF56E40E94CB349B01AC016AA97BA9B9
:104E60008CA99DA90E945934A6010E94390730C01F
:104E70000EE1EA88FB880E9DF0010F9DF00D1124D4
:104E8000E951FE4F038D148DA0915A03B0E00E94AA
:104E9000153424E630E040E050E00E94F63369012A
:104EA0007A01B801110F880B990B0E9475352AE918
:104EB00039EC4CEC54E40E94CB349B01AC016AA564
:104EC0007BA58CA59DA50E945934A6010E94B80619
:104ED000092E000CAA0BBB0B480E591E6A1E7B1E26
:104EE00041C00E9486149B01AC018EE16A897B89D6
:104EF000869FF001879FF00D1124E951FE4F838DAD
:104F0000948DBC01990F880B990B2FAF23963FAF5F
:104F1000239721964FAF219722965FAF22970E9449
:104F200075352FAD23963FAD239721964FAD219731
:104F300022965FAD22970E94CB340E943D350E949D
:104F400049069B01AC01A0915E03B0E00E941534BC
:104F500024E630E040E050E00E94F633421A530A63
:104F6000640A750A0E949B170091B7011091B8015D
:104F70002091B9013091BA01DC01CB01801B910B6A
:104F8000A20BB30BEE8DFF8D80839183A283B3833D
:104F90000E8D1F8D0C5F1F4F1F8F0E8F2A893B892F
:104FA0002B30310509F0FBC803C0412C512C3201D4
:104FB0001091980311FF39C00E9486149B01AC0127
:104FC000E0915C0367E471E0E69FC001E79F900D0C
:104FD0001124BC0180E090E02FAF23963FAF2397D0
:104FE00021964FAF219722965FAF22970E94753589
:104FF0002FAD23963FAD239721964FAD2197229653
:105000005FAD22970E94CB340E943D35AB016AA56B
:105010007BA58CA59DA50E94A107092E000CAA0BBB
:10502000BB0B480E591E6A1E7B1E12FF39C00E9420
:1050300086149B01AC01E0915B0367E471E0E69F9D
:10504000C001E79F900D1124BC0180E090E02FAFDC
:1050500023963FAF239721964FAF219722965FAFBC
:1050600022970E9475352FAD23963FAD2397219649
:105070004FAD219722965FAD22970E94CB340E94BC
:105080003D35AB016AA97BA98CA99DA90E9439076E
:10509000092E000CAA0BBB0B480E591E6A1E7B1E64
:1050A00013FF39C00E9486149B01AC01E0915A03A2
:1050B00067E471E0E69FC001E79F900D1124BC01F9
:1050C00080E090E02FAF23963FAF239721964FAF1C
:1050D000219722965FAF22970E9475352FAD2396B8
:1050E0003FAD239721964FAD219722965FAD229732
:1050F0000E94CB340E943D35AB016AA57BA58CA5EF
:105100009DA50E94B806092E000CAA0BBB0B480EE9
:10511000591E6A1E7B1E4091A1035091A20360910B
:10512000A3037091A4038091990390919A03A09195
:105130009B03B0919C03CC24DD247601C41AD50ACC
:10514000E60AF70A8C159D05AE05BF0534F0481731
:1051500059076A077B070CF045C0B7FD05C0841BE3
:10516000950BA60BB70B04C0840F951FA61FB71F86
:105170008093990390939A03A0939B03B0939C030D
:105180000E9486149B01AC0160E07EEF8FEF96E4F5
:105190000E94CB346B017C016091590370E080E088
:1051A00090E00E9475359B01AC01C701B6010E94D9
:1051B0002A3620E030E048EC52E40E94CB340E94D2
:1051C0003D356B017C016091990370919A03809148
:1051D0009B0390919C03A6010E947406460E571EE5
:1051E000681E791EA091B601B0E0A30192010E9451
:1051F000153424E630E040E050E00E94F633CA0166
:10520000B9010E9449066B017C0114FF04C00E9491
:105210009B160E944016C0927A03D0927B03E092C4
:105220007C03F0927D0360919D0370919E038091B9
:105230009F039091A0030E9475356B017C016091E2
:105240004F037091500380915103909152030E943B
:1052500075359B01AC0160E07FEF8FE797E40E941A
:10526000CB349B01AC01C701B6010E942A360E94D3
:105270003D354B015C01611570488105910534F0A5
:1052800088248A94EFE79E2EA12CB12C811440E84B
:1052900094064FEFA406B40634F4812C70E8972EE0
:1052A000AA24AA94BA2C80929D0390929E03A09265
:1052B0009F03B092A0038AE793E00E945D111092D1
:1052C00085031092840310927F0310927E03109145
:1052D000790380917803181741F1612F70E080E025
:1052E00090E00E94733520E030E040E85EE30E94E9
:1052F0002A369B01AC016093A8047093A9048093A3
:10530000AA049093AB0460E070E080E89FE30E9401
:10531000CB346093AC047093AD048093AE0490934F
:10532000AF04109378030E94C4180E94A7174091FD
:10533000DA045091DB04A0E0C12CD12C76012A2F95
:1053400030E0241735078CF4220F331F220F331F50
:10535000F901EB55FB4F0385148525853685C00E75
:10536000D11EE21EF31EAF5FEACFD701C601009047
:10537000C80404C0B595A795979587950A94D2F768
:105380008093DC049093DD04A093DE04B093DF04EB
:105390000091B8041091B9042091BA043091BB0473
:1053A000BC01CD01601B710B820B930B0E94753504
:1053B0002091AC043091AD044091AE045091AF0403
:1053C0000E942A360E943D356A8B7B8B8C8B9D8B8D
:1053D000009176031091770380918C0390918D0357
:1053E000800F911F2C01612C712CC0908603D090EE
:1053F0008703C00ED11EE12CF12C20918403309143
:105400008503C901330FAA0BBB0B9C01AD012C19FD
:105410003D094E095F09AFEFBFE00E9415342091AE
:10542000880330918903201B310B40E050E02C1998
:105430003D094E095F090E94F6332E8F3F8F48A326
:1054400059A3C0908003D0908103C00ED11EE12CDF
:10545000F12C20917E0330917F03C901330FAA0BF9
:10546000BB0B9C01AD012C193D094E095F09AFEF43
:10547000BFE00E9415342091820330918303201BEA
:10548000310B40E050E02C193D094E095F090E94A4
:10549000F63369017A0120918A0330918B03C901A7
:1054A000330FAA0BBB0B9C01AD012419350946092A
:1054B0005709AFEFBFE00E94153420918E03309161
:1054C0008F03201B310B890120E030E0A9019801F6
:1054D00024193509460957090E94F6331901211488
:1054E00050E1350624F022242A945FE0352E37FE61
:1054F00002C0212C312C30928B0320928A034E8CD7
:105500005F8C411460E1560624F044244A944FE035
:10551000542E57FE02C0412C512C509285034092CC
:1055200084038601C11470E1D70614F00FEF1FE069
:1055300017FF02C000E010E010937F0300937E038A
:105540008091740390917503A0E0B0E0CA88DB8875
:10555000EC88FD88C816D906EA06FB064CF41092C2
:10556000900310929103109292031092930310C033
:10557000CA88DB88EC88FD88C81AD90AEA0AFB0ABF
:10558000C0929003D0929103E0929203F092930321
:10559000C0909003D0909103E0909203F090930319
:1055A000C114D10421E0E206F1042CF0CC24CA9409
:1055B000DC2CE12CF12CF7FE03C0C12CD12C7601A0
:1055C000C0929003D0929103E0929203F0929303E1
:1055D0008FB182958F7091E0892790E0A0E0B0E0D4
:1055E00081709927AA27BB271B9B8260199B846027
:1055F000499B88604F9B8061669B80621C9B806496
:1056000024E0880F991FAA1FBB1F2A95D1F720916C
:105610006B0322FF0CC060916C0370916D034FEF20
:1056200053E0461B570B50936D0340936C0323FFCD
:105630000CC060916E0370916F034FEF53E0461BF7
:10564000570B50936F0340936E0320FF05C084FFF8
:1056500002C08F7E01C0806140916C0350916D0348
:10566000609161037091620346175707A0F460913F
:105670006E0370916F03E0916903F0916A036E17F6
:105680007F0708F066C0E0916703F09168036E172A
:105690007F07E0F463C06091630370916403461771
:1056A0005707A0F460916E0370916F03E091690356
:1056B000F0916A036E177F0708F055C0E091670309
:1056C000F09168036E177F0708F452C0609163037E
:1056D0007091640346175707F0F06091650370916D
:1056E000660346175707B8F460916E0370916F0315
:1056F000E0916903F0916A036E177F07F0F5E0917E
:105700006703F09168036E177F0728F421FD3AC004
:1057100084FD4BC037C060916503709166034617E6
:105720005707D0F140916E0350916F036091690368
:1057300070916A034617570750F56091670370919F
:1057400068034617570740F521FF2AC084FF28C089
:105750002CC040E050E061E070E02BC040E050E041
:1057600062E070E026C040E050E064E070E021C0FC
:1057700040E050E068E070E01CC040E050E060E1D4
:1057800070E017C040E050E060E270E012C040E01E
:1057900050E060E470E00DC040E050E0BA0109C0A4
:1057A00040E050E060E870E004C041E050E060E0BC
:1057B00070E024E0440F551F661F771F2A95D1F72C
:1057C0008F7EAF70B07F842B952BA62BB72B809349
:1057D000700390937103A0937203B09373039401C9
:1057E000305829833A83CB82DC822D82242D229566
:1057F000207F23292E8334E0569447943A95E1F78D
:105800004F8208871987AC01BD01E4E07695679562
:1058100057954795EA95D1F74A871B86F4E1B695E7
:10582000A79597958795FA95D1F78C874CE050E02E
:10583000BE016F5F7F4F84E00E94D00B8091E8042F
:105840009091E904A091EA04B091EB048031974271
:10585000A105B10508F494C687E994E00E94830E7F
:10586000181619060CF07CC687E994E00E94490ED0
:10587000E82F8FE98E0F8A3108F4E0528E2F90E0E6
:10588000FC01E154F109EA31F10508F069C6ED596E
:10589000FF4F0C944B378091B4019091B5010E9459
:1058A000D51680E20E9435168091B6010E94DB1663
:1058B00080E20E94351680915C030E94DB1680E234
:1058C0000E94351680915A030E94DB1680E20E94E6
:1058D000351680915F030E94DB1680E20E94351628
:1058E00080915E030E94DB1680E20E943516809153
:1058F0005D030E94DB1680E20E94351680915B03F7
:105900000E94DB1680E20E943516809160030E949F
:10591000DB1680E20E943516809159030E94DB1647
:1059200080E20E9435166091B2017091B30180E06F
:1059300090E04AE00E944E1680E20E943516809167
:1059400079030E94DB1680E20E943516809198034D
:105950000E94DB1680E20E9435166091B0017091C2
:10596000B10180E090E04AE00E944E1680E20E9481
:1059700035166091550370915603809157039091AD
:1059800058030E949B1680E20E9435166091AF0179
:105990005BC383E991E00E94E2168AEF90E00E94E7
:1059A000D51688E991E00E94E2168AE991E00E940A
:1059B000E2168CE991E00E94E2168EE991E00E94E5
:1059C000E21680EA91E00E94E216CAC58091F404D2
:1059D000082E000C990BC2C5F894C0909204D09088
:1059E0009304E0909404F090950478948091B00131
:1059F0009091B1012091B2013091B301821B930BC0
:105A00009695879596958795A0E0B0E089839A83CF
:105A1000AB83BC83CE0101960E945D11D701C60104
:105A20001EEFF8948090920490909304A0909404B8
:105A3000B0909504789488159905AA05BB0554F48F
:105A40006CE271E080E090E00E9475171150D50182
:105A5000C40139F719821A821B821C82CE01019679
:105A60000E945D1180914F0390915003A0915103CA
:105A7000B0915203F8948093920490939304A0936E
:105A80009404B09395047894C814D904EA04FB04F0
:105A900011F482E001C081E08093F4045DC50E94AE
:105AA0003019611101C061E06093790355C5F89424
:105AB00040909204509093046090940470909504E8
:105AC00078948091A1039091A203A091A303B09137
:105AD000A403481A590A6A0A7B0A8091F00490913B
