:100000000C940E040C9436040C9436040C943107B2
:100010000C940D070C9436040C9436040C9436049E
:100020000C9436040C9436040C94500A0C94F30788
:100030000C9436040C9436040C9436040C94360458
:100040000C9436040C9436040C9436040C94360448
:100050000C9436040C9436040C9436040C946518F5
:100060000C9436040C9436040C9436040C94360428
:100070000C9436040C9436040C9436040C94360418
:100080000C9436040C9436040C9436040C94360408
:100090000C94250F0C9436040C9436040C943604FE
:1000A0000C9436040C9436040C943604D11E331F81
:1000B000F220D01FA7219E23DD223C248624B824D1
:1000C000EA246A2524251D2C152AB42A012D922BF9
:1000D0008E2CC72A1A2C012D012D012D012D012D49
:1000E000012D402A1D2A012DB229AC29012D0E29EE
:1000F0009129C22B012D1A2C1A2CC82CCD2CAA2CDC
:10010000AF2C012DB42CA52C012DC32CD22C012DEC
:10011000012DBE2C012D012D012D012D012DB92CFC
:1001200037113C1141114B11951195119511551134
:100130005F11691173118011951188110116041650
:10014000F715FB1525162516251608160C1610167C
:1001500016161A162516201605A84CCDB2D44EB97F
:100160003836A9020C50B9918688083CA6AAAA2A5A
:10017000BE000000803F00000000000000002A2BAD
:100180002800000000000000000000000000000047
:100190000000000000002C9EB4A0A1A2A434A6A7D9
:1001A000A5AE362D3738271E1F20212223242526D1
:1001B000B333B62EB7B89F8485868788898A8B8C9F
:1001C0008D8E8F909192939495969798999A9B9CE7
:1001D0009D2F3130A3AD350405060708090A0B0C25
:1001E0000D0E0F101112131415161718191A1B1CC7
:1001F0001DAFB1B0B500080B0002020201000904F6
:100200000000010202000005240010010524010184
:1002100001042402060524060001070581031000DD
:100220004009040100020A00000007050202400024
:1002300000070583024000000904020002030000D9
:100240000009210101000122E104070584034000A7
:10025000010705050340000105010904A10185040A
:100260000901A1000930170000000027FFFF00006E
:10027000350047FFFF000075109501810209311616
:10028000000027FFFF0000350047FFFF000075104A
:1002900095018102093216000027FF0F000035008A
:1002A00047FF0F0000750C9501810209331600000D
:1002B00027FF0F0000350047FF0F0000750C950168
:1002C0008102093416000027FF0F0000350047FFA8
:1002D0000F0000750C9501810209391501250835BB
:1002E00000463B016514550075049501810205091E
:1002F000150025015500650019012918750195188B
:10030000810285F10901150026FF00953F750891CE
:100310008285F20901953F75088182C0050F099217
:10032000A1028502099F09A009A409A509A6150033
:10033000250135004501750195058102950381036D
:1003400009941500250135004501750195018102CB
:1003500009221501252835014528750795018102D7
:10036000C00921A102850109221501252835014571
:10037000287508950191020925A102092609270976
:100380003009310932093309340940094109420968
:1003900043250B15013501450B750895019100C0EA
:1003A00009500954150027FFFF0000350047FFFFE3
:1003B000000066011055FD7510950291025500660A
:1003C00000000952150026FF7F350046FF7F75109B
:1003D0009501910209531501250835014508750855
:1003E000950191020955A102050109300931150055
:1003F0002501750195029102C0050F0956950191DD
:1004000002950591030957A1020B01000A000B0296
:10041000000A0066140055FE150026FF7F350047D0
:100420009F8C00007510950191025500660000C078
:10043000050F09A766011055FD150027FFFF0000F5
:10044000350047FFFF00007510950191026600001E
:100450005500C0050F095AA1028502092215012580
:100460002835014528750895019102095B095D153C
:100470000026FF00350046FF7F75089502910209AE
:100480005C095E66011055FD26FF7F46FF7F7510F3
:10049000950291026600005500C0095FA102850324
:1004A0000922150125283501452875089501910275
:1004B00009231500250135004501750495019102B8
:1004C0000958A1020B01000A000B02000A00750284
:1004D00095029102C0096016008026FF7F360080D9
:1004E00046FF7F751095019102096136008046FF35
:1004F0007F95019102150026FF7F350046FF7F0999
:10050000637510950191020965150026FF0046FFED
:100510007F750895019102C0096EA1028504092228
:1005200015012528350145287508950191020970A6
:10053000150026FF7F350046FF7F7510950191025B
:10054000096F16008026FF7F36008046FF7F9501E9
:1005500091020971150026FF0035004667016614F7
:10056000005500750895019102097227FFFF0000F0
:1005700047FFFF000066011055FD751095019102BF
:100580006600005500C00973A10285050922150106
:100590002528350145287508950191020970160135
:1005A0008026FF7F36018046FF7F751095019102FE
:1005B000C00974A1028506092215012528350145C7
:1005C00028750895019102097509761581257F36F0
:1005D000018046FF7F750895029102C0050F0977DB
:1005E000A102850A0922150125283501452875082B
:1005F000950191020978A1020979097A097B15010F
:100600002503750895019100C0097C150026FF009F
:10061000350046FF009102C00990A102850B092216
:100620001501252835014528750895019102C00955
:1006300096A102850C099709980999099A099B09BD
:100640009C15012506750895019100C0097DA10240
:10065000850D097E150026FF003500461027750818
:1006600095019102C009ABA10285050925A10209E6
:1006700026092709300931093209330934094009AB
:1006800041094209431501250B3501450B750895B4
:1006900001B100C00501093B150026FF01350046E8
:1006A000FF01750A9501B1027506B101C0050F0978
:1006B00089A10285060922252815013501452875DD
:1006C000089501B102098BA102098C098D098E25BB
:1006D0000315013501450375089501B100C009AC4A
:1006E000150027FFFF0000350047FFFF00007510D1
:1006F0009501B100C0097FA1028507098075109599
:1007000001150027FFFF0000350047FFFF0000B183
:1007100002098326FF0046FF0075089501B1020912
:10072000A909AA750195021500250135004501B1F9
:100730000275069501B103C0C01803410072006440
:1007400000750069006E006F0020004C004C0043F3
:10075000000403090422034100720064007500696B
:10076000006E006F0020004D006900630072006F92
:100770000020002000200012010002000000404183
:100780002337800001010200011201000202000073
:10079000404123378000010102000100C18081C176
:1007A000C000000000240027002A002D00300000B7
:1007B000000000250028002B002E00310004040456
:1007C00004040304050202020204030202020206F8
:1007D00006060606060404020202040404080201D6
:1007E000104080401020408040800802040180407A
:1007F0002010020110801020404020000000020064
:10080000080E0000030401000B00000000000000BF
:10081000000000000000000000001B2D11241FBE7E
:10082000CFEFDAE0DEBFCDBF11E0A0E0B1E0E0E65F
:10083000F2E602C005900D92A23AB107D9F725E081
:10084000A2EAB1E001C01D92AE34B207E1F714E0B4
:10085000CEE0D4E004C02197FE010E941C31CD30CF
:10086000D107C9F70E94AF180C942E310C940000E8
:100870008C30F8F4282F30E09EE1899FF00111249C
:10088000EC51FE4F90819923A1F090819D7F908340
:10089000F901EA55FC4F958191110BC0E091A3013C
:1008A000F091A4010084F185E02D09951092B60322
:1008B00008950895FC01CB012091E80022FFFCCFB0
:1008C000282F215028F03091F10030833196F9CF54
:1008D00024E620939A032BEF2093E80008950F93CA
:1008E0001F93CF93DF93DB01A40FB51FFB016EEFC6
:1008F000EA17FB0791F187FF02C0249101C0208114
:1009000000919E0310919F03C0919C03D0919D0381
:100910000C171D07B4F49091E8009570E1F39091E5
:10092000E80092FD1CC02093F10020919E033091BD
:100930009F032F5F3F4F2F733327232B11F46093B7
:10094000E80020919E0330919F032F5F3F4F30932B
:100950009F0320939E033196CBCFCA0102C08FEF35
:100960009FEFDF91CF911F910F910895CF93DF9368
:1009700000D000D01F92CDB7DEB7FC0181819081FD
:10098000913A29F5813009F0BCC08281863051F45A
:1009900045E050E061EA73E080E40E946F04109249
:1009A000A103AFC0873009F0ACC089838FEF9FEF00
:1009B0009B838A838BE08C8383E08D8345E050E0CA
:1009C000BE016F5F7F4F80E40E946F049AC0913236
:1009D00009F097C0893009F094C08281853009F010
:1009E00090C064E070E0CE0101960E945A0486E057
:1009F0008093A10380910F018B3021F1A0910F0111
:100A000081E08A0F80930F019EE1E0910F019E9F8C
:100A1000F0011124EC51FE4F8081882351F0809128
:100A20000F018B3030F480910F018F5F80930F01A5
:100A3000ECCF8EE1A89FF0011124EC51FE4F81E034
:100A4000808301C0A0E0A093A203A11104C082E0B2
:100A50008093A30350C01092270581E08093A303E5
:100A60008A819EE1A99FD0011124AC51BE4F1196FD
:100A70008C9311978FEF9FEF50969C938E931F97B7
:100A800054961C921E92539752961C921E92519706
:100A900013968C93139714968C93149756961C92D6
:100AA0001E9255971E961C921E921D9716961C928A
:100AB00016978FEF9FE71A969C938E9319975896E7
:100AC0001C921E9257975C961C921E925B975D96A5
:100AD0001C925D9788EE93E01C969C938E931B97D7
:100AE000E091A301F091A4010684F785E02DBD01FA
:100AF000CE01019609958FEF9FEF9093A503809308
:100B0000A40381E00F900F900F900F900F90DF9152
:100B1000CF91089542E450E066EF71E080E80E94D2
:100B20006F0440E250E068E372E080E80E946F04E6
:100B300083E090E00895EF92FF921F93CF93DF93AD
:100B4000EC01162FE881F9810480F581E02D0995EB
:100B50007C01E881F9810680F781E02D612FCE01CB
:100B60000995C7019927DF91CF911F91FF90EF90D1
:100B70000895FC0191818081813A29F49D7F81E073
:100B8000913091F414C0813279F49A3049F09B305D
:100B900019F0993049F40AC0828180930E0106C091
:100BA000828180930D0102C080E0089581E0089564
:100BB0008C30F0F49EE1899FF0011124EC51FE4F3E
:100BC00080818823A9F08081826080838091B60330
:100BD00081110EC00E94A6176093B4017093B501F5
:100BE0008093B6019093B70181E08093B603089596
:100BF0000895CF92DF92EF92FF926091B1017091D0
:100C0000B201072E000C880B990B0E94462F6B0136
:100C10007C0160914C0370914D0380914E03909143
:100C20004F030E94462F9B01AC01C701B6010E94F1
:100C30009C2EFF90EF90DF90CF900895CF92DF929F
:100C4000EF92FF920F931F938B019C014091AC0197
:100C50005091AD016A01E12CF12C66277727CB0179
:100C60006C197D098E099F09061717072807390790
:100C70004CF0C901B801C016D106E206F30614F41F
:100C8000C701B6011F910F91FF90EF90DF90CF90B9
:100C900008958F929F92AF92BF92CF92DF92EF9280
:100CA000FF924B015C01BA01550F880B990B0E9412
:100CB000462F6B017C0120E030E0A901C501B401A1
:100CC0000E94F62FA501940118160CF05058C70188
:100CD000B6010E94FB2F6B017C010E94F9059B016C
:100CE000AC01C701B6010E94FB2F20E030E040E8D4
:100CF00051E40E94FB2F20E030E040E251E40E94EA
:100D0000FB2F20E030E040E05DE30E94FB2F0E94DB
:100D10000E2F0E941E066B017C0120E030E0A9012D
:100D2000C501B4010E94F62F18162CF488279927C4
:100D30008C199D090DC020E030E0A901C501B40166
:100D40000E94972E87FF02C0C60102C080E090E09B
:100D5000FF90EF90DF90CF90BF90AF909F908F90DB
:100D60000895CF92DF92EF92FF92CF93DF936B01C2
:100D70007C01EA0120E030E0A9010E94F62F18165C
:100D800094F020E030E0A901C701B6010E94972E3F
:100D900087FF3AC020E030E0A901C701B6010E94F8
:100DA0002B2E6B017C01BE01DD0F880B990B0E947D
:100DB000462F9B01AC01C701B6010E94FB2F6B01BE
:100DC0007C010E94F9059B01AC01C701B6010E949C
:100DD000FB2F20E030E040E851E40E94FB2F20E0B0
:100DE00030E040E251E40E94FB2F20E030E040E0A0
:100DF0005BE30E94FB2F0E940E2F0E941E06882795
:100E00009927861B970B02C080E090E0DF91CF917D
:100E1000FF90EF90DF90CF9008951F920F920FB642
:100E20000F9211242F933F934F935F936F937F9370
:100E30008F939F93AF93BF93EF93FF930E943916C5
:100E4000FF91EF91BF91AF919F918F917F916F91A2
:100E50005F914F913F912F910F900FBE0F901F9078
:100E600018951F920F920FB60F9211242F933F9354
:100E70004F935F936F937F938F939F93AF93BF93A2
:100E8000EF93FF930E943916FF91EF91BF91AF91BD
:100E90009F918F917F916F915F914F913F912F9192
:100EA0000F900FBE0F901F901895CF92DF92EF9288
:100EB000FF920F931F93CF93DF931F92CDB7DEB7AF
:100EC000F82EE42E8B01C82ED92E8C2D8F198E155D
:100ED00088F4F80161918F01C60169830E94B12DE8
:100EE0006981681719F0C6010E94B92DFFEFCF1A6A
:100EF000DF0AEBCF0F90DF91CF911F910F91FF9001
:100F0000EF90DF90CF900895CF92DF92EF92FF9213
:100F10000F931F93CF93DF931F92CDB7DEB78B0153
:100F20006B017C01E61AF70A9C2D901B941758F46C
:100F3000C7018C0D9D1D49830E94B12DF60181933F
:100F40006F014981F1CF0F90DF91CF911F910F91E8
:100F5000FF90EF90DF90CF9008958F929F92AF9285
:100F6000BF92CF92DF92EF92FF9240E050E020E0FC
:100F7000682F70E0812C912C54018394FA013296F1
:100F8000DB0102C0B595A795EA95E2F7750164010A
:100F9000042E04C0CC0CDD1CEE1CFF1C0A94D2F7FE
:100FA000A0FF02C02C2902C0C0942C214F5F5F4FCC
:100FB0004430510519F730E0220F331FF901EC5C82
:100FC000FE4F80FF05C0808191819695879502C074
:100FD00080819181FF90EF90DF90CF90BF90AF9094
:100FE0009F908F9008951F920F920FB60F92112429
:100FF000EF92FF921F932F933F934F935F936F93C3
:101000007F938F939F93AF93BF93EF93FF93CF9370
:10101000DF93CDB7DEB76197DEBFCDBF1092E90099
:101020008091E80083FF59C1FE013A96CF0128E084
:101030002E0F2E1729F03091F10030833196F9CF21
:1010400024E620939A0322EF2093E8002A8527FFC5
:1010500005C03091E80030FFFCCF03C03EEF309375
:10106000E800322F307609F0C5C08B85811105C0AC
:101070001092F1001092F10029C1982F9D7F9130BC
:1010800009F424C1853049F48091E80080FFFCCF49
:101090008C8580688093E30019C1863009F07CC09C
:1010A0001D85E888F9881092E90010929F0310923C
:1010B0009E03123091F510929D0310929C030E94A2
:1010C0008A0599E0BE016F5F7F4FFB01292F1192C6
:1010D0002A95E9F799831A8391E09E8390E898878F
:1010E0009AEF998720919E0330919F03275F3F4F8E
:1010F0003C832B838D831092E90010929F03109202
:101100009E03F0929D03E0929C0349E050E080E052
:101110000E946F040E948A05D9C0F0929D03E0925C
:101120009C03123259F441EE54E068E572E080E825
:101130000E946F04892B09F0C9C0CCC0113069F43A
:1011400088899989089711F410939B0380919B03D8
:10115000811111C067E777E016C0133009F0BAC0FB
:101160008C85882359F0823061F0813009F0B2C05B
:1011700069E377E008C069E877E005C061E577E0FA
:1011800002C065E577E06115710509F4A3C0FB01B4
:10119000449150E080E849C0873009F49BC0883012
:1011A00021F481E08093F10091C0893009F08EC074
:1011B000237009F08FC080E090E031E026E341E049
:1011C000480F4093E9003093EB000196FC01E5568F
:1011D000F84FE491E093EC002093ED008530910509
:1011E00071F78EE78093EA001092EA008C85809375
:1011F000A2016CC0288939891092E90010929F03DE
:1012000010929E0330939D0320939C032E85211101
:1012100054C08B859A85913A59F4813209F05AC0AD
:1012200047E050E060E171E080E00E946F044EC052
:10123000913209F04FC0803239F467E070E080E10C
:1012400091E00E945A0442C0823209F043C08C856A
:10125000809317018091100190911101A0911201CA
:10126000B0911301803B9440A105B10579F58091BF
:10127000170180FD11C087E797E7909301088093DD
:1012800000089BE088E10FB6F894A8958093600071
:101290000FBE909360001AC00FB6F894A895809185
:1012A0006000886180936000109260000FBEA89576
:1012B000109201081092000809C0223059F4E09100
:1012C0002805F09129050995882321F08EEF809358
:1012D000E80003C081E28093EB0061960FB6F894BA
:1012E000DEBF0FBECDBFDF91CF91FF91EF91BF91D8
:1012F000AF919F918F917F916F915F914F913F91AE
:101300002F911F91FF90EF900F900FBE0F901F90A5
:1013100018958F929F92AF92BF92CF92DF92EF92E9
:10132000FF920F931F93CF93DF9300D01F92CDB7FF
:10133000DEB7382F8B018091A201882389F04A0102
:101340008AEFF82E832F8770E82E90E4C92E832F22
:101350008072B82E2AE3D22E832F8074A82E21C04B
:101360008FEF9FEF5FC08FB7F894E092E900909104
:10137000E80095FF1AC09091F2002C2D291B8FBF19
:10138000211115C0FA94FF2059F361E070E080E06C
:1013900090E039834A835B830E94801739814A81B8
:1013A0005B8181149104F9F634C020E0E8CF822FEC
:1013B00090E0881699060CF4282D822F90E0881A68
:1013C000990A6FB7F894E092E900BB2029F0215008
:1013D000A8F01092F100FBCFF80137FF07C02150B1
:1013E00058F074917093F1003196F9CF215020F0AC
:1013F00071917093F100FACF080F191F8091E800E6
:1014000085FF0DC08114910411F4A11008C06FBFB5
:10141000C8CF5D9A84E68093A003CA0103C0D0922E
:10142000E800F5CF0F900F900F90DF91CF911F91B3
:101430000F91FF90EF90DF90CF90BF90AF909F9073
:101440008F9008959091A201992311F057FF03C046
:101450008FEF9FEF08952FB7F89487708093E9007E
:101460008091F20090E0841795070CF4AC01842F72
:10147000FB0194E6815030F090939A033091F10093
:101480003193F8CF4115510521F08091F200882366
:1014900019F02FBFCA0108958BE68093E800F9CFB9
:1014A0001F920F920FB60F9211242F933F934F93D9
:1014B0005F936F937F938F939F93AF93BF93EF93BC
:1014C000FF93CF93DF93CDB7DEB7C054D109DEBF12
:1014D000CDBF8091E1001092E10083FF0FC0109218
:1014E000E90091E09093EB001092EC0092E390936E
:1014F000ED001092A20198E09093F00082FF46C0A8
:1015000083E08093E9008091F200882319F08AE358
:101510008093E8009FB7F89482E08093E90080917F
:10152000F2009FBF882321F080E894E00E94EA0E39
:101530009FB7F89485E08093E9008091F2009FBF07
:101540008823C1F080912A0590912B05892B91F079
:1015500040E450E0BE016F5F7F4F85E00E94220AA9
:1015600097FD08C0E0912A05F0912B05BC01CE0142
:10157000019609958091A003882341F08091A003F2
:1015800081508093A003811101C05D98C05CDF4F42
:101590000FB6F894DEBF0FBECDBFDF91CF91FF91A4
:1015A000EF91BF91AF919F918F917F916F915F91DB
:1015B0004F913F912F910F900FBE0F901F90189554
:1015C000EF92FF920F931F93CF93DF931F92CDB7AC
:1015D000DEB789838B017A0141E050E0BE016F5F85
:1015E0007F4F84E00E948909A701B80184E40E942A
:1015F00089090F90DF91CF911F910F91FF90EF908C
:1016000008951F93CF93DF93DC0111961C911197DE
:101610009C91953009F467C060F5923009F443C09D
:10162000A8F4913009F04DC1E091A301F091A4011B
:101630002EE1129FB00111246C517E4F028CF38D6C
:10164000E02DCD01DF91CF911F9109949330C9F125
:10165000943009F036C1E091A301F091A4012EE18C
:10166000129FB00111246C517E4F0488F589E02D42
:1016700035C09B3009F49DC038F4963009F441C060
:101680009A3009F44CC01DC19C3009F4CBC0913F85
:1016900009F017C140E450E0BD0182EFDF91CF9126
:1016A0001F910C94E00AE091A301F091A4013EE1A6
:1016B000139FB00111246C517E4F0088F189E02DF9
:1016C0000DC0E091A301F091A4018EE1189FB0013B
:1016D00011246C517E4F0288F389E02DCD01DF91FA
:1016E000CF911F910994E091A301F091A4013EE1F3
:1016F000139FB00111246C517E4F0688F789E02DAD
:10170000EDCFE091A301F091A4018EE1189FB0010B
:1017100011246C517E4F008CF18DE02DDFCF1F3FE7
:1017200009F41FE712969C91913099F4812F0E9441
:10173000D805E12FF0E0EA55FC4F85818111C1C049
:10174000E091A301F091A4010680F781E02D812FA3
:1017500047C0923029F5C1E08C2F0E943804CF5F3A
:10176000CC30D1F7C12FD0E0CA55DC4F8D8181112B
:1017700009C0E091A301F091A4010084F185E02D5E
:101780008FE70995812F0E94D8058D81811199C01D
:10179000E091A301F091A4010680F781E02D1FC024
:1017A000933009F08EC0812FDF91CF911F910C945F
:1017B000380481E01F3FC1F480930F0188E691E077
:1017C000E4EEF1E0DF019C011D9221503040E1F791
:1017D000E091A301F091A4010284F385E02D8FE74D
:1017E000DF91CF911F910994809327051C3008F059
:1017F00068C03EE1139FF0011124EC51FE4F1082AE
:1018000080910F01181710F410930F01E091A301BC
:10181000F091A4010284F385E02D812F09951092A7
:10182000B6034FC082E08093B7039091B8039460F1
:101830009093B8039091B80390619093B80310927D
:10184000B9031330B1F040F4113079F01230C9F51A
:101850008091B803826033C0153071F1B0F016305A
:1018600081F58091B8038E7F2AC08091B8038D7F67
:1018700026C0E091A301F091A4010480F581E02D40
:1018800080E009951092B9031CC0E091A301F0918A
:10189000A4010480F581E02D81E0099581E0809329
:1018A0000F0188E691E0E4EEF1E0DF019C011D927A
:1018B00021503040E1F705C08091B80381608093EA
:1018C000B803DF91CF911F910895DC01683810F0C3
:1018D000685825C0E62FF0E067FF12C0E058F10914
:1018E00081E090E001C0880FEA95EAF780951496B0
:1018F0009C911497892314968C93149760E00FC0E1
:10190000EA58FE4F6491662311F167FF08C01496F0
:101910008C9114978D7F14968C9314976F77FD019B
:10192000369686E0662321F09081961301C01082DE
:10193000815031968111F6CFBD016C5F7F4F48E039
:1019400050E082E00E94E00A81E090E0089580E0AB
:1019500090E00895FC011682178210861186128687
:1019600013861482BC016C5F7F4F48E050E082E038
:101970000C94E00ADC01683810F068582DC0E62F9E
:10198000F0E067FF11C0E058F10981E090E001C08C
:10199000880FEA95EAF714969C911497892B149670
:1019A0008C93149760E018C0EA58FE4F649161115F
:1019B00009C081E090E013969C938E93129780E08B
:1019C00090E0089567FF08C014968C911497826088
:1019D00014968C9314976F7716968C91169786179A
:1019E00051F117968C911797861729F118968C91BB
:1019F0001897861701F119968C9119978617D9F0C7
:101A00001A968C911A978617B1F01B968C911B979A
:101A1000861789F0FD01369680E090E02191211132
:101A200005C0FD01E80FF91F668305C001968630E9
:101A30009105A1F7BECFBD016C5F7F4F48E050E03C
:101A400082E00E94E00A81E090E00895CF92DF9268
:101A5000EF92FF920F931F93CF93DF936C01EB01F3
:101A60007B01E40EF51E00E010E0CE15DF0561F00D
:101A70006991D601ED91FC910190F081E02DC601B4
:101A80000995080F191FF1CFC801DF91CF911F9160
:101A90000F91FF90EF90DF90CF90089583E08093B7
:101AA000E9008091F200882319F08AE38093E8002E
:101AB0000895209175043091760480917704909177
:101AC000780428173907A9F0E0917704F091780499
:101AD000EB5CFB4F808120917704309178042F5F7D
:101AE0003F4F2F733327309378042093770490E08F
:101AF00008958FEF9FEF089520917504309176043B
:101B000080917704909178042817390749F0E09183
:101B10007704F0917804EB5CFB4F808190E00895AE
:101B20008FEF9FEF08958091750490917604209136
:101B3000770430917804821B930B8F739927089553
:101B400085ED8093BC008091BC0084FDFCCF109299
:101B50000F0408954091E903262F30E0240F311D32
:101B600021323105DCF420910F042430C9F4FC014A
:101B700080E090E0861758F43091E9032191DC0170
:101B8000A953BC4FA30FB11D2C930196F3CF8091A5
:101B9000E903680F6093E90380E0089581E0089508
:101BA00082E0089508958FEF9FEF08958FEF9FEFE4
:101BB00008958091C60390E09195819591090895CB
:101BC000CF93DF9300D0CDB7DEB7CB01642F49832D
:101BD0005A830E94AA0D4981842F5A81952F0F9014
:101BE0000F90DF91CF910895CF93DF931F92CDB7E0
:101BF000DEB7698361E0CE0101960E94AA0D81E003
:101C000090E00F90DF91CF9108950895CF93DF93E7
:101C1000FC01EB01718182818983878190859A879C
:101C2000898725853685438154816EE1769FC00181
:101C300011248C519E4FDC0150965C934E931F975C
:101C400056963C932E93559764E0769FD0011124CD
:101C5000AC54BE4F1D921D921D921C92139783850A
:101C600094859E878D8782858E8381E0DF91CF91D9
:101C70000895FC012281FB012783FC018381FB0184
:101C800080870895FC0182819381FB01908F878B6F
:101C90000895DC01FB0112968D919C911397908F12
:101CA000878B14968D919C911597948F838F1696A0
:101CB0008C911697858F17968D919C911897948784
:101CC00083870895DC01FB0112968C911297828321
:101CD0008281811110C015968D919C911697908FDD
:101CE000878B13968D919C911497948F838F179661
:101CF0008C918583089582810895DC01FB01129601
:101D00008C911297838313968C91139784831496E6
:101D10008D919C911597948B838B16968D919C91A8
:101D20001797928B818B08959EE1899FF001112472
:101D3000EC51FE4F708B6787568B458B94E0899FE3
:101D4000F0011124EC54FE4F108211821282138292
:101D50000895089508951092270524E0829FC001F8
:101D60001124FC01EC54FE4F108211821282138266
:101D7000089525E0FC0120838EE491E00895089504
:101D80008093270508950E9429310F931F93CF93C5
:101D9000DF931F92CDB7DEB78C0169838091170165
:101DA000882359F041E050E0BE016F5F7F4F83E030
:101DB0000E948909181619063CF081E090E0F801AC
:101DC0009383828380E090E00F90DF91CF911F9109
:101DD0000F9108950F931F93CF93DF931F92CDB769
:101DE000DEB700917504109176040F5F1F4F0F73DB
:101DF0001127809177049091780408171907F9F05A
:101E000041E050E0BE016F5F7F4F82E00E94220AF6
:101E1000019719F4898190E002C08FEF9FEF8F3F07
:101E20002FEF920761F0E0917504F0917604EB5C7E
:101E3000FB4F80831093760400937504D2CF0F90EC
:101E4000DF91CF911F910F9108951F920F920FB6BE
:101E50000F9211242F933F934F935F936F937F9330
:101E60008F939F93AF93BF93EF93FF938091B900AC
:101E7000887F803609F49CC068F5883209F45BC01D
:101E800090F4803109F454C038F4882309F4F6C082
:101E9000883009F44DC0F6C0883109F44CC0803256
:101EA00009F45DC0EFC0803409F468C048F48033A1
:101EB00009F455C0883309F0E5C080930E04D8C0FA
:101EC000803509F44FC0883509F45DC0883409F0C5
:101ED000D9C0D6C0883909F4C7C0A8F4883709F436
:101EE00067C038F4883609F463C0803709F460C0ED
:101EF000C9C0883809F4B8C0803909F45FC0803897
:101F000009F0C0C05BC0803B09F486C038F4803A59
:101F100009F466C0883A09F47FC0B4C0803C09F473
:101F2000A7C0883C09F4A4C0883B09F48AC0AAC0B1
:101F30008091340410C0909133048091320498173A
:101F400070F5E091330481E08E0F80933304F0E06C
:101F5000EE5EFB4F80818093BB0085EC86C0809352
:101F60000E048EC0E091330481E08E0F8093330421
:101F70008091BB00F0E0EE5EFB4F808390913304D4
:101F8000809132046EC0E091330481E08E0F809323
:101F900033048091BB00F0E0EE5EFB4F80838091C4
:101FA000110481116DC081E08093100484EA61C046
:101FB00083E080930F0410920D04CFCF80910D0425
:101FC000803208F051C0E0910D0481E08E0F8093C3
:101FD0000D048091BB00F0E0E351FC4F8083BDCF46
:101FE00085EC8093BC0010920F0480910D04803228
:101FF00030F4E0910D04F0E0E351FC4F1082609169
:102000000D0470E0E091EB03F091EC038DEE93E0B2
:10201000099510920D0436C084E080930F0410924D
:10202000EA031092E903E091E703F091E8030995D0
:102030008091E903811105C081E08093E90310924A
:10204000C703E091EA0381E08E0F8093EA03F0E09A
:10205000E953FC4F80818093BB009091EA0380910B
:10206000E903981708F479CF85E88093BC000AC08B
:1020700085EC8093BC0010920F0404C010920E04F3
:102080000E94A00DFF91EF91BF91AF919F918F9111
:102090007F916F915F914F913F912F910F900FBE64
:1020A0000F901F9018952091A5013091A601281737
:1020B000390708F4C90190938B0080938A00089532
:1020C0002091A5013091A6012817390708F4C9010C
:1020D000909389008093880008954F925F926F9249
:1020E0007F928F929F92AF92BF92CF92DF92EF92A8
:1020F000FF920F931F93CF93DF93CDB7DEB7609717
:102100000FB6F894DEBF0FBECDBF009709F46DC3C4
:102110008C016091B30170E080E090E00E94462F56
:102120002AE037ED43E25CE30E94FB2F69837A8368
:102130008B839C83F80180809180A280B380B7FE5E
:1021400008C0B094A09490948094811C911CA11C10
:10215000B11CC501B4010E94462F6B017C01609146
:10216000AC017091AD0180E090E00E94442F2B0102
:102170003C0126E636E646E65FE30E94FB2F298116
:102180003A814B815C810E94FB2F6D837E838F831C
:1021900098879B01AC01C701B6010E94F62F87FD0D
:1021A000CAC0A301920169817A818B819C810E94BE
:1021B000FB2F69877A878B879C8720E030E040E897
:1021C0005FE30E942A2E9B01AC01C701B6010E9469
:1021D000972E87FFB0C06D817E818F8198850E9488
:1021E0000E2F6B017C01A5019401261B370B480BB8
:1021F000590BAEE3B0E00E94E62D4B015C0169850E
:102200007A858B859C850E940E2F9B01AC012C1931
:102210003D094E095F09C501B4010E94C72D69013E
:102220007A01FFEFCF1ADF0AEF0AFF0A560161E0D9
:1022300083E00E941F17C114D10411F480E005C08F
:102240008FEFC816D10421F481E00E94DF158AC007
:10225000EEEFF7E0E4918E2F90E0FC013197EE3045
:10226000F10508F062C0E057FF4F0C941C3184B5B3
:10227000806884BDC7BC76C084B5806284BDC8BC9C
:1022800071C080918000806880938000D092890026
:10229000C092880067C08091800080628093800037
:1022A000D0928B00C0928A005DC0809190008068BF
:1022B00080939000D0929900C092980053C0809172
:1022C0009000806280939000D0929B00C0929A0010
:1022D00049C080919000886080939000D0929D00CA
:1022E000C0929C003FC08091C00080688093C00075
:1022F0008091C0008F7B8093C000C092CF0032C01D
:102300008091C00080628093C000C092D0002AC03B
:102310008091C20088608093C2008091C2008B7F50
:102320008093C200C092D2001DC0E0E8AE16B10496
:102330000CF08ACF83CFA301920169817A818B81CE
:102340009C810E94FB2F20E030E040E85FE30E9488
:102350002A2E9B01AC01C701B6010E94F62F87FD12
:102360006DCF72CF6091AE0170E060587109072E99
:10237000000C880B990B0E94462F20E030E04FE7BD
:1023800053E40E949C2E6B017C016093C203709306
:10239000C3038093C4039093C50320E030E0A901F8
:1023A0000E94F62F87FD1DC0A701960160E070E036
:1023B00080E89FE30E942A2E6093BE037093BF03C0
:1023C0008093C0039093C10380E090E0A0E8BFE356
:1023D0008093BA039093BB03A093BC03B093BD0357
:1023E00023C020E030E0A901C701B6010E94972E6A
:1023F00087FF1AC080E090E0A0E8BFE38093BE03AF
:102400009093BF03A093C003B093C1039C01AD019F
:10241000C701B6010E942B2E6093BA037093BB03D1
:102420008093BC039093BD039091AB01F801C080F1
:10243000D180E280F380892F807491FDEAC0811100
:1024400095C01C141D041E041F04E4F54090AC014B
:102450005090AD012091AF013091B0014901A12C04
:10246000B12C612C712CC301B2010E94442F209128
:10247000BA033091BB034091BC035091BD030E944D
:10248000FB2F0E940E2F681979098A099B09A70161
:1024900096010E94F830A30192010E94C72DDA0133
:1024A000C901880D991DAA1DBB1DF8018083918368
:1024B000A283B38380E090E00E946010F8018081E5
:1024C000918146C0C114D104E104F10409F444C06F
:1024D0004090AC015090AD018091AF019091B0015E
:1024E0004C01A12CB12CF094E094D094C094C11C68
:1024F000D11CE11CF11C612C712CC301B2010E94A2
:10250000442F2091BE033091BF034091C0035091EE
:10251000C1030E94FB2F0E940E2F681979098A09B6
:102520009B09A70196010E94F830A30192010E9425
:10253000C72DDA01C901880D991DAA1DBB1DF8011F
:1025400080839183A283B3830E94601080E090E037
:102550000E9453102A9A49C180E090E00E946010C6
:1025600080E090E00E9453102A983FC1E091AC01B6
:10257000F091AD011C141D041E041F04DCF44F0176
:10258000969487948091AF019091B001880E991E26
:10259000A12CB12C2F01612C712CC301B20168193F
:1025A00079098A099B09A70196010E94F830A301C5
:1025B000920119C0C114D104E104F10411F14F01D9
:1025C000969487948091AF019091B001881A990AEE
:1025D000A12CB12CA5019401C701B6010E94F830CD
:1025E0009F0140E050E00E94C72DDA01C901880D2B
:1025F000991DAA1DBB1DF80180839183A283B3831B
:1026000003C0CF01969587950E94601080E090E00E
:10261000D4C0811133C0F7FC02C02A9A01C02A98A5
:102620008091AF019091B0016C01E12CF12C809070
:10263000AC019090AD01A12CB12CF8012081318129
:102640004281538157FF07C05095409530952195A1
:102650003F4F4F4F5F4FC501B4016C197D098E0983
:102660009F090E94F830A50194010E94C72DDA014C
:10267000C9018C0D9D1DAE1DBF1D81C01C141D0404
:102680001E041F046CF520E030E040E85FE3609139
:10269000A7017091A8018091A9019091AA010E94BF
:1026A0002B2E20910401309105014091060150919B
:1026B00007010E94FB2F0E940E2F4B015C016091CD
:1026C00000017091010180910201909103010E942B
:1026D0000E2F681979098A099B09A70196013FC045
:1026E000C114D104E104F10409F44FC02091A70101
:1026F0003091A8014091A9015091AA0160E070E0D9
:1027000080E89FE30E942A2E209104013091050168
:1027100040910601509107010E94FB2F0E940E2F4D
:102720004B015C0122273327A9012C193D094E09D1
:102730005F09609108017091090180910A019091EF
:102740000B012D873E874F87588B0E940E2F6819EB
:1027500079098A099B092D853E854F8558890E94F4
:10276000F8302091AC013091AD0140E050E00E9482
:10277000C72DDA01C901880D991DAA1DBB1DF801DD
:1027800080839183A283B3830BC060910401709115
:10279000050180910601909107010E94152FCB0140
:1027A0000E94601060910401709105018091060102
:1027B000909107010E94152FCB0160960FB6F894F7
:1027C000DEBF0FBECDBFDF91CF911F910F91FF9064
:1027D000EF90DF90CF90BF90AF909F908F907F90C1
:1027E0006F905F904F900C94531060960FB6F894D2
:1027F000DEBF0FBECDBFDF91CF911F910F91FF9034
:10280000EF90DF90CF90BF90AF909F908F907F9090
:102810006F905F904F9008956091A5017091A6010F
:1028200080E090E00E94442F9B01AC0160E07EEFCD
:102830008FEF96E40E949C2E08952F923F924F9224
:102840005F926F927F928F929F92AF92BF92CF9240
:10285000DF92EF92FF920F931F93CF93DF93CDB749
:10286000DEB729970FB6F894DEBF0FBECDBF9987AC
:1028700088874B012B831D830C831701DF82CE8257
:10288000042F10E08C819D816C01E12CF12CE885F6
:10289000F985F7FD2BC0C8019695982F8827979545
:1028A0008795BF01681B790B072E000C880B990BCD
:1028B0000E94462F2B013C01C701B6010E94442F04
:1028C0009B01AC01C301B2010E949C2E2B013C0173
:1028D000C8019695982F8827979587959A8389831D
:1028E000EB8190E8E99FB00111242AC0B8017695E8
:1028F000762F662777956795E885F9856E0F7F1F98
:10290000072E000C880B990B0E94462F2B013C01CF
:10291000C701B6010E94442F9B01AC01C301B20163
:102920000E949C2E2B013C0160E86003C001619F66
:10293000900D11249A8389832B816203B0011124A5
:1029400088859985681B790B072E000C880B990BDD
:102950000E94462F6B017C01B10180E090E00E9453
:10296000442F9B01AC01C701B6010E949C2E6B0154
:102970007C018A149B0408F43FC08E819F818A0DDC
:102980009B1D88169906C0F50C811D810A0D1B1D23
:102990008016910690F4B4016A197B0980E090E0FA
:1029A0000E94442F9B01AC01C301B2010E94FB2F86
:1029B0000E940E2F89819A811CC082199309881563
:1029C0009905E8F48A189B08EE81FF818E1A9F0A08
:1029D000B401620D731D80E090E00E94442F9B01C2
:1029E000AC01C701B6010E94FB2F0E940E2F888503
:1029F0009985860F971F05C080E090E002C088850A
:102A0000998529960FB6F894DEBF0FBECDBFDF9132
:102A1000CF911F910F91FF90EF90DF90CF90BF90DB
:102A2000AF909F908F907F906F905F904F903F906E
:102A30002F9008958F929F92AF92BF92CF92DF9284
:102A4000EF92FF92CF93DF934B015C01EA010E946A
:102A5000F9056B017C01DE01A50194010E94F12DB5
:102A60000E94462FA70196010E94FB2F20E030E034
:102A700040E051E40E94FB2F20E030E040E251E4CE
:102A80000E94FB2F20E030E040E85BE30E94FB2F38
:102A90000E940E2F0E941E0690958095709561955C
:102AA0007F4F8F4F9F4FDF91CF91FF90EF90DF903F
:102AB000CF90BF90AF909F908F9008954F925F926C
:102AC0006F927F928F929F92AF92BF92CF92DF923E
:102AD000EF92FF92CF93DF9300D000D0CDB7DEB757
:102AE0004B015C0157FF02C04D5F5F4F6A01D594F7
:102AF000C794D594C7940E94F90569837A838B8320
:102B00009C839B01AC01C501B4010E94FB2F20E016
:102B100030E040E251E40E94FB2F2B013C0120E019
:102B200030E040E85FE30E94F62F0D2C000CEE0829
:102B3000FF0818161CF4C701B60128C020E030E0D9
:102B400040E85FEBC301B2010E94972E87FF06C0E9
:102B5000C701B6010E941E06CB011EC0C701B60107
:102B60000E94462F9B01AC01C501B4010E94FB2FBE
:102B700029813A814B815C810E94FB2F20E030E06B
:102B800040E251E40E94FB2F0E940E2F0E941E067D
:102B900088279927861B970B0F900F900F900F9007
:102BA000DF91CF91FF90EF90DF90CF90BF90AF90EB
:102BB0009F908F907F906F905F904F900895EEEF71
:102BC000F7E04491EFEDF7E09491E0ECF7E0249129
:102BD000222309F44DC04423C1F150E0FA0131979A
:102BE000EE30F10590F5E256FF4F0C941C31309118
:102BF00080003F7703C0309180003F7D309380009C
:102C000024C034B53F7702C034B53F7D34BD1DC00C
:102C1000309190003F7707C0309190003F7D03C016
:102C200030919000377F309390000FC03091C000FA
:102C30003F7703C03091C0003F7D3093C00005C096
:102C40003091C200377F3093C200E22FF0E0EE0FE8
:102C5000FF1FE155F84FA591B4912FB7F894EC916F
:102C6000811103C090959E2301C09E2B9C932FBF82
:102C7000089590917F0489B18C70892B90E09C011C
:102C8000359527953595279520937F0440917B04B2
:102C900050917C0460917D0470917E04FC01ED5A9A
:102CA000FE4F8081082E000C990BAA0BBB0B840FE2
:102CB000951FA61FB71F80937B0490937C04A0935D
:102CC0007D04B0937E0480917A040895E09180049D
:102CD000F09181040190F081E02D682F80E894E06C
:102CE0000994CF93DF938DE00E946616EC018AE091
:102CF0000E9466168C0F9D1FDF91CF91089500975B
:102D000069F0FC0101900020E9F73197AF01481B01
:102D1000590BBC0180E894E00C94260D80E090E013
:102D200008958F929F92AF92BF92EF92FF920F936E
:102D30001F93CF93DF93CDB7DEB7A1970FB6F8946B
:102D4000DEBF0FBECDBF162F042F19A2423008F4EC
:102D50000AE07E0121E2E20EF11C802E912CA12CD2
:102D6000B12C612FA50194010E94F92D029F101929
:102D7000112481E0E81AF1081A3014F4105D01C042
:102D8000195CF7011083122F732FCA01232B242BF8
:102D9000252B39F7C7010E947F16A1960FB6F8942C
:102DA000DEBF0FBECDBFDF91CF911F910F91FF907E
:102DB000EF90BF90AF909F908F900895CF92DF9249
:102DC000EF92FF92CF93DF9397FF19C06B017C01C5
:102DD0008DE20E946616EC0166277727CB016C19FD
:102DE0007D098E099F094AE00E9491168C0F9D1F54
:102DF000DF91CF91FF90EF90DF90CF9008954AE060
:102E0000DF91CF91FF90EF90DF90CF900C949116CF
:102E1000CF93DF93BC01990F880B990B0E94DE16AC
:102E2000EC010E9471168C0F9D1FDF91CF910895C8
:102E3000682F70E080E090E04AE00C949116CF9308
:102E4000DF9390E0FC01E452F84F2491FC01E3543D
:102E5000F84F8491882361F190E0880F991FFC015D
:102E6000EF55F84FC591D491FC01E155F84FA5916C
:102E7000B491611109C09FB7F8948881209582238D
:102E80008883EC912E230BC0623061F49FB7F894D5
:102E90003881822F809583238883EC912E2B2C936D
:102EA0009FBF06C08FB7F894E8812E2B28838FBF71
:102EB000DF91CF9108953FB7F894809131059091BB
:102EC0003205A0913305B091340526B5A89B05C005
:102ED0002F3F19F00196A11DB11D3FBFBA2FA92F99
:102EE000982F8827820F911DA11DB11DBC01CD0116
:102EF00042E0660F771F881F991F4A95D1F7089502
:102F0000CF92DF92EF92FF92CF93DF936B017C0120
:102F10000E945B17EB01C114D104E104F10479F0C4
:102F20000E945B176C1B7D0B683E7340A0F381E031
:102F3000C81AD108E108F108C851DC4FECCFDF9185
:102F4000CF91FF90EF90DF90CF9008952FB7F89436
:102F500060912D0570912E0580912F05909130057F
:102F60002FBF08950F931F930E94A61760938804A4
:102F70007093890480938A0490938B04E091800479
:102F8000F09181040084F185E02D80E894E00995BA
:102F900097FF1FC00E94A617009188041091890412
:102FA00020918A0430918B04DC01CB01801B910BB2
:102FB000A20BB30B00918404109185042091860428
:102FC0003091870480179107A207B307B8F28FEFFB
:102FD0009FEF1F910F910895FF920F931F93CF932F
:102FE000DF9300D000D0CDB7DEB70E94B217FC014E
:102FF00097FD11C08D32910591F0C0970A9778F036
:10300000E0918004F09181040680F781E02D80E852
:1030100094E00995EACF60E070E0CB014CC020E07D
:1030200030E0A901F12CE130F105F1F0ED32F105CC
:10303000C9F0CF01C0970A97B8F4AAE0B0E00E94A7
:10304000E62D8F01FF0F220B330BDC01CB01800F2C
:10305000911FA21FB31F9C01AD01205331094109EB
:10306000510902C0FF24F394E0918004F09181049F
:103070000680F781E02D80E894E029833A834B8332
:103080005C8309950E94B217FC01C09729813A819F
:103090004B815C810A9738F2E130F10521F2FF2083
:1030A00041F066277727CB01621B730B840B950BCE
:1030B00002C0CA01B9010F900F900F900F90DF91DD
:1030C000CF911F910F91FF9008951F920F920FB60D
:1030D0000F9211242F933F938F939F93AF93BF939E
:1030E00080912D0590912E05A0912F05B09130056E
:1030F00030912C0523E0230F2D3720F40196A11DDC
:10310000B11D05C026E8230F0296A11DB11D209315
:103110002C0580932D0590932E05A0932F05B09339
:1031200030058091310590913205A0913305B09121
:1031300034050196A11DB11D809331059093320590
:10314000A0933305B0933405BF91AF919F918F91B8
:103150003F912F910F900FBE0F901F901895CF9316
:10316000DF93CDB7DEB7C554D1090FB6F894DEBFF3
:103170000FBECDBF789484B5826084BD84B5816074
:1031800084BD85B5826085BD85B5816085BD809132
:103190006E00816080936E001092810080918100AA
:1031A00082608093810080918100816080938100A2
:1031B0008091800081608093800080919100826086
:1031C0008093910080919100816080939100809123
:1031D00090008160809390008091C1008460809312
:1031E000C1008091C10082608093C1008091C100C4
:1031F00081608093C1008091C30081608093C3008F
:103200008091C00082608093C0008091C200816084
:103210008093C20080917A00846080937A008091CC
:103220007A00826080937A0080917A008160809336
:103230007A0080917A00806880937A001092A201CF
:1032400081E08093D70080EA8093D80082E189BD35
:1032500009B400FEFDCF61E070E080E090E00E94E4
:10326000801780E98093D8001CE01093E200109250
:10327000E000109278031092770310927D03109271
:103280007E0310927F0310928003109272031092BB
:103290007103109286031092870310928803109294
:1032A000890310928A0310928B0310928C03109260
:1032B0008D0342E0BE01615F7F4F80E090E00E949D
:1032C00084078F8598898A3F910509F4C1C08AEFE8
:1032D00090E09E878D8742E0BE01635F7F4F80E074
:1032E00090E00E94550719821A821B821C8244E0DA
:1032F000BE016F5F7F4F82E090E00E94550788E338
:1033000094E09E878D8742E0BE01635F7F4F86E039
:1033100090E00E94550784E6898B41E0BE016F5E14
:103320007F4F88E090E00E94550741E0BE016F5E4C
:103330007F4F8BE090E00E94550741E0BE016F5E39
:103340007F4F8CE090E00E94550741E0BE016F5E28
:103350007F4F80E190E00E94550741E0BE016F5E23
:103360007F4F8DE090E00E94550782E3898B41E01A
:10337000BE016F5E7F4F89E090E00E94550741E0FB
:10338000BE016F5E7F4F8AE090E00E94550741E0EA
:10339000BE016F5E7F4F8EE090E00E94550786E48D
:1033A000898B41E0BE016F5E7F4F8FE090E00E940D
:1033B00055071E861D8642E0BE01635F7F4F81E197
:1033C00090E00E9455078FEF97E09E878D8742E03F
:1033D000BE01635F7F4F83E190E00E9455078FEF4E
:1033E0009FE09E878D8742E0BE01635F7F4F85E14E
:1033F00090E00E94550780E8898B41E0BE016F5E36
:103400007F4F87E190E00E94550781E0898B41E082
:10341000BE016F5E7F4F88E190E00E94550780E615
:1034200099E0A0E0B0E089839A83AB83BC8344E059
:10343000BE016F5F7F4F89E190E00E945507198BB5
:1034400041E0BE016F5E7F4F8DE190E00E94550725
:1034500042E061EB71E086E090E00E94840744E086
:1034600065E573E089E190E00E94840741E063EB49
:1034700071E088E090E00E94840741E06CE573E031
:1034800089E090E00E94840741E06AE573E08AE009
:1034900090E00E94840741E06FE573E08BE090E0EC
:1034A0000E94840741E06EE573E08CE090E00E94AA
:1034B000840741E06DE573E08DE090E00E948407B1
:1034C00041E06BE573E08EE090E00E94840741E00C
:1034D00060E673E08FE090E00E94840741E069E5D8
:1034E00073E080E190E00E94840741E06EEA71E0C1
:1034F00087E190E00E94840741E065E873E088E19D
:1035000090E00E94840742E06FEA71E081E190E080
:103510000E94840742E06CEA71E083E190E00E943F
:10352000840742E063E573E085E190E00E94840750
:1035300041E06BEA71E08DE190E00E9484078FEF3B
:103540009FE090937A038093790310927C0310920A
:103550007B039093820380938103109284031092E3
:1035600083039093740380937303109276031092F5
:10357000750390936E0380936D0310927003109205
:103580006F0360915503709156038091570390919A
:1035900058030E94462F20E030E044EB53E40E94A1
:1035A0009C2E6B017C018091B1019091B201BC0114
:1035B000990F880B990B0E94462F9B01AC01C70104
:1035C000B6010E94FB2F0E940E2F60934C03709354
:1035D0004D0380934E0390934F036B017C01F59450
:1035E000E794D794C794C0928E03D0928F03E09251
:1035F0009003F092910362E080E00E941F1762E066
:1036000081E00E941F1710927A04C0927B04D0922E
:103610007C04E0927D04F0927E0410927F044A9B29
:1036200005C080917F04816080937F044B9B05C01F
:1036300080917F04826080937F04809169008F7CF9
:10364000806180936900EA9A809169008F73806439
:1036500080936900EB9A60E082E10E941F1760E0AE
:1036600083E10E941F1760E084E10E941F1760E061
:1036700085E10E941F1762E084E00E941F1762E04C
:103680008EE00E941F1762E08FE00E941F1762E029
:1036900082E00E941F1762E086E00E941F1762E02E
:1036A00087E00E941F1762E088E00E941F1762E017
:1036B00085E00E941F1788E191E09093A401809318
:1036C000A30186EB94E0909329058093280581E07F
:1036D0009BE090932B0580932A05229A1091AB01D1
:1036E000812F0E94AD075C019093A6018093A501F4
:1036F0009093AD018093AC016091AF017091B001E6
:1037000080E090E00E94442F6B017C01B50180E0D5
:1037100090E00E94442F9B01AC01C701B6010E94BA
:103720009C2E6093A7017093A8018093A9019093A8
:10373000AA01012F017010FD05C020E030E04AEF22
:1037400054E404C020E030E04AE754E4609108010A
:103750007091090180910A0190910B010E94FB2F49
:10376000609308017093090180930A0190930B0103
:10377000011105C020E030E04AEF54E404C020E02D
:1037800030E04AE754E460910401709105018091B2
:103790000601909107010E94FB2F60930401709332
:1037A00005018093060190930701011105C020E0F7
:1037B00030E04AEF54E404C020E030E04AE754E44B
:1037C00060910001709101018091020190910301CB
:1037D0000E94FB2F6093000170930101809302010E
:1037E00090930301109280001092810010926F005C
:1037F00016BA8091A5019091A601909387008093BD
:103800008600109289001092880010928B0010920E
:103810008A008091AB018274823421F4809181000E
:10382000826003C0809181008160809381008091DB
:10383000AB0180FF09C0809180008260809380008E
:1038400080918100806108C08091800082608093B7
:1038500080008091810088618093810080E090E009
:103860000E94601080918000806880938000259A7B
:1038700080E090E00E9453108091800080628093ED
:103880008000269A61E083E00E941F1713E081E028
:103890000E94DF1564E170E080E090E00E948017F4
:1038A00080E00E94DF1564E170E080E090E00E941B
:1038B0008017115061F710926703109268031092FD
:1038C000690310926A0387E693E00E946D1080916D
:1038D0008E0390918F03A0919003B0919103F8947F
:1038E00080937B0490937C04A0937D04B0937E042A
:1038F000789482E090E090936603809365038FEF65
:1039000097E090935203809351038091AE0180938E
:1039100050030E945B17609392037093930380930C
:103920009403909395030E945B17609392047093A5
:1039300093048093940490939504009196031091BE
:10394000970320919803309199034B015C01801AF1
:10395000910AA20AB30A80928E0490928F04A092D8
:103960009004B092910400919203109193032091DE
:103970009403309195035B016C01A01AB10AC20A4D
:10398000D30A40EDA41647E0B406C104D10410F4F4
:103990000C94112D6093920370939303809394037E
:1039A00090939503F89480917B0490917C04A0916E
:1039B0007D04B0917E04789440918E0350918F03E2
:1039C0006091900370919103841B950BA60BB70B2C
:1039D00080938A0390938B03A0938C03B0938D0301
:1039E0008093860390938703A0938803B093890301
:1039F0001091850315FB882780F916FD826017FF5B
:103A000002C084601DC08130D9F46A017B01C0947A
:103A1000D094E094F0949A01AB012C193D094E0921
:103A20005F0960917D0370917E0380917F03909187
:103A300080030E94F8302FEF3FEF40E050E032C0AB
:103A4000823059F46A017B01C094D094E094F094E0
:103A5000A0917703B091780319C0833059F46A01BB
:103A60007B01C094D094E094F094A0917103B09144
:103A700072030CC0843021F56A017B01C094D0949C
:103A8000E094F094A0916B03B0916C039A01AB01A8
:103A90002C193D094E095F090E94F12D2FEF3FE0DF
:103AA00040E050E00E94C72DC20ED31EE41EF51E5A
:103AB000C0928603D0928703E0928803F092890334
:103AC0008090860390908703A0908803B09089032C
:103AD00080919B0490919C04A0919D04B0919E04C0
:103AE00080929B0490929C04A0929D04B0929E04AC
:103AF0002091A304222309F449C00091CC0454E08E
:103B0000059F90011124B90165567B4F7B01A501EA
:103B10009401281B390B4A0B5B0BCA01B9010E94A7
:103B2000462FD70119966D937D938D939C931C9787
:103B3000F02EBAE0EB2E60E070E0CB01B4E0FB9E2B
:103B4000F0011124E556FB4F2185328543855485CC
:103B50000E942B2EFF2011F0FA9402C0A9E0FA2E49
:103B6000EA94E110EBCF20E030E040E251E40E9423
:103B70009C2E0F5F0A3018F40093CC0402C0109200
:103B8000CC046AA77EA78FA798AB0FC081E0809373
:103B9000A30410929F041092A0041092A10410920A
:103BA000A2041AA61EA61FA618AA2091CD04309121
:103BB000CE044091CF045091D0048AA59EA5AFA514
:103BC000B8A98093CD049093CE04A093CF04B09372
:103BD000D0048091D504882309F444C000912605BF
:103BE000E4E00E9FC0011124BC016C557B4F7B01AA
:103BF0006AA57EA5CD010E942A2ED701D2966D938B
:103C00007D938D939C93D597F02EF4E1EF2E60E099
:103C100070E0CB01B4E0FB9EF0011124EC55FB4FAA
:103C200022A933A944A955A90E942B2EFF2011F0E7
:103C3000FA9402C0E3E1FE2EEA94E110EBCF20E01B
:103C400030E040EA51E40E949C2E0F5F043118F4EA
:103C50000093260502C0109226056DAB7EAB8FAB9C
:103C600098AF0FC081E08093D5041092D1041092D8
:103C7000D2041092D3041092D4041DAA1EAA1FAA23
:103C800018AE80912705882359F110FF46C70E947E
:103C90000C149B01AC0160E070E080E094E40E94B1
:103CA0009C2E6B017C016091600370E080E090E0ED
:103CB0000E94462F9B01AC01C701B6010E94FB2F59
:103CC00020E030E048EC52E40E949C2E0E940E2F2F
:103CD000AB01C501B4010E941A152B013C0120C79C
:103CE000E8EBF1E0FB8FEA8F1B8A1A8A412C512CFA
:103CF00032010A891B890F5F1F4F1B8B0A8B7EE1E4
:103D0000A72E4801A89C8001A99C100D11240C51DC
:103D10001E4FD8018C918370833009F0F1C60E9448
:103D20000C146B017C01F80121853285A789B08DC7
:103D30000E9422312FEF3FE740E050E00E94C72D64
:103D4000CA01B9010E94462FA70196010E949C2E2C
:103D50000E940E2F9B01AC01D8011B968D919C9166
:103D60001C97059730F4E4E0F0E01C96FC93EE938A
:103D70001B976EE1A62E8A889B88A89CF001A99CBF
:103D8000F00D1124EC51FE4FE1818E2F90E0FC01EB
:103D90003197ED30F10508F09DC6EA5AFF4F0C94BB
:103DA0001C310E940C146E8B7F8B888F998F4EE193
:103DB000A42E8A889B88A89CC001A99C900D1124E0
:103DC0008C010C511E4F1801D80119968D909C90B2
:103DD0001A975596AD90BC9056971F96CD90DC9053
:103DE00050975196ED90FC90529753960D911C91DF
:103DF000549714962C91149713964C9113975796A9
:103E00008D919C915897EA8DFB8D608171810E9404
:103E10001D149401DC010E9422312FEF3FE740E0A6
:103E200050E00E94C72DCA01B9010E94462F2E8979
:103E30003F89488D598D0E949C2E0E940E2F0E9412
:103E40001E069B01AC01A0915F03B0E00E94E62D2D
:103E500024E630E040E050E00E94C72D421A530AA9
:103E6000640A750A7EC10E940C146E8B7F8B888F4A
:103E7000998FFEE1AF2E8A889B88A89CF001A99CAF
:103E8000F00D1124EC51FE4F818492849F8E8E8E12
:103E9000A588B688BBA2AAA2C784D088DFA2CEA27A
:103EA000E188F288FAAAE9AA038914891DAF0CAF48
:103EB00084809380AA8DBB8D2D903C9007851089BE
:103EC0006085A7800A2C000CBB08062E000C770B1F
:103ED0006A197B09CB01770FAA0BBB0B6627782FDA
:103EE000892F9A2F0E94462F6B017C01B80180E038
:103EF00090E00E94442F20E030E04AE754E40E9422
:103F00009C2E9B01AC01C701B6010E949C2E6B0147
:103F10007C01C101B8010E940831BC0180E090E041
:103F20000E94442F20E030E04AE754E40E949C2E97
:103F30009B01AC01C701B6010E94FB2F0E940E2F0E
:103F4000BA2CAA24C501860F971FAAA0BBA0CEA099
:103F5000DFA0E9A8FAA80CAD1DAD282D492DB101AF
:103F60000E941D142E8D3F8DDC010E9422312FEF07
:103F70003FE740E050E00E94C72DCA01B9010E940E
:103F8000462F2E893F89488D598D0E949C2E0E9474
:103F90000E2F0E941E06461A570A680A790A9AC509
:103FA0000E940C146E8F7F8F88A399A3EEE1AE2E32
:103FB0008A889B88A89CC001A99C900D11248C0123
:103FC0000C511E4F1801D80119960D90BC91A02DCF
:103FD000BBA3AAA3F801038CF48DE02DFFA3EEA3ED
:103FE000D8015D96BC91B9ABF80183849484A5880F
:103FF000B688C784D088E188F2880389148924812F
:104000004381AA8DBB8D0D90BC91A02DBF8BAE8B33
:104010008789908DBD010E941D148C01B40180E040
:1040200090E00E94442F20E030E04AE754E40E94F0
:104030009C2E9B01AC0160E070E080E89FE30E9451
:104040009C2E6B017C018E899F89B4010E940831EE
:10405000BC0180E090E00E94442F20E030E04AE77D
:1040600054E40E949C2E9B01AC01C701B6010E9442
:10407000FB2F6B017C0189A8682D70E080E090E047
:104080000E94442F20E030E040E85BE30E94FB2FD9
:104090009B01AC01C701B6010E942B2E2BED3FE026
:1040A00049EC50E40E94FB2F0E9468309B01AC0158
:1040B0008EA09FA06401990CEE08FF08B801110FB3
:1040C000880B990B23962FAF239726963FAF269701
:1040D00024964FAF249725965FAF25970E94462FD1
:1040E00023962FAD239726963FAD269724964FAD66
:1040F000249725965FAD25970E94FB2F0E940E2FD7
:10410000CB01770FAA0BBB0BA7019601280F391F14
:104110004A1F5B1FAAA1BBA10E94E62D2FEF3FE71C
:1041200040E050E00E94C72DCA01B9010E94462F0D
:104130002E8D3F8D48A159A10E949C2E0E940E2FCA
:104140009B01AC01A0915E03B0E00E94E62D24E645
:1041500030E040E050E00E94C72D420E531E641E26
:10416000751ED10116968C91169782FFB3C41D96C9
:104170006D917C911E9780E090E00E94442F2BED82
:104180003FE049EC50E40E94FB2F20E030E040E0AB
:1041900058E30E94FB2F0E9468309B01AC01C301D1
:1041A000B20123962FAF239726963FAF26972496EA
:1041B0004FAF249725965FAF25970E94462F2396F1
:1041C0002FAD239726963FAD269724964FAD249783
:1041D00025965FAD25970E94FB2F0E940E2F2B0185
:1041E0003C0178C40E940C146E8F7F8F88A399A322
:1041F0007EE1A72E8A889B88A89CF001A99CF00DDF
:104200001124EC51FE4F818492849BA28AA2238DBB
:10421000348D4901330FAA08BB088EA29FA2A8A61D
:10422000B9A6958C99AA23843484A588B688C784B6
:10423000D088E188F2880389148924814381AA8D7A
:10424000BB8D0D90BC91A02DBF8BAE8B8789908DBF
:10425000BD010E941D14BC01990F880B990B0E948F
:10426000462F4B015C01B10180E090E00E94442F99
:1042700020E030E04AE754E40E949C2E9B01AC0110
:1042800060E070E080E89FE30E949C2E6B017C015F
:104290008E899F89B1010E940831BC0180E090E0C5
:1042A0000E94442F20E030E04AE754E40E949C2E14
:1042B0009B01AC01C701B6010E94FB2F6B017C0181
:1042C000B9A96B2F70E080E090E00E94442F20E0BD
:1042D00030E040E85BE30E94FB2F9B01AC01C7018B
:1042E000B6010E942B2E2BED3FE049EC50E40E94DA
:1042F000FB2F0E9468306B017C0120E030E0A901B7
:104300000E94F62F87FF0CC020E030E0A901C70112
:10431000B6010E94972E87FF05C0EFEFE9AF02C0FC
:10432000F1E0F9AFC9AC6C2DCC0C770B880B990B75
:104330000E94462F9B01AC01C501B4010E94FB2FD6
:104340000E940E2FCB01770FAA0BBB0BDCC10E9482
:104350000C146AA37BA38CA39DA36EE1A62E8A886E
:104360009B88A89CF001A99CF00D1124EC51FE4FF4
:10437000818492849FA28EA2238D348D4901330FB4
:10438000AA08BB0889AA9AAAABAABCAA358D8384BD
:1043900094849F8A8E8AA588B688C784D088E1884D
:1043A000F2880389148924814381AA8DBB8D0D90E5
:1043B000BC91A02DBF8FAE8F8789908DBD012696B1
:1043C0003FAF26970E941D141C01B40180E090E0CD
:1043D0000E94442F4B015C0126963FAD269760E476
:1043E000630F70E080E090E00E94442F20E030E016
:1043F00040E85BE30E94FB2FA50194010E94FB2F84
:104400000E94152F8E8D9F8D860F971F6E897F8935
:104410000E9408318C01BC0180E090E00E94442F92
:1044200020E030E04AE754E40E949C2E6B017C01BE
:1044300020E030E0A9010E94F62F87FD37C020E080
:1044400030E04AE754E4C501B4010E949C2E6E8F0F
:104450007F8F88A399A320E030E040E05FE30E94D3
:10446000FB2F9B01AC01C701B6010E94972E87FF6D
:104470001DC0B101032C000C880B990B0E94462F24
:1044800020E030E040E850E40E94FB2F2E8D3F8D6D
:1044900048A159A10E949C2EA70196010E94FB2FC2
:1044A0000E940E2F3194219431084CC020E030E05E
:1044B0004AE754E4C501B4010E949C2E4B015C0103
:1044C00020E030E040E05FE30E94FB2F9B01AC0165
:1044D000C701B6010E94F62F87FD39C0A5019401DE
:1044E000C701B6010E94972E87FF31C0B101032C8E
:1044F000000C880B990B0E94462F20E030E040E82A
:1045000050EC0E94FB2FA50194010E949C2E6B0190
:104510007C018E899F8996958795B801681B790BD8
:1045200080E090E00E94442F20E030E04AE754E42D
:104530000E949C2E9B01AC01C701B6010E94FB2F7B
:104540000E940E2F4101860E971E9BAE8AAE8AAC4A
:104550009BACC401990CAA0BBB0B29A93AA94BA986
:104560005CA9280F391F4A1F5B1FAEA1BFA10E9483
:10457000E62D2FEF3FE740E050E00E94C72DCA0133
:10458000B9010E94462F2AA13BA14CA15DA10E9426
:104590009C2E0E940E2F9B01AC01A0915E03B0E007
:1045A0000E94E62D24E630E040E050E00E94C72D56
:1045B000420E531E641E751E8DC20E940C146E8F17
:1045C0007F8F88A399A34EE1A42E8A889B88A89CFC
:1045D000F001A99CF00D1124EC51FE4F81849284CE
:1045E0009BA28AA2238D348D4901330FAA08BB08F0
:1045F0008EA29FA2A8A6B9A6358D23843484A5884F
:10460000B688C784D088E188F28803891489248118
:104610004381AA8DBB8D8D909C908789908DB4012C
:1046200026963FAF26970E941D149F8B8E8BB1015B
:1046300080E090E00E94442F6B017C0126963FAD04
:10464000269760E8630F70E080E090E00E94442FBE
:1046500020E030E040E85BE30E94FB2FA7019601D9
:104660000E94FB2F0E94152FC401860F971FB101D6
:104670000E9408318C0182159305E8F58E889F8889
:10468000B401990C880B990B0E94462F9B01AC0139
:104690000E942B2E4B015C0120E030E04AE754E4FD
:1046A000C701B6010E949C2E9B01AC01C501B4015B
:1046B0000E949C2E6B017C01B80180E090E00E947A
:1046C000442F20E030E04AE754E40E949C2E9B01F6
:1046D000AC01C701B6010E94FB2F0E940E2F2E894C
:1046E0003F893195219531094901860E971E229601
:1046F0009FAE8EAE229722968EAC9FAC2297C401BD
:10470000990CAA0BBB0B2EA13FA148A559A5280FB8
:10471000391F4A1F5B1FAAA1BBA10E94E62D2FEFE4
:104720003FE740E050E00E94C72DCA01B9010E9456
:10473000462F2E8D3F8D48A159A129CF0E940C14E0
:104740006E8F7F8F88A399A33EE1A32E8A889B88D2
:10475000A89CF001A99CF00D1124EC51FE4F81841E
:1047600092849BA28AA2238D348D4901330FAA081B
:10477000BB088EA29FA2A8A6B9A6358D2384348437
:10478000A588B688C784D088E188F288038914890F
:1047900024814381AA8DBB8D8D909C908789908DBB
:1047A000B40126963FAF26970E941D149F8B8E8BD7
:1047B000B10180E090E00E94442F6B017C012696BD
:1047C0003FAD269760E8630F70E080E090E00E94C4
:1047D000442F20E030E040E85BE30E94FB2FA7017C
:1047E00096010E94FB2F0E94152FC401860F971F70
:1047F000B1010E9408318C0182159305D0F56E89B4
:104800007F89719561957109072E000C880B990BB2
:104810000E94462F9B01AC010E942B2E4B015C0194
:1048200020E030E04AE754E4C701B6010E949C2E24
:104830009B01AC01C501B4010E949C2E6B017C015F
:10484000B80180E090E00E94442F20E030E04AE789
:1048500054E40E949C2E9B01AC01C701B6010E944A
:10486000FB2F0E940E2F8E889F88860E971E9FAE6C
:104870008EAE8EAC9FAC43CF9EE1A92E8A889B88DA
:10488000A89CF001A99CF00D1124EC51FE4F038D62
:10489000148DA0915D03B0E00E94E62D20E436E087
:1048A00040E050E00E94C72D69017A0120918E03FB
:1048B00030918F034091900350919103D8010E9451
:1048C000F12DDC01CB012FE0B595A7959795879544
:1048D0002A95D1F7092E000CAA0BBB0B4091860339
:1048E0005091870360918803709189038A019B012D
:1048F000081B190B2A0B3B0BC901B801A6010E942A
:104900001A15460E571E681E791EE4C08EE1A82EA9
:104910008A889B88A89CF001A99CF00D1124EC5179
:10492000FE4F038D148DA0915C03B0E00E94E62D34
:1049300024E630E040E050E00E94C72D69017A0192
:10494000B801110F880B990B0E94462F2AE939EC08
:104950004CEC54E40E949C2E9B01AC016AA57EA500
:104960008FA598A90E942A2EA6010E94B10663C0B5
:104970000EE1A02E8A889B88A89CF001A99CF00DCE
:104980001124EC51FE4F038D148DA0915B03B0E018
:104990000E94E62D24E630E040E050E00E94C72D62
:1049A00069017A01B801110F880B990B0E94462FFB
:1049B00020E03EEF4FEF56E40E949C2E9B01AC019D
:1049C0006DA97EA98FA998AD0E942A2EA6010E94EA
:1049D000490631C01EE1A12E8A889B88A89CF0015F
:1049E000A99CF00D1124EC51FE4F038D148DA09164
:1049F0005A03B0E00E94E62D24E630E040E050E0AB
:104A00000E94C72D69017A01B801110F880B990B1B
:104A10000E94462F2AE939EC4CEC54E40E949C2E6B
:104A20009B01AC016AA57EA58FA598A90E942A2E9C
:104A3000A6010E945E15092E000CAA0BBB0B480EA6
:104A4000591E6A1E7B1E46C00E940C149B01AC01BD
:104A5000BEE1AB2E8A889B88A89CF001A99CF00D32
:104A60001124EC51FE4F838D948DBC01990F880B5E
:104A7000990B23962FAF239726963FAF2697249620
:104A80004FAF249725965FAF25970E94462F239618
:104A90002FAD239726963FAD269724964FAD2497AA
:104AA00025965FAD25970E949C2E0E940E2F0E9496
:104AB0001E069B01AC01A0915E03B0E00E94E62DB2
:104AC00024E630E040E050E00E94C72D421A530A2D
:104AD000640A750A0E94A6170091B4011091B501ED
:104AE0002091B6013091B701DC01CB01801B910B05
:104AF000A20BB30BEA8DFB8D80839183A283B383DA
:104B00000A8D1B8D0C5F1F4F1B8F0A8F2A893B89D3
:104B10002B30310509F0EDC803C0412C512C320176
:104B20001091850311FF3DC00E940C149B01AC0144
:104B3000E0915C0367E471E0E69FC001E79F900DA0
:104B40001124BC0180E090E023962FAF2397269696
:104B50003FAF269724964FAF249725965FAF2597B2
:104B60000E94462F23962FAD239726963FAD26977A
:104B700024964FAD249725965FAD25970E949C2ED5
:104B80000E940E2FAB016AA57EA58FA598A90E9451
:104B9000B106092E000CAA0BBB0B480E591E6A1E4B
:104BA0007B1E12FF3DC00E940C149B01AC01E091E2
:104BB0005B0367E471E0E69FC001E79F900D11245D
:104BC000BC0180E090E023962FAF239726963FAF5D
:104BD000269724964FAF249725965FAF25970E947E
:104BE000462F23962FAD239726963FAD26972496E2
:104BF0004FAD249725965FAD25970E949C2E0E946D
:104C00000E2FAB016DA97EA98FA998AD0E94490610
:104C1000092E000CAA0BBB0B480E591E6A1E7B1EE8
:104C200013FF3DC00E940C149B01AC01E0915A039C
:104C300067E471E0E69FC001E79F900D1124BC017D
:104C400080E090E023962FAF239726963FAF2697DC
:104C500024964FAF249725965FAF25970E94462F45
:104C600023962FAD239726963FAD269724964FADDA
:104C7000249725965FAD25970E949C2E0E940E2FAB
:104C8000AB016AA57EA58FA598A90E945E15092E85
:104C9000000CAA0BBB0B480E591E6A1E7B1E4091CE
:104CA0008E0350918F0360919003709191038091D6
:104CB000860390918703A0918803B0918903CC2447
:104CC000DD247601C41AD50AE60AF70A8C159D057B
:104CD000AE05BF0534F0481759076A077B070CF08B
:104CE00045C0B7FD05C0841B950BA60BB70B04C0D0
:104CF000840F951FA61FB71F809386039093870389
:104D0000A0938803B09389030E940C149B01AC010B
:104D100060E07EEF8FEF96E40E949C2E6B017C0199
:104D20006091590370E080E090E00E94462F9B0163
:104D3000AC01C701B6010E94FB2F20E030E048EC37
:104D400052E40E949C2E0E940E2F6B017C01609108
:104D50008603709187038091880390918903A6014F
:104D60000E941A15460E571E681E791EA091B301A7
:104D7000B0E0A30192010E94E62D24E630E040E07D
:104D800050E00E94C72DCA01B9010E941E066B01A6
:104D90007C0114FF04C00E94DE160E947116C092AE
:104DA0006703D0926803E0926903F0926A0360910E
:104DB0008A0370918B0380918C0390918D030E94E4
:104DC000462F6B017C0160914C0370914D038091E3
:104DD0004E0390914F030E94462F9B01AC0160E06F
:104DE0007FEF8FE797E40E949C2E9B01AC01C701E7
:104DF000B6010E94FB2F0E940E2F6B017C016115F2
:104E000070488105910534F0CC24CA94AFE7DA2EBE
:104E1000E12CF12CC11440E8D4064FEFE406F4066F
:104E200034F4C12CF0E8DF2EEE24EA94FE2CC0927C
:104E30008A03D0928B03E0928C03F0928D0387E675
:104E400093E00E946D1080907703909078039B8A86
:104E50008A8A8091790390917A038816990624F4BE
:104E600090927A038092790380917B0390917C03E6
:104E7000AA88BB888A159B0524F4B0927C03A09273
:104E80007B0300917D0310917E0320917F0330917D
:104E900080030A8F1B8F2C8F3D8F8091810390910F
:104EA0008203092E000CAA0BBB0B081719072A074F
:104EB0003B0724F4109382030093810380918303C2
:104EC00090918403092E000CAA0BBB0B8A8C9B8C3F
:104ED000AC8CBD8C88159905AA05BB0524F490926D
:104EE0008403809283032091710330917203809137
:104EF0007303909174032817390724F430937403D3
:104F00002093730380917503909176038217930722
:104F100024F4309376032093750300916B03109172
:104F20006C0380916D0390916E030817190724F4A8
:104F300010936E0300936D0380916F039091700343
:104F40008017910724F41093700300936F0320904F
:104F50006503309066038091790390917A03820D06
:104F6000931D2C01612C712C80907303909074031D
:104F7000820C931CA12CB12CC901330FAA0BBB0BC3
:104F80009C01AD01281939094A095B09AFEFBFE05F
:104F90000E94E62D20917503309176032219330982
:104FA00040E050E0281939094A095B090E94C72DE1
:104FB0002AA73BA74CA75DA780906D0390906E0336
:104FC000820C931CA12CB12CC801110FAA0BBB0B96
:104FD0009C01AD01281939094A095B09AFEFBFE00F
:104FE0000E94E62D20916F0330917003221933093E
:104FF000890120E030E0A9019801281939094A09FE
:105000005B090E94C72D49015A010A891B89C80101
:10501000110FAA0BBB0B9C01AD01241935094609E0
:105020005709AFEFBFE00E94E62D20917B0330913E
:105030007C0322193309890120E030E0A90198019D
:1050400024193509460957090E94C72D8901011500
:1050500020E1120714F00FEF1FE017FF02C000E07D
:1050600010E010937803009377034AA45BA44114E3
:1050700030E1530624F044244A94EFE05E2E57FEBC
:1050800002C0412C512C50927203409271033401A2
:10509000811440E1940624F066246A947FE0772E20
:1050A00077FE02C0612C712C70926C0360926B03CE
:1050B0008091810390918203820D931D4C01A12C5C
:1050C000B12C2A8D3B8D4C8D5D8D281939094A09EB
:1050D0005B09AFEFBFEF0E94E62D20918303309173
:1050E00084032219330940E050E0281939094A099C
:1050F0005B090E94C72D2115310561E04607510566
:1051000024F02FEF3FEF40E050E057FF03C020E0D6
:1051100030E0A90120937D0330937E0340937F0309
:105120005093800389B182958F7091E0892790E038
:10513000A0E0B0E081709927AA27BB271B9B826063
:10514000199B8460499B88604F9B8061669B80624D
:105150001C9B8064369B806844E0880F991FAA1FBF
:10516000BB1F4A95D1F78093610390936203A0938C
:105170006303B093640370E8D71AC982DA822B8381
:105180003C830D83242D2295207F212B2E8354E0F8
:10519000569447945A95E1F74F826886798664E081
:1051A000B695A795979587956A95D1F78A871B86B7
:1051B0001C864CE050E0BE016F5F7F4F84E00E9490
:1051C000E00A80918E0490918F04A0919004B09198
:1051D000910480319742A105B10508F422C480E80A
:1051E00094E00E94930D181619060CF00AC480E88A
:1051F00094E00E94590DE82F8FE98E0F8A3108F450
:10520000E0528E2F90E0FC01E154F109EA31F10502
:1052100008F0F7C3ED59FF4F0C941C316091B101B8
:105220007091B201072E000C880B990B0E94DE16BC
:1052300080E20E9466168091B3010E94181780E2F6
:105240000E94661680915C030E94181780E20E94FB
:10525000661680915A030E94181780E20E94661613
:1052600080915F030E94181780E20E946616809169
:105270005E030E94181780E20E94661680915D030B
:105280000E94181780E20E94661680915B030E94BC
:10529000181780E20E946616809160030E9418171A
:1052A00080E20E946616809159030E94181780E2DE
:1052B0000E9466166091AF017091B00180E090E0AD
:1052C0004AE00E94911680E20E9466168091AE012B
:1052D0000E94181780E20E946616809185030E9442
:1052E000181780E20E9466166091AC017091AD01C2
:1052F00080E090E04AE00E94911680E20E946616EB
:105300006091550370915603809157039091580313
:105310000E94DE1680E20E9466166091AB0170E08A
:1053200085C283E991E00E947F166AEF70E080E019
:1053300090E00E94DE1688E991E00E947F168AE9DB
:1053400091E00E947F168CE991E00E947F168EE921
:1053500091E00E947F1655C380919A04082E000C9C
:10536000990B4DC3F894C0907B04D0907C04E090DE
:105370007D04F0907E0478948091AC019091AD0111
:105380002091AF013091B001821B930B96958795C8
:1053900096958795A0E0B0E089839A83AB83BC8320
:1053A000CE0101960E946D10D701C6011EEFF89440
:1053B00080907B0490907C04A0907D04B0907E044B
:1053C000789488159905AA05BB0554F46CE271E040
:1053D00080E090E00E9480171150D501C40139F798
:1053E00019821A821B821C82CE0101960E946D10C6
:1053F00080914C0390914D03A0914E03B0914F03C7
:10540000F89480937B0490937C04A0937D04B093E4
:105410007E047894C814D904EA04FB0411F482E0F1
:1054200001C081E080939A04E8C20E94EC176111E8
:1054300001C061E06093AE01E0C28FEF9FE0909306
:105440007A038093790310927C0310927B039093EC
:1054500082038093810310928403109283039093BC
:1054600074038093730310927603109275039093E4
:105470006E0380936D031092700310926F03BDC290
:10548000F89440907B0450907C0460907D04709070
:105490007E04789480918E0390918F03A091900365
:1054A000B0919103481A590A6A0A7B0A80919604BE
:1054B00090919704A0919804B0919904480E591EB8
:1054C0006A1E7B1E0E94EC176430710581059105F0
:1054D0007CF06B017C01613C7742894091056CF066
:1054E00010ECC12E17E2D12E19E0E12EF12C05C0EF
:1054F000B4E0CB2ED12CE12CF12CC982DA82EB82E4
:10550000FC826091B1017091B201072E000C880BF2
:10551000990B0E94462F4B015C01C301B2010E940E
:10552000462FA50194010E94FB2F2B013C016091A5
:105530004C0370914D0380914E0390914F030E9454
:10554000462F9B01AC01C301B2010E949C2E2B018E
:105550003C01C0925503D0925603E0925703F0925B
:105560005803C701B60191C080918E0390918F03BB
:10557000A0919003B0919103F89480937B04909351
:105580007C04A0937D04B0937E04789453C1F89476
:1055900080907B0490907C04A0907D04B0907E0469
:1055A000789480918E0390918F03A0919003B09195
:1055B0009103881A990AAA0ABB0A809196049091CD
:1055C0009704A0919804B0919904880E991EAA1E80
:1055D000BB1E0E94EC176E3171058105910574F0B8
:1055E0006B017C01693077408105910564F0A8E08A
:1055F000CA2EA7E0DA2EE12CF12C05C0FEE1CF2E59
:10560000D12CE12CF12CC982DA82EB82FC82C5011B
:10561000B4010E94462F4B015C016091B101709171
:10562000B201072E000C880B990B0E94462F9B019C
:10563000AC01C501B4010E94FB2F4B015C016091DC
:105640004C0370914D0380914E0390914F030E9443
:10565000462F9B01AC01C501B4010E949C2E2B0179
:105660003C01D092B201C092B101B601DD0C880BB1
:10567000990B0E94462F4B015C016091550370917C
:10568000560380915703909158030E94462F20E0C3
:1056900030E044EB53E40E949C2EA50194010E944B
:1056A000FB2F0E940E2F60934C0370934D03809349
:1056B0004E0390934F036B017C01F594E794D794CC
:1056C000C794C0928E03D0928F03E0929003F09221
:1056D00091030E94462F9B01AC01C301B2010E94BD
:1056E000FB2FA50194010E949C2E0E940E2FC60E36
:1056F000D71EE81EF91E8091960490919704A09100
:105700009804B0919904C81AD90AEA0AFB0AF894D5
:10571000C0927B04D0927C04E0927D04F0927E04DF
:1057200078946BC10E94EC17262F6091850380E06E
:1057300090E030E0F901082E02C0F595E7950A9453
:10574000E2F7C12CD12C7601C394082E04C0CC0CF6
:10575000DD1CEE1CFF1C0A94D2F7E0FF02C06C298E
:1057600002C0C0946C2101968830910519F76093AE
:10577000850370E080E090E042E00E9491160E9474
:1057800071163FC10E94EC178091AB0120E030E020
:1057900070E0AB01022E02C0559547950A94E2F7DE
:1057A000C12CD12C7601C394022E04C0CC0CDD1C7C
:1057B000EE1CFF1C0A94D2F740FF02C08C2902C0E5
:1057C000C0948C212F5F3F4F2830310511F7809313
:1057D000AB0141E06BEA71E08DE190E00E9455077A
:1057E0008091AB010E94AD07BC0180E090E00E9477
:1057F000442F2091A7013091A8014091A901509117
:10580000AA010E94FB2F0E940E2F69837A838B834B
:105810009C8344E0BE016F5F7F4F81E190E00E9476
:1058200055078091AB010E94AD07BC0180E090E07C
:105830004AE0A3CF80E090E0E2C042E061EB71E09B
:1058400086E090E00E94550744E065E573E089E159
:1058500090E00E94550741E063EB71E088E090E042
:105860000E94550741E06CE573E089E090E00E94FA
:10587000550741E06AE573E08AE090E00E94550731
:1058800041E06FE573E08BE090E00E94550741E056
:105890006EE573E08CE090E00E94550741E06DE515
:1058A00073E08DE090E00E94550741E06BE573E006
:1058B0008EE090E00E94550741E060E673E08FE0E3
:1058C00090E00E94550741E069E573E080E190E0D7
:1058D0000E94550741E06EEA71E087E190E00E9486
:1058E000550741E065E873E088E190E00E945507C4
:1058F00042E06FEA71E081E190E00E94550742E0EA
:105900006CEA71E083E190E00E94550742E063E5B4
:1059100073E085E190E00E9455076FC080E894E055
:105920000E94590DE82F8FE98E0F8A3108F4E0525A
:105930008E2F90E0FC01E154F109E331F10508F00C
:1059400060C0E358FF4F0C941C310E94EC17609329
:10595000B30153C00E94EC1760935F034EC00E94D6
:10596000EC1760935C0349C00E94EC1760935A03E4
:1059700044C00E94EC1760935E033FC00E94EC1786
:1059800060935D033AC00E94EC1760935B0335C0DF
:105990000E94EC176093600330C00E94EC17609384
:1059A00059032BC00E94EC1770E080E090E00E9449
:1059B000442F2FE632E143E85AE30E94FB2F6B01AC
:1059C0007C016093A7017093A8018093A901909333
:1059D000AA016091AC017091AD0180E090E00E945D
:1059E000442F9B01AC01C701B6010E94FB2F0E940E
:1059F000152F7093B0016093AF0181E090E00E9499
:105A000008178091920490919304A0919404B0910E
:105A100095048093960390939703A0939803B09373
:105A2000990380E090E0892B11F40C94931C0E9460
:105A300000000C94931C109283041092820488EE50
:105A400093E0A0E0B0E08093840490938504A09359
:105A50008604B093870427E631E0309381042093D5
:105A60008004109238051092370580933905909381
:105A70003A05A0933B05B0933C0589E791E09093EC
:105A800036058093350510929B0410929C04109269
:105A90009D0410929E0410929F041092A0041092F4
:105AA000A1041092A2041092A3041092CC04E4EA80
:105AB000F4E0119211921192119284E0EC3CF807FB
:105AC000C1F71092CD041092CE041092CF04109220
:105AD000D0041092D1041092D2041092D3041092E8
