:100000000C9415040C943D040C943D040C94380796
:100010000C9414070C943D040C943D040C943D0482
:100020000C943D040C943D040C94570A0C94FA076C
:100030000C943D040C943D040C943D040C943D043C
:100040000C943D040C943D040C943D040C943D042C
:100050000C943D040C943D040C943D040C947F19C5
:100060000C943D040C943D040C943D040C943D040C
:100070000C943D040C943D040C943D040C943D04FC
:100080000C943D040C943D040C943D040C943D04EC
:100090000C942C0F0C943D040C943D040C943D04E2
:1000A0000C943D040C943D040C943D049D20FE20D2
:1000B000BD229B2172236A25AE240B265426852659
:1000C000B7263527F026932E862C282D772F082E3D
:1000D000042F3B2D902E772F772F772F772F772F89
:1000E000772FB12C8E2C772F232C1D2C772F732B51
:1000F000F62B382E772F902E902E3E2F432F202F29
:10010000252F772F2A2F1B2F772F392F482F772F27
:10011000772F342F772F772F772F772F772F2F2F3A
:100120003F114411491153119D119D119D115D11F4
:10013000671171117B1188119D119011841587151C
:100140007A157E15A815A815A8158B158F1593156A
:1001500099159D15A815A31505A84CCDB2D44EB977
:100160003836A9020C50B9918688083CA6AAAA2A5A
:10017000BE000000803F00000000000000002A2BAD
:100180002800000000000000000000000000000047
:100190000000000000002C9EB4A0A1A2A434A6A7D9
:1001A000A5AE362D3738271E1F20212223242526D1
:1001B000B333B62EB7B89F8485868788898A8B8C9F
:1001C0008D8E8F909192939495969798999A9B9CE7
:1001D0009D2F3130A3AD350405060708090A0B0C25
:1001E0000D0E0F101112131415161718191A1B1CC7
:1001F0001DAFB1B0B500080B0002020201000904F6
:100200000000010202000005240010010524010184
:1002100001042402060524060001070581031000DD
:100220004009040100020A00000007050202400024
:1002300000070583024000000904020002030000D9
:100240000009210101000122E104070584034000A7
:10025000010705050340000105010904A10185040A
:100260000901A1000930170000000027FFFF00006E
:10027000350047FFFF000075109501810209311616
:10028000000027FFFF0000350047FFFF000075104A
:1002900095018102093216000027FF0F000035008A
:1002A00047FF0F0000750C9501810209331600000D
:1002B00027FF0F0000350047FF0F0000750C950168
:1002C0008102093416000027FF0F0000350047FFA8
:1002D0000F0000750C9501810209391501250835BB
:1002E00000463B016514550075049501810205091E
:1002F000150025015500650019012918750195188B
:10030000810285F10901150026FF00953F750891CE
:100310008285F20901953F75088182C0050F099217
:10032000A1028502099F09A009A409A509A6150033
:10033000250135004501750195058102950381036D
:1003400009941500250135004501750195018102CB
:1003500009221501252835014528750795018102D7
:10036000C00921A102850109221501252835014571
:10037000287508950191020925A102092609270976
:100380003009310932093309340940094109420968
:1003900043250B15013501450B750895019100C0EA
:1003A00009500954150027FFFF0000350047FFFFE3
:1003B000000066011055FD7510950291025500660A
:1003C00000000952150026FF7F350046FF7F75109B
:1003D0009501910209531501250835014508750855
:1003E000950191020955A102050109300931150055
:1003F0002501750195029102C0050F0956950191DD
:1004000002950591030957A1020B01000A000B0296
:10041000000A0066140055FE150026FF7F350047D0
:100420009F8C00007510950191025500660000C078
:10043000050F09A766011055FD150027FFFF0000F5
:10044000350047FFFF00007510950191026600001E
:100450005500C0050F095AA1028502092215012580
:100460002835014528750895019102095B095D153C
:100470000026FF00350046FF7F75089502910209AE
:100480005C095E66011055FD26FF7F46FF7F7510F3
:10049000950291026600005500C0095FA102850324
:1004A0000922150125283501452875089501910275
:1004B00009231500250135004501750495019102B8
:1004C0000958A1020B01000A000B02000A00750284
:1004D00095029102C0096016008026FF7F360080D9
:1004E00046FF7F751095019102096136008046FF35
:1004F0007F95019102150026FF7F350046FF7F0999
:10050000637510950191020965150026FF0046FFED
:100510007F750895019102C0096EA1028504092228
:1005200015012528350145287508950191020970A6
:10053000150026FF7F350046FF7F7510950191025B
:10054000096F16008026FF7F36008046FF7F9501E9
:1005500091020971150026FF0035004667016614F7
:10056000005500750895019102097227FFFF0000F0
:1005700047FFFF000066011055FD751095019102BF
:100580006600005500C00973A10285050922150106
:100590002528350145287508950191020970160135
:1005A0008026FF7F36018046FF7F751095019102FE
:1005B000C00974A1028506092215012528350145C7
:1005C00028750895019102097509761581257F36F0
:1005D000018046FF7F750895029102C0050F0977DB
:1005E000A102850A0922150125283501452875082B
:1005F000950191020978A1020979097A097B15010F
:100600002503750895019100C0097C150026FF009F
:10061000350046FF009102C00990A102850B092216
:100620001501252835014528750895019102C00955
:1006300096A102850C099709980999099A099B09BD
:100640009C15012506750895019100C0097DA10240
:10065000850D097E150026FF003500461027750818
:1006600095019102C009ABA10285050925A10209E6
:1006700026092709300931093209330934094009AB
:1006800041094209431501250B3501450B750895B4
:1006900001B100C00501093B150026FF01350046E8
:1006A000FF01750A9501B1027506B101C0050F0978
:1006B00089A10285060922252815013501452875DD
:1006C000089501B102098BA102098C098D098E25BB
:1006D0000315013501450375089501B100C009AC4A
:1006E000150027FFFF0000350047FFFF00007510D1
:1006F0009501B100C0097FA1028507098075109599
:1007000001150027FFFF0000350047FFFF0000B183
:1007100002098326FF0046FF0075089501B1020912
:10072000A909AA750195021500250135004501B1F9
:100730000275069501B103C0C01803410072006440
:1007400000750069006E006F0020004C004C0043F3
:10075000000403090422034100720064007500696B
:10076000006E006F0020004D006900630072006F92
:100770000020002000200012010002000000404183
:100780002337800001010200011201000202000073
:10079000404123378000010102000100C18081C176
:1007A000C000000000240027002A002D00300000B7
:1007B000000000250028002B002E00310000000062
:1007C000002300260029002C002F00040404040448
:1007D00003040502020202040302020202060606E4
:1007E0000606060404020202040404080201104082
:1007F000804010204080408008020401804020108A
:100800000201108010204040200000000200080E6D
:100810000000030401000B000000000000000000C5
:100820000000000000000000912F11241FBECFEF38
:10083000DAE0DEBFCDBF11E0A0E0B1E0ECE4F8E625
:1008400002C005900D92A83AB107D9F725E0A8EAB1
:10085000B1E001C01D92AB39B207E1F714E0C5E188
:10086000D4E004C02197FE010E941234C431D107A4
:10087000C9F70E94C9190C9424340C9400008C30E0
:10088000F8F4282F30E09EE1899FF0011124E75110
:10089000FE4F90819923A1F090819D7F9083F90173
:1008A000EC54FC4F958191110BC0E091A901F0919E
:1008B000AA010084F185E02D09951092C4030895E2
:1008C0000895FC01CB012091E80022FFFCCF282FE6
:1008D000215028F03091F10030833196F9CF24E691
:1008E0002093A8032BEF2093E80008950F931F9304
:1008F000CF93DF93DB01A40FB51FFB016EEFEA1767
:10090000FB0791F187FF02C0249101C02081009173
:10091000AC031091AD03C091AA03D091AB030C17A7
:100920001D07B4F49091E8009570E1F39091E80010
:1009300092FD1CC02093F1002091AC033091AD03D7
:100940002F5F3F4F2F733327232B11F46093E80061
:100950002091AC033091AD032F5F3F4F3093AD0337
:100960002093AC033196CBCFCA0102C08FEF9FEF2B
:10097000DF91CF911F910F910895CF93DF9300D016
:1009800000D01F92CDB7DEB7FC0181819081913AF2
:1009900029F5813009F0BCC08281863051F445E0F0
:1009A00050E06FEA73E080E40E9476041092AF0397
:1009B000AFC0873009F0ACC089838FEF9FEF9B8376
:1009C0008A838BE08C8383E08D8345E050E0BE0119
:1009D0006F5F7F4F80E40E9476049AC0913209F0E5
:1009E00097C0893009F094C08281853009F090C0A9
:1009F00064E070E0CE0101960E94610486E080937D
:100A0000AF0380910F018B3021F1A0910F0181E0A4
:100A10008A0F80930F019EE1E0910F019E9FF001EC
:100A20001124E751FE4F8081882351F080910F01FE
:100A30008B3030F480910F018F5F80930F01ECCFEA
:100A40008EE1A89FF0011124E751FE4F81E08083E1
:100A500001C0A0E0A093B003A11104C082E0809384
:100A6000B10350C01092780581E08093B1038A8170
:100A70009EE1A99FD0011124A751BE4F11968C93DE
:100A800011978FEF9FEF50969C938E931F975496DC
:100A90001C921E92539752961C921E925197139637
:100AA0008C93139714968C93149756961C921E92BF
:100AB00055971E961C921E921D9716961C9216977D
:100AC0008FEF9FE71A969C938E93199758961C92D6
:100AD0001E9257975C961C921E925B975D961C9295
:100AE0005D9788EE93E01C969C938E931B97E09104
:100AF000A901F091AA010684F785E02DBD01CE0180
:100B0000019609958FEF9FEF9093B3038093B20303
:100B100081E00F900F900F900F900F90DF91CF9189
:100B2000089542E450E066EF71E080E80E947604A8
:100B300040E250E068E372E080E80E94760483E0DF
:100B400090E00895EF92FF921F93CF93DF93EC0113
:100B5000162FE881F9810480F581E02D09957C014B
:100B6000E881F9810680F781E02D612FCE0109959A
:100B7000C7019927DF91CF911F91FF90EF900895C2
:100B8000FC0191818081813A29F49D7F81E091303F
:100B900091F414C0813279F49A3049F09B3019F005
:100BA000993049F40AC0828180930E0106C0828187
:100BB00080930D0102C080E0089581E008958C309B
:100BC000F0F49EE1899FF0011124E751FE4F8081EE
:100BD0008823A9F08081826080838091C403811181
:100BE0000EC00E9473196093B9017093BA0180938B
:100BF000BB019093BC0181E08093C40308950895E4
:100C0000CF92DF92EF92FF926091B6017091B7019F
:100C1000072E000C880B990B0E943C326B017C0163
:100C2000609151037091520380915303909154034A
:100C30000E943C329B01AC01C701B6010E94923177
:100C4000FF90EF90DF90CF900895CF92DF92EF92D8
:100C5000FF920F931F938B019C014091B201509121
:100C6000B3016A01E12CF12C66277727CB016C19BF
:100C70007D098E099F0906171707280739074CF0C9
:100C8000C901B801C016D106E206F30614F4C70183
:100C9000B6011F910F91FF90EF90DF90CF900895D4
:100CA0008F929F92AF92BF92CF92DF92EF92FF927C
:100CB0004B015C01BA01550F880B990B0E943C3225
:100CC0006B017C0120E030E0A901C501B4010E9464
:100CD000EC32A501940118160CF05058C701B6016A
:100CE0000E94F1326B017C010E9400069B01AC0165
:100CF000C701B6010E94F13220E030E040E851E443
:100D00000E94F13220E030E040E251E40E94F132F2
:100D100020E030E040E05DE30E94F1320E940432C6
:100D20000E9425066B017C0120E030E0A901C5018D
:100D3000B4010E94EC3218162CF4882799278C19DC
:100D40009D090DC020E030E0A901C501B4010E9459
:100D50008D3187FF02C0C60102C080E090E0FF90A5
:100D6000EF90DF90CF90BF90AF909F908F900895BD
:100D7000CF92DF92EF92FF92CF93DF936B017C01D2
:100D8000EA0120E030E0A9010E94EC32181694F04C
:100D900020E030E0A901C701B6010E948D3187FF34
:100DA0003AC020E030E0A901C701B6010E9421311C
:100DB0006B017C01BE01DD0F880B990B0E943C3258
:100DC0009B01AC01C701B6010E94F1326B017C01AD
:100DD0000E9400069B01AC01C701B6010E94F132DE
:100DE00020E030E040E851E40E94F13220E030E0C1
:100DF00040E251E40E94F13220E030E040E05BE369
:100E00000E94F1320E9404320E9425068827992709
:100E1000861B970B02C080E090E0DF91CF91FF909E
:100E2000EF90DF90CF9008951F920F920FB60F9220
:100E300011242F933F934F935F936F937F938F93DF
:100E40009F93AF93BF93EF93FF930E941E16FF9162
:100E5000EF91BF91AF919F918F917F916F915F9132
:100E60004F913F912F910F900FBE0F901F901895AB
:100E70001F920F920FB60F9211242F933F934F930F
:100E80005F936F937F938F939F93AF93BF93EF93F2
:100E9000FF930E941E16FF91EF91BF91AF919F911A
:100EA0008F917F916F915F914F913F912F910F9013
:100EB0000FBE0F901F901895CF92DF92EF92FF9286
:100EC0000F931F93CF93DF931F92CDB7DEB7F82E0A
:100ED000E42E8B01C82ED92E8C2D8F198E1588F4F7
:100EE000F80161918F01C60169830E94A730698171
:100EF000681719F0C6010E94AF30FFEFCF1ADF0A62
:100F0000EBCF0F90DF91CF911F910F91FF90EF905A
:100F1000DF90CF900895CF92DF92EF92FF920F93E0
:100F20001F93CF93DF931F92CDB7DEB78B016B0179
:100F30007C01E61AF70A9C2D901B941758F4C70100
:100F40008C0D9D1D49830E94A730F60181936F018E
:100F50004981F1CF0F90DF91CF911F910F91FF90B9
:100F6000EF90DF90CF9008958F929F92AF92BF92B3
:100F7000CF92DF92EF92FF9240E050E020E0682FA6
:100F800070E0812C912C54018394FA013296DB019C
:100F900002C0B595A795EA95E2F775016401042EA4
:100FA00004C0CC0CDD1CEE1CFF1C0A94D2F7A0FF81
:100FB00002C02C2902C0C0942C214F5F5F4F4430E7
:100FC000510519F730E0220F331FF901EC5CFE4F99
:100FD00080FF05C0808191819695879502C08081B0
:100FE0009181FF90EF90DF90CF90BF90AF909F9056
:100FF0008F9008951F920F920FB60F921124EF92C7
:10100000FF921F932F933F934F935F936F937F9321
:101010008F939F93AF93BF93EF93FF93CF93DF9300
:10102000CDB7DEB76197DEBFCDBF1092E9008091EA
:10103000E80083FF59C1FE013A96CF0128E02E0F48
:101040002E1729F03091F10030833196F9CF24E644
:101050002093A80322EF2093E8002A8527FF05C0EC
:101060003091E80030FFFCCF03C03EEF3093E80042
:10107000322F307609F0C5C08B85811105C01092E2
:10108000F1001092F10029C1982F9D7F913009F451
:1010900024C1853049F48091E80080FFFCCF8C8525
:1010A00080688093E30019C1863009F07CC01D85FB
:1010B000E888F9881092E9001092AD031092AC0311
:1010C000123091F51092AB031092AA030E94910581
:1010D00099E0BE016F5F7F4FFB01292F11922A9586
:1010E000E9F799831A8391E09E8390E898879AEFB5
:1010F00099872091AC033091AD03275F3F4F3C832C
:101100002B838D831092E9001092AD031092AC03F3
:10111000F092AB03E092AA0349E050E080E00E9425
:1011200076040E949105D9C0F092AB03E092AA0325
:10113000123259F441EE54E068E572E080E80E9412
:101140007604892B09F0C9C0CCC0113069F48889B4
:101150009989089711F41093A9038091A90381112B
:1011600011C067E777E016C0133009F0BAC08C856C
:10117000882359F0823061F0813009F0B2C069E310
:1011800077E008C069E877E005C061E577E002C074
:1011900065E577E06115710509F4A3C0FB01449191
:1011A00050E080E849C0873009F49BC0883021F4C2
:1011B00081E08093F10091C0893009F08EC02370E6
:1011C00009F08FC080E090E031E026E341E0480F75
:1011D0004093E9003093EB000196FC01E556F84F8F
:1011E000E491E093EC002093ED008530910571F7D8
:1011F0008EE78093EA001092EA008C858093A80124
:101200006CC0288939891092E9001092AD031092C0
:10121000AC033093AB032093AA032E85211154C055
:101220008B859A85913A59F4813209F05AC047E08A
:1012300050E060E171E080E00E9476044EC091329F
:1012400009F04FC0803239F467E070E080E191E04E
:101250000E94610442C0823209F043C08C858093B1
:1012600017018091100190911101A0911201B0918C
:101270001301803B9440A105B10579F580911701D8
:1012800080FD11C087E797E79093010880930008DD
:101290009BE088E10FB6F894A895809360000FBE9C
:1012A000909360001AC00FB6F894A89580916000E2
:1012B000886180936000109260000FBEA895109224
:1012C00001081092000809C0223059F4E091790514
:1012D000F0917A050995882321F08EEF8093E8003C
:1012E00003C081E28093EB0061960FB6F894DEBFF5
:1012F0000FBECDBFDF91CF91FF91EF91BF91AF9125
:101300009F918F917F916F915F914F913F912F911D
:101310001F91FF90EF900F900FBE0F901F901895A8
:101320008F929F92AF92BF92CF92DF92EF92FF92F5
:101330000F931F93CF93DF9300D01F92CDB7DEB7EB
:10134000382F8B018091A801882389F04A018AEF08
:10135000F82E832F8770E82E90E4C92E832F807299
:10136000B82E2AE3D22E832F8074A82E21C08FEFAF
:101370009FEF5FC08FB7F894E092E9009091E8008A
:1013800095FF1AC09091F2002C2D291B8FBF2111BF
:1013900015C0FA94FF2059F361E070E080E090E01E
:1013A00039834A835B830E944D1939814A815B816D
:1013B00081149104F9F634C020E0E8CF822F90E048
:1013C000881699060CF4282D822F90E0881A990A25
:1013D0006FB7F894E092E900BB2029F02150A8F003
:1013E0001092F100FBCFF80137FF07C0215058F0F1
:1013F00074917093F1003196F9CF215020F07191E2
:101400007093F100FACF080F191F8091E80085FF53
:101410000DC08114910411F4A11008C06FBFC8CF92
:101420005D9A84E68093AE03CA0103C0D092E800BF
:10143000F5CF0F900F900F90DF91CF911F910F91EB
:10144000FF90EF90DF90CF90BF90AF909F908F90E4
:1014500008959091A801992311F057FF03C08FEFD1
:101460009FEF08952FB7F89487708093E9008091DB
:10147000F20090E0841795070CF4AC01842FFB0177
:1014800094E6815030F09093A8033091F1003193AD
:10149000F8CF4115510521F08091F200882319F011
:1014A0002FBFCA0108958BE68093E800F9CF1F9201
:1014B0000F920FB60F9211242F933F934F935F9388
:1014C0006F937F938F939F93AF93BF93EF93FF930C
:1014D000CF93DF93CDB7DEB7C054D109DEBFCDBF08
:1014E0008091E1001092E10083FF0FC01092E900AB
:1014F00091E09093EB001092EC0092E39093ED005A
:101500001092A80198E09093F00082FF46C083E01B
:101510008093E9008091F200882319F08AE3809398
:10152000E8009FB7F89482E08093E9008091F20090
:101530009FBF882321F08EE894E00E94F10E9FB7B0
:10154000F89485E08093E9008091F2009FBF8823A2
:10155000C1F080917B0590917C05892B91F040E44E
:1015600050E0BE016F5F7F4F85E00E94290A97FD22
:1015700008C0E0917B05F0917C05BC01CE0101968D
:1015800009958091AE03882341F08091AE0381508C
:101590008093AE03811101C05D98C05CDF4F0FB630
:1015A000F894DEBF0FBECDBFDF91CF91FF91EF91D9
:1015B000BF91AF919F918F917F916F915F914F916B
:1015C0003F912F910F900FBE0F901F901895EF92A3
:1015D000FF920F931F93CF93DF931F92CDB7DEB788
:1015E00089838B017A0141E050E0BE016F5F7F4F3C
:1015F00084E00E949009A701B80184E40E94900948
:101600000F90DF91CF911F910F91FF90EF90089570
:101610001F93CF93DF93DC0111961C9111979C913E
:10162000953009F467C060F5923009F443C0A8F41E
:10163000913009F04DC1E091A901F091AA012EE18C
:10164000129FB001112467517E4F028CF38DE02D63
:10165000CD01DF91CF911F9109949330C9F194305E
:1016600009F036C1E091A901F091AA012EE1129F83
:10167000B001112467517E4F0488F589E02D35C0F3
:101680009B3009F49DC038F4963009F441C09A307B
:1016900009F44CC01DC19C3009F4CBC0913F09F046
:1016A00017C140E450E0BD0182EFDF91CF911F915F
:1016B0000C94E70AE091A901F091AA013EE1139F81
:1016C000B001112467517E4F0088F189E02D0DC0D3
:1016D000E091A901F091AA018EE1189FB0011124B7
:1016E00067517E4F0288F389E02DCD01DF91CF91C4
:1016F0001F910994E091A901F091AA013EE1139F85
:10170000B001112467517E4F0688F789E02DEDCF97
:10171000E091A901F091AA018EE1189FB001112476
:1017200067517E4F008CF18DE02DDFCF1F3F09F414
:101730001FE712969C91913099F4812F0E94DF054A
:10174000E12FF0E0EC54FC4F85818111C1C0E091A4
:10175000A901F091AA010680F781E02D812F47C0F1
:10176000923029F5C1E08C2F0E943F04CF5FCC302E
:10177000D1F7C12FD0E0CC54DC4F8D81811109C04D
:10178000E091A901F091AA010084F185E02D8FE795
:101790000995812F0E94DF058D81811199C0E0910B
:1017A000A901F091AA010680F781E02D1FC09330B6
:1017B00009F08EC0812FDF91CF911F910C943F04CF
:1017C00081E01F3FC1F480930F0188E691E0E9EECC
:1017D000F1E0DF019C011D9221503040E1F7E091E2
:1017E000A901F091AA010284F385E02D8FE7DF9132
:1017F000CF911F910994809378051C3008F068C040
:101800003EE1139FF0011124E751FE4F10828091B9
:101810000F01181710F410930F01E091A901F09136
:10182000AA010284F385E02D812F09951092C4034B
:101830004FC082E08093C5039091C603946090935B
:10184000C6039091C60390619093C6031092C7039C
:101850001330B1F040F4113079F01230C9F58091B5
:10186000C603826033C0153071F1B0F0163081F5D7
:101870008091C6038E7F2AC08091C6038D7F26C0CB
:10188000E091A901F091AA010480F581E02D80E0AA
:1018900009951092C7031CC0E091A901F091AA011B
:1018A0000480F581E02D81E0099581E080930F01AE
:1018B00088E691E0E9EEF1E0DF019C011D92215004
:1018C0003040E1F705C08091C60381608093C60374
:1018D000DF91CF911F910895DC01683810F06858AE
:1018E00025C0E62FF0E067FF12C0E058F10981E063
:1018F00090E001C0880FEA95EAF7809514969C91D4
:101900001497892314968C93149760E00FC0EA58BB
:10191000FE4F6491662311F167FF08C014968C9105
:1019200014978D7F14968C9314976F77FD013696DC
:1019300086E0662321F09081961301C010828150C9
:1019400031968111F6CFBD016C5F7F4F48E050E0CA
:1019500082E00E94E70A81E090E0089580E090E054
:101960000895FC011682178210861186128613864E
:101970001482BC016C5F7F4F48E050E082E00C9421
:10198000E70ADC01683810F068582DC0E62FF0E057
:1019900067FF11C0E058F10981E090E001C0880FB5
:1019A000EA95EAF714969C911497892B14968C93D8
:1019B000149760E018C0EA58FE4F6491611109C0A5
:1019C00081E090E013969C938E93129780E090E0D4
:1019D000089567FF08C014968C911497826014963E
:1019E0008C9314976F7716968C911697861751F1F2
:1019F00017968C911797861729F118968C9118973E
:101A0000861701F119968C9119978617D9F01A96B5
:101A10008C911A978617B1F01B968C911B9786179D
:101A200089F0FD01369680E090E02191211105C0FA
:101A3000FD01E80FF91F668305C001968630910508
:101A4000A1F7BECFBD016C5F7F4F48E050E082E060
:101A50000E94E70A81E090E00895CF92DF92EF9232
:101A6000FF920F931F93CF93DF936C01EB017B01E8
:101A7000E40EF51E00E010E0CE15DF0561F069917F
:101A8000D601ED91FC910190F081E02DC601099500
:101A9000080F191FF1CFC801DF91CF911F910F914E
:101AA000FF90EF90DF90CF90089583E08093E9005E
:101AB0008091F200882319F08AE38093E80008956A
:101AC00020917F0430918004809181049091820460
:101AD00028173907A9F0E0918104F0918204E15CB4
:101AE000FB4F808120918104309182042F5F3F4F12
:101AF0002F733327309382042093810490E008955C
:101B00008FEF9FEF089520917F04309180048091A2
:101B10008104909182042817390749F0E0918104EB
:101B2000F0918204E15CFB4F808190E008958FEF9B
:101B30009FEF089580917F0490918004209181040B
:101B400030918204821B930B8F739927089585ED42
:101B50008093BC008091BC0084FDFCCF10921904DE
:101B600008954091F303262F30E0240F311D2132D8
:101B70003105DCF4209119042430C9F4FC0180E023
:101B800090E0861758F43091F3032191DC01AF52B5
:101B9000BC4FA30FB11D2C930196F3CF8091F3039B
:101BA000680F6093F30380E0089581E0089582E078
:101BB000089508958FEF9FEF08958FEF9FEF089599
:101BC0008091D00390E09195819591090895CF93EC
:101BD000DF9300D0CDB7DEB7CB01642F49835A83A2
:101BE0000E94B10D4981842F5A81952F0F900F903B
:101BF000DF91CF910895CF93DF931F92CDB7DEB7DA
:101C0000698361E0CE0101960E94B10D81E090E010
:101C10000F90DF91CF9108950895CF93DF93FC014A
:101C2000EB01718182818983878190859A87898779
:101C300025853685438154816EE1769FC00111244C
:101C400087519E4FDC0150965C934E931F9756969A
:101C50003C932E93559764E0769FD0011124A754AE
:101C6000BE4F1D921D921D921C92139783859485E1
:101C70009E878D8782858E8381E0DF91CF91089545
:101C8000FC012281FB012783FC018381FB0180870A
:101C90000895FC0182819381FB01908F878B0895C9
:101CA000DC01FB0112968D919C911397908F878B8D
:101CB00014968D919C911597948F838F16968C9185
:101CC0001697858F17968D919C9118979487838787
:101CD0000895DC01FB0112968C9112978283828118
:101CE000811110C015968D919C911697908F878BBE
:101CF00013968D919C911497948F838F17968C9146
:101D00008583089582810895DC01FB0112968C91F0
:101D10001297838313968C911397848314968D91D5
:101D20009C911597948B838B16968D919C91179708
:101D3000928B818B08959EE1899FF0011124E751D8
:101D4000FE4F708B6787568B458B94E0899FF0011F
:101D50001124E754FE4F10821182128213820895DB
:101D6000089508951092780524E0829FC0011124FF
:101D7000FC01E754FE4F10821182128213820895F3
:101D800025E0FC0120838EE491E00895089580937E
:101D9000780508950E941F340F931F93CF93DF930C
:101DA0001F92CDB7DEB78C0169838091170188231C
:101DB00059F041E050E0BE016F5F7F4F83E00E9429
:101DC0009009181619063CF081E090E0F801938321
:101DD000828380E090E00F90DF91CF911F910F916F
:101DE00008950F931F93CF93DF931F92CDB7DEB764
:101DF00000917F04109180040F5F1F4F0F73112714
:101E0000809181049091820408171907F9F041E04C
:101E100050E0BE016F5F7F4F82E00E94290A019768
:101E200019F4898190E002C08FEF9FEF8F3F2FEF71
:101E3000920761F0E0917F04F0918004E15CFB4F38
:101E400080831093800400937F04D2CF0F90DF91A2
:101E5000CF911F910F9108951F920F920FB60F927D
:101E600011242F933F934F935F936F937F938F939F
:101E70009F93AF93BF93EF93FF938091B900887FB7
:101E8000803609F49CC068F5883209F45BC090F490
:101E9000803109F454C038F4882309F4F6C088303E
:101EA00009F44DC0F6C0883109F44CC0803209F401
:101EB0005DC0EFC0803409F468C048F4803309F491
:101EC00055C0883309F0E5C080931804D8C0803528
:101ED00009F44FC0883509F45DC0883409F0D9C0D1
:101EE000D6C0883909F4C7C0A8F4883709F467C098
:101EF00038F4883609F463C0803709F460C0C9C07B
:101F0000883809F4B8C0803909F45FC0803809F016
:101F1000C0C05BC0803B09F486C038F4803A09F445
:101F200066C0883A09F47FC0B4C0803C09F4A7C0F9
:101F3000883C09F4A4C0883B09F48AC0AAC08091F7
:101F40003E0410C090913D0480913C04981770F5B8
:101F5000E0913D0481E08E0F80933D04F0E0E45E6B
:101F6000FB4F80818093BB0085EC86C08093180472
:101F70008EC0E0913D0481E08E0F80933D048091FE
:101F8000BB00F0E0E45EFB4F808390913D048091C4
:101F90003C046EC0E0913D0481E08E0F80933D04CF
:101FA0008091BB00F0E0E45EFB4F808380911B04D6
:101FB00081116DC081E080931A0484EA61C083E0DE
:101FC0008093190410921704CFCF809117048032A8
:101FD00008F051C0E091170481E08E0F8093170440
:101FE0008091BB00F0E0E950FC4F8083BDCF85ECD1
:101FF0008093BC001092190480911704803230F451
:10200000E0911704F0E0E950FC4F10826091170452
:1020100070E0E091F503F091F60387EF93E0099506
:102020001092170436C084E0809319041092F403D0
:102030001092F303E091F103F091F203099580917E
:10204000F303811105C081E08093F3031092D10363
:10205000E091F40381E08E0F8093F403F0E0EF52FF
:10206000FC4F80818093BB009091F4038091F30337
:10207000981708F479CF85E88093BC000AC085ECF6
:102080008093BC001092190404C0109218040E949E
:10209000A70DFF91EF91BF91AF919F918F917F918C
:1020A0006F915F914F913F912F910F900FBE0F90C5
:1020B0001F9018952091AB013091AC01281739077A
:1020C00008F4C90190938B0080938A0008952091B1
:1020D000AB013091AC012817390708F4C90190937E
:1020E00089008093880008954F925F926F927F924B
:1020F0008F929F92AF92BF92CF92DF92EF92FF9218
:102100000F931F93CF93DF93CDB7DEB760970FB6D2
:10211000F894DEBF0FBECDBF009709F4F7C28C0163
:102120006091B80170E080E090E00E943C322AE0CB
:1021300037ED43E25CE30E94F13269837A838B835B
:102140009C83F80180809180A280B380B7FE08C094
:10215000B094A09490948094811C911CA11CB11CFB
:10216000C501B4010E943C326B017C016091B20157
:102170007091B30180E090E00E943A322B013C0163
:1021800026E636E646E65FE30E94F13229813A818F
:102190004B815C810E94F1326D837E838F839887AF
:1021A0009B01AC01C701B6010E94EC3287FDCBC098
:1021B000A301920169817A818B819C810E94F13215
:1021C00069877A878B879C8720E030E040E85FE36F
:1021D0000E9420319B01AC01C701B6010E948D31E4
:1021E00087FFB1C06D817E818F8198850E94043206
:1021F0006B017C01A5019401261B370B480B590B81
:10220000AEE3B0E00E94DC304B015C0169857A8569
:102210008B859C850E9404329B01AC012C193D09E1
:102220004E095F09C501B4010E94BD3069017A0100
:10223000FFEFCF1ADF0AEF0AFF0A560161E083E0E1
:102240000E949D17C114D10411F460E005C08FEF06
:10225000C816D10429F461E083E00E946D178AC09A
:10226000ECE0F8E0E4918E2F90E0FC013197EE3045
:10227000F10508F062C0E057FF4F0C94123484B5AA
:10228000806884BDC7BC76C084B5806284BDC8BC8C
:1022900071C080918000806880938000D092890016
:1022A000C092880067C08091800080628093800027
:1022B000D0928B00C0928A005DC0809190008068AF
:1022C00080939000D0929900C092980053C0809162
:1022D0009000806280939000D0929B00C0929A0000
:1022E00049C080919000886080939000D0929D00BA
:1022F000C0929C003FC08091C00080688093C00065
:102300008091C0008F7B8093C000C092CF0032C00C
:102310008091C00080628093C000C092D0002AC02B
:102320008091C20088608093C2008091C2008B7F40
:102330008093C200C092D2001DC0E0E8AE16B10486
:102340000CF089CF82CFA301920169817A818B81C0
:102350009C810E94F13220E030E040E85FE30E947F
:1023600020319B01AC01C701B6010E94EC3287FD10
:102370006CCF71CF80E090E0A0E8BFE38093CC0306
:102380009093CD03A093CE03B093CF038093C80363
:102390009093C903A093CA03B093CB039091B1016A
:1023A000F801C080D180E280F380892F807491FD94
:1023B000C1C081116CC01C141D041E041F045CF5F7
:1023C0004090B2015090B3018090B4019090B5015B
:1023D000A12CB12C612C712CC301B20168197909AF
:1023E0008A099B09A70196010E94EE33A30192017D
:1023F0000E94BD30820E931EA41EB51EF80180827D
:102400009182A282B38280E090E00E946710F8017E
:10241000808191812EC0C114D104E104F10469F1DD
:102420004090B2015090B3018090B4019090B501FA
:10243000A12CB12C612C712CA50194012419350912
:1024400046095709C701B6010E94EE33A301920164
:102450000E94BD30DA01C901880D991DAA1DBB1D5E
:10246000F80180839183A283B3830E94671080E088
:1024700090E00E945A102A9A49C180E090E00E94A0
:10248000671080E090E00E945A102A983FC1E091C6
:10249000B201F091B3011C141D041E041F04DCF4EE
:1024A0004F01969487948091B4019091B501880E64
:1024B000991EA12CB12C2F01612C712CC301B201EA
:1024C000681979098A099B09A70196010E94EE33D0
:1024D000A301920119C0C114D104E104F10411F166
:1024E0004F01969487948091B4019091B501881A18
:1024F000990AA12CB12CA5019401C701B6010E9433
:10250000EE339F0140E050E00E94BD30DA01C90186
:10251000880D991DAA1DBB1DF80180839183A2839C
:10252000B38303C0CF01969587950E94671080E022
:1025300090E0D4C0811133C0F7FC02C02A9A01C0D8
:102540002A988091B4019091B5016C01E12CF12C95
:102550008090B2019090B301A12CB12CF8012081A0
:1025600031814281538157FF07C050954095309586
:1025700021953F4F4F4F5F4FC501B4016C197D0945
:102580008E099F090E94EE33A50194010E94BD307F
:10259000DA01C9018C0D9D1DAE1DBF1D81C01C142B
:1025A0001D041E041F046CF520E030E040E85FE3EA
:1025B0006091AD017091AE018091AF019091B00139
:1025C0000E942131209104013091050140910601C2
:1025D000509107010E94F1320E9404324B015C01CC
:1025E00060910001709101018091020190910301BD
:1025F0000E940432681979098A099B09A70196018A
:102600003FC0C114D104E104F10409F44FC020918A
:10261000AD013091AE014091AF015091B00160E049
:1026200070E080E89FE30E94203120910401309106
:10263000050140910601509107010E94F1320E946C
:1026400004324B015C0122273327A9012C193D09D3
:102650004E095F09609108017091090180910A019A
:1026600090910B012D873E874F87588B0E94043233
:10267000681979098A099B092D853E854F855889F6
:102680000E94EE332091B2013091B30140E050E05E
:102690000E94BD30DA01C901880D991DAA1DBB1D1C
:1026A000F80180839183A283B3830BC060910401FE
:1026B0007091050180910601909107010E940B32F3
:1026C000CB010E9467106091040170910501809117
:1026D0000601909107010E940B32CB0160960FB664
:1026E000F894DEBF0FBECDBFDF91CF911F910F9148
:1026F000FF90EF90DF90CF90BF90AF909F908F9022
:102700007F906F905F904F900C945A1060960FB628
:10271000F894DEBF0FBECDBFDF91CF911F910F9117
:10272000FF90EF90DF90CF90BF90AF909F908F90F1
:102730007F906F905F904F9008956091AB01709182
:10274000AC0180E090E00E943A329B01AC0160E075
:102750007EEF8FEF96E40E94923108952F923F9280
:102760004F925F926F927F928F929F92AF92BF92A1
:10277000CF92DF92EF92FF920F931F93CF93DF934D
:10278000CDB7DEB729970FB6F894DEBF0FBECDBF29
:10279000998788874B012B831D830C831701DF8268
:1027A000CE82042F10E08C819D816C01E12CF12CF4
:1027B000E885F985F7FD2BC0C8019695982F8827E5
:1027C00097958795BF01681B790B072E000C880B26
:1027D000990B0E943C322B013C01C701B6010E94BB
:1027E0003A329B01AC01C301B2010E9492312B012C
:1027F0003C01C8019695982F8827979587959A83CD
:102800008983EB8190E8E99FB00111242AC0B801C7
:102810007695762F662777956795E885F9856E0F0B
:102820007F1F072E000C880B990B0E943C322B0156
:102830003C01C701B6010E943A329B01AC01C301C1
:10284000B2010E9492312B013C0160E86003C0019B
:10285000619F900D11249A8389832B816203B001BB
:10286000112488859985681B790B072E000C880B2D
:10287000990B0E943C326B017C01B10180E090E039
:102880000E943A329B01AC01C701B6010E9492310D
:102890006B017C018A149B0408F43FC08E819F81E8
:1028A0008A0D9B1D88169906C0F50C811D810A0DA5
:1028B0001B1D8016910690F4B4016A197B0980E013
:1028C00090E00E943A329B01AC01C301B2010E9428
:1028D000F1320E94043289819A811CC082199309C5
:1028E00088159905E8F48A189B08EE81FF818E1AF5
:1028F0009F0AB401620D731D80E090E00E943A329D
:102900009B01AC01C701B6010E94F1320E94043262
:1029100088859985860F971F05C080E090E002C0EA
:102920008885998529960FB6F894DEBF0FBECDBF76
:10293000DF91CF911F910F91FF90EF90DF90CF909B
:10294000BF90AF909F908F907F906F905F904F90CF
:102950003F902F9008958F929F92AF92BF92CF9207
:10296000DF92EF92FF92CF93DF934B015C01EA017C
:102970000E9400066B017C01DE01A50194010E940A
:10298000E7300E943C32A70196010E94F13220E01C
:1029900030E040E051E40E94F13220E030E040E2DB
:1029A00051E40E94F13220E030E040E85BE30E9415
:1029B000F1320E9404320E94250690958095709510
:1029C00061957F4F8F4F9F4FDF91CF91FF90EF9099
:1029D000DF90CF90BF90AF909F908F9008954F92CF
:1029E0005F926F927F928F929F92AF92BF92CF929F
:1029F000DF92EF92FF92CF93DF9300D000D0CDB75C
:102A0000DEB74B015C0157FF02C04D5F5F4F6A01AB
:102A1000D594C794D594C7940E94000669837A839D
:102A20008B839C839B01AC01C501B4010E94F132F0
:102A300020E030E040E251E40E94F1322B013C0101
:102A400020E030E040E85FE30E94EC320D2C000C07
:102A5000EE08FF0818161CF4C701B60128C020E0D4
:102A600030E040E85FEBC301B2010E948D3187FF87
:102A700006C0C701B6010E942506CB011EC0C701D2
:102A8000B6010E943C329B01AC01C501B4010E9419
:102A9000F13229813A814B815C810E94F13220E040
:102AA00030E040E251E40E94F1320E9404320E9480
:102AB000250688279927861B970B0F900F900F905C
:102AC0000F90DF91CF91FF90EF90DF90CF90BF906C
:102AD000AF909F908F907F906F905F904F900895F0
:102AE00090E0FC013197EE30F10590F5E256FF4F92
:102AF0000C941234809180008F7703C08091800005
:102B00008F7D80938000089584B58F7702C084B54F
:102B10008F7D84BD0895809190008F7707C080914C
:102B200090008F7D03C080919000877F80939000FC
:102B300008958091C0008F7703C08091C0008F7D81
:102B40008093C00008958091C200877F8093C20067
:102B50000895CF93DF93282F30E0F901E75FF74F17
:102B60008491F901E651F84FD491F901E553F84FFA
:102B7000C491CC2391F081110E947015EC2FF0E0EC
:102B8000EE0FFF1FE354F84FA591B491EC91ED23A4
:102B900081E090E021F480E002C080E090E0DF91ED
:102BA000CF9108950F931F930E9473196093960419
:102BB000709397048093980490939904E0918E0405
:102BC000F0918F040084F185E02D8EE894E0099562
:102BD00097FF1FC00E9473190091960410919704EB
:102BE0002091980430919904DC01CB01801B910B5A
:102BF000A20BB30B009192041091930420919404C2
:102C00003091950480179107A207B307B8F28FEFB0
:102C10009FEF1F910F910895009769F0FC010190BB
:102C20000020E9F73197AF01481B590BBC018EE832
:102C300094E00C942D0D80E090E0089590918D0427
:102C400089B18C70892B90E09C013595279535953D
:102C5000279520938D044091890450918A046091B6
:102C60008B0470918C04FC01ED5AFE4F8081082E7C
:102C7000000C990BAA0BBB0B840F951FA61FB71F47
:102C80008093890490938A04A0938B04B0938C045E
:102C9000809188040895E0918E04F0918F04019052
:102CA000F081E02D682F8EE894E00994CF93DF93B4
:102CB0008DE00E944B16EC018AE00E944B168C0FAF
:102CC0009D1FDF91CF9108958F929F92AF92BF92F7
:102CD000EF92FF920F931F93CF93DF93CDB7DEB7A1
:102CE000A1970FB6F894DEBF0FBECDBF162F042FED
:102CF00019A2423008F40AE07E0121E2E20EF11C42
:102D0000802E912CA12CB12C612FA50194010E9441
:102D1000EF30029F1019112481E0E81AF1081A30EF
:102D200014F4105D01C0195CF7011083122F732F8A
:102D3000CA01232B242B252B39F7C7010E940C161F
:102D4000A1960FB6F894DEBF0FBECDBFDF91CF9135
:102D50001F910F91FF90EF90BF90AF909F908F9039
:102D60000895CF92DF92EF92FF92CF93DF9397FF78
:102D700019C06B017C018DE20E944B16EC016627A5
:102D80007727CB016C197D098E099F094AE00E94C3
:102D900064168C0F9D1FDF91CF91FF90EF90DF9015
:102DA000CF9008954AE0DF91CF91FF90EF90DF90B0
:102DB000CF900C946416CF93DF93BC01990F880BCE
:102DC000990B0E94B116EC010E9456168C0F9D1FA4
:102DD000DF91CF910895682F70E080E090E04AE0A5
:102DE0000C9464160C940C16FF920F931F93CF93C0
:102DF000DF9300D000D0CDB7DEB70E94D215FC0122
:102E000097FD11C08D32910591F0C0970A9778F027
:102E1000E0918E04F0918F040680F781E02D8EE81A
:102E200094E00995EACF60E070E0CB014CC020E06F
:102E300030E0A901F12CE130F105F1F0ED32F105BE
:102E4000C9F0CF01C0970A97B8F4AAE0B0E00E9499
:102E5000DC308F01FF0F220B330BDC01CB01800F25
:102E6000911FA21FB31F9C01AD01205331094109DD
:102E7000510902C0FF24F394E0918E04F0918F0475
:102E80000680F781E02D8EE894E029833A834B8316
:102E90005C8309950E94D215FC01C09729813A8173
:102EA0004B815C810A9738F2E130F10521F2FF2075
:102EB00041F066277727CB01621B730B840B950BC0
:102EC00002C0CA01B9010F900F900F900F90DF91CF
:102ED000CF911F910F91FF9008951F93CF93DF9390
:102EE000282F30E0F901E75FF74F8491F901E651AF
:102EF000F84FD491F901E553F84FC491CC23C9F0B0
:102F0000162F81110E947015EC2FF0E0EE0FFF1FBD
:102F1000E155F84FA591B4918FB7F894111105C000
:102F20009C91ED2FE095E92302C0EC91ED2BEC9301
:102F30008FBFDF91CF911F910895CF93DF9390E0E2
:102F4000FC01E651F84F2491FC01E553F84F8491C0
:102F5000882361F190E0880F991FFC01EF55F84F2D
:102F6000C591D491FC01E155F84FA591B49161113F
:102F700009C09FB7F8948881209582238883EC91BB
:102F80002E230BC0623061F49FB7F8943881822FF2
:102F9000809583238883EC912E2B2C939FBF06C0B2
:102FA0008FB7F894E8812E2B28838FBFDF91CF91C4
:102FB00008953FB7F8948091830490918404A09180
:102FC0008504B091860426B5A89B05C02F3F19F053
:102FD0000196A11DB11D3FBFBA2FA92F982F882799
:102FE000820F911DA11DB11DBC01CD0142E0660FF4
:102FF000771F881F991F4A95D1F708958F929F9246
:10300000AF92BF92CF92DF92EF92FF920F931F93F6
:10301000CF9380919D040E94A9158111E4C00E9464
:10302000D917C090B504D090B604E090B704F090E2
:10303000B804DC01CB018C199D09AE09BF0980934E
:10304000B9049093BA04A093BB04B093BC040E944B
:10305000D9176093B5047093B6048093B704909326
:10306000B8041092CB04C0E0C12CD12C7601809121
:103070009E0490E047962C2F30E082179307BCF017
:1030800061E080919C040E946D1760E080919C0437
:103090000E946D17C83148F480919D040E94A915C3
:1030A000CC0CDD1CEE1CFF1CC82ACF5FE0CFD70183
:1030B000C601A0580097A10511E0B10718F021E062
:1030C0002093D7042091DD04222361F04FEF5FEFBE
:1030D0006FEF70E08A019B01081B190B2A0B3B0B59
:1030E000D901C8014091B3045091B4042091D10496
:1030F0003091D204B901615071094617570729F47C
:103100001092B4041092B30406C04F5F5F4F509307
:10311000B4044093B3040097A105B10509F456C067
:10312000F090CB0441E04F0D4093CB04E091B30409
:10313000F091B404EE0FFF1FEE0FFF1FE456FB4F9C
:1031400083879487A587B6878091C1048823F1F18E
:103150008091BE04811104C081E08093BE0436C01A
:10316000A0E040E050E0BA018A2F90E08217930778
:103170008CF4880F991F880F991FFC01E456FB4FB0
:1031800083849484A584B684480D591D6A1D7B1DD3
:10319000AF5FEACF0090BF0404C07595679557955F
:1031A00047950A94D2F74093AF045093B0046093CC
:1031B000B1047093B2041092BE041092C10481E075
:1031C0008093CC04F394F394F092CB040E9473198F
:1031D0006093D8047093D9048093DA049093DB044D
:1031E0001092DC041AC00E947319C090D804D090C9
:1031F000D904E090DA04F090DB04DC01CB018C19F7
:103200009D09AE09BF0985369105A105B10518F0E4
:1032100081E08093DC041092CB048091CB04CF91A9
:103220001F910F91FF90EF90DF90CF90BF90AF90E4
:103230009F908F900895CF92DF92EF92FF92CF935D
:1032400081E08093C1041092BE041092CF040E94CA
:1032500073192091CD043091CE046B017C01C20E14
:10326000D31EE11CF11C0E94FE17C82F8091D004D0
:1032700081110BC00E947319C616D706E806F9061D
:1032800020F481E08093CF0402C0C23061F7CF9177
:10329000FF90EF90DF90CF900895CF92DF92EF9262
:1032A000FF92CF93DF936B017C010E94D917EB0152
:1032B000C114D104E104F10479F00E94D9176C1B08
:1032C0007D0B683E7340A0F381E0C81AD108E10885
:1032D000F108C851DC4FECCFDF91CF91FF90EF9018
:1032E000DF90CF9008952FB7F89460919705709173
:1032F00098058091990590919A052FBF08951F9286
:103300000F920FB60F9211242F933F938F939F9399
:10331000AF93BF938091970590919805A0919905DF
:10332000B0919A053091960523E0230F2D3720F4B4
:103330000196A11DB11D05C026E8230F0296A11D0F
:10334000B11D209396058093970590939805A093BF
:103350009905B0939A058091830490918404A0917B
:103360008504B09186040196A11DB11D809383044C
:1033700090938404A0938504B0938604BF91AF9189
:103380009F918F913F912F910F900FBE0F901F90A3
:103390001895CF93DF93CDB7DEB7C354D1090FB6DD
:1033A000F894DEBF0FBECDBF789484B5826084BD33
:1033B00084B5816084BD85B5826085BD85B5816039
:1033C00085BD80916E00816080936E0010928100B7
:1033D0008091810082608093810080918100816072
:1033E0008093810080918000816080938000809133
:1033F0009100826080939100809191008160809320
:103400009100809190008160809390008091C10034
:1034100084608093C1008091C10082608093C1006C
:103420008091C10081608093C1008091C300816060
:103430008093C3008091C00082608093C00080911F
:10344000C20081608093C20080917A008460809382
:103450007A0080917A00826080937A0080917A006D
:10346000816080937A0080917A00806880937A00EE
:103470001092A80181E08093D70080EA8093D80061
:1034800082E189BD09B400FEFDCF61E070E080E01B
:1034900090E00E944D1980E98093D8001CE01093C1
:1034A000E2001092E00010928603109285031092C1
:1034B0008B0310928C0310928D0310928E03109246
:1034C000800310927F031092940310929503109240
:1034D00096031092970310929803109299031092FA
:1034E0009A0310929B0342E0BE01615F7F4F80E030
:1034F00090E00E948B078F8598898A3F910509F497
:10350000C1C08AEF90E09E878D8742E0BE01635F75
:103510007F4F80E090E00E945C0719821A821B8234
:103520001C8244E0BE016F5F7F4F82E090E00E940A
:103530005C0788E394E09E878D8742E0BE01635F6D
:103540007F4F86E090E00E945C0784E6898B41E033
:10355000BE016F5E7F4F88E090E00E945C0741E013
:10356000BE016F5E7F4F8BE090E00E945C0741E000
:10357000BE016F5E7F4F8CE090E00E945C0741E0EF
:10358000BE016F5E7F4F80E190E00E945C0741E0EA
:10359000BE016F5E7F4F8DE090E00E945C0782E38A
:1035A000898B41E0BE016F5E7F4F89E090E00E9411
:1035B0005C0741E0BE016F5E7F4F8AE090E00E94B1
:1035C0005C0741E0BE016F5E7F4F8EE090E00E949D
:1035D0005C0786E4898B41E0BE016F5E7F4F8FE020
:1035E00090E00E945C071E861D8642E0BE01635F7C
:1035F0007F4F81E190E00E945C078FEF97E09E870C
:103600008D8742E0BE01635F7F4F83E190E00E94BF
:103610005C078FEF9FE09E878D8742E0BE01635F6E
:103620007F4F85E190E00E945C078DE2898B41E04D
:10363000BE016F5E7F4F87E190E00E945C0781E0F2
:10364000898B41E0BE016F5E7F4F88E190E00E9470
:103650005C0780E699E0A0E0B0E089839A83AB83C1
:10366000BC8344E0BE016F5F7F4F89E190E00E9420
:103670005C07198B41E0BE016F5E7F4F8DE190E0EA
:103680000E945C0742E066EB71E086E090E00E94F9
:103690008B0744E06BE573E089E190E00E948B07C3
:1036A00041E068EB71E088E090E00E948B0741E028
:1036B00066E673E089E090E00E948B0741E064E6F3
:1036C00073E08AE090E00E948B0741E069E673E0D6
:1036D0008BE090E00E948B0741E068E673E08CE0AD
:1036E00090E00E948B0741E067E673E08DE090E098
:1036F0000E948B0741E065E673E08EE090E00E9457
:103700008B0741E06AE673E08FE090E00E948B0750
:1037100041E063E673E080E190E00E948B0741E0C6
:1037200064E773E087E190E00E948B0741E063E982
:1037300073E088E190E00E948B0742E064EB71E067
:1037400081E190E00E948B0742E062EB71E083E14F
:1037500090E00E948B0742E069E573E085E190E02C
:103760000E948B0741E061EB71E08DE190E00E94E7
:103770008B078FEF9FE090938803809387031092CD
:103780008A03109289039093900380938F03109281
:10379000920310929103909382038093810310927D
:1037A00084031092830390937C0380937B03109295
:1037B0007E0310927D0360915B0370915C038091A6
:1037C0005D0390915E030E943C3220E030E044EBC8
:1037D00053E40E9492316B017C018091B60190917B
:1037E000B701BC01990F880B990B0E943C329B01D9
:1037F000AC01C701B6010E94F1320E94043260930D
:1038000051037093520380935303909354036B01BD
:103810007C01F594E794D794C794C0929C03D0920E
:103820009D03E0929E03F0929F0362E080E00E947D
:103830009D1762E081E00E949D1710928804C0925B
:103840008904D0928A04E0928B04F0928C04109246
:103850008D044A9B05C080918D04816080938D0406
:103860004B9B05C080918D04826080938D04809174
:1038700069008F7C806180936900EA9A8091690079
:103880008F73806480936900EB9A60E082E10E940C
:103890009D1760E083E10E949D1760E084E10E9433
:1038A0009D176E9A5798249A1092570310925603B8
:1038B00010925F03109260031092610310926203F2
:1038C000109255031092580361E080919C040E946D
:1038D0009D1760E080919D040E949D1711E0109358
:1038E0009E0460E080919C040E946D1710939E04DA
:1038F0000E9473196093D8047093D9048093DA04FA
:103900009093DB040E94731960367940810591051C
:1039100018F40E94FE17F6CF0E941B191092CC04D7
:103920006091740370E080E090E00E943A3220E001
:1039300030E040E85EE30E94F1329B01AC0160930D
:103940009F047093A0048093A1049093A20460E06C
:1039500070E080E89FE30E9492316093A30470932B
:10396000A4048093A5049093A60488E191E0909329
:10397000AA018093A9018DEB94E090937A0580933E
:10398000790588E09BE090937C0580937B05229AE3
:103990001091B101812F0E94B4075C019093AC019A
:1039A0008093AB019093B3018093B2016091B40115
:1039B0007091B50180E090E00E943A326B017C0189
:1039C000B50180E090E00E943A329B01AC01C70152
:1039D000B6010E9492316093AD017093AE01809365
:1039E000AF019093B001012F017010FD05C020E0E0
:1039F00030E04AEF54E404C020E030E04AE754E409
:103A0000609108017091090180910A0190910B0168
:103A10000E94F132609308017093090180930A01BA
:103A200090930B01011105C020E030E04AEF54E40F
:103A300004C020E030E04AE754E460910401709152
:103A4000050180910601909107010E94F132609377
:103A50000401709305018093060190930701011101
:103A600005C020E030E04AEF54E404C020E030E03C
:103A70004AE754E4609100017091010180910201D4
:103A8000909103010E94F132609300017093010153
:103A900080930201909303011092800010928100A4
:103AA00010926F0016BA8091AB019091AC01909387
:103AB00087008093860010928900109288001092EF
:103AC0008B0010928A008091B1018274823421F4BB
:103AD00080918100826003C0809181008160809329
:103AE00081008091B10180FF09C0809180008260D7
:103AF0008093800080918100806108C08091800067
:103B00008260809380008091810088618093810031
:103B100080E090E00E946710809180008068809330
:103B20008000259A80E090E00E945A1080918000E9
:103B3000806280938000269A61E083E00E949D1756
:103B400013E061E083E00E946D1764E170E080E0C3
:103B500090E00E944D1960E083E00E946D1764E1DF
:103B600070E080E090E00E944D19115051F71092E2
:103B7000750310927603109277031092780385E70D
:103B800093E00E94741080919C0390919D03A091FA
:103B90009E03B0919F03F8948093890490938A04C4
:103BA000A0938B04B0938C04789482E090E090937F
:103BB0007203809371038FEF97E09093700380936B
:103BC0006F0380917403809373030E94D9176093ED
:103BD000A0037093A1038093A2039093A3030E9478
:103BE000D9176093E3047093E4048093E504909301
:103BF000E6040091A4031091A5032091A60330913F
:103C0000A7036B017C01C01AD10AE20AF30AC09231
:103C1000DF04D092E004E092E104F092E20400912B
:103C2000A0031091A1032091A2033091A3036B0183
:103C30007C01C01AD10AE20AF30A40EDC41647E03B
:103C4000D406E104F10410F40C94872F6093A003D0
:103C50007093A1038093A2039093A303E2E21092D6
:103C600058038091560390915703829774F01092F5
:103C700057031092560310925F0310926003109244
:103C80006103109262031092550380915603909144
:103C900057038230910564F4892B09F42C9A8091A2
:103CA000560390915703019709F045C02C9843C0E3
:103CB0009C012170332780FD3AC099B1991F992743
:103CC000991F9093580380915503803258F5409185
:103CD0005F0350916003609161037091620301E0A2
:103CE00010E020E030E0082E04C0000F111F221F5A
:103CF000331F0A94D2F7992329F0402B512B622BC2
:103D0000732B08C0009510952095309540235123C2
:103D10006223732340935F035093600360936103B6
:103D2000709362038F5F80935503769A04C02130AD
:103D3000310509F4769880915603909157030196C6
:103D40009093570380935603E15009F088CFF8947D
:103D50008091890490918A04A0918B04B0918C0485
:103D6000789440919C0350919D0360919E037091C3
:103D70009F03841B950BA60BB70B8093980390931E
:103D80009903A0939A03B0939B0380939403909319
:103D90009503A0939603B0939703B0909303B5FA5D
:103DA000882780F9B6FC8260B7FE02C084601DC01F
:103DB0008130D9F46A017B01C094D094E094F094EE
:103DC0009A01AB012C193D094E095F0960918B03E3
:103DD00070918C0380918D0390918E030E94EE333D
:103DE0002FEF3FEF40E050E032C0823059F46A01DB
:103DF0007B01C094D094E094F094A0918503B0919D
:103E0000860319C0833059F46A017B01C094D094B1
:103E1000E094F094A0917F03B09180030CC08430B3
:103E200021F56A017B01C094D094E094F094A091B4
:103E30007903B0917A039A01AB012C193D094E091F
:103E40005F090E94E7302FEF3FE040E050E00E9422
:103E5000BD30C20ED31EE41EF51EC0929403D09254
:103E60009503E0929603F0929703C0909403D0904C
:103E70009503E0909603F09097038091EC04909165
:103E8000ED04A091EE04B091EF04C092EC04D09246
:103E9000ED04E092EE04F092EF042091F40422236A
:103EA00009F445C0A0901D0554E0A59E8001112491
:103EB00004511B4FA7019601281B390B4A0B5B0BC2
:103EC000CA01B9010E943C32D80119966D937D93C5
:103ED0008D939C931C971A2D0AE060E070E0CB0153
:103EE000B4E01B9FF0011124E451FB4F2185328582
:103EF000438554850E942131112311F0115001C0D6
:103F000019E0015069F720E030E040E251E40E94FE
:103F1000923121E02A0D2A3018F420931D0502C0A9
:103F200010921D0568A77CA78DA79EA70FC081E0F2
:103F30008093F4041092F0041092F1041092F204B1
:103F40001092F30418A61CA61DA61EA620911E05FD
:103F500030911F05409120055091210588A59CA511
:103F6000ADA5BEA580931E0590931F05A0932005C7
:103F7000B093210580912605882309F440C0A090C4
:103F80007705E4E0AE9E800111240B501B4F68A51D
:103F9000792FCD010E942031D801D2966D937D9367
:103FA0008D939C93D5971A2D04E160E070E0CB01CE
:103FB000B4E01B9FF0011124EB50FB4F22A933A961
:103FC00044A955A90E942131112311F0115001C0BB
:103FD00013E1015069F720E030E040EA51E40E942B
:103FE000923121E02A0D243118F42093770502C084
:103FF000109277056BAB7CAB8DAB9EAB0FC081E0B5
:104000008093260510922205109223051092240514
:10401000109225051BAA1CAA1DAA1EAA809178052C
:10402000882359F1B0FE44C70E949D139B01AC0147
:1040300060E070E080E094E40E9492314B015C010A
:1040400060916A0370E080E090E00E943C329B0146
:10405000AC01C501B4010E94F13220E030E048EC2F
:1040600052E40E9492310E940432AB01C701B601B2
:104070000E94AB142B013C011EC7EDEBF1E0FD8F5C
:10408000EC8F1B8A1A8A412C512C32010A891B8918
:104090000F5F1F4F1B8B0A8B4EE19801429F8001DF
:1040A000439F100D112407511E4FD8018C9183702E
:1040B000833009F0F0C60E949D136B017C01F8016A
:1040C00021853285A789B08D0E9418342FEF3FE7F4
:1040D00040E050E00E94BD30CA01B9010E943C326C
:1040E000A70196010E9492310E9404329B01AC010B
:1040F000D8011B968D919C911C97059730F4E4E0B4
:10410000F0E01C96FC93EE931B97FEE1EF2ECA881D
:10411000DB88EC9CF001ED9CF00D1124E751FE4F83
:10412000E1818E2F90E0FC013197ED30F10508F030
:104130009CC6EA5AFF4F0C9412340E949D136C8B5C
:104140007D8B8E8B9F8B2EE10A891B89209FC0015E
:10415000219F900D1124AC0147515E4F1A01DA01E5
:1041600019968D909C901A975596AD90BC90569745
:104170001F96CD90DC9050975196ED90FC90529701
:1041800053960D911C91549714962C911497139655
:104190004C91139757968D919C915897EC8DFD8D6E
:1041A000608171810E94AE139401DC010E94183479
:1041B0002FEF3FE740E050E00E94BD30CA01B90157
:1041C0000E943C322C893D894E895F890E94923140
:1041D0000E9404320E9425069B01AC01A091690354
:1041E000B0E00E94DC3024E630E040E050E00E9485
:1041F000BD30421A530A640A750A7EC10E949D139B
:104200006C8B7D8B8E8B9F8B6EE1E62ECA88DB8854
:10421000EC9CF001ED9CF00D1124E751FE4F01855F
:104220001285198F088FC588D688D9A2C8A2E784BD
:10423000F088FDA2ECA20189128918AB0FA70389AF
:1042400014891FAF0EAF84809380AC8DBD8D2D90EF
:104250003C90078510896085A7800A2C000CBB085C
:10426000062E000C770B6A197B09CB01770FAA0B7E
:10427000BB0B6627782F892F9A2F0E943C326B0147
:104280007C01B80180E090E00E943A3220E030E00A
:104290004AE754E40E9492319B01AC01C701B60188
:1042A0000E9492316B017C01C101B8010E94FE3372
:1042B000BC0180E090E00E943A3220E030E04AE722
:1042C00054E40E9492319B01AC01C701B6010E94E7
:1042D000F1320E940432BA2CAA24C501860F971F1E
:1042E000A8A0B9A0CCA0DDA0EFA4F8A80EAD1FAD8A
:1042F000282D492DB1010E94AE13288D398DDC0186
:104300000E9418342FEF3FE740E050E00E94BD309C
:10431000CA01B9010E943C322C893D894E895F89CE
:104320000E9492310E9404320E942506461A570AC2
:10433000680A790A9AC50E949D13688F798F8A8FBF
:104340009B8F5EE1C52EEA89FB89CE9EC001CF9E80
:10435000900D11248C0107511E4F1801D801199698
:104360000D90BC91A02DB9A3A8A3F801038CF48DE6
:10437000E02DFDA3ECA3D8015D96BC91BFA7F80189
:1043800083849484A588B688C784D088E188F2881D
:104390000389148924814381AC8DBD8D0D90BC911E
:1043A000A02DBD8BAC8B8789908DBD010E94AE1373
:1043B0008C01B40180E090E00E943A3220E030E0CD
:1043C0004AE754E40E9492319B01AC0160E070E046
:1043D00080E89FE30E9492316B017C018C899D896A
:1043E000B4010E94FE33BC0180E090E00E943A32AA
:1043F00020E030E04AE754E40E9492319B01AC0196
:10440000C701B6010E94F1326B017C01BFA56B2F81
:1044100070E080E090E00E943A3220E030E040E836
:104420005BE30E94F1329B01AC01C701B6010E941F
:1044300021312BED3FE049EC50E40E94F1320E9423
:104440005E339B01AC01ECA1FDA16F01FF0FEE08F3
:10445000FF08B801110F880B990B21962FAF2197F8
:1044600024963FAF249722964FAF229723965FAFB3
:1044700023970E943C3221962FAD219724963FAD81
:10448000249722964FAD229723965FAD23970E94E3
:10449000F1320E940432CB01770FAA0BBB0BA701AC
:1044A0009601280F391F4A1F5B1FA8A1B9A10E94BE
:1044B000DC302FEF3FE740E050E00E94BD30CA0102
:1044C000B9010E943C32288D398D4A8D5B8D0E9446
:1044D00092310E9404329B01AC01A0916803B0E0CC
:1044E0000E94DC3024E630E040E050E00E94BD3025
:1044F000420E531E641E751ED10116968C9116979E
:1045000082FFB3C41D966D917C911E9780E090E070
:104510000E943A322BED3FE049EC50E40E94F13228
:1045200020E030E040E058E30E94F1320E945E3328
:104530009B01AC01C301B20121962FAF21972496B4
:104540003FAF249722964FAF229723965FAF2397D2
:104550000E943C3221962FAD219724963FAD24979F
:1045600022964FAD229723965FAD23970E94F1329A
:104570000E9404322B013C0178C40E949D13688F75
:10458000798F8A8F9B8F4EE1E42ECA88DB88EC9C62
:10459000F001ED9CF00D1124E751FE4F01851285CD
:1045A00019A308A3238D348DA901330F660B770B54
:1045B0004CA35DA36EA37FA3558D5FA72384348492
:1045C000A588B688C784D088E188F28803891489D1
:1045D00024814381AC8DBD8D0D90BC91A02DBD8BF0
:1045E000AC8B8789908DBD010E94AE13BC01990FE1
:1045F000880B990B0E943C324B015C01B10180E0B9
:1046000090E00E943A3220E030E04AE754E40E9411
:1046100092319B01AC0160E070E080E89FE30E9472
:1046200092316B017C018C899D89B1010E94FE331E
:10463000BC0180E090E00E943A3220E030E04AE79E
:1046400054E40E9492319B01AC01C701B6010E9463
:10465000F1326B017C01BFA56B2F70E080E090E030
:104660000E943A3220E030E040E85BE30E94F13201
:104670009B01AC01C701B6010E9421312BED3FE047
:1046800049EC50E40E94F1320E945E336B017C01E0
:1046900020E030E0A9010E94EC3287FF0CC020E04E
:1046A00030E0A901C701B6010E948D3187FF05C026
:1046B000EFEFEFAB02C0F1E0FFABCFA86C2DCC0C5D
:1046C000770B880B990B0E943C329B01AC01C50112
:1046D000B4010E94F1320E940432CB01770FAA0B81
:1046E000BB0BDDC10E949D1368A379A38AA39BA382
:1046F0000EE1EA88FB880E9DF0010F9DF00D11245C
:10470000E751FE4F218532853DA32CA3238D348DA7
:10471000A901330F660B770B4FA758AB69AB7AAB88
:10472000358D638574857D8B6C8BA588B688C78431
:10473000D088E188F2880389148924814381AC8D73
:10474000BD8D0D90BC91A02DB98FA88F8789908DBC
:10475000BD0124963FAF24970E94AE131C01EC8943
:10476000FD89BF0180E090E00E943A324B015C017C
:1047700024963FAD249760E4630F70E080E090E002
:104780000E943A3220E030E040E85BE30E94F132E0
:10479000A50194010E94F1320E940B32888D998DFF
:1047A000860F971F6C897D890E94FE338C01BC01A6
:1047B00080E090E00E943A3220E030E04AE754E4A2
:1047C0000E9492316B017C0120E030E0A9010E943F
:1047D000EC3287FD3CC020E030E04AE754E4C501FC
:1047E000B4010E949231688F798F8A8F9B8F20E06D
:1047F00030E040E05FE30E94F1329B01AC01C70171
:10480000B6010E948D3187FF22C0B101032C000C3C
:10481000880B990B0E943C3220E030E040E850E4E5
:104820000E94F132288D398D4A8D5B8D0E94923124
:10483000A70196010E94F1320E9404323194219422
:1048400031086101C60ED71ED9AEC8AE51C020E0F6
:1048500030E04AE754E4C501B4010E9492314B01B3
:104860005C0120E030E040E05FE30E94F1329B0118
:10487000AC01C701B6010E94EC3287FD39C0A50129
:104880009401C701B6010E948D3187FF31C0B1018B
:10489000032C000C880B990B0E943C3220E030E086
:1048A00040E850EC0E94F132A50194010E9492313F
:1048B0006B017C018C899D8996958795B801681B51
:1048C000790B80E090E00E943A3220E030E04AE745
:1048D00054E40E9492319B01AC01C701B6010E94D1
:1048E000F1320E9404327101E60EF71EF9AEE8AE15
:1048F00008AD19ADC801110FAA0BBB0B2FA538A924
:1049000049A95AA9280F391F4A1F5B1FACA1BDA195
:104910000E94DC302FEF3FE740E050E00E94BD30C6
:10492000CA01B9010E943C3228A139A14AA15BA168
:104930000E9492310E9404329B01AC01A091680355
:10494000B0E00E94DC3024E630E040E050E00E941D
:10495000BD30420E531E641E751E87C20E949D13F9
:10496000688F798F8A8F9B8F4EE12A893B89429F7E
:10497000F001439FF00D1124E751FE4F61857285D0
:1049800079A368A3238D348DC901330FAA0BBB0B08
:104990008CA39DA3AEA3BFA3358D23843484A588A7
:1049A000B688C784D088E188F28803891489248175
:1049B0004381AC8DBD8D8D909C908789908DB40185
:1049C00024963FAF24970E94AE139D8B8C8BB10130
:1049D00080E090E00E943A326B017C0124963FAD6A
:1049E000249760E8630F70E080E090E00E943A3224
:1049F00020E030E040E85BE30E94F132A70196013D
:104A00000E94F1320E940B32C401860F971FB10140
:104A10000E94FE338C0182159305D8F5EC89FD893F
:104A2000BF01FF0F880B990B0E943C329B01AC0128
:104A30000E9421314B015C0120E030E04AE754E460
:104A4000C701B6010E9492319B01AC01C501B401BE
:104A50000E9492316B017C01B80180E090E00E94DD
:104A60003A3220E030E04AE754E40E9492319B0160
:104A7000AC01C701B6010E94F1320E9404322C89B8
:104A80003D893195219531096901C60ED71EDBAEEE
:104A9000CAAEEAACFBACC701FF0CAA0BBB0B2CA146
:104AA0003DA14EA15FA1280F391F4A1F5B1FA8A17E
:104AB000B9A10E94DC302FEF3FE740E050E00E94B8
:104AC000BD30CA01B9010E943C32288D398D4A8D12
:104AD0005B8D2ECF0E949D13688F798F8A8F9B8F5D
:104AE0002EE10A891B89209FF001219FF00D1124DE
:104AF000E751FE4F4185528559A348A3238D348D3C
:104B0000B901330F880B990B6CA37DA38EA39FA3D0
:104B1000358D23843484A588B688C784D088E188FD
:104B2000F2880389148924814381AC8DBD8D8D90D9
:104B30009C908789908DB40124963FAF24970E9462
:104B4000AE139D8B8C8BB10180E090E00E943A32D5
:104B50006B017C0124963FAD249760E8630F70E001
:104B600080E090E00E943A3220E030E040E85BE3F1
:104B70000E94F132A70196010E94F1320E940B328D
:104B8000C401860F971FB1010E94FE338C0182156C
:104B90009305D0F56C897D89719561957109072E12
:104BA000000C880B990B0E943C329B01AC010E94C7
:104BB00021314B015C0120E030E04AE754E4C701B9
:104BC000B6010E9492319B01AC01C501B4010E9463
:104BD00092316B017C01B80180E090E00E943A3292
:104BE00020E030E04AE754E40E9492319B01AC019E
:104BF000C701B6010E94F1320E940432EC89FD899E
:104C0000E60FF71FFDAFECAFCCACDDACC601DD0CA1
:104C1000AA0BBB0B44CF0EE1EA88FB880E9DF00186
:104C20000F9DF00D1124E751FE4F038D148DA091BF
:104C30006703B0E00E94DC3020E436E040E050E062
:104C40000E94BD3069017A0120919C0330919D033F
:104C500040919E0350919F03D8010E94E730DC01F0
:104C6000CB012FE0B595A795979587952A95D1F714
:104C7000092E000CAA0BBB0B409194035091950395
:104C800060919603709197038A019B01081B190B91
:104C90002A0B3B0BC901B801A6010E94AB14460EBA
:104CA000571E681E791EE1C08EE16A897B89869F46
:104CB000F001879FF00D1124E751FE4F038D148DF5
:104CC000A0916603B0E00E94DC3024E630E040E0D2
:104CD00050E00E94BD3069017A01B801110F880BC4
:104CE000990B0E943C322AE939EC4CEC54E40E94C6
:104CF00092319B01AC0168A57CA58DA59EA50E9463
:104D00002031A6010E94B80662C08EE1C82EAA8991
:104D1000BB89CA9EF001CB9EF00D1124E751FE4FD6
:104D2000038D148DA0916503B0E00E94DC3024E671
:104D300030E040E050E00E94BD3069017A01B801E6
:104D4000110F880B990B0E943C3220E03EEF4FEF91
:104D500056E40E9492319B01AC016BA97CA98DA9FC
:104D60009EA90E942031A6010E94500630C00EE18B
:104D7000EA88FB880E9DF0010F9DF00D1124E7518C
:104D8000FE4F038D148DA0916403B0E00E94DC30CF
:104D900024E630E040E050E00E94BD3069017A0135
:104DA000B801110F880B990B0E943C322AE939ECAB
:104DB0004CEC54E40E9492319B01AC0168A57CA5A7
:104DC0008DA59EA50E942031A6010E94EF14092EF8
:104DD000000CAA0BBB0B480E591E6A1E7B1E45C059
:104DE0000E949D139B01AC018EE16A897B89869F9D
:104DF000F001879FF00D1124E751FE4F838D948DB4
:104E0000BC01990F880B990B21962FAF21972496FF
:104E10003FAF249722964FAF229723965FAF2397F9
:104E20000E943C3221962FAD219724963FAD2497C6
:104E300022964FAD229723965FAD23970E94923121
:104E40000E9404320E9425069B01AC01A0916803D8
:104E5000B0E00E94DC3024E630E040E050E00E9408
:104E6000BD30421A530A640A750A0E9473190091F0
:104E7000B9011091BA012091BB013091BC01DC0154
:104E8000CB01801B910BA20BB30BEC8DFD8D8083AE
:104E90009183A283B3830C8D1D8D0C5F1F4F1D8FDB
:104EA0000C8F2A893B892B30310509F0EFC803C0EC
:104EB000412C512C32011091930311FF3DC00E94EF
:104EC0009D139B01AC01E091660367E471E0E69FEE
:104ED000C001E79F900D1124BC0180E090E0219675
:104EE0002FAF219724963FAF249722964FAF22975A
:104EF00023965FAF23970E943C3221962FAD2197D6
:104F000024963FAD249722964FAD229723965FAD0E
:104F100023970E9492310E940432AB0168A57CA5C0
:104F20008DA59EA50E94B806092E000CAA0BBB0BEE
:104F3000480E591E6A1E7B1E12FF3DC00E949D1323
:104F40009B01AC01E091650367E471E0E69FC0015D
:104F5000E79F900D1124BC0180E090E021962FAFD7
:104F6000219724963FAF249722964FAF22972396FE
:104F70005FAF23970E943C3221962FAD2197249654
:104F80003FAD249722964FAD229723965FAD23978E
:104F90000E9492310E940432AB016BA97CA98DA9B9
:104FA0009EA90E945006092E000CAA0BBB0B480EAE
:104FB000591E6A1E7B1E13FF3DC00E949D139B015C
:104FC000AC01E091640367E471E0E69FC001E79FF4
:104FD000900D1124BC0180E090E021962FAF219725
:104FE00024963FAF249722964FAF229723965FAF28
:104FF00023970E943C3221962FAD219724963FADF6
:10500000249722964FAD229723965FAD23970E9457
:1050100092310E940432AB0168A57CA58DA59EA5A6
:105020000E94EF14092E000CAA0BBB0B480E591E50
:105030006A1E7B1E40919C0350919D0360919E03CC
:1050400070919F038091940390919503A091960392
:10505000B0919703CC24DD247601C41AD50AE60A60
:10506000F70A8C159D05AE05BF0534F048175907A2
:105070006A077B070CF045C0B7FD05C0841B950B84
:10508000A60BB70B04C0840F951FA61FB71F8093F4
:10509000940390939503A0939603B09397030E9473
:1050A0009D139B01AC0160E07EEF8FEF96E40E94C0
:1050B00092316B017C016091630370E080E090E0CD
:1050C0000E943C329B01AC01C701B6010E94F13243
:1050D00020E030E048EC52E40E9492310E94043219
:1050E0006B017C016091940370919503809196030C
:1050F00090919703A6010E94AB14460E571E681E9E
:10510000791EA091B801B0E0A30192010E94DC30A9
:1051100024E630E040E050E00E94BD30CA01B90111
:105120000E9425066B017C0114FF04C00E94B11689
:105130000E945616C0927503D0927603E0927703D0
:10514000F0927803609198037091990380919A038B
:1051500090919B030E943C326B017C016091510352
:105160007091520380915303909154030E943C32FA
:105170009B01AC0160E07FEF8FE797E40E949231E2
:105180009B01AC01C701B6010E94F1320E940432BA
:105190004B015C01611570488105910534F088244C
:1051A0008A940FE7902EA12CB12C811440E894062C
:1051B0004FEFA406B40634F4812C10E8912EAA24F3
:1051C000AA94BA2C8092980390929903A0929A0381
:1051D000B0929B0385E793E00E94741010917403D2
:1051E00080917303181741F1612F70E080E090E027
:1051F0000E943A3220E030E040E85EE30E94F13263
:105200009B01AC0160939F047093A0048093A10460
:105210009093A20460E070E080E89FE30E949231E6
:105220006093A3047093A4048093A5049093A604B0
:10523000109373030E941B190E94FE174091D10422
:105240005091D204A0E0C12CD12C76012A2F30E05D
:10525000241735078CF4220F331F220F331FF90157
:10526000E456FB4F0385148525853685C00ED11E77
:10527000E21EF31EAF5FEACFD701C6010090BF0464
:1052800004C0B595A795979587950A94D2F7809312
:10529000D3049093D404A093D504B093D604009182
:1052A000AF041091B0042091B1043091B204BC015C
:1052B000CD01601B710B820B930B0E943C3220913D
:1052C000A3043091A4044091A5045091A6040E9427
:1052D000F1320E9404322B013C0120908503309072
:1052E000860380918703909188032816390624F459
:1052F00030928803209287038091890390918A03DA
:105300008215930524F430928A03209289038091B8
:105310008F0390919003092E000CAA0BBB0B48162B
:1053200059066A067B0624F45092900340928F033C
:105330008091910390919203092E000CAA0BBB0B54
:1053400084159505A605B70524F450929203409262
:10535000910320917F03309180038091810390918C
:1053600082032817390724F43093820320938103A2
:1053700080918303909184038217930724F43093E0
:10538000840320938303C0907903D0907A03DB8A4F
:10539000CA8A80917B0390917C03C816D90624F4B5
:1053A000D0927C03C0927B0380917D0390917E0319
:1053B000EA88FB888E159F0524F4F0927E03E09224
:1053C0007D03009171031091720380918703909186
:1053D0008803800F911F6C01E12CF12CCC8EDD8EA7
:1053E000EE8EFF8EC0908103D0908203C00ED11E3E
:1053F000E12CF12CC901330FAA0BBB0B9C01AD01B1
:105400002C193D094E095F09AFEFBFE00E94DC3067
:105410002091830330918403201B310B40E050E046
:105420002C193D094E095F090E94BD3028A739A7F4
:105430004AA75BA780917B0390917C03800F911F0B
:105440006C01E12CF12C2A893B89C901330FAA0B8D
:10545000BB0B9C01AD012C193D094E095F09AFEF53
:10546000BFE00E94DC3020917D0330917E03201B41
:10547000310B40E050E02C193D094E095F090E94B4
:10548000BD302C8B3D8B4E8B5F8B9101330C440BCD
:10549000550BCC8CDD8CEE8CFF8C2C193D094E0904
:1054A0005F09AFEFBFE00E94DC30209189033091AB
:1054B0008A03201B310B890120E030E0A90198010B
:1054C0002C193D094E095F090E94BD30211500E1EC
:1054D000300714F02FEF3FE037FF02C020E030E04C
:1054E0003093860320938503E8A5F9A5E11510E123
:1054F000F10714F0EFEFFFE0F7FF02C0E0E0F0E0AB
:10550000F0938003E0937F036C897D89611540E10E
:10551000740714F06FEF7FE077FF02C060E070E087
:1055200070937A036093790380916F039091700375
:10553000A0E0B0E0481659066A067B064CF41092CB
:105540008B0310928C0310928D0310928E030CC06B
:10555000481A590A6A0A7B0A40928B0350928C03BC
:1055600060928D0370928E0340908B0350908C0359
:1055700060908D0370908E034114510451E06506D4
:1055800071042CF044244A94542C612C712C77FE25
:1055900003C0412C512C320140928B0350928C035A
:1055A00060928D0370928E0380915F0390916003EF
:1055B000A0916103B0916203482F4F70413081F098
:1055C000423081F0443081F0483081F0433081F046
:1055D000463081F0493081F04C3081F040E00FC01E
:1055E00041E00DC043E00BC045E009C047E007C003
:1055F00042E005C044E003C048E001C046E0807FCF
:10560000842B80936B0390936C03A0936D03B093F2
:105610006E03A401505849835A834B825C822D83C8
:105620002E2F2295207F232B2E836F0124E0D694EA
:10563000C7942A95E1F7CF826887282F2295207F8B
:10564000272B2987AC01BD0134E0769567955795E6
:1056500047953A95D1F74A87AC01BD01ECE07695C4
:10566000679557954795EA95D1F74B87F4E1B6953D
:10567000A79597958795FA95D1F78C874CE050E0E0
:10568000BE016F5F7F4F84E00E94E70A8091DF04D4
:105690009091E004A091E104B091E204803197423E
:1056A000A105B10508F433C48EE894E00E949A0D78
:1056B000181619060CF01BC48EE894E00E94600DC9
:1056C000E82F8FE98E0F8A3108F4E0528E2F90E098
:1056D000FC01E154F109EA31F10508F008C4ED5983
:1056E000FF4F0C9412346091B6017091B701072EF0
:1056F000000C880B990B0E94B11680E20E944B1699
:105700008091B8010E94EB1680E20E944B168091B6
:1057100066030E94EB1680E20E944B1680916403A0
:105720000E94EB1680E20E944B16809169030E9452
:10573000EB1680E20E944B16809168030E94EB16E4
:1057400080E20E944B16809167030E94EB1680E274
:105750000E944B16809165030E94EB1680E20E9426
:105760004B1680916A030E94EB1680E20E944B1652
:10577000809163030E94EB1680E20E944B166091B9
:10578000B4017091B50180E090E04AE00E94641697
:1057900080E20E944B16809174030E94EB1680E217
:1057A0000E944B16809193030E94EB1680E20E94A8
:1057B0004B166091B2017091B30180E090E04AE035
:1057C0000E94641680E20E944B1660915B03709108
:1057D0005C0380915D0390915E030E94B11680E2AC
:1057E0000E944B166091B10170E096C283E991E08E
:1057F0000E94F2166AEF70E080E090E00E94B1161D
:1058000088E991E00E94F2168AE991E00E94F2167E
:105810008CE991E00E94F2168EE991E00E94F21666
:1058200080EA91E00E94F21682EA91E00E94F2166C
:1058300084EA91E00E94F2165AC38091EB04082E8C
:10584000000C990B52C3F894C0908904D0908A043C
:10585000E0908B04F0908C0478948091B201909148
:10586000B3012091B4013091B501821B930B969541
:10587000879596958795A0E0B0E089839A83AB835E
:10588000BC83CE0101960E947410D701C6011EEFA1
:10589000F8948090890490908A04A0908B04B09032
:1058A0008C04789488159905AA05BB0554F46CE21C
:1058B00071E080E090E00E944D191150D501C401C3
:1058C00039F719821A821B821C82CE0101960E942E
:1058D00074108091510390915203A0915303B091A1
:1058E0005403F8948093890490938A04A0938B04C2
:1058F000B0938C047894C814D904EA04FB0411F41E
:1059000082E001C081E08093EB04EDC20E94F416B6
:10591000611101C061E060937403E5C28FEF9FE005
:10592000909388038093870310928A0310928903CF
:105930009093900380938F0310929203109291039F
:1059400090938203809381031092840310928303C7
:1059500090937C0380937B0310927E0310927D03CF
:10596000C2C2F8944090890450908A0460908B04DD
:1059700070908C04789480919C0390919D03A091E9
:105980009E03B0919F03481A590A6A0A7B0A8091C4
:10599000E7049091E804A091E904B091EA04480E6C
:1059A000591E6A1E7B1E0E94F41664307105810523
:1059B000910594F06B017C0171ECC71677E2D70674
:1059C00079E0E706F1046CF010ECC12E17E2D12E5D
:1059D00019E0E12EF12C05C0B4E0CB2ED12CE12C46
:1059E000F12CC982DA82EB82FC826091B60170915F
:1059F000B701072E000C880B990B0E943C324B011B
:105A00005C01C301B2010E943C32A50194010E94D5
:105A1000F1322B013C01609151037091520380914E
:105A20005303909154030E943C329B01AC01C3018B
:105A3000B2010E9492312B013C01C0925B03D092D3
:105A40005C03E0925D03F0925E03C701B60193C070
:105A500080919C0390919D03A0919E03B0919F0320
:105A6000F8948093890490938A04A0938B04B09354
:105A70008C04789455C1F8948090890490908A049D
:105A8000A0908B04B0908C04789480919C039091AA
:105A90009D03A0919E03B0919F03881A990AAA0AB8
:105AA000BB0A8091E7049091E804A091E904B091C9
:105AB000EA04880E991EAA1EBB1E0E94F4166E31BF
:105AC00071058105910584F06B017C0189E0C816A0
:105AD00087E0D806E104F10464F0A8E0CA2EA7E04C
