:100000000C940E040C9436040C9424060C946C0688
:100010000C9448060C9436040C9436040C94360464
:100020000C9436040C9436040C948B090C942E0713
:100030000C9436040C9436040C9436040C94360458
:100040000C9436040C9436040C9436040C94360448
:100050000C9436040C9436040C9436040C948B18CF
:100060000C9436040C9436040C9436040C94360428
:100070000C9436040C9436040C9436040C94360418
:100080000C9436040C9436040C9436040C94360408
:100090000C94850E0C9436040C9436040C9436049F
:1000A0000C9436040C9436040C943604641FC51F5B
:1000B0007C21622031222C246D23CD241625472556
:1000C0007925F325B225AB2CA32A422B8F2D202C8A
:1000D0001C2D552BA82C8F2D8F2D8F2D8F2D8F2DD7
:1000E0008F2DCE2AAB2A8F2D402A3A2A8F2D902988
:1000F000132A502C8F2DA82CA82C562D5B2D382D73
:100100003D2D8F2D422D332D8F2D512D602D8F2D77
:100110008F2D4C2D8F2D8F2D8F2D8F2D8F2D472D8A
:1001200097109C10A110AB10F510F510F510B5103C
:10013000BF10C910D310E010F510E81037163A16AA
:100140002D1631165B165B165B163E1642164616CA
:100150004C1650165B16561605A84CCDB2D44EB9A7
:100160003836A9020C50B9918688083CA6AAAA2A5A
:10017000BE000000803F00000000000000002A2BAD
:100180002800000000000000000000000000000047
:100190000000000000002C9EB4A0A1A2A434A6A7D9
:1001A000A5AE362D3738271E1F20212223242526D1
:1001B000B333B62EB7B89F8485868788898A8B8C9F
:1001C0008D8E8F909192939495969798999A9B9CE7
:1001D0009D2F3130A3AD350405060708090A0B0C25
:1001E0000D0E0F101112131415161718191A1B1CC7
:1001F0001DAFB1B0B500080B0002020201000904F6
:100200000000010202000005240010010524010184
:1002100001042402060524060001070581031000DD
:100220004009040100020A00000007050202400024
:1002300000070583024000000904020002030000D9
:100240000009210101000122E104070584034000A7
:10025000010705050340000105010904A10185040A
:100260000901A1000930170000000027FFFF00006E
:10027000350047FFFF000075109501810209311616
:10028000000027FFFF0000350047FFFF000075104A
:1002900095018102093216000027FF0F000035008A
:1002A00047FF0F0000750C9501810209331600000D
:1002B00027FF0F0000350047FF0F0000750C950168
:1002C0008102093416000027FF0F0000350047FFA8
:1002D0000F0000750C9501810209391501250835BB
:1002E00000463B016514550075049501810205091E
:1002F000150025015500650019012918750195188B
:10030000810285F10901150026FF00953F750891CE
:100310008285F20901953F75088182C0050F099217
:10032000A1028502099F09A009A409A509A6150033
:10033000250135004501750195058102950381036D
:1003400009941500250135004501750195018102CB
:1003500009221501252835014528750795018102D7
:10036000C00921A102850109221501252835014571
:10037000287508950191020925A102092609270976
:100380003009310932093309340940094109420968
:1003900043250B15013501450B750895019100C0EA
:1003A00009500954150027FFFF0000350047FFFFE3
:1003B000000066011055FD7510950291025500660A
:1003C00000000952150026FF7F350046FF7F75109B
:1003D0009501910209531501250835014508750855
:1003E000950191020955A102050109300931150055
:1003F0002501750195029102C0050F0956950191DD
:1004000002950591030957A1020B01000A000B0296
:10041000000A0066140055FE150026FF7F350047D0
:100420009F8C00007510950191025500660000C078
:10043000050F09A766011055FD150027FFFF0000F5
:10044000350047FFFF00007510950191026600001E
:100450005500C0050F095AA1028502092215012580
:100460002835014528750895019102095B095D153C
:100470000026FF00350046FF7F75089502910209AE
:100480005C095E66011055FD26FF7F46FF7F7510F3
:10049000950291026600005500C0095FA102850324
:1004A0000922150125283501452875089501910275
:1004B00009231500250135004501750495019102B8
:1004C0000958A1020B01000A000B02000A00750284
:1004D00095029102C0096016008026FF7F360080D9
:1004E00046FF7F751095019102096136008046FF35
:1004F0007F95019102150026FF7F350046FF7F0999
:10050000637510950191020965150026FF0046FFED
:100510007F750895019102C0096EA1028504092228
:1005200015012528350145287508950191020970A6
:10053000150026FF7F350046FF7F7510950191025B
:10054000096F16008026FF7F36008046FF7F9501E9
:1005500091020971150026FF0035004667016614F7
:10056000005500750895019102097227FFFF0000F0
:1005700047FFFF000066011055FD751095019102BF
:100580006600005500C00973A10285050922150106
:100590002528350145287508950191020970160135
:1005A0008026FF7F36018046FF7F751095019102FE
:1005B000C00974A1028506092215012528350145C7
:1005C00028750895019102097509761581257F36F0
:1005D000018046FF7F750895029102C0050F0977DB
:1005E000A102850A0922150125283501452875082B
:1005F000950191020978A1020979097A097B15010F
:100600002503750895019100C0097C150026FF009F
:10061000350046FF009102C00990A102850B092216
:100620001501252835014528750895019102C00955
:1006300096A102850C099709980999099A099B09BD
:100640009C15012506750895019100C0097DA10240
:10065000850D097E150026FF003500461027750818
:1006600095019102C009ABA10285050925A10209E6
:1006700026092709300931093209330934094009AB
:1006800041094209431501250B3501450B750895B4
:1006900001B100C00501093B150026FF01350046E8
:1006A000FF01750A9501B1027506B101C0050F0978
:1006B00089A10285060922252815013501452875DD
:1006C000089501B102098BA102098C098D098E25BB
:1006D0000315013501450375089501B100C009AC4A
:1006E000150027FFFF0000350047FFFF00007510D1
:1006F0009501B100C0097FA1028507098075109599
:1007000001150027FFFF0000350047FFFF0000B183
:1007100002098326FF0046FF0075089501B1020912
:10072000A909AA750195021500250135004501B1F9
:100730000275069501B103C0C01803410072006440
:1007400000750069006E006F0020004C004C0043F3
:10075000000403090422034100720064007500696B
:10076000006E006F0020004C0065006F006E00619D
:1007700000720064006F001201000200000040419E
:100780002336800001010200011201000202000074
:10079000404123368000010102000100C18081C177
:1007A000C000000000240027002A002D00300000B7
:1007B000000000250028002B002E00310004040456
:1007C00004040304050202020204030202020206F8
:1007D00006060606060404020202040404080201D6
:1007E000104080401020408040800802040180407A
:1007F0002010020110801020404020000000020064
:10080000080E0000030401000B00000000000000BF
:1008100000000000000000000000A92D11241FBEF0
:10082000CFEFDAE0DEBFCDBF11E0A0E0B1E0ECE752
:10083000F3E602C005900D92A83AB107D9F725E07A
:10084000A8EAB1E001C01D92AC35B207E1F714E0AF
:10085000CEE0D4E004C02197FE010E94AA31CD3041
:10086000D107C9F70E94D5180C94BC310C94000034
:100870008C30F8F4282F30E09EE1899FF00111249C
:10088000E651FE4F90819923A1F090819D7F908346
:10089000F901EC54FC4F958191110BC0E091A90135
:1008A000F091AA010084F185E02D09951092C4030E
:1008B00008950895FC01CB012091E80022FFFCCFB0
:1008C000282F215028F03091F10030833196F9CF54
:1008D00024E62093A8032BEF2093E80008950F93BC
:1008E0001F93CF93DF93DB01A40FB51FFB016EEFC6
:1008F000EA17FB0791F187FF02C0249101C0208114
:100900000091AC031091AD03C091AA03D091AB0349
:100910000C171D07B4F49091E8009570E1F39091E5
:10092000E80092FD1CC02093F1002091AC033091AF
:10093000AD032F5F3F4F2F733327232B11F46093A9
:10094000E8002091AC033091AD032F5F3F4F30930F
:10095000AD032093AC033196CBCFCA0102C08FEF19
:100960009FEFDF91CF911F910F910895CF93DF9368
:1009700000D000D01F92CDB7DEB7FC0181819081FD
:10098000913A29F5813009F0BCC08281863051F45A
:1009900045E050E06FEA73E080E40E946F0410923B
:1009A000AF03AFC0873009F0ACC089838FEF9FEFF2
:1009B0009B838A838BE08C8383E08D8345E050E0CA
:1009C000BE016F5F7F4F80E40E946F049AC0913236
:1009D00009F097C0893009F094C08281853009F010
:1009E00090C064E070E0CE0101960E945A0486E057
:1009F0008093AF0380910F018B3021F1A0910F0103
:100A000081E08A0F80930F019EE1E0910F019E9F8C
:100A1000F0011124E651FE4F8081882351F080912E
:100A20000F018B3030F480910F018F5F80930F01A5
:100A3000ECCF8EE1A89FF0011124E651FE4F81E03A
:100A4000808301C0A0E0A093B003A11104C082E0A4
:100A50008093B10350C01092350581E08093B103BB
:100A60008A819EE1A99FD0011124A651BE4F119603
:100A70008C9311978FEF9FEF50969C938E931F97B7
:100A800054961C921E92539752961C921E92519706
:100A900013968C93139714968C93149756961C92D6
:100AA0001E9255971E961C921E921D9716961C928A
:100AB00016978FEF9FE71A969C938E9319975896E7
:100AC0001C921E9257975C961C921E925B975D96A5
:100AD0001C925D9788EE93E01C969C938E931B97D7
:100AE000E091A901F091AA010684F785E02DBD01EE
:100AF000CE01019609958FEF9FEF9093B3038093FA
:100B0000B20381E00F900F900F900F900F90DF9144
:100B1000CF91089542E450E066EF71E080E80E94D2
:100B20006F0440E250E068E372E080E80E946F04E6
:100B300083E090E00895EF92FF921F93CF93DF93AD
:100B4000EC01162FE881F9810480F581E02D0995EB
:100B50007C01E881F9810680F781E02D612FCE01CB
:100B60000995C7019927DF91CF911F91FF90EF90D1
:100B70000895FC0191818081813A29F49D7F81E073
:100B8000913091F414C0813279F49A3049F09B305D
:100B900019F0993049F40AC0828180930E0106C091
:100BA000828180930D0102C080E0089581E0089564
:100BB0008C30F0F49EE1899FF0011124E651FE4F44
:100BC00080818823A9F08081826080838091C40322
:100BD00081110EC00E94CC176093BA017093BB01C3
:100BE0008093BC019093BD0181E08093C40308957C
:100BF0000895CF92DF92EF92FF920F931F938B0194
:100C00009C014091B2015091B3016A01E12CF12C99
:100C100066277727CB016C197D098E099F09061776
:100C20001707280739074CF0C901B801C016D106CB
:100C3000E206F30614F4C701B6011F910F91FF906D
:100C4000EF90DF90CF9008951F920F920FB60F9202
:100C500011248F939F93AF93BF93809156039091EC
:100C60005703A0915803B0915903F89480938904D5
:100C700090938A04A0938B04B0938C047894BF91D2
:100C8000AF919F918F910F900FBE0F901F9018956D
:100C90001F920F920FB60F9211242F933F934F93F1
:100CA0005F936F937F938F939F93AF93BF93EF93D4
:100CB000FF930E946F16FF91EF91BF91AF919F91AB
:100CC0008F917F916F915F914F913F912F910F90F5
:100CD0000FBE0F901F9018951F920F920FB60F9294
:100CE00011242F933F934F935F936F937F938F9331
:100CF0009F93AF93BF93EF93FF930E946F16FF9163
:100D0000EF91BF91AF919F918F917F916F915F9183
:100D10004F913F912F910F900FBE0F901F901895FC
:100D2000CF92DF92EF92FF920F931F93CF93DF93B7
:100D30001F92CDB7DEB7F82EE42E8B01C82ED92E28
:100D40008C2D8F198E1588F4F80161918F01C601E1
:100D500069830E943F2E6981681719F0C6010E94BD
:100D6000472EFFEFCF1ADF0AEBCF0F90DF91CF9125
:100D70001F910F91FF90EF90DF90CF900895CF9249
:100D8000DF92EF92FF920F931F93CF93DF931F9207
:100D9000CDB7DEB78B016B017C01E61AF70A9C2DFB
:100DA000901B941758F4C7018C0D9D1D49830E9418
:100DB0003F2EF60181936F014981F1CF0F90DF91B2
:100DC000CF911F910F91FF90EF90DF90CF900895FA
:100DD0008F929F92AF92BF92CF92DF92EF92FF924B
:100DE00040E050E020E0682F70E0812C912C54010D
:100DF0008394FA013296DB0102C0B595A795EA9576
:100E0000E2F775016401042E04C0CC0CDD1CEE1C5D
:100E1000FF1C0A94D2F7A0FF02C02C2902C0C09484
:100E20002C214F5F5F4F4430510519F730E0220FFE
:100E3000331FF901EC5CFE4F80FF05C0808191817A
:100E40009695879502C080819181FF90EF90DF9009
:100E5000CF90BF90AF909F908F9008951F920F9268
:100E60000FB60F921124EF92FF921F932F933F938F
:100E70004F935F936F937F938F939F93AF93BF93A2
:100E8000EF93FF93CF93DF93CDB7DEB76197DEBFCC
:100E9000CDBF1092E9008091E80083FF59C1FE01A7
:100EA0003A96CF0128E02E0F2E1729F03091F1004D
:100EB00030833196F9CF24E62093A80322EF2093C4
:100EC000E8002A8527FF05C03091E80030FFFCCFFD
:100ED00003C03EEF3093E800322F307609F0C5C0F2
:100EE0008B85811105C01092F1001092F10029C18B
:100EF000982F9D7F913009F424C1853049F4809169
:100F0000E80080FFFCCF8C8580688093E30019C1E6
:100F1000863009F07CC01D85E888F9881092E900C8
:100F20001092AD031092AC03123091F51092AB0306
:100F30001092AA030E948A0599E0BE016F5F7F4F5D
:100F4000FB01292F11922A95E9F799831A8391E0E1
:100F50009E8390E898879AEF99872091AC0330910F
:100F6000AD03275F3F4F3C832B838D831092E900B5
:100F70001092AD031092AC03F092AB03E092AA037F
:100F800049E050E080E00E946F040E948A05D9C0C9
:100F9000F092AB03E092AA03123259F441EE54E00E
:100FA00068E572E080E80E946F04892B09F0C9C0EF
:100FB000CCC0113069F488899989089711F410938D
:100FC000A9038091A903811111C067E777E016C0DA
:100FD000133009F0BAC08C85882359F0823061F053
:100FE000813009F0B2C069E377E008C069E877E0D2
:100FF00005C061E577E002C065E577E06115710540
:1010000009F4A3C0FB01449150E080E849C0873057
:1010100009F49BC0883021F481E08093F10091C0F5
:10102000893009F08EC0237009F08FC080E090E015
:1010300031E026E341E0480F4093E9003093EB00B4
:101040000196FC01E556F84FE491E093EC00209303
:10105000ED008530910571F78EE78093EA001092DC
:10106000EA008C858093A8016CC028893989109288
:10107000E9001092AD031092AC033093AB032093C0
:10108000AA032E85211154C08B859A85913A59F473
:10109000813209F05AC047E050E060E171E080E041
:1010A0000E946F044EC0913209F04FC0803239F473
:1010B00067E070E080E191E00E945A0442C0823211
:1010C00009F043C08C8580931701809110019091A5
:1010D0001101A0911201B0911301803B9440A10530
:1010E000B10579F58091170180FD11C087E797E779
:1010F00090930108809300089BE088E10FB6F89474
:10110000A895809360000FBE909360001AC00FB640
:10111000F894A89580916000886180936000109297
:1011200060000FBEA895109201081092000809C037
:10113000223059F4E0913605F0913705099588235E
:1011400021F08EEF8093E80003C081E28093EB00F2
:1011500061960FB6F894DEBF0FBECDBFDF91CF9181
:10116000FF91EF91BF91AF919F918F917F916F917F
:101170005F914F913F912F911F91FF90EF900F90B2
:101180000FBE0F901F9018958F929F92AF92BF92B3
:10119000CF92DF92EF92FF920F931F93CF93DF9343
:1011A00000D01F92CDB7DEB7382F8B018091A801F8
:1011B000882389F04A018AEFF82E832F8770E82E62
:1011C00090E4C92E832F8072B82E2AE3D22E832F6B
:1011D0008074A82E21C08FEF9FEF5FC08FB7F89467
:1011E000E092E9009091E80095FF1AC09091F2001A
:1011F0002C2D291B8FBF211115C0FA94FF2059F304
:1012000061E070E080E090E039834A835B830E9474
:10121000A61739814A815B8181149104F9F634C0A3
:1012200020E0E8CF822F90E0881699060CF4282D54
:10123000822F90E0881A990A6FB7F894E092E9003B
:10124000BB2029F02150A8F01092F100FBCFF8014B
:1012500037FF07C0215058F074917093F100319618
:10126000F9CF215020F071917093F100FACF080F5F
:10127000191F8091E80085FF0DC08114910411F4BD
:10128000A11008C06FBFC8CF5D9884E68093AE03FD
:10129000CA0103C0D092E800F5CF0F900F900F90D5
:1012A000DF91CF911F910F91FF90EF90DF90CF9042
:1012B000BF90AF909F908F9008959091A80199232F
:1012C00011F057FF03C08FEF9FEF08952FB7F894E9
:1012D00087708093E9008091F20090E08417950771
:1012E0000CF4AC01842FFB0194E6815030F0909314
:1012F000A8033091F1003193F8CF4115510521F049
:101300008091F200882319F02FBFCA0108958BE65F
:101310008093E800F9CF1F920F920FB60F9211241D
:101320002F933F934F935F936F937F938F939F93ED
:10133000AF93BF93EF93FF93CF93DF93CDB7DEB718
:10134000C054D109DEBFCDBF8091E1001092E10011
:1013500083FF0FC01092E90091E09093EB00109290
:10136000EC0092E39093ED001092A80198E0909326
:10137000F00082FF46C083E08093E9008091F20094
:10138000882319F08AE38093E8009FB7F89482E0FD
:101390008093E9008091F2009FBF882321F08EE8BE
:1013A00094E00E944A0E9FB7F89485E08093E9008C
:1013B0008091F2009FBF8823C1F080913805909101
:1013C0003905892B91F040E450E0BE016F5F7F4FFB
:1013D00085E00E945D0997FD08C0E0913805F09115
:1013E0003905BC01CE01019609958091AE03882391
:1013F00041F08091AE0381508093AE03811101C012
:101400005D9AC05CDF4F0FB6F894DEBF0FBECDBF54
:10141000DF91CF91FF91EF91BF91AF919F918F910C
:101420007F916F915F914F913F912F910F900FBEE0
:101430000F901F901895EF92FF920F931F93CF93E9
:10144000DF931F92CDB7DEB789838B017A0141E02C
:1014500050E0BE016F5F7F4F84E00E94C408A70187
:10146000B80184E40E94C4080F90DF91CF911F91CE
:101470000F91FF90EF9008951F93CF93DF93DC01BE
:1014800011961C9111979C91953009F467C060F5F5
:10149000923009F443C0A8F4913009F04DC1E091B5
:1014A000A901F091AA012EE1129FB0011124665109
:1014B0007E4F028CF38DE02DCD01DF91CF911F91F6
:1014C00009949330C9F1943009F036C1E091A90133
:1014D000F091AA012EE1129FB001112466517E4FB6
:1014E0000488F589E02D35C09B3009F49DC038F49F
:1014F000963009F441C09A3009F44CC01DC19C30AB
:1015000009F4CBC0913F09F017C140E450E0BD01A0
:1015100082EFDF91CF911F910C941B0AE091A901FA
:10152000F091AA013EE1139FB001112466517E4F54
:101530000088F189E02D0DC0E091A901F091AA0188
:101540008EE1189FB001112466517E4F0288F38905
:10155000E02DCD01DF91CF911F910994E091A90178
:10156000F091AA013EE1139FB001112466517E4F14
:101570000688F789E02DEDCFE091A901F091AA014D
:101580008EE1189FB001112466517E4F008CF18DC1
:10159000E02DDFCF1F3F09F41FE712969C91913099
:1015A00099F4812F0E94D805E12FF0E0EC54FC4F14
:1015B00085818111C1C0E091A901F091AA01068045
:1015C000F781E02D812F47C0923029F5C1E08C2FA3
:1015D0000E943804CF5FCC30D1F7C12FD0E0CC547B
:1015E000DC4F8D81811109C0E091A901F091AA0120
:1015F0000084F185E02D8FE70995812F0E94D805A1
:101600008D81811199C0E091A901F091AA01068014
:10161000F781E02D1FC0933009F08EC0812FDF913C
:10162000CF911F910C94380481E01F3FC1F4809347
:101630000F0188E691E0EAEEF1E0DF019C011D92E6
:1016400021503040E1F7E091A901F091AA01028414
:10165000F385E02D8FE7DF91CF911F91099480935F
:1016600035051C3008F068C03EE1139FF0011124DD
:10167000E651FE4F108280910F01181710F410935D
:101680000F01E091A901F091AA010284F385E02DF8
:10169000812F09951092C4034FC082E08093C50347
:1016A0009091C60394609093C6039091C603906195
:1016B0009093C6031092C7031330B1F040F4113079
:1016C00079F01230C9F58091C603826033C01530BD
:1016D00071F1B0F0163081F58091C6038E7F2AC07B
:1016E0008091C6038D7F26C0E091A901F091AA01E7
:1016F0000480F581E02D80E009951092C7031CC09D
:10170000E091A901F091AA010480F581E02D81E02A
:10171000099581E080930F0188E691E0EAEEF1E01F
:10172000DF019C011D9221503040E1F705C08091FE
:10173000C60381608093C603DF91CF911F91089506
:10174000DC01683810F0685825C0E62FF0E067FF2C
:1017500012C0E058F10981E090E001C0880FEA95DD
:10176000EAF7809514969C911497892314968C938C
:10177000149760E00FC0EA58FE4F6491662311F1A0
:1017800067FF08C014968C9114978D7F14968C93E4
:1017900014976F77FD01369686E0662321F09081DD
:1017A000961301C01082815031968111F6CFBD0190
:1017B0006C5F7F4F48E050E082E00E941B0A81E0AE
:1017C00090E0089580E090E00895FC011682178271
:1017D00010861186128613861482BC016C5F7F4FBF
:1017E00048E050E082E00C941B0ADC01683810F0FD
:1017F00068582DC0E62FF0E067FF11C0E058F109EE
:1018000081E090E001C0880FEA95EAF714969C9178
:101810001497892B14968C93149760E018C0EA589B
:10182000FE4F6491611109C081E090E013969C9392
:101830008E93129780E090E0089567FF08C0149699
:101840008C911497826014968C9314976F771696E8
:101850008C911697861751F117968C9117978617CA
:1018600029F118968C911897861701F119968C9189
:1018700019978617D9F01A968C911A978617B1F096
:101880001B968C911B97861789F0FD01369680E098
:1018900090E02191211105C0FD01E80FF91F668339
:1018A00005C0019686309105A1F7BECFBD016C5FE2
:1018B0007F4F48E050E082E00E941B0A81E090E008
:1018C0000895CF92DF92EF92FF920F931F93CF93E1
:1018D000DF936C01EB017B01E40EF51E00E010E0EC
:1018E000CE15DF0561F06991D601ED91FC91019073
:1018F000F081E02DC6010995080F191FF1CFC8012D
:10190000DF91CF911F910F91FF90EF90DF90CF90DB
:10191000089583E08093E9008091F200882319F014
:101920008AE38093E8000895209183043091840431
:10193000809185049091860428173907A9F0E091D9
:101940008504F0918604ED5BFB4F80812091850436
:10195000309186042F5F3F4F2F73332730938604D7
:101960002093850490E008958FEF9FEF08952091D4
:101970008304309184048091850490918604281713
:10198000390749F0E0918504F0918604ED5BFB4F47
:10199000808190E008958FEF9FEF089580918304F8
:1019A000909184042091850430918604821B930BCE
:1019B0008F739927089585ED8093BC008091BC00BA
:1019C00084FDFCCF10921D0408954091F703262F4B
:1019D00030E0240F311D21323105DCF420911D044B
:1019E0002430C9F4FC0180E090E0861758F430916F
:1019F000F7032191DC01AB52BC4FA30FB11D2C9317
:101A00000196F3CF8091F703680F6093F70380E0AE
:101A1000089581E0089582E0089508958FEF9FEF83
:101A200008958FEF9FEF08958091D40390E09195F2
:101A3000819591090895CF93DF9300D0CDB7DEB79C
:101A4000CB01642F49835A830E94E50C4981842F7E
:101A50005A81952F0F900F90DF91CF910895CF93DA
:101A6000DF931F92CDB7DEB7698361E0CE010196A7
:101A70000E94E50C81E090E00F90DF91CF910895F6
:101A80000895CF93DF93FC01EB01718182818983FB
:101A9000878190859A8789872585368543815481FA
:101AA0006EE1769FC001112486519E4FDC01509655
:101AB0005C934E931F9756963C932E93559764E0F4
:101AC000769FD0011124A654BE4F1D921D921D92E7
:101AD0001C921397838594859E878D8782858E833C
:101AE00081E0DF91CF910895FC012281FB012783E2
:101AF000FC018381FB0180870895FC018281938131
:101B0000FB01908F878B0895DC01FB0112968D916C
:101B10009C911397908F878B14968D919C9115971C
:101B2000948F838F16968C911697858F17968D912B
:101B30009C911897948783870895DC01FB01129686
:101B40008C91129782838281811110C015968D919C
:101B50009C911697908F878B13968D919C911497DB
:101B6000948F838F17968C91858308958281089531
:101B7000DC01FB0112968C911297838313968C9152
:101B80001397848314968D919C911597948B838BD6
:101B900016968D919C911797928B818B08959EE15B
:101BA000899FF0011124E651FE4F708B6787568B99
:101BB000458B94E0899FF0011124E654FE4F10827A
:101BC00011821282138208950895089510923505A6
:101BD00024E0829FC0011124FC01E654FE4F1082D4
:101BE000118212821382089525E0FC0120838EE485
:101BF00091E008950895809335050895CF92DF927E
:101C0000EF92FF926091B7017091B801072E000C1E
:101C1000880B990B0E94D42F6B017C0160915203B9
:101C20007091530380915403909155030E94D42FD7
:101C30009B01AC01C701B6010E942A2FFF90EF90D3
:101C4000DF90CF9008950E94B7310F931F93CF93E9
:101C5000DF931F92CDB7DEB78C01698380911701A6
:101C6000882359F041E050E0BE016F5F7F4F83E071
:101C70000E94C408181619063CF081E090E0F801B3
:101C80009383828380E090E00F90DF91CF911F914A
:101C90000F9108950F931F93CF93DF931F92CDB7AA
:101CA000DEB700918304109184040F5F1F4F0F7300
:101CB0001127809185049091860408171907F9F07F
:101CC00041E050E0BE016F5F7F4F82E00E945D09FE
:101CD000019719F4898190E002C08FEF9FEF8F3F49
:101CE0002FEF920761F0E0918304F0918404ED5BA3
:101CF000FB4F80831093840400938304D2CF0F9012
:101D0000DF91CF911F910F9108951F920F920FB6FF
:101D10000F9211242F933F934F935F936F937F9371
:101D20008F939F93AF93BF93EF93FF938091B900ED
:101D3000887F803609F49CC068F5883209F45BC05E
:101D400090F4803109F454C038F4882309F4F6C0C3
:101D5000883009F44DC0F6C0883109F44CC0803297
:101D600009F45DC0EFC0803409F468C048F48033E2
:101D700009F455C0883309F0E5C080931C04D8C02D
:101D8000803509F44FC0883509F45DC0883409F006
:101D9000D9C0D6C0883909F4C7C0A8F4883709F477
:101DA00067C038F4883609F463C0803709F460C02E
:101DB000C9C0883809F4B8C0803909F45FC08038D8
:101DC00009F0C0C05BC0803B09F486C038F4803A9B
:101DD00009F466C0883A09F47FC0B4C0803C09F4B5
:101DE000A7C0883C09F4A4C0883B09F48AC0AAC0F3
:101DF0008091420410C09091410480914004981752
:101E000070F5E091410481E08E0F80934104F0E091
:101E1000E05EFB4F80818093BB0085EC86C08093A1
:101E20001C048EC0E091410481E08E0F8093410438
:101E30008091BB00F0E0E05EFB4F80839091410415
:101E4000809140046EC0E091410481E08E0F809348
:101E500041048091BB00F0E0E05EFB4F8083809105
:101E60001F0481116DC081E080931E0484EA61C06B
:101E700083E080931D0410921B04CFCF80911B043C
:101E8000803208F051C0E0911B0481E08E0F8093F6
:101E90001B048091BB00F0E0E550FC4F8083BDCF78
:101EA00085EC8093BC0010921D0480911B0480324D
:101EB00030F4E0911B04F0E0E550FC4F108260919B
:101EC0001B0470E0E091F903F091FA038BEF93E0CB
:101ED000099510921B0436C084E080931D04109273
:101EE000F8031092F703E091F503F091F6030995DA
:101EF0008091F703811105C081E08093F703109270
:101F0000D503E091F80381E08E0F8093F803F0E0B1
:101F1000EB52FC4F80818093BB009091F80380913D
:101F2000F703981708F479CF85E88093BC000AC0BE
:101F300085EC8093BC0010921D0404C010921C0418
:101F40000E94DB0CFF91EF91BF91AF919F918F9118
:101F50007F916F915F914F913F912F910F900FBEA5
:101F60000F901F9018952091AB013091AC0128176C
:101F7000390708F4C90190938B0080938A00089573
:101F80002091AB013091AC012817390708F4C90141
:101F9000909389008093880008954F925F926F928A
:101FA0007F928F929F92AF92BF92CF92DF92EF92E9
:101FB000FF920F931F93CF93DF93CDB7DEB7609758
:101FC0000FB6F894DEBF0FBECDBF009709F46DC306
:101FD0008C016091B90170E080E090E00E94D42F04
:101FE0002AE037ED43E25CE30E94893069837A831B
:101FF0008B839C83F80180809180A280B380B7FEA0
:1020000008C0B094A09490948094811C911CA11C51
:10201000B11CC501B4010E94D42F6B017C016091F9
:10202000B2017091B30180E090E00E94D22F2B01A9
:102030003C0126E636E646E65FE30E9489302981C8
:102040003A814B815C810E9489306D837E838F83CE
:1020500098879B01AC01C701B6010E94843087FDBF
:10206000CAC0A301920169817A818B819C810E94FF
:10207000893069877A878B879C8720E030E040E849
:102080005FE30E94B82E9B01AC01C701B6010E941C
:10209000252F87FFB0C06D817E818F8198850E943A
:1020A0009C2F6B017C01A5019401261B370B480B6B
:1020B000590BAEE3B0E00E94742E4B015C016985C0
:1020C0007A858B859C850E949C2F9B01AC012C19E5
:1020D0003D094E095F09C501B4010E94552E6901F1
:1020E0007A01FFEFCF1ADF0AEF0AFF0A560161E01B
:1020F0008DE00E944517C114D10411F480E005C0A1
:102100008FEFC816D10421F481E00E9415168AC011
:10211000E8E0F8E0E4918E2F90E0FC013197EE309A
:10212000F10508F062C0E057FF4F0C94AA3184B566
:10213000806884BDC7BC76C084B5806284BDC8BCDD
:1021400071C080918000806880938000D092890067
:10215000C092880067C08091800080628093800078
:10216000D0928B00C0928A005DC080919000806800
:1021700080939000D0929900C092980053C08091B3
:102180009000806280939000D0929B00C0929A0051
:1021900049C080919000886080939000D0929D000B
:1021A000C0929C003FC08091C00080688093C000B6
:1021B0008091C0008F7B8093C000C092CF0032C05E
:1021C0008091C00080628093C000C092D0002AC07D
:1021D0008091C20088608093C2008091C2008B7F92
:1021E0008093C200C092D2001DC0E0E8AE16B104D8
:1021F0000CF08ACF83CFA301920169817A818B8110
:102200009C810E94893020E030E040E85FE30E943A
:10221000B82E9B01AC01C701B6010E94843087FD36
:102220006DCF72CF6091B40170E060587109072ED4
:10223000000C880B990B0E94D42F20E030E04FE770
:1022400053E40E942A2F6B017C016093D0037093AA
:10225000D1038093D2039093D30320E030E0A9010F
:102260000E94843087FD1DC0A701960160E070E0E8
:1022700080E89FE30E94B82E6093CC037093CD0357
:102280008093CE039093CF0380E090E0A0E8BFE37B
:102290008093C8039093C903A093CA03B093CB0360
:1022A00023C020E030E0A901C701B6010E94252F1C
:1022B00087FF1AC080E090E0A0E8BFE38093CC03E2
:1022C0009093CD03A093CE03B093CF039C01AD01B7
:1022D000C701B6010E94B92E6093C8037093C90369
:1022E0008093CA039093CB039091B101F801C08011
:1022F000D180E280F380892F807491FDEAC0811142
:1023000095C01C141D041E041F04E4F54090B20186
:102310005090B3012091B5013091B6014901A12C33
:10232000B12C612C712CC301B2010E94D22F2091DB
:10233000C8033091C9034091CA035091CB030E9456
:1023400089300E949C2F681979098A099B09A70185
:1023500096010E948631A30192010E94552EDA0156
:10236000C901880D991DAA1DBB1DF80180839183A9
:10237000A283B38380E090E00E94C00FF8018081C7
:10238000918146C0C114D104E104F10409F444C0B0
:102390004090B2015090B3018091B5019091B60187
:1023A0004C01A12CB12CF094E094D094C094C11CA9
:1023B000D11CE11CF11C612C712CC301B2010E94E3
:1023C000D22F2091CC033091CD034091CE03509178
:1023D000CF030E9489300E949C2F681979098A09CD
:1023E0009B09A70196010E948631A30192010E94D8
:1023F000552EDA01C901880D991DAA1DBB1DF801D2
:1024000080839183A283B3830E94C00F80E090E019
:102410000E94B30F2F9A49C180E090E00E94C00F44
:1024200080E090E00E94B30F2F983FC1E091B2018D
:10243000F091B3011C141D041E041F04DCF44F01B1
:10244000969487948091B5019091B601880E991E5B
:10245000A12CB12C2F01612C712CC301B201681980
:1024600079098A099B09A70196010E948631A30177
:10247000920119C0C114D104E104F10411F14F011A
:10248000969487948091B5019091B601881A990A23
:10249000A12CB12CA5019401C701B6010E9486317F
:1024A0009F0140E050E00E94552EDA01C901880DDD
:1024B000991DAA1DBB1DF80180839183A283B3835C
:1024C00003C0CF01969587950E94C00F80E090E0F1
:1024D000D4C0811133C0F7FC02C02F9A01C02F98DD
:1024E0008091B5019091B6016C01E12CF12C8090A6
:1024F000B2019090B301A12CB12CF801208131815F
:102500004281538157FF07C05095409530952195E2
:102510003F4F4F4F5F4FC501B4016C197D098E09C4
:102520009F090E948631A50194010E94552EDA016F
:10253000C9018C0D9D1DAE1DBF1D81C01C141D0445
:102540001E041F046CF520E030E040E85FE360917A
:10255000AD017091AE018091AF019091B0010E94E8
:10256000B92E20910401309105014091060150914E
:1025700007010E9489300E949C2F4B015C016091F1
:1025800000017091010180910201909103010E946C
:102590009C2F681979098A099B09A70196013FC0F8
:1025A000C114D104E104F10409F44FC02091AD013C
:1025B0003091AE014091AF015091B00160E070E008
:1025C00080E89FE30E94B82E20910401309105011C
:1025D00040910601509107010E9489300E949C2F72
:1025E0004B015C0122273327A9012C193D094E0913
:1025F0005F09609108017091090180910A01909131
:102600000B012D873E874F87588B0E949C2F68199E
:1026100079098A099B092D853E854F8558890E9435
:1026200086312091B2013091B30140E050E00E9428
:10263000552EDA01C901880D991DAA1DBB1DF8018F
:1026400080839183A283B3830BC060910401709156
:10265000050180910601909107010E94A32FCB01F3
:102660000E94C00F609104017091050180910601E4
:10267000909107010E94A32FCB0160960FB6F894AA
:10268000DEBF0FBECDBFDF91CF911F910F91FF90A5
:10269000EF90DF90CF90BF90AF909F908F907F9002
:1026A0006F905F904F900C94B30F60960FB6F894B4
:1026B000DEBF0FBECDBFDF91CF911F910F91FF9075
:1026C000EF90DF90CF90BF90AF909F908F907F90D2
:1026D0006F905F904F9008956091AB017091AC0145
:1026E00080E090E00E94D22F9B01AC0160E07EEF81
:1026F0008FEF96E40E942A2F08952F923F924F92D7
:102700005F926F927F928F929F92AF92BF92CF9281
:10271000DF92EF92FF920F931F93CF93DF93CDB78A
:10272000DEB729970FB6F894DEBF0FBECDBF9987ED
:1027300088874B012B831D830C831701DF82CE8298
:10274000042F10E08C819D816C01E12CF12CE88537
:10275000F985F7FD2BC0C8019695982F8827979586
:102760008795BF01681B790B072E000C880B990B0E
:102770000E94D42F2B013C01C701B6010E94D22F29
:102780009B01AC01C301B2010E942A2F2B013C0125
:10279000C8019695982F8827979587959A8389835E
:1027A000EB8190E8E99FB00111242AC0B801769529
:1027B000762F662777956795E885F9856E0F7F1FD9
:1027C000072E000C880B990B0E94D42F2B013C0183
:1027D000C701B6010E94D22F9B01AC01C301B20117
:1027E0000E942A2F2B013C0160E86003C001619F19
:1027F000900D11249A8389832B816203B0011124E7
:1028000088859985681B790B072E000C880B990B1E
:102810000E94D42F6B017C01B10180E090E00E9406
:10282000D22F9B01AC01C701B6010E942A2F6B0178
:102830007C018A149B0408F43FC08E819F818A0D1D
:102840009B1D88169906C0F50C811D810A0D1B1D64
:102850008016910690F4B4016A197B0980E090E03B
:102860000E94D22F9B01AC01C301B2010E948930AA
:102870000E949C2F89819A811CC082199309881516
:102880009905E8F48A189B08EE81FF818E1A9F0A49
:10289000B401620D731D80E090E00E94D22F9B0175
:1028A000AC01C701B6010E9489300E949C2F888527
:1028B0009985860F971F05C080E090E002C088854B
:1028C000998529960FB6F894DEBF0FBECDBFDF9174
:1028D000CF911F910F91FF90EF90DF90CF90BF901D
:1028E000AF909F908F907F906F905F904F903F90B0
:1028F0002F9008958F929F92AF92BF92CF92DF92C6
:10290000EF92FF92CF93DF934B015C01EA010E94AB
:10291000FE0D6B017C01DE01A50194010E947F2E5A
:102920000E94D42FA70196010E94893020E030E058
:1029300040E051E40E94893020E030E040E251E480
:102940000E94893020E030E040E85BE30E9489305B
:102950000E949C2F0E94F905909580957095619535
:102960007F4F8F4F9F4FDF91CF91FF90EF90DF9080
:10297000CF90BF90AF909F908F9008954F925F92AD
:102980006F927F928F929F92AF92BF92CF92DF927F
:10299000EF92FF92CF93DF9300D000D0CDB7DEB798
:1029A0004B015C0157FF02C04D5F5F4F6A01D59438
:1029B000C794D594C7940E94FE0D69837A838B8354
:1029C0009C839B01AC01C501B4010E94893020E0C9
:1029D00030E040E251E40E9489302B013C0120E0CC
:1029E00030E040E85FE30E9484300D2C000CEE08DC
:1029F000FF0818161CF4C701B60128C020E030E01B
:102A000040E85FEBC301B2010E94252F87FF06C09B
:102A1000C701B6010E94F905CB011EC0C701B6016E
:102A20000E94D42F9B01AC01C501B4010E948930E2
:102A300029813A814B815C810E94893020E030E01D
:102A400040E251E40E9489300E949C2F0E94F905C7
:102A500088279927861B970B0F900F900F900F9048
:102A6000DF91CF91FF90EF90DF90CF90BF90AF902C
:102A70009F908F907F906F905F904F9008958F926E
:102A80009F92AF92BF92CF92DF92EF92FF924B0153
:102A90005C01BA01550F880B990B0E94D42F6B0172
:102AA0007C0120E030E0A901C501B4010E9484301E
:102AB000A501940118160CF05058C701B6010E94E8
:102AC00089306B017C010E94FE0D9B01AC01C701A6
:102AD000B6010E94893020E030E040E851E40E94D5
:102AE000893020E030E040E251E40E94893020E06B
:102AF00030E040E05DE30E9489300E949C2F0E94FC
:102B0000F9056B017C0120E030E0A901C501B401A9
:102B10000E94843018162CF4882799278C199D0957
:102B20000DC020E030E0A901C501B4010E94252FAD
:102B300087FF02C0C60102C080E090E0FF90EF90E6
:102B4000DF90CF90BF90AF909F908F900895CF92DD
:102B5000DF92EF92FF92CF93DF936B017C01EA014A
:102B600020E030E0A9010E948430181694F020E0A3
:102B700030E0A901C701B6010E94252F87FF3AC0A6
:102B800020E030E0A901C701B6010E94B92E6B0117
:102B90007C01BE01DD0F880B990B0E94D42F9B0195
:102BA000AC01C701B6010E9489306B017C010E9413
:102BB000FE0D9B01AC01C701B6010E94893020E0E7
:102BC00030E040E851E40E94893020E030E040E20B
:102BD00051E40E94893020E030E040E05BE30E9455
:102BE00089300E949C2F0E94F90588279927861B0F
:102BF000970B02C080E090E0DF91CF91FF90EF90C3
:102C0000DF90CF900895009769F0FC0101900020BB
:102C1000E9F73197AF01481B590BBC018EE894E0EE
:102C20000C94610C80E090E00895E8E0F8E04491B5
:102C3000E9EEF7E09491EAECF7E02491222309F41D
:102C40004DC04423C1F150E0FA013197EE30F10557
:102C500090F5E256FF4F0C94AA31309180003F77F7
:102C600003C0309180003F7D3093800024C034B594
:102C70003F7702C034B53F7D34BD1DC03091900018
:102C80003F7707C0309190003F7D03C030919000A6
:102C9000377F309390000FC03091C0003F7703C062
:102CA0003091C0003F7D3093C00005C03091C2001C
:102CB000377F3093C200E22FF0E0EE0FFF1FE155A7
:102CC000F84FA591B4912FB7F894EC91811103C0FE
:102CD00090959E2301C09E2B9C932FBF08959091A9
:102CE0008D0489B18C70892B90E09C0135952795D6
:102CF0003595279520938D044091890450918A043D
:102D000060918B0470918C04FC01ED5AFE4F808120
:102D1000082E000C990BAA0BBB0B840F951FA61F46
:102D2000B71F8093890490938A04A0938B04B09377
:102D30008C04809188040895E0918E04F0918F04B2
:102D40000190F081E02D682F8EE894E00994CF93F4
:102D5000DF938DE00E949C16EC018AE00E949C1695
:102D60008C0F9D1FDF91CF9108958F929F92AF920C
:102D7000BF92EF92FF920F931F93CF93DF93CDB744
:102D8000DEB7A1970FB6F894DEBF0FBECDBF162FEA
:102D9000042F19A2423008F40AE07E0121E2E20E7B
:102DA000F11C802E912CA12CB12C612FA501940136
:102DB0000E94872E029F1019112481E0E81AF10861
:102DC0001A3014F4105D01C0195CF7011083122F42
:102DD000732FCA01232B242B252B39F7C7010E94FF
:102DE0000316A1960FB6F894DEBF0FBECDBFDF91DC
:102DF000CF911F910F91FF90EF90BF90AF909F9058
:102E00008F900895CF92DF92EF92FF92CF93DF934E
:102E100097FF19C06B017C018DE20E949C16EC01AA
:102E200066277727CB016C197D098E099F094AE037
:102E30000E94B5168C0F9D1FDF91CF91FF90EF90F0
:102E4000DF90CF9008954AE0DF91CF91FF90EF900F
:102E5000DF90CF900C94B516CF93DF93BC01990F00
:102E6000880B990B0E940217EC010E94A7168C0F89
:102E70009D1FDF91CF910895682F70E080E090E072
:102E80004AE00C94B5160C940316CF93DF9390E0B0
:102E9000FC01E452F84F2491FC01E354F84F849173
:102EA000882361F190E0880F991FFC01EF55F84FDE
:102EB000C591D491FC01E155F84FA591B4916111F0
:102EC00009C09FB7F8948881209582238883EC916C
:102ED0002E230BC0623061F49FB7F8943881822FA3
:102EE000809583238883EC912E2B2C939FBF06C063
:102EF0008FB7F894E8812E2B28838FBFDF91CF9175
:102F000008953FB7F89480913F0590914005A091B6
:102F10004105B091420526B5A89B05C02F3F19F089
:102F20000196A11DB11D3FBFBA2FA92F982F882749
:102F3000820F911DA11DB11DBC01CD0142E0660FA4
:102F4000771F881F991F4A95D1F70895CF92DF9276
:102F5000EF92FF92CF93DF936B017C010E94811768
:102F6000EB01C114D104E104F10479F00E9481174E
:102F70006C1B7D0B683E7340A0F381E0C81AD1083A
:102F8000E108F108C851DC4FECCFDF91CF91FF9001
:102F9000EF90DF90CF9008952FB7F89460913B05A4
:102FA00070913C0580913D0590913E052FBF08959D
:102FB0000F931F930E94CC1760939604709397040D
:102FC0008093980490939904E0918E04F0918F047B
:102FD0000084F185E02D8EE894E0099597FF1FC0ED
:102FE0000E94CC17009196041091970420919804A8
:102FF00030919904DC01CB01801B910BA20BB30B28
:1030000000919204109193042091940430919504BE
:1030100080179107A207B307B8F28FEF9FEF1F91B8
:103020000F910895FF920F931F93CF93DF9300D0DA
:1030300000D0CDB7DEB70E94D817FC0197FD11C0B4
:103040008D32910591F0C0970A9778F0E0918E0447
:10305000F0918F040680F781E02D8EE894E00995C9
:10306000EACF60E070E0CB014CC020E030E0A90185
:10307000F12CE130F105F1F0ED32F105C9F0CF01AD
:10308000C0970A97B8F4AAE0B0E00E94742E8F01AE
:10309000FF0F220B330BDC01CB01800F911FA21F0E
:1030A000B31F9C01AD01205331094109510902C0F0
:1030B000FF24F394E0918E04F0918F040680F78151
:1030C000E02D8EE894E029833A834B835C83099555
:1030D0000E94D817FC01C09729813A814B815C81FD
:1030E0000A9738F2E130F10521F2FF2041F066271E
:1030F0007727CB01621B730B840B950B02C0CA01AF
:10310000B9010F900F900F900F90DF91CF911F9109
:103110000F91FF9008951F920F920FB60F921124F6
:103120002F933F938F939F93AF93BF9380913B05D2
:1031300090913C05A0913D05B0913E0530913A0536
:1031400023E0230F2D3720F40196A11DB11D05C0EA
:1031500026E8230F0296A11DB11D20933A05809306
:103160003B0590933C05A0933D05B0933E058091AF
:103170003F0590914005A0914105B091420501960F
:10318000A11DB11D80933F0590934005A09341057B
:10319000B0934205BF91AF919F918F913F912F9135
:1031A0000F900FBE0F901F901895CF93DF93CDB760
:1031B000DEB7C254D1090FB6F894DEBF0FBECDBF43
:1031C000789484B5826084BD84B5816084BD85B502
:1031D000826085BD85B5816085BD80916E0081600E
:1031E00080936E00109281008091810082608093B4
:1031F00081008091810081608093810080918000B6
:103200008160809380008091910082608093910022
:103210008091910081608093910080919000816005
:10322000809390008091C10084608093C100809160
:10323000C10082608093C1008091C1008160809351
:10324000C1008091C30081608093C3008091C00061
:1032500082608093C0008091C20081608093C20030
:1032600080917A00846080937A0080917A008260F5
:1032700080937A0080917A00816080937A008091B7
:103280007A00806880937A001092A80181E0809390
:10329000D70080EA8093D80082E189BD09B400FE9E
:1032A000FDCF61E070E080E090E00E94A61780E929
:1032B0008093D8001CE01093E2001092E00010927E
:1032C0008A031092890310928F0310929003109238
:1032D0009103109292031092840310928303109230
:1032E00098031092990310929A0310929B031092E4
:1032F0009C0310929D0310929E0310929F0342E044
:10330000BE01615F7F4F80E090E00E94BF068F8525
:1033100098898A3F910509F4C1C08AEF90E09E87A1
:103320008D8742E0BE01635F7F4F80E090E00E94A6
:10333000900619821A821B821C8244E0BE016F5FD4
:103340007F4F82E090E00E94900688E394E09E87A1
:103350008D8742E0BE01635F7F4F86E090E00E9470
:10336000900684E6898B41E0BE016F5E7F4F88E066
:1033700090E00E94900641E0BE016F5E7F4F8BE0BF
:1033800090E00E94900641E0BE016F5E7F4F8CE0AE
:1033900090E00E94900641E0BE016F5E7F4F80E1A9
:1033A00090E00E94900641E0BE016F5E7F4F8DE08D
:1033B00090E00E94900682E3898B41E0BE016F5E3F
:1033C0007F4F89E090E00E94900641E0BE016F5E71
:1033D0007F4F8AE090E00E94900641E0BE016F5E60
:1033E0007F4F8EE090E00E94900686E4898B41E05A
:1033F000BE016F5E7F4F8FE090E00E9490061E86B8
:103400001D8642E0BE01635F7F4F81E190E00E9434
:1034100090068FEF97E09E878D8742E0BE01635F45
:103420007F4F83E190E00E9490068FEF9FE09E87A0
:103430008D8742E0BE01635F7F4F85E190E00E948F
:10344000900680E8898B41E0BE016F5E7F4F87E187
:1034500090E00E94900681E0898B41E0BE016F5EA2
:103460007F4F88E190E00E94900680E699E0A0E01E
:10347000B0E089839A83AB83BC8344E0BE016F5F75
:103480007F4F89E190E00E949006198B41E0BE01D8
:103490006F5E7F4F8DE190E00E94900642E067EB07
:1034A00071E086E090E00E94BF0644E063E673E0CE
:1034B00089E190E00E94BF0641E069EB71E088E09D
:1034C00090E00E94BF0641E06EE673E089E090E084
:1034D0000E94BF0641E06CE673E08AE090E00E9443
:1034E000BF0641E061E773E08BE090E00E94BF0619
:1034F00041E060E773E08CE090E00E94BF0641E0AD
:103500006FE673E08DE090E00E94BF0641E06DE65B
:1035100073E08EE090E00E94BF0641E062E773E056
:103520008FE090E00E94BF0641E06BE673E080E12F
:1035300090E00E94BF0641E064EB71E087E190E01B
:103540000E94BF0641E067E973E088E190E00E94D5
:10355000BF0642E065EB71E081E190E00E94BF06AA
:1035600042E062EB71E083E190E00E94BF0642E03E
:1035700061E673E085E190E00E94BF0641E061EB07
:1035800071E08DE190E00E94BF068FEF9FE0909385
:103590008C0380938B0310928E0310928D03909373
:1035A0009403809393031092960310929503909343
:1035B000860380938503109288031092870390936B
:1035C000800380937F0310928203109281036091A5
:1035D00063037091640380916503909166030E9478
:1035E000D42F20E030E044EB53E40E942A2F6B01FB
:1035F0007C018091B7019091B801BC01990F880BB3
:10360000990B0E94D42F9B01AC01C701B6010E9407
:1036100089300E949C2F60935203709353038093D0
:103620005403909355036B017C01F594E794D79470
:10363000C794C0925603D0925703E0925803F09279
:10364000590362E080E00E94451762E081E00E9439
:10365000451762E082E00E944517809169008C6006
:1036600080936900E99A10928804C0928904D092EC
:103670008A04E0928B04F0928C0410928D044A9B91
:1036800005C080918D04816080938D044B9B05C0A3
:1036900080918D04826080938D04809169008F7C7D
:1036A000806180936900EA9A809169008F738064D9
:1036B00080936900EB9A60E082E10E94451760E028
:1036C00083E10E9445176E9A5798249A10925F03DF
:1036D00010925E03109267031092680310926903C0
:1036E00010926A0310925D031092600388E191E0EA
:1036F0009093AA018093A90186EB94E090933705FB
:10370000809336058CE39AE09093390580933805D1
:10371000279A1091B101812F0E94E8065C019093D5
:10372000AC018093AB019093B3018093B20160919F
:10373000B5017091B60180E090E00E94D22F6B013C
:103740007C01B50180E090E00E94D22F9B01AC018A
:10375000C701B6010E942A2F6093AD017093AE019C
:103760008093AF019093B001012F017010FD05C04F
:1037700020E030E04AEF54E404C020E030E04AE7C3
:1037800054E4609108017091090180910A019091BF
:103790000B010E94893060930801709309018093A6
:1037A0000A0190930B01011105C020E030E04AEFBF
:1037B00054E404C020E030E04AE754E4609104019E
:1037C0007091050180910601909107010E94893056
:1037D00060930401709305018093060190930701A3
:1037E000011105C020E030E04AEF54E404C020E0BD
:1037F00030E04AE754E4609100017091010180914A
:103800000201909103010E9489306093000170933E
:1038100001018093020190930301109280001092A5
:10382000810010926F0016BA8091AB019091AC01AB
:1038300090938700809386001092890010928800F0
:1038400010928B0010928A008091B10182748234B0
:1038500021F480918100826003C0809181008160A9
:10386000809381008091B10180FF09C08091800028
:1038700082608093800080918100806108C0809187
:1038800080008260809380008091810088618093B5
:10389000810080E090E00E94C00F809180008068ED
:1038A00080938000259A80E090E00E94B30F809181
:1038B0008000806280938000269A61E08DE00E9403
:1038C000451713E081E00E94151664E170E080E086
:1038D00090E00E94A61780E00E94151664E170E057
:1038E00080E090E00E94A617115061F710927903D2
:1038F00010927A0310927B0310927C0389E793E085
:103900000E94CD0F8091560390915703A0915803C8
:10391000B0915903F8948093890490938A04A093FA
:103920008B04B0938C04789482E090E090937803B9
:10393000809377038FEF97E090935C0380935B0312
:103940008091B40180935A030E9481176093A00371
:103950007093A1038093A2039093A3030E94811705
:103960006093A0047093A1048093A2049093A30495
:103970000091A4031091A5032091A6033091A70301
:103980002B013C01401A510A620A730A40929C04BE
:1039900050929D0460929E0470929F040091A00337
:1039A0001091A1032091A2033091A3036B017C012C
:1039B000C01AD10AE20AF30A40EDC41647E0D40661
:1039C000E104F10410F40C949F2D6093A003709314
:1039D000A1038093A2039093A303E2E210926003F9
:1039E00080915E0390915F03829774F010925F0361
:1039F00010925E031092670310926803109269039D
:103A000010926A0310925D0380915E0390915F03B0
:103A10008230910564F4892B09F42C9A80915E031D
:103A200090915F03019709F045C02C9843C09C0119
:103A30002170332780FD3AC099B1991F9927991FAA
:103A40009093600380915D03803258F54091670345
:103A5000509168036091690370916A0301E010E07E
:103A600020E030E0082E04C0000F111F221F331F7A
:103A70000A94D2F7992329F0402B512B622B732BF8
:103A800008C000951095209530954023512362235E
:103A900073234093670350936803609369037093A3
:103AA0006A038F5F80935D03769A04C021303105ED
:103AB00009F4769880915E0390915F03019690934C
:103AC0005F0380935E03E15009F088CFF894809102
:103AD000890490918A04A0918B04B0918C0478940D
:103AE00040915603509157036091580370915903C8
:103AF000841B950BA60BB70B80939C0390939D039F
:103B0000A0939E03B0939F0380939803909399038F
:103B1000A0939A03B0939B031091970315FB8827FA
:103B200080F916FD826017FF02C084601DC08130DD
:103B3000D9F46A017B01C094D094E094F0949A0186
:103B4000AB012C193D094E095F0960918F037091FB
:103B5000900380919103909192030E9486312FEF00
:103B60003FEF40E050E032C0823059F46A017B01FF
:103B7000C094D094E094F094A0918903B0918A030A
:103B800019C0833059F46A017B01C094D094E09449
:103B9000F094A0918303B09184030CC0843021F58C
:103BA0006A017B01C094D094E094F094A0917D03CD
:103BB000B0917E039A01AB012C193D094E095F09B2
:103BC0000E947F2E2FEF3FE040E050E00E94552EF4
:103BD000C20ED31EE41EF51EC0929803D092990324
:103BE000E0929A03F0929B0380909803909099033F
:103BF000A0909A03B0909B038091A9049091AA048D
:103C0000A091AB04B091AC048092A9049092AA0454
:103C1000A092AB04B092AC042091B104222309F429
:103C200049C00091DA0454E0059F90011124B901C4
:103C300067557B4F7B0124013501481A590A6A0AEE
:103C40007B0AC301B2010E94D42FD70119966D934C
:103C50007D938D939C931C97F02EBAE0EB2E60E041
:103C600070E0CB01B4E0FB9EF0011124E755FB4F5F
:103C700021853285438554850E94B92EFF2011F09D
:103C8000FA9402C0A9E0FA2EEA94E110EBCF20E00A
:103C900030E040E251E40E942A2F0F5F0A3018F40E
:103CA0000093DA0402C01092DA046AA77BA78CA7FB
:103CB0009DA70FC081E08093B1041092AD041092D3
:103CC000AE041092AF041092B0041AA61BA61CA654
:103CD0001DA62091DB043091DC044091DD0450915D
:103CE000DE048AA59BA5ACA5BDA58093DB049093BB
:103CF000DC04A093DD04B093DE048091E304882308
:103D000009F444C000913405E4E00E9FC001112481
:103D1000BC016E547B4F7B016AA57BA5CD010E943F
:103D2000B82ED701D2966D937D938D939C93D597A2
:103D3000F02EF4E1EF2E60E070E0CB01B4E0FB9EEA
:103D4000F0011124EE54FB4F22A933A944A955A92F
:103D50000E94B92EFF2011F0FA9402C0E3E1FE2E7A
:103D6000EA94E110EBCF20E030E040EA51E40E9419
:103D70002A2F0F5F043118F40093340502C010920B
:103D800034056AAB7BAB8CAB9DAB0FC081E08093FD
:103D9000E3041092DF041092E0041092E104109208
:103DA000E2041AAA1BAA1CAA1DAA80913505882321
:103DB00059F110FF3BC70E946C139B01AC0160E0FE
:103DC00070E080E094E40E942A2F6B017C016091F6
:103DD000720370E080E090E00E94D42F9B01AC0160
:103DE000C701B6010E94893020E030E048EC52E47F
:103DF0000E942A2F0E949C2FAB01C501B4010E9492
:103E00007A142B013C0115C7EEEBF1E0FF8FEE8F2A
:103E10001F8A1E8A412C512C32010E891F890F5F87
:103E20001F4F1F8B0E8B4EE19801429F8001439FD5
:103E3000100D112406511E4FD8018C9183708330D0
:103E400009F0E7C60E946C136B017C01F801218523
:103E50003285A789B08D0E94B0312FEF3FE740E057
:103E600050E00E94552ECA01B9010E94D42FA7012B
:103E700096010E942A2F0E949C2F9B01AC01D80121
:103E80001B968D919C911C97059730F4E4E0F0E02F
:103E90001C96FC93EE931B976EE1E62ECE88DF888E
:103EA000EC9CF001ED9CF00D1124E651FE4FE181F8
:103EB0008E2F90E0FC013197ED30F10508F093C6AC
:103EC000EA5AFF4F0C94AA310E946C136A8B7B8BC9
:103ED0008C8B9D8B2EE10E891F89209FC001219F15
:103EE000900D1124AC0146515E4F1A01DA0119966A
:103EF0008D909C901A975596AD90BC9056971F96B2
:103F0000CD90DC9050975196ED90FC90529753963F
:103F10000D911C91549714962C91149713964C91D3
:103F2000139757968D919C915897EE8DFF8D6081D8
:103F300071810E947D139401DC010E94B0312FEF4A
:103F40003FE740E050E00E94552ECA01B9010E94AF
:103F5000D42F2A893B894C895D890E942A2F0E948F
:103F60009C2F0E94F9059B01AC01A0917103B0E068
:103F70000E94742E24E630E040E050E00E94552E6E
:103F8000421A530A640A750A7AC10E946C136A8B3A
:103F90007B8B8C8B9D8BBEE1EB2ECE88DF88EC9CDF
:103FA000F001ED9CF00D1124E651FE4F01851285C4
:103FB0001B8F0A8FC588D688DBA2CAA2E784F08847
:103FC000FFA2EEA2018912891FA70EA703891489F7
:103FD0001CAF0BAF84809380AE8DBF8D2D903C9035
:103FE000078510896085A7800A2C000CBB08062E67
:103FF000000C770B6A197B09CB01770FAA0BBB0B5F
:104000006627782F892F9A2F0E94D42F6B017C016D
:10401000B80180E090E00E94D22F20E030E04AE733
:1040200054E40E942A2F9B01AC01C701B6010E94F3
:104030002A2F6B017C01C101B8010E949631BC019D
:1040400080E090E00E94D22F20E030E04AE754E484
:104050000E942A2F9B01AC01C701B6010E94893042
:104060000E949C2FBA2CAA24C501860F971FAAA0D4
:10407000BBA0CEA0DFA0EEA4FFA40BAD1CAD282DED
:10408000492DB1010E947D132A8D3B8DDC010E94D8
:10409000B0312FEF3FE740E050E00E94552ECA01BB
:1040A000B9010E94D42F2A893B894C895D890E94DD
:1040B0002A2F0E949C2F0E94F905461A570A680A67
:1040C000790A91C50E946C136A8F7B8F8C8F9D8FAC
:1040D000AEE1CA2EEE89FF89CE9EC001CF9E900D23
:1040E00011248C0106511E4F1801D80119960D900C
:1040F000BC91A02DBBA3AAA3F801038CF48DE02DE5
:10410000FFA3EEA3D8015D96BC91BEA7F8018384FE
:104110009484A588B688C784D088E188F28803890A
:10412000148924814381AE8DBF8D0D90BC91A02D4B
:10413000BB8BAA8B8789908DBD010E947D138C015A
:10414000B40180E090E00E94D22F20E030E04AE706
:1041500054E40E942A2F9B01AC0160E070E080E8EB
:104160009FE30E942A2F6B017C018A899B89B401FD
:104170000E949631BC0180E090E00E94D22F20E0A6
:1041800030E04AE754E40E942A2F9B01AC01C701AA
:10419000B6010E9489306B017C01BEA56B2F70E0D7
:1041A00080E090E00E94D22F20E030E040E85BE326
:1041B0000E9489309B01AC01C701B6010E94B92E53
:1041C0002BED3FE049EC50E40E9489300E94F6302C
:1041D0009B01AC01EEA1FFA16F01FF0FEE08FF08EC
:1041E000B801110F880B990B2FAF23963FAF239780
:1041F00021964FAF219722965FAF22970E94D42F2E
:104200002FAD23963FAD239721964FAD2197229650
:104210005FAD22970E9489300E949C2FCB01770FBF
:10422000AA0BBB0BA7019601280F391F4A1F5B1F62
:10423000AAA1BBA10E94742E2FEF3FE740E050E0FF
:104240000E94552ECA01B9010E94D42F2A8D3B8DA0
:104250004C8D5D8D0E942A2F0E949C2F9B01AC01EA
:10426000A0917003B0E00E94742E24E630E040E09C
:1042700050E00E94552E420E531E641E751ED10141
:1042800016968C91169782FFAEC41D966D917C9107
:104290001E9780E090E00E94D22F2BED3FE049EC8A
:1042A00050E40E94893020E030E040E058E30E9472
:1042B00089300E94F6309B01AC01C301B2012FAFDF
:1042C00023963FAF239721964FAF219722965FAF5A
:1042D00022970E94D42F2FAD23963FAD239721968E
:1042E0004FAD219722965FAD22970E9489300E94A0
:1042F0009C2F2B013C0177C40E946C136A8F7B8F2B
:104300008C8F9D8FFEE1EF2ECE88DF88EC9CF00134
:10431000ED9CF00D1124E651FE4F018512851BA383
:104320000AA3238D348DA901330F660B770B4EA39F
:104330005FA368A779A7558D5EA723843484A588D9
:10434000B688C784D088E188F288038914892481DB
:104350004381AE8DBF8D0D90BC91A02DBB8BAA8BE0
:104360008789908DBD010E947D13BC01990F880B38
:10437000990B0E94D42F4B015C01B10180E090E0C9
:104380000E94D22F20E030E04AE754E40E942A2F16
:104390009B01AC0160E070E080E89FE30E942A2F5F
:1043A0006B017C018A899B89B1010E949631BC0115
:1043B00080E090E00E94D22F20E030E04AE754E411
:1043C0000E942A2F9B01AC01C701B6010E948930CF
:1043D0006B017C01BEA56B2F70E080E090E00E9435
:1043E000D22F20E030E040E85BE30E9489309B015F
:1043F000AC01C701B6010E94B92E2BED3FE049EC9C
:1044000050E40E9489300E94F6306B017C0120E06C
:1044100030E0A9010E94843087FF0CC020E030E02A
:10442000A901C701B6010E94252F87FF05C0EFEF44
:10443000EEAB02C0F1E0FEABCEA86C2DCC0C770B3E
:10444000880B990B0E94D42F9B01AC01C501B401CC
:104450000E9489300E949C2FCB01770FAA0BBB0BC7
:10446000E0C10E946C136AA37BA38CA39DA30EE101
:10447000EE88FF880E9DF0010F9DF00D1124E6518E
:10448000FE4F218532853FA32EA3238D348DA901B4
:10449000330F660B770B4EA75FA768AB79AB358DF3
:1044A000638574857B8B6A8BA588B688C784D08822
:1044B000E188F2880389148924814381AE8DBF8D00
:1044C0000D90BC91A02DBB8FAA8F8789908DBD01C7
:1044D00023963FAF23970E947D131C01EA89FB8935
:1044E000BF0180E090E00E94D22F4B015C01239637
:1044F0003FAD239760E4630F70E080E090E00E949E
:10450000D22F20E030E040E85BE30E948930A50133
:1045100094010E9489300E94A32F8A8D9B8D860F63
:10452000971F6A897B890E9496318C01BC0180E0CB
:1045300090E00E94D22F20E030E04AE754E40E944D
:104540002A2F6B017C0120E030E0A9010E94843019
:1045500087FD3CC020E030E04AE754E4C501B401E7
:104560000E942A2F6A8F7B8F8C8F9D8F20E030E0F6
:1045700040E05FE30E9489309B01AC01C701B601B6
:104580000E94252F87FF22C0B101032C000C880B4D
:10459000990B0E94D42F20E030E040E850E40E94C4
:1045A00089302A8D3B8D4C8D5D8D0E942A2FA7016D
:1045B00096010E9489300E949C2F319421943108E9
:1045C0006101C60ED71ED8AECFAA51C020E030E0A0
:1045D0004AE754E4C501B4010E942A2F4B015C0153
:1045E00020E030E040E05FE30E9489309B01AC01B5
:1045F000C701B6010E94843087FD39C0A50194012E
:10460000C701B6010E94252F87FF31C0B101032CDD
:10461000000C880B990B0E94D42F20E030E040E87A
:1046200050EC0E948930A50194010E942A2F6B0151
:104630007C018A899B8996958795B801681B790BBF
:1046400080E090E00E94D22F20E030E04AE754E47E
:104650000E942A2F9B01AC01C701B6010E9489303C
:104660000E949C2F7101E60EF71EF8AEEFAA0FA96B
:1046700018ADC801110FAA0BBB0B2EA53FA548A969
:1046800059A9280F391F4A1F5B1FAEA1BFA10E9465
:10469000742E2FEF3FE740E050E00E94552ECA01F4
:1046A000B9010E94D42F2AA13BA14CA15DA10E9477
:1046B0002A2F0E949C2F9B01AC01A0917003B0E0B7
:1046C0000E94742E24E630E040E050E00E94552E17
:1046D000420E531E641E751E86C20E946C136A8FA2
:1046E0007B8F8C8F9D8F4EE12E893F89429FF001F9
:1046F000439FF00D1124E651FE4F618572857BA327
:104700006AA3238D348DC901330FAA0BBB0B8EA373
:104710009FA3A8A7B9A7358D23843484A588B6881C
:10472000C784D088E188F288038914892481438171
:10473000AE8DBF8D0D90BC91A02DBB8BAA8B8789B0
:10474000908DBD0123963FAF23970E947D138C016E
:10475000B10180E090E00E94D22F4B015C012396D2
:104760003FAD239760E8630F70E080E090E00E9427
:10477000D22F20E030E040E85BE30E948930A501C1
:1047800094010E9489300E94A32F8A899B89860FF9
:10479000971FB1010E9496319B8B8A8B82159305DE
:1047A000D0F5B801012E000C880B990B0E94D42F74
:1047B0009B01AC010E94B92E6B017C0120E030E02E
:1047C0004AE754E4C501B4010E942A2F9B01AC01C1
:1047D000C701B6010E942A2F4B015C01CA88DB8801
:1047E000B60180E090E00E94D22F20E030E04AE75E
:1047F00054E40E942A2F9B01AC01C501B4010E9420
:1048000089300E949C2F1195019511097801E60EBF
:10481000F71EFAAEE9AE09AD1AADC801110FAA0B29
:10482000BB0B2EA13FA148A559A5280F391F4A1F30
:104830005B1FAAA1BBA10E94742E2FEF3FE740E0AF
:1048400050E00E94552ECA01B9010E94D42F2A8D32
:104850003B8D4C8D5D8D2BCF0E946C136A8F7B8FAF
:104860008C8F9D8F4EE12E893F89429FF001439F9F
:10487000F00D1124E651FE4F618572857BA36AA37A
:10488000238D348DC901330FAA0BBB0B8EA39FA3BD
:10489000A8A7B9A7358D23843484A588B688C78492
:1048A000D088E188F2880389148924814381AE8D00
:1048B000BF8D0D90BC91A02DBB8BAA8B8789908D4D
:1048C000BD0123963FAF23970E947D138C01B10158
:1048D00080E090E00E94D22F4B015C0123963FAD17
:1048E000239760E8630F70E080E090E00E94D22F91
:1048F00020E030E040E85BE30E948930A5019401AC
:104900000E9489300E94A32F8A899B89860F971F56
:10491000B1010E9496319B8B8A8B82159305D0F54D
:1049200066277727601B710B072E000C880B990BED
:104930000E94D42F9B01AC010E94B92E6B017C0117
:1049400020E030E04AE754E4C501B4010E942A2F78
:104950009B01AC01C701B6010E942A2F4B015C01EB
:10496000CA88DB88B60180E090E00E94D22F20E068
:1049700030E04AE754E40E942A2F9B01AC01C501B4
:10498000B4010E9489300E949C2F7801E60EF71E28
:10499000FEAEEDAE0DAD1EAD40CF8EE16E897F89CE
:1049A000869FF001879FF00D1124E651FE4F038D85
:1049B000148DA0916F03B0E00E94742E20E436E0C5
:1049C00040E050E00E94552E69017A012091560383
:1049D000309157034091580350915903D8010E94D8
:1049E0007F2EDC01CB017FE0B595A7959795879544
:1049F0007A95D1F7092E000CAA0BBB0B40919803B6
:104A00005091990360919A0370919B038A019B01D5
:104A1000081B190B2A0B3B0BC901B801A6010E9408
:104A20007A14460E571E681E791EDDC08EE16E890F
:104A30007F89869FF001879FF00D1124E651FE4F7C
:104A4000038D148DA0916E03B0E00E94742E24E6B5
:104A500030E040E050E00E94552E69017A01B80133
:104A6000110F880B990B0E94D42F2AE939EC4CECDA
:104A700054E40E942A2F9B01AC016AA57BA58CA55A
:104A80009DA50E94B82EA6010E94A71562C06EE1E6
:104A9000C62EAE89BF89CA9EF001CB9EF00D1124AF
:104AA000E651FE4F038D148DA0916D03B0E00E947E
:104AB000742E24E630E040E050E00E94552E69015B
:104AC0007A01B801110F880B990B0E94D42F20E0B6
:104AD0003EEF4FEF56E40E942A2F9B01AC016AA9DA
:104AE0007BA98CA99DA90E94B82EA6010E943F1502
:104AF00030C00EE1EE88FF880E9DF0010F9DF00D95
:104B00001124E651FE4F038D148DA0916C03B0E08B
:104B10000E94742E24E630E040E050E00E94552EC2
:104B200069017A01B801110F880B990B0E94D42FEB
:104B30002AE939EC4CEC54E40E942A2F9B01AC0189
:104B40006AA57BA58CA59DA50E94B82EA6010E94F2
:104B5000BE14092E000CAA0BBB0B480E591E6A1E70
:104B60007B1E41C00E946C139B01AC018EE16E89DB
:104B70007F89869FF001879FF00D1124E651FE4F3B
:104B8000838D948DBC01990F880B990B2FAF2396C1
:104B90003FAF239721964FAF219722965FAF229781
:104BA0000E94D42F2FAD23963FAD239721964FAD72
:104BB000219722965FAD22970E942A2F0E949C2F58
:104BC0000E94F9059B01AC01A0917003B0E00E9426
:104BD000742E24E630E040E050E00E94552E421A48
:104BE000530A640A750A0E94CC170091BA01109109
:104BF000BB012091BC013091BD01DC01CB01801BC8
:104C0000910BA20BB30BEE8DFF8D80839183A2835A
:104C1000B3830E8D1F8D0C5F1F4F1F8F0E8F2E893C
:104C20003F892B30310509F0F8C803C0412C512CC5
:104C300032011091970311FF39C00E946C139B0140
:104C4000AC01E0916E0367E471E0E69FC001E79F6D
:104C5000900D1124BC0180E090E02FAF23963FAF70
:104C6000239721964FAF219722965FAF22970E94FC
:104C7000D42F2FAD23963FAD239721964FAD21978B
:104C800022965FAD22970E942A2F0E949C2FAB0193
:104C90006AA57BA58CA59DA50E94A715092E000CD1
:104CA000AA0BBB0B480E591E6A1E7B1E12FF39C091
:104CB0000E946C139B01AC01E0916D0367E471E00D
:104CC000E69FC001E79F900D1124BC0180E090E0B9
:104CD0002FAF23963FAF239721964FAF2197229670
:104CE0005FAF22970E94D42F2FAD23963FAD23971D
:104CF00021964FAD219722965FAD22970E942A2FD1
:104D00000E949C2FAB016AA97BA98CA99DA90E9436
:104D10003F15092E000CAA0BBB0B480E591E6A1E2C
:104D20007B1E13FF39C00E946C139B01AC01E09104
:104D30006C0367E471E0E69FC001E79F900D1124CA
:104D4000BC0180E090E02FAF23963FAF23972196E0
:104D50004FAF219722965FAF22970E94D42F2FAD9D
:104D600023963FAD239721964FAD219722965FADB5
:104D700022970E942A2F0E949C2FAB016AA57BA537
:104D80008CA59DA50E94BE14092E000CAA0BBB0B7E
:104D9000480E591E6A1E7B1E4091560350915703C0
:104DA00060915803709159038091980390919903F1
:104DB000A0919A03B0919B03CC24DD247601C41A00
:104DC000D50AE60AF70A8C159D05AE05BF0534F035
:104DD000481759076A077B070CF045C0B7FD05C0A7
:104DE000841B950BA60BB70B04C0840F951FA61F41
:104DF000B71F8093980390939903A0939A03B0935D
:104E00009B030E946C139B01AC0160E07EEF8FEF6F
:104E100096E40E942A2F6B017C0160916B0370E085
:104E200080E090E00E94D42F9B01AC01C701B60145
:104E30000E94893020E030E048EC52E40E942A2FA2
:104E40000E949C2F6B017C016091980370919903E3
:104E500080919A0390919B03A6010E947A14460EBA
:104E6000571E681E791EA091B901B0E0A3019201FE
:104E70000E94742E24E630E040E050E00E94552E5F
:104E8000CA01B9010E94F9056B017C0114FF04C03D
:104E90000E9402170E94A716C0927903D0927A034B
:104EA000E0927B03F0927C0360919C0370919D03E0
:104EB00080919E0390919F030E94D42F6B017C01EF
:104EC0006091520370915303809154039091550364
:104ED0000E94D42F9B01AC0160E07FEF8FE797E445
:104EE0000E942A2F9B01AC01C701B6010E948930A4
:104EF0000E949C2F6B017C01611570488105910512
:104F000034F0CC24CA942FE7D22EE12CF12CC1141A
:104F100040E8D4064FEFE406F40634F4C12C90E8E0
:104F2000D92EEE24EA94FE2CC0929C03D0929D03CD
:104F3000E0929E03F0929F0389E793E00E94CD0FD9
:104F40002090890330908A0380918B0390918C0389
:104F50002816390624F430928C0320928B0380911A
:104F60008D0390918E038215930524F430928E0365
:104F700020928D0340908F03509090036090910396
:104F8000709092034E8A5F8A688E798E8091930327
:104F900090919403092E000CAA0BBB0B48165906DE
:104FA0006A067B0624F45092940340929303809106
:104FB000950390919603092E000CAA0BBB0B0E894A
:104FC0001F89288D398D80179107A207B30724F414
:104FD0001093960300939503809185039091860327
:104FE0001816190624F410928603109285038091F6
:104FF00087039091880397FF04C010928803109252
:10500000870380917F03909180031816190624F47A
:105010001092800310927F0380918103909182030C
:1050200097FF04C0109282031092810300917703CE
:105030001091780380908B0390908C03800E911ECA
:10504000A12CB12C4090850350908603400E511E38
:10505000612C712CA1E0B0EFA30192010E94822E7D
:105060002091870330918803201B310B40E050E0F2
:1050700024193509460957090E94552E2E8F3F8F56
:1050800048A359A340907F0350908003400E511EC7
:10509000612C712CA1E0B0EFA30192010E94822E3D
:1050A0002091810330918203201B310B40E050E0BE
:1050B00024193509460957090E94552E29013A013C
:1050C000C101330CAA0BBB0B9C01AD012819390996
:1050D0004A095B09AFEFBFE00E94742E20918D0357
:1050E00030918E03201B310B40E050E02819390924
:1050F0004A095B090E94552E1901211420E132064C
:1051000024F022242A948FE0382E37FE02C0212C6E
:10511000312C30928A0320928903AE8CBF8CA1146B
:1051200030E1B30624F0AA24AA94BFE0BB2EB7FE58
:1051300002C0A12CB12CB0928403A092830342013F
:10514000411440E1540624F088248A94AFE09A2E5A
:1051500097FE02C0812C912C90927E0380927D0359
:105160004090930350909403400E511E612C712C7B
:105170002E893F89488D598D2419350946095709CB
:10518000AFEFBFEF0E94742E2091950330919603EC
:10519000201B310B890120E030E0A901980124197E
:1051A0003509460957090E94552E2115310561E040
:1051B0004607510524F02FEF3FEF40E050E057FF46
:1051C00003C020E030E0A90120938F0330939003C7
:1051D000409391035093920340906703509068036B
:1051E0006090690370906A03942D9F70913081F0F4
:1051F000923081F0943081F0983081F0933081F0DA
:10520000963081F0993081F09C3081F060E00FC0E1
:1052100061E00DC063E00BC065E009C067E007C056
:1052200062E005C064E003C068E001C066E0D3014D
:10523000C201807F8A8B9B8BAC8BBD8B862B80932E
:10524000730390937403A0937503B0937603E0E81F
:10525000DE1AC982DA822B833C832D822A2D229585
:10526000207F23292E8324E0B694A7942A95E1F782
:10527000AF828886282F2295207F29292987AC0193
:10528000BD0134E076956795579547953A95D1F7E6
:105290004A87AC01BD01ECE0769567955795479537
:1052A000EA95D1F74B87F4E1B695A7959795879541
:1052B000FA95D1F78C874CE050E0BE016F5F7F4FCD
:1052C00084E00E941B0A80919C0490919D04A0910F
:1052D0009E04B0919F0480319742A105B10508F466
:1052E0002EC48EE894E00E94CE0C181619060CF01D
:1052F00016C48EE894E00E94940CE82F8FE98E0F7C
:105300008A3108F4E0528E2F90E0FC01E154F1095B
:10531000EA31F10508F003C4ED59FF4F0C94AA31AE
:105320006091B7017091B801072E000C880B990BA2
:105330000E94021780E20E949C168091B9010E948F
:105340003C1780E20E949C1680916E030E943C17DD
:1053500080E20E949C1680916C030E943C1780E2C0
:105360000E949C16809171030E943C1780E20E946B
:105370009C16809170030E943C1780E20E949C164C
:1053800080916F030E943C1780E20E949C168091DE
:105390006D030E943C1780E20E949C16809172036C
:1053A0000E943C1780E20E949C1680916B030E9431
:1053B0003C1780E20E949C166091B5017091B60185
:1053C00080E090E04AE00E94B51680E20E949C16C0
:1053D0008091B4010E943C1780E20E949C1680914B
:1053E00097030E943C1780E20E949C166091B201D4
:1053F0007091B30180E090E04AE00E94B51680E22F
:105400000E949C1660916303709164038091650310
:10541000909166030E94021780E20E949C166091A0
:10542000B10170E091C283E991E00E9443176AEFF5
:1054300070E080E090E00E94021788E991E00E940D
:1054400043178AE991E00E9443178CE991E00E949A
:1054500043178EE991E00E94431780EA91E00E9491
:10546000431782EA91E00E94431784EA91E00E9488
:10547000431755C38091A804082E000C990B4DC307
:10548000F894C0908904D0908A04E0908B04F09046
:105490008C0478948091B2019091B3012091B50170
:1054A0003091B601821B930B9695879596958795BB
:1054B000A0E0B0E089839A83AB83BC83CE010196E0
:1054C0000E94CD0FD701C6011EEFF8948090890489
:1054D00090908A04A0908B04B0908C0478948815E6
:1054E0009905AA05BB0554F46CE271E080E090E0F8
:1054F0000E94A6171150D501C40139F719821A82EA
:105500001B821C82CE0101960E94CD0F8091520316
:1055100090915303A0915403B0915503F894809354
:10552000890490938A04A0938B04B0938C0478949C
:10553000C814D904EA04FB0411F482E001C081E03C
:105540008093A804E8C20E941218611101C061E0B2
:105550006093B401E0C28FEF9FE090938C0380933F
:105560008B0310928E0310928D039093940380937B
:105570009303109296031092950390938603809361
:105580008503109288031092870390938003809381
:105590007F031092820310928103BDC2F894409061
:1055A000890450908A0460908B0470908C047894E5
:1055B0008091560390915703A0915803B0915903DD
:1055C000481A590A6A0A7B0A8091A4049091A5049A
:1055D000A091A604B091A704480E591E6A1E7B1E16
:1055E0000E94121864307105810591057CF06B01F1
:1055F0007C01613C7742894091056CF010ECC12E32
:1056000017E2D12E19E0E12EF12C05C0B4E0CB2E2B
:10561000D12CE12CF12CC982DA82EB82FC826091E0
:10562000B7017091B801072E000C880B990B0E94EE
:10563000D42F4B015C01C301B2010E94D42FA501FC
:1056400094010E9489302B013C01609152037091BA
:10565000530380915403909155030E94D42F9B01D2
:10566000AC01C301B2010E942A2F2B013C01C09260
:105670006303D0926403E0926503F0926603C7016E
:10568000B60191C08091560390915703A0915803A1
:10569000B0915903F8948093890490938A04A0935D
:1056A0008B04B0938C04789453C1F894809089044F
:1056B00090908A04A0908B04B0908C047894809190
:1056C000560390915703A0915803B0915903881A3B
:1056D000990AAA0ABB0A8091A4049091A504A091FA
:1056E000A604B091A704880E991EAA1EBB1E0E9494
:1056F00012186E3171058105910574F06B017C0102
:10570000693077408105910564F0A8E0CA2EA7E0D2
:10571000DA2EE12CF12C05C0FEE1CF2ED12CE12CAC
:10572000F12CC982DA82EB82FC82C501B4010E94AD
:10573000D42F4B015C016091B7017091B801072E25
:10574000000C880B990B0E94D42F9B01AC01C50162
:10575000B4010E9489304B015C0160915203709149
:10576000530380915403909155030E94D42F9B01C1
:10577000AC01C501B4010E942A2F2B013C01D0923B
:10578000B801C092B701B601DD0C880B990B0E94DD
:10579000D42F4B015C01609163037091640380918D
:1057A0006503909166030E94D42F20E030E044EB23
:1057B00053E40E942A2FA50194010E9489300E947F
:1057C0009C2F6093520370935303809354039093E0
:1057D00055036B017C01F594E794D794C794C0926C
:1057E0005603D0925703E0925803F09259030E9457
:1057F000D42F9B01AC01C301B2010E948930A501E5
:1058000094010E942A2F0E949C2FC60ED71EE81ECC
:10581000F91E8091A4049091A504A091A604B091D2
:10582000A704C81AD90AEA0AFB0AF894C0928904A4
:10583000D0928A04E0928B04F0928C0478946BC12D
:105840000E941218262F6091970380E090E030E0CC
:10585000F901082E02C0F595E7950A94E2F7C12CEC
:10586000D12C7601C394082E04C0CC0CDD1CEE1C98
:10587000FF1C0A94D2F7E0FF02C06C2902C0C0945A
:105880006C2101968830910519F76093970370E0B9
:1058900080E090E042E00E94B5160E94A7163FC14A
:1058A0000E9412188091B10120E030E070E0AB015D
:1058B000022E02C0559547950A94E2F7C12CD12CCF
:1058C0007601C394022E04C0CC0CDD1CEE1CFF1C20
:1058D0000A94D2F740FF02C08C2902C0C0948C21E8
:1058E0002F5F3F4F2830310511F78093B10141E020
:1058F00061EB71E08DE190E00E9490068091B10132
:105900000E94E806BC0180E090E00E94D22F209126
:10591000AD013091AE014091AF015091B0010E94B4
:1059200089300E949C2F69837A838B839C8344E017
:10593000BE016F5F7F4F81E190E00E9490068091F1
:10594000B1010E94E806BC0180E090E04AE0A3CFEC
:1059500080E090E0E2C042E067EB71E086E090E03A
:105960000E94900644E063E673E089E190E00E94C3
:10597000900641E069EB71E088E090E00E949006BB
:1059800041E06EE673E089E090E00E94900641E01D
:105990006CE673E08AE090E00E94900641E061E7E7
:1059A00073E08BE090E00E94900641E060E773E0D6
:1059B0008CE090E00E94900641E06FE673E08DE09D
:1059C00090E00E94900641E06DE673E08EE090E08A
:1059D0000E94900641E062E773E08FE090E00E9451
:1059E000900641E06BE673E080E190E00E94900653
:1059F00041E064EB71E087E190E00E94900641E0B5
:105A000067E973E088E190E00E94900642E065EB70
:105A100071E081E190E00E94900642E062EB71E06B
:105A200083E190E00E94900642E061E673E085E148
:105A300090E00E9490066FC08EE894E00E94940C63
:105A4000E82F8FE98E0F8A3108F4E0528E2F90E014
:105A5000FC01E154F109E331F10508F060C0E358BD
:105A6000FF4F0C94AA310E9412186093B90153C0E1
:105A70000E941218609371034EC00E941218609326
:105A80006E0349C00E94121860936C0344C00E94C8
:105A90001218609370033FC00E94121860936F0346
:105AA0003AC00E94121860936D0335C00E9412180C
:105AB0006093720330C00E94121860936B032BC076
:105AC0000E94121870E080E090E00E94D22F2FE632
:105AD00032E143E85AE30E9489306B017C01609314
