:100000000C9420040C9448040C94A0070C94BE0794
:100010000C94AF070C9448040C9448040C944804C6
:100020000C9448040C9448040C94C10A0C94640881
:100030000C9448040C9448040C9448040C94480410
:100040000C9448040C9448040C9448040C94480400
:100050000C9448040C9448040C9448040C94311BF0
:100060000C9448040C9448040C9448040C944804E0
:100070000C9448040C9448040C9448040C944804D0
:100080000C9448040C9448040C9448040C944804C0
:100090000C94FF0F0C9448040C9448040C944804EE
:1000A0000C9448040C9448040C94480406226722DB
:1000B0005D24082312250A274E26AB275F289028A7
:1000C000C2284029FB28DD30082E722EF931222F5C
:1000D00086317D2EA82FF931F931F931F931F93115
:1000E000F931102EA82FF931B42DAE2DF9310A2D8A
:1000F000892D522FF931AB2FA82FC22FDC2FF62FCD
:1001000010302A3044305E307830F931F931F9312D
:10011000F931F931F931F931F931F9319230C03130
:10012000C531A231A731F931AC319D31F931BB3143
:10013000CA31F931F931B631F931F931F931F931E1
:10014000F931B131541259125E126812B212B21260
:10015000B21272127C12861290129D12B212A51265
:10016000401A431A361A3A1A641A641A641A471A59
:100170004B1A4F1A551A591A641A5F1A05A84CCD12
:10018000B2D44EB93836A9020C50B9918688083CD1
:10019000A6AAAA2ABE000000803F000000000000BE
:1001A00000002A2B280000000000000000000000D2
:1001B000000000000000000000002C9EB4A0A1A2DE
:1001C000A434A6A7A5AE362D3738271E1F2021221E
:1001D00023242526B333B62EB7B89F848586878817
:1001E000898A8B8C8D8E8F90919293949596979807
:1001F000999A9B9C9D2F3130A3AD350405060708C5
:10020000090A0B0C0D0E0F101112131415161718E6
:10021000191A1B1C1DAFB1B0B500080B0002020279
:100220000100090400000102020000052400100181
:100230000524010101042402060524060001070526
:10024000810310004009040100020A0000000705B4
:10025000020240000007058302400000090402007A
:10026000020300000009210101000122E104070549
:10027000840340000107050503400001050109044E
:10028000A10185040901A100093017000000002721
:10029000FFFF0000350047FFFF000075109501814A
:1002A00002093116000027FFFF0000350047FFFF5D
:1002B0000000751095018102093216000027FF0F1A
:1002C0000000350047FF0F0000750C950181020901
:1002D0003316000027FF0F0000350047FF0F000016
:1002E000750C95018102093416000027FF0F0000EC
:1002F000350047FF0F0000750C9501810209391583
:100300000125083500463B0165145500750495012B
:1003100081020509150025015500650019012918FC
:1003200075019518810285F10901150026FF0095D8
:100330003F7508918285F20901953F75088182C059
:10034000050F0992A1028502099F09A009A409A528
:1003500009A61500250135004501750195058102A5
:1003600095038103099415002501350045017501A8
:1003700095018102092215012528350145287507B7
:1003800095018102C00921A10285010922150125DB
:1003900028350145287508950191020925A1020912
:1003A000260927093009310932093309340940097E
:1003B0004109420943250B15013501450B75089587
:1003C000019100C009500954150027FFFF000035B6
:1003D0000047FFFF000066011055FD751095029162
:1003E0000255006600000952150026FF7F350046C1
:1003F000FF7F7510950191020953150125083501FC
:1004000045087508950191020955A10205010930B9
:10041000093115002501750195029102C0050F09EA
:100420005695019102950591030957A1020B010010
:100430000A000B02000A0066140055FE150026FF94
:100440007F3500479F8C0000751095019102550083
:10045000660000C0050F09A766011055FD150027AD
:10046000FFFF0000350047FFFF0000751095019168
:10047000026600005500C0050F095AA10285020955
:100480002215012528350145287508950191020995
:100490005B095D150026FF00350046FF7F75089556
:1004A000029102095C095E66011055FD26FF7F4638
:1004B000FF7F7510950291026600005500C0095F2C
:1004C000A102850309221501252835014528750853
:1004D0009501910209231500250135004501750498
:1004E000950191020958A1020B01000A000B0200BC
:1004F0000A00750295029102C0096016008026FF6D
:100500007F36008046FF7F751095019102096136A4
:10051000008046FF7F95019102150026FF7F350080
:1005200046FF7F0963751095019102096515002644
:10053000FF0046FF7F750895019102C0096EA10278
:1005400085040922150125283501452875089501DE
:1005500091020970150026FF7F350046FF7F751058
:1005600095019102096F16008026FF7F36008046B4
:10057000FF7F950191020971150026FF00350046A5
:1005800067016614005500750895019102097227EC
:10059000FFFF000047FFFF000066011055FD7510CA
:1005A000950191026600005500C00973A1028505FE
:1005B0000922150125283501452875089501910264
:1005C000097016018026FF7F36018046FF7F751077
:1005D00095019102C00974A1028506092215012521
:1005E0002835014528750895019102097509761588
:1005F00081257F36018046FF7F750895029102C0F4
:10060000050F0977A102850A092215012528350160
:1006100045287508950191020978A1020979097A9E
:10062000097B15012503750895019100C0097C150A
:100630000026FF00350046FF009102C00990A1028C
:10064000850B0922150125283501452875089501D6
:100650009102C00996A102850C0997099809990988
:100660009A099B099C15012506750895019100C002
:10067000097DA102850D097E150026FF0035004683
:100680001027750895019102C009ABA102850509E3
:1006900025A1020926092709300931093209330940
:1006A0003409400941094209431501250B3501452B
:1006B0000B75089501B100C00501093B150026FF27
:1006C00001350046FF01750A9501B1027506B101B9
:1006D000C0050F0989A102850609222528150135C3
:1006E00001452875089501B102098BA102098C0901
:1006F0008D098E250315013501450375089501B156
:1007000000C009AC150027FFFF0000350047FFFFC0
:10071000000075109501B100C0097FA1028507098D
:100720008075109501150027FFFF0000350047FF79
:10073000FF0000B102098326FF0046FF00750895FF
:1007400001B10209A909AA75019502150025013513
:10075000004501B10275069501B103C0C0180341FF
:100760000072006400750069006E006F0020004C8C
:10077000004C00430004030904220341007200649A
:1007800000750069006E006F0020004C0065006F6E
:10079000006E006100720064006F00120100020030
:1007A00000004041233680000101020001120100D7
:1007B00002020000404123368000010102000100D6
:1007C000C18081C1C000000000250028002B002E40
:1007D00000310004040404040304050202020204BC
:1007E00003020202020606060606060404020202CC
:1007F0000404040802011040804010204080408022
:1008000008020401804020100201108010204040A6
:10081000200000000200080E0000030401000B008D
:1008200000000000000000000000000000000000C8
:1008300000000000240027002A002D0030001332A1
:1008400011241FBECFEFDAE0DEBFCDBF11E0A0E084
:10085000B1E0E6EBFCE602C005900D92A039B107CD
:10086000D9F725E0A0E9B1E001C01D92A03EB20792
:10087000E1F714E0C0E2D4E004C02197FE010E9439
:100880004736CF31D107C9F70E947B1B0C945936EC
:100890000C9400008C30F8F4282F30E093E2899F0C
:1008A000F0011124EE52FE4F90819923A1F0908126
:1008B0009D7F9083F901ED51FC4F958191110BC003
:1008C000E0919101F09192010084F185E02D09956C
:1008D0001092F30308950895FC01CB012091E800E4
:1008E00022FFFCCF282F215028F03091F1003083D7
:1008F0003196F9CF24E62093D1032BEF2093E80023
:1009000008950F931F93CF93DF93DB01A40FB51FBF
:10091000FB016EEFEA17FB0791F187FF02C02491FC
:1009200001C020810091D5031091D603C091D3035B
:10093000D091D4030C171D07B4F49091E800957082
:10094000E1F39091E80092FD1CC02093F10020910A
:10095000D5033091D6032F5F3F4F2F733327232BBF
:1009600011F46093E8002091D5033091D6032F5FF6
:100970003F4F3093D6032093D5033196CBCFCA0196
:1009800002C08FEF9FEFDF91CF911F910F910895DC
:10099000CF93DF9300D000D01F92CDB7DEB7FC011C
:1009A00081819081913A29F5813009F0BCC0828122
:1009B000863051F445E050E06EED73E080E40E9433
:1009C00081041092DE03AFC0873009F0ACC0898388
:1009D0008FEF9FEF9B838A838BE08C8383E08D83F3
:1009E00045E050E0BE016F5F7F4F80E40E948104CC
:1009F0009AC0913209F097C0893009F094C0828181
:100A0000853009F090C064E070E0CE0101960E944C
:100A10006C0486E08093DE0380910F018B3021F11E
:100A2000A0910F0181E08A0F80930F0193E2E09182
:100A30000F019E9FF0011124EE52FE4F808188230A
:100A400051F080910F018B3030F480910F018F5F56
:100A500080930F01ECCF83E2A89FF0011124EE52A6
:100A6000FE4F81E0808301C0A0E0A093DF03A111CD
:100A700004C082E08093E00350C01092C30581E07F
:100A80008093E0038A8193E2A99FD0011124AE52A2
:100A9000BE4F11968C9311978FEF9FEF50969C93BA
:100AA0008E931F9754961C921E92539752961C92A7
:100AB0001E92519713968C93139714968C931497B8
:100AC00056961C921E9255971E961C921E921D972A
:100AD00016961C9216978FEF9FE71A969C938E930B
:100AE000199758961C921E9257975C961C921E92CC
:100AF0005B975D961C925D9788EE93E01C969C93A5
:100B00008E931B97E0919101F09192010684F785F5
:100B1000E02DBD01CE01019609958FEF9FEF9093D7
:100B2000E2038093E10381E00F900F900F900F900C
:100B30000F90DF91CF91089542E450E06AE172E0B6
:100B400080E80E94810440E250E06CE572E080E8B9
:100B50000E94810483E090E00895EF92FF921F933A
:100B6000CF93DF93EC01162FE881F9810480F581A2
:100B7000E02D09957C01E881F9810680F781E02D5F
:100B8000612FCE010995C7019927DF91CF911F9160
:100B9000FF90EF900895FC0191818081813A29F4C2
:100BA0009D7F81E0913091F414C0813279F49A30C4
:100BB00049F09B3019F0993049F40AC08281809342
:100BC0000E0106C0828180930D0102C080E008956D
:100BD00081E008958C30F0F493E2899FF0011124B4
:100BE000EE52FE4F80818823A9F08081826080834D
:100BF0008091F30381110EC00E94251B6093A20116
:100C00007093A3018093A4019093A50181E0809348
:100C1000F30308950895CF92DF92EF92FF926091CF
:100C20009F017091A001072E000C880B990B0E9468
:100C300071346B017C016091760370917703809130
:100C40007803909179030E9471349B01AC01C70134
:100C5000B6010E94C733FF90EF90DF90CF900895C8
:100C6000CF92DF92EF92FF920F931F938B019C0123
:100C700040919A0150919B016A01E12CF12C662769
:100C80007727CB016C197D098E099F090617170775
:100C9000280739074CF0C901B801C016D106E20691
:100CA000F30614F4C701B6011F910F91FF90EF9066
:100CB000DF90CF9008954F925F926F927F928F92C4
:100CC0009F92AF92BF92CF92DF92EF92FF92CF931B
:100CD000DF9300D000D0CDB7DEB74B015C0157FFEA
:100CE00002C04D5F5F4F6A01D594C794D594C794F5
:100CF0000E940B0669837A838B839C839B01AC01E2
:100D0000C501B4010E94653520E030E040E251E4C5
:100D10000E9465352B013C0120E030E040E85FE3B4
:100D20000E9460350D2C000CEE08FF0818161CF40C
:100D3000C701B60128C020E030E040E85FEBC30106
:100D4000B2010E94BD3387FF06C0C701B6010E94F1
:100D50003006CB011EC0C701B6010E9471349B0151
:100D6000AC01C501B4010E94653529813A814B81EE
:100D70005C810E94653520E030E040E251E40E9451
:100D800065350E9439340E94300688279927861BD2
:100D9000970B0F900F900F900F90DF91CF91FF90D6
:100DA000EF90DF90CF90BF90AF909F908F907F900B
:100DB0006F905F904F9008958F929F92AF92BF92E5
:100DC000CF92DF92EF92FF924B015C01BA01550F77
:100DD000880B990B0E9471346B017C0120E030E09C
:100DE000A901C501B4010E946035A501940118163E
:100DF0000CF05058C701B6010E9465356B017C01AB
:100E00000E940B069B01AC01C701B6010E9465352B
:100E100020E030E040E851E40E94653520E030E019
:100E200040E251E40E94653520E030E040E05DE3BF
:100E30000E9465350E9439340E9430066B017C01A6
:100E400020E030E0A901C501B4010E946035181608
:100E50002CF4882799278C199D090DC020E030E0DB
:100E6000A901C501B4010E94BD3387FF02C0C601BC
:100E700002C080E090E0FF90EF90DF90CF90BF90B5
:100E8000AF909F908F900895CF92DF92EF92FF9254
:100E9000CF93DF936B017C01EA0120E030E0A901F0
:100EA0000E946035181694F020E030E0A901C701D7
:100EB000B6010E94BD3387FF3AC020E030E0A901AF
:100EC000C701B6010E9451336B017C01BE01DD0FE9
:100ED000880B990B0E9471349B01AC01C701B601CC
:100EE0000E9465356B017C010E940B069B01AC01E1
:100EF000C701B6010E94653520E030E040E851E4CA
:100F00000E94653520E030E040E251E40E94653502
:100F100020E030E040E05BE30E9465350E94393418
:100F20000E94300688279927861B970B02C080E015
:100F300090E0DF91CF91FF90EF90DF90CF900895F8
:100F40001F920F920FB60F9211248F9381E080931E
:100F50007A038F910F900FBE0F901F9018951F92DC
:100F60000F920FB60F9211248F9381E080937A0332
:100F70008F910F900FBE0F901F9018951F920F9298
:100F80000FB60F9211242F933F934F935F936F935C
:100F90007F938F939F93AF93BF93EF93FF93909122
:100FA000DD0389B18C70892B90E09C0135952795E4
:100FB000359527952093DD034091D9035091DA03AD
:100FC0006091DB037091DC03FC01EC5CFE4F8081DF
:100FD000082E000C990BAA0BBB0B840F951FA61FA4
:100FE000B71F8093D9039093DA03A093DB03B093E8
:100FF000DC038091D803FF91EF91BF91AF919F9156
:101000008F917F916F915F914F913F912F910F90B1
:101010000FBE0F901F901895CF92DF92EF92FF9224
:101020000F931F93CF93DF931F92CDB7DEB7F82EA8
:10103000E42E8B01C82ED92E8C2D8F198E1588F495
:10104000F80161918F01C60169830E94D7326981DD
:10105000681719F0C6010E94DF32FFEFCF1ADF0ACE
:10106000EBCF0F90DF91CF911F910F91FF90EF90F9
:10107000DF90CF900895CF92DF92EF92FF920F937F
:101080001F93CF93DF931F92CDB7DEB78B016B0118
:101090007C01E61AF70A9C2D901B941758F4C7019F
:1010A0008C0D9D1D49830E94D732F60181936F01FB
:1010B0004981F1CF0F90DF91CF911F910F91FF9058
:1010C000EF90DF90CF9008951F920F920FB60F927E
:1010D0001124EF92FF921F932F933F934F935F93AF
:1010E0006F937F938F939F93AF93BF93EF93FF93F0
:1010F000CF93DF93CDB7DEB76197DEBFCDBF109240
:10110000E9008091E80083FF59C1FE013A96CF01C2
:1011100028E02E0F2E1729F03091F1003083319600
:10112000F9CF24E62093D10322EF2093E8002A850B
:1011300027FF05C03091E80030FFFCCF03C03EEF31
:101140003093E800322F307609F0C5C08B858111CD
:1011500005C01092F1001092F10029C1982F9D7FD7
:10116000913009F424C1853049F48091E80080FF72
:10117000FCCF8C8580688093E30019C1863009F02C
:101180007CC01D85E888F9881092E9001092D6038A
:101190001092D503123091F51092D4031092D3031C
:1011A0000E949C0599E0BE016F5F7F4FFB01292FD4
:1011B00011922A95E9F799831A8391E09E8390E82A
:1011C00098879AEF99872091D5033091D603275FAE
:1011D0003F4F3C832B838D831092E9001092D603FE
:1011E0001092D503F092D403E092D30349E050E08B
:1011F00080E00E9481040E949C05D9C0F092D40333
:10120000E092D303123259F441EE54E06CE772E0FD
:1012100080E80E948104892B09F0C9C0CCC011303C
:1012200069F488899989089711F41093D203809101
:10123000D203811111C06BE977E016C0133009F0B9
:10124000BAC08C85882359F0823061F0813009F072
:10125000B2C06DE577E008C06DEA77E005C065E7EC
:1012600077E002C069E777E06115710509F4A3C072
:10127000FB01449150E080E849C0873009F49BC0ED
:10128000883021F481E08093F10091C0893009F029
:101290008EC0237009F08FC080E090E031E026E33B
:1012A00041E0480F4093E9003093EB000196FC01C8
:1012B000E154F84FE491E093EC002093ED00853089
:1012C000910571F78EE78093EA001092EA008C8511
:1012D000809390016CC0288939891092E90010929E
:1012E000D6031092D5033093D4032093D3032E85D5
:1012F000211154C08B859A85913A59F4813209F0B5
:101300005AC047E050E060E171E080E00E94810453
:101310004EC0913209F04FC0803239F467E070E07E
:1013200080E191E00E946C0442C0823209F043C027
:101330008C85809317018091100190911101A091EB
:101340001201B0911301803B9440A105B10579F5DC
:101350008091170180FD11C087E797E790930108FE
:10136000809300089BE088E10FB6F894A8958093DD
:1013700060000FBE909360001AC00FB6F894A89555
:1013800080916000886180936000109260000FBEC1
:10139000A895109201081092000809C0223059F453
:1013A000E091C605F091C7050995882321F08EEFDD
:1013B0008093E80003C081E28093EB0061960FB652
:1013C000F894DEBF0FBECDBFDF91CF91FF91EF91BB
:1013D000BF91AF919F918F917F916F915F914F914D
:1013E0003F912F911F91FF90EF900F900FBE0F90A4
:1013F0001F9018958F929F92AF92BF92CF92DF92DB
:10140000EF92FF920F931F93CF93DF9300D01F9221
:10141000CDB7DEB7382F8B0180919001882389F0FA
:101420004A018AEFF82E832F8770E82E90E4C92EA8
:10143000832F8072B82E2AE3D22E832F8074A82E99
:1014400021C08FEF9FEF5FC08FB7F894E092E90063
:101450009091E80095FF1AC09091F2002C2D291B65
:101460008FBF211115C0FA94FF2059F361E070E09D
:1014700080E090E039834A835B830E94FF1A3981C0
:101480004A815B8181149104F9F634C020E0E8CFF1
:10149000822F90E0881699060CF4282D822F90E078
:1014A000881A990A6FB7F894E092E900BB2029F0F6
:1014B0002150A8F01092F100FBCFF80137FF07C0D0
:1014C000215058F074917093F1003196F9CF21506A
:1014D00020F071917093F100FACF080F191F8091DD
:1014E000E80085FF0DC08114910411F4A11008C01B
:1014F0006FBFC8CF5D9884E68093D703CA0103C04D
:10150000D092E800F5CF0F900F900F90DF91CF9120
:101510001F910F91FF90EF90DF90CF90BF90AF9011
:101520009F908F90089590919001992311F057FF0B
:1015300003C08FEF9FEF08952FB7F89487708093C3
:10154000E9008091F20090E0841795070CF4AC015B
:10155000842FFB0194E6815030F09093D1033091B9
:10156000F1003193F8CF4115510521F08091F2003F
:10157000882319F02FBFCA0108958BE68093E800F5
:10158000F9CF1F920F920FB60F9211242F933F9312
:101590004F935F936F937F938F939F93AF93BF937B
:1015A000EF93FF93CF93DF93CDB7DEB7C054D1094C
:1015B000DEBFCDBF8091E1001092E10083FF0FC03C
:1015C0001092E90091E09093EB001092EC0092E30E
:1015D0009093ED001092900198E09093F00082FFBC
:1015E00046C083E08093E9008091F200882319F0DF
:1015F0008AE38093E8009FB7F89482E08093E90043
:101600008091F2009FBF882321F08BEF94E00E942D
:10161000C40F9FB7F89485E08093E9008091F200B1
:101620009FBF8823C1F08091C8059091C905892B7F
:1016300091F040E450E0BE016F5F7F4F85E00E9473
:10164000930A97FD08C0E091C805F091C905BC0157
:10165000CE01019609958091D703882341F08091AE
:10166000D70381508093D703811101C05D9AC05C7C
:10167000DF4F0FB6F894DEBF0FBECDBFDF91CF9125
:10168000FF91EF91BF91AF919F918F917F916F915A
:101690005F914F913F912F910F900FBE0F901F9030
:1016A0001895EF92FF920F931F93CF93DF931F92A2
:1016B000CDB7DEB789838B017A0141E050E0BE01EE
:1016C0006F5F7F4F84E00E94FA09A701B80184E4AC
:1016D0000E94FA090F90DF91CF911F910F91FF9017
:1016E000EF9008951F93CF93DF93DC0111961C9127
:1016F00011979C91953009F467C060F5923009F418
:1017000043C0A8F4913009F04DC1E0919101F091EE
:10171000920123E2129FB00111246E527E4F028C7F
:10172000F38DE02DCD01DF91CF911F91099493307E
:10173000C9F1943009F036C1E0919101F091920124
:1017400023E2129FB00111246E527E4F0488F58966
:10175000E02D35C09B3009F49DC038F4963009F473
:1017600041C09A3009F44CC01DC19C3009F4CBC073
:10177000913F09F017C140E450E0BD0182EFDF91D5
:10178000CF911F910C94510BE0919101F091920136
:1017900033E2139FB00111246E527E4F0088F1890D
:1017A000E02D0DC0E0919101F091920183E2189F2C
:1017B000B00111246E527E4F0288F389E02DCD01D5
:1017C000DF91CF911F910994E0919101F0919201E5
:1017D00033E2139FB00111246E527E4F0688F789C1
:1017E000E02DEDCFE0919101F091920183E2189FFD
:1017F000B00111246E527E4F008CF18DE02DDFCFB1
:101800001F3F09F41FE712969C91913099F4812FA4
:101810000E94EA05E12FF0E0ED51FC4F8581811136
:10182000C1C0E0919101F09192010680F781E02D15
:10183000812F47C0923029F5C1E08C2F0E944A04C5
:10184000CF5FCC30D1F7C12FD0E0CD51DC4F8D81AF
:10185000811109C0E0919101F09192010084F1851C
:10186000E02D8FE70995812F0E94EA058D81811176
:1018700099C0E0919101F09192010680F781E02DED
:101880001FC0933009F08EC0812FDF91CF911F913F
:101890000C944A0481E01F3FC1F480930F0184EA55
:1018A00091E0E2EDF1E0DF019C011D92215030401A
:1018B000E1F7E0919101F09192010284F385E02D2E
:1018C0008FE7DF91CF911F9109948093C3051C305E
:1018D00008F068C033E2139FF0011124EE52FE4F6E
:1018E000108280910F01181710F410930F01E091EE
:1018F0009101F09192010284F385E02D812F0995E9
:101900001092F3034FC082E08093F4039091F503AB
:1019100094609093F5039091F50390619093F50393
:101920001092F6031330B1F040F4113079F0123018
:10193000C9F58091F503826033C0153071F1B0F0C4
:10194000163081F58091F5038E7F2AC08091F503D2
:101950008D7F26C0E0919101F09192010480F58184
:10196000E02D80E009951092F6031CC0E0919101F2
:10197000F09192010480F581E02D81E0099581E0EC
:1019800080930F0184EA91E0E2EDF1E0DF019C0138
:101990001D9221503040E1F705C08091F503816030
:1019A0008093F503DF91CF911F910895DC01683892
:1019B00010F0685825C0E62FF0E067FF12C0E0582D
:1019C000F10981E090E001C0880FEA95EAF780957F
:1019D00014969C911497892314968C93149760E025
:1019E0000FC0E656FE4F6491662311F167FF08C0F1
:1019F00014968C9114978D7F14968C9314976F770F
:101A0000FD01369686E0662321F09081961301C091
:101A10001082815031968111F6CFBD016C5F7F4FEE
:101A200048E050E082E00E94510B81E090E0089590
:101A300080E090E00895FC011682178210861186DE
:101A4000128613861482BC016C5F7F4F48E050E021
:101A500082E00C94510BDC01683810F068582DC0FE
:101A6000E62FF0E067FF11C0E058F10981E090E057
:101A700001C0880FEA95EAF714969C911497892B78
:101A800014968C93149760E018C0E656FE4F64914C
:101A9000611109C081E090E013969C938E93129798
:101AA00080E090E0089567FF08C014968C91149729
:101AB000826014968C9314976F7716968C91169774
:101AC000861751F117968C911797861729F118965A
:101AD0008C911897861701F119968C911997861792
:101AE000D9F01A968C911A978617B1F01B968C91A3
:101AF0001B97861789F0FD01369680E090E02191D2
:101B0000211105C0FD01E80FF91F668305C001968C
:101B100086309105A1F7BECFBD016C5F7F4F48E0D5
:101B200050E082E00E94510B81E090E00895CF9256
:101B3000DF92EF92FF920F931F93CF93DF936C018D
:101B4000EB017B01E40EF51E00E010E0CE15DF0591
:101B500061F06991D601ED91FC910190F081E02D49
:101B6000C6010995080F191FF1CFC801DF91CF9168
:101B70001F910F91FF90EF90DF90CF90089583E039
:101B80008093E9008091F200882319F08AE3809322
:101B9000E80008952091AA043091AB048091AC0430
:101BA0009091AD0428173907A9F0E091AC04F091A9
:101BB000AD04E659FB4F80812091AC043091AD0417
:101BC0002F5F3F4F2F7333273093AD042093AC0426
:101BD00090E008958FEF9FEF08952091AA0430912F
:101BE000AB048091AC049091AD042817390749F0FB
:101BF000E091AC04F091AD04E659FB4F808190E098
:101C000008958FEF9FEF08958091AA049091AB04FF
:101C10002091AC043091AD04821B930B8F739927F4
:101C2000089585ED8093BC008091BC0084FDFCCFBD
:101C30001092F404089540914504262F30E0240FBB
:101C4000311D21323105DCF42091F4042430C9F433
:101C5000FC0180E090E0861758F430914504219112
:101C6000DC01AD5DBB4FA30FB11D2C930196F3CFEB
:101C700080914504680F6093450480E0089581E0F9
:101C8000089582E008950895E091F6048091F504A6
:101C9000E81730F4F0E0E255FB4F808190E00895C2
:101CA0008FEF9FEF08959091F6048091F5049817B7
:101CB00050F4E92FF0E0E255FB4F208130E09F5FC8
:101CC0009093F60402C02FEF3FEFC9010895809171
:101CD000F50490E02091F604821B91090895CF92BB
:101CE000DF92EF92FF920F931F93CF93DF937C01CC
:101CF000262F972F8A018091FA04882391F0C62F0E
:101D0000D72F6E01C40ED51ECC15DD0571F069917B
:101D1000D701ED91FC910190F081E02DC70109956B
:101D2000F3CF642F822F0E941B0EC801DF91CF9149
:101D30001F910F91FF90EF90DF90CF900895CF9378
:101D4000DF931F92CDB7DEB769832091FA04222377
:101D5000D1F02091F704203240F021E030E0FC0186
:101D60003383228380E090E015C08091F804E82F4F
:101D7000F0E0ED5FFB4F998190838F5F8093F804D3
:101D80008093F70405C061E0CE0101960E941B0E0E
:101D900081E090E00F90DF91CF9108950895CF9367
:101DA000DF93FC01EB0171818281898387819085BA
:101DB0009A878987258536854381548163E2769F9A
:101DC000C00111248E529E4FDC0150965C934E93BD
:101DD0001F9756963C932E93559764E0769FD001BB
:101DE0001124AE55BE4F1D921D921D921C92139749
:101DF000838594859E878D8782858E8381E0DF91A0
:101E0000CF910895FC012281FB012783FC0183818E
:101E1000FB0180870895FC0182819381FB01908FF3
:101E2000878B0895DC01FB0112968D919C9113978D
:101E3000908F878B14968D919C911597948F838F9B
:101E400016968C911697858F17968D919C91189761
:101E5000948783870895DC01FB0112968C91129779
:101E600082838281811110C015968D919C91169765
:101E7000908F878B13968D919C911497948F838F5D
:101E800017968C91858308958281813079F4159617
:101E90008D919C91169790A3878F13968D919C910D
:101EA000149792A381A317968C91868F0895DC01D5
:101EB000FB0112968C911297838313968C91139742
:101EC000848314968D919C911597948B838B169691
:101ED0008D919C911797928B818B089593E2899FA6
:101EE000F0011124EE52FE4F708B6787568B458BA5
:101EF00094E0899FF0011124EE55FE4F108211826B
:101F0000128213820895089508951092C30524E063
:101F1000829FC0011124FC01EE55FE4F10821182F8
:101F200012821382089525E0FC01208384E491E06D
:101F3000089508958093C30508950E9454360F9321
:101F40001F93CF93DF931F92CDB7DEB78C016983C8
:101F500080911701882359F041E050E0BE016F5F86
:101F60007F4F83E00E94FA09181619063CF081E0C1
:101F700090E0F8019383828380E090E00F90DF91FE
:101F8000CF911F910F9108950F931F93CF93DF93DC
:101F90001F92CDB7DEB70091AA041091AB040F5F7A
:101FA0001F4F0F7311278091AC049091AD04081757
:101FB0001907F9F041E050E0BE016F5F7F4F82E00A
:101FC0000E94930A019719F4898190E002C08FEF73
:101FD0009FEF8F3F2FEF920761F0E091AA04F091FD
:101FE000AB04E659FB4F80831093AB040093AA0423
:101FF000D2CF0F90DF91CF911F910F9108951F9233
:102000000F920FB60F9211242F933F934F935F932C
:102010006F937F938F939F93AF93BF93EF93FF93B0
:102020008091B900887F803609F49CC068F58832B9
:1020300009F45BC090F4803109F454C038F488236B
:1020400009F4F6C0883009F44DC0F6C0883109F4AF
:102050004CC0803209F45DC0EFC0803409F468C020
:1020600048F4803309F455C0883309F0E5C0809303
:10207000F104D8C0803509F44FC0883509F45DC03B
:10208000883409F0D9C0D6C0883909F4C7C0A8F48B
:10209000883709F467C038F4883609F463C080379C
:1020A00009F460C0C9C0883809F4B8C0803909F49F
:1020B0005FC0803809F0C0C05BC0803B09F486C0B7
:1020C00038F4803A09F466C0883A09F47FC0B4C095
:1020D000803C09F4A7C0883C09F4A4C0883B09F4FB
:1020E0008AC0AAC08091EE0410C09091F004809143
:1020F000EF04981770F5E091F00481E08E0F809363
:10210000F004F0E0E253FB4F80818093BB0085EC4C
:1021100086C08093F1048EC0E091F00481E08E0FC0
:102120008093F0048091BB00F0E0E253FB4F80838A
:102130009091F0048091EF046EC0E091F00481E092
:102140008E0F8093F0048091BB00F0E0E253FB4FD0
:1021500080838091F30481116DC081E08093F2044B
:1021600084EA61C083E08093F40410926904CFCFC5
:1021700080916904803208F051C0E091690481E0E7
:102180008E0F809369048091BB00F0E0E75BFB4F0A
:102190008083BDCF85EC8093BC001092F4048091C5
:1021A0006904803230F4E0916904F0E0E75BFB4FB2
:1021B00010826091690470E0E0914704F091480456
:1021C00089E494E009951092690436C084E0809314
:1021D000F4041092460410924504E0914304F091F7
:1021E0004404099580914504811105C081E08093E4
:1021F000450410922304E091460481E08E0F809301
:102200004604F0E0ED5DFB4F80818093BB00909130
:10221000460480914504981708F479CF85E88093A7
:10222000BC000AC085EC8093BC001092F40404C08A
:102230001092F1040E94110EFF91EF91BF91AF91A6
:102240009F918F917F916F915F914F913F912F91CE
:102250000F900FBE0F901F9018952091F70490914A
:10226000F904213208F049C08091F4048111FCCFB7
:1022700032E03093F4046093F3043FEF3093F104C1
:102280001092F0042093EF04A3E0B4E04EEC54E08D
:10229000FA013E2F341B321718F43D913193F9CFD8
:1022A0001092EE042091EE04990F922B9093EE047D
:1022B0009091F204913061F41092F2049091EE0446
:1022C0009093BB009091BC0093FDF8CF95EC01C0BA
:1022D00095EE9093BC009091F4049230E1F39091CC
:1022E000F1049F3F79F08091F104803241F08091B8
:1022F000F104803331F084E005C081E003C082E066
:1023000001C083E01092F8041092F7041092FA04CE
:1023100008954F925F926F927F928F929F92AF92A9
:10232000BF92CF92DF92EF92FF920F931F93CF93C2
:10233000DF93CDB7DEB72C970FB6F894DEBF0FBE94
:10234000CDBF009709F49BC38C016091A10170E09F
:1023500080E090E00E9471342AE037ED43E25CE3D4
:102360000E94653569837A838B839C83F801808022
:102370009180A280B380B7FE08C0B094A0949094DE
:102380008094811C911CA11CB11CC501B4010E9448
:1023900071346B017C0160919A0170919B0180E026
:1023A00090E00E946F342B013C0126E636E646E6BB
:1023B0005FE30E94653529813A814B815C810E94EF
:1023C00065356D837E838F8398879B01AC01C70140
:1023D000B6010E94603587FDCBC0A30192016981DF
:1023E0007A818B819C810E94653569877A878B878A
:1023F0009C8720E030E040E85FE30E9450339B017F
:10240000AC01C701B6010E94BD3387FFB1C06D8129
:102410007E818F8198850E9439346B017C01A501F2
:102420009401261B370B480B590BAEE3B0E00E941A
:102430000C334B015C0169857A858B859C850E94F4
:1024400039349B01AC012C193D094E095F09C501C6
:10245000B4010E94ED3269017A01FFEFCF1ADF0A61
:10246000EF0AFF0A560161E08DE00E949E1AC11436
:10247000D10411F460E005C02FEFC216D10429F495
:1024800061E08DE00E94191A8AC0EEE1F8E0E49163
:102490008E2F90E0FC013197EE30F10508F062C01C
:1024A000EE55FF4F0C94473684B5806884BDC7BC99
:1024B00076C084B5806284BDC8BC71C08091800044
:1024C000806880938000D0928900C092880067C0A5
:1024D00080918000806280938000D0928B00C092B7
:1024E0008A005DC080919000806880939000D092B7
:1024F0009900C092980053C08091900080628093B0
:102500009000D0929B00C0929A0049C080919000A8
:10251000886080939000D0929D00C0929C003FC044
:102520008091C00080688093C0008091C0008F7B44
:102530008093C000C092CF0032C08091C000806202
:102540008093C000C092D0002AC08091C2008860F1
:102550008093C2008091C2008B7F8093C200C092A2
:10256000D2001DC030E8A316B1040CF089CF82CF91
:10257000A301920169817A818B819C810E946535DA
:1025800020E030E040E85FE30E9450339B01AC0163
:10259000C701B6010E94603587FD6CCF71CF609195
:1025A0009C0170E060587109072E000C880B990B94
:1025B0000E94713420E030E04FE753E40E94C733BB
:1025C0006B017C016093FF0370930004809301040E
:1025D0009093020420E030E0A9010E94603587FD5D
:1025E0001DC0A701960160E070E080E89FE30E94B3
:1025F00050336093FB037093FC038093FD0390932F
:10260000FE0380E090E0A0E8BFE38093F70390939F
:10261000F803A093F903B093FA0323C020E030E05D
:10262000A901C701B6010E94BD3387FF1AC080E02F
:1026300090E0A0E8BFE38093FB039093FC03A0939A
:10264000FD03B093FE039C01AD01C701B6010E94DA
:1026500051336093F7037093F8038093F9039093D9
:10266000FA0380919901982F907487FFD9C1F801DE
:10267000C080D180E280F380911142C185FDAAC063
:102680001C141D041E041F040CF047C040E060E051
:1026900070E085EC95E00E94261880909A01909059
:1026A0009B01A12CB12CC501B4010E946F342B01F8
:1026B0003C012091950130919601409197015091F4
:1026C00098010E9465350E9439346B017C0120918C
:1026D000F7033091F8034091F9035091FA03C301D5
:1026E000B2010E9465350E9439349B01AC012C195E
:1026F0003D094E095F09F8016081718182819381F2
:102700000E942336A50194010E94ED32CA01B9014D
:102710006C0D7D1D8E1D9F1D81C1C114D104E1046E
:10272000F10409F44CC080909A0190909B01A12C77
:10273000B12CC501B4010E946F342B013C012091E2
:1027400095013091960140919701509198010E9416
:1027500065350E94393469837A838B839C83F09436
:10276000E094D094C094C11CD11CE11CF11C2091B8
:10277000FB033091FC034091FD035091FE03C30124
:10278000B2010E9465350E94393429813A814B811A
:102790005C81621B730B840B950BA70196010E9451
:1027A0002336A50194010E94ED3269817A818B81E3
:1027B0009C81620F731F841F951F40E003C040E09F
:1027C00060E070E085EC95E00E94261840E060E053
:1027D00070E03BC1E0919A01F0919B011C141D0433
:1027E0001E041F04DCF44F019694879480919D0190
:1027F00090919E01880E991EA12CB12C2F01612C65
:10280000712CC301B201681979098A099B09A701D2
:1028100096010E942336A301920119C0C114D1046C
:10282000E104F10411F14F019694879480919D0188
:1028300090919E01881A990AA12CB12CA5019401AE
:10284000C701B6010E9423369F0140E050E00E947C
:10285000ED32CA01B901680D791D8A1D9B1DF80171
:10286000608371838283938303C0BF0176956795EC
:1028700040E085EC95E00E942618F801648175819E
:1028800086819781E0919A01F0919B0116161706B7
:1028900018061906CCF46F01D694C79420919D01B7
:1028A00030919E01C20ED31EE12CF12C4F01A12CC0
:1028B000B12C240135014C185D086E087F089B017E
:1028C000AC01C301B20199C0611571058105910583
:1028D00099F06F01D694C79420919D0130919E018B
:1028E000C21AD30AE12CF12CA70196010E942336CB
:1028F0009F0140E050E085C0BF01769567958EC08E
:10290000F7FC02C02F9A01C02F9880909A019090F6
:102910009B01A12CB12CC501B4010E946F34209100
:1029200095013091960140919701509198010E9434
:1029300065350E9439346B017C01F80120813181B9
:102940004281538157FF07C050954095309521959E
:102950003F4F4F4F5F4FC501B4016C197D098E0980
:102960009F090E942336A50194010E94ED32CA01FD
:10297000B9016C0D7D1D8E1D9F1DF8016083718353
:102980008283938340E085EC95E00E942618F8014D
:1029900084819581A681B781B7FD02C02E9A01C0BE
:1029A0002E9880909A0190909B01A12CB12CC5018A
:1029B000B4010E946F3420919501309196014091AD
:1029C0009701509198010E9465350E9439346B013E
:1029D0007C01F801248135814681578157FF07C06A
:1029E00050954095309521953F4F4F4F5F4FC50112
:1029F000B4016C197D098E099F090E942336A50137
:102A000094010E94ED32CA01B9016C0D7D1D8E1D2D
:102A10009F1DF801648375838683978340E015C00A
:102A2000911109C085FF07C0E0909A01F0909B01C9
:102A3000F694E79402C0E12CF12C40E0B70185EC5C
:102A400095E00E94261840E0B70184EC95E02C96B2
:102A50000FB6F894DEBF0FBECDBFDF91CF911F91AF
:102A60000F91FF90EF90DF90CF90BF90AF909F902D
:102A70008F907F906F905F904F900C9426182C96BB
:102A80000FB6F894DEBF0FBECDBFDF91CF911F917F
:102A90000F91FF90EF90DF90CF90BF90AF909F90FD
:102AA0008F907F906F905F904F9008956091930109
:102AB0007091940180E090E00E946F349B01AC0122
:102AC00060E07EEF8FEF96E40E94C73308952F9267
:102AD0003F924F925F926F927F928F929F92AF92AE
:102AE000BF92CF92DF92EF92FF920F931F93CF93FB
:102AF000DF93CDB7DEB729970FB6F894DEBF0FBED0
:102B0000CDBF998788874B012B831D830C831701C9
:102B1000DF82CE82042F10E08C819D816C01E12C3C
:102B2000F12CE885F985F7FD2BC0C8019695982F03
:102B3000882797958795BF01681B790B072E000C96
:102B4000880B990B0E9471342B013C01C701B6011F
:102B50000E946F349B01AC01C301B2010E94C733D4
:102B60002B013C01C8019695982F8827979587954A
:102B70009A838983EB8190E8E99FB00111242AC0F0
:102B8000B8017695762F662777956795E885F9855C
:102B90006E0F7F1F072E000C880B990B0E9471345B
:102BA0002B013C01C701B6010E946F349B01AC01AF
:102BB000C301B2010E94C7332B013C0160E86003EE
:102BC000C001619F900D11249A8389832B81620338
:102BD000B001112488859985681B790B072E000C9C
:102BE000880B990B0E9471346B017C01B10180E06C
:102BF00090E00E946F349B01AC01C701B6010E94B6
:102C0000C7336B017C018A149B0408F43FC08E819A
:102C10009F818A0D9B1D88169906C0F50C811D8128
:102C20000A0D1B1D8016910690F4B4016A197B09E8
:102C300080E090E00E946F349B01AC01C301B201BF
:102C40000E9465350E94393489819A811CC082199D
:102C5000930988159905E8F48A189B08EE81FF818D
:102C60008E1A9F0AB401620D731D80E090E00E94ED
:102C70006F349B01AC01C701B6010E9465350E940B
:102C8000393488859985860F971F05C080E090E0CC
:102C900002C08885998529960FB6F894DEBF0FBECD
:102CA000CDBFDF91CF911F910F91FF90EF90DF90FB
:102CB000CF90BF90AF909F908F907F906F905F90DC
:102CC0004F903F902F9008958F929F92AF92BF9216
:102CD000CF92DF92EF92FF92CF93DF934B015C0193
:102CE000EA010E940B066B017C01DE01A501940143
:102CF0000E9417330E947134A70196010E94653526
:102D000020E030E040E051E40E94653520E030E012
:102D100040E251E40E94653520E030E040E85BE3AA
:102D20000E9465350E9439340E9430069095809546
:102D3000709561957F4F8F4F9F4FDF91CF91FF909F
:102D4000EF90DF90CF90BF90AF909F908F900895BD
:102D50009091F4049111FCCF91E09093F40490933E
:102D6000F3042FEF2093F1041092F004260F209328
:102D7000EF049093EE049091EE04880F892B8093DA
:102D8000EE048091F204813061F41092F20480919B
:102D9000EE048093BB008091BC0083FDF8CF85ECEE
:102DA00001C085EE8093BC008091F4048130E1F392
:102DB0008091F004861710F46091F004AEECB4E05A
:102DC0002EEA34E0F9018E2F821B861718F48D91BC
:102DD0008193F9CF862F0895009769F0FC01019047
:102DE0000020E9F73197AF01481B590BBC018BEF6D
:102DF00094E00C94970D80E090E00895CF93DF93DA
:102E000010921905109218059091150521E0209354
:102E1000FA049093F9041092F8041092F704A09128
:102E20001A05B0911B05ED91FC9111970190F0816D
:102E3000E02D682FCD01099561E080911A059091F0
:102E40001B050E942D11882319F08AE99FEF0DC000
:102E500062E0809115050E94A8161092F6048093F6
:102E6000F504823049F089E99FEF9093190580932A
:102E7000180580E090E01BC080911A0590911B0519
:102E8000DC01ED91FC910680F781E02D0995D82FAA
:102E9000B0E0CB2F80911A0590911B05DC01ED91DC
:102EA000FC910680F781E02D09958C0F9D1FDF9125
:102EB000CF9108950F931F930E94251B60930305E4
:102EC000709304058093050590930605E091FB043B
:102ED000F091FC040084F185E02D8BEF94E00995DE
:102EE00097FF1FC00E94251B009103051091040548
:102EF0002091050530910605DC01CB01801B910B6B
:102F0000A20BB30B0091FF04109100052091010565
:102F10003091020580179107A207B307B8F28FEF2F
:102F20009FEF1F910F910895E091FB04F091FC0435
:102F30000190F081E02D682F8BEF94E00994CF93FE
:102F4000DF938DE00E949417EC018AE00E949417B1
:102F50008C0F9D1FDF91CF9108958F929F92AF921A
:102F6000BF92EF92FF920F931F93CF93DF93CDB752
:102F7000DEB7A1970FB6F894DEBF0FBECDBF162FF8
:102F8000042F19A2423008F40AE07E0121E2E20E89
:102F9000F11C802E912CA12CB12C612FA501940144
:102FA0000E941F33029F1019112481E0E81AF108D2
:102FB0001A3014F4105D01C0195CF7011083122F50
:102FC000732FCA01232B242B252B39F7C7010E940D
:102FD000EC16A1960FB6F894DEBF0FBECDBFDF9101
:102FE000CF911F910F91FF90EF90BF90AF909F9066
:102FF0008F900895CF92DF92EF92FF92CF93DF935D
:1030000097FF19C06B017C018DE20E949417EC01BF
:1030100066277727CB016C197D098E099F094AE045
:103020000E94AD178C0F9D1FDF91CF91FF90EF9005
:10303000DF90CF9008954AE0DF91CF91FF90EF901D
:10304000DF90CF900C94AD170C94EC161F93CF9398
:10305000DF93EB011091B8002CE02093B800FC0145
:10306000808191E09093FA048093F9041092F8041F
:103070001092F704442311F060E601C060E489E097
:1030800095E00E949F0EBE0184E0769567958A9533
:10309000E1F789E095E00E949F0EBE0194E0660F83
:1030A000771F9A95E1F789E095E00E949F0E61E015
:1030B00089E095E00E942D111093B800DF91CF9127
:1030C0001F910895CF92DF92EF92FF926B017C01E6
:1030D0008CE00E94FE16E5E1F5E09F70948B838BF7
:1030E0006785708981899289C786D08AE18AF28A48
:1030F000FF90EF90DF90CF900895CF931092190535
:10310000109218058091150591E09093FA04809330
:10311000F9041092F8041092F70480911A05909126
:103120001B05DC01ED91FC910190F081E02D67E041
:10313000099561E080911A0590911B050E942D115F
:10314000C82F882341F08CE99FEF90931905809355
:103150001805C0E01EC061E0809115050E94A81608
:103160001092F6048093F504813039F08BE99FEFDB
:1031700090931905809318050CC080911A059091C1
:103180001B05DC01ED91FC910680F781E02D09958E
:10319000C82F8C2FCF910895CF93C82F1092190567
:1031A000109218058091150591E09093FA04809390
:1031B000F9041092F8041092F70480911A05909186
:1031C0001B05DC01ED91FC910190F081E02D67E0A1
:1031D000099580911A0590911B05DC01ED91FC91F8
:1031E0000190F081E02D6C2F099561E080911A0526
:1031F00090911B050E942D11882331F088E39FEFE9
:10320000909319058093180580911805CF91089522
:10321000CF93DF93BC01990F880B990B0E94FA178B
:10322000EC010E949F178C0F9D1FDF91CF91089595
:103230008F929F92AF92BF92CF92DF92EF92FF92C6
:103240000F931F938EE00E94FE1620911805309177
:10325000190540912405509125056091260570912E
:103260002705232B21F0342F252FCB014FC09F7032
:1032700020912805309129054901032E000CAA0848
:10328000BB086C01092E000CEE08FF082130E8E0B5
:103290003E075CF0F901F8508E179F0734F4505F39
:1032A0006F4F7F4F8A019B010EC08130E8E09E077F
:1032B0008CF0FC01F8502E173F0764F48A019B0143
:1032C000105121093109081919092A093B09B901C5
:1032D000A80104C0481959096A097B094C0D5D1DF4
:1032E0006E1D7F1D40932405509325056093260590
:1032F0007093270590932905809328053091240524
:10330000209125058091260590912705632F722F26
:103310001F910F91FF90EF90DF90CF90BF90AF90F3
:103320009F908F900895BC01990F880B990B0C9476
:10333000FA17682F70E080E090E04AE00C94AD1737
:10334000FF920F931F93CF93DF9300D000D0CDB7A0
:10335000DEB70E945A17FC0197FD11C08D3291050E
:1033600091F0C0970A9778F0E091FB04F091FC048B
:103370000680F781E02D8BEF94E00995EACF60E0BD
:1033800070E0CB014CC020E030E0A901F12CE1302D
:10339000F105F1F0ED32F105C9F0CF01C0970A97C0
:1033A000B8F4AAE0B0E00E940C338F01FF0F220BAB
:1033B000330BDC01CB01800F911FA21FB31F9C01B7
:1033C000AD01205331094109510902C0FF24F39492
:1033D000E091FB04F091FC040680F781E02D8BEF77
:1033E00094E029833A834B835C8309950E945A17A2
:1033F000FC01C09729813A814B815C810A9738F2A0
:10340000E130F10521F2FF2041F066277727CB015B
:10341000621B730B840B950B02C0CA01B9010F909C
:103420000F900F900F90DF91CF911F910F91FF9010
:103430000895362F90E0FC01EF5EF74F4491FC01B8
:10344000EE50F84F2491FC01ED52F84F84918823FF
:1034500009F44DC04423C1F150E0FA013197EE3038
:10346000F10590F5E055FF4F0C94473690918000A0
:103470009F7703C0909180009F7D9093800024C02F
:1034800094B59F7702C094B59F7D94BD1DC0909167
:1034900090009F7707C0909190009F7D03C090910E
:1034A0009000977F909390000FC09091C0009F77FD
:1034B00003C09091C0009F7D9093C00005C0909183
:1034C000C200977F9093C200E82FF0E0EE0FFF1F3D
:1034D000EB53F84FA591B4918FB7F894EC9131115B
:1034E00003C020952E2301C02E2B2C938FBF08954F
:1034F0001092F6041092F5041092F8041092F7045A
:103500001092F40481E08093F3041092F20461E0DD
:1035100082E00E94191A61E083E00E94191AE9EB27
:10352000F0E080818E7F808380818D7F808388E43E
:103530008093B80085E48093BC000895CF93DF9317
:1035400090E0FC01EE50F84F2491FC01ED52F84F51
:103550008491882361F190E0880F991FFC01E05D60
:10356000F74FC591D491FC01EB53F84FA591B4915D
:10357000611109C09FB7F8948881209582238883C0
:10358000EC912E230BC0623061F49FB7F894388120
:10359000822F809583238883EC912E2B2C939FBFC1
:1035A00006C08FB7F894E8812E2B28838FBFDF9158
:1035B000CF9108953FB7F8948091DC059091DD0597
:1035C000A091DE05B091DF0526B5A89B05C02F3F71
:1035D00019F00196A11DB11D3FBFBA2FA92F982F39
:1035E0008827820F911DA11DB11DBC01CD0142E0B4
:1035F000660F771F881F991F4A95D1F70895CF92BC
:10360000DF92EF92FF92CF93DF936B017C010E94D8
:10361000DA1AEB01C114D104E104F10479F00E943B
:10362000DA1A6C1B7D0B683E7340A0F381E0C81A68
:10363000D108E108F108C851DC4FECCFDF91CF9100
:10364000FF90EF90DF90CF9008952FB7F89460919E
:10365000D8057091D9058091DA059091DB052FBFCF
:1036600008951F920F920FB60F9211242F933F933C
:103670008F939F93AF93BF938091D8059091D90575
:10368000A091DA05B091DB053091D70523E0230F37
:103690002D3720F40196A11DB11D05C026E8230F8A
:1036A0000296A11DB11D2093D7058093D805909354
:1036B000D905A093DA05B093DB058091DC059091E4
:1036C000DD05A091DE05B091DF050196A11DB11DBC
:1036D0008093DC059093DD05A093DE05B093DF05B4
:1036E000BF91AF919F918F913F912F910F900FBEFE
:1036F0000F901F901895CF93DF93CDB7DEB7C454CA
:10370000D1090FB6F894DEBF0FBECDBF789484B553
:10371000826084BD84B5816084BD85B5826085BDCD
:1037200085B5816085BD80916E00816080936E005B
:10373000109281008091810082608093810080914D
:1037400081008160809381008091800081608093FE
:10375000800080919100826080939100809191001F
:1037600081608093910080919000816080939000AF
:103770008091C10084608093C1008091C10082600B
:103780008093C1008091C10081608093C1008091CD
:10379000C30081608093C3008091C00082608093E9
:1037A000C0008091C20081608093C20080917A0045
:1037B000846080937A0080917A00826080937A009E
:1037C00080917A00816080937A0080917A0080688D
:1037D00080937A001092900181E08093D70080EA74
:1037E0008093D80082E189BD09B400FEFDCF61E07D
:1037F00070E080E090E00E94FF1A80E98093D8009A
:103800008CE08093E2001092E0001092A7031092E7
:10381000A6031092AD031092AE031092AF03109264
:10382000B0031092A1031092A0031092B50310925E
:10383000B6031092B7031092B8031092BD03109212
:10384000BE031092BF031092C0031092B9031092EE
:10385000BA031092BB031092BC031092C1031092E2
:10386000C2031092C3031092C40342E0BE01615F21
:103870007F4F80E090E00E943B088F8598898A3FC7
:10388000910509F407C18AEF90E09E878D8742E099
:10389000BE01635F7F4F80E090E00E940C081982B8
:1038A0001A821B821C8244E0BE016F5F7F4F82E060
:1038B00090E00E940C0888E394E09E878D8742E0A8
:1038C000BE01635F7F4F86E090E00E940C0884E6B3
:1038D000898B41E0BE016F5E7F4F88E090E00E94DF
:1038E0000C0841E0BE016F5E7F4F8BE090E00E94CC
:1038F0000C0841E0BE016F5E7F4F8CE090E00E94BB
:103900000C0841E0BE016F5E7F4F80E190E00E94B5
:103910000C0841E0BE016F5E7F4F8DE090E00E9499
:103920000C0882E3898B41E0BE016F5E7F4F89E026
:1039300090E00E940C0841E0BE016F5E7F4F8AE07C
:1039400090E00E940C0841E0BE016F5E7F4F8EE068
:1039500090E00E940C0886E4898B41E0BE016F5E16
:103960007F4F8FE090E00E940C081E861D8642E08B
:10397000BE01635F7F4F81E190E00E940C088FEFF2
:1039800097E09E878D8742E0BE01635F7F4F83E1B2
:1039900090E00E940C088FEF9FE09E878D8742E0A9
:1039A000BE01635F7F4F85E190E00E940C0810E844
:1039B000198B41E0BE016F5E7F4F87E190E00E946E
:1039C0000C0881E0898B41E0BE016F5E7F4F88E18A
:1039D00090E00E940C0880E090E1A0E0B0E08983D4
:1039E0009A83AB83BC8344E0BE016F5F7F4F89E164
:1039F00090E00E940C08198B41E0BE016F5E7F4F82
:103A00008DE190E00E940C081E861D8642E0BE01FA
:103A1000635F7F4F8AE290E00E940C0842E0BE01A3
:103A2000635F7F4F8EE290E00E940C0842E0BE018F
:103A3000635F7F4F82E390E00E940C0842E0BE018A
:103A4000635F7F4F86E390E00E940C088FEF93E066
:103A50009E878D8742E0BE01635F7F4F8CE290E0DE
:103A60000E940C0842E0BE01635F7F4F80E390E05C
:103A70000E940C0842E0BE01635F7F4F84E390E048
:103A80000E940C0842E0BE01635F7F4F88E390E034
:103A90000E940C0842E06FE971E086E090E00E942D
:103AA0003B0844E060E873E089E190E00E943B0855
:103AB00041E061EA71E088E090E00E943B0841E06B
:103AC00067E873E089E090E00E943B0841E065E828
:103AD00073E08AE090E00E943B0841E06AE873E00E
:103AE0008BE090E00E943B0841E069E873E08CE0E5
:103AF00090E00E943B0841E068E873E08DE090E0D0
:103B00000E943B0841E066E873E08EE090E00E948E
:103B10003B0841E06BE873E08FE090E00E943B08D7
:103B200041E064E873E080E190E00E943B0841E0FE
:103B30006CE971E087E190E00E943B0841E06CEAAB
:103B400073E088E190E00E943B0842E06DE971E09B
:103B500081E190E00E943B0842E06AE971E083E184
:103B600090E00E943B0842E06EE773E085E190E060
:103B70000E943B0880917E0390917F0390939B016C
:103B800080939A0141E069E971E08DE190E00E9443
:103B90003B0842E068EA73E08AE290E00E943B085A
:103BA00042E06AEA73E08CE290E00E943B0842E067
:103BB00061EB73E08EE290E00E943B0842E063EB31
:103BC00073E080E390E00E943B0842E062EA73E029
:103BD00082E390E00E943B0842E064EA73E084E301
:103BE00090E00E943B0842E06CE973E086E390E0DD
:103BF0000E943B0842E06EE973E088E390E00E9497
:103C00003B086091800370918103809182039091C1
:103C100083030E94713420E030E044EB53E40E94BF
:103C2000C7336B017C0180919F019091A001BC0181
:103C3000990F880B990B0E9471349B01AC01C7014D
:103C4000B6010E9465350E94393460937603709303
:103C500077038093780390937903DC01CB01B595CA
:103C6000A795979587958093C5039093C603A093D6
:103C7000C703B093C80360E082E10E949E1A60E02F
:103C800083E10E949E1A60E084E10E949E1A60E037
:103C900085E10E949E1A62E084E00E949E1A62E022
:103CA00086E10E949E1A62E087E10E949E1A62E00D
:103CB0008CE00E949E1A62E086E00E949E1A62E0FA
:103CC00087E00E949E1A62E088E00E949E1A62E0ED
:103CD00081E00E949E1A80916900806C8093690047
:103CE000EB9A88E191E0909392018093910188ECA6
:103CF00094E09093C7058093C60582E79BE090937C
:103D0000C9058093C805279A00917E0310917F030F
:103D1000109394010093930110939B0100939A01D7
:103D200060919D0170919E0180E090E00E946F344F
:103D30006B017C01B80180E090E00E946F349B0130
:103D4000AC01C701B6010E94C7336093950170931F
:103D50009601809397019093980180919901182F73
:103D6000117080FD05C020E030E04AEF54E404C04B
:103D700020E030E04AE754E46091080170910901C5
:103D800080910A0190910B010E94653560930801B2
:103D90007093090180930A0190930B01111105C0E2
:103DA00020E030E04AEF54E404C020E030E04AE78D
:103DB00054E4609104017091050180910601909195
:103DC00007010E946535609304017093050180939B
:103DD000060190930701111105C020E030E04AEF81
:103DE00054E404C020E030E04AE754E4609100016C
:103DF0007091010180910201909103010E9465354B
:103E0000609300017093010180930201909303017C
:103E100080E68093C5050E94781A81E68093C405E8
:103E20000E94781A41E060E070E085EC95E00E9425
:103E3000261841E060E070E084EC95E00E942618CE
:103E4000269A61E08DE00E949E1A13E061E08DE009
:103E50000E94191A64E170E080E090E00E94FF1A6D
:103E600060E08DE00E94191A64E170E080E090E06B
:103E70000E94FF1A115051F710929203109293036F
:103E80001092940310929503109296031092970348
:103E9000109298031092990382E993E00E9489118D
:103EA00010929103109290038FEF97E090937D030F
:103EB00080937C0380919C0180937B030E94781AFD
:103EC0008FEF80931605109217058091150591E0EC
:103ED0009093FA048093F9041092F8041092F70476
:103EE00061E080911A0590911B050E942D110E949E
:103EF0007D18837E0E94CC180E947D188C7F0E94C2
:103F0000CC186091C5037091C6038091C70390914E
:103F1000C8030E9462180E94DA1A6093C903709362
:103F2000CA038093CB039093CC030E94DA1A609368
:103F30002E0570932F0580933005909331050091E5
:103F4000CD031091CE032091CF033091D0036B01AC
:103F50007C01C01AD10AE20AF30AC0922A05D09263
:103F60002B05E0922C05F0922D050091C9031091CC
:103F7000CA032091CB033091CC036B017C01C01AA2
:103F8000D10AE20AF30A40EDC41647E0D406E10480
:103F9000F10410F40C9409326093C9037093CA03BE
:103FA0008093CB039093CC0380917A038823A1F074
:103FB0006091C5037091C6038091C7039091C803B7
:103FC0000E9462186093BD037093BE038093BF0389
:103FD0009093C00310927A030E941819C090C503F1
:103FE000D090C603E090C703F090C803DC01CB017A
:103FF0008C199D09AE09BF098093BD039093BE0340
:10400000A093BF03B093C0038093B5039093B6030E
:10401000A093B703B093B8034601570180949094DE
:10402000A094B094C818D908EA08FB086091AD03C1
:104030007091AE038091AF039091B003A7019601F8
:104040000E9423362FEF3FEF40E050E00E94ED3218
:10405000BA01A901480D591D6A1D7B1D4093B90382
:104060005093BA036093BB037093BC031091AC03ED
:1040700015FB882780F916FD826017FF02C0846057
:104080000BC0813049F44093B5035093B60360935D
:10409000B7037093B8032AC0823029F4A091A60315
:1040A000B091A7030DC0833029F4A091A003B09173
:1040B000A10306C08430D1F4A0919A03B0919B0370
:1040C000A70196010E9417332FEF3FE040E050E038
:1040D0000E94ED32820E931EA41EB51E8092B5037F
:1040E0009092B603A092B703B092B8038090B50344
:1040F0009090B603A090B703B090B80380913705B5
:1041000090913805A0913905B0913A058092370514
:1041100090923805A0923905B0923A0520913F055A
:10412000222309F449C00091680554E0059F9001DD
:104130001124B901695C7A4F7B01A5019401281B08
:10414000390B4A0B5B0BCA01B9010E947134D701CC
:1041500019966D937D938D939C931C97F02E3AE066
:10416000E32E60E070E0CB01B4E0FB9EF00111248F
:10417000E95CFA4F21853285438554850E9451338D
:10418000FF2011F0FA9402C029E0F22EEA94E11027
:10419000EBCF20E030E040E251E40E94C7330F5FF4
:1041A0000A3018F40093680502C0109268056CA7E5
:1041B0007DA78EA79FA70FC081E080933F05109237
:1041C0003B0510923C0510923D0510923E051CA641
:1041D0001DA61EA61FA62091690530916A05409173
:1041E0006B0550916C058CA59DA5AEA5BFA58093D0
:1041F000690590936A05A0936B05B0936C05809157
:104200007105882309F444C00091C205E4E00E9FC3
:10421000C0011124BC01605C7A4F7B016CA57DA5B7
:10422000CD010E945033D701D2966D937D938D932B
:104230009C93D597F02E84E1E82E60E070E0CB01EE
:10424000B4E0FB9EF0011124E05CFA4F22A933A9EF
:1042500044A955A90E945133FF2011F0FA9402C0DD
:10426000B3E1FB2EEA94E110EBCF20E030E040EA2E
:1042700051E40E94C7330F5F043118F40093C20564
:1042800002C01092C2056CAB7DAB8EAB9FAB0FC072
:1042900081E08093710510926D0510926E05109269
:1042A0006F05109270051CAA1DAA1EAA1FAA809154
:1042B000C3058823F1F110FD02C00C9463290E940C
:1042C00056159B01AC0160E070E080E094E40E9430
:1042D000C7336B017C0160918B0370E080E090E05C
:1042E0000E9471349B01AC01C701B6010E94653583
:1042F00020E030E048EC52E40E94C7330E94393499
:104300006B017C01AB01C501B4010E9464162B0155
:104310003C016091B9037091BA038091BB03909105
:10432000BC03A6010E9464166EA37FA388A799A769
:10433000D1C7E6EAF1E0FBA7EAA71B8A1A8A1EA208
:104340001FA218A619A6412C512C32010A891B89DB
:104350000F5F1F4F1B8B0A8B43E29801429F800126
:10436000439F100D11240E521E4FD8018C91837063
:10437000833009F09BC70E9456156E8B7F8B888F08
:10438000998FF80121853285A789B08D0E944D361D
:104390002FEF3FE740E050E00E94ED32CA01B90143
:1043A0000E9471342E893F89488D598D0E94C733F0
:1043B0000E9439349B01AC01D80119960D90BC9133
:1043C000A02DBF8FAE8FF801278C30A083859485F8
:1043D000059728F4A4E0CA2ED12CD486C38603E224
:1043E000EA88FB880E9DF0010F9DF00D1124EE521E
:1043F000FE4FE1818E2F90E0FC013197ED30F10509
:1044000008F03EC7EA5AFF4F0C9447360E945615F3
:104410006E8B7F8B888F998F43E22A893B89429FDD
:10442000C001439F900D1124BC016E527E4F1B01B1
:10443000DB0119968D909C901A975596AD90BC9083
:1044400056971F96CD90DC9050975196ED90FC902A
:10445000529753960D911C91549714962C91149742
:1044600013964C91139757968D919C915897EAA566
:10447000FBA5608171810E9467159401DC010E9497
:104480004D362FEF3FE740E050E00E94ED32CA0189
:10449000B9010E9471342E893F89488D598D0E943F
:1044A000C7330E9439340E9430069B01AC01A091B1
:1044B0008A03B0E00E940C3324E630E040E050E094
:1044C0000E94ED32421A530A640A750A82C10E94A0
:1044D00056156E8B7F8B888F998F63E2E62ECA8884
:1044E000DB88EC9CF001ED9CF00D1124EE52FE4FA8
:1044F000018512851B8F0A8FC588D688DF8ECE8EE8
:10450000E784F088FBA2EAA20189128919AB08AB03
:104510000389148921961FAF0EAF21978480938061
:10452000AAA5BBA52D903C90078510896085A78022
:104530000A2C000CBB08062E000C770B6A197B09AD
:10454000CB01770FAA0BBB0B6627782F892F9A2FE9
:104550000E9471346B017C01B80180E090E00E9400
:104560006F3420E030E04AE754E40E94C7339B01F7
:10457000AC01C701B6010E94C7336B017C01C101C8
:10458000B8010E943336BC0180E090E00E946F3495
:1045900020E030E04AE754E40E94C7339B01AC01BD
:1045A000C701B6010E9465350E943934BA2CAA248D
:1045B000C501860F971FAE8CBF8CCAA0DBA0E8A8F0
:1045C000F9A821960EAD1FAD2197282D492DB101D7
:1045D0000E9467152A8D3B8DDC010E944D362FEF1E
:1045E0003FE740E050E00E94ED32CA01B9010E946D
:1045F00071342E893F89488D598D0E94C7330E949E
:1046000039340E943006461A570A680A790A38C6B1
:104610000E9456156A8F7B8F8C8F9D8F53E2C52E1B
:10462000EA89FB89CE9EC001CF9E900D11248C019A
:104630000E521E4F1801D80119960D90BC91A02D55
:10464000BF8FAE8FF801038CF48DE02DFBA3EAA39E
:10465000D8015D96BC91B8ABF80183849484A58899
:10466000B688C784D088E188F288038914892481B8
:104670004381AAA5BBA50D90BC91A02DBF8BAE8B8D
:104680008789908DBD010E9467158C01B40180E07F
:1046900090E00E946F3420E030E04AE754E40E944A
:1046A000C7339B01AC0160E070E080E89FE30E94AB
:1046B000C7336B017C018E899F89B4010E94333618
:1046C000BC0180E090E00E946F3420E030E04AE7D7
:1046D00054E40E94C7339B01AC01C701B6010E949C
:1046E00065356B017C01B8A96B2F70E080E090E02C
:1046F0000E946F3420E030E040E85BE30E946535C3
:104700009B01AC01C701B6010E9451332BED3FE084
:1047100049EC50E40E9465350E94D2359B01AC0102
:10472000EAA1FBA16F01FF0FEE08FF08B801110F0E
:10473000880B990B22962FAF229725963FAF25978E
:1047400023964FAF239724965FAF24970E9471342E
:1047500022962FAD229725963FAD259723964FADF4
:10476000239724965FAD24970E9465350E943934C3
:10477000CB01770FAA0BBB0BA7019601280F391F9E
:104780004A1F5B1FAE8DBF8D0E940C332FEF3FE79A
:1047900040E050E00E94ED32CA01B9010E9471343C
:1047A0002A8D3B8D4C8D5D8D0E94C7330E9439341C
:1047B0009B01AC01A0918903B0E00E940C3324E678
:1047C00030E040E050E00E94ED32420E531E641E85
:1047D000751ED10116968C9182FF52C5C301B2019C
:1047E0000E9471346B017C01F1016585768580E062
:1047F00090E00E946F342BED3FE049EC50E40E94C2
:10480000653520E030E040E058E30E9465350E94C5
:10481000C2339B01AC016EA17FA188A599A5229608
:104820002FAF229725963FAF259723964FAF23971B
:1048300024965FAF24970E9471344B015C0122964D
:104840002FAD229725963FAD259723964FAD239701
:1048500024965FAD2497C701B6010E9465359B0180
:10486000AC01C501B4010E9451330E9439346EA3DA
:104870007FA388A799A7D1011D966D917C911E9762
:1048800080E090E00E946F342BED3FE049EC50E473
:104890000E94653520E030E040E058E30E94653535
:1048A0000E94D2359B01AC01C701B6010E9465355B
:1048B0000E9439342B013C01E3C40E9456156A8FD3
:1048C0007B8F8C8F9D8F43E2E42ECA88DB88EC9C23
:1048D000F001ED9CF00D1124EE52FE4F0185128582
:1048E0001F8F0E8F238D348DA901330F660B770B2D
:1048F0004AA35BA36CA37DA3558D58AB238434845A
:10490000A588B688C784D088E188F288038914898D
:1049100024814381AAA5BBA50D90BC91A02DBF8B7E
:10492000AE8B8789908DBD010E946715BC01990FE0
:10493000880B990B0E9471344B015C01B10180E03E
:1049400090E00E946F3420E030E04AE754E40E9497
:10495000C7339B01AC0160E070E080E89FE30E94F8
:10496000C7336B017C018E899F89B1010E94333668
:10497000BC0180E090E00E946F3420E030E04AE724
:1049800054E40E94C7339B01AC01C701B6010E94E9
:1049900065356B017C01B8A96B2F70E080E090E079
:1049A0000E946F3420E030E040E85BE30E94653510
:1049B0009B01AC01C701B6010E9451332BED3FE0D2
:1049C00049EC50E40E9465350E94D2356B017C01B0
:1049D00020E030E0A9010E94603587FF0CC020E094
:1049E00030E0A901C701B6010E94BD3387FF05C0B1
:1049F000EFEFE8AF02C0F1E0F8AFC8AC6C2DCC0C23
:104A0000770B880B990B0E9471349B01AC01C50197
:104A1000B4010E9465350E943934CB01770FAA0B8F
:104A2000BB0BDDC10E9456156E8F7F8F88A399A3A3
:104A300003E2EA88FB880E9DF0010F9DF00D112422
:104A4000EE52FE4F218532853BA32AA3238D348D60
:104A5000A901330F660B770B48AB59AB6AAB7BAB45
:104A6000358D638574857F8B6E8BA588B688C784EA
:104A7000D088E188F2880389148924814381AAA51A
:104A8000BBA50D90BC91A02DBB8FAA8F8789908D5F
:104A9000BD0125963FAF25970E9467151C01EE8941
:104AA000FF89BF0180E090E00E946F344B015C0100
:104AB00025963FAD259760E4630F70E080E090E0BD
:104AC0000E946F3420E030E040E85BE30E946535EF
:104AD000A50194010E9465350E9440348A8D9B8D0A
:104AE000860F971F6E897F890E9433368C01BC0127
:104AF00080E090E00E946F3420E030E04AE754E428
:104B00000E94C7336B017C0120E030E0A9010E94C4
:104B1000603587FD3CC020E030E04AE754E4C50141
:104B2000B4010E94C7336A8F7B8F8C8F9D8F20E0EA
:104B300030E040E05FE30E9465359B01AC01C701B6
:104B4000B6010E94BD3387FF22C0B101032C000CC7
:104B5000880B990B0E94713420E030E040E850E46B
:104B60000E9465352A8D3B8D4C8D5D8D0E94C7332B
:104B7000A70196010E9465350E9439343194219431
:104B800031086101C60ED71EDAAEC9AE51C020E0B1
:104B900030E04AE754E4C501B4010E94C7334B0139
:104BA0005C0120E030E040E05FE30E9465359B015E
:104BB000AC01C701B6010E94603587FD39C0A5016F
:104BC0009401C701B6010E94BD3387FF31C0B10116
:104BD000032C000C880B990B0E94713420E030E00C
:104BE00040E850EC0E946535A50194010E94C7334E
:104BF0006B017C018E899F8996958795B801681B0A
:104C0000790B80E090E00E946F3420E030E04AE7CA
:104C100054E40E94C7339B01AC01C701B6010E9456
:104C200065350E9439347101E60EF71EFAAEE9AE21
:104C300009AD1AADC801110FAA0BBB0B28A939A9E0
:104C40004AA95BA9280F391F4A1F5B1FAAA1BBA154
:104C50000E940C332FEF3FE740E050E00E94ED321E
:104C6000CA01B9010E9471342E8D3F8D48A159A10E
:104C70000E94C7330E9439349B01AC01A091890383
:104C8000B0E00E940C3324E630E040E050E00E94A7
:104C9000ED32420E531E641E751EF2C20E9456155E
:104CA0006A8F7B8F8C8F9D8F43E22A893B89429F3D
:104CB000F001439FF00D1124EE52FE4F6185728585
:104CC0007F8F6E8F238D348DC901330FAA0BBB0BE1
:104CD0008AA39BA3ACA3BDA3358D23843484A5886C
:104CE000B688C784D088E188F28803891489248132
:104CF0004381AAA5BBA58D909C908789908DB40116
:104D000025963FAF25970E9467159F8B8E8BB1012B
:104D100080E090E00E946F346B017C0125963FADEE
:104D2000259760E8630F70E080E090E00E946F34A8
:104D300020E030E040E85BE30E946535A701960182
:104D40000E9465350E944034C401860F971FB1014F
:104D50000E9433368C0182159305D8F5EE89FF89C0
:104D6000BF01FF0F880B990B0E9471349B01AC01AE
:104D70000E9451334B015C0120E030E04AE754E4EB
:104D8000C701B6010E94C7339B01AC01C501B40144
:104D90000E94C7336B017C01B80180E090E00E9463
:104DA0006F3420E030E04AE754E40E94C7339B01AF
:104DB000AC01C701B6010E9465350E9439342E89C5
:104DC0003F893195219531096901C60ED71EDCAEA8
:104DD000CBAEEBACFCACC701FF0CAA0BBB0B2AA102
:104DE0003BA14CA15DA1280F391F4A1F5B1FAE8D4F
:104DF000BF8D0E940C332FEF3FE740E050E00E9450
:104E0000ED32CA01B9010E9471342A8D3B8D4C8D5F
:104E10005D8D2ECF0E9456156A8F7B8F8C8F9D8F54
:104E200023E20A891B89209FF001219FF00D1124A4
:104E3000EE52FE4F418552855F8F4E8F238D348D0C
:104E4000B901330F880B990B6AA37BA38CA39DA395
:104E5000358D23843484A588B688C784D088E188BA
:104E6000F2880389148924814381AAA5BBA58D906A
:104E70009C908789908DB40125963FAF25970E941D
:104E800067159F8B8E8BB10180E090E00E946F349C
:104E90006B017C0125963FAD259760E8630F70E0BC
:104EA00080E090E00E946F3420E030E040E85BE377
:104EB0000E946535A70196010E9465350E94403425
:104EC000C401860F971FB1010E9433368C018215F1
:104ED0009305D0F56E897F89719561957109072ECB
:104EE000000C880B990B0E9471349B01AC010E944D
:104EF00051334B015C0120E030E04AE754E4C70144
:104F0000B6010E94C7339B01AC01C501B4010E94E8
:104F1000C7336B017C01B80180E090E00E946F34E0
:104F200020E030E04AE754E40E94C7339B01AC0123
:104F3000C701B6010E9465350E943934EE89FF89A8
:104F4000E60FF71FFEAFEDAFCDACDEACC601DD0C5A
:104F5000AA0BBB0B44CFC0908803D12CE12CF12CC1
:104F600063E20A891B89609FC001619F900D112433
:104F70008C010E521E4F1B8F0A8FD8015B960D912C
:104F80001C915C978090C5039090C603A090C703C6
:104F9000B090C803C701B6010E94233620E436E072
:104FA00040E050E00E94ED322AA33BA34CA35DA356
:104FB000D801A50194010E941733DC01CB010FE059
:104FC000B595A795979587950A95D1F7092E000C69
:104FD000AA0BBB0B4091B5035091B6036091B70388
:104FE0007091B8038A019B01081B190B2A0B3B0B1C
:104FF000C901B8014AA15BA10E946416460E571E62
:10500000681E791EAA8DBB8D91960D911C91929769
:105010002E8D3F8DD1010E944D362FEF3FE740E0AE
:1050200050E00E94ED32CA01B9010E9471342E890C
:105030003F89488D598D0E94C7330E9439349B01A6
:10504000AC01C701B6010E94233620E436E040E0FF
:1050500050E00E94ED3269017A01D801A501940166
:105060000E941733DC01CB012FE0B595A7959795EA
:1050700087952A95D1F7092E000CAA0BBB0B4091FE
:10508000B9035091BA036091BB037091BC038A01CC
:105090009B01081B190B2A0B3B0BC901B801A60188
:1050A0000E9464162EA13FA148A559A5260F371FBF
:1050B000481F591F2EA33FA348A759A7E1C083E269
:1050C0006A897B89869FF001879FF00D1124EE523B
:1050D000FE4F038D148DA0918703B0E00E940C3326
:1050E00024E630E040E050E00E94ED3269017A01B0
:1050F000B801110F880B990B0E9471342AE939EC21
:105100004CEC54E40E94C7339B01AC016CA57DA517
:105110008EA59FA50E945033A6010E94440762C03D
:1051200013E2C12EAA89BB89CA9EF001CB9EF00D65
:105130001124EE52FE4F038D148DA0918603B0E032
:105140000E940C3324E630E040E050E00E94ED3253
:1051500069017A01B801110F880B990B0E94713413
:1051600020E03EEF4FEF56E40E94C7339B01AC01B5
:105170006CA97DA98EA99FA90E945033A6010E9407
:10518000DC0630C003E2EA88FB880E9DF0010F9D2B
:10519000F00D1124EE52FE4F038D148DA091850366
:1051A000B0E00E940C3324E630E040E050E00E9482
:1051B000ED3269017A01B801110F880B990B0E9439
:1051C00071342AE939EC4CEC54E40E94C7339B015A
:1051D000AC016CA57DA58EA59FA50E945033A601AC
:1051E0000E945B06092E000CAA0BBB0B480E591E31
:1051F0006A1E7B1E45C00E9456159B01AC0183E2CE
:105200006A897B89869FF001879FF00D1124EE52F9
:10521000FE4F838D948DBC01990F880B990B2296BC
:105220002FAF229725963FAF259723964FAF239711
:1052300024965FAF24970E94713422962FAD229757
:1052400025963FAD259723964FAD239724965FADC6
:1052500024970E94C7330E9439340E9430069B0174
:10526000AC01A0918903B0E00E940C3324E630E049
:1052700040E050E00E94ED32421A530A640A750A77
:105280000E94251B0091A2011091A3012091A4016D
:105290003091A501DC01CB01801B910BA20BB30B5C
:1052A000EAA5FBA580839183A283B3830AA51BA5EE
:1052B0000C5F1F4F1BA70AA72A893B892B3031059A
:1052C00009F044C807C01EA21FA218A619A6412CA7
:1052D000512C32011091AC0311FF3DC00E945615B4
:1052E0009B01AC01E091870367E471E0E69FC00198
:1052F000E79F900D1124BC0180E090E022962FAF33
:10530000229725963FAF259723964FAF2397249654
:105310005FAF24970E94713422962FAD2297259675
:105320003FAD259723964FAD239724965FAD2497E5
:105330000E94C7330E943934AB016CA57DA58EA5B0
:105340009FA50E944407092E000CAA0BBB0B480E18
:10535000591E6A1E7B1E12FF3DC00E9456159B01FE
:10536000AC01E091860367E471E0E69FC001E79F2E
:10537000900D1124BC0180E090E022962FAF22977F
:1053800025963FAF259723964FAF239724965FAF7F
:1053900024970E94713422962FAD229725963FAD17
:1053A000259723964FAD239724965FAD24970E94AF
:1053B000C7330E943934AB016CA97DA98EA99FA97E
:1053C0000E94DC06092E000CAA0BBB0B480E591ECE
:1053D0006A1E7B1E13FF3DC00E9456159B01AC0147
:1053E000E091850367E471E0E69FC001E79F900DBF
:1053F0001124BC0180E090E022962FAF22972596E1
:105400003FAF259723964FAF239724965FAF2497FE
:105410000E94713422962FAD229725963FAD259795
:1054200023964FAD239724965FAD24970E94C733F0
:105430000E943934AB016CA57DA58EA59FA50E9465
:105440005B06092E000CAA0BBB0B480E591E6A1EE8
:105450007B1EC090C503D090C603E090C703F090B8
:10546000C8038091B5039091B603A091B703B091A2
:10547000B8038824992454018C189D08AE08BF08ED
:1054800088159905AA05BB0534F0C816D906EA06A1
:10549000FB060CF049C0B7FD05C08C199D09AE098B
:1054A000BF0904C08C0D9D1DAE1DBF1D8093B503AB
:1054B0009093B603A093B703B093B8030E94561518
:1054C0009B01AC0160E07EEF8FEF96E40E94C73352
:1054D0006A8B7B8B8C8B9D8B6091840370E080E06A
:1054E00090E00E9471349B01AC016A897B898C89B0
:1054F0009D890E94653520E030E048EC52E40E942E
:10550000C7330E9439349B01AC016091B50370919F
:10551000B6038091B7039091B803A9010E94641665
:10552000460E571E681E791E8091B9039091BA03EA
:10553000A091BB03B091BC0388159905AA05BB05D2
:1055400034F0C816D906EA06FB060CF051C0B7FDC8
:1055500009C0AC01BD014C195D096E097F096A01E2
:105560007B0104C0C80ED91EEA1EFB1EC092B903FF
:10557000D092BA03E092BB03F092BC030E9456158E
:105580009B01AC0160E07EEF8FEF96E40E94C73391
:105590006B017C016091840370E080E090E00E94E8
:1055A00071349B01AC01C701B6010E94653520E052
:1055B00030E048EC52E40E94C7330E9439346B015A
:1055C0007C016091B9037091BA038091BB03909103
:1055D000BC03A6010E946416CEA0DFA0E8A4F9A433
:1055E000C60ED71EE81EF91ECEA2DFA2E8A6F9A6B7
:1055F000C090A101D12CE12CF12CA3019201C70193
:10560000B6010E94233624E630E040E050E00E94DC
:10561000ED32CA01B9010E9430064B015C012EA196
:105620003FA148A559A5C701B6010E94233624E62B
:1056300030E040E050E00E94ED32CA01B9010E9422
:1056400030066B017C0114FF0EC0C501B4010E943D
:10565000FA1789E791E00E942418C701B6010E9459
:10566000FA170E949F178092920390929303A09240
:105670009403B0929503C0929603D0929703E09260
:105680009803F09299036091BD037091BE038091DD
:10569000BF039091C0030E9471346B017C01609143
:1056A00076037091770380917803909179030E943B
:1056B00071349B01AC0160E07FEF8FE797E40E94BB
:1056C000C7339B01AC01C701B6010E9465350E943A
:1056D00039344B015C01611570488105910534F046
:1056E00088248A94BFE79B2EA12CB12C811410E84A
:1056F00091061FEFA106B10634F4812CA0E89A2E82
:10570000AA24AA94BA2C8092BD039092BE03A092C0
:10571000BF03B092C00382E993E00E948911009117
:105720009003109191034090A8035090A903400E5C
:10573000511E612C712CC090A203D090A303C00E07
:10574000D11EE12CF12C2091A0033091A103C901BD
:10575000330FAA0BBB0B9C01AD012C193D094E095F
:105760005F09AFEFBFE00E940C332091A40330919A
:10577000A503201B310B40E050E02C193D094E09D8
:105780005F090E94ED322A8B3B8B4C8B5D8BC09066
:105790009C03D0909D03C00ED11EE12CF12C2091D2
:1057A0009A0330919B03C901330FAA0BBB0B9C01D9
:1057B000AD012C193D094E095F09AFEFBFE00E9412
:1057C0000C3320919E0330919F03201B310B40E04E
:1057D00050E02C193D094E095F090E94ED32690124
:1057E0007A012091A6033091A703C901330FAA0BB8
:1057F000BB0B9C01AD012419350946095709AFEFD0
:10580000BFE00E940C332091AA033091AB03201B10
:10581000310B40E050E024193509460957090E9430
:10582000ED322901411420E1520624F044244A9427
:10583000FFE05F2E57FE02C0412C512C5092A7036F
:105840004092A6036A887B88611430E1730624F0D5
:1058500066246A94EFE07E2E77FE02C0612C712CE4
:105860007092A1036092A003C11440E1D40624F019
:10587000CC24CA947FE0D72ED7FE02C0C12CD12CF5
:10588000D0929B03C0929A038091B1039091B2038E
:10589000800F911F9C0140E050E02A8B3B8B4C8B8A
:1058A0005D8B2091AD033091AE034091AF035091D9
:1058B000B0036A897B898C899D89261B370B480B2D
:1058C000590BAFEFBFEF0E940C332091B30330911F
:1058D000B403201B310B40E050E0EA88FB880C89C0
:1058E0001D892E193F09400B510B0E94ED322115E5
:1058F000310501E04007510524F02FEF3FEF40E074
:1059000050E057FF03C020E030E0A9012093AD0331
:105910003093AE034093AF035093B00389B18295A7
:105920008F7091E0892790E0A0E0B0E08170992726
:10593000AA27BB27799B8260789B84604E9B8860F6
:105940004F9B8061669B80621C9B8064369B806855
:1059500044E0880F991FAA1FBB1F4A95D1F7809377
:105960008C0390938D03A0938E03B0938F0310E864
:10597000911A89829A822B833C834D82262D22950F
:10598000207F25292E8354E0769467945A95E1F779
:105990006F82C886D98664E0B695A7959795879556
:1059A0006A95D1F78A871B861C864CE050E0BE01C1
:1059B0006F5F7F4F84E00E94510B80912A05909188
:1059C0002B05A0912C05B0912D0580319742A105A2
:1059D000B10508F41EC58BEF94E00E94040E181662
:1059E00019060CF006C58BEF94E00E94CA0DE82F53
:1059F0008FE98E0F8A3108F4E0528E2F90E0FC017F
:105A0000E154F109EA31F10508F0F3C4ED59FF4F13
:105A10000C94473680919F019091A0010E949319A8
:105A200080E20E9494178091A1010E94991980E25E
:105A30000E949417809187030E94991980E20E9426
:105A40009417809185030E94991980E20E9494170F
:105A500080918A030E94991980E20E949417809194
:105A600089030E94991980E20E949417809188030B
:105A70000E94991980E20E949417809186030E94E7
:105A8000991980E20E94941780918B030E949919C2
:105A900080E20E949417809184030E94991980E209
:105AA0000E94941760919D0170919E0180E090E0AA
:105AB0004AE00E94AD1780E20E94941780919C01F9
:105AC0000E94991980E20E9494178091AC030E9471
:105AD000991980E20E94941760919A0170919B013C
