:100000000C9420040C9448040C9448040C945A0654
:100010000C9436060C9448040C9448040C94480440
:100020000C9448040C9448040C9479090C941C0713
:100030000C9448040C9448040C9448040C94480410
:100040000C9448040C9448040C9448040C94480400
:100050000C9448040C9448040C9448040C949B1889
:100060000C9448040C9448040C9448040C944804E0
:100070000C9448040C9448040C9448040C944804D0
:100080000C9448040C9448040C9448040C944804C0
:100090000C94730E0C9448040C9448040C9448047B
:1000A0000C9448040C9448040C944804262087209F
:1000B0002E222421E322DE241F247F25C825F925B2
:1000C0002B269D266426222EF12A6D2B452F652C8A
:1000D000D22E9A2BED2C452F452F452F452F452FFE
:1000E000452FF92AED2C452F772A712A452FD5293E
:1000F000542A952C452FF02C8C2B072D212D3B2D90
:10010000552D6F2D892DA32DBD2D452F452F452F05
:10011000452F452F452F452F452F452FD72D0C2FE8
:10012000112FEE2EF32E452FF82EE92E452F072FF7
:10013000162F452F452F022F452F452F452F452F91
:10014000452FFD2E85108A108F109910E310E310B3
:10015000E310A310AD10B710C110CE10E310D610ED
:100160006E16711664166816921692169216751609
:1001700079167D168316871692168D1605A84CCD16
:10018000B2D44EB93836A9020C50B9918688083CD1
:10019000A6AAAA2ABE000000803F000000000000BE
:1001A00000002A2B280000000000000000000000D2
:1001B000000000000000000000002C9EB4A0A1A2DE
:1001C000A434A6A7A5AE362D3738271E1F2021221E
:1001D00023242526B333B62EB7B89F848586878817
:1001E000898A8B8C8D8E8F90919293949596979807
:1001F000999A9B9C9D2F3130A3AD350405060708C5
:10020000090A0B0C0D0E0F101112131415161718E6
:10021000191A1B1C1DAFB1B0B500080B0002020279
:100220000100090400000102020000052400100181
:100230000524010101042402060524060001070526
:10024000810310004009040100020A0000000705B4
:10025000020240000007058302400000090402007A
:10026000020300000009210101000122E104070549
:10027000840340000107050503400001050109044E
:10028000A10185040901A100093017000000002721
:10029000FFFF0000350047FFFF000075109501814A
:1002A00002093116000027FFFF0000350047FFFF5D
:1002B0000000751095018102093216000027FF0F1A
:1002C0000000350047FF0F0000750C950181020901
:1002D0003316000027FF0F0000350047FF0F000016
:1002E000750C95018102093416000027FF0F0000EC
:1002F000350047FF0F0000750C9501810209391583
:100300000125083500463B0165145500750495012B
:1003100081020509150025015500650019012918FC
:1003200075019518810285F10901150026FF0095D8
:100330003F7508918285F20901953F75088182C059
:10034000050F0992A1028502099F09A009A409A528
:1003500009A61500250135004501750195058102A5
:1003600095038103099415002501350045017501A8
:1003700095018102092215012528350145287507B7
:1003800095018102C00921A10285010922150125DB
:1003900028350145287508950191020925A1020912
:1003A000260927093009310932093309340940097E
:1003B0004109420943250B15013501450B75089587
:1003C000019100C009500954150027FFFF000035B6
:1003D0000047FFFF000066011055FD751095029162
:1003E0000255006600000952150026FF7F350046C1
:1003F000FF7F7510950191020953150125083501FC
:1004000045087508950191020955A10205010930B9
:10041000093115002501750195029102C0050F09EA
:100420005695019102950591030957A1020B010010
:100430000A000B02000A0066140055FE150026FF94
:100440007F3500479F8C0000751095019102550083
:10045000660000C0050F09A766011055FD150027AD
:10046000FFFF0000350047FFFF0000751095019168
:10047000026600005500C0050F095AA10285020955
:100480002215012528350145287508950191020995
:100490005B095D150026FF00350046FF7F75089556
:1004A000029102095C095E66011055FD26FF7F4638
:1004B000FF7F7510950291026600005500C0095F2C
:1004C000A102850309221501252835014528750853
:1004D0009501910209231500250135004501750498
:1004E000950191020958A1020B01000A000B0200BC
:1004F0000A00750295029102C0096016008026FF6D
:100500007F36008046FF7F751095019102096136A4
:10051000008046FF7F95019102150026FF7F350080
:1005200046FF7F0963751095019102096515002644
:10053000FF0046FF7F750895019102C0096EA10278
:1005400085040922150125283501452875089501DE
:1005500091020970150026FF7F350046FF7F751058
:1005600095019102096F16008026FF7F36008046B4
:10057000FF7F950191020971150026FF00350046A5
:1005800067016614005500750895019102097227EC
:10059000FFFF000047FFFF000066011055FD7510CA
:1005A000950191026600005500C00973A1028505FE
:1005B0000922150125283501452875089501910264
:1005C000097016018026FF7F36018046FF7F751077
:1005D00095019102C00974A1028506092215012521
:1005E0002835014528750895019102097509761588
:1005F00081257F36018046FF7F750895029102C0F4
:10060000050F0977A102850A092215012528350160
:1006100045287508950191020978A1020979097A9E
:10062000097B15012503750895019100C0097C150A
:100630000026FF00350046FF009102C00990A1028C
:10064000850B0922150125283501452875089501D6
:100650009102C00996A102850C0997099809990988
:100660009A099B099C15012506750895019100C002
:10067000097DA102850D097E150026FF0035004683
:100680001027750895019102C009ABA102850509E3
:1006900025A1020926092709300931093209330940
:1006A0003409400941094209431501250B3501452B
:1006B0000B75089501B100C00501093B150026FF27
:1006C00001350046FF01750A9501B1027506B101B9
:1006D000C0050F0989A102850609222528150135C3
:1006E00001452875089501B102098BA102098C0901
:1006F0008D098E250315013501450375089501B156
:1007000000C009AC150027FFFF0000350047FFFFC0
:10071000000075109501B100C0097FA1028507098D
:100720008075109501150027FFFF0000350047FF79
:10073000FF0000B102098326FF0046FF00750895FF
:1007400001B10209A909AA75019502150025013513
:10075000004501B10275069501B103C0C0180341FF
:100760000072006400750069006E006F0020004C8C
:10077000004C00430004030904220341007200649A
:1007800000750069006E006F0020004C0065006F6E
:10079000006E006100720064006F00120100020030
:1007A00000004041233680000101020001120100D7
:1007B00002020000404123368000010102000100D6
:1007C000C18081C1C000000000240027002A002D44
:1007D00000300000000000250028002B002E003112
:1007E00000040404040403040502020202040302D8
:1007F00002020206060606060604040202020404B9
:10080000040802011040804010204080408008020F
:100810000401804020100201108010204040200080
:1008200000000200080E0000030401000B0000009D
:1008300000000000000000000000000000005F2F2A
:1008400011241FBECFEFDAE0DEBFCDBF11E0A0E084
:10085000B1E0E8EEF6E602C005900D92A63AB107C7
:10086000D9F725E0A6EAB1E001C01D92AB35B20789
:10087000E1F714E0C0E2D4E004C02197FE010E9439
:100880006033CF31D107C9F70E94E5180C94723359
:100890000C9400008C30F8F4282F30E09EE1899F02
:1008A000F0011124E851FE4F90819923A1F090812D
:1008B0009D7F9083F901E255FC4F958191110BC00A
:1008C000E091A701F091A8010084F185E02D099540
:1008D0001092BE0308950895FC01CB012091E80019
:1008E00022FFFCCF282F215028F03091F1003083D7
:1008F0003196F9CF24E62093A2032BEF2093E80052
:1009000008950F931F93CF93DF93DB01A40FB51FBF
:10091000FB016EEFEA17FB0791F187FF02C02491FC
:1009200001C020810091A6031091A703C091A403E8
:10093000D091A5030C171D07B4F49091E8009570B1
:10094000E1F39091E80092FD1CC02093F10020910A
:10095000A6033091A7032F5F3F4F2F733327232B1D
:1009600011F46093E8002091A6033091A7032F5F54
:100970003F4F3093A7032093A6033196CBCFCA01F4
:1009800002C08FEF9FEFDF91CF911F910F910895DC
:10099000CF93DF9300D000D01F92CDB7DEB7FC011C
:1009A00081819081913A29F5813009F0BCC0828122
:1009B000863051F445E050E069EA73E080E40E943B
:1009C00081041092A903AFC0873009F0ACC08983BD
:1009D0008FEF9FEF9B838A838BE08C8383E08D83F3
:1009E00045E050E0BE016F5F7F4F80E40E948104CC
:1009F0009AC0913209F097C0893009F094C0828181
:100A0000853009F090C064E070E0CE0101960E944C
:100A10006C0486E08093A90380910F018B3021F153
:100A2000A0910F0181E08A0F80930F019EE1E09178
:100A30000F019E9FF0011124E851FE4F8081882311
:100A400051F080910F018B3030F480910F018F5F56
:100A500080930F01ECCF8EE1A89FF0011124E851A3
:100A6000FE4F81E0808301C0A0E0A093AA03A11102
:100A700004C082E08093AB0350C01092340581E043
:100A80008093AB038A819EE1A99FD0011124A851D4
:100A9000BE4F11968C9311978FEF9FEF50969C93BA
:100AA0008E931F9754961C921E92539752961C92A7
:100AB0001E92519713968C93139714968C931497B8
:100AC00056961C921E9255971E961C921E921D972A
:100AD00016961C9216978FEF9FE71A969C938E930B
:100AE000199758961C921E9257975C961C921E92CC
:100AF0005B975D961C925D9788EE93E01C969C93A5
:100B00008E931B97E091A701F091A8010684F785C9
:100B1000E02DBD01CE01019609958FEF9FEF9093D7
:100B2000AD038093AC0381E00F900F900F900F9076
:100B30000F90DF91CF91089542E450E06AE172E0B6
:100B400080E80E94810440E250E06CE572E080E8B9
:100B50000E94810483E090E00895EF92FF921F933A
:100B6000CF93DF93EC01162FE881F9810480F581A2
:100B7000E02D09957C01E881F9810680F781E02D5F
:100B8000612FCE010995C7019927DF91CF911F9160
:100B9000FF90EF900895FC0191818081813A29F4C2
:100BA0009D7F81E0913091F414C0813279F49A30C4
:100BB00049F09B3019F0993049F40AC08281809342
:100BC0000E0106C0828180930D0102C080E008956D
:100BD00081E008958C30F0F49EE1899FF0011124AA
:100BE000E851FE4F80818823A9F080818260808354
:100BF0008091BE0381110EC00E94DC176093B80182
:100C00007093B9018093BA019093BB0181E0809306
:100C1000BE0308950895CF92DF92EF92FF920F9353
:100C20001F938B019C014091B0015091B1016A0169
:100C3000E12CF12C66277727CB016C197D098E09F1
:100C40009F0906171707280739074CF0C901B80193
:100C5000C016D106E206F30614F4C701B6011F91CF
:100C60000F91FF90EF90DF90CF9008951F920F9219
:100C70000FB60F9211242F933F934F935F936F936F
:100C80007F938F939F93AF93BF93EF93FF930E94B4
:100C90000316FF91EF91BF91AF919F918F917F913B
:100CA0006F915F914F913F912F910F900FBE0F90D9
:100CB0001F9018951F920F920FB60F9211242F9329
:100CC0003F934F935F936F937F938F939F93AF93D4
:100CD000BF93EF93FF930E940316FF91EF91BF9193
:100CE000AF919F918F917F916F915F914F913F91C4
:100CF0002F910F900FBE0F901F901895CF92DF92FB
:100D0000EF92FF920F931F93CF93DF931F92CDB774
:100D1000DEB7F82EE42E8B01C82ED92E8C2D8F191C
:100D20008E1588F4F80161918F01C60169830E94D4
:100D3000F52F6981681719F0C6010E94FD2FFFEF9A
:100D4000CF1ADF0AEBCF0F90DF91CF911F910F9158
:100D5000FF90EF90DF90CF900895CF92DF92EF92C7
:100D6000FF920F931F93CF93DF931F92CDB7DEB700
:100D70008B016B017C01E61AF70A9C2D901B9417DE
:100D800058F4C7018C0D9D1D49830E94F52FF60173
:100D900081936F014981F1CF0F90DF91CF911F9126
:100DA0000F91FF90EF90DF90CF9008958F929F92D8
:100DB000AF92BF92CF92DF92EF92FF9240E050E06D
:100DC00020E0682F70E0812C912C54018394FA016B
:100DD0003296DB0102C0B595A795EA95E2F7750159
:100DE0006401042E04C0CC0CDD1CEE1CFF1C0A9414
:100DF000D2F7A0FF02C02C2902C0C0942C214F5F63
:100E00005F4F4430510519F730E0220F331FF901CD
:100E1000EC5CFE4F80FF05C080819181969587959F
:100E200002C080819181FF90EF90DF90CF90BF90C2
:100E3000AF909F908F9008951F920F920FB60F92D0
:100E40001124EF92FF921F932F933F934F935F9341
:100E50006F937F938F939F93AF93BF93EF93FF9382
:100E6000CF93DF93CDB7DEB76197DEBFCDBF1092D2
:100E7000E9008091E80083FF59C1FE013A96CF0155
:100E800028E02E0F2E1729F03091F1003083319693
:100E9000F9CF24E62093A20322EF2093E8002A85CD
:100EA00027FF05C03091E80030FFFCCF03C03EEFC4
:100EB0003093E800322F307609F0C5C08B85811160
:100EC00005C01092F1001092F10029C1982F9D7F6A
:100ED000913009F424C1853049F48091E80080FF05
:100EE000FCCF8C8580688093E30019C1863009F0BF
:100EF0007CC01D85E888F9881092E9001092A7034C
:100F00001092A603123091F51092A5031092A4033B
:100F10000E949C0599E0BE016F5F7F4FFB01292F66
:100F200011922A95E9F799831A8391E09E8390E8BC
:100F300098879AEF99872091A6033091A703275F9E
:100F40003F4F3C832B838D831092E9001092A703BF
:100F50001092A603F092A503E092A40349E050E0AA
:100F600080E00E9481040E949C05D9C0F092A503F4
:100F7000E092A403123259F441EE54E06CE772E0BF
:100F800080E80E948104892B09F0C9C0CCC01130CF
:100F900069F488899989089711F41093A3038091C3
:100FA000A303811111C06BE977E016C0133009F07B
:100FB000BAC08C85882359F0823061F0813009F005
:100FC000B2C06DE577E008C06DEA77E005C065E77F
:100FD00077E002C069E777E06115710509F4A3C005
:100FE000FB01449150E080E849C0873009F49BC080
:100FF000883021F481E08093F10091C0893009F0BC
:101000008EC0237009F08FC080E090E031E026E3CD
:1010100041E0480F4093E9003093EB000196FC015A
:10102000E154F84FE491E093EC002093ED0085301B
:10103000910571F78EE78093EA001092EA008C85A3
:101040008093A6016CC0288939891092E90010921A
:10105000A7031092A6033093A5032093A4032E8523
:10106000211154C08B859A85913A59F4813209F047
:101070005AC047E050E060E171E080E00E948104E6
:101080004EC0913209F04FC0803239F467E070E011
:1010900080E191E00E946C0442C0823209F043C0BA
:1010A0008C85809317018091100190911101A0917E
:1010B0001201B0911301803B9440A105B10579F56F
:1010C0008091170180FD11C087E797E79093010891
:1010D000809300089BE088E10FB6F894A895809370
:1010E00060000FBE909360001AC00FB6F894A895E8
:1010F00080916000886180936000109260000FBE54
:10110000A895109201081092000809C0223059F4E5
:10111000E0913505F09136050995882321F08EEF91
:101120008093E80003C081E28093EB0061960FB6E4
:10113000F894DEBF0FBECDBFDF91CF91FF91EF914D
:10114000BF91AF919F918F917F916F915F914F91DF
:101150003F912F911F91FF90EF900F900FBE0F9036
:101160001F9018958F929F92AF92BF92CF92DF926D
:10117000EF92FF920F931F93CF93DF9300D01F92B4
:10118000CDB7DEB7382F8B018091A601882389F077
:101190004A018AEFF82E832F8770E82E90E4C92E3B
:1011A000832F8072B82E2AE3D22E832F8074A82E2C
:1011B00021C08FEF9FEF5FC08FB7F894E092E900F6
:1011C0009091E80095FF1AC09091F2002C2D291BF8
:1011D0008FBF211115C0FA94FF2059F361E070E030
:1011E00080E090E039834A835B830E94B61739819F
:1011F0004A815B8181149104F9F634C020E0E8CF84
:10120000822F90E0881699060CF4282D822F90E00A
:10121000881A990A6FB7F894E092E900BB2029F088
:101220002150A8F01092F100FBCFF80137FF07C062
:10123000215058F074917093F1003196F9CF2150FC
:1012400020F071917093F100FACF080F191F80916F
:10125000E80085FF0DC08114910411F4A11008C0AD
:101260006FBFC8CF5D9884E68093A803CA0103C00E
:10127000D092E800F5CF0F900F900F90DF91CF91B3
:101280001F910F91FF90EF90DF90CF90BF90AF90A4
:101290009F908F9008959091A601992311F057FF88
:1012A00003C08FEF9FEF08952FB7F8948770809356
:1012B000E9008091F20090E0841795070CF4AC01EE
:1012C000842FFB0194E6815030F09093A20330917B
:1012D000F1003193F8CF4115510521F08091F200D2
:1012E000882319F02FBFCA0108958BE68093E80088
:1012F000F9CF1F920F920FB60F9211242F933F93A5
:101300004F935F936F937F938F939F93AF93BF930D
:10131000EF93FF93CF93DF93CDB7DEB7C054D109DE
:10132000DEBFCDBF8091E1001092E10083FF0FC0CE
:101330001092E90091E09093EB001092EC0092E3A0
:101340009093ED001092A60198E09093F00082FF38
:1013500046C083E08093E9008091F200882319F071
:101360008AE38093E8009FB7F89482E08093E900D5
:101370008091F2009FBF882321F08DE894E00E94C5
:10138000380E9FB7F89485E08093E9008091F200D1
:101390009FBF8823C1F08091370590913805892B34
:1013A00091F040E450E0BE016F5F7F4F85E00E9406
:1013B0004B0997FD08C0E0913705F0913805BC0155
:1013C000CE01019609958091A803882341F0809170
:1013D000A80381508093A803811101C05D9AC05C6D
:1013E000DF4F0FB6F894DEBF0FBECDBFDF91CF91B8
:1013F000FF91EF91BF91AF919F918F917F916F91ED
:101400005F914F913F912F910F900FBE0F901F90C2
:101410001895EF92FF920F931F93CF93DF931F9234
:10142000CDB7DEB789838B017A0141E050E0BE0180
:101430006F5F7F4F84E00E94B208A701B80184E487
:101440000E94B2080F90DF91CF911F910F91FF90F2
:10145000EF9008951F93CF93DF93DC0111961C91B9
:1014600011979C91953009F467C060F5923009F4AA
:1014700043C0A8F4913009F04DC1E091A701F0916B
:10148000A8012EE1129FB001112468517E4F028CF9
:10149000F38DE02DCD01DF91CF911F910994933011
:1014A000C9F1943009F036C1E091A701F091A8018B
:1014B0002EE1129FB001112468517E4F0488F589F6
:1014C000E02D35C09B3009F49DC038F4963009F406
:1014D00041C09A3009F44CC01DC19C3009F4CBC006
:1014E000913F09F017C140E450E0BD0182EFDF9168
:1014F000CF911F910C94090AE091A701F091A801E6
:101500003EE1139FB001112468517E4F0088F1899C
:10151000E02D0DC0E091A701F091A8018EE1189F88
:10152000B001112468517E4F0288F389E02DCD016E
:10153000DF91CF911F910994E091A701F091A8014B
:101540003EE1139FB001112468517E4F0688F78950
:10155000E02DEDCFE091A701F091A8018EE1189F59
:10156000B001112468517E4F008CF18DE02DDFCF4A
:101570001F3F09F41FE712969C91913099F4812F37
:101580000E94EA05E12FF0E0E255FC4F85818111D0
:10159000C1C0E091A701F091A8010680F781E02D7C
:1015A000812F47C0923029F5C1E08C2F0E944A0458
:1015B000CF5FCC30D1F7C12FD0E0C255DC4F8D8149
:1015C000811109C0E091A701F091A8010084F18583
:1015D000E02D8FE70995812F0E94EA058D81811109
:1015E00099C0E091A701F091A8010680F781E02D54
:1015F0001FC0933009F08EC0812FDF91CF911F91D2
:101600000C944A0481E01F3FC1F480930F0188E6E7
:1016100091E0E8EEF1E0DF019C011D9221503040A5
:10162000E1F7E091A701F091A8010284F385E02D94
:101630008FE7DF91CF911F910994809334051C307F
:1016400008F068C03EE1139FF0011124E851FE4FFD
:10165000108280910F01181710F410930F01E09180
:10166000A701F091A8010284F385E02D812F09954F
:101670001092BE034FC082E08093BF039091C003DD
:1016800094609093C0039091C00390619093C003C5
:101690001092C1031330B1F040F4113079F01230E0
:1016A000C9F58091C003826033C0153071F1B0F08C
:1016B000163081F58091C0038E7F2AC08091C003CF
:1016C0008D7F26C0E091A701F091A8010480F581EB
:1016D000E02D80E009951092C1031CC0E091A701A4
:1016E000F091A8010480F581E02D81E0099581E069
:1016F00080930F0188E691E0E8EEF1E0DF019C01C4
:101700001D9221503040E1F705C08091C0038160F7
:101710008093C003DF91CF911F910895DC01683859
:1017200010F0685825C0E62FF0E067FF12C0E058BF
:10173000F10981E090E001C0880FEA95EAF7809511
:1017400014969C911497892314968C93149760E0B7
:101750000FC0E656FE4F6491662311F167FF08C083
:1017600014968C9114978D7F14968C9314976F77A1
:10177000FD01369686E0662321F09081961301C024
:101780001082815031968111F6CFBD016C5F7F4F81
:1017900048E050E082E00E94090A81E090E008956C
:1017A00080E090E00895FC01168217821086118671
:1017B000128613861482BC016C5F7F4F48E050E0B4
:1017C00082E00C94090ADC01683810F068582DC0DA
:1017D000E62FF0E067FF11C0E058F10981E090E0EA
:1017E00001C0880FEA95EAF714969C911497892B0B
:1017F00014968C93149760E018C0E656FE4F6491DF
:10180000611109C081E090E013969C938E9312972A
:1018100080E090E0089567FF08C014968C911497BB
:10182000826014968C9314976F7716968C91169706
:10183000861751F117968C911797861729F11896EC
:101840008C911897861701F119968C911997861724
:10185000D9F01A968C911A978617B1F01B968C9135
:101860001B97861789F0FD01369680E090E0219164
:10187000211105C0FD01E80FF91F668305C001961F
:1018800086309105A1F7BECFBD016C5F7F4F48E068
:1018900050E082E00E94090A81E090E00895CF9232
:1018A000DF92EF92FF920F931F93CF93DF936C0120
:1018B000EB017B01E40EF51E00E010E0CE15DF0524
:1018C00061F06991D601ED91FC910190F081E02DDC
:1018D000C6010995080F191FF1CFC801DF91CF91FB
:1018E0001F910F91FF90EF90DF90CF90089583E0CC
:1018F0008093E9008091F200882319F08AE38093B5
:10190000E800089520917D0430917E0480917F0449
:101910009091800428173907A9F0E0917F04F09195
:101920008004E35CFB4F808120917F043091800430
:101930002F5F3F4F2F7333273093800420937F0412
:1019400090E008958FEF9FEF089520917D043091EE
:101950007E0480917F04909180042817390749F014
:10196000E0917F04F0918004E35CFB4F808190E084
:1019700008958FEF9FEF089580917D0490917E04EC
:1019800020917F0430918004821B930B8F739927E1
:10199000089585ED8093BC008091BC0084FDFCCF50
:1019A0001092170408954091F103262F30E0240F80
:1019B000311D21323105DCF4209117042430C9F4A3
:1019C000FC0180E090E0861758F43091F1032191FA
:1019D000DC01A153BC4FA30FB11D2C930196F3CF93
:1019E0008091F103680F6093F10380E0089581E036
:1019F000089582E0089508958FEF9FEF08958FEF87
:101A00009FEF08958091CE0390E091958195910983
:101A10000895CF93DF9300D0CDB7DEB7CB01642F0D
:101A200049835A830E94D30C4981842F5A81952F70
:101A30000F900F90DF91CF910895CF93DF931F9276
:101A4000CDB7DEB7698361E0CE0101960E94D30C69
:101A500081E090E00F90DF91CF9108950895CF93AA
:101A6000DF93FC01EB0171818281898387819085FD
:101A70009A87898725853685438154816EE1769FD3
:101A8000C001112488519E4FDC0150965C934E9307
:101A90001F9756963C932E93559764E0769FD001FE
:101AA0001124A854BE4F1D921D921D921C92139793
:101AB000838594859E878D8782858E8381E0DF91E3
:101AC000CF910895FC012281FB012783FC018381D2
:101AD000FB0180870895FC0182819381FB01908F37
:101AE000878B0895DC01FB0112968D919C911397D1
:101AF000908F878B14968D919C911597948F838FDF
:101B000016968C911697858F17968D919C911897A4
:101B1000948783870895DC01FB0112968C911297BC
:101B200082838281811110C015968D919C911697A8
:101B3000908F878B13968D919C911497948F838FA0
:101B400017968C918583089582810895DC01FB01AD
:101B500012968C911297838313968C91139784839A
:101B600014968D919C911597948B838B16968D91DD
:101B70009C911797928B818B08959EE1899FF0012C
:101B80001124E851FE4F708B6787568B458B94E08C
:101B9000899FF0011124E854FE4F108211821282B5
:101BA00013820895089508951092340524E0829FC9
:101BB000C0011124FC01E854FE4F108211821282F0
:101BC0001382089525E0FC0120838EE491E00895BE
:101BD0000895809334050895CF92DF92EF92FF929B
:101BE0006091B5017091B601072E000C880B990B1E
:101BF0000E948A316B017C01609150037091510306
:101C000080915203909153030E948A319B01AC0151
:101C1000C701B6010E94E030FF90EF90DF90CF90B7
:101C200008950E946D330F931F93CF93DF931F92FC
:101C3000CDB7DEB78C01698380911701882359F0F5
:101C400041E050E0BE016F5F7F4F83E00E94B20829
:101C5000181619063CF081E090E0F8019383828326
:101C600080E090E00F90DF91CF911F910F91089548
:101C70000F931F93CF93DF931F92CDB7DEB70091E1
:101C80007D0410917E040F5F1F4F0F731127809109
:101C90007F049091800408171907F9F041E050E0A3
:101CA000BE016F5F7F4F82E00E944B09019719F4DC
:101CB000898190E002C08FEF9FEF8F3F2FEF920757
:101CC00061F0E0917D04F0917E04E35CFB4F808342
:101CD00010937E0400937D04D2CF0F90DF91CF91BB
:101CE0001F910F9108951F920F920FB60F9211241A
:101CF0002F933F934F935F936F937F938F939F9314
:101D0000AF93BF93EF93FF938091B900887F8036A4
:101D100009F49CC068F5883209F45BC090F4803106
:101D200009F454C038F4882309F4F6C0883009F463
:101D30004DC0F6C0883109F44CC0803209F45DC052
:101D4000EFC0803409F468C048F4803309F455C00A
:101D5000883309F0E5C080931604D8C0803509F4B3
:101D60004FC0883509F45DC0883409F0D9C0D6C0A9
:101D7000883909F4C7C0A8F4883709F467C038F473
:101D8000883609F463C0803709F460C0C9C0883858
:101D900009F4B8C0803909F45FC0803809F0C0C0C8
:101DA0005BC0803B09F486C038F4803A09F466C011
:101DB000883A09F47FC0B4C0803C09F4A7C0883CCD
:101DC00009F4A4C0883B09F48AC0AAC080913C04ED
:101DD00010C090913B0480913A04981770F5E091FF
:101DE0003B0481E08E0F80933B04F0E0E65EFB4F06
:101DF00080818093BB0085EC86C0809316048EC0E2
:101E0000E0913B0481E08E0F80933B048091BB0006
:101E1000F0E0E65EFB4F808390913B0480913A04B2
:101E20006EC0E0913B0481E08E0F80933B04809173
:101E3000BB00F0E0E65EFB4F8083809119048111C6
:101E40006DC081E08093180484EA61C083E08093D0
:101E5000170410921504CFCF80911504803208F03A
:101E600051C0E091150481E08E0F8093150480919C
:101E7000BB00F0E0EB50FC4F8083BDCF85EC80933E
:101E8000BC001092170480911504803230F4E09168
:101E90001504F0E0EB50FC4F10826091150470E0E7
:101EA000E091F303F091F40385EF93E0099510922C
:101EB000150436C084E0809317041092F203109248
:101EC000F103E091EF03F091F00309958091F103A4
:101ED000811105C081E08093F1031092CF03E0915E
:101EE000F20381E08E0F8093F203F0E0E153FC4FA8
:101EF00080818093BB009091F2038091F103981749
:101F000008F479CF85E88093BC000AC085EC809303
:101F1000BC001092170404C0109216040E94C90C51
:101F2000FF91EF91BF91AF919F918F917F916F91B1
:101F30005F914F913F912F910F900FBE0F901F9087
:101F400018952091A9013091AA012817390708F4A2
:101F5000C90190938B0080938A0008952091A90174
:101F60003091AA012817390708F4C9019093890014
:101F70008093880008954F925F926F927F928F9224
:101F80009F92AF92BF92CF92DF92EF92FF920F9308
:101F90001F93CF93DF93CDB7DEB760970FB6F8945A
:101FA000DEBF0FBECDBF009709F46DC38C016091F9
:101FB000B70170E080E090E00E948A312AE037EDBE
:101FC00043E25CE30E943F3269837A838B839C8384
:101FD000F80180809180A280B380B7FE08C0B094E1
:101FE000A09490948094811C911CA11CB11CC501EB
:101FF000B4010E948A316B017C016091B001709143
:10200000B10180E090E00E9488312B013C0126E67E
:1020100036E646E65FE30E943F3229813A814B81F2
:102020005C810E943F326D837E838F8398879B0102
:10203000AC01C701B6010E943A3287FDCAC0A301B4
:10204000920169817A818B819C810E943F326987EC
:102050007A878B879C8720E030E040E85FE30E942E
:102060006E309B01AC01C701B6010E94DB3087FFD7
:10207000B0C06D817E818F8198850E9452316B0145
:102080007C01A5019401261B370B480B590BAEE3CD
:10209000B0E00E942A304B015C0169857A858B850E
:1020A0009C850E9452319B01AC012C193D094E09BF
:1020B0005F09C501B4010E940B3069017A01FFEF8D
:1020C000CF1ADF0AEF0AFF0A560161E08DE00E9495
:1020D0005517C114D10411F480E005C08FEFC81664
:1020E000D10421F481E00E944C168AC0ECE2F8E0B1
:1020F000E4918E2F90E0FC013197EE30F10508F06D
:1021000062C0EE55FF4F0C94603384B5806884BD87
:10211000C7BC76C084B5806284BDC8BC71C08091E4
:102120008000806880938000D0928900C0928800EF
:1021300067C080918000806280938000D0928B0085
:10214000C0928A005DC0809190008068809390006A
:10215000D0929900C092980053C080919000806204
:1021600080939000D0929B00C0929A0049C08091C9
:102170009000886080939000D0929D00C0929C0057
:102180003FC08091C00080688093C0008091C000F3
:102190008F7B8093C000C092CF0032C08091C0007E
:1021A00080628093C000C092D0002AC08091C2009B
:1021B00088608093C2008091C2008B7F8093C200B0
:1021C000C092D2001DC0E0E8AE16B1040CF08ACF78
:1021D00083CFA301920169817A818B819C810E94C6
:1021E0003F3220E030E040E85FE30E946E309B0128
:1021F000AC01C701B6010E943A3287FD6DCF72CFA4
:102200006091B20170E060587109072E000C880BD4
:10221000990B0E948A3120E030E04FE753E40E949E
:10222000E0306B017C016093CA037093CB03809311
:10223000CC039093CD0320E030E0A9010E943A3214
:1022400087FD1DC0A701960160E070E080E89FE374
:102250000E946E306093C6037093C7038093C803D7
:102260009093C90380E090E0A0E8BFE38093C203AD
:102270009093C303A093C403B093C50323C020E08D
:1022800030E0A901C701B6010E94DB3087FF1AC008
:1022900080E090E0A0E8BFE38093C6039093C7037B
:1022A000A093C803B093C9039C01AD01C701B60157
:1022B0000E946F306093C2037093C3038093C40382
:1022C0009093C5039091AF01F801C080D180E28066
:1022D000F380892F807491FDEAC0811195C01C1490
:1022E0001D041E041F04E4F54090B0015090B1019C
:1022F0002091B3013091B4014901A12CB12C612C82
:10230000712CC301B2010E9488312091C203309127
:10231000C3034091C4035091C5030E943F320E9401
:102320005231681979098A099B09A70196010E940F
:102330003C33A30192010E940B30DA01C901880DE0
:10234000991DAA1DBB1DF80180839183A283B383CD
:1023500080E090E00E94AE0FF8018081918146C03C
:10236000C114D104E104F10409F444C04090B00167
:102370005090B1018091B3019091B4014C01A12C16
:10238000B12CF094E094D094C094C11CD11CE11CF9
:10239000F11C612C712CC301B2010E948831209183
:1023A000C6033091C7034091C8035091C9030E94EE
:1023B0003F320E945231681979098A099B09A701A5
:1023C00096010E943C33A30192010E940B30DA0176
:1023D000C901880D991DAA1DBB1DF8018083918339
:1023E000A283B3830E94AE0F80E090E00E94A10F11
:1023F0002F9A49C180E090E00E94AE0F80E090E00B
:102400000E94A10F2F983FC1E091B001F091B1015E
:102410001C141D041E041F04DCF44F0196948794C1
:102420008091B3019091B401880E991EA12CB12C1A
:102430002F01612C712CC301B201681979098A0935
:102440009B09A70196010E943C33A301920119C088
:10245000C114D104E104F10411F14F019694879461
:102460008091B3019091B401881A990AA12CB12CE2
:10247000A5019401C701B6010E943C339F0140E0D1
:1024800050E00E940B30DA01C901880D991DAA1D88
:10249000BB1DF80180839183A283B38303C0CF0166
:1024A000969587950E94AE0F80E090E0D4C0811190
:1024B00033C0F7FC02C02F9A01C02F988091B3015E
:1024C0009091B4016C01E12CF12C8090B0019090BE
:1024D000B101A12CB12CF8012081318142815381BD
:1024E00057FF07C050954095309521953F4F4F4F6E
:1024F0005F4FC501B4016C197D098E099F090E94C7
:102500003C33A50194010E940B30DA01C9018C0D06
:102510009D1DAE1DBF1D81C01C141D041E041F0483
:102520006CF520E030E040E85FE36091AB01709132
:10253000AC018091AD019091AE010E946F3020916D
:1025400004013091050140910601509107010E945C
:102550003F320E9452314B015C0160910001709149
:10256000010180910201909103010E94523168198A
:1025700079098A099B09A70196013FC0C114D104BA
:10258000E104F10409F44FC02091AB013091AC019A
:102590004091AD015091AE0160E070E080E89FE3B2
:1025A0000E946E3020910401309105014091060196
:1025B000509107010E943F320E9452314B015C0151
:1025C00022273327A9012C193D094E095F09609183
:1025D00008017091090180910A0190910B012D87EA
:1025E0003E874F87588B0E945231681979098A09B2
:1025F0009B092D853E854F8558890E943C3320914B
:10260000B0013091B10140E050E00E940B30DA019E
:10261000C901880D991DAA1DBB1DF80180839183F6
:10262000A283B3830BC06091040170910501809176
:102630000601909107010E945931CB010E94AE0F13
:10264000609104017091050180910601909107014C
:102650000E945931CB0160960FB6F894DEBF0FBED1
:10266000CDBFDF91CF911F910F91FF90EF90DF9041
:10267000CF90BF90AF909F908F907F906F905F9022
:102680004F900C94A10F60960FB6F894DEBF0FBE6A
:10269000CDBFDF91CF911F910F91FF90EF90DF9011
:1026A000CF90BF90AF909F908F907F906F905F90F2
:1026B0004F9008956091A9017091AA0180E090E087
:1026C0000E9488319B01AC0160E07EEF8FEF96E4C1
:1026D0000E94E03008952F923F924F925F926F9246
:1026E0007F928F929F92AF92BF92CF92DF92EF92A2
:1026F000FF920F931F93CF93DF93CDB7DEB7299748
:102700000FB6F894DEBF0FBECDBF998788874B0107
:102710002B831D830C831701DF82CE82042F10E0F0
:102720008C819D816C01E12CF12CE885F985F7FD08
:102730002BC0C8019695982F882797958795BF013C
:10274000681B790B072E000C880B990B0E948A31AD
:102750002B013C01C701B6010E9488319B01AC01ED
:10276000C301B2010E94E0302B013C01C8019695E3
:10277000982F8827979587959A838983EB8190E88E
:10278000E99FB00111242AC0B8017695762F6627FB
:1027900077956795E885F9856E0F7F1F072E000CEA
:1027A000880B990B0E948A312B013C01C701B601AD
:1027B0000E9488319B01AC01C301B2010E94E0304C
:1027C0002B013C0160E86003C001619F900D112462
:1027D0009A8389832B816203B001112488859985AE
:1027E000681B790B072E000C880B990B0E948A310D
:1027F0006B017C01B10180E090E00E9488319B0177
:10280000AC01C701B6010E94E0306B017C018A1463
:102810009B0408F43FC08E819F818A0D9B1D881602
:102820009906C0F50C811D810A0D1B1D80169106AD
:1028300090F4B4016A197B0980E090E00E9488312D
:102840009B01AC01C301B2010E943F320E94523190
:1028500089819A811CC08219930988159905E8F429
:102860008A189B08EE81FF818E1A9F0AB401620DBF
:10287000731D80E090E00E9488319B01AC01C7018C
:10288000B6010E943F320E94523188859985860F99
:10289000971F05C080E090E002C088859985299641
:1028A0000FB6F894DEBF0FBECDBFDF91CF911F9161
:1028B0000F91FF90EF90DF90CF90BF90AF909F90DF
:1028C0008F907F906F905F904F903F902F900895E2
:1028D0008F929F92AF92BF92CF92DF92EF92FF9230
:1028E000CF93DF934B015C01EA010E94EC0D6B0179
:1028F0007C01DE01A50194010E9435300E948A31DD
:10290000A70196010E943F3220E030E040E051E410
:102910000E943F3220E030E040E251E40E943F322A
:1029200020E030E040E85BE30E943F320E945231F9
:102930000E940B0690958095709561957F4F8F4F03
:102940009F4FDF91CF91FF90EF90DF90CF90BF909E
:10295000AF909F908F9008954F925F926F927F9269
:102960008F929F92AF92BF92CF92DF92EF92FF929F
:10297000CF93DF9300D000D0CDB7DEB74B015C0121
:1029800057FF02C04D5F5F4F6A01D594C794D5943D
:10299000C7940E94EC0D69837A838B839C839B018F
:1029A000AC01C501B4010E943F3220E030E040E2BA
:1029B00051E40E943F322B013C0120E030E040E82E
:1029C0005FE30E943A320D2C000CEE08FF08181647
:1029D0001CF4C701B60128C020E030E040E85FEBFE
:1029E000C301B2010E94DB3087FF06C0C701B601F8
:1029F0000E940B06CB011EC0C701B6010E948A319E
:102A00009B01AC01C501B4010E943F3229813A818A
:102A10004B815C810E943F3220E030E040E251E493
:102A20000E943F320E9452310E940B06882799274C
:102A3000861B970B0F900F900F900F90DF91CF9107
:102A4000FF90EF90DF90CF90BF90AF909F908F90CE
:102A50007F906F905F904F9008958F929F92AF926A
:102A6000BF92CF92DF92EF92FF924B015C01BA01CD
:102A7000550F880B990B0E948A316B017C0120E075
:102A800030E0A901C501B4010E943A32A5019401C8
:102A900018160CF05058C701B6010E943F326B0166
:102AA0007C010E94EC0D9B01AC01C701B6010E94A4
:102AB0003F3220E030E040E851E40E943F3220E025
:102AC00030E040E251E40E943F3220E030E040E05C
:102AD0005DE30E943F320E9452310E940B066B015F
:102AE0007C0120E030E0A901C501B4010E943A3226
:102AF00018162CF4882799278C199D090DC020E001
:102B000030E0A901C501B4010E94DB3087FF02C09B
:102B1000C60102C080E090E0FF90EF90DF90CF9080
:102B2000BF90AF909F908F900895CF92DF92EF92D9
:102B3000FF92CF93DF936B017C01EA0120E030E04C
:102B4000A9010E943A32181694F020E030E0A90161
:102B5000C701B6010E94DB3087FF3AC020E030E0B9
:102B6000A901C701B6010E946F306B017C01BE0153
:102B7000DD0F880B990B0E948A319B01AC01C701C4
:102B8000B6010E943F326B017C010E94EC0D9B015B
:102B9000AC01C701B6010E943F3220E030E040E8BE
:102BA00051E40E943F3220E030E040E251E40E94D4
:102BB0003F3220E030E040E05BE30E943F320E9481
:102BC00052310E940B0688279927861B970B02C05B
:102BD00080E090E0DF91CF91FF90EF90DF90CF9079
:102BE0000895009769F0FC0101900020E9F7319702
:102BF000AF01481B590BBC018DE894E00C944F0CBD
:102C000080E090E0089580918C0429B1922F9C700F
:102C1000892B90E0AC015595479555954795409384
:102C20008C04409188045091890460918A047091C9
:102C30008B04FC01ED5AFE4F8081082E000C990B8D
:102C4000AA0BBB0B840F951FA61FB71F8093880488
:102C500090938904A0938A04B0938B048091870495
:102C6000811119C021FF17C081E0809387048093F0
:102C700085048093A7048091810490918204A0919F
:102C80008304B09184048093880490938904A09372
:102C90008A04B0938B040895ECE2F8E04491EDE0EF
:102CA000F8E09491EEEEF7E02491222309F44DC070
:102CB0004423C1F150E0FA013197EE30F10590F56F
:102CC000E055FF4F0C946033309180003F7703C094
:102CD000309180003F7D3093800024C034B53F7731
:102CE00002C034B53F7D34BD1DC0309190003F77A8
:102CF00007C0309190003F7D03C030919000377F36
:102D0000309390000FC03091C0003F7703C03091E6
:102D1000C0003F7D3093C00005C03091C200377FB6
:102D20003093C200E22FF0E0EE0FFF1FED52F84F9C
:102D3000A591B4912FB7F894EC91811103C09095AF
:102D40009E2301C09E2B9C932FBF0895E0918D047C
:102D5000F0918E040190F081E02D682F8DE894E0D1
:102D60000994CF93DF938DE00E94A616EC018AE0D0
:102D70000E94A6168C0F9D1FDF91CF9108958F9210
:102D80009F92AF92BF92EF92FF920F931F93CF93B8
:102D9000DF93CDB7DEB7A1970FB6F894DEBF0FBEB5
:102DA000CDBF162F042F19A2423008F40AE07E018D
:102DB00021E2E20EF11C802E912CA12CB12C612F6E
:102DC000A50194010E943D30029F1019112481E059
:102DD000E81AF1081A3014F4105D01C0195CF7010B
:102DE0001083122F732FCA01232B242B252B39F785
:102DF000C7010E94F115A1960FB6F894DEBF0FBE71
:102E0000CDBFDF91CF911F910F91FF90EF90BF90B9
:102E1000AF909F908F900895CF92DF92EF92FF92A4
:102E2000CF93DF9397FF19C06B017C018DE20E9465
:102E3000A616EC0166277727CB016C197D098E0950
:102E40009F094AE00E94BF168C0F9D1FDF91CF9112
:102E5000FF90EF90DF90CF9008954AE0DF91CF91FF
:102E6000FF90EF90DF90CF900C94BF16CF93DF933D
:102E7000BC01990F880B990B0E940C17EC010E9462
:102E8000B1168C0F9D1FDF91CF910895BC01990F52
:102E9000880B990B0C940C17682F70E080E090E081
:102EA0004AE00C94BF160C94F115CF93DF9390E099
:102EB000FC01E050F84F2491FC01EF51F84F849150
:102EC000882361F190E0880F991FFC01EB53F84FC4
:102ED000C591D491FC01ED52F84FA591B4916111C7
:102EE00009C09FB7F8948881209582238883EC914C
:102EF0002E230BC0623061F49FB7F8943881822F83
:102F0000809583238883EC912E2B2C939FBF06C042
:102F10008FB7F894E8812E2B28838FBFDF91CF9154
:102F200008953FB7F89480913E0590913F05A09198
:102F30004005B091410526B5A89B05C02F3F19F06B
:102F40000196A11DB11D3FBFBA2FA92F982F882729
:102F5000820F911DA11DB11DBC01CD0142E0660F84
:102F6000771F881F991F4A95D1F70895CF92DF9256
:102F7000EF92FF92CF93DF936B017C010E94911738
:102F8000EB01C114D104E104F10479F00E9491171E
:102F90006C1B7D0B683E7340A0F381E0C81AD1081A
:102FA000E108F108C851DC4FECCFDF91CF91FF90E1
:102FB000EF90DF90CF9008952FB7F89460913A0585
:102FC00070913B0580913C0590913D052FBF089580
:102FD0000F931F930E94DC176093950470939604DF
:102FE0008093970490939804E0918D04F0918E045F
:102FF0000084F185E02D8DE894E0099597FF1FC0CE
:103000000E94DC170091950410919604209197047A
:1030100030919804DC01CB01801B910BA20BB30B08
:1030200000919104109192042091930430919404A2
:1030300080179107A207B307B8F28FEF9FEF1F9198
:103040000F910895FF920F931F93CF93DF9300D0BA
:1030500000D0CDB7DEB70E94E817FC0197FD11C084
:103060008D32910591F0C0970A9778F0E0918D0428
:10307000F0918E040680F781E02D8DE894E00995AB
:10308000EACF60E070E0CB014CC020E030E0A90165
:10309000F12CE130F105F1F0ED32F105C9F0CF018D
:1030A000C0970A97B8F4AAE0B0E00E942A308F01D6
:1030B000FF0F220B330BDC01CB01800F911FA21FEE
:1030C000B31F9C01AD01205331094109510902C0D0
:1030D000FF24F394E0918D04F0918E040680F78133
:1030E000E02D8DE894E029833A834B835C83099536
:1030F0000E94E817FC01C09729813A814B815C81CD
:103100000A9738F2E130F10521F2FF2041F06627FD
:103110007727CB01621B730B840B950B02C0CA018E
:10312000B9010F900F900F900F90DF91CF911F91E9
:103130000F91FF9008951F920F920FB60F921124D6
:103140002F933F938F939F93AF93BF9380913A05B3
:1031500090913B05A0913C05B0913D05309139051A
:1031600023E0230F2D3720F40196A11DB11D05C0CA
:1031700026E8230F0296A11DB11D209339058093E7
:103180003A0590933B05A0933C05B0933D05809193
:103190003E0590913F05A0914005B09141050196F3
:1031A000A11DB11D80933E0590933F05A09340055E
:1031B000B0934105BF91AF919F918F913F912F9116
:1031C0000F900FBE0F901F901895CF93DF93CDB740
:1031D000DEB7C054D1090FB6F894DEBF0FBECDBF25
:1031E000789484B5826084BD84B5816084BD85B5E2
:1031F000826085BD85B5816085BD80916E008160EE
:1032000080936E0010928100809181008260809393
:103210008100809181008160809381008091800095
:103220008160809380008091910082608093910002
:1032300080919100816080939100809190008160E5
:10324000809390008091C10084608093C100809140
:10325000C10082608093C1008091C1008160809331
:10326000C1008091C30081608093C3008091C00041
:1032700082608093C0008091C20081608093C20010
:1032800080917A00846080937A0080917A008260D5
:1032900080937A0080917A00816080937A00809197
:1032A0007A00806880937A001092A60181E0809372
:1032B000D70080EA8093D80082E189BD09B400FE7E
:1032C000FDCF61E070E080E090E00E94B61780E9F9
:1032D0008093D8001CE01093E2001092E00010925E
:1032E0008403109283031092890310928A03109230
:1032F0008B0310928C0310927E0310927D03109228
:1033000092031092930310929403109295031092DB
:10331000960310929703109298031092990342E03B
:10332000BE01615F7F4F80E090E00E94AD068F8517
:1033300098898A3F910509F407C18AEF90E09E873A
:103340008D8742E0BE01635F7F4F80E090E00E9486
:103350007E0619821A821B821C8244E0BE016F5FC6
:103360007F4F82E090E00E947E0688E394E09E8793
:103370008D8742E0BE01635F7F4F86E090E00E9450
:103380007E0684E6898B41E0BE016F5E7F4F88E058
:1033900090E00E947E0641E0BE016F5E7F4F8BE0B1
:1033A00090E00E947E0641E0BE016F5E7F4F8CE0A0
:1033B00090E00E947E0641E0BE016F5E7F4F80E19B
:1033C00090E00E947E0641E0BE016F5E7F4F8DE07F
:1033D00090E00E947E0682E3898B41E0BE016F5E31
:1033E0007F4F89E090E00E947E0641E0BE016F5E63
:1033F0007F4F8AE090E00E947E0641E0BE016F5E52
:103400007F4F8EE090E00E947E0686E4898B41E04B
:10341000BE016F5E7F4F8FE090E00E947E061E86A9
:103420001D8642E0BE01635F7F4F81E190E00E9414
:103430007E068FEF97E09E878D8742E0BE01635F37
:103440007F4F83E190E00E947E068FEF9FE09E8792
:103450008D8742E0BE01635F7F4F85E190E00E946F
:103460007E0680E8898B41E0BE016F5E7F4F87E179
:1034700090E00E947E0681E0898B41E0BE016F5E94
:103480007F4F88E190E00E947E0680E699E0A0E010
:10349000B0E089839A83AB83BC8344E0BE016F5F55
:1034A0007F4F89E190E00E947E06198B41E0BE01CA
:1034B0006F5E7F4F8DE190E00E947E061E861D8626
:1034C00042E0BE01635F7F4F8AE290E00E947E0689
:1034D00042E0BE01635F7F4F8EE290E00E947E0675
:1034E00042E0BE01635F7F4F82E390E00E947E0670
:1034F00042E0BE01635F7F4F86E390E00E947E065C
:103500008FEF93E09E878D8742E0BE01635F7F4F20
:103510008CE290E00E947E0642E0BE01635F7F4F36
:1035200080E390E00E947E0642E0BE01635F7F4F31
:1035300084E390E00E947E0642E0BE01635F7F4F1D
:1035400088E390E00E947E0642E065EB71E086E051
:1035500090E00E94AD0644E063EA74E082E090E00F
:103560000E94AD0644E06DE573E089E190E00E94C1
:10357000AD0641E067EB71E088E090E00E94AD06A7
:1035800041E068E673E089E090E00E94AD0641E02A
:1035900066E673E08AE090E00E94AD0641E06BE6EB
:1035A00073E08BE090E00E94AD0641E06AE673E0D4
:1035B0008CE090E00E94AD0641E069E673E08DE0AA
:1035C00090E00E94AD0641E067E673E08EE090E097
:1035D0000E94AD0641E06CE673E08FE090E00E944F
:1035E000AD0641E065E673E080E190E00E94AD0643
:1035F00041E062EB71E087E190E00E94AD0641E0BE
:1036000061E973E088E190E00E94AD0642E063EB7F
:1036100071E081E190E00E94AD0642E060EB71E074
:1036200083E190E00E94AD0642E06BE573E085E146
:1036300090E00E94AD0641E06FEA71E08DE190E01C
:103640000E94AD0642E065E873E08AE290E00E94E5
:10365000AD0642E067E873E08CE290E00E94AD06C0
:1036600042E06DE873E08EE290E00E94AD0642E039
:103670006FE873E080E390E00E94AD0642E06FE700
:1036800073E082E390E00E94AD0642E061E873E0FF
:1036900084E390E00E94AD0642E069E773E086E3D0
:1036A00090E00E94AD0642E06BE773E088E390E0B3
:1036B0000E94AD0660915D0370915E0380915F038F
:1036C000909160030E948A3120E030E044EB53E4A3
:1036D0000E94E0306B017C018091B5019091B601B0
:1036E000BC01990F880B990B0E948A319B01AC0198
:1036F000C701B6010E943F320E94523160935003CD
:103700007093510380935203909353036B017C0198
:10371000F594E794D794C794C0928104D092820420
:10372000E0928304F092840462E080E00E945517E6
:1037300062E081E00E94551762E082E00E94551726
:1037400010928704C0928804D0928904E0928A047F
:10375000F0928B0410928C044A9B05C080918C04DB
:10376000816080938C044B9B05C080918C048260A7
:1037700080938C04809169008F7C806180936900C4
:10378000EA9A809169008F73806480936900EB9A54
:1037900060E082E10E94551760E083E10E945517C6
:1037A00060E084E10E94551760E085E10E945517B2
:1037B0006E9A5798249A10925903109258031092B7
:1037C00061031092620310926303109264031092DB
:1037D000570310925A0388E191E09093A8018093D7
:1037E000A70188EC94E090933605809335058AE232
:1037F0009AE09093380580933705279A1091AF018E
:10380000812F0E94D6065C019093AA018093A901A2
:103810009093B1018093B0016091B3017091B401B4
:1038200080E090E00E9488316B017C01B50180E06E
:1038300090E00E9488319B01AC01C701B6010E9453
:10384000E0306093AB017093AC018093AD01909335
:10385000AE01012F017010FD05C020E030E04AEFFD
:1038600054E404C020E030E04AE754E460910801E9
:103870007091090180910A0190910B010E943F32E1
:10388000609308017093090180930A0190930B01E2
:10389000011105C020E030E04AEF54E404C020E00C
:1038A00030E04AE754E46091040170910501809191
:1038B0000601909107010E943F32609304017093CA
:1038C00005018093060190930701011105C020E0D6
:1038D00030E04AEF54E404C020E030E04AE754E42A
:1038E00060910001709101018091020190910301AA
:1038F0000E943F32609300017093010180930201A6
:1039000090930301109280001092810010926F003A
:1039100016BA8091A9019091AA0190938700809393
:103920008600109289001092880010928B001092ED
:103930008A008091AF018274823421F480918100E9
:10394000826003C0809181008160809381008091BA
:10395000AF0180FF09C08091800082608093800069
:1039600080918100806108C0809180008260809396
:1039700080008091810088618093810080E090E0E8
:103980000E94AE0F80918000806880938000259A0D
:1039900080E090E00E94A10F80918000806280937F
:1039A0008000269A61E08DE00E94551713E081E0C7
:1039B0000E944C1664E170E080E090E00E94B6172F
:1039C00080E00E944C1664E170E080E090E00E948C
:1039D000B617115061F7109273031092740310928E
:1039E00075031092760383E793E00E94BB0F8091EA
:1039F000810490918204A0918304B0918404F8948E
:103A00008093880490938904A0938A04B0938B04D4
:103A1000789410927203109271038FEF97E0909355
:103A20005603809355038091B201809354030E9402
:103A3000911760939A0370939B0380939C039093D8
:103A40009D030E94911760939F047093A00480933C
:103A5000A1049093A20400919E0310919F032091D2
:103A6000A0033091A1036B017C01C01AD10AE20AC4
:103A7000F30AC0929B04D0929C04E0929D04F092C1
:103A80009E0400919A0310919B0320919C03309116
:103A90009D036B017C01C01AD10AE20AF30A40EDD2
:103AA000C41647E0D406E104F10410F40C94552F39
:103AB00060939A0370939B0380939C0390939D0360
:103AC000E2E210925A038091580390915903829731
:103AD00074F01092590310925803109261031092DF
:103AE0006203109263031092640310925703809153
:103AF0005803909159038230910564F4892B09F49D
:103B00002C9A8091580390915903019709F045C070
:103B10002C9843C09C012170332780FD3AC099B195
:103B2000991F9927991F90935A03809157038032C8
:103B300058F5409161035091620360916303709165
:103B4000640301E010E020E030E0082E04C0000F24
:103B5000111F221F331F0A94D2F7992329F0402BFB
:103B6000512B622B732B08C0009510952095309532
:103B700040235123622373234093610350936203D4
:103B800060936303709364038F5F80935703769A07
:103B900004C02130310509F4769880915803909142
:103BA000590301969093590380935803E15009F00B
:103BB00088CF80918504882319F1F8948091880436
:103BC00090918904A0918A04B0918B0478944091DB
:103BD0008104509182046091830470918404841B59
:103BE000950BA60BB70B4091A3045091A4046091D0
:103BF000A5047091A604840F951FA61FB71F16C0B9
:103C0000F8948091880490918904A0918A04B091DD
:103C10008B047894409181045091820460918304D4
:103C200070918404841B950BA60BB70B80939603AD
:103C300090939703A0939803B09399038091960370
:103C400090919703A0919803B09199038093920368
:103C500090939303A0939403B093950310919103D1
:103C600015FB882780F916FD826017FF02C084606B
:103C700025C0813019F58091810490918204A09132
:103C80008304B09184046C017D01C094D094E094CD
:103C9000F0949C01AD012C193D094E095F0960911A
:103CA000890370918A0380918B0390918C030E9409
:103CB0003C332FEF3FEF40E050E04AC0823099F4B0
:103CC0004091810450918204609183047091840436
:103CD0006A017B01C094D094E094F094A091830396
:103CE000B091840329C0833099F4409181045091AC
:103CF000820460918304709184046A017B01C09402
:103D0000D094E094F094A0917D03B0917E0314C010
:103D1000843061F540918104509182046091830464
:103D2000709184046A017B01C094D094E094F09473
:103D3000A0917703B09178039A01AB012C193D094A
:103D40004E095F090E9435302FEF3FE040E050E020
:103D50000E940B30C20ED31EE41EF51EC0929203C9
:103D6000D0929303E0929403F09295038090920393
:103D700090909303A0909403B09095038091A80431
:103D80009091A904A091AA04B091AB048092A804D8
:103D90009092A904A092AA04B092AB042091B0041E
:103DA000222309F449C00091D90454E0059F9001F1
:103DB0001124B90168557B4F7B01A5019401281B93
:103DC000390B4A0B5B0BCA01B9010E948A31D7013A
:103DD00019966D937D938D939C931C97F02EBAE06A
:103DE000EB2E60E070E0CB01B4E0FB9EF00111240B
:103DF000E855FB4F21853285438554850E946F30FD
:103E0000FF2011F0FA9402C0A9E0FA2EEA94E11022
:103E1000EBCF20E030E040E251E40E94E0300F5F61
:103E20000A3018F40093D90402C01092D90468A78C
:103E300079A78AA79BA70FC081E08093B004109256
:103E4000AC041092AD041092AE041092AF0418A608
:103E500019A61AA61BA62091DA043091DB04409122
:103E6000DC045091DD0488A599A5AAA5BBA5809383
:103E7000DA049093DB04A093DC04B093DD0480911A
:103E8000E204882309F444C000913305E4E00E9F66
:103E9000C0011124BC016F547B4F7B0168A579A53B
:103EA000CD010E946E30D701D2966D937D938D9394
:103EB0009C93D597F02EF4E1EF2E60E070E0CB01FB
:103EC000B4E0FB9EF0011124EF54FB4F22A933A96B
:103ED00044A955A90E946F30FF2011F0FA9402C046
:103EE000E3E1FE2EEA94E110EBCF20E030E040EA7F
:103EF00051E40E94E0300F5F043118F40093330561
:103F000002C01092330568AB79AB8AAB9BAB0FC094
:103F100081E08093E2041092DE041092DF0410929C
:103F2000E0041092E10418AA19AA1AAA1BAA809107
:103F30003405882359F110FF23C70E945A139B01AF
:103F4000AC0160E070E080E094E40E94E0306B013E
:103F50007C0160916C0370E080E090E00E948A3107
:103F60009B01AC01C701B6010E943F3220E030E066
:103F700048EC52E40E94E0300E945231AB01C5018E
:103F8000B4010E9468142B013C01FDC6ECEBF1E08A
:103F9000FFA3EEA31F8A1E8A412C512C32010E89E9
:103FA0001F890F5F1F4F1F8B0E8B4EE19801429FA1
:103FB0008001439F100D112408511E4FD8018C9190
:103FC0008370833009F0CFC60E945A136B017C01C5
:103FD000F80121853285A789B08D0E9466332FEFC5
:103FE0003FE740E050E00E940B30CA01B9010E9457
:103FF0008A31A70196010E94E0300E9452319B0154
:10400000AC01D8011B968D919C911C97059730F4BB
:10401000E4E0F0E01C96FC93EE931B976EE1E62E35
:10402000CE88DF88EC9CF001ED9CF00D1124E85166
:10403000FE4FE1818E2F90E0FC013197ED30F105CC
:1040400008F07BC6EA5AFF4F0C9460330E945A1363
:104050006A8B7B8B8C8B9D8B2EE10E891F89209F19
:10406000C001219F900D1124AC0148515E4F1A01EF
:10407000DA0119968D909C901A975596AD90BC9048
:1040800056971F96CD90DC9050975196ED90FC90EE
:10409000529753960D911C91549714962C91149706
:1040A00013964C91139757968D919C915897EEA12A
:1040B000FFA1608171810E946B139401DC010E9459
:1040C00066332FEF3FE740E050E00E940B30CA011B
:1040D000B9010E948A312A893B894C895D890E94F5
:1040E000E0300E9452310E940B069B01AC01A0916E
:1040F0006B03B0E00E942A3024E630E040E050E05C
:104100000E940B30421A530A640A750A72C10E9457
:104110005A136A8B7B8B8C8B9D8BBEE1EB2ECE88EA
:10412000DF88EC9CF001ED9CF00D1124E851FE4F6E
:10413000018512851B8F0A8FC588D688DF8ECE8EAB
:10414000E784F088FBA2EAA2018912891DA70CA7C7
:10415000038914891CAF0BAF84809380AEA1BFA1EB
:104160002D903C90078510896085A7800A2C000C53
:10417000BB08062E000C770B6A197B09CB01770F61
:10418000AA0BBB0B6627782F892F9A2F0E948A31A2
:104190006B017C01B80180E090E00E94883120E052
:1041A00030E04AE754E40E94E0309B01AC01C701D3
:1041B000B6010E94E0306B017C01C101B8010E9490
:1041C0004C33BC0180E090E00E94883120E030E078
:1041D0004AE754E40E94E0309B01AC01C701B601FC
:1041E0000E943F320E945231BA2CAA24C501860F88
:1041F000971FAE8CBF8CCAA0DBA0ECA4FDA40BADB6
:104200001CAD282D492DB1010E946B132A8D3B8DC9
:10421000DC010E9466332FEF3FE740E050E00E9450
:104220000B30CA01B9010E948A312A893B894C8925
:104230005D890E94E0300E9452310E940B06461AAE
:10424000570A680A790A79C50E945A136A8F7B8FC8
:104250008C8F9D8FAEE1CA2EEE89FF89CE9EC00164
:10426000CF9E900D11248C0108511E4F1801D801CA
:1042700019960D90BC91A02DBF8FAE8FF801038CC5
:10428000F48DE02DFBA3EAA3D8015D96BC91BCA7F9
:10429000F80183849484A588B688C784D088E1888F
:1042A000F2880389148924814381AEA1BFA10D90B6
:1042B000BC91A02DBB8BAA8B8789908DBD010E94DC
:1042C0006B138C01B40180E090E00E94883120E003
:1042D00030E04AE754E40E94E0309B01AC0160E02A
:1042E00070E080E89FE30E94E0306B017C018A89E6
:1042F0009B89B4010E944C33BC0180E090E00E9495
:10430000883120E030E04AE754E40E94E0309B012D
:10431000AC01C701B6010E943F326B017C01BCA514
:104320006B2F70E080E090E00E94883120E030E068
:1043300040E85BE30E943F329B01AC01C701B6013C
:104340000E946F302BED3FE049EC50E40E943F3279
:104350000E94AC329B01AC01EAA1FBA16F01FF0FEF
:10436000EE08FF08B801110F880B990B2DAF2196AD
:104370003FAF21974EAF5FAF0E948A312DAD21969E
:104380003FAD21974EAD5FAD0E943F320E9452314A
:10439000CB01770FAA0BBB0BA7019601280F391F82
:1043A0004A1F5B1FAE8DBF8D0E942A302FEF3FE763
:1043B00040E050E00E940B30CA01B9010E948A31EE
:1043C0002A8D3B8D4C8D5D8D0E94E0300E945231D4
:1043D0009B01AC01A0916A03B0E00E942A3024E660
:1043E00030E040E050E00E940B30420E531E641E4D
:1043F000751ED10116968C91169782FF9EC41D964C
:104400006D917C911E9780E090E00E9488312BEDA9
:104410003FE049EC50E40E943F3220E030E040E0D1
:1044200058E30E943F320E94AC329B01AC01C301B1
:10443000B2012DAF21963FAF21974EAF5FAF0E94E3
:104440008A312DAD21963FAD21974EAD5FAD0E94D3
:104450003F320E9452312B013C016FC40E945A131B
:104460006A8F7B8F8C8F9D8FFEE1EF2ECE88DF8849
:10447000EC9CF001ED9CF00D1124E851FE4F0185FC
:1044800012851F8F0E8F238D348DA901330F660B7C
:10449000770B4AA35BA36CA37DA3558D5CA72384F4
:1044A0003484A588B688C784D088E188F2880389D7
:1044B000148924814381AEA1BFA10D90BC91A02D90
:1044C000BB8BAA8B8789908DBD010E946B13BC01A9
:1044D000990F880B990B0E948A314B015C01B10145
:1044E00080E090E00E94883120E030E04AE754E428
:1044F0000E94E0309B01AC0160E070E080E89FE347
:104500000E94E0306B017C018A899B89B1010E9485
:104510004C33BC0180E090E00E94883120E030E024
:104520004AE754E40E94E0309B01AC01C701B601A8
:104530000E943F326B017C01BCA56B2F70E080E0D4
:1045400090E00E94883120E030E040E85BE30E9488
:104550003F329B01AC01C701B6010E946F302BEDC9
:104560003FE049EC50E40E943F320E94AC326B01C4
:104570007C0120E030E0A9010E943A3287FF0CC0A4
:1045800020E030E0A901C701B6010E94DB3087FFBF
:1045900005C0EFEFEEAB02C0F1E0FEABCEA86C2D94
:1045A000CC0C770B880B990B0E948A319B01AC01D4
:1045B000C501B4010E943F320E945231CB01770FF6
:1045C000AA0BBB0BE0C10E945A136E8F7F8F88A38A
:1045D00099A30EE1EE88FF880E9DF0010F9DF00D6E
:1045E0001124E851FE4F218532853BA32AA3238D58
:1045F000348DA901330F660B770B4CA75DA76EA70F
:104600007FA7358D638574857B8B6A8BA588B6887B
:10461000C784D088E188F288038914892481438182
:10462000AEA1BFA10D90BC91A02DBB8FAA8F878991
:10463000908DBD0121963FAF21970E946B131C0105
:10464000EA89FB89BF0180E090E00E9488314B013C
:104650005C0121963FAD219760E4630F70E080E03C
:1046600090E00E94883120E030E040E85BE30E9467
:104670003F32A50194010E943F320E9459318A8D38
:104680009B8D860F971F6A897B890E944C338C0112
:10469000BC0180E090E00E94883120E030E04AE7F1
:1046A00054E40E94E0306B017C0120E030E0A9017D
:1046B0000E943A3287FD3CC020E030E04AE754E4F3
:1046C000C501B4010E94E0306A8F7B8F8C8F9D8F73
:1046D00020E030E040E05FE30E943F329B01AC010C
:1046E000C701B6010E94DB3087FF22C0B101032C55
:1046F000000C880B990B0E948A3120E030E040E8E2
:1047000050E40E943F322A8D3B8D4C8D5D8D0E947E
:10471000E030A70196010E943F320E94523131944D
:10472000219431086101C60ED71EDDAACCAA51C062
:1047300020E030E04AE754E4C501B4010E94E030D3
:104740004B015C0120E030E040E05FE30E943F323B
:104750009B01AC01C701B6010E943A3287FD39C006
:10476000A5019401C701B6010E94DB3087FF31C06B
:10477000B101032C000C880B990B0E948A3120E0B8
:1047800030E040E850EC0E943F32A50194010E94C5
:10479000E0306B017C018A899B8996958795B801E9
:1047A000681B790B80E090E00E94883120E030E0C7
:1047B0004AE754E40E94E0309B01AC01C701B60116
:1047C0000E943F320E9452317101E60EF71EFDAA8F
:1047D000ECAA0CA91DA9C801110FAA0BBB0B2CA593
:1047E0003DA54EA55FA5280F391F4A1F5B1FAAA133
:1047F000BBA10E942A302FEF3FE740E050E00E942B
:104800000B30CA01B9010E948A312E8D3F8D48A11B
:1048100059A10E94E0300E9452319B01AC01A0914D
:104820006A03B0E00E942A3024E630E040E050E025
:104830000E940B30420E531E641E751E7EC20E94E3
:104840005A136A8F7B8F8C8F9D8F4EE12E893F8903
:10485000429FF001439FF00D1124E851FE4F618506
:1048600072857F8F6E8F238D348DC901330FAA0B14
:10487000BB0B8AA39BA3ACA3BDA3358D2384348437
:10488000A588B688C784D088E188F288038914890E
:1048900024814381AEA1BFA10D90BC91A02DBB8B03
:1048A000AA8B8789908DBD0121963FAF21970E94E9
:1048B0006B138C01B10180E090E00E9488314B01C4
:1048C0005C0121963FAD219760E8630F70E080E0C6
:1048D00090E00E94883120E030E040E85BE30E94F5
:1048E0003F32A50194010E943F320E9459318A89CA
:1048F0009B89860F971FB1010E944C339B8B8A8B3B
:1049000082159305D0F5B801012E000C880B990B88
:104910000E948A319B01AC010E946F306B017C01C7
:1049200020E030E04AE754E4C501B4010E94E030E1
:104930009B01AC01C701B6010E94E0304B015C0154
:10494000CA88DB88B60180E090E00E94883120E0D0
:1049500030E04AE754E40E94E0309B01AC01C5011D
:10496000B4010E943F320E94523111950195110904
:104970007801E60EF71EF8AEEFAA0FA918ADC80130
:10498000110FAA0BBB0B2AA13BA14CA15DA1280FC3
:10499000391F4A1F5B1FAE8DBF8D0E942A302FEF3B
:1049A0003FE740E050E00E940B30CA01B9010E948D
:1049B0008A312A8D3B8D4C8D5D8D2BCF0E945A13F1
:1049C0006A8F7B8F8C8F9D8F4EE12E893F89429F0E
:1049D000F001439FF00D1124E851FE4F618572856F
:1049E0007F8F6E8F238D348DC901330FAA0BBB0BC4
:1049F0008AA39BA3ACA3BDA3358D23843484A5884F
:104A0000B688C784D088E188F28803891489248114
:104A10004381AEA1BFA10D90BC91A02DBB8BAA8BF1
:104A20008789908DBD0121963FAF21970E946B131E
:104A30008C01B10180E090E00E9488314B015C0163
:104A400021963FAD219760E8630F70E080E090E031
:104A50000E94883120E030E040E85BE30E943F3272
:104A6000A50194010E943F320E9459318A899B8995
:104A7000860F971FB1010E944C339B8B8A8B821546
:104A80009305D0F566277727601B710B072E000C66
:104A9000880B990B0E948A319B01AC010E946F30F8
:104AA0006B017C0120E030E04AE754E4C501B40129
:104AB0000E94E0309B01AC01C701B6010E94E030CA
:104AC0004B015C01CA88DB88B60180E090E00E945F
:104AD000883120E030E04AE754E40E94E0309B0156
:104AE000AC01C501B4010E943F320E9452317801ED
:104AF000E60EF71EFAAEE9AE09AD1AAD40CF8EE173
:104B00006E897F89869FF001879FF00D1124E851FF
:104B1000FE4F038D148DA0916903B0E00E942A30EE
:104B200020E436E040E050E00E940B3069017A0159
:104B30002091810430918204409183045091840437
:104B4000D8010E943530DC01CB017FE0B595A795F7
:104B5000979587957A95D1F7092E000CAA0BBB0B78
:104B60004091920350919303609194037091950347
:104B70008A019B01081B190B2A0B3B0BC901B801C9
:104B8000A6010E946814460E571E681E791ED5C0E5
:104B90008EE16E897F89869FF001879FF00D112439
:104BA000E851FE4F038D148DA0916803B0E00E9480
:104BB0002A3024E630E040E050E00E940B306901EA
:104BC0007A01B801110F880B990B0E948A312AE9EA
:104BD00039EC4CEC54E40E94E0309B01AC0168A538
:104BE00079A58AA59BA50E946E30A6010E94951505
:104BF00062C06EE1C62EAE89BF89CA9EF001CB9E0F
:104C0000F00D1124E851FE4F038D148DA091670320
:104C1000B0E00E942A3024E630E040E050E00E94FC
:104C20000B3069017A01B801110F880B990B0E94B2
:104C30008A3120E03EEF4FEF56E40E94E0309B01C6
:104C4000AC0168A979A98AA99BA90E946E30A60126
:104C50000E942D1530C00EE1EE88FF880E9DF001F8
:104C60000F9DF00D1124E851FE4F038D148DA0917E
:104C70006603B0E00E942A3024E630E040E050E0D5
:104C80000E940B3069017A01B801110F880B990B52
:104C90000E948A312AE939EC4CEC54E40E94E0305D
:104CA0009B01AC0168A579A58AA59BA50E946E30E1
:104CB000A6010E94AC14092E000CAA0BBB0B480ED7
:104CC000591E6A1E7B1E39C00E945A139B01AC01FB
:104CD0008EE16E897F89869FF001879FF00D1124F8
:104CE000E851FE4F838D948DBC01990F880B990B71
:104CF0002DAF21963FAF21974EAF5FAF0E948A3113
:104D00002DAD21963FAD21974EAD5FAD0E94E030B5
:104D10000E9452310E940B069B01AC01A0916A03D4
:104D2000B0E00E942A3024E630E040E050E00E94EB
:104D30000B30421A530A640A750A0E94DC1700916C
:104D4000B8011091B9012091BA013091BB01DC0189
:104D5000CB01801B910BA20BB30BEEA1FFA18083B3
:104D60009183A283B3830EA11FA10C5F1F4F1FA3CA
:104D70000EA32E893F892B30310509F010C903C0DD
:104D8000412C512C32011091910311FF31C00E942E
:104D90005A139B01AC01E091680367E471E0E69F60
:104DA000C001E79F900D1124BC0180E090E02DAF81
:104DB00021963FAF21974EAF5FAF0E948A312DAD54
:104DC00021963FAD21974EAD5FAD0E94E0300E942D
:104DD0005231AB0168A579A58AA59BA50E949515BE
:104DE000092E000CAA0BBB0B480E591E6A1E7B1E17
:104DF00012FF31C00E945A139B01AC01E09167037E
:104E000067E471E0E69FC001E79F900D1124BC01AB
:104E100080E090E02DAF21963FAF21974EAF5FAF7E
:104E20000E948A312DAD21963FAD21974EAD5FADE9
:104E30000E94E0300E945231AB0168A979A98AA989
:104E40009BA90E942D15092E000CAA0BBB0B480E26
:104E5000591E6A1E7B1E13FF31C00E945A139B010C
:104E6000AC01E091660367E471E0E69FC001E79F53
:104E7000900D1124BC0180E090E02DAF21963FAF52
:104E800021974EAF5FAF0E948A312DAD21963FAD85
:104E900021974EAD5FAD0E94E0300E945231AB01D0
:104EA00068A579A58AA59BA50E94AC14092E000CC3
:104EB000AA0BBB0B480E591E6A1E7B1E4091810433
:104EC00050918204609183047091840480919203D4
:104ED00090919303A0919403B0919503CC24DD2489
:104EE0007601C41AD50AE60AF70A8C159D05AE05A7
:104EF000BF0534F0481759076A077B070CF045C017
:104F0000B7FD05C0841B950BA60BB70B04C0840F1F
:104F1000951FA61FB71F8093920390939303A093AE
:104F20009403B09395030E945A139B01AC0160E077
:104F30007EEF8FEF96E40E94E0306B017C01609180
:104F4000650370E080E090E00E948A319B01AC0133
:104F5000C701B6010E943F3220E030E048EC52E445
:104F60000E94E0300E9452316B017C0160919203FB
:104F7000709193038091940390919503A6010E94F0
:104F80006814460E571E681E791EA091B701B0E046
:104F9000A30192010E942A3024E630E040E050E074
:104FA0000E940B30CA01B9010E940B066B017C0103
:104FB00014FF04C00E940C170E94B116C092730324
:104FC000D0927403E0927503F09276036091960399
:104FD0007091970380919803909199030E948A3170
:104FE0006B017C01609150037091510380915203D9
:104FF000909153030E948A319B01AC0160E07FEFE6
:105000008FE797E40E94E0309B01AC01C701B60135
:105010000E943F320E9452314B015C016115704881
:105020008105910534F088248A942FE7922EA12CD3
:10503000B12C811440E894064FEFA406B40634F472
:10504000812C90E8992EAA24AA94BA2C80929603D7
:1050500090929703A0929803B092990383E793E00C
:105060000E94BB0F00917103109172034090850361
:1050700050908603400E511E612C712CC0907F030E
:10508000D0908003C00ED11EE12CF12C20917D0325
:1050900030917E03C901330FAA0BBB0B9C01AD01FC
:1050A0002C193D094E095F09AFEFBFE00E942A307D
:1050B0002091810330918203201B310B40E050E0AE
:1050C0002C193D094E095F090E940B302E8B3F8B36
:1050D000488F598FC0907903D0907A03C00ED11EAB
:1050E000E12CF12C2091770330917803C901330F23
:1050F000AA0BBB0B9C01AD012C193D094E095F09A0
:10510000AFEFBFE00E942A3020917B0330917C03F7
:10511000201B310B40E050E02C193D094E095F097E
:105120000E940B3069017A0120918303309184033E
:10513000C901330FAA0BBB0B9C01AD012419350922
:1051400046095709AFEFBFE00E942A30209187033C
:1051500030918803201B310B40E050E024193509C1
:10516000460957090E940B302901411450E15506A8
:1051700024F044244A948FE0582E57FE02C0412C5C
:10518000512C50928403409283036E887F8861146F
:1051900060E1760624F066246A94BFE07B2E77FEF9
:1051A00002C0612C712C70927E0360927D03C11449
:1051B00070E1D70624F0CC24CA94AFE0DA2ED7FEF3
:1051C00002C0C12CD12CD0927803C0927703809179
:1051D0008D0390918E03800F911F9C0140E050E061
:1051E0002E8B3F8B488F598F2091890330918A03F2
:1051F00040918B0350918C036E897F89888D998DA6
:10520000261B370B480B590BAFEFBFEF0E942A301C
:1052100020918F0330919003201B310B40E050E030
:10522000EE88FF88088D198D2E193F09400B510B10
:105230000E940B302115310501E04007510524F093
:105240002FEF3FEF40E050E057FF03C020E030E099
:10525000A9012093890330938A0340938B035093D1
:105260008C03E0906103F09062030091630310915E
:1052700064039E2D9F70913081F0923081F09430C4
:1052800081F0983081F0933081F0963081F0993040
:1052900081F09C3081F060E00FC061E00DC063E000
:1052A0000BC065E009C067E007C062E005C064E0CC
:1052B00003C068E001C066E0D801C701807F8A8B27
:1052C0009B8BAC8BBD8B862B80936D0390936E0371
:1052D000A0936F03B0937003E0E89E1A89829A82CC
:1052E0002B833C834D82262D2295207F25292E83DA
:1052F00024E0769467942A95E1F76F82C886282F78
:105300002295207F2D292987AC01BD0134E07695B7
:105310006795579547953A95D1F74A87AC01BD01F6
:10532000ECE07695679557954795EA95D1F74B87C9
:10533000F4E1B695A79597958795FA95D1F78C875F
:105340004CE050E0BE016F5F7F4F84E00E94090A8D
:1053500080919B0490919C04A0919D04B0919E0427
:1053600080319742A105B10508F49FC58DE894E00E
:105370000E94BC0C181619060CF087C58DE894E045
:105380000E94820CE82F8FE98E0F8A3108F4E052D8
:105390008E2F90E0FC01E154F109EA31F10508F0AB
:1053A00074C5ED59FF4F0C9460338091B501909115
:1053B000B6010E94461780E20E94A6168091B701AE
:1053C0000E944C1780E20E94A616809168030E94FA
:1053D0004C1780E20E94A616809166030E944C172B
:1053E00080E20E94A61680916B030E944C1780E217
:1053F0000E94A61680916A030E944C1780E20E94C8
:10540000A616809169030E944C1780E20E94A6169E
:10541000809167030E944C1780E20E94A61680913B
:105420006C030E944C1780E20E94A61680916503CF
:105430000E944C1780E20E94A6166091B301709101
:10544000B40180E090E04AE00E94BF1680E20E9432
:10545000A6168091B2010E944C1780E20E94A61607
:10546000809191030E944C1780E20E94A6166091E1
:10547000B0017091B10180E090E04AE00E94BF1657
:1054800080E20E94A61660915D0370915E03809198
:105490005F03909160030E940C1780E20E94A616A1
:1054A0006091AF0170E095C283E991E00E945317CB
:1054B0008AEF90E00E94461788E991E00E94531716
:1054C0008AE991E00E9453178CE991E00E945317FA
:1054D0008EE991E00E94531780EA91E00E945317F1
:1054E000D4C48091A704082E000C990BCCC4F89466
:1054F0008091880490918904A0918A04B0918B04D2
:10550000789419821A821B821C82F894C0908804B5
:10551000D0908904E0908A04F0908B047894809174
:10552000B0019091B1012091B3013091B401821B7F
:10553000930B9695879596958795A0E0B0E0898323
:105540009A83AB83BC83CE0101960E94BB0F1EEFF2
:10555000F894409188045091890460918A04709174
:105560008B04789480918504882351F019821A82E3
:105570001B821C82CE0101960E94BB0F81E024C0D9
:105580009A01AB012C193D094E095F09A091B501A3
:10559000B091B6010E9435302091500330915103F3
:1055A00040915203509153030E940B3028363140F2
:1055B0004105510564F019821A821B821C82CE01BA
:1055C00001960E94BB0F83E08093A7045AC462E354
:1055D00070E080E090E00E94B617115009F0B8CF5B
:1055E00050C40E942218611101C061E06093B201B1
:1055F00048C4F894409088045090890460908A04CC
:1056000070908B0478948091810490918204A09191
:105610008304B0918404481A590A6A0A7B0A80916B
:10562000A3049091A404A091A504B091A604480EEF
:10563000591E6A1E7B1E0E94221864307105810566
:1056400091057CF06B017C01613C774289409105BA
:105650006CF010ECC12E17E2D12E19E0E12EF12CE6
:1056600005C0B4E0CB2ED12CE12CF12CC982DA821A
:10567000EB82FC826091B5017091B601072E000C9F
:10568000880B990B0E948A314B015C01C301B20166
:105690000E948A31A50194010E943F322B013C01F6
:1056A0006091500370915103809152039091530384
:1056B0000E948A319B01AC01C301B2010E94E0301B
:1056C0002B013C01C0925D03D0925E03E0925F0328
:1056D000F0926003C701B601ABC080918104909144
:1056E0008204A0918304B0918404F89440918804CA
:1056F0005091890460918A0470918B047894841B82
:10570000950BA60BB70B8093A3049093A404A093CE
:10571000A504B093A604B5C31092A3041092A404E8
:105720001092A5041092A60444E063EA74E082E0BB
:1057300090E035C3F8948090880490908904A090FC
:105740008A04B0908B0478948091810490918204B3
:10575000A0918304B0918404881A990AAA0ABB0A0A
:105760008091A3049091A404A091A504B091A604F3
:10577000880E991EAA1EBB1E0E9422186E3171054A
:105780008105910574F06B017C01693077408105DA
:10579000910564F0A8E0CA2EA7E0DA2EE12CF12CE6
:1057A00005C0FEE1CF2ED12CE12CF12CC982DA828A
:1057B000EB82FC82C501B4010E948A314B015C017D
:1057C0006091B5017091B601072E000C880B990B02
:1057D0000E948A319B01AC01C501B4010E943F3295
:1057E0004B015C0160915003709151038091520311
:1057F000909153030E948A319B01AC01C501B40111
:105800000E94E0302B013C01D092B601C092B5015C
:10581000B601DD0C880B990B0E948A314B015C01AB
:1058200060915D0370915E0380915F0390916003CE
:105830000E948A3120E030E044EB53E40E94E030E3
:10584000A50194010E943F320E945231609350039F
:105850007093510380935203909353036B017C0127
:10586000F594E794D794C794C0928104D0928204AF
:10587000E0928304F09284040E948A319B01AC017F
:10588000C301B2010E943F32A50194010E94E030A1
:105890000E945231C60ED71EE81EF91E8091A30445
:1058A0009091A404A091A504B091A604C81AD90AA5
:1058B000EA0AFB0AF894C0928804D0928904E09224
:1058C0008A04F0928B047894DCC20E942218262F5E
:1058D0006091910380E090E030E0F901082E02C071
:1058E000F595E7950A94E2F7C12CD12C7601C39483
:1058F000082E04C0CC0CDD1CEE1CFF1C0A94D2F751
:10590000E0FF02C06C2902C0C0946C21019688306F
:10591000910519F76093910370E080E090E042E018
:105920000E94BF160E94B116B0C20E942218809138
:10593000AF0120E030E070E0AB01022E02C05595CF
:1059400047950A94E2F7C12CD12C7601C394022E1C
:1059500004C0CC0CDD1CEE1CFF1C0A94D2F740FFE7
:1059600002C08C2902C0C0948C212F5F3F4F283089
:10597000310511F78093AF0141E06FEA71E08DE1ED
:1059800090E00E947E068091AF010E94D606BC0185
:1059900080E090E00E9488312091AB013091AC0111
:1059A0004091AD015091AE010E943F320E945231B0
:1059B00069837A838B839C8344E0BE016F5F7F4F52
:1059C00081E190E00E947E068091AF010E94D606A0
:1059D000BC0180E090E04AE0A3CF80E090E053C2B9
:1059E0008DE894E00E94820CE82F8FE98E0F8A31B7
:1059F00008F4E0528E2F90E0FC01E154F109E2310D
:105A0000F10508F042C2E358FF4F0C9460330E9446
:105A10002218611530E173078105910524F06FEFBD
:105A20007FE080E090E097FF03C060E070E0CB0192
:105A300069837A838B839C8370938E0360938D0339
:105A400020C20E942218611540E17407810591056A
:105A500024F06FEF7FE080E090E097FF03C060E00C
:105A600070E0CB0169837A838B839C83709390036E
:105A700060938F0306C20E942218611550E17507DA
:105A80008105910524F06FEF7FE080E090E097FFC3
:105A900003C060E070E0CB0169837A838B839C83D1
:105AA0007093860360938503ECC10E9422186115F0
:105AB000A0E17A078105910524F06FEF7FE080E097
:105AC00090E097FF03C060E070E0CB0169837A83C8
:105AD0008B839C837093880360938703D2C10E9459
