:100000000C9420040C9448040C94E4070C9402080B
:100010000C94F3070C9448040C9448040C94480482
:100020000C9448040C9448040C944B0B0C94EE086C
:100030000C9448040C9448040C9448040C94480410
:100040000C9448040C9448040C9448040C94480400
:100050000C9448040C9448040C9448040C94581BC9
:100060000C9448040C9448040C9448040C944804E0
:100070000C9448040C9448040C9448040C944804D0
:100080000C9448040C9448040C9448040C944804C0
:100090000C9489100C9448040C9448040C94480463
:1000A0000C9448040C9448040C944804D022312346
:1000B0002325CE23D825D4271427752829295A2962
:1000C0008C290A2AC529A531CE2E382FC132E82F16
:1000D0004E32432F7030C132C132C132C132C132CF
:1000E000C132D62E7030C1327A2E742EC132D42D48
:1000F000532E1830C132733070308A30A430BE3085
:10010000D830F2300C3126314031C132C132C132E7
:10011000C132C132C132C132C132C1325A318832E8
:100120008D326A326F32C13274326532C1328332FB
:100130009232C132C1327E32C132C132C132C13299
:10014000C1327932121317131C1326137013701354
:10015000701330133A1344134E135B13701363136D
:100160008D1A901A831A871AB11AB11AB11A941AF1
:10017000981A9C1AA21AA61AB11AAC1A05A84CCD44
:10018000B2D44EB93836A9020C50B9918688083CD1
:10019000A6AAAA2ABE000000803F000000000000BE
:1001A00000002A2B280000000000000000000000D2
:1001B000000000000000000000002C9EB4A0A1A2DE
:1001C000A434A6A7A5AE362D3738271E1F2021221E
:1001D00023242526B333B62EB7B89F848586878817
:1001E000898A8B8C8D8E8F90919293949596979807
:1001F000999A9B9C9D2F3130A3AD350405060708C5
:10020000090A0B0C0D0E0F101112131415161718E6
:10021000191A1B1C1DAFB1B0B500080B0002020279
:100220000100090400000102020000052400100181
:100230000524010101042402060524060001070526
:10024000810310004009040100020A0000000705B4
:10025000020240000007058302400000090402007A
:10026000020300000009210101000122E104070549
:10027000840340000107050503400001050109044E
:10028000A10185040901A100093017000000002721
:10029000FFFF0000350047FFFF000075109501814A
:1002A00002093116000027FFFF0000350047FFFF5D
:1002B0000000751095018102093216000027FF0F1A
:1002C0000000350047FF0F0000750C950181020901
:1002D0003316000027FF0F0000350047FF0F000016
:1002E000750C95018102093416000027FF0F0000EC
:1002F000350047FF0F0000750C9501810209391583
:100300000125083500463B0165145500750495012B
:1003100081020509150025015500650019012918FC
:1003200075019518810285F10901150026FF0095D8
:100330003F7508918285F20901953F75088182C059
:10034000050F0992A1028502099F09A009A409A528
:1003500009A61500250135004501750195058102A5
:1003600095038103099415002501350045017501A8
:1003700095018102092215012528350145287507B7
:1003800095018102C00921A10285010922150125DB
:1003900028350145287508950191020925A1020912
:1003A000260927093009310932093309340940097E
:1003B0004109420943250B15013501450B75089587
:1003C000019100C009500954150027FFFF000035B6
:1003D0000047FFFF000066011055FD751095029162
:1003E0000255006600000952150026FF7F350046C1
:1003F000FF7F7510950191020953150125083501FC
:1004000045087508950191020955A10205010930B9
:10041000093115002501750195029102C0050F09EA
:100420005695019102950591030957A1020B010010
:100430000A000B02000A0066140055FE150026FF94
:100440007F3500479F8C0000751095019102550083
:10045000660000C0050F09A766011055FD150027AD
:10046000FFFF0000350047FFFF0000751095019168
:10047000026600005500C0050F095AA10285020955
:100480002215012528350145287508950191020995
:100490005B095D150026FF00350046FF7F75089556
:1004A000029102095C095E66011055FD26FF7F4638
:1004B000FF7F7510950291026600005500C0095F2C
:1004C000A102850309221501252835014528750853
:1004D0009501910209231500250135004501750498
:1004E000950191020958A1020B01000A000B0200BC
:1004F0000A00750295029102C0096016008026FF6D
:100500007F36008046FF7F751095019102096136A4
:10051000008046FF7F95019102150026FF7F350080
:1005200046FF7F0963751095019102096515002644
:10053000FF0046FF7F750895019102C0096EA10278
:1005400085040922150125283501452875089501DE
:1005500091020970150026FF7F350046FF7F751058
:1005600095019102096F16008026FF7F36008046B4
:10057000FF7F950191020971150026FF00350046A5
:1005800067016614005500750895019102097227EC
:10059000FFFF000047FFFF000066011055FD7510CA
:1005A000950191026600005500C00973A1028505FE
:1005B0000922150125283501452875089501910264
:1005C000097016018026FF7F36018046FF7F751077
:1005D00095019102C00974A1028506092215012521
:1005E0002835014528750895019102097509761588
:1005F00081257F36018046FF7F750895029102C0F4
:10060000050F0977A102850A092215012528350160
:1006100045287508950191020978A1020979097A9E
:10062000097B15012503750895019100C0097C150A
:100630000026FF00350046FF009102C00990A1028C
:10064000850B0922150125283501452875089501D6
:100650009102C00996A102850C0997099809990988
:100660009A099B099C15012506750895019100C002
:10067000097DA102850D097E150026FF0035004683
:100680001027750895019102C009ABA102850509E3
:1006900025A1020926092709300931093209330940
:1006A0003409400941094209431501250B3501452B
:1006B0000B75089501B100C00501093B150026FF27
:1006C00001350046FF01750A9501B1027506B101B9
:1006D000C0050F0989A102850609222528150135C3
:1006E00001452875089501B102098BA102098C0901
:1006F0008D098E250315013501450375089501B156
:1007000000C009AC150027FFFF0000350047FFFFC0
:10071000000075109501B100C0097FA1028507098D
:100720008075109501150027FFFF0000350047FF79
:10073000FF0000B102098326FF0046FF00750895FF
:1007400001B10209A909AA75019502150025013513
:10075000004501B10275069501B103C0C0180341FF
:100760000072006400750069006E006F0020004C8C
:10077000004C00430004030904220341007200649A
:1007800000750069006E006F0020004C0065006F6E
:10079000006E006100720064006F00120100020030
:1007A00000004041233680000101020001120100D7
:1007B00002020000404123368000010102000100D6
:1007C000C18081C1C000000000250028002B002E40
:1007D00000310004040404040304050202020204BC
:1007E00003020202020606060606060404020202CC
:1007F0000404040802011040804010204080408022
:1008000008020401804020100201108010204040A6
:10081000200000000200080E0000030401000B008D
:1008200000000000000000000000000000000000C8
:1008300000000000240027002A002D003000DB32D9
:1008400011241FBECFEFDAE0DEBFCDBF11E0A0E084
:10085000B1E0E6E4FEE602C005900D92A83AB107C9
:10086000D9F725E0A8EAB1E001C01D92A63FB20782
:10087000E1F714E0C0E2D4E004C02197FE010E9439
:100880000F37CF31D107C9F70E94A21B0C94213733
:100890000C940000CF92DF92EF92FF926091B3012F
:1008A0007091B401072E000C880B990B0E9439350A
:1008B0006B017C0160918A0370918B0380918C03A2
:1008C00090918D030E9439359B01AC01C701B6019F
:1008D0000E948F34FF90EF90DF90CF9008958C307E
:1008E000F8F4282F30E093E2899FF0011124EA51B7
:1008F000FE4F90819923A1F090819D7F9083F90113
:10090000E550FC4F958191110BC0E091A901F09148
:10091000AA010084F185E02D099510920B04089539
:100920000895FC01CB012091E80022FFFCCF282F85
:10093000215028F03091F10030833196F9CF24E630
:100940002093E9032BEF2093E80008950F931F9362
:10095000CF93DF93DB01A40FB51FFB016EEFEA1706
:10096000FB0791F187FF02C0249101C02081009113
:10097000ED031091EE03C091EB03D091EC030C1743
:100980001D07B4F49091E8009570E1F39091E800B0
:1009900092FD1CC02093F1002091ED033091EE03F5
:1009A0002F5F3F4F2F733327232B11F46093E80001
:1009B0002091ED033091EE032F5F3F4F3093EE0314
:1009C0002093ED033196CBCFCA0102C08FEF9FEF8A
:1009D000DF91CF911F910F910895CF93DF9300D0B6
:1009E00000D01F92CDB7DEB7FC0181819081913A92
:1009F00029F5813009F0BCC08281863051F445E090
:100A000050E066EF73E080E40E94A6041092F603C3
:100A1000AFC0873009F0ACC089838FEF9FEF9B8315
:100A20008A838BE08C8383E08D8345E050E0BE01B8
:100A30006F5F7F4F80E40E94A6049AC0913209F054
:100A400097C0893009F094C08281853009F090C048
:100A500064E070E0CE0101960E94910486E08093EC
:100A6000F60380910F018B3021F1A0910F0181E0FD
:100A70008A0F80930F0193E2E0910F019E9FF00196
:100A80001124EA51FE4F8081882351F080910F019B
:100A90008B3030F480910F018F5F80930F01ECCF8A
:100AA00083E2A89FF0011124EA51FE4F81E0808388
:100AB00001C0A0E0A093F703A11104C082E08093DD
:100AC000F80350C01092DB0581E08093F8038A811F
:100AD00093E2A99FD0011124AA51BE4F11968C9385
:100AE00011978FEF9FEF50969C938E931F9754967C
:100AF0001C921E92539752961C921E9251971396D7
:100B00008C93139714968C93149756961C921E925E
:100B100055971E961C921E921D9716961C9216971C
:100B20008FEF9FE71A969C938E93199758961C9275
:100B30001E9257975C961C921E925B975D961C9234
:100B40005D9788EE93E01C969C938E931B97E091A3
:100B5000A901F091AA010684F785E02DBD01CE011F
:100B6000019609958FEF9FEF9093FA038093F90315
:100B700081E00F900F900F900F900F90DF91CF9129
:100B8000089542E450E06AE172E080E80E94A60421
:100B900040E250E06CE572E080E80E94A60483E049
:100BA00090E00895EF92FF921F93CF93DF93EC01B3
:100BB000162FE881F9810480F581E02D09957C01EB
:100BC000E881F9810680F781E02D612FCE0109953A
:100BD000C7019927DF91CF911F91FF90EF90089562
:100BE000FC0191818081813A29F49D7F81E09130DF
:100BF00091F414C0813279F49A3049F09B3019F0A5
:100C0000993049F40AC0828180930E0106C0828126
:100C100080930D0102C080E0089581E008958C303A
:100C2000F0F493E2899FF0011124EA51FE4F808194
:100C30008823A9F080818260808380910B048111D8
:100C40000EC00E944C1B6093B6017093B701809355
:100C5000B8019093B90181E080930B040895089541
:100C6000CF92DF92EF92FF920F931F938B019C0123
:100C70004091AE015091AF016A01E12CF12C662741
:100C80007727CB016C197D098E099F090617170775
:100C9000280739074CF0C901B801C016D106E20691
:100CA000F30614F4C701B6011F910F91FF90EF9066
:100CB000DF90CF9008958F929F92AF92BF92CF9284
:100CC000DF92EF92FF92CF93DF934B015C01EA0139
:100CD0000E944A046B017C01DE01A50194010E947F
:100CE000DF330E943935A70196010E942D3620E09E
:100CF00030E040E051E40E942D3620E030E040E258
:100D000051E40E942D3620E030E040E85BE30E9491
:100D10002D360E9401350E94300690958095709581
:100D200061957F4F8F4F9F4FDF91CF91FF90EF9055
:100D3000DF90CF90BF90AF909F908F9008954F928B
:100D40005F926F927F928F929F92AF92BF92CF925B
:100D5000DF92EF92FF92CF93DF9300D000D0CDB718
:100D6000DEB74B015C0157FF02C04D5F5F4F6A0168
:100D7000D594C794D594C7940E944A0469837A8312
:100D80008B839C839B01AC01C501B4010E942D366D
:100D900020E030E040E251E40E942D362B013C017E
:100DA00020E030E040E85FE30E9428360D2C000C84
:100DB000EE08FF0818161CF4C701B60128C020E091
:100DC00030E040E85FEBC301B2010E94853487FF49
:100DD00006C0C701B6010E943006CB011EC0C70184
:100DE000B6010E9439359B01AC01C501B4010E94D6
:100DF0002D3629813A814B815C810E942D3620E07D
:100E000030E040E251E40E942D360E9401350E94FC
:100E1000300688279927861B970B0F900F900F900D
:100E20000F90DF91CF91FF90EF90DF90CF90BF9028
:100E3000AF909F908F907F906F905F904F900895AC
:100E40008F929F92AF92BF92CF92DF92EF92FF92DA
:100E50004B015C01BA01550F880B990B0E94393583
:100E60006B017C0120E030E0A901C501B4010E94C2
:100E70002836A501940118160CF05058C701B60188
:100E80000E942D366B017C010E944A049B01AC013B
:100E9000C701B6010E942D3620E030E040E851E461
:100EA0000E942D3620E030E040E251E40E942D36D1
:100EB00020E030E040E05DE30E942D360E940135E5
:100EC0000E9430066B017C0120E030E0A901C501E1
:100ED000B4010E94283618162CF4882799278C19FB
:100EE0009D090DC020E030E0A901C501B4010E94B8
:100EF000853487FF02C0C60102C080E090E0FF9009
:100F0000EF90DF90CF90BF90AF909F908F9008951B
:100F1000CF92DF92EF92FF92CF93DF936B017C0130
:100F2000EA0120E030E0A9010E942836181694F06A
:100F300020E030E0A901C701B6010E94853487FF97
:100F40003AC020E030E0A901C701B6010E9419347F
:100F50006B017C01BE01DD0F880B990B0E943935B6
:100F60009B01AC01C701B6010E942D366B017C01CB
:100F70000E944A049B01AC01C701B6010E942D36B4
:100F800020E030E040E851E40E942D3620E030E0DF
:100F900040E251E40E942D3620E030E040E05BE387
:100FA0000E942D360E9401350E943006882799271D
:100FB000861B970B02C080E090E0DF91CF91FF90FD
:100FC000EF90DF90CF9008951F920F920FB60F927F
:100FD00011248F9381E080938E038F910F900FBE29
:100FE0000F901F9018951F920F920FB60F92112419
:100FF0008F9381E080938E038F910F900FBE0F909F
:101000001F9018951F920F920FB60F9211242F93D5
:101010003F934F935F936F937F938F939F93AF9380
:10102000BF93EF93FF939091F50389B18C70892B57
:1010300090E09C0135952795359527952093F503EC
:101040004091F1035091F2036091F3037091F40326
:10105000FC01E25BFE4F8081082E000C990BAA0B6D
:10106000BB0B840F951FA61FB71F8093F1039093AE
:10107000F203A093F303B093F4038091F003FF9184
:10108000EF91BF91AF919F918F917F916F915F9100
:101090004F913F912F910F900FBE0F901F90189579
:1010A000CF92DF92EF92FF920F931F93CF93DF9334
:1010B0001F92CDB7DEB7F82EE42E8B01C82ED92EA5
:1010C0008C2D8F198E1588F4F80161918F01C6015E
:1010D00069830E949F336981681719F0C6010E94D5
:1010E000A733FFEFCF1ADF0AEBCF0F90DF91CF913D
:1010F0001F910F91FF90EF90DF90CF900895CF92C6
:10110000DF92EF92FF920F931F93CF93DF931F9283
:10111000CDB7DEB78B016B017C01E61AF70A9C2D77
:10112000901B941758F4C7018C0D9D1D49830E9494
:101130009F33F60181936F014981F1CF0F90DF91C9
:10114000CF911F910F91FF90EF90DF90CF90089576
:101150008F929F92AF92BF92CF92DF92EF92FF92C7
:1011600040E050E020E0682F70E0812C912C540189
:101170008394FA013296DB0102C0B595A795EA95F2
:10118000E2F775016401042E04C0CC0CDD1CEE1CDA
:10119000FF1C0A94D2F7A0FF02C02C2902C0C09401
:1011A0002C214F5F5F4F4430510519F730E0220F7B
:1011B000331FF901EC5CFE4F80FF05C080819181F7
:1011C0009695879502C080819181FF90EF90DF9086
:1011D000CF90BF90AF909F908F9008951F920F92E5
:1011E0000FB60F921124EF92FF921F932F933F930C
:1011F0004F935F936F937F938F939F93AF93BF931F
:10120000EF93FF93CF93DF93CDB7DEB76197DEBF48
:10121000CDBF1092E9008091E80083FF59C1FE0123
:101220003A96CF0128E02E0F2E1729F03091F100C9
:1012300030833196F9CF24E62093E90322EF2093FF
:10124000E8002A8527FF05C03091E80030FFFCCF79
:1012500003C03EEF3093E800322F307609F0C5C06E
:101260008B85811105C01092F1001092F10029C107
:10127000982F9D7F913009F424C1853049F48091E5
:10128000E80080FFFCCF8C8580688093E30019C163
:10129000863009F07CC01D85E888F9881092E90045
:1012A0001092EE031092ED03123091F51092EC03C0
:1012B0001092EB030E94C10599E0BE016F5F7F4F62
:1012C000FB01292F11922A95E9F799831A8391E05E
:1012D0009E8390E898879AEF99872091ED0330914B
:1012E000EE03275F3F4F3C832B838D831092E900F1
:1012F0001092EE031092ED03F092EC03E092EB03F8
:1013000049E050E080E00E94A6040E94C105D9C0D7
:10131000F092EC03E092EB03123259F441EE54E008
:101320006CE772E080E80E94A604892B09F0C9C02E
:10133000CCC0113069F488899989089711F4109309
:10134000EA038091EA03811111C06BE977E016C0CE
:10135000133009F0BAC08C85882359F0823061F0CF
:10136000813009F0B2C06DE577E008C06DEA77E042
:1013700005C065E777E002C069E777E061157105B0
:1013800009F4A3C0FB01449150E080E849C08730D4
:1013900009F49BC0883021F481E08093F10091C072
:1013A000893009F08EC0237009F08FC080E090E092
:1013B00031E026E341E0480F4093E9003093EB0031
:1013C0000196FC01E154F84FE491E093EC00209386
:1013D000ED008530910571F78EE78093EA00109259
:1013E000EA008C858093A8016CC028893989109205
:1013F000E9001092EE031092ED033093EC0320937A
:10140000EB032E85211154C08B859A85913A59F4AE
:10141000813209F05AC047E050E060E171E080E0BD
:101420000E94A6044EC0913209F04FC0803239F4B8
:1014300067E070E080E191E00E94910442C0823256
:1014400009F043C08C858093170180911001909121
:101450001101A0911201B0911301803B9440A105AC
:10146000B10579F58091170180FD11C087E797E7F5
:1014700090930108809300089BE088E10FB6F894F0
:10148000A895809360000FBE909360001AC00FB6BD
:10149000F894A89580916000886180936000109214
:1014A00060000FBEA895109201081092000809C0B4
:1014B000223059F4E091DC05F091DD05099588238F
:1014C00021F08EEF8093E80003C081E28093EB006F
:1014D00061960FB6F894DEBF0FBECDBFDF91CF91FE
:1014E000FF91EF91BF91AF919F918F917F916F91FC
:1014F0005F914F913F912F911F91FF90EF900F902F
:101500000FBE0F901F9018958F929F92AF92BF922F
:10151000CF92DF92EF92FF920F931F93CF93DF93BF
:1015200000D01F92CDB7DEB7382F8B018091A80174
:10153000882389F04A018AEFF82E832F8770E82EDE
:1015400090E4C92E832F8072B82E2AE3D22E832FE7
:101550008074A82E21C08FEF9FEF5FC08FB7F894E3
:10156000E092E9009091E80095FF1AC09091F20096
:101570002C2D291B8FBF211115C0FA94FF2059F380
:1015800061E070E080E090E039834A835B830E94F1
:10159000261B39814A815B8181149104F9F634C09C
:1015A00020E0E8CF822F90E0881699060CF4282DD1
:1015B000822F90E0881A990A6FB7F894E092E900B8
:1015C000BB2029F02150A8F01092F100FBCFF801C8
:1015D00037FF07C0215058F074917093F100319695
:1015E000F9CF215020F071917093F100FACF080FDC
:1015F000191F8091E80085FF0DC08114910411F43A
:10160000A11008C06FBFC8CF5D9884E68093EF0338
:10161000CA0103C0D092E800F5CF0F900F900F9051
:10162000DF91CF911F910F91FF90EF90DF90CF90BE
:10163000BF90AF909F908F9008959091A8019923AB
:1016400011F057FF03C08FEF9FEF08952FB7F89465
:1016500087708093E9008091F20090E084179507ED
:101660000CF4AC01842FFB0194E6815030F0909390
:10167000E9033091F1003193F8CF4115510521F084
:101680008091F200882319F02FBFCA0108958BE6DC
:101690008093E800F9CF1F920F920FB60F9211249A
:1016A0002F933F934F935F936F937F938F939F936A
:1016B000AF93BF93EF93FF93CF93DF93CDB7DEB795
:1016C000C054D109DEBFCDBF8091E1001092E1008E
:1016D00083FF0FC01092E90091E09093EB0010920D
:1016E000EC0092E39093ED001092A80198E09093A3
:1016F000F00082FF46C083E08093E9008091F20011
:10170000882319F08AE38093E8009FB7F89482E079
:101710008093E9008091F2009FBF882321F083E14C
:1017200095E00E944E109FB7F89485E08093E90001
:101730008091F2009FBF8823C1F08091DE059091D7
:10174000DF05892B91F040E450E0BE016F5F7F4FD1
:1017500085E00E941D0B97FD08C0E091DE05F09129
:10176000DF05BC01CE01019609958091EF03882326
:1017700041F08091EF0381508093EF03811101C00C
:101780005D9AC05CDF4F0FB6F894DEBF0FBECDBFD1
:10179000DF91CF91FF91EF91BF91AF919F918F9189
:1017A0007F916F915F914F913F912F910F900FBE5D
:1017B0000F901F901895EF92FF920F931F93CF9366
:1017C000DF931F92CDB7DEB789838B017A0141E0A9
:1017D00050E0BE016F5F7F4F84E00E94840AA70142
:1017E000B80184E40E94840A0F90DF91CF911F9189
:1017F0000F91FF90EF9008951F93CF93DF93DC013B
:1018000011961C9111979C91953009F467C060F571
:10181000923009F443C0A8F4913009F04DC1E09131
:10182000A901F091AA0123E2129FB00111246A518B
:101830007E4F028CF38DE02DCD01DF91CF911F9172
:1018400009949330C9F1943009F036C1E091A901AF
:10185000F091AA0123E2129FB00111246A517E4F38
:101860000488F589E02D35C09B3009F49DC038F41B
:10187000963009F441C09A3009F44CC01DC19C3027
:1018800009F4CBC0913F09F017C140E450E0BD011D
:1018900082EFDF91CF911F910C94DB0BE091A901B6
:1018A000F091AA0133E2139FB00111246A517E4FD7
:1018B0000088F189E02D0DC0E091A901F091AA0105
:1018C00083E2189FB00111246A517E4F0288F38988
:1018D000E02DCD01DF91CF911F910994E091A901F5
:1018E000F091AA0133E2139FB00111246A517E4F97
:1018F0000688F789E02DEDCFE091A901F091AA01CA
:1019000083E2189FB00111246A517E4F008CF18D43
:10191000E02DDFCF1F3F09F41FE712969C91913015
:1019200099F4812F0E940F06E12FF0E0E550FC4F63
:1019300085818111C1C0E091A901F091AA010680C1
:10194000F781E02D812F47C0923029F5C1E08C2F1F
:101950000E946F04CF5FCC30D1F7C12FD0E0C550CB
:10196000DC4F8D81811109C0E091A901F091AA019C
:101970000084F185E02D8FE70995812F0E940F06E5
:101980008D81811199C0E091A901F091AA01068091
:10199000F781E02D1FC0933009F08EC0812FDF91B9
:1019A000CF911F910C946F0481E01F3FC1F480938D
:1019B0000F0184EA91E0E6EEF1E0DF019C011D9267
:1019C00021503040E1F7E091A901F091AA01028491
:1019D000F385E02D8FE7DF91CF911F9109948093DC
:1019E000DB051C3008F068C033E2139FF0011124BE
:1019F000EA51FE4F108280910F01181710F41093D6
:101A00000F01E091A901F091AA010284F385E02D74
:101A1000812F099510920B044FC082E080930C0433
:101A200090910D04946090930D0490910D04906139
:101A300090930D0410920E041330B1F040F4113065
:101A400079F01230C9F580910D04826033C01530F1
:101A500071F1B0F0163081F580910D048E7F2AC0AF
:101A600080910D048D7F26C0E091A901F091AA011B
:101A70000480F581E02D80E0099510920E041CC0D1
:101A8000E091A901F091AA010480F581E02D81E0A7
:101A9000099581E080930F0184EA91E0E6EEF1E0A0
:101AA000DF019C011D9221503040E1F705C080917B
:101AB0000D04816080930D04DF91CF911F910895F3
:101AC000DC01683810F0685825C0E62FF0E067FFA9
:101AD00012C0E058F10981E090E001C0880FEA955A
:101AE000EAF7809514969C911497892314968C9309
:101AF000149760E00FC0E656FE4F6491662311F123
:101B000067FF08C014968C9114978D7F14968C9360
:101B100014976F77FD01369686E0662321F0908159
:101B2000961301C01082815031968111F6CFBD010C
:101B30006C5F7F4F48E050E082E00E94DB0B81E069
:101B400090E0089580E090E00895FC0116821782ED
:101B500010861186128613861482BC016C5F7F4F3B
:101B600048E050E082E00C94DB0BDC01683810F0B8
:101B700068582DC0E62FF0E067FF11C0E058F1096A
:101B800081E090E001C0880FEA95EAF714969C91F5
:101B90001497892B14968C93149760E018C0E6561E
:101BA000FE4F6491611109C081E090E013969C930F
:101BB0008E93129780E090E0089567FF08C0149616
:101BC0008C911497826014968C9314976F77169665
:101BD0008C911697861751F117968C911797861747
:101BE00029F118968C911897861701F119968C9106
:101BF00019978617D9F01A968C911A978617B1F013
:101C00001B968C911B97861789F0FD01369680E014
:101C100090E02191211105C0FD01E80FF91F6683B5
:101C200005C0019686309105A1F7BECFBD016C5F5E
:101C30007F4F48E050E082E00E94DB0B81E090E0C3
:101C40000895CF92DF92EF92FF920F931F93CF935D
:101C5000DF936C01EB017B01E40EF51E00E010E068
:101C6000CE15DF0561F06991D601ED91FC910190EF
:101C7000F081E02DC6010995080F191FF1CFC801A9
:101C8000DF91CF911F910F91FF90EF90DF90CF9058
:101C9000089583E08093E9008091F200882319F091
:101CA0008AE38093E80008952091C2043091C30430
:101CB0008091C4049091C50428173907A9F0E091D8
:101CC000C404F091C504EE57FB4F80812091C404F9
:101CD0003091C5042F5F3F4F2F7333273093C504D6
:101CE0002093C40490E008958FEF9FEF0895209112
:101CF000C2043091C3048091C4049091C504281794
:101D0000390749F0E091C404F091C504EE57FB4F48
:101D1000808190E008958FEF9FEF08958091C20435
:101D20009091C3042091C4043091C504821B930B8D
:101D30008F739927089585ED8093BC008091BC0036
:101D400084FDFCCF10921205089540915D04262F6A
:101D500030E0240F311D21323105DCF420911205D1
:101D60002430C9F4FC0180E090E0861758F43091EB
:101D70005D042191DC01A55CBB4FA30FB11D2C9329
:101D80000196F3CF80915D04680F60935D0480E05D
:101D9000089581E0089582E008950895E091C704D0
:101DA0008091C604E81730F4F0E0E453FB4F8081E3
:101DB00090E008958FEF9FEF08959091C704809170
:101DC000C604981750F4E92FF0E0E453FB4F20814C
:101DD00030E09F5F9093C70402C02FEF3FEFC9012F
:101DE00008958091C60490E02091C704821B910958
:101DF0000895CF92DF92EF92FF920F931F93CF93AC
:101E0000DF937C01262F972F8A018091CB048823B2
:101E100091F0C62FD72F6E01C40ED51ECC15DD054F
:101E200071F06991D701ED91FC910190F081E02D65
:101E3000C7010995F3CF642F822F0E94A50EC80118
:101E4000DF91CF911F910F91FF90EF90DF90CF9096
:101E50000895CF93DF931F92CDB7DEB769832091AA
:101E6000CB042223D1F02091C804203240F021E09D
:101E700030E0FC013383228380E090E015C0809144
:101E8000C904E82FF0E0E55EFB4F998190838F5FF6
:101E90008093C9048093C80405C061E0CE01019617
:101EA0000E94A50E81E090E00F90DF91CF91089500
:101EB0000895CF93DF93FC01EB01718182818983C7
:101EC000878190859A8789872585368543815481C6
:101ED00063E2769FC00111248A519E4FDC01509627
:101EE0005C934E931F9756963C932E93559764E0C0
:101EF000769FD0011124AA54BE4F1D921D921D92AF
:101F00001C921397838594859E878D8782858E8307
:101F100081E0DF91CF910895FC012281FB012783AD
:101F2000FC018381FB0180870895FC0182819381FC
:101F3000FB01908F878B0895DC01FB0112968D9138
:101F40009C911397908F878B14968D919C911597E8
:101F5000948F838F16968C911697858F17968D91F7
:101F60009C911897948783870895DC01FB01129652
:101F70008C91129782838281811110C015968D9168
:101F80009C911697908F878B13968D919C911497A7
:101F9000948F838F17968C918583089582818130E9
:101FA00079F415968D919C91169790A3878F13962F
:101FB0008D919C91149792A381A317968C91868FF3
:101FC0000895DC01FB0112968C911297838313967E
:101FD0008C911397848314968D919C911597948B73
:101FE000838B16968D919C911797928B818B089578
:101FF00093E2899FF0011124EA51FE4F708B6787AD
:10200000568B458B94E0899FF0011124EA54FE4FD2
:1020100010821182128213820895089508951092F9
:10202000DB0524E0829FC0011124FC01EA54FE4F2D
:102030001082118212821382089525E0FC01208310
:102040008EE591E0089508958093DB0508950E9440
:102050001C370F931F93CF93DF931F92CDB7DEB73B
:102060008C01698380911701882359F041E050E089
:10207000BE016F5F7F4F83E00E94840A1816190625
:102080003CF081E090E0F8019383828380E090E06F
:102090000F90DF91CF911F910F9108950F931F9390
:1020A000CF93DF931F92CDB7DEB70091C20410919A
:1020B000C3040F5F1F4F0F7311278091C4049091C9
:1020C000C50408171907F9F041E050E0BE016F5F41
:1020D0007F4F82E00E941D0B019719F4898190E0E7
:1020E00002C08FEF9FEF8F3F2FEF920761F0E091DB
:1020F000C204F091C304EE57FB4F80831093C304D6
:102100000093C204D2CF0F90DF91CF911F910F9116
:1021100008951F920F920FB60F9211242F933F93A1
:102120004F935F936F937F938F939F93AF93BF93DF
:10213000EF93FF938091B900887F803609F49CC0AB
:1021400068F5883209F45BC090F4803109F454C01A
:1021500038F4882309F4F6C0883009F44DC0F6C07D
:10216000883109F44CC0803209F45DC0EFC080347E
:1021700009F468C048F4803309F455C0883309F085
:10218000E5C080931005D8C0803509F44FC088356C
:1021900009F45DC0883409F0D9C0D6C0883909F483
:1021A000C7C0A8F4883709F467C038F4883609F442
:1021B00063C0803709F460C0C9C0883809F4B8C06A
:1021C000803909F45FC0803809F0C0C05BC0803B33
:1021D00009F486C038F4803A09F466C0883A09F4F4
:1021E0007FC0B4C0803C09F4A7C0883C09F4A4C0F7
:1021F000883B09F48AC0AAC080910D0510C0909157
:102200000F0580910E05981770F5E0910F0581E09C
:102210008E0F80930F05F0E0E451FB4F8081809397
:10222000BB0085EC86C0809310058EC0E0910F0541
:1022300081E08E0F80930F058091BB00F0E0E451A8
:10224000FB4F808390910F0580910E056EC0E09149
:102250000F0581E08E0F80930F058091BB00F0E0A9
:10226000E451FB4F80838091110581116DC081E0A5
:1022700080930C0584EA61C083E08093120510927C
:102280008104CFCF80918104803208F051C0E09169
:10229000810481E08E0F809381048091BB00F0E087
:1022A000EF59FB4F8083BDCF85EC8093BC0010922B
:1022B000120580918104803230F4E0918104F0E0D5
:1022C000EF59FB4F10826091810470E0E0915F0450
:1022D000F091600481E694E009951092810436C083
:1022E00084E08093120510925E0410925D04E091E8
:1022F0005B04F0915C04099580915D04811105C037
:1023000081E080935D0410923B04E0915E0481E0E3
:102310008E0F80935E04F0E0E55CFB4F808180933C
:10232000BB0090915E0480915D04981708F479CF0A
:1023300085E88093BC000AC085EC8093BC001092B5
:10234000120504C0109210050E949B0EFF91EF91A0
:10235000BF91AF919F918F917F916F915F914F91BD
:102360003F912F910F900FBE0F901F9018952091C5
:10237000C8049091CA04213208F049C08091120526
:102380008111FCCF32E030931205609311053FEFCD
:102390003093100510920F0520930E05ABE1B4E0C9
:1023A0004CEE54E0FA013E2F341B321718F43D91E5
:1023B0003193F9CF10920D0520910D05990F922BB5
:1023C00090930D0590910C05913061F410920C05DD
:1023D00090910D059093BB009091BC0093FDF8CFB8
:1023E00095EC01C095EE9093BC009091120592304F
:1023F000E1F3909110059F3F79F0809110058032B4
:1024000041F080911005803331F084E005C081E017
:1024100003C082E001C083E01092C9041092C80496
:102420001092CB0408952091AB013091AC01281794
:10243000390708F4C9019093990080939800089592
:102440002091AB013091AC012817390708F4C9017C
:1024500090938D0080938C0008952091AB01309172
:10246000AC012817390708F4C90190938B008093B9
:102470008A0008952091AB013091AC0128173907EB
:1024800008F4C901909389008093880008954F92C1
:102490005F926F927F928F929F92AF92BF92CF92F4
:1024A000DF92EF92FF920F931F93CF93DF93CDB7FD
:1024B000DEB72C970FB6F894DEBF0FBECDBF0097E6
:1024C00009F4AAC38C016091B50170E080E090E04E
:1024D0000E9439352AE037ED43E25CE30E942D3655
:1024E00069837A838B839C83F80180809180A280AA
:1024F000B380B7FE08C0B094A09490948094811CDF
:10250000911CA11CB11CC501B4010E9439356B019D
:102510007C016091AE017091AF0180E090E00E947B
:1025200037352B013C0126E636E646E65FE30E949E
:102530002D3629813A814B815C810E942D366D8335
:102540007E838F8398879B01AC01C701B6010E94EF
:10255000283687FDCBC0A301920169817A818B81E6
:102560009C810E942D3669877A878B879C8720E023
:1025700030E040E85FE30E9418349B01AC01C701E2
:10258000B6010E94853487FFB1C06D817E818F8145
:1025900098850E9401356B017C01A5019401261BE1
:1025A000370B480B590BAEE3B0E00E94D4334B011C
:1025B0005C0169857A858B859C850E9401359B012C
:1025C000AC012C193D094E095F09C501B4010E94F7
:1025D000B53349015A01FFEF8F1A9F0AAF0ABF0AAC
:1025E000740161E08DE00E94C51A8114910411F418
:1025F00060E005C08FEF8816910429F461E08DE05A
:102600000E94661A8AC0EEE1F8E0E4918E2F90E015
:10261000FC013197EE30F10508F062C0EE55FF4F36
:102620000C940F3784B5806884BD87BC76C084B5B0
:10263000806284BD88BC71C0809180008068809376
:102640008000909289008092880067C0809180000D
:1026500080628093800090928B0080928A005DC09F
:102660008091900080688093900090929900809271
:10267000980053C080919000806280939000909267
:102680009B0080929A0049C080919000886080935E
:10269000900090929D0080929C003FC08091C0006D
:1026A00080688093C0008091C0008F7B8093C000C1
:1026B0008092CF0032C08091C00080628093C000C1
:1026C0008092D0002AC08091C20088608093C200AE
:1026D0008091C2008B7F8093C2008092D2001DC087
:1026E000E0E8EE16F1040CF089CF82CFA30192014D
:1026F00069817A818B819C810E942D3620E030E0B7
:1027000040E85FE30E9418349B01AC01C701B601A9
:102710000E94283687FD6CCF71CF6091B00170E0C8
:1027200060587109072E000C880B990B0E943935EF
:1027300020E030E04FE753E40E948F346B017C01CE
:1027400060931704709318048093190490931A04EB
:1027500020E030E0A9010E94283687FD1DC0A701B6
:10276000960160E070E080E89FE30E941834609377
:10277000130470931404809315049093160480E05E
:1027800090E0A0E8BFE380930F0490931004A0931F
:102790001104B093120423C020E030E0A901C70166
:1027A000B6010E94853487FF1AC080E090E0A0E85F
:1027B000BFE38093130490931404A0931504B09383
:1027C00016049C01AD01C701B6010E941934609343
:1027D0000F0470931004809311049093120490914D
:1027E000AD01892F807491FD6AC1F80180809180CC
:1027F000A280B3808111CFC0181419041A041B04DD
:102800005CF5C090B101D090B201E12CF12C409068
:10281000AE015090AF01612C712CC301B2016C1953
:102820007D098E099F09A50194010E94EB36A30141
:1028300092010E94B533C20ED31EE41EF51EF801AC
:10284000C082D182E282F38280E090E00E943A125C
:10285000F8018081918131C081149104A104B104F7
:1028600031F1C090B101D090B201E12CF12C409037
:10287000AE015090AF01612C712CA7019601241973
:10288000350946095709C501B4010E94EB36A30179
:1028900092010E94B533DA01C9018C0D9D1DAE1D58
:1028A000BF1DF80180839183A283B38302C080E0BF
:1028B00090E00E943A1280E090E00E942D12F80110
:1028C00064817581868197818090AE019090AF017F
:1028D000C090B101D090B20197FD25C02601612CB6
:1028E000712CA12CB12C75016401C418D508E6081F
:1028F000F7089B01AC01C701B6010E94EB36A501A8
:1029000094010E94B533DA01C901840D951DA61DFD
:10291000B71DF80184839583A683B7830E94201294
:1029200080E090E020C0E12CF12CA12CB12CA7017B
:102930009601281939094A095B090E94EB36A5015D
:1029400094010E94B533C20ED31EE41EF51EF80199
:10295000C482D582E682F78280E090E00E94201255
:10296000F801848195812C960FB6F894DEBF0FBED6
:10297000CDBFDF91CF911F910F91FF90EF90DF902E
:10298000CF90BF90AF909F908F907F906F905F900F
:102990004F900C941312E091AE01F091AF01181416
:1029A00019041A041B04E4F46F01D694C7948091AF
:1029B000B1019091B2018C0D9D1D6C01E12CF12CA7
:1029C0002F01612C712CC301B2016C197D098E0994
:1029D0009F09A50194010E94EB36A30192011AC040
:1029E000CF019695879581149104A104B104F9F063
:1029F0002091B1013091B201821B930B6C01E12C4B
:102A0000F12CA7019601C501B4010E94EB369F018C
:102A100040E050E00E94B533DA01C9018C0D9D1DE4
:102A2000AE1DBF1DF80180839183A283B3830E94F2
:102A30003A12F80184809580A680B780E091AE01BB
:102A4000F091AF01181419041A041B04E4F46F0187
:102A5000D694C7948091B1019091B2018C0D9D1DC7
:102A60006C01E12CF12C2F01612C712CC301B201FE
:102A70006C197D098E099F09A50194010E94EB360E
:102A8000A30192018BC0CF01969587958114910483
:102A9000A104B10409F4A8C02091B1013091B201A0
:102AA000821B930B6C01E12CF12CA7019601C5014F
:102AB000B4010E94EB369F0140E050E06FC08111ED
:102AC0007BC0F80180819181A281B381B7FD02C0F2
:102AD0002F9A01C02F988091B1019091B2016C01A1
:102AE000E12CF12C8090AE019090AF01A12CB12C83
:102AF000F801208131814281538157FF07C05095F1
:102B00004095309521953F4F4F4F5F4FC501B40120
:102B10006C197D098E099F090E94EB36A50194016D
:102B20000E94B533DA01C9018C0D9D1DAE1DBF1D7C
:102B3000F80180839183A283B3830E943A12F80143
:102B400084819581A681B781B7FD02C0469A01C0F4
:102B500046988091B1019091B2016C01E12CF12C69
:102B60008090AE019090AF01A12CB12CF80124818E
:102B700035814681578157FF07C050954095309564
:102B800021953F4F4F4F5F4FC501B4016C197D092F
:102B90008E099F090E94EB36A50194010E94B5336E
:102BA000DA01C9018C0D9D1DAE1DBF1DF801848386
:102BB0009583A683B78318C06091040170910501C5
:102BC00080910601909107010E940835CB010E9477
:102BD0003A12609104017091050180910601909173
:102BE00007010E940835CB012C960FB6F894DEBF82
:102BF0000FBECDBFDF91CF911F910F91FF90EF904E
:102C0000DF90CF90BF90AF909F908F907F906F900C
:102C10005F904F900C942D122C960FB6F894DEBF57
:102C20000FBECDBFDF91CF911F910F91FF90EF901D
:102C3000DF90CF90BF90AF909F908F907F906F90DC
:102C40005F904F9008956091AB017091AC0180E06E
:102C500090E00E9437359B01AC0160E07EEF8FEF82
:102C600096E40E948F3408952F923F924F925F9284
:102C70006F927F928F929F92AF92BF92CF92DF928C
:102C8000EF92FF920F931F93CF93DF93CDB7DEB7F1
:102C900029970FB6F894DEBF0FBECDBF99878887FE
:102CA0004B012B831D830C831701DF82CE82042FFF
:102CB00010E08C819D816C01E12CF12CE885F98577
:102CC000F7FD2BC0C8019695982F88279795879573
:102CD000BF01681B790B072E000C880B990B0E9413
:102CE00039352B013C01C701B6010E9437359B01E4
:102CF000AC01C301B2010E948F342B013C01C80119
:102D00009695982F8827979587959A838983EB8145
:102D100090E8E99FB00111242AC0B8017695762F7A
:102D2000662777956795E885F9856E0F7F1F072ED3
:102D3000000C880B990B0E9439352B013C01C7010F
:102D4000B6010E9437359B01AC01C301B2010E945C
:102D50008F342B013C0160E86003C001619F900D3E
:102D600011249A8389832B816203B0011124888501
:102D70009985681B790B072E000C880B990B0E9414
:102D800039356B017C01B10180E090E00E9437355C
:102D90009B01AC01C701B6010E948F346B017C011D
:102DA0008A149B0408F43FC08E819F818A0D9B1D6D
:102DB00088169906C0F50C811D810A0D1B1D801611
:102DC000910690F4B4016A197B0980E090E00E94BA
:102DD00037359B01AC01C301B2010E942D360E9420
:102DE000013589819A811CC082199309881599053A
:102DF000E8F48A189B08EE81FF818E1A9F0AB401BD
:102E0000620D731D80E090E00E9437359B01AC019C
:102E1000C701B6010E942D360E940135888599852B
:102E2000860F971F05C080E090E002C088859985D5
:102E300029960FB6F894DEBF0FBECDBFDF91CF91BC
:102E40001F910F91FF90EF90DF90CF90BF90AF90C8
:102E50009F908F907F906F905F904F903F902F90BA
:102E60000895909112059111FCCF91E09093120575
:102E7000909311052FEF2093100510920F05260F48
:102E800020930E0590930D0590910D05880F892BC9
:102E900080930D0580910C05813061F410920C0532
:102EA00080910D058093BB008091BC0083FDF8CF1D
:102EB00085EC01C085EE8093BC00809112058130C5
:102EC000E1F380910F05861710F460910F05ACEEC9
:102ED000B4E02CEC34E0F9018E2F821B861718F435
:102EE0008D918193F9CF862F0895009769F0FC01A9
:102EF00001900020E9F73197AF01481B590BBC0145
:102F000083E195E00C94210E80E090E00895CF934A
:102F1000DF93109231051092300590912D0521E03C
:102F20002093CB049093CA041092C9041092C80451
:102F3000A0913205B0913305ED91FC91119701906C
:102F4000F081E02D682FCD01099561E08091320577
:102F5000909133050E94B711882319F08AE99FEFF9
:102F60000DC062E080912D050E9431171092C704B8
:102F70008093C604823049F089E99FEF9093310530
:102F80008093300580E090E01BC0809132059091E5
:102F90003305DC01ED91FC910680F781E02D099568
:102FA000D82FB0E0CB2F8091320590913305DC0112
:102FB000ED91FC910680F781E02D09958C0F9D1F06
:102FC000DF91CF9108950F931F930E944C1B609344
:102FD0001B0570931C0580931D0590931E05E091C1
:102FE0001305F09114050084F185E02D83E195E04F
:102FF000099597FF1FC00E944C1B00911B05109163
:103000001C0520911D0530911E05DC01CB01801BA4
:10301000910BA20BB30B009117051091180520918D
:10302000190530911A0580179107A207B307B8F266
:103030008FEF9FEF1F910F910895E0911305F0918D
:1030400014050190F081E02D682F83E195E009944B
:10305000CF93DF938DE00E941D18EC018AE00E945F
:103060001D188C0F9D1FDF91CF9108958F929F9215
:10307000AF92BF92EF92FF920F931F93CF93DF9384
:10308000CDB7DEB7A1970FB6F894DEBF0FBECDBFA8
:10309000162F042F19A2423008F40AE07E0121E223
:1030A000E20EF11C802E912CA12CB12C612FA501D8
:1030B00094010E94E733029F1019112481E0E81A5D
:1030C000F1081A3014F4105D01C0195CF701108387
:1030D000122F732FCA01232B242B252B39F7C7015D
:1030E0000E947517A1960FB6F894DEBF0FBECDBF34
:1030F000DF91CF911F910F91FF90EF90BF90AF9014
:103100009F908F900895CF92DF92EF92FF92CF938E
:10311000DF9397FF19C06B017C018DE20E941D189F
:10312000EC0166277727CB016C197D098E099F0971
:103130004AE00E9436188C0F9D1FDF91CF91FF90BF
:10314000EF90DF90CF9008954AE0DF91CF91FF900C
:10315000EF90DF90CF900C9436180C947517CF92A7
:10316000DF92EF92FF926B017C018CE00E94871747
:10317000EDE2F5E09F70948B838B67857089818980
:103180009289C786D08AE18AF28AFF90EF90DF9019
:10319000CF900895CF931092310510923005809111
:1031A0002D0591E09093CB048093CA041092C9043A
:1031B0001092C8048091320590913305DC01ED91A5
:1031C000FC910190F081E02D67E0099561E080912C
:1031D0003205909133050E94B711C82F882341F022
:1031E0008CE99FEF9093310580933005C0E01EC0BD
:1031F00061E080912D050E9431171092C7048093E1
:10320000C604813039F08BE99FEF909331058093AC
:1032100030050CC08091320590913305DC01ED91B1
:10322000FC910680F781E02D0995C82F8C2FCF9156
:103230000895CF93C82F10923105109230058091D8
:103240002D0591E09093CB048093CA041092C90499
:103250001092C8048091320590913305DC01ED9104
:10326000FC910190F081E02D67E009958091320595
:1032700090913305DC01ED91FC910190F081E02DFE
:103280006C2F099561E080913205909133050E9481
:10329000B711882331F088E39FEF90933105809335
:1032A000300580913005CF910895CF93DF93BC0115
:1032B000990F880B990B0E948318EC010E94281823
:1032C0008C0F9D1FDF91CF9108958F929F92AF92A7
:1032D000BF92CF92DF92EF92FF920F931F938EE0F7
:1032E0000E948717209130053091310540913C05AF
:1032F00050913D0560913E0570913F05232B21F0D3
:10330000342F252FCB014FC09F7020914005309165
:1033100041054901032E000CAA08BB086C01092EC7
:10332000000CEE08FF082130E8E03E075CF0F901F0
:10333000F8508E179F0734F4505F6F4F7F4F8A010C
:103340009B010EC08130E8E09E078CF0FC01F85034
:103350002E173F0764F48A019B011051210931099E
:10336000081919092A093B09B901A80104C048191B
:1033700059096A097B094C0D5D1D6E1D7F1D409327
:103380003C0550933D0560933E0570933F05909337
:1033900041058093400530913C0520913D05809189
:1033A0003E0590913F05632F722F1F910F91FF9063
:1033B000EF90DF90CF90BF90AF909F908F90089547
:1033C000BC01990F880B990B0C948318682F70E03F
:1033D00080E090E04AE00C943618FF920F931F9320
:1033E000CF93DF9300D000D0CDB7DEB70E94E317B4
:1033F000FC0197FD11C08D32910591F0C0970A979D
:1034000078F0E0911305F09114050680F781E02D26
:1034100083E195E00995EACF60E070E0CB014CC014
:1034200020E030E0A901F12CE130F105F1F0ED32BE
:10343000F105C9F0CF01C0970A97B8F4AAE0B0E04F
:103440000E94D4338F01FF0F220B330BDC01CB0121
:10345000800F911FA21FB31F9C01AD0120533109A2
:103460004109510902C0FF24F394E0911305F09142
:1034700014050680F781E02D83E195E029833A83E6
:103480004B835C8309950E94E317FC01C097298157
:103490003A814B815C810A9738F2E130F10521F2E3
:1034A000FF2041F066277727CB01621B730B840B4B
:1034B000950B02C0CA01B9010F900F900F900F90A9
:1034C000DF91CF911F910F91FF900895362F90E0DB
:1034D000FC01EF5EF74F4491FC01EE50F84F249150
:1034E000FC01ED52F84F8491882309F44DC0442328
:1034F000C1F150E0FA013197EE30F10590F5E05559
:10350000FF4F0C940F37909180009F7703C09091EC
:1035100080009F7D9093800024C094B59F7702C067
:1035200094B59F7D94BD1DC0909190009F7707C07A
:10353000909190009F7D03C090919000977F909311
:1035400090000FC09091C0009F7703C09091C00081
:103550009F7D9093C00005C09091C200977F90938B
:10356000C200E82FF0E0EE0FFF1FEB53F84FA591DC
:10357000B4918FB7F894EC91311103C020952E23AC
:1035800001C02E2B2C938FBF0895CF93DF9390E033
:10359000FC01EE50F84F2491FC01ED52F84F84915C
:1035A000882361F190E0880F991FFC01E05DF74FDF
:1035B000C591D491FC01EB53F84FA591B4916111E1
:1035C00009C09FB7F8948881209582238883EC9165
:1035D0002E230BC0623061F49FB7F8943881822F9C
:1035E000809583238883EC912E2B2C939FBF06C05C
:1035F0008FB7F894E8812E2B28838FBFDF91CF916E
:1036000008953FB7F8948091F2059091F305A09149
:10361000F405B091F50526B5A89B05C02F3F19F01C
:103620000196A11DB11D3FBFBA2FA92F982F882742
:10363000820F911DA11DB11DBC01CD0142E0660F9D
:10364000771F881F991F4A95D1F70895CF92DF926F
:10365000EF92FF92CF93DF936B017C010E94011BDD
:10366000EB01C114D104E104F10479F00E94011BC3
:103670006C1B7D0B683E7340A0F381E0C81AD10833
:10368000E108F108C851DC4FECCFDF91CF91FF90FA
:10369000EF90DF90CF9008952FB7F8946091EE05EA
:1036A0007091EF058091F0059091F1052FBF08957D
:1036B0001F920F920FB60F9211242F933F938F9367
:1036C0009F93AF93BF938091EE059091EF05A091EA
:1036D000F005B091F1053091ED0523E0230F2D3772
:1036E00020F40196A11DB11D05C026E8230F029606
:1036F000A11DB11D2093ED058093EE059093EF057C
:10370000A093F005B093F1058091F2059091F30537
:10371000A091F405B091F5050196A11DB11D80930E
:10372000F2059093F305A093F405B093F505BF91CE
:10373000AF919F918F913F912F910F900FBE0F905E
:103740001F901895CF93DF93CDB7DEB7C454D1093E
:103750000FB6F894DEBF0FBECDBF789484B58260FB
:1037600084BD84B5816084BD85B5826085BD85B525
:10377000816085BD80916E00816080936E001092A3
:10378000810080918100826080938100809181001E
:1037900081608093810080918000816080938000AF
:1037A000809191008260809391008091910081606E
:1037B000809391008091900081608093900080912F
:1037C000C10084608093C1008091C10082608093B9
:1037D000C1008091C10081608093C1008091C300CD
:1037E00081608093C3008091C00082608093C0009C
:1037F0008091C20081608093C20080917A008460D1
:1038000080937A0080917A00826080937A00809120
:103810007A00816080937A0080917A00806880933A
:103820007A001092A80181E08093D70080EA80930B
:10383000D80082E189BD09B400FEFDCF61E070E0EF
:1038400080E090E00E94261B80E98093D8001CE075
:103850001093E2001092E0001092BF031092BE039A
:103860001092C5031092C6031092C7031092C803AA
:103870001092B9031092B8031092CD031092CE03A8
:103880001092CF031092D0031092D5031092D6035A
:103890001092D7031092D8031092D1031092D20342
:1038A0001092D3031092D4031092D9031092DA032A
:1038B0001092DB031092DC0342E0BE01615F7F4F98
:1038C00080E090E00E947F088F8598898A3F91056B
:1038D00009F407C18AEF90E09E878D8742E0BE0120
:1038E000635F7F4F80E090E00E94500819821A8247
:1038F0001B821C8244E0BE016F5F7F4F82E090E03C
:103900000E94500888E394E09E878D8742E0BE01C4
:10391000635F7F4F86E090E00E94500884E6898BC9
:1039200041E0BE016F5E7F4F88E090E00E9450084A
:1039300041E0BE016F5E7F4F8BE090E00E94500837
:1039400041E0BE016F5E7F4F8CE090E00E94500826
:1039500041E0BE016F5E7F4F80E190E00E94500821
:1039600041E0BE016F5E7F4F8DE090E00E94500805
:1039700082E3898B41E0BE016F5E7F4F89E090E07A
:103980000E94500841E0BE016F5E7F4F8AE090E0E8
:103990000E94500841E0BE016F5E7F4F8EE090E0D4
:1039A0000E94500886E4898B41E0BE016F5E7F4F24
:1039B0008FE090E00E9450081E861D8642E0BE0106
:1039C000635F7F4F81E190E00E9450088FEF97E0A6
:1039D0009E878D8742E0BE01635F7F4F83E190E069
:1039E0000E9450088FEF9FE09E878D8742E0BE01C6
:1039F000635F7F4F85E190E00E94500880E8898BEB
:103A000041E0BE016F5E7F4F87E190E00E94500869
:103A100081E0898B41E0BE016F5E7F4F88E190E0DD
:103A20000E94500880E090E1A0E0B0E089839A8392
:103A3000AB83BC8344E0BE016F5F7F4F89E190E0C0
:103A40000E945008198B41E0BE016F5E7F4F8DE1EF
:103A500090E00E9450081E861D8642E0BE01635F12
:103A60007F4F8AE290E00E94500842E0BE01635F0F
:103A70007F4F8EE290E00E94500842E0BE01635FFB
:103A80007F4F82E390E00E94500842E0BE01635FF6
:103A90007F4F86E390E00E9450088FEF93E09E876F
:103AA0008D8742E0BE01635F7F4F8CE290E00E9411
:103AB000500842E0BE01635F7F4F80E390E00E94C8
:103AC000500842E0BE01635F7F4F84E390E00E94B4
:103AD000500842E0BE01635F7F4F88E390E00E94A0
:103AE000500842E063EB71E086E090E00E947F08BE
:103AF00044E068E973E089E190E00E947F0841E0DA
:103B000065EB71E088E090E00E947F0841E06FE99A
:103B100073E089E090E00E947F0841E06DE973E086
:103B20008AE090E00E947F0841E062EA73E08BE067
:103B300090E00E947F0841E061EA73E08CE090E051
:103B40000E947F0841E060EA73E08DE090E00E940F
:103B50007F0841E06EE973E08EE090E00E947F080C
:103B600041E063EA73E08FE090E00E947F0841E06B
:103B70006CE973E080E190E00E947F0841E060EB37
:103B800071E087E190E00E947F0841E064EC73E01F
:103B900088E190E00E947F0842E061EB71E081E102
:103BA00090E00E947F0842E06EEA71E083E190E0DD
:103BB0000E947F0842E062E973E085E190E00E94A4
:103BC0007F0841E06DEA71E08DE190E00E947F089E
:103BD00042E060EC73E08AE290E00E947F0842E0FD
:103BE00062EC73E08CE290E00E947F0842E069ECB6
:103BF00073E08EE290E00E947F0842E06BEC73E09D
:103C000080E390E00E947F0842E06AEB73E082E389
:103C100090E00E947F0842E06CEB73E084E390E068
:103C20000E947F0842E064EB73E086E390E00E942C
:103C30007F0842E066EB73E088E390E00E947F0833
:103C4000609198037091990380919A0390919B03DE
:103C50000E94393520E030E044EB53E40E948F3479
:103C60006B017C018091B3019091B401BC01990F6B
:103C7000880B990B0E9439359B01AC01C701B60135
:103C80000E942D360E94013560938A0370938B0346
:103C900080938C0390938D03DC01CB01B595A795A0
:103CA000979587958093DD039093DE03A093DF03C0
:103CB000B093E00360E082E10E94C51A60E083E116
:103CC0000E94C51A60E084E10E94C51A60E085E1A7
:103CD0000E94C51A62E084E00E94C51A62E086E193
:103CE0000E94C51A62E087E10E94C51A62E08CE07A
:103CF0000E94C51A62E086E00E94C51A62E087E071
:103D00000E94C51A62E088E00E94C51A62E081E064
:103D10000E94C51A80916900806C80936900EB9ABB
:103D200088E191E09093AA018093A9018DEE94E03F
:103D30009093DD058093DC058CEF9BE09093DF058D
:103D40008093DE05279A1091AD01812F0E94A8086B
:103D50005C019093AC018093AB019093AF01809391
:103D6000AE016091B1017091B20180E090E00E94DB
:103D700037356B017C01B50180E090E00E9437355A
:103D80009B01AC01C701B6010E948F34609394037C
:103D9000709395038093960390939703012F01707E
:103DA00010FD05C020E030E04AEF54E404C020E0FC
:103DB00030E04AE754E46091080170910901809174
:103DC0000A0190910B010E942D36609308017093B7
:103DD000090180930A0190930B01011105C020E0B5
:103DE00030E04AEF54E404C020E030E04AE754E415
:103DF0006091040170910501809106019091070185
:103E00000E942D3660930401709305018093060192
:103E100090930701011105C020E030E04AEF54E41F
:103E200004C020E030E04AE754E460910001709162
:103E3000010180910201909103010E942D3660934F
:103E4000000170930101809302019093030110928D
:103E500080001092810010926F0016BA8091AB0121
:103E60009091AC0190938700809386001092890016
:103E70001092880010928B0010928A0010928D0090
:103E800010928C008091AD018274823421F4809173
:103E90008100826003C080918100816080938100F5
:103EA0008091AD0180FF09C0809180008260809385
:103EB000800080918100806108C0809180008260D4
:103EC00080938000809181008861809381001092AE
:103ED0009000109291001092710018BA8091AB017D
:103EE0009091AC0190939700809396001092990066
:103EF000109298008091AD018274823421F48091F7
:103F00009100826003C08091910081608093910054
:103F10008091AD0180FF09C0809190008260809304
:103F2000900080919100806108C080919000826033
:103F3000809390008091910088618093910080E04F
:103F400090E00E943A128091800080688093800007
:103F5000259A80E090E00E942D128091800080627E
:103F600080938000269A80E090E00E942012809149
:103F70008000886080938000279A80E090E00E9413
:103F80001312809190008068809390003E9A61E0C7
:103F90008DE00E94C51A13E061E08DE00E94661A70
:103FA00064E170E080E090E00E94261B60E08DE01C
:103FB0000E94661A64E170E080E090E00E94261B97
:103FC000115051F71092AA031092AB031092AC0358
:103FD0001092AD031092AE031092AF031092B00393
:103FE0001092B1038AEA93E00E9447121092A9034B
:103FF0001092A8038FEF97E0909391038093900322
:104000008091B00180938F031092C7041092C60470
:104010001092C9041092C8041092120511E0109376
:10402000110510920C0561E082E00E94661A61E0C1
:1040300083E00E94661A8091B9008E7F8093B90058
:104040008091B9008D7F8093B90088E48093B80097
:1040500085E48093BC008FEF80932E0510922F058E
:1040600080912D051093CB048093CA041092C9044B
:104070001092C80461E080913205909133050E944E
:10408000B7110E94CA18837E0E9419190E94CA188B
:104090008C7F0E9419196091DD037091DE0380917D
:1040A000DF039091E0030E94AF180E94011B609310
:1040B000E1037093E2038093E3039093E4030E948F
:1040C000011B6093460570934705809348059093C4
:1040D00049050091E5031091E6032091E703309133
:1040E000E8036B017C01C01AD10AE20AF30AC0920C
:1040F0004205D0924305E0924405F09245050091B7
:10410000E1031091E2032091E3033091E4036B019A
:104110007C01C01AD10AE20AF30A40EDC41647E056
:10412000D406E104F10410F40C94D1326093E1035D
:104130007093E2038093E3039093E40380918E03F2
:104140008823A1F06091DD037091DE038091DF038D
:104150009091E0030E94AF186093D5037093D6034B
:104160008093D7039093D80310928E030E94651911
:10417000C090DD03D090DE03E090DF03F090E00319
:10418000DC01CB018C199D09AE09BF098093D503D1
:104190009093D603A093D703B093D8038093CD0315
:1041A0009093CE03A093CF03B093D0034601570161
:1041B00080949094A094B094C818D908EA08FB0899
:1041C0006091C5037091C6038091C7039091C803A5
:1041D000A70196010E94EB362FEF3FEF40E050E041
:1041E0000E94B533BA01A901480D591D6A1D7B1DF6
:1041F0004093D1035093D2036093D3037093D403BD
:104200001091C40315FB882780F916FD826017FF03
:1042100002C084600BC0813049F44093CD035093B9
:10422000CE036093CF037093D0032AC0823029F469
:10423000A091BE03B091BF030DC0833029F4A091BB
:10424000B803B091B90306C08430D1F4A091B20391
:10425000B091B303A70196010E94DF332FEF3FE037
:1042600040E050E00E94B533820E931EA41EB51E9E
:104270008092CD039092CE03A092CF03B092D00350
:104280008090CD039090CE03A090CF03B090D00348
:1042900080914F0590915005A0915105B091520524
:1042A00080924F0590925005A0925105B092520510
:1042B00020915705222309F449C00091800554E05C
:1042C000059F90011124B901615B7A4F7B01A50123
:1042D0009401281B390B4A0B5B0BCA01B9010E94E0
:1042E0003935D70119966D937D938D939C931C97C7
:1042F000F02E3AE0E32E60E070E0CB01B4E0FB9EEC
:10430000F0011124E15BFA4F218532854385548504
:104310000E941934FF2011F0FA9402C029E0F22E15
:10432000EA94E110EBCF20E030E040E251E40E945B
:104330008F340F5F0A3018F40093800502C010928A
:1043400080056CA77DA78EA79FA70FC081E08093F3
:10435000570510925305109254051092550510926E
:1043600056051CA61DA61EA61FA6209181053091EC
:10437000820540918305509184058CA59DA5AEA52D
:10438000BFA58093810590938205A0938305B09388
:10439000840580918905882309F444C00091DA05D9
:1043A000E4E00E9FC0011124BC01685A7A4F7B01E2
:1043B0006CA57DA5CD010E941834D701D2966D93CE
:1043C0007D938D939C93D597F02E84E1E82E60E049
:1043D00070E0CB01B4E0FB9EF0011124E85AFA4FE3
:1043E00022A933A944A955A90E941934FF2011F02C
:1043F000FA9402C0B3E1FB2EEA94E110EBCF20E087
:1044000030E040EA51E40E948F340F5F043118F429
:104410000093DA0502C01092DA056CAB7DAB8EAB6F
:104420009FAB0FC081E080938905109285051092A3
:10443000860510928705109288051CAA1DAA1EAA3F
:104440001FAA8091DB058823F1F110FD02C00C94B6
:104450002D2A0E9423169B01AC0160E070E080E0F1
:1044600094E40E948F346B017C016091A30370E09F
:1044700080E090E00E9439359B01AC01C701B60194
:104480000E942D3620E030E048EC52E40E948F3448
:104490000E9401356B017C01AB01C501B4010E9492
:1044A0005B062B013C016091D1037091D203809196
:1044B000D3039091D403A6010E945B066EA37FA351
:1044C00088A799A7D1C7EAEBF1E0FBA7EAA71B8A67
:1044D0001A8A1EA21FA218A619A6412C512C32011D
:1044E0000A891B890F5F1F4F1B8B0A8B43E29801C0
:1044F000429F8001439F100D11240A511E4FD80185
:104500008C918370833009F09BC70E9423166E8BB9
:104510007F8B888F998FF80121853285A789B08D8F
:104520000E9415372FEF3FE740E050E00E94B5337F
:10453000CA01B9010E9439352E893F89488D598DAC
:104540000E948F340E9401359B01AC01D80119965D
:104550000D90BC91A02DBF8FAE8FF801278C30A09D
:1045600083859485059728F4A4E0CA2ED12CD4869F
:10457000C38603E2EA88FB880E9DF0010F9DF00DD3
:104580001124EA51FE4FE1818E2F90E0FC0131971A
:10459000ED30F10508F03EC7EA5AFF4F0C940F3793
:1045A0000E9423166E8B7F8B888F998F43E22A8916
:1045B0003B89429FC001439F900D1124BC016A5169
:1045C0007E4F1B01DB0119968D909C901A97559692
:1045D000AD90BC9056971F96CD90DC905097519619
:1045E000ED90FC90529753960D911C915497149610
:1045F0002C91149713964C91139757968D919C91EB
:104600005897EAA5FBA5608171810E943416940138
:10461000DC010E9415372FEF3FE740E050E00E9499
:10462000B533CA01B9010E9439352E893F89488DB9
:10463000598D0E948F340E9401350E9430069B01E3
:10464000AC01A091A203B0E00E94D43324E630E094
:1046500040E050E00E94B533421A530A640A750ADA
:104660007EC10E9423166E8B7F8B888F998F63E2A9
:10467000E62ECA88DB88EC9CF001ED9CF00D11243D
:10468000EA51FE4F018512851B8F0A8FC588D68897
:10469000DF8ECE8EE784F088FBA2EAA20189128920
:1046A00019AB08AB038914891CAF0BAF84809380CE
:1046B000AAA5BBA52D903C90078510896085A78091
:1046C0000A2C000CBB08062E000C770B6A197B091C
:1046D000CB01770FAA0BBB0B6627782F892F9A2F58
:1046E0000E9439356B017C01B80180E090E00E94A6
:1046F000373520E030E04AE754E40E948F349B01D4
:10470000AC01C701B6010E948F346B017C01C1016D
:10471000B8010E94FB36BC0180E090E00E94373572
:1047200020E030E04AE754E40E948F349B01AC0162
:10473000C701B6010E942D360E940135BA2CAA2469
:10474000C501860F971FAE8CBF8CCAA0DBA0E8A85E
:10475000F9A80BAD1CAD282D492DB1010E943416CE
:104760002A8D3B8DDC010E9415372FEF3FE740E09B
:1047700050E00E94B533CA01B9010E9439352E8933
:104780003F89488D598D0E948F340E9401350E94C7
:104790003006461A570A680A790A3CC60E94231650
:1047A0006A8F7B8F8C8F9D8F53E2C52EEA89FB89A0
:1047B000CE9EC001CF9E900D11248C010A511E4F38
:1047C0001801D80119960D90BC91A02DBF8FAE8F06
:1047D000F801038CF48DE02DFBA3EAA3D8015D96CC
:1047E000BC91B8ABF80183849484A588B688C7844B
:1047F000D088E188F2880389148924814381AAA59D
:10480000BBA50D90BC91A02DBF8BAE8B8789908DE1
:10481000BD010E9434168C01B40180E090E00E943A
:10482000373520E030E04AE754E40E948F349B01A2
:10483000AC0160E070E080E89FE30E948F346B0180
:104840007C018E899F89B4010E94FB36BC0180E007
:1048500090E00E94373520E030E04AE754E40E94BF
:104860008F349B01AC01C701B6010E942D366B014C
:104870007C01B8A96B2F70E080E090E00E94373592
:1048800020E030E040E85BE30E942D369B01AC0164
:10489000C701B6010E9419342BED3FE049EC50E40A
:1048A0000E942D360E949A369B01AC01EAA1FBA121
:1048B0006F01FF0FEE08FF08B801110F880B990B6D
:1048C00022962FAF229725963FAF259723964FAF7D
:1048D000239724965FAF24970E94393522962FADF7
:1048E000229725963FAD259723964FAD2397249683
:1048F0005FAD24970E942D360E940135CB01770FC2
:10490000AA0BBB0BA7019601280F391F4A1F5B1F7B
:10491000AE8DBF8D0E94D4332FEF3FE740E050E0D3
:104920000E94B533CA01B9010E9439352A8D3B8DE9
:104930004C8D5D8D0E948F340E9401359B01AC012E
:10494000A091A103B0E00E94D43324E630E040E01F
:1049500050E00E94B533420E531E641E751ED101F5
:1049600016968C9182FF56C5C301B2010E9439355B
:104970006B017C01F1016585768580E090E00E9405
:1049800037352BED3FE049EC50E40E942D3620E016
:1049900030E040E058E30E942D360E948A349B01AB
:1049A000AC016EA17FA188A599A522962FAF229771
:1049B00025963FAF259723964FAF239724965FAF59
:1049C00024970E9439354B015C0122962FAD229726
:1049D00025963FAD259723964FAD239724965FAD3F
:1049E0002497C701B6010E942D369B01AC01C50179
:1049F000B4010E9419340E9401356EA37FA388A7D9
:104A000099A7D1011D966D917C911E9780E090E051
:104A10000E9437352BED3FE049EC50E40E942D36E3
:104A200020E030E040E058E30E942D360E949A36A4
:104A30009B01AC01C701B6010E942D360E940135D1
:104A40002B013C01E7C40E9423166A8F7B8F8C8F59
:104A50009D8F43E2E42ECA88DB88EC9CF001ED9C3C
:104A6000F00D1124EA51FE4F018512851F8F0E8F24
:104A7000238D348DA901330F660B770B4AA35BA3FB
:104A80006CA37DA3558D58AB23843484A588B68848
:104A9000C784D088E188F2880389148924814381FE
:104AA000AAA5BBA50D90BC91A02DBF8BAE8B87890D
:104AB000908DBD010E943416BC01990F880B990B93
:104AC0000E9439354B015C01B10180E090E00E9409
:104AD000373520E030E04AE754E40E948F349B01F0
:104AE000AC0160E070E080E89FE30E948F346B01CE
:104AF0007C018E899F89B1010E94FB36BC0180E058
:104B000090E00E94373520E030E04AE754E40E940C
:104B10008F349B01AC01C701B6010E942D366B0199
:104B20007C01B8A96B2F70E080E090E00E943735DF
:104B300020E030E040E85BE30E942D369B01AC01B1
:104B4000C701B6010E9419342BED3FE049EC50E457
:104B50000E942D360E949A366B017C0120E030E0E5
:104B6000A9010E94283687FF0CC020E030E0A9018F
:104B7000C701B6010E94853487FF05C0EFEFEAAF99
:104B800002C0F1E0FAAFCAAC6C2DCC0C770B880BED
:104B9000990B0E9439359B01AC01C501B4010E94FB
:104BA0002D360E940135CB01770FAA0BBB0BE1C15B
:104BB0000E9423166E8F7F8F88A399A303E2EA8851
:104BC000FB880E9DF0010F9DF00D1124EA51FE4F60
:104BD000218532853BA32AA3238D348DA901330F70
:104BE000660B770B48AB59AB6AAB7BAB358D6385F6
:104BF00074857F8B6E8BA588B688C784D088E18842
:104C0000F2880389148924814381AAA5BBA50D904C
:104C1000BC91A02DBB8FAA8F8789908DBD01259651
:104C20003FAF25970E9434161C01EE89FF89BF0112
:104C300080E090E00E9437354B015C0125963FAD46
:104C4000259760E4630F70E080E090E00E943735C4
:104C500020E030E040E85BE30E942D36A50194019E
:104C60000E942D360E9408358A8D9B8D860F971FD6
:104C70006E897F890E94FB368C01BC0180E090E048
:104C80000E94373520E030E04AE754E40E948F3438
:104C90006B017C0120E030E0A9010E94283687FDED
:104CA0003CC020E030E04AE754E4C501B4010E9472
:104CB0008F346A8F7B8F8C8F9D8F20E030E040E0B7
:104CC0005FE30E942D369B01AC01C701B6010E9433
:104CD000853487FF22C0B101032C000C880B990B8F
:104CE0000E94393520E030E040E850E40E942D3643
:104CF0002A8D3B8D4C8D5D8D0E948F34A7019601CE
:104D00000E942D360E9401353194219431086101B1
:104D1000C60ED71ED9AEC8AE51C020E030E04AE77B
:104D200054E4C501B4010E948F344B015C0120E0C2
:104D300030E040E05FE30E942D369B01AC01C701EB
:104D4000B6010E94283687FD39C0A5019401C7012C
:104D5000B6010E94853487FF31C0B101032C000CDD
:104D6000880B990B0E94393520E030E040E850EC88
:104D70000E942D36A50194010E948F346B017C01A5
:104D80008E899F8996958795B801681B790B80E07D
:104D900090E00E94373520E030E04AE754E40E947A
:104DA0008F349B01AC01C701B6010E942D360E94D1
:104DB00001357101E60EF71EF9AEE8AE08AD19AD8A
:104DC000C801110FAA0BBB0B28A939A94AA95BA9D5
:104DD000280F391F4A1F5B1FAAA1BBA10E94D43311
:104DE0002FEF3FE740E050E00E94B533CA01B90120
:104DF0000E9439352E8D3F8D48A159A10E948F34D4
:104E00000E9401359B01AC01A091A103B0E00E947A
:104E1000D43324E630E040E050E00E94B533420E47
:104E2000531E641E751EF6C20E9423166A8F7B8F66
:104E30008C8F9D8F43E22A893B89429FF001439FDB
:104E4000F00D1124EA51FE4F618572857F8F6E8FC0
:104E5000238D348DC901330FAA0BBB0B8AA39BA3EF
:104E6000ACA3BDA3358D23843484A588B688C784BC
:104E7000D088E188F2880389148924814381AAA516
:104E8000BBA58D909C908789908DB40125963FAFEE
:104E900025970E9434169F8B8E8BB10180E090E0A5
:104EA0000E9437356B017C0125963FAD259760E860
:104EB000630F70E080E090E00E94373520E030E042
:104EC00040E85BE30E942D36A70196010E942D3633
:104ED0000E940835C401860F971FB1010E94FB365E
:104EE0008C0182159305E8F5EE89FF89BF01FF0F5C
:104EF000880B990B0E9439359B01AC010E94193433
:104F00004B015C0120E030E04AE754E4C701B60100
:104F10000E948F349B01AC01C501B4010E948F3403
:104F20006B017C01B80180E090E00E94373520E001
:104F300030E04AE754E40E948F349B01AC01C70182
:104F4000B6010E942D360E9401352E893F89319588
:104F5000219531096901C60ED71E2196DFAECEAE6E
:104F600021972196EEACFFAC2197C701FF0CAA0B4D
:104F7000BB0B2AA13BA14CA15DA1280F391F4A1FE1
:104F80005B1FAE8DBF8D0E94D4332FEF3FE740E013
:104F900050E00E94B533CA01B9010E9439352A8D0B
:104FA0003B8D4C8D5D8D2ACF0E9423166A8F7B8F9F
:104FB0008C8F9D8F23E20A891B89209FF001219FFE
:104FC000F00D1124EA51FE4F418552855F8F4E8FBF
:104FD000238D348DB901330F880B990B6AA37BA302
:104FE0008CA39DA3358D23843484A588B688C7847B
:104FF000D088E188F2880389148924814381AAA595
:10500000BBA58D909C908789908DB40125963FAF6C
:1050100025970E9434169F8B8E8BB10180E090E023
:105020000E9437356B017C0125963FAD259760E8DE
:10503000630F70E080E090E00E94373520E030E0C0
:1050400040E85BE30E942D36A70196010E942D36B1
:105050000E940835C401860F971FB1010E94FB36DC
:105060008C0182159305D0F56E897F8971956195C4
:105070007109072E000C880B990B0E9439359B0192
:10508000AC010E9419344B015C0120E030E04AE79A
:1050900054E4C701B6010E948F349B01AC01C501E5
:1050A000B4010E948F346B017C01B80180E090E074
:1050B0000E94373520E030E04AE754E40E948F3404
:1050C0009B01AC01C701B6010E942D360E9401353B
:1050D000EE89FF89E60FF71FFEAFEDAFCDACDEAC7A
:1050E000C601DD0CAA0BBB0B44CFC090A003D12C92
:1050F000E12CF12C63E20A891B89609FC001619F4A
:10510000900D11248C010A511E4F1B8F0A8FD8015C
:105110005B960D911C915C978090DD039090DE036F
:10512000A090DF03B090E003C701B6010E94EB3608
:1051300020E436E040E050E00E94B5332AA33BA3D0
:105140004CA35DA3D801A50194010E94DF33DC01CB
:10515000CB010FE0B595A795979587950A95D1F75F
:10516000092E000CAA0BBB0B4091CD035091CE032E
:105170006091CF037091D0038A019B01081B190B2A
:105180002A0B3B0BC901B8014AA15BA10E945B0637
:10519000460E571E681E791EAA8DBB8D91960D91E5
:1051A0001C9192972E8D3F8DD1010E9415372FEFC4
:1051B0003FE740E050E00E94B533CA01B9010E94C8
:1051C00039352E893F89488D598D0E948F340E9430
:1051D00001359B01AC01C701B6010E94EB3620E40A
:1051E00036E040E050E00E94B53369017A01D80111
:1051F000A50194010E94DF33DC01CB012FE0B595BE
:10520000A795979587952A95D1F7092E000CAA0B9B
:10521000BB0B4091D1035091D2036091D3037091A5
:10522000D4038A019B01081B190B2A0B3B0BC901F4
:10523000B801A6010E945B062EA13FA148A559A571
:10524000260F371F481F591F2EA33FA348A759A752
:10525000E1C083E26A897B89869FF001879FF00D18
:105260001124EA51FE4F038D148DA0919F03B0E0ED
:105270000E94D43324E630E040E050E00E94B53391
:1052800069017A01B801110F880B990B0E94393519
:105290002AE939EC4CEC54E40E948F349B01AC01B8
:1052A0006CA57DA58EA59FA50E941834A6010E941D
:1052B000880762C013E2C12EAA89BB89CA9EF00189
:1052C000CB9EF00D1124EA51FE4F038D148DA09159
:1052D0009E03B0E00E94D43324E630E040E050E08A
:1052E0000E94B53369017A01B801110F880B990B3F
:1052F0000E94393520E03EEF4FEF56E40E948F3494
:105300009B01AC016CA97DA98EA99FA90E941834AC
:10531000A6010E94200730C003E2EA88FB880E9DA8
:10532000F0010F9DF00D1124EA51FE4F038D148DF5
:10533000A0919D03B0E00E94D43324E630E040E029
:1053400050E00E94B53369017A01B801110F880B52
:10535000990B0E9439352AE939EC4CEC54E40E944F
:105360008F349B01AC016CA57DA58EA59FA50E94E5
:105370001834A6010E949F06092E000CAA0BBB0B35
:10538000480E591E6A1E7B1E45C00E9423169B01B3
:10539000AC0183E26A897B89869FF001879FF00DCB
:1053A0001124EA51FE4F838D948DBC01990F880B17
:1053B000990B22962FAF229725963FAF25972396DC
:1053C0004FAF239724965FAF24970E9439352296DA
:1053D0002FAD229725963FAD259723964FAD239766
:1053E00024965FAD24970E948F340E9401350E945D
:1053F00030069B01AC01A091A103B0E00E94D43320
:1054000024E630E040E050E00E94B533421A530AEF
:10541000640A750A0E944C1B0091B6011091B701F5
:105420002091B8013091B901DC01CB01801B910BB7
:10543000A20BB30BEAA5FBA580839183A283B38360
:105440000AA51BA50C5F1F4F1BA70AA72A893B892A
:105450002B30310509F044C807C01EA21FA218A6B0
:1054600019A6412C512C32011091C40311FF3DC0EB
:105470000E9423169B01AC01E0919F0367E471E059
:10548000E69FC001E79F900D1124BC0180E090E0F1
:1054900022962FAF229725963FAF259723964FAFA1
:1054A000239724965FAF24970E94393522962FAD1B
:1054B000229725963FAD259723964FAD23972496A7
:1054C0005FAD24970E948F340E940135AB016CA51B
:1054D0007DA58EA59FA50E948807092E000CAA0B0A
:1054E000BB0B480E591E6A1E7B1E12FF3DC00E9458
:1054F00023169B01AC01E0919E0367E471E0E69FF7
:10550000C001E79F900D1124BC0180E090E022963D
:105510002FAF229725963FAF259723964FAF23971E
:1055200024965FAF24970E94393522962FAD22979B
:1055300025963FAD259723964FAD239724965FADD3
:1055400024970E948F340E940135AB016CA97DA97C
:105550008EA99FA90E942007092E000CAA0BBB0B45
:10556000480E591E6A1E7B1E13FF3DC00E94231663
:105570009B01AC01E0919D0367E471E0E69FC001EF
:10558000E79F900D1124BC0180E090E022962FAFA0
:10559000229725963FAF259723964FAF23972496C2
:1055A0005FAF24970E94393522962FAD229725961A
:1055B0003FAD259723964FAD239724965FAD249753
:1055C0000E948F340E940135AB016CA57DA58EA58C
:1055D0009FA50E949F06092E000CAA0BBB0B480E2C
:1055E000591E6A1E7B1EC090DD03D090DE03E09042
:1055F000DF03F090E0038091CD039091CE03A09162
:10560000CF03B091D0038824992454018C189D08AD
:10561000AE08BF0888159905AA05BB0534F0C81661
:10562000D906EA06FB060CF049C0B7FD05C08C1987
:105630009D09AE09BF0904C08C0D9D1DAE1DBF1D87
:105640008093CD039093CE03A093CF03B093D00368
:105650000E9423169B01AC0160E07EEF8FEF96E481
:105660000E948F346A8B7B8B8C8B9D8B60919C030B
:1056700070E080E090E00E9439359B01AC016A89BE
:105680007B898C899D890E942D3620E030E048EC92
:1056900052E40E948F340E9401359B01AC0160915D
:1056A000CD037091CE038091CF039091D003A901D7
:1056B0000E945B06460E571E681E791E8091D1031C
:1056C0009091D203A091D303B091D403881599058A
:1056D000AA05BB0534F0C816D906EA06FB060CF08D
:1056E00051C0B7FD09C0AC01BD014C195D096E097F
:1056F0007F096A017B0104C0C80ED91EEA1EFB1E89
:10570000C092D103D092D203E092D303F092D4039B
:105710000E9423169B01AC0160E07EEF8FEF96E4C0
:105720000E948F346B017C0160919C0370E080E0EB
:1057300090E00E9439359B01AC01C701B6010E947F
:105740002D3620E030E048EC52E40E948F340E9475
:1057500001356B017C016091D1037091D20380917E
:10576000D3039091D403A6010E945B06CEA0DFA0D4
:10577000E8A4F9A4C60ED71EE81EF91ECEA2DFA229
:10578000E8A6F9A6C090B501D12CE12CF12CA3011B
:105790009201C701B6010E94EB3624E630E040E0FA
:1057A00050E00E94B533CA01B9010E9430064B0196
:1057B0005C012EA13FA148A559A5C701B6010E94D1
:1057C000EB3624E630E040E050E00E94B533CA01F9
:1057D000B9010E9430066B017C0114FF0EC0C501A7
:1057E000B4010E94831883E991E00E94AD18C701BB
:1057F000B6010E9483180E9428188092AA039092F2
:10580000AB03A092AC03B092AD03C092AE03D092B2
:10581000AF03E092B003F092B1036091D5037091B1
:10582000D6038091D7039091D8030E9439356B013C
:105830007C0160918A0370918B0380918C0390911D
:105840008D030E9439359B01AC0160E07FEF8FE74B
:1058500097E40E948F349B01AC01C701B6010E94FE
:105860002D360E9401354B015C01611570488105A0
:10587000910534F088248A94BFE79B2EA12CB12C8B
:10588000811410E891061FEFA106B10634F4812CB3
:10589000A0E89A2EAA24AA94BA2C8092D5039092BA
:1058A000D603A092D703B092D8038AEA93E00E946D
:1058B00047120091A8031091A9034090C003509093
:1058C000C103400E511E612C712CC090BA03D090C0
:1058D000BB03C00ED11EE12CF12C2091B8033091F6
:1058E000B903C901330FAA0BBB0B9C01AD012C19E5
:1058F0003D094E095F09AFEFBFE00E94D43320910C
:10590000BC033091BD03201B310B40E050E02C194B
:105910003D094E095F090E94B5332A8B3B8B4C8BA6
:105920005D8BC090B403D090B503C00ED11EE12CA6
:10593000F12C2091B2033091B303C901330FAA0BAC
:10594000BB0B9C01AD012C193D094E095F09AFEF5E
:10595000BFE00E94D4332091B6033091B703201BDF
:10596000310B40E050E02C193D094E095F090E94BF
:10597000B53369017A012091BE033091BF03C9019B
:10598000330FAA0BBB0B9C01AD0124193509460945
:105990005709AFEFBFE00E94D4332091C20330918A
:1059A000C303201B310B40E050E0241935094609A0
:1059B00057090E94B5332901411420E1520624F011
:1059C00044244A94FFE05F2E57FE02C0412C512C24
:1059D0005092BF034092BE036A887B88611430E115
:1059E000730624F066246A94EFE07E2E77FE02C0F0
:1059F000612C712C7092B9036092B803C11440E11C
:105A0000D40624F0CC24CA947FE0D72ED7FE02C05F
:105A1000C12CD12CD092B303C092B2038091C903A0
:105A20009091CA03800F911F9C0140E050E02A8BA7
:105A30003B8B4C8B5D8B2091C5033091C60340910D
:105A4000C7035091C8036A897B898C899D89261B6D
:105A5000370B480B590BAFEFBFEF0E94D4332091A7
:105A6000CB033091CC03201B310B40E050E0EA889F
:105A7000FB880C891D892E193F09400B510B0E9490
:105A8000B5332115310501E04007510524F02FEF12
:105A90003FEF40E050E057FF03C020E030E0A901B5
:105AA0002093C5033093C6034093C7035093C803A4
:105AB00089B182958F7091E0892790E0A0E0B0E0F5
:105AC00081709927AA27BB27799B8260789B846085
:105AD0004E9B88604F9B8061669B80621C9B8064AC
