:100000000C9420040C9448040C9448040C94DB06D3
:100010000C94B7060C9448040C9448040C944804BF
:100020000C9448040C9448040C94B4090C9457079D
:100030000C9448040C9448040C9448040C94480410
:100040000C9448040C9448040C9448040C94480400
:100050000C9448040C9448040C9448040C945D19C6
:100060000C9448040C9448040C9448040C944804E0
:100070000C9448040C9448040C9448040C944804D0
:100080000C9448040C9448040C9448040C944804C0
:100090000C94EC0E0C9448040C9448040C94480402
:1000A0000C9448040C9448040C944804372098207D
:1000B0008A2235213F233B257B24DC259026C1263F
:1000C000F32671272C27532F3E2CBA2C6F30982DF6
:1000D000FC2FCD2C1E2E6F306F306F306F306F3095
:1000E0006F30462C1E2E6F30D72BD12B6F30392B13
:1000F000B82BC82D6F30212E1E2E382E522E6C2E6E
:10010000862EA02EBA2ED42EEE2E6F306F306F308A
:100110006F306F306F306F306F306F30082F363088
:100120003B3018301D306F30223013306F3031309B
:1001300040306F306F302C306F306F306F306F3039
:100140006F302730031108110D1117116111611162
:10015000611121112B1135113F114C1161115411F5
:10016000DF17E217D517D917031803180318E61776
:10017000EA17EE17F417F8170318FE1705A84CCD69
:10018000B2D44EB93836A9020C50B9918688083CD1
:10019000A6AAAA2ABE000000803F000000000000BE
:1001A00000002A2B280000000000000000000000D2
:1001B000000000000000000000002C9EB4A0A1A2DE
:1001C000A434A6A7A5AE362D3738271E1F2021221E
:1001D00023242526B333B62EB7B89F848586878817
:1001E000898A8B8C8D8E8F90919293949596979807
:1001F000999A9B9C9D2F3130A3AD350405060708C5
:10020000090A0B0C0D0E0F101112131415161718E6
:10021000191A1B1C1DAFB1B0B500080B0002020279
:100220000100090400000102020000052400100181
:100230000524010101042402060524060001070526
:10024000810310004009040100020A0000000705B4
:10025000020240000007058302400000090402007A
:10026000020300000009210101000122E104070549
:10027000840340000107050503400001050109044E
:10028000A10185040901A100093017000000002721
:10029000FFFF0000350047FFFF000075109501814A
:1002A00002093116000027FFFF0000350047FFFF5D
:1002B0000000751095018102093216000027FF0F1A
:1002C0000000350047FF0F0000750C950181020901
:1002D0003316000027FF0F0000350047FF0F000016
:1002E000750C95018102093416000027FF0F0000EC
:1002F000350047FF0F0000750C9501810209391583
:100300000125083500463B0165145500750495012B
:1003100081020509150025015500650019012918FC
:1003200075019518810285F10901150026FF0095D8
:100330003F7508918285F20901953F75088182C059
:10034000050F0992A1028502099F09A009A409A528
:1003500009A61500250135004501750195058102A5
:1003600095038103099415002501350045017501A8
:1003700095018102092215012528350145287507B7
:1003800095018102C00921A10285010922150125DB
:1003900028350145287508950191020925A1020912
:1003A000260927093009310932093309340940097E
:1003B0004109420943250B15013501450B75089587
:1003C000019100C009500954150027FFFF000035B6
:1003D0000047FFFF000066011055FD751095029162
:1003E0000255006600000952150026FF7F350046C1
:1003F000FF7F7510950191020953150125083501FC
:1004000045087508950191020955A10205010930B9
:10041000093115002501750195029102C0050F09EA
:100420005695019102950591030957A1020B010010
:100430000A000B02000A0066140055FE150026FF94
:100440007F3500479F8C0000751095019102550083
:10045000660000C0050F09A766011055FD150027AD
:10046000FFFF0000350047FFFF0000751095019168
:10047000026600005500C0050F095AA10285020955
:100480002215012528350145287508950191020995
:100490005B095D150026FF00350046FF7F75089556
:1004A000029102095C095E66011055FD26FF7F4638
:1004B000FF7F7510950291026600005500C0095F2C
:1004C000A102850309221501252835014528750853
:1004D0009501910209231500250135004501750498
:1004E000950191020958A1020B01000A000B0200BC
:1004F0000A00750295029102C0096016008026FF6D
:100500007F36008046FF7F751095019102096136A4
:10051000008046FF7F95019102150026FF7F350080
:1005200046FF7F0963751095019102096515002644
:10053000FF0046FF7F750895019102C0096EA10278
:1005400085040922150125283501452875089501DE
:1005500091020970150026FF7F350046FF7F751058
:1005600095019102096F16008026FF7F36008046B4
:10057000FF7F950191020971150026FF00350046A5
:1005800067016614005500750895019102097227EC
:10059000FFFF000047FFFF000066011055FD7510CA
:1005A000950191026600005500C00973A1028505FE
:1005B0000922150125283501452875089501910264
:1005C000097016018026FF7F36018046FF7F751077
:1005D00095019102C00974A1028506092215012521
:1005E0002835014528750895019102097509761588
:1005F00081257F36018046FF7F750895029102C0F4
:10060000050F0977A102850A092215012528350160
:1006100045287508950191020978A1020979097A9E
:10062000097B15012503750895019100C0097C150A
:100630000026FF00350046FF009102C00990A1028C
:10064000850B0922150125283501452875089501D6
:100650009102C00996A102850C0997099809990988
:100660009A099B099C15012506750895019100C002
:10067000097DA102850D097E150026FF0035004683
:100680001027750895019102C009ABA102850509E3
:1006900025A1020926092709300931093209330940
:1006A0003409400941094209431501250B3501452B
:1006B0000B75089501B100C00501093B150026FF27
:1006C00001350046FF01750A9501B1027506B101B9
:1006D000C0050F0989A102850609222528150135C3
:1006E00001452875089501B102098BA102098C0901
:1006F0008D098E250315013501450375089501B156
:1007000000C009AC150027FFFF0000350047FFFFC0
:10071000000075109501B100C0097FA1028507098D
:100720008075109501150027FFFF0000350047FF79
:10073000FF0000B102098326FF0046FF00750895FF
:1007400001B10209A909AA75019502150025013513
:10075000004501B10275069501B103C0C0180341FF
:100760000072006400750069006E006F0020004C8C
:10077000004C00430004030904220341007200649A
:1007800000750069006E006F0020004C0065006F6E
:10079000006E006100720064006F00120100020030
:1007A00000004041233680000101020001120100D7
:1007B00002020000404123368000010102000100D6
:1007C000C18081C1C000000000240027002A002D44
:1007D00000300000000000250028002B002E003112
:1007E00000040404040403040502020202040302D8
:1007F00002020206060606060604040202020404B9
:10080000040802011040804010204080408008020F
:100810000401804020100201108010204040200080
:1008200000000200080E0000030401000B0000009D
:1008300000000000000000000000000000008930FF
:1008400011241FBECFEFDAE0DEBFCDBF11E0A0E084
:10085000B1E0E6E4F9E602C005900D92AA38B107CE
:10086000D9F725E0AAE8B1E001C01D92A53AB20788
:10087000E1F714E0C0E2D4E004C02197FE010E9439
:100880008F34CF31D107C9F70E94A7190C94A13436
:100890000C9400008C30F8F4282F30E093E2899F0C
:1008A000F0011124E253FE4F90819923A1F0908131
:1008B0009D7F9083F901E852FC4F958191110BC007
:1008C000E0918B01F0918C010084F185E02D099578
:1008D0001092E80308950895FC01CB012091E800EF
:1008E00022FFFCCF282F215028F03091F1003083D7
:1008F0003196F9CF24E62093CC032BEF2093E80028
:1009000008950F931F93CF93DF93DB01A40FB51FBF
:10091000FB016EEFEA17FB0791F187FF02C02491FC
:1009200001C020810091D0031091D103C091CE036A
:10093000D091CF030C171D07B4F49091E800957087
:10094000E1F39091E80092FD1CC02093F10020910A
:10095000D0033091D1032F5F3F4F2F733327232BC9
:1009600011F46093E8002091D0033091D1032F5F00
:100970003F4F3093D1032093D0033196CBCFCA01A0
:1009800002C08FEF9FEFDF91CF911F910F910895DC
:10099000CF93DF9300D000D01F92CDB7DEB7FC011C
:1009A00081819081913A29F5813009F0BCC0828122
:1009B000863051F445E050E063ED73E080E40E943E
:1009C00081041092D303AFC0873009F0ACC0898393
:1009D0008FEF9FEF9B838A838BE08C8383E08D83F3
:1009E00045E050E0BE016F5F7F4F80E40E948104CC
:1009F0009AC0913209F097C0893009F094C0828181
:100A0000853009F090C064E070E0CE0101960E944C
:100A10006C0486E08093D30380910F018B3021F129
:100A2000A0910F0181E08A0F80930F0193E2E09182
:100A30000F019E9FF0011124E253FE4F8081882315
:100A400051F080910F018B3030F480910F018F5F56
:100A500080930F01ECCF83E2A89FF0011124E253B1
:100A6000FE4F81E0808301C0A0E0A093D403A111D8
:100A700004C082E08093D50350C010928F0581E0BE
:100A80008093D5038A8193E2A99FD0011124A253B8
:100A9000BE4F11968C9311978FEF9FEF50969C93BA
:100AA0008E931F9754961C921E92539752961C92A7
:100AB0001E92519713968C93139714968C931497B8
:100AC00056961C921E9255971E961C921E921D972A
:100AD00016961C9216978FEF9FE71A969C938E930B
:100AE000199758961C921E9257975C961C921E92CC
:100AF0005B975D961C925D9788EE93E01C969C93A5
:100B00008E931B97E0918B01F0918C010684F78501
:100B1000E02DBD01CE01019609958FEF9FEF9093D7
:100B2000D7038093D60381E00F900F900F900F9022
:100B30000F90DF91CF91089542E450E06AE172E0B6
:100B400080E80E94810440E250E06CE572E080E8B9
:100B50000E94810483E090E00895EF92FF921F933A
:100B6000CF93DF93EC01162FE881F9810480F581A2
:100B7000E02D09957C01E881F9810680F781E02D5F
:100B8000612FCE010995C7019927DF91CF911F9160
:100B9000FF90EF900895FC0191818081813A29F4C2
:100BA0009D7F81E0913091F414C0813279F49A30C4
:100BB00049F09B3019F0993049F40AC08281809342
:100BC0000E0106C0828180930D0102C080E008956D
:100BD00081E008958C30F0F493E2899FF0011124B4
:100BE000E253FE4F80818823A9F080818260808358
:100BF0008091E80381110EC00E949E1860939E01AF
:100C000070939F018093A0019093A10181E0809354
:100C1000E80308950895CF92DF92EF92FF926091DA
:100C20009B0170919C01072E000C880B990B0E9470
:100C3000B9326B017C0160917203709173038091F2
:100C40007403909175030E94B9329B01AC01C701F6
:100C5000B6010E940F32FF90EF90DF90CF90089581
:100C6000CF92DF92EF92FF920F931F938B019C0123
:100C700040919601509197016A01E12CF12C662771
:100C80007727CB016C197D098E099F090617170775
:100C9000280739074CF0C901B801C016D106E20691
:100CA000F30614F4C701B6011F910F91FF90EF9066
:100CB000DF90CF900895CF92DF92EF92FF92CF9383
:100CC000DF936B017C01EA0120E030E0A9010E9482
:100CD000A833181694F020E030E0A901C701B6014E
:100CE0000E94053287FF3AC020E030E0A901C70129
:100CF000B6010E9499316B017C01BE01DD0F880BAA
:100D0000990B0E94B9329B01AC01C701B6010E9448
:100D1000AD336B017C010E940B069B01AC01C70146
:100D2000B6010E94AD3320E030E040E851E40E947B
:100D3000AD3320E030E040E251E40E94AD3320E0EA
:100D400030E040E05BE30E94AD330E9481320E94BC
:100D5000300688279927861B970B02C080E090E019
:100D6000DF91CF91FF90EF90DF90CF9008951F9289
:100D70000F920FB60F9211242F933F934F935F93CF
:100D80006F937F938F939F93AF93BF93EF93FF9353
:100D90000E945216FF91EF91BF91AF919F918F9159
:100DA0007F916F915F914F913F912F910F900FBE67
:100DB0000F901F9018951F920F920FB60F9211244B
:100DC0002F933F934F935F936F937F938F939F9353
:100DD000AF93BF93EF93FF930E945216FF91EF9151
:100DE000BF91AF919F918F917F916F915F914F9143
:100DF0003F912F910F900FBE0F901F901895CF929B
:100E0000DF92EF92FF920F931F93CF93DF931F9286
:100E1000CDB7DEB7F82EE42E8B01C82ED92E8C2D3F
:100E20008F198E1588F4F80161918F01C6016983CD
:100E30000E941F316981681719F0C6010E9427318D
:100E4000FFEFCF1ADF0AEBCF0F90DF91CF911F9109
:100E50000F91FF90EF90DF90CF900895CF92DF92A7
:100E6000EF92FF920F931F93CF93DF931F92CDB713
:100E7000DEB78B016B017C01E61AF70A9C2D901BF3
:100E8000941758F4C7018C0D9D1D49830E941F3192
:100E9000F60181936F014981F1CF0F90DF91CF91DE
:100EA0001F910F91FF90EF90DF90CF9008951F92C8
:100EB0000F920FB60F921124EF92FF921F932F9370
:100EC0003F934F935F936F937F938F939F93AF93D2
:100ED000BF93EF93FF93CF93DF93CDB7DEB76197C7
:100EE000DEBFCDBF1092E9008091E80083FF59C1B9
:100EF000FE013A96CF0128E02E0F2E1729F03091EF
:100F0000F10030833196F9CF24E62093CC0322EF11
:100F10002093E8002A8527FF05C03091E80030FFC4
:100F2000FCCF03C03EEF3093E800322F307609F05B
:100F3000C5C08B85811105C01092F1001092F1009F
:100F400029C1982F9D7F913009F424C1853049F43F
:100F50008091E80080FFFCCF8C8580688093E3005F
:100F600019C1863009F07CC01D85E888F988109287
:100F7000E9001092D1031092D003123091F5109233
:100F8000CF031092CE030E949C0599E0BE016F5FD3
:100F90007F4FFB01292F11922A95E9F799831A8334
:100FA00091E09E8390E898879AEF99872091D003EB
:100FB0003091D103275F3F4F3C832B838D83109269
:100FC000E9001092D1031092D003F092CF03E09287
:100FD000CE0349E050E080E00E9481040E949C051D
:100FE000D9C0F092CF03E092CE03123259F441EE11
:100FF00054E06CE772E080E80E948104892B09F0DC
:10100000C9C0CCC0113069F488899989089711F456
:101010001093CD038091CD03811111C06BE977E06E
:1010200016C0133009F0BAC08C85882359F082307D
:1010300061F0813009F0B2C06DE577E008C06DEA7B
:1010400077E005C065E777E002C069E777E0611502
:10105000710509F4A3C0FB01449150E080E849C048
:10106000873009F49BC0883021F481E08093F1003F
:1010700091C0893009F08EC0237009F08FC080E0E4
:1010800090E031E026E341E0480F4093E9003093DF
:10109000EB000196FC01E154F84FE491E093EC0081
:1010A0002093ED008530910571F78EE78093EA007B
:1010B0001092EA008C8580938A016CC02889398956
:1010C0001092E9001092D1031092D0033093CF0315
:1010D0002093CE032E85211154C08B859A85913A99
:1010E00059F4813209F05AC047E050E060E171E004
:1010F00080E00E9481044EC0913209F04FC08032DE
:1011000039F467E070E080E191E00E946C0442C035
:10111000823209F043C08C858093170180911001C1
:1011200090911101A0911201B0911301803B944064
:10113000A105B10579F58091170180FD11C087E700
:1011400097E790930108809300089BE088E10FB631
:10115000F894A895809360000FBE909360001AC029
:101160000FB6F894A8958091600088618093600024
:10117000109260000FBEA89510920108109200080E
:1011800009C0223059F4E0919205F0919305099538
:10119000882321F08EEF8093E80003C081E28093E2
:1011A000EB0061960FB6F894DEBF0FBECDBFDF91A6
:1011B000CF91FF91EF91BF91AF919F918F917F91CF
:1011C0006F915F914F913F912F911F91FF90EF9001
:1011D0000F900FBE0F901F9018958F929F92AF9215
:1011E000BF92CF92DF92EF92FF920F931F93CF9314
:1011F000DF9300D01F92CDB7DEB7382F8B018091DF
:101200008A01882389F04A018AEFF82E832F87709C
:10121000E82E90E4C92E832F8072B82E2AE3D22EB6
:10122000832F8074A82E21C08FEF9FEF5FC08FB7F0
:10123000F894E092E9009091E80095FF1AC090912F
:10124000F2002C2D291B8FBF211115C0FA94FF200D
:1012500059F361E070E080E090E039834A835B837A
:101260000E94781839814A815B8181149104F9F6D2
:1012700034C020E0E8CF822F90E0881699060CF465
:10128000282D822F90E0881A990A6FB7F894E0927F
:10129000E900BB2029F02150A8F01092F100FBCF0B
:1012A000F80137FF07C0215058F074917093F10096
:1012B0003196F9CF215020F071917093F100FACF5F
:1012C000080F191F8091E80085FF0DC0811491045B
:1012D00011F4A11008C06FBFC8CF5D9884E6809359
:1012E000D203CA0103C0D092E800F5CF0F900F904F
:1012F0000F90DF91CF911F910F91FF90EF90DF90B2
:10130000CF90BF90AF909F908F90089590918A0159
:10131000992311F057FF03C08FEF9FEF08952FB768
:10132000F89487708093E9008091F20090E0841730
:1013300095070CF4AC01842FFB0194E6815030F04A
:101340009093CC033091F1003193F8CF41155105C2
:1013500021F08091F200882319F02FBFCA0108956F
:101360008BE68093E800F9CF1F920F920FB60F9291
:1013700011242F933F934F935F936F937F938F939A
:101380009F93AF93BF93EF93FF93CF93DF93CDB72B
:10139000DEB7C054D109DEBFCDBF8091E10010920D
:1013A000E10083FF0FC01092E90091E09093EB0001
:1013B0001092EC0092E39093ED0010928A0198E075
:1013C0009093F00082FF46C083E08093E900809113
:1013D000F200882319F08AE38093E8009FB7F8941D
:1013E00082E08093E9008091F2009FBF882321F082
:1013F0008CED94E00E94B10E9FB7F89485E0809345
:10140000E9008091F2009FBF8823C1F0809194058C
:1014100090919505892B91F040E450E0BE016F5FFB
:101420007F4F85E00E94860997FD08C0E0919405F2
:10143000F0919505BC01CE01019609958091D203EA
:10144000882341F08091D20381508093D20381118F
:1014500001C05D9AC05CDF4F0FB6F894DEBF0FBECF
:10146000CDBFDF91CF91FF91EF91BF91AF919F9150
:101470008F917F916F915F914F913F912F910F903D
:101480000FBE0F901F901895EF92FF920F931F932E
:10149000CF93DF931F92CDB7DEB789838B017A019B
:1014A00041E050E0BE016F5F7F4F84E00E94ED0895
:1014B000A701B80184E40E94ED080F90DF91CF915D
:1014C0001F910F91FF90EF9008951F93CF93DF939B
:1014D000DC0111961C9111979C91953009F467C01D
:1014E00060F5923009F443C0A8F4913009F04DC181
:1014F000E0918B01F0918C0123E2129FB001112445
:1015000062537E4F028CF38DE02DCD01DF91CF91A0
:101510001F9109949330C9F1943009F036C1E091DC
:101520008B01F0918C0123E2129FB00111246253D0
:101530007E4F0488F589E02D35C09B3009F49DC0AD
:1015400038F4963009F441C09A3009F44CC01DC1FA
:101550009C3009F4CBC0913F09F017C140E450E042
:10156000BD0182EFDF91CF911F910C94440AE0916D
:101570008B01F0918C0133E2139FB001112462536F
:101580007E4F0088F189E02D0DC0E0918B01F09134
:101590008C0183E2189FB001112462537E4F0288B0
:1015A000F389E02DCD01DF91CF911F910994E09156
:1015B0008B01F0918C0133E2139FB001112462532F
:1015C0007E4F0688F789E02DEDCFE0918B01F091F9
:1015D0008C0183E2189FB001112462537E4F008C6E
:1015E000F18DE02DDFCF1F3F09F41FE712969C918C
:1015F000913099F4812F0E94EA05E12FF0E0E85242
:10160000FC4F85818111C1C0E0918B01F0918C016B
:101610000680F781E02D812F47C0923029F5C1E087
:101620008C2F0E944A04CF5FCC30D1F7C12FD0E07D
:10163000C852DC4F8D81811109C0E0918B01F0917E
:101640008C010084F185E02D8FE70995812F0E94A0
:10165000EA058D81811199C0E0918B01F0918C0197
:101660000680F781E02D1FC0933009F08EC0812FD6
:10167000DF91CF911F910C944A0481E01F3FC1F488
:1016800080930F0184EA91E0EEECF1E0DF019C0130
:101690001D9221503040E1F7E0918B01F0918C01D7
:1016A0000284F385E02D8FE7DF91CF911F9109949C
:1016B00080938F051C3008F068C033E2139FF0015F
:1016C0001124E253FE4F108280910F01181710F47D
:1016D00010930F01E0918B01F0918C010284F3854E
:1016E000E02D812F09951092E8034FC082E080938E
:1016F000E9039091EA0394609093EA039091EA03DE
:1017000090619093EA031092EB031330B1F040F430
:10171000113079F01230C9F58091EA03826033C04C
:10172000153071F1B0F0163081F58091EA038E7FAB
:101730002AC08091EA038D7F26C0E0918B01F09151
:101740008C010480F581E02D80E009951092EB0377
:101750001CC0E0918B01F0918C010480F581E02D9B
:1017600081E0099581E080930F0184EA91E0EEEC3D
:10177000F1E0DF019C011D9221503040E1F705C0EE
:101780008091EA0381608093EA03DF91CF911F91FA
:101790000895DC01683810F0685825C0E62FF0E0A5
:1017A00067FF12C0E058F10981E090E001C0880FA6
:1017B000EA95EAF7809514969C91149789231496DC
:1017C0008C93149760E00FC0E656FE4F6491662339
:1017D00011F167FF08C014968C9114978D7F1496B1
:1017E0008C9314976F77FD01369686E0662321F07F
:1017F0009081961301C01082815031968111F6CFED
:10180000BD016C5F7F4F48E050E082E00E94440AD7
:1018100081E090E0089580E090E00895FC01168258
:10182000178210861186128613861482BC016C5FA3
:101830007F4F48E050E082E00C94440ADC016838B5
:1018400010F068582DC0E62FF0E067FF11C0E05897
:10185000F10981E090E001C0880FEA95EAF714965B
:101860009C911497892B14968C93149760E018C060
:10187000E656FE4F6491611109C081E090E0139635
:101880009C938E93129780E090E0089567FF08C0C4
:1018900014968C911497826014968C9314976F779A
:1018A00016968C911697861751F117968C9117976B
:1018B000861729F118968C911897861701F11996B9
:1018C0008C9119978617D9F01A968C911A978617CA
:1018D000B1F01B968C911B97861789F0FD01369607
:1018E00080E090E02191211105C0FD01E80FF91F72
:1018F000668305C0019686309105A1F7BECFBD0174
:101900006C5F7F4F48E050E082E00E94440A81E033
:1019100090E00895CF92DF92EF92FF920F931F9382
:10192000CF93DF936C01EB017B01E40EF51E00E029
:1019300010E0CE15DF0561F06991D601ED91FC91C3
:101940000190F081E02DC6010995080F191FF1CF14
:10195000C801DF91CF911F910F91FF90EF90DF9021
:10196000CF90089583E08093E9008091F20088236E
:1019700019F08AE38093E800089520917F04309164
:101980008004809181049091820428173907A9F07E
:10199000E0918104F0918204E15CFB4F8081209111
:1019A0008104309182042F5F3F4F2F733327309390
:1019B00082042093810490E008958FEF9FEF0895B3
:1019C00020917F0430918004809181049091820461
:1019D0002817390749F0E0918104F0918204E15C15
:1019E000FB4F808190E008958FEF9FEF08958091E5
:1019F0007F04909180042091810430918204821BA5
:101A0000930B8F739927089585ED8093BC00809187
:101A1000BC0084FDFCCF1092B104089540911A04DB
:101A2000262F30E0240F311D21323105DCF42091C6
:101A3000B1042430C9F4FC0180E090E0861758F42A
:101A400030911A042191DC01A850BC4FA30FB11DA5
:101A50002C930196F3CF80911A04680F60931A04B7
:101A600080E0089581E0089582E00895089581E07E
:101A700090E030918E0120918D01321710F480E0BA
:101A800090E0919581959109089580918E019091B2
:101A90008D01891730F48F5F80938E0180E090E094
:101AA00008958FEF9FEF089580918D0190E0209130
:101AB0008E01821B91090895CF92DF92EF92FF92DF
:101AC0000F931F93CF93DF937C01262F972F8A01CB
:101AD0008091D404882391F0C62FD72F6E01C40EB5
:101AE000D51ECC15DD0571F06991D701ED91FC9102
:101AF0000190F081E02DC7010995F3CF642F822F6B
:101B00000E940E0DC801DF91CF911F910F91FF90A0
:101B1000EF90DF90CF900895CF93DF931F92CDB7D2
:101B2000DEB769832091D4042223D1F02091D2041E
:101B3000203240F021E030E0FC013383228380E05A
:101B400090E015C08091D304E82FF0E0EE54FB4FF5
:101B5000998190838F5F8093D3048093D20405C0D2
:101B600061E0CE0101960E940E0D81E090E00F90A1
:101B7000DF91CF9108950895CF93DF93FC01EB019E
:101B8000718182818983878190859A87898725855C
:101B900036854381548163E2769FC00111248253CC
:101BA0009E4FDC0150965C934E931F9756963C9344
:101BB0002E93559764E0769FD0011124A256BE4F14
:101BC0001D921D921D921C921397838594859E876A
:101BD0008D8782858E8381E0DF91CF910895FC010E
:101BE0002281FB012783FC018381FB01808708950B
:101BF000FC0182819381FB01908F878B0895DC012A
:101C0000FB0112968D919C911397908F878B149660
:101C10008D919C911597948F838F16968C91169722
:101C2000858F17968D919C91189794878387089537
:101C3000DC01FB0112968C911297828382818111C3
:101C400010C015968D919C911697908F878B139647
:101C50008D919C911497948F838F17968C91858387
:101C600008958281813079F415968D919C91169713
:101C700090A3878F13968D919C91149792A381A323
:101C800017968C91868F0895DC01FB0112968C913A
:101C90001297838313968C911397848314968D9156
:101CA0009C911597948B838B16968D919C91179789
:101CB000928B818B089593E2899FF0011124E25366
:101CC000FE4F708B6787568B458B94E0899FF001A0
:101CD0001124E256FE4F108211821282138208955F
:101CE0000895089510928F0524E0829FC001112469
:101CF000FC01E256FE4F1082118212821382089577
:101D000025E0FC01208384E391E008950895809309
:101D10008F0508950E949C340F931F93CF93DF93F8
:101D20001F92CDB7DEB78C0169838091170188239C
:101D300059F041E050E0BE016F5F7F4F83E00E94A9
:101D4000ED08181619063CF081E090E0F801938345
:101D5000828380E090E00F90DF91CF911F910F91EF
:101D600008950F931F93CF93DF931F92CDB7DEB7E4
:101D700000917F04109180040F5F1F4F0F73112794
:101D8000809181049091820408171907F9F041E0CD
:101D900050E0BE016F5F7F4F82E00E94860901978D
:101DA00019F4898190E002C08FEF9FEF8F3F2FEFF2
:101DB000920761F0E0917F04F0918004E15CFB4FB9
:101DC00080831093800400937F04D2CF0F90DF9123
:101DD000CF911F910F9108951F920F920FB60F92FE
:101DE00011242F933F934F935F936F937F938F9320
:101DF0009F93AF93BF93EF93FF938091B900887F38
:101E0000803609F49CC068F5883209F45BC090F410
:101E1000803109F454C038F4882309F4F6C08830BE
:101E200009F44DC0F6C0883109F44CC0803209F481
:101E30005DC0EFC0803409F468C048F4803309F411
:101E400055C0883309F0E5C08093AF04D8C0803511
:101E500009F44FC0883509F45DC0883409F0D9C051
:101E6000D6C0883909F4C7C0A8F4883709F467C018
:101E700038F4883609F463C0803709F460C0C9C0FB
:101E8000883809F4B8C0803909F45FC0803809F097
:101E9000C0C05BC0803B09F486C038F4803A09F4C6
:101EA00066C0883A09F47FC0B4C0803C09F4A7C07A
:101EB000883C09F4A4C0883B09F48AC0AAC0809178
:101EC0008C0410C09091AE048091AD04981770F509
:101ED000E091AE0481E08E0F8093AE04F0E0E35712
:101EE000FB4F80818093BB0085EC86C08093AF045C
:101EF0008EC0E091AE0481E08E0F8093AE0480919D
:101F0000BB00F0E0E357FB4F80839091AE048091DB
:101F1000AD046EC0E091AE0481E08E0F8093AE04FC
:101F20008091BB00F0E0E357FB4F80838091B004C9
:101F300081116DC081E080938B0484EA61C083E0ED
:101F40008093B10410923E04CFCF80913E04803242
:101F500008F051C0E0913E0481E08E0F80933E0472
:101F60008091BB00F0E0E25EFB4F8083BDCF85EC4B
:101F70008093BC001092B10480913E04803230F412
:101F8000E0913E04F0E0E25EFB4F108260913E047F
:101F900070E0E0911C04F0911D048EE194E009953D
:101FA00010923E0436C084E08093B10410921B046A
:101FB00010921A04E0911804F09119040995809187
:101FC0001A04811105C081E080931A041092F8036D
:101FD000E0911B0481E08E0F80931B04F0E0E85039
:101FE000FC4F80818093BB0090911B0480911A0468
:101FF000981708F479CF85E88093BC000AC085EC77
:102000008093BC001092B10404C01092AF040E94EF
:10201000040DFF91EF91BF91AF919F918F917F91AF
:102020006F915F914F913F912F910F900FBE0F9045
:102030001F9018951092B10481E08093B004109223
:102040008B0461E082E00E94B81761E083E00E94A7
:10205000B817E9EBF0E080818E7F808380818D7FEF
:10206000808388E48093B80085E48093BC00089561
:102070004F925F926F927F928F929F92AF92BF9298
:10208000CF92DF92EF92FF920F931F93CF93DF9344
:10209000CDB7DEB72C970FB6F894DEBF0FBECDBF1D
:1020A000009709F49BC38C0160919D0170E080E072
:1020B00090E00E94B9322AE037ED43E25CE30E94EF
:1020C000AD3369837A838B839C83F8018080918010
:1020D000A280B380B7FE08C0B094A094909480947E
:1020E000811C911CA11CB11CC501B4010E94B93214
:1020F0006B017C01609196017091970180E090E006
:102100000E94B7322B013C0126E636E646E65FE345
:102110000E94AD3329813A814B815C810E94AD33AD
:102120006D837E838F8398879B01AC01C701B601C5
:102130000E94A83387FDCBC0A301920169817A81F7
:102140008B819C810E94AD3369877A878B879C87BE
:1021500020E030E040E85FE30E9498319B01AC0151
:10216000C701B6010E94053287FFB1C06D817E8133
:102170008F8198850E9481326B017C01A5019401B9
:10218000261B370B480B590BAEE3B0E00E945431CD
:102190004B015C0169857A858B859C850E94813223
:1021A0009B01AC012C193D094E095F09C501B40121
:1021B0000E94353169017A01FFEFCF1ADF0AEF0A79
:1021C000FF0A560161E08DE00E941718C114D10486
:1021D00011F460E005C02FEFC216D10429F461E0CC
:1021E0008DE00E94B8178AC0ECE2F8E0E4918E2FEF
:1021F00090E0FC013197EE30F10508F062C0EE5539
:10220000FF4F0C948F3484B5806884BDC7BC76C002
:1022100084B5806284BDC8BC71C080918000806834
:1022200080938000D0928900C092880067C080911E
:102230008000806280938000D0928B00C0928A00E0
:102240005DC080919000806880939000D09299004A
:10225000C092980053C0809190008062809390005B
:10226000D0929B00C0929A0049C0809190008860F3
:1022700080939000D0929D00C0929C003FC08091BE
:10228000C00080688093C0008091C0008F7B8093E5
:10229000C000C092CF0032C08091C00080628093A5
:1022A000C000C092D0002AC08091C2008860809394
:1022B000C2008091C2008B7F8093C200C092D20086
:1022C0001DC030E8A316B1040CF089CF82CFA30162
:1022D000920169817A818B819C810E94AD3320E0DB
:1022E00030E040E85FE30E9498319B01AC01C701F8
:1022F000B6010E94A83387FD6CCF71CF6091980121
:1023000070E060587109072E000C880B990B0E9431
:10231000B93220E030E04FE753E40E940F326B0106
:102320007C016093F4037093F5038093F60390931C
:10233000F70320E030E0A9010E94A83387FD1DC00B
:10234000A701960160E070E080E89FE30E94983169
:102350006093F0037093F1038093F2039093F3037F
:1023600080E090E0A0E8BFE38093EC039093ED035E
:10237000A093EE03B093EF0323C020E030E0A90167
:10238000C701B6010E94053287FF1AC080E090E0C5
:10239000A0E8BFE38093F0039093F103A093F203CE
:1023A000B093F3039C01AD01C701B6010E949931BE
:1023B0006093EC037093ED038093EE039093EF032F
:1023C00080919501982F907487FFD9C1F801C08042
:1023D000D180E280F380911142C185FDAAC01C1416
:1023E0001D041E041F040CF047C040E060E070E0D4
:1023F00081E995E00E9411178090960190909701D5
:10240000A12CB12CC501B4010E94B7322B013C01B3
:10241000209191013091920140919301509194014A
:102420000E94AD330E9481326B017C012091EC034C
:102430003091ED034091EE035091EF03C301B201DF
:102440000E94AD330E9481329B01AC012C193D09E1
:102450004E095F09F80160817181828193810E9438
:102460006B34A50194010E943531CA01B9016C0D8C
:102470007D1D8E1D9F1D81C1C114D104E104F10495
:1024800009F44CC08090960190909701A12CB12C3A
:10249000C501B4010E94B7322B013C01209191018A
:1024A0003091920140919301509194010E94AD337B
:1024B0000E94813269837A838B839C83F094E094B9
:1024C000D094C094C11CD11CE11CF11C2091F003DC
:1024D0003091F1034091F2035091F303C301B20133
:1024E0000E94AD330E94813229813A814B815C8107
:1024F000621B730B840B950BA70196010E946B3432
:10250000A50194010E94353169817A818B819C817A
:10251000620F731F841F951F40E003C040E060E01E
:1025200070E081E995E00E94111740E060E070E002
:102530003BC1E0919601F09197011C141D041E040B
:102540001F04DCF44F019694879480919901909137
:102550009A01880E991EA12CB12C2F01612C712C8F
:10256000C301B201681979098A099B09A70196017B
:102570000E946B34A301920119C0C114D104E1047B
:10258000F10411F14F0196948794809199019091F3
:102590009A01881A990AA12CB12CA5019401C701AE
:1025A000B6010E946B349F0140E050E00E9435313B
:1025B000CA01B901680D791D8A1D9B1DF801608350
:1025C00071838283938303C0BF017695679540E052
:1025D00081E995E00E941117F80164817581868177
:1025E0009781E0919601F09197011616170618064B
:1025F0001906CCF46F01D694C794209199013091BB
:102600009A01C20ED31EE12CF12C4F01A12CB12C4A
:10261000240135014C185D086E087F089B01AC0150
:10262000C301B20199C0611571058105910599F049
:102630006F01D694C7942091990130919A01C21AE2
:10264000D30AE12CF12CA70196010E946B349F0163
:1026500040E050E085C0BF01769567958EC0F7FCDD
:1026600002C02F9A01C02F988090960190909701F8
:10267000A12CB12CC501B4010E94B7322091910167
:102680003091920140919301509194010E94AD3399
:102690000E9481326B017C01F801208131814281ED
:1026A000538157FF07C050954095309521953F4F76
:1026B0004F4F5F4FC501B4016C197D098E099F0909
:1026C0000E946B34A50194010E943531CA01B90101
:1026D0006C0D7D1D8E1D9F1DF801608371838283AB
:1026E000938340E081E995E00E941117F80184810D
:1026F0009581A681B781B7FD02C02E9A01C02E98A0
:102700008090960190909701A12CB12CC501B40145
:102710000E94B73220919101309192014091930132
:10272000509194010E94AD330E9481326B017C0173
:10273000F801248135814681578157FF07C05095A4
:102740004095309521953F4F4F4F5F4FC501B401E4
:102750006C197D098E099F090E946B34A5019401B3
:102760000E943531CA01B9016C0D7D1D8E1D9F1D62
:10277000F801648375838683978340E015C09111C7
:1027800009C085FF07C0E0909601F0909701F6948C
:10279000E79402C0E12CF12C40E0B70181E995E01B
:1027A0000E94111740E0B70180E995E02C960FB622
:1027B000F894DEBF0FBECDBFDF91CF911F910F9177
:1027C000FF90EF90DF90CF90BF90AF909F908F9051
:1027D0007F906F905F904F900C9411172C960FB6CE
:1027E000F894DEBF0FBECDBFDF91CF911F910F9147
:1027F000FF90EF90DF90CF90BF90AF909F908F9021
:102800007F906F905F904F90089560918F017091CD
:10281000900180E090E00E94B7329B01AC0160E043
:102820007EEF8FEF96E40E940F3208952F923F9231
:102830004F925F926F927F928F929F92AF92BF92D0
:10284000CF92DF92EF92FF920F931F93CF93DF937C
:10285000CDB7DEB729970FB6F894DEBF0FBECDBF58
:10286000998788874B012B831D830C831701DF8297
:10287000CE82042F10E08C819D816C01E12CF12C23
:10288000E885F985F7FD2BC0C8019695982F882714
:1028900097958795BF01681B790B072E000C880B55
:1028A000990B0E94B9322B013C01C701B6010E946D
:1028B000B7329B01AC01C301B2010E940F322B0160
:1028C0003C01C8019695982F8827979587959A83FC
:1028D0008983EB8190E8E99FB00111242AC0B801F7
:1028E0007695762F662777956795E885F9856E0F3B
:1028F0007F1F072E000C880B990B0E94B9322B0109
:102900003C01C701B6010E94B7329B01AC01C30173
:10291000B2010E940F322B013C0160E86003C0014C
:10292000619F900D11249A8389832B816203B001EA
:10293000112488859985681B790B072E000C880B5C
:10294000990B0E94B9326B017C01B10180E090E0EB
:102950000E94B7329B01AC01C701B6010E940F3241
:102960006B017C018A149B0408F43FC08E819F8117
:102970008A0D9B1D88169906C0F50C811D810A0DD4
:102980001B1D8016910690F4B4016A197B0980E042
:1029900090E00E94B7329B01AC01C301B2010E94DA
:1029A000AD330E94813289819A811CC082199309BA
:1029B00088159905E8F48A189B08EE81FF818E1A24
:1029C0009F0AB401620D731D80E090E00E94B7324F
:1029D0009B01AC01C701B6010E94AD330E94813258
:1029E00088859985860F971F05C080E090E002C01A
:1029F0008885998529960FB6F894DEBF0FBECDBFA6
:102A0000DF91CF911F910F91FF90EF90DF90CF90CA
:102A1000BF90AF909F908F907F906F905F904F90FE
:102A20003F902F9008958F929F92AF92BF92CF9236
:102A3000DF92EF92FF92CF93DF934B015C01EA01AB
:102A40000E940B066B017C01DE01A50194010E942E
:102A50005F310E94B932A70196010E94AD3320E098
:102A600030E040E051E40E94AD3320E030E040E24D
:102A700051E40E94AD3320E030E040E85BE30E9487
:102A8000AD330E9481320E943006909580957095FA
:102A900061957F4F8F4F9F4FDF91CF91FF90EF90C8
:102AA000DF90CF90BF90AF909F908F9008954F92FE
:102AB0005F926F927F928F929F92AF92BF92CF92CE
:102AC000DF92EF92FF92CF93DF9300D000D0CDB78B
:102AD000DEB74B015C0157FF02C04D5F5F4F6A01DB
:102AE000D594C794D594C7940E940B0669837A83C2
:102AF0008B839C839B01AC01C501B4010E94AD3363
:102B000020E030E040E251E40E94AD332B013C0173
:102B100020E030E040E85FE30E94A8330D2C000C79
:102B2000EE08FF0818161CF4C701B60128C020E003
:102B300030E040E85FEBC301B2010E94053287FF3D
:102B400006C0C701B6010E943006CB011EC0C701F6
:102B5000B6010E94B9329B01AC01C501B4010E94CB
:102B6000AD3329813A814B815C810E94AD3320E0F5
:102B700030E040E251E40E94AD330E9481320E9475
:102B8000300688279927861B970B0F900F900F9080
:102B90000F90DF91CF91FF90EF90DF90CF90BF909B
:102BA000AF909F908F907F906F905F904F9008951F
:102BB0008F929F92AF92BF92CF92DF92EF92FF924D
:102BC0004B015C01BA01550F880B990B0E94B93279
:102BD0006B017C0120E030E0A901C501B4010E9435
:102BE000A833A501940118160CF05058C701B6017E
:102BF0000E94AD336B017C010E940B069B01AC016E
:102C0000C701B6010E94AD3320E030E040E851E456
:102C10000E94AD3320E030E040E251E40E94AD3349
:102C200020E030E040E05DE30E94AD330E9481325D
:102C30000E9430066B017C0120E030E0A901C50153
:102C4000B4010E94A83318162CF4882799278C19F0
:102C50009D090DC020E030E0A901C501B4010E942A
:102C6000053287FF02C0C60102C080E090E0FF90FD
:102C7000EF90DF90CF90BF90AF909F908F9008958E
:102C8000009769F0FC0101900020E9F73197AF014E
:102C9000481B590BBC018CED94E00C948A0C80E02D
:102CA00090E008959091DB0489B18C70892B90E0BD
:102CB0009C0135952795359527952093DB04409108
:102CC000D7045091D8046091D9047091DA04FC01C2
:102CD000E75CFE4F8081082E000C990BAA0BBB0B02
:102CE000840F951FA61FB71F8093D7049093D80415
:102CF000A093D904B093DA048091D6040895E091AA
:102D0000DC04F091DD040190F081E02D682F8CED62
:102D100094E00994CF93DF938DE00E947F16EC013D
:102D20008AE00E947F168C0F9D1FDF91CF9108953E
:102D30008F929F92AF92BF92EF92FF920F931F9349
:102D4000CF93DF93CDB7DEB7A1970FB6F894DEBF70
:102D50000FBECDBF162F042F19A2423008F40AE08F
:102D60007E0121E2E20EF11C802E912CA12CB12CCF
:102D7000612FA50194010E946731029F101911244F
:102D800081E0E81AF1081A3014F4105D01C0195CF2
:102D9000F7011083122F732FCA01232B242B252B0D
:102DA00039F7C7010E944016A1960FB6F894DEBF0E
:102DB0000FBECDBFDF91CF911F910F91FF90EF908C
:102DC000BF90AF909F908F900895CF92DF92EF9237
:102DD000FF92CF93DF9397FF19C06B017C018DE2C7
:102DE0000E947F16EC0166277727CB016C197D09BD
:102DF0008E099F094AE00E9498168C0F9D1FDF9153
:102E0000CF91FF90EF90DF90CF9008954AE0DF914F
:102E1000CF91FF90EF90DF90CF900C9498160C9488
:102E200040160F931F93CF93DF938B01D091B8007F
:102E30002CE02093B800FC01C08181E08093D40491
:102E4000C09396051092D3041092D204442311F03B
:102E500060E601C060E48AEE94E00E948C0DB80147
:102E600084E0769567958A95E1F78AEE94E00E9472
:102E70008C0DB80194E0660F771F9A95E1F78AEE02
:102E800094E00E948C0D8091D204813208F046C0FB
:102E90009091B1049111FCCF92E09093B10491E034
:102EA0009093B0049FEF9093AF041092AE04809380
:102EB000AD04A2EBB4E02DE834E0F9019E2F921BA3
:102EC000981718F49D919193F9CF10928C048091EA
:102ED0008C04CC0FC82BC0938C0480918B04813060
:102EE00061F410928B0480918C048093BB008091DC
:102EF000BC0083FDF8CF85EC01C085EE8093BC005B
:102F00008091B1048230E1F38091AF048F3F31F0C2
:102F10008091AF04803211F08091AF041092D304FD
:102F20001092D2041092D404D093B800DF91CF91C4
:102F30001F910F910895CF93DF93BC01990F880BD8
:102F4000990B0E94E516EC010E948A168C0F9D1FBA
:102F5000DF91CF910895BC01990F880B990B0C94C8
:102F6000E516682F70E080E090E04AE00C94981637
:102F7000362F90E0FC01E15EF74F4491FC01E050F8
:102F8000F84F2491FC01EF51F84F8491882309F404
:102F90004DC04423C1F150E0FA013197EE30F10504
:102FA00090F5E055FF4F0C948F34909180009F77FF
:102FB00003C0909180009F7D9093800024C094B5C1
:102FC0009F7702C094B59F7D94BD1DC090919000E5
:102FD0009F7707C0909190009F7D03C090919000D3
:102FE000977F909390000FC09091C0009F7703C08F
:102FF0009091C0009F7D9093C00005C09091C20049
:10300000977F9093C200E82FF0E0EE0FFF1FED5284
:10301000F84FA591B4918FB7F894EC91311103C09A
:1030200020952E2301C02E2B2C938FBF0895CF9374
:10303000DF9390E0FC01E050F84F2491FC01EF5148
:10304000F84F8491882361F190E0880F991FFC016B
:10305000EB53F84FC591D491FC01ED52F84FA59177
:10306000B491611109C09FB7F8948881209582239B
:103070008883EC912E230BC0623061F49FB7F894E3
:103080003881822F809583238883EC912E2B2C937B
:103090009FBF06C08FB7F894E8812E2B28838FBF7F
:1030A000DF91CF9108953FB7F89480918704909174
:1030B0008804A0918904B0918A0426B5A89B05C014
:1030C0002F3F19F00196A11DB11D3FBFBA2FA92FA7
:1030D000982F8827820F911DA11DB11DBC01CD0124
:1030E00042E0660F771F881F991F4A95D1F7089510
:1030F000CF92DF92EF92FF92CF93DF936B017C012F
:103100000E945318EB01C114D104E104F10479F0D9
:103110000E9453186C1B7D0B683E7340A0F381E046
:10312000C81AD108E108F108C851DC4FECCFDF9193
:10313000CF91FF90EF90DF90CF9008952FB7F89444
:103140006091830470918404809185049091860439
:103150002FBF08950F931F930E949E186093E4045D
:103160007093E5048093E6049093E704E091DC0417
:10317000F091DD040084F185E02D8CED94E009955B
:1031800097FF1FC00E949E180091E4041091E5046F
:103190002091E6043091E704DC01CB01801B910B08
:1031A000A20BB30B0091E0041091E1042091E20422
:1031B0003091E30480179107A207B307B8F28FEFAD
:1031C0009FEF1F910F910895FF920F931F93CF933D
:1031D000DF9300D000D0CDB7DEB70E94AA18FC0163
:1031E00097FD11C08D32910591F0C0970A9778F044
:1031F000E091DC04F091DD040680F781E02D8CED98
:1032000094E00995EACF60E070E0CB014CC020E08B
:1032100030E0A901F12CE130F105F1F0ED32F105DA
:10322000C9F0CF01C0970A97B8F4AAE0B0E00E94B5
:1032300054318F01FF0F220B330BDC01CB01800FC8
:10324000911FA21FB31F9C01AD01205331094109F9
:10325000510902C0FF24F394E091DC04F091DD04F5
:103260000680F781E02D8CED94E029833A834B832F
:103270005C8309950E94AA18FC01C09729813A81B4
:103280004B815C810A9738F2E130F10521F2FF2091
:1032900041F066277727CB01621B730B840B950BDC
:1032A00002C0CA01B9010F900F900F900F90DF91EB
:1032B000CF911F910F91FF9008951F920F920FB61B
:1032C0000F9211242F933F938F939F93AF93BF93AC
:1032D0008091830490918404A0918504B091860428
:1032E0003091A40523E0230F2D3720F40196A11D72
:1032F000B11D05C026E8230F0296A11DB11D209324
:10330000A4058093830490938404A0938504B093D0
:1033100086048091870490918804A0918904B091DB
:103320008A040196A11DB11D80938704909388049F
:10333000A0938904B0938A04BF91AF919F918F911C
:103340003F912F910F900FBE0F901F901895CF9324
:10335000DF93CDB7DEB7C454D1090FB6F894DEBF02
:103360000FBECDBF789484B5826084BD84B5816082
:1033700084BD85B5826085BD85B5816085BD809140
:103380006E00816080936E001092810080918100B8
:1033900082608093810080918100816080938100B0
:1033A0008091800081608093800080919100826094
:1033B0008093910080919100816080939100809131
:1033C00090008160809390008091C1008460809320
:1033D000C1008091C10082608093C1008091C100D2
:1033E00081608093C1008091C30081608093C3009D
:1033F0008091C00082608093C0008091C200816093
:103400008093C20080917A00846080937A008091DA
:103410007A00826080937A0080917A008160809344
:103420007A0080917A00806880937A0010928A01F5
:1034300081E08093D70080EA8093D80082E189BD43
:1034400009B400FEFDCF61E070E080E090E00E94F2
:10345000781880E98093D8008CE08093E200109285
:10346000E0001092A2031092A1031092A803109200
:10347000A9031092AA031092AB0310929C0310921E
:103480009B031092B0031092B1031092B2031092FA
:10349000B3031092B8031092B9031092BA031092BA
:1034A000BB031092B4031092B5031092B6031092AE
:1034B000B7031092BC031092BD031092BE0310928A
:1034C000BF0342E0BE01615F7F4F80E090E00E9459
:1034D0002E078F8598898A3F910509F407C18AEFE5
:1034E00090E09E878D8742E0BE01635F7F4F80E062
:1034F00090E00E94FF0619821A821B821C8244E01F
:10350000BE016F5F7F4F82E090E00E94FF0688E37C
:1035100094E09E878D8742E0BE01635F7F4F86E027
:1035200090E00E94FF0684E6898B41E0BE016F5E59
:103530007F4F88E090E00E94FF0641E0BE016F5E91
:103540007F4F8BE090E00E94FF0641E0BE016F5E7E
:103550007F4F8CE090E00E94FF0641E0BE016F5E6D
:103560007F4F80E190E00E94FF0641E0BE016F5E68
:103570007F4F8DE090E00E94FF0682E3898B41E05F
:10358000BE016F5E7F4F89E090E00E94FF0641E040
:10359000BE016F5E7F4F8AE090E00E94FF0641E02F
:1035A000BE016F5E7F4F8EE090E00E94FF0686E4D2
:1035B000898B41E0BE016F5E7F4F8FE090E00E94FB
:1035C000FF061E861D8642E0BE01635F7F4F81E1DC
:1035D00090E00E94FF068FEF97E09E878D8742E084
:1035E000BE01635F7F4F83E190E00E94FF068FEF93
:1035F0009FE09E878D8742E0BE01635F7F4F85E13C
:1036000090E00E94FF0610E8198B41E0BE016F5E5A
:103610007F4F87E190E00E94FF0681E0898B41E0C7
:10362000BE016F5E7F4F88E190E00E94FF0680E65A
:1036300099E0A0E0B0E089839A83AB83BC8344E047
:10364000BE016F5F7F4F89E190E00E94FF06198BFA
:1036500041E0BE016F5E7F4F8DE190E00E94FF066A
:103660001E861D8642E0BE01635F7F4F8AE290E0C6
:103670000E94FF0642E0BE01635F7F4F8EE290E052
:103680000E94FF0642E0BE01635F7F4F82E390E04D
:103690000E94FF0642E0BE01635F7F4F86E390E039
:1036A0000E94FF068FEF93E09E878D8742E0BE0168
:1036B000635F7F4F8CE290E00E94FF0642E0BE0114
:1036C000635F7F4F80E390E00E94FF0642E0BE010F
:1036D000635F7F4F84E390E00E94FF0642E0BE01FB
:1036E000635F7F4F88E390E00E94FF0642E06BE952
:1036F00071E086E090E00E942E0744E06BE773E003
:1037000089E190E00E942E0741E06DE971E088E0D8
:1037100090E00E942E0741E062E873E089E090E0CB
:103720000E942E0741E060E873E08AE090E00E948A
:103730002E0741E065E873E08BE090E00E942E07E1
:1037400041E064E873E08CE090E00E942E0741E0E5
:1037500063E873E08DE090E00E942E0741E061E8AD
:1037600073E08EE090E00E942E0741E066E873E08F
:103770008FE090E00E942E0741E06FE773E080E168
:1037800090E00E942E0741E068E971E087E190E057
:103790000E942E0741E067EA73E088E190E00E9412
:1037A0002E0742E069E971E081E190E00E942E0776
:1037B00042E066E971E083E190E00E942E0742E07A
:1037C00069E773E085E190E00E942E07809179031C
:1037D00090917A03909397018093960141E065E977
:1037E00071E08DE190E00E942E0742E063EA73E011
:1037F0008AE290E00E942E0742E065EA73E08CE2E4
:1038000090E00E942E0742E06CEA73E08EE290E0C6
:103810000E942E0742E06EEA73E080E390E00E948F
:103820002E0742E06DE973E082E390E00E942E07EC
:1038300042E06FE973E084E390E00E942E0742E0EB
:1038400067E973E086E390E00E942E0742E069E9B1
:1038500073E088E390E00E942E0760917B037091F3
:103860007C0380917D0390917E030E94B93220E019
:1038700030E044EB53E40E940F326B017C018091F5
:103880009B0190919C01BC01990F880B990B0E94A0
:10389000B9329B01AC01C701B6010E94AD330E9451
:1038A00081326093720370937303809374039093D7
:1038B00075036B017C01F594E794D794C794C0928B
:1038C000C003D092C103E092C203F092C30362E04E
:1038D00080E00E94171862E081E00E9417181092A1
:1038E000D604C092D704D092D804E092D904F092C2
:1038F000DA041092DB044A9B05C08091DB048160EE
:103900008093DB044B9B05C08091DB048260809335
:10391000DB04809169008F7C806180936900EA9A62
:10392000809169008F73806480936900EB9A60E0F6
:1039300082E10E94171860E083E10E94171860E09E
:1039400084E10E94171860E085E10E94171862E088
:1039500084E00E94171862E086E10E94171862E076
:1039600087E10E94171862E08CE00E94171862E05D
:1039700086E00E94171862E087E00E94171862E054
:1039800088E00E94171888E191E090938C01809361
:103990008B0188EC94E0909393058093920585E6E3
:1039A0009AE09093950580939405279A0091790366
:1039B00010917A031093900100938F011093970157
:1039C000009396016091990170919A0180E090E0D6
:1039D0000E94B7326B017C01B80180E090E00E9448
:1039E000B7329B01AC01C701B6010E940F32609350
:1039F000910170939201809393019093940180912F
:103A00009501182F117080FD05C020E030E04AEFCD
:103A100054E404C020E030E04AE754E46091080137
:103A20007091090180910A0190910B010E94AD33C0
:103A3000609308017093090180930A0190930B0130
:103A4000111105C020E030E04AEF54E404C020E04A
:103A500030E04AE754E460910401709105018091DF
:103A60000601909107010E94AD33609304017093A9
:103A700005018093060190930701111105C020E014
:103A800030E04AEF54E404C020E030E04AE754E478
:103A900060910001709101018091020190910301F8
:103AA0000E94AD3360930001709301018093020185
:103AB0009093030180E68093910510928E011092FD
:103AC0008D011092D3041092D2040E941A1081E644
:103AD000809390051092D3041092D2040E941A1081
:103AE00041E060E070E081E995E00E94111741E05B
:103AF00060E070E080E995E00E941117269A61E08D
:103B00008DE00E94171813E061E08DE00E94B81765
:103B100064E170E080E090E00E94781860E08DE061
:103B20000E94B81764E170E080E090E00E9478188D
:103B3000115051F710928D0310928E0310928F0343
:103B4000109290031092910310929203109293039B
:103B5000109294038DE893E00E9438108091C00386
:103B60009091C103A091C203B091C303F8948093D4
:103B7000D7049093D804A093D904B093DA0478942E
:103B800010928C0310928B038FEF97E09093780341
:103B90008093770380919801809376030E94531855
:103BA0006093C4037093C5038093C6039093C703C7
:103BB0000E9453186093FA047093FB048093FC04F2
:103BC0009093FD040091C8031091C9032091CA038A
:103BD0003091CB036B017C01C01AD10AE20AF30ACF
:103BE000C092F604D092F704E092F804F092F9043F
:103BF0000091C4031091C5032091C6033091C703FF
:103C00006B017C01C01AD10AE20AF30A40EDC41626
:103C100047E0D406E104F10410F40C947F30609383
:103C2000C4037093C5038093C6039093C703F894AD
:103C30008091D7049091D804A091D904B091DA046E
:103C40007894C090C003D090C103E090C203F0907C
:103C5000C3038C199D09AE09BF098093B8039093E3
:103C6000B903A093BA03B093BB038093B0039093BE
:103C7000B103A093B203B093B303460157018094FC
:103C80009094A094B094C818D908EA08FB086091F1
:103C9000A8037091A9038091AA039091AB03A70197
:103CA00096010E946B342FEF3FEF40E050E00E94FE
:103CB0003531BA01A901480D591D6A1D7B1D40937C
:103CC000B4035093B5036093B6037093B703109198
:103CD000A70315FB882780F916FD826017FF02C035
:103CE00084600BC0813049F44093B0035093B1031A
:103CF0006093B2037093B3032AC0823029F4A09179
:103D0000A103B091A2030DC0833029F4A0919B03BD
:103D1000B0919C0306C08430D1F4A0919503B0917A
:103D20009603A70196010E945F312FEF3FE040E02C
:103D300050E00E943531820E931EA41EB51E809263
:103D4000B0039092B103A092B203B092B3038090FB
:103D5000B0039090B103A090B203B090B3038091F0
:103D6000030590910405A0910505B0910605809288
:103D7000030590920405A0920505B09206052091D6
:103D80000B05222309F449C00091340554E0059F36
:103D900090011124B9016D5F7A4F7B01A501940157
:103DA000281B390B4A0B5B0BCA01B9010E94B932BF
:103DB000D70119966D937D938D939C931C97F02E4C
:103DC0003AE0E32E60E070E0CB01B4E0FB9EF0014E
:103DD0001124ED5FFA4F21853285438554850E9479
:103DE0009931FF2011F0FA9402C029E0F22EEA94F2
:103DF000E110EBCF20E030E040E251E40E940F32CE
:103E00000F5F0A3018F40093340502C01092340595
:103E10006CA77DA78EA79FA70FC081E080930B059D
:103E200010920705109208051092090510920A05D4
:103E30001CA61DA61EA61FA620913505309136058D
:103E400040913705509138058CA59DA5AEA5BFA51D
:103E50008093350590933605A0933705B0933805C8
:103E600080913D05882309F444C000918E05E4E06B
:103E70000E9FC0011124BC01645F7A4F7B016CA5C9
:103E80007DA5CD010E949831D701D2966D937D9387
:103E90008D939C93D597F02E84E1E82E60E070E03E
:103EA000CB01B4E0FB9EF0011124E45FFA4F22A99C
:103EB00033A944A955A90E949931FF2011F0FA9421
:103EC00002C0B3E1FB2EEA94E110EBCF20E030E03A
:103ED00040EA51E40E940F320F5F043118F400935E
:103EE0008E0502C010928E056CAB7DAB8EAB9FAB86
:103EF0000FC081E080933D051092390510923A057C
:103F000010923B0510923C051CAA1DAA1EAA1FAACE
:103F100080918F058823F1F110FD02C00C94942745
:103F20000E9405149B01AC0160E070E080E094E425
:103F30000E940F326B017C016091860370E080E08B
:103F400090E00E94B9329B01AC01C701B6010E940A
:103F5000AD3320E030E048EC52E40E940F320E9482
:103F600081326B017C01AB01C501B4010E941315C4
:103F70002B013C016091B4037091B5038091B603AD
:103F80009091B703A6010E9413156EA37FA388A783
:103F900099A7D1C7E2EAF1E0FBA7EAA71B8A1A8A30
:103FA0001EA21FA218A619A6412C512C32010A8963
:103FB0001B890F5F1F4F1B8B0A8B43E29801429FA7
:103FC0008001439F100D112402531E4FD8018C9184
:103FD0008370833009F09BC70E9405146E8B7F8B22
:103FE000888F998FF80121853285A789B08D0E942D
:103FF00095342FEF3FE740E050E00E943531CA0191
:10400000B9010E94B9322E893F89488D598D0E948D
:104010000F320E9481329B01AC01D80119960D909C
:10402000BC91A02DBF8FAE8FF801278C30A0838567
:104030009485059728F4A4E0CA2ED12CD486C38693
:1040400003E2EA88FB880E9DF0010F9DF00D11241C
:10405000E253FE4FE1818E2F90E0FC013197ED306D
:10406000F10508F03EC7EA5AFF4F0C948F340E94C6
:1040700005146E8B7F8B888F998F43E22A893B8949
:10408000429FC001439F900D1124BC0162537E4F9B
:104090001B01DB0119968D909C901A975596AD9057
:1040A000BC9056971F96CD90DC9050975196ED900E
:1040B000FC90529753960D911C91549714962C9105
:1040C000149713964C91139757968D919C915897EE
:1040D000EAA5FBA5608171810E9416149401DC01A0
:1040E0000E9495342FEF3FE740E050E00E943531C9
:1040F000CA01B9010E94B9322E893F89488D598D74
:104100000E940F320E9481320E9430069B01AC0156
:10411000A0918503B0E00E94543124E630E040E0F5
:1041200050E00E943531421A530A640A750A7EC172
:104130000E9405146E8B7F8B888F998F63E2E62E29
:10414000CA88DB88EC9CF001ED9CF00D1124E25351
:10415000FE4F018512851B8F0A8FC588D688DF8E9A
:10416000CE8EE784F088FBA2EAA20189128919ABFE
:1041700008AB038914891CAF0BAF84809380AAA578
:10418000BBA52D903C90078510896085A7800A2CDF
:10419000000CBB08062E000C770B6A197B09CB01BB
:1041A000770FAA0BBB0B6627782F892F9A2F0E94B7
:1041B000B9326B017C01B80180E090E00E94B73217
:1041C00020E030E04AE754E40E940F329B01AC014A
:1041D000C701B6010E940F326B017C01C101B80119
:1041E0000E947B34BC0180E090E00E94B73220E066
:1041F00030E04AE754E40E940F329B01AC01C70152
:10420000B6010E94AD330E948132BA2CAA24C501A6
:10421000860F971FAE8CBF8CCAA0DBA0E8A8F9A8B8
:104220000BAD1CAD282D492DB1010E9416142A8D0D
:104230003B8DDC010E9495342FEF3FE740E050E0DA
:104240000E943531CA01B9010E94B9322E893F89D5
:10425000488D598D0E940F320E9481320E94300693
:10426000461A570A680A790A3CC60E9405146A8FE2
:104270007B8F8C8F9D8F53E2C52EEA89FB89CE9E62
:10428000C001CF9E900D11248C0102531E4F1801C6
:10429000D80119960D90BC91A02DBF8FAE8FF8015B
:1042A000038CF48DE02DFBA3EAA3D8015D96BC91AD
:1042B000B8ABF80183849484A588B688C784D08875
:1042C000E188F2880389148924814381AAA5BBA5CA
:1042D0000D90BC91A02DBF8BAE8B8789908DBD01B9
:1042E0000E9416148C01B40180E090E00E94B73265
:1042F00020E030E04AE754E40E940F329B01AC0119
:1043000060E070E080E89FE30E940F326B017C0167
:104310008E899F89B4010E947B34BC0180E090E0CB
:104320000E94B73220E030E04AE754E40E940F32A6
:104330009B01AC01C701B6010E94AD336B017C014A
:10434000B8A96B2F70E080E090E00E94B73220E0C7
:1043500030E040E85BE30E94AD339B01AC01C70154
:10436000B6010E9499312BED3FE049EC50E40E94E8
:10437000AD330E941A349B01AC01EAA1FBA16F018D
:10438000FF0FEE08FF08B801110F880B990B22965A
:104390002FAF229725963FAF259723964FAF2397B0
:1043A00024965FAF24970E94B93222962FAD2297B0
:1043B00025963FAD259723964FAD239724965FAD65
:1043C00024970E94AD330E948132CB01770FAA0B54
:1043D000BB0BA7019601280F391F4A1F5B1FAE8D2B
:1043E000BF8D0E9454312FEF3FE740E050E00E9424
:1043F0003531CA01B9010E94B9322A8D3B8D4C8DED
:104400005D8D0E940F320E9481329B01AC01A09110
:104410008403B0E00E94543124E630E040E050E0F4
:104420000E943531420E531E641E751ED101169630
:104430008C9182FF56C5C301B2010E94B9326B0153
:104440007C01F1016585768580E090E00E94B732BD
:104450002BED3FE049EC50E40E94AD3320E030E02A
:1044600040E058E30E94AD330E940A329B01AC0148
:104470006EA17FA188A599A522962FAF2297259698
:104480003FAF259723964FAF239724965FAF24978E
:104490000E94B9324B015C0122962FAD22972596DE
:1044A0003FAD259723964FAD239724965FAD249774
:1044B000C701B6010E94AD339B01AC01C501B40137
:1044C0000E9499310E9481326EA37FA388A799A789
:1044D000D1011D966D917C911E9780E090E00E9425
:1044E000B7322BED3FE049EC50E40E94AD3320E0C1
:1044F00030E040E058E30E94AD330E941A349B0143
:10450000AC01C701B6010E94AD330E9481322B017C
:104510003C01E7C40E9405146A8F7B8F8C8F9D8FAE
:1045200043E2E42ECA88DB88EC9CF001ED9CF00DA0
:104530001124E253FE4F018512851F8F0E8F238DAC
:10454000348DA901330F660B770B4AA35BA36CA3D1
:104550007DA3558D58AB23843484A588B688C78441
:10456000D088E188F2880389148924814381AAA52F
:10457000BBA50D90BC91A02DBF8BAE8B8789908D74
:10458000BD010E941614BC01990F880B990B0E9463
:10459000B9324B015C01B10180E090E00E94B7327A
:1045A00020E030E04AE754E40E940F329B01AC0166
:1045B00060E070E080E89FE30E940F326B017C01B5
:1045C0008E899F89B1010E947B34BC0180E090E01C
:1045D0000E94B73220E030E04AE754E40E940F32F4
:1045E0009B01AC01C701B6010E94AD336B017C0198
:1045F000B8A96B2F70E080E090E00E94B73220E015
:1046000030E040E85BE30E94AD339B01AC01C701A1
:10461000B6010E9499312BED3FE049EC50E40E9435
:10462000AD330E941A346B017C0120E030E0A90117
:104630000E94A83387FF0CC020E030E0A901C70129
:10464000B6010E94053287FF05C0EFEFEAAF02C056
:10465000F1E0FAAFCAAC6C2DCC0C770B880B990B40
:104660000E94B9329B01AC01C501B4010E94AD3377
:104670000E948132CB01770FAA0BBB0BE1C10E94D4
:1046800005146E8F7F8F88A399A303E2EA88FB88C5
:104690000E9DF0010F9DF00D1124E253FE4F218578
:1046A00032853BA32AA3238D348DA901330F660BDA
:1046B000770B48AB59AB6AAB7BAB358D63857485A3
:1046C0007F8B6E8BA588B688C784D088E188F288F6
:1046D0000389148924814381AAA5BBA50D90BC91AF
:1046E000A02DBB8FAA8F8789908DBD0125963FAFE6
:1046F00025970E9416141C01EE89FF89BF0180E0F6
:1047000090E00E94B7324B015C0125963FAD2597A2
:1047100060E4630F70E080E090E00E94B73220E038
:1047200030E040E85BE30E94AD33A50194010E94B4
:10473000AD330E9488328A8D9B8D860F971F6E89BC
:104740007F890E947B348C01BC0180E090E00E9454
:10475000B73220E030E04AE754E40E940F326B01A8
:104760007C0120E030E0A9010E94A83387FD3CC015
:1047700020E030E04AE754E4C501B4010E940F3262
:104780006A8F7B8F8C8F9D8F20E030E040E05FE36D
:104790000E94AD339B01AC01C701B6010E940532F6
:1047A00087FF22C0B101032C000C880B990B0E94DB
:1047B000B93220E030E040E850E40E94AD332A8D69
:1047C0003B8D4C8D5D8D0E940F32A70196010E949A
:1047D000AD330E9481323194219431086101C60EBB
:1047E000D71ED9AEC8AE51C020E030E04AE754E44D
:1047F000C501B4010E940F324B015C0120E030E0A2
:1048000040E05FE30E94AD339B01AC01C701B601FC
:104810000E94A83387FD39C0A5019401C701B601E4
:104820000E94053287FF31C0B101032C000C880BB8
:10483000990B0E94B93220E030E040E850EC0E9431
:10484000AD33A50194010E940F326B017C018E896A
:104850009F8996958795B801681B790B80E090E059
:104860000E94B73220E030E04AE754E40E940F3261
:104870009B01AC01C701B6010E94AD330E94813299
:104880007101E60EF71EF9AEE8AE08AD19ADC8012C
:10489000110FAA0BBB0B28A939A94AA95BA9280F9C
:1048A000391F4A1F5B1FAAA1BBA10E9454312FEFE1
:1048B0003FE740E050E00E943531CA01B9010E9453
:1048C000B9322E8D3F8D48A159A10E940F320E940E
:1048D00081329B01AC01A0918403B0E00E9454316D
:1048E00024E630E040E050E00E943531420E531E95
:1048F000641E751EF6C20E9405146A8F7B8F8C8F12
:104900009D8F43E22A893B89429FF001439FF00D2E
:104910001124E253FE4F618572857F8F6E8F238D48
:10492000348DC901330FAA0BBB0B8AA39BA3ACA385
:10493000BDA3358D23843484A588B688C784D088E8
:10494000E188F2880389148924814381AAA5BBA543
:104950008D909C908789908DB40125963FAF2597C7
:104960000E9416149F8B8E8BB10180E090E00E9414
:10497000B7326B017C0125963FAD259760E8630F48
:1049800070E080E090E00E94B73220E030E040E844
:104990005BE30E94AD33A70196010E94AD330E94F4
:1049A0008832C401860F971FB1010E947B348C01AD
:1049B00082159305E8F5EE89FF89BF01FF0F880B8B
:1049C000990B0E94B9329B01AC010E9499314B01B5
:1049D0005C0120E030E04AE754E4C701B6010E94E0
:1049E0000F329B01AC01C501B4010E940F326B0173
:1049F0007C01B80180E090E00E94B73220E030E016
:104A00004AE754E40E940F329B01AC01C701B60192
:104A10000E94AD330E9481322E893F8931952195C4
:104A200031096901C60ED71E2196DFAECEAE2197A1
:104A30002196EEACFFAC2197C701FF0CAA0BBB0B74
:104A40002AA13BA14CA15DA1280F391F4A1F5B1F62
:104A5000AE8DBF8D0E9454312FEF3FE740E050E014
:104A60000E943531CA01B9010E94B9322A8D3B8DAD
:104A70004C8D5D8D2ACF0E9405146A8F7B8F8C8FA1
:104A80009D8F23E20A891B89209FF001219FF00D51
:104A90001124E253FE4F418552855F8F4E8F238D47
:104AA000348DB901330F880B990B6AA37BA38CA3B8
:104AB0009DA3358D23843484A588B688C784D08887
:104AC000E188F2880389148924814381AAA5BBA5C2
:104AD0008D909C908789908DB40125963FAF259746
:104AE0000E9416149F8B8E8BB10180E090E00E9493
:104AF000B7326B017C0125963FAD259760E8630FC7
:104B000070E080E090E00E94B73220E030E040E8C2
:104B10005BE30E94AD33A70196010E94AD330E9472
:104B20008832C401860F971FB1010E947B348C012B
:104B300082159305D0F56E897F897195619571090C
:104B4000072E000C880B990B0E94B9329B01AC0117
:104B50000E9499314B015C0120E030E04AE754E4C7
:104B6000C701B6010E940F329B01AC01C501B4011F
:104B70000E940F326B017C01B80180E090E00E943E
:104B8000B73220E030E04AE754E40E940F329B0144
:104B9000AC01C701B6010E94AD330E948132EE899B
:104BA000FF89E60FF71FFEAFEDAFCDACDEACC6015F
:104BB000DD0CAA0BBB0B44CFC0908303D12CE12C9E
:104BC000F12C63E20A891B89609FC001619F900DEF
:104BD00011248C0102531E4F1B8F0A8FD8015B9644
:104BE0000D911C915C978090C0039090C103A090A0
:104BF000C203B090C303C701B6010E946B3420E426
:104C000036E040E050E00E9435312AA33BA34CA39C
:104C10005DA3D801A50194010E945F31DC01CB01A5
:104C20000FE0B595A795979587950A95D1F7092E29
:104C3000000CAA0BBB0B4091B0035091B1036091E3
:104C4000B2037091B3038A019B01081B190B2A0B55
:104C50003B0BC901B8014AA15BA10E941315460E86
:104C6000571E681E791EAA8DBB8D91960D911C91C1
:104C700092972E8D3F8DD1010E9495342FEF3FE703
:104C800040E050E00E943531CA01B9010E94B932BA
:104C90002E893F89488D598D0E940F320E948132A2
:104CA0009B01AC01C701B6010E946B3420E436E0E1
:104CB00040E050E00E94353169017A01D801A50138
:104CC00094010E945F31DC01CB012FE0B595A795DF
:104CD000979587952A95D1F7092E000CAA0BBB0B47
:104CE0004091B4035091B5036091B6037091B7033E
:104CF0008A019B01081B190B2A0B3B0BC901B80148
:104D0000A6010E9413152EA13FA148A559A5260F63
:104D1000371F481F591F2EA33FA348A759A7E1C01B
:104D200083E26A897B89869FF001879FF00D1124B9
:104D3000E253FE4F038D148DA0918203B0E00E94D8
:104D4000543124E630E040E050E00E943531690102
:104D50007A01B801110F880B990B0E94B9322AE928
:104D600039EC4CEC54E40E940F329B01AC016CA571
:104D70007DA58EA59FA50E949831A6010E945B0685
:104D800062C013E2C12EAA89BB89CA9EF001CB9EE4
:104D9000F00D1124E253FE4F038D148DA091810379
:104DA000B0E00E94543124E630E040E050E00E9440
:104DB000353169017A01B801110F880B990B0E94F6
:104DC000B93220E03EEF4FEF56E40E940F329B01D4
:104DD000AC016CA97DA98EA99FA90E949831A6015A
:104DE0000E94D81530C003E2EA88FB880E9DF001CE
:104DF0000F9DF00D1124E253FE4F038D148DA091F1
:104E00008003B0E00E94543124E630E040E050E0FE
:104E10000E94353169017A01B801110F880B990B95
:104E20000E94B9322AE939EC4CEC54E40E940F326A
:104E30009B01AC016CA57DA58EA59FA50E94983114
:104E4000A6010E945715092E000CAA0BBB0B480E99
:104E5000591E6A1E7B1E45C00E9405149B01AC01B1
:104E600083E26A897B89869FF001879FF00D112478
:104E7000E253FE4F838D948DBC01990F880B990BE3
:104E800022962FAF229725963FAF259723964FAFB7
:104E9000239724965FAF24970E94B93222962FADB4
:104EA000229725963FAD259723964FAD23972496BD
:104EB0005FAD24970E940F320E9481320E9430061B
:104EC0009B01AC01A0918403B0E00E94543124E620
:104ED00030E040E050E00E943531421A530A640A43
:104EE000750A0E949E1800919E0110919F012091C9
:104EF000A0013091A101DC01CB01801B910BA20B21
:104F0000B30BEAA5FBA580839183A283B3830AA593
:104F10001BA50C5F1F4F1BA70AA72A893B892B30B3
:104F2000310509F044C807C01EA21FA218A619A681
:104F3000412C512C32011091A70311FF3DC00E945A
:104F400005149B01AC01E091820367E471E0E69FE8
:104F5000C001E79F900D1124BC0180E090E02296F3
:104F60002FAF229725963FAF259723964FAF2397D4
:104F700024965FAF24970E94B93222962FAD2297D4
:104F800025963FAD259723964FAD239724965FAD89
:104F900024970E940F320E948132AB016CA57DA53F
:104FA0008EA59FA50E945B06092E000CAA0BBB0BC9
:104FB000480E591E6A1E7B1E12FF3DC00E9405143A
:104FC0009B01AC01E091810367E471E0E69FC001C1
:104FD000E79F900D1124BC0180E090E022962FAF56
:104FE000229725963FAF259723964FAF2397249678
:104FF0005FAF24970E94B93222962FAD2297259653
:105000003FAD259723964FAD239724965FAD249708
:105010000E940F320E948132AB016CA97DA98EA93A
:105020009FA90E94D815092E000CAA0BBB0B480E95
:10503000591E6A1E7B1E13FF3DC00E9405149B0172
:10504000AC01E091800367E471E0E69FC001E79F57
:10505000900D1124BC0180E090E022962FAF2297A2
:1050600025963FAF259723964FAF239724965FAFA2
:1050700024970E94B93222962FAD229725963FADF4
:10508000259723964FAD239724965FAD24970E94D2
:105090000F320E948132AB016CA57DA58EA59FA524
:1050A0000E945715092E000CAA0BBB0B480E591E67
:1050B0006A1E7B1EC090C003D090C103E090C20363
:1050C000F090C3038091B0039091B103A091B2031B
:1050D000B091B3038824992454018C189D08AE081C
:1050E000BF0888159905AA05BB0534F0C816D9066E
:1050F000EA06FB060CF049C0B7FD05C08C199D09F6
:10510000AE09BF0904C08C0D9D1DAE1DBF1D80934F
:10511000B0039093B103A093B203B093B3030E9482
:1051200005149B01AC0160E07EEF8FEF96E40E94D6
:105130000F326A8B7B8B8C8B9D8B60917F0370E031
:1051400080E090E00E94B9329B01AC016A897B89C2
:105150008C899D890E94AD3320E030E048EC52E418
:105160000E940F320E9481329B01AC016091B0031A
:105170007091B1038091B2039091B303A9010E9491
:105180001315460E571E681E791E8091B403909128
:10519000B503A091B603B091B70388159905AA0588
:1051A000BB0534F0C816D906EA06FB060CF051C060
:1051B000B7FD09C0AC01BD014C195D096E097F093D
:1051C0006A017B0104C0C80ED91EEA1EFB1EC092F4
:1051D000B403D092B503E092B603F092B7030E94F5
:1051E00005149B01AC0160E07EEF8FEF96E40E9416
:1051F0000F326B017C0160917F0370E080E090E0F2
:105200000E94B9329B01AC01C701B6010E94AD33C7
:1052100020E030E048EC52E40E940F320E948132DC
:105220006B017C016091B4037091B5038091B6036A
:105230009091B703A6010E941315CEA0DFA0E8A4A9
:10524000F9A4C60ED71EE81EF91ECEA2DFA2E8A65C
:10525000F9A6C0909D01D12CE12CF12CA301920163
:10526000C701B6010E946B3424E630E040E050E014
:105270000E943531CA01B9010E9430064B015C0120
:105280002EA13FA148A559A5C701B6010E946B34C4
:1052900024E630E040E050E00E943531CA01B90117
:1052A0000E9430066B017C0114FF0EC0C501B401E1
:1052B0000E94E51689E791E00E940F17C701B60129
:1052C0000E94E5160E948A1680928D0390928E03AA
:1052D000A0928F03B0929003C0929103D092920358
:1052E000E0929303F09294036091B8037091B90334
:1052F0008091BA039091BB030E94B9326B017C018B
:10530000609172037091730380917403909175039F
:105310000E94B9329B01AC0160E07FEF8FE797E418
:105320000E940F329B01AC01C701B6010E94AD3350
:105330000E9481324B015C01611570488105910525
:1053400034F088248A94BFE79B2EA12CB12C8114C1
:1053500010E891061FEFA106B10634F4812CA0E8F5
:105360009A2EAA24AA94BA2C8092B8039092B903D8
:10537000A092BA03B092BB038DE893E00E9438106C
:1053800000918B0310918C034090A3035090A403D1
:10539000400E511E612C712CC0909D03D0909E0335
:1053A000C00ED11EE12CF12C20919B0330919C0367
:1053B000C901330FAA0BBB0B9C01AD012C193D0990
:1053C0004E095F09AFEFBFE00E94543120919F0367
:1053D0003091A003201B310B40E050E02C193D0917
:1053E0004E095F090E9435312A8B3B8B4C8B5D8BBC
:1053F000C0909703D0909803C00ED11EE12CF12CE1
:105400002091950330919603C901330FAA0BBB0B72
:105410009C01AD012C193D094E095F09AFEFBFE0BA
:105420000E9454312091990330919A03201B310B33
:1054300040E050E02C193D094E095F090E943531CA
:1054400069017A012091A1033091A203C901330FB0
:10545000AA0BBB0B9C01AD0124193509460957095C
:10546000AFEFBFE00E9454312091A5033091A60315
:10547000201B310B40E050E024193509460957093B
:105480000E9435312901411420E1520624F04424C0
:105490004A94FFE05F2E57FE02C0412C512C5092DF
:1054A000A2034092A1036A887B88611430E17306ED
:1054B00024F066246A94EFE07E2E77FE02C0612C11
:1054C000712C70929C0360929B03C11440E1D4063E
:1054D00024F0CC24CA947FE0D72ED7FE02C0C12C82
:1054E000D12CD0929603C09295038091AC039091F9
:1054F000AD03800F911F9C0140E050E02A8B3B8B55
:105500004C8B5D8B2091A8033091A9034091AA0395
:105510005091AB036A897B898C899D89261B370B47
:10552000480B590BAFEFBFEF0E9454312091AE03EF
:105530003091AF03201B310B40E050E0EA88FB883C
:105540000C891D892E193F09400B510B0E943531E2
:105550002115310501E04007510524F02FEF3FEF01
:1055600040E050E057FF03C020E030E0A901209365
:10557000A8033093A9034093AA035093AB0389B1C6
:1055800082958F7091E0892790E0A0E0B0E0817073
:105590009927AA27BB27799B8260789B84604E9BC2
:1055A00088604F9B8061669B80621C9B806444E0A6
:1055B000880F991FAA1FBB1F4A95D1F780938703B5
:1055C00090938803A0938903B0938A0310E8911AFB
:1055D00089829A822B833C834D82262D2295207FBF
:1055E00025292E8354E0769467945A95E1F76F82CB
:1055F000C886D98664E0B695A795979587956A95EC
:10560000D1F78A871B861C864CE050E0BE016F5F95
:105610007F4F84E00E94440A8091F6049091F70441
:10562000A091F804B091F90480319742A105B10529
:1056300008F465C58CED94E00E94F70C1816190665
:105640000CF04DC58CED94E00E94BD0CE82F8FE965
:105650008E0F8A3108F4E0528E2F90E0FC01E15465
:10566000F109EA31F10508F03AC5ED59FF4F0C9404
:105670008F3480919B0190919C010E94AB1780E236
:105680000E947F1680919D010E94B11780E20E94C6
:105690007F16809182030E94B11780E20E947F16DC
:1056A000809180030E94B11780E20E947F16809152
:1056B00085030E94B11780E20E947F1680918403C7
:1056C0000E94B11780E20E947F16809183030E949E
:1056D000B11780E20E947F16809181030E94B1176A
:1056E00080E20E947F16809186030E94B11780E2BB
:1056F0000E947F1680917F030E94B11780E20E9472
:105700007F166091990170919A0180E090E04AE0E3
:105710000E94981680E20E947F16809198010E9454
:10572000B11780E20E947F168091A7030E94B117F3
:1057300080E20E947F16609196017091970180E04F
:1057400090E04AE00E94981680E20E947F166091E5
:105750007B0370917C0380917D0390917E030E9476
:10576000E51680E20E947F166091950170E062C2AA
:105770008BE791E00E940F178AEF90E00E94AB1731
:1057800080E891E00E940F1782E891E00E940F17D5
:1057900084E891E00E940F1786E891E00E940F17BD
:1057A0009EC480910205082E000C990B96C4F894B3
:1057B000C090D704D090D804E090D904F090DA04D7
:1057C00078941D821E821F82188680919601909186
:1057D00097012091990130919A01821B930B969524
:1057E000879596958795A0E0B0E089839A83AB83EF
:1057F000BC83CE0101960E943810D701C6011EEF6E
:10580000F8948090D7049090D804A090D904B090D8
:10581000DA04789488159905AA05BB0554F46CE25E
:1058200071E080E090E00E9478181150D501C40129
:1058300039F719821A821B821C82CE0101960E94BE
:1058400038108091720390917303A0917403B0910A
:105850007503F8948093D7049093D804A093D90447
:10586000B093DA047894C814D904EA04FB0411F460
:1058700082E001C081E0809302052DC40E94E418FB
:10588000611101C061E06093980125C4F8944090D3
:10589000D7045090D8046090D9047090DA047894BA
:1058A0008091C0039091C103A091C203B091C30342
:1058B000481A590A6A0A7B0A8091FE049091FF04F3
:1058C000A0910005B0910105480E591E6A1E7B1E6D
:1058D0000E94E41864307105810591057CF06B012C
:1058E0007C01613C7742894091056CF010ECC12E3F
:1058F00017E2D12E19E0E12EF12C05C0B4E0CB2E39
:10590000D12CE12CF12CC982DA82EB82FC826091ED
:105910009B0170919C01072E000C880B990B0E9433
:10592000B9324B015C01C301B2010E94B932A50139
:1059300094010E94AD332B013C0160917203709180
:10594000730380917403909175030E94B9329B0197
:10595000AC01C301B2010E940F322B013C01C09285
:105960007B03D0927C03E0927D03F0927E03C7011B
:10597000B60191C08091C0039091C103A091C20370
:10598000B091C303F8948093D7049093D804A09364
:10599000D904B093DA04789451C1F8948090D70474
:1059A0009090D804A090D904B090DA0478948091B3
:1059B000C0039091C103A091C203B091C303881AA0
:1059C000990AAA0ABB0A8091FE049091FF04A09153
:1059D0000005B0910105880E991EAA1EBB1E0E94EB
:1059E000E4186E3171058105910574F06B017C013D
:1059F000693077408105910564F0A8E0CA2EA7E0E0
:105A0000DA2EE12CF12C05C0FEE1CF2ED12CE12CB9
:105A1000F12CC982DA82EB82FC82C501B4010E94BA
:105A2000B9324B015C0160919B0170919C01072E82
:105A3000000C880B990B0E94B9329B01AC01C50187
:105A4000B4010E94AD334B015C016091720370910F
:105A5000730380917403909175030E94B9329B0186
:105A6000AC01C501B4010E940F322B013C01D09260
:105A70009C01C0929B01B601DD0C880B990B0E9422
:105A8000B9324B015C0160917B0370917C03809182
:105A90007D0390917E030E94B93220E030E044EB18
:105AA00053E40E940F32A50194010E94AD330E947D
:105AB00081326093720370937303809374039093A5
:105AC00075036B017C01F594E794D794C794C09259
:105AD000C003D092C103E092C203F092C3030E94BC
