:100000000C9420040C9448040C9448040C94AA0703
:100010000C94A0070C9448040C9448040C944804D5
:100020000C9448040C9448040C94F30A0C9496081D
:100030000C9448040C9448040C9448040C94480410
:100040000C9448040C9448040C9448040C94480400
:100050000C9448040C9448040C9448040C946218C2
:100060000C9448040C9448040C9448040C944804E0
:100070000C9448040C9448040C9448040C944804D0
:100080000C9448040C9448040C9448040C944804C0
:100090000C94C80F0C9448040C9448040C94480425
:1000A0000C9448040C9448040C944804C81E291F5E
:1000B000D020C61F85218023C12221246A249B24AD
:1000C000CD243F2506256E2B1429392A8A2CB129E7
:1000D000172C5829392A8A2C8A2C8A2C8A2C8A2C6B
:1000E0008A2C1C29392A8A2CF028EA288A2C56289E
:1000F000D528E1298A2C3C2A392A532A6D2A872AB5
:10010000A12ABB2AD52AEF2A092B8A2C8A2C8A2CD1
:100110008A2C8A2C8A2C8A2C8A2C8A2C232B512CD0
:10012000562C332C382C8A2C3D2C2E2C8A2C4C2CE3
:100130005B2C8A2C8A2C472C8A2C8A2C8A2C8A2C81
:100140008A2C422CDA11DF11E411EE113812381228
:100150003812F81102120C121612231238122B1236
:10016000351638162B162F165916591659163C16D1
:10017000401644164A164E165916541605A84CCD6C
:10018000B2D44EB93836A9020C50B9918688083CD1
:10019000A6AAAA2ABE000000803F000000000000BE
:1001A00000002A2B280000000000000000000000D2
:1001B000000000000000000000002C9EB4A0A1A2DE
:1001C000A434A6A7A5AE362D3738271E1F2021221E
:1001D00023242526B333B62EB7B89F848586878817
:1001E000898A8B8C8D8E8F90919293949596979807
:1001F000999A9B9C9D2F3130A3AD350405060708C5
:10020000090A0B0C0D0E0F101112131415161718E6
:10021000191A1B1C1DAFB1B0B500080B0002020279
:100220000100090400000102020000052400100181
:100230000524010101042402060524060001070526
:10024000810310004009040100020A0000000705B4
:10025000020240000007058302400000090402007A
:10026000020300000009210101000122E104070549
:10027000840340000107050503400001050109044E
:10028000A10185040901A100093017000000002721
:10029000FFFF0000350047FFFF000075109501814A
:1002A00002093116000027FFFF0000350047FFFF5D
:1002B0000000751095018102093216000027FF0F1A
:1002C0000000350047FF0F0000750C950181020901
:1002D0003316000027FF0F0000350047FF0F000016
:1002E000750C95018102093416000027FF0F0000EC
:1002F000350047FF0F0000750C9501810209391583
:100300000125083500463B0165145500750495012B
:1003100081020509150025015500650019012918FC
:1003200075019518810285F10901150026FF0095D8
:100330003F7508918285F20901953F75088182C059
:10034000050F0992A1028502099F09A009A409A528
:1003500009A61500250135004501750195058102A5
:1003600095038103099415002501350045017501A8
:1003700095018102092215012528350145287507B7
:1003800095018102C00921A10285010922150125DB
:1003900028350145287508950191020925A1020912
:1003A000260927093009310932093309340940097E
:1003B0004109420943250B15013501450B75089587
:1003C000019100C009500954150027FFFF000035B6
:1003D0000047FFFF000066011055FD751095029162
:1003E0000255006600000952150026FF7F350046C1
:1003F000FF7F7510950191020953150125083501FC
:1004000045087508950191020955A10205010930B9
:10041000093115002501750195029102C0050F09EA
:100420005695019102950591030957A1020B010010
:100430000A000B02000A0066140055FE150026FF94
:100440007F3500479F8C0000751095019102550083
:10045000660000C0050F09A766011055FD150027AD
:10046000FFFF0000350047FFFF0000751095019168
:10047000026600005500C0050F095AA10285020955
:100480002215012528350145287508950191020995
:100490005B095D150026FF00350046FF7F75089556
:1004A000029102095C095E66011055FD26FF7F4638
:1004B000FF7F7510950291026600005500C0095F2C
:1004C000A102850309221501252835014528750853
:1004D0009501910209231500250135004501750498
:1004E000950191020958A1020B01000A000B0200BC
:1004F0000A00750295029102C0096016008026FF6D
:100500007F36008046FF7F751095019102096136A4
:10051000008046FF7F95019102150026FF7F350080
:1005200046FF7F0963751095019102096515002644
:10053000FF0046FF7F750895019102C0096EA10278
:1005400085040922150125283501452875089501DE
:1005500091020970150026FF7F350046FF7F751058
:1005600095019102096F16008026FF7F36008046B4
:10057000FF7F950191020971150026FF00350046A5
:1005800067016614005500750895019102097227EC
:10059000FFFF000047FFFF000066011055FD7510CA
:1005A000950191026600005500C00973A1028505FE
:1005B0000922150125283501452875089501910264
:1005C000097016018026FF7F36018046FF7F751077
:1005D00095019102C00974A1028506092215012521
:1005E0002835014528750895019102097509761588
:1005F00081257F36018046FF7F750895029102C0F4
:10060000050F0977A102850A092215012528350160
:1006100045287508950191020978A1020979097A9E
:10062000097B15012503750895019100C0097C150A
:100630000026FF00350046FF009102C00990A1028C
:10064000850B0922150125283501452875089501D6
:100650009102C00996A102850C0997099809990988
:100660009A099B099C15012506750895019100C002
:10067000097DA102850D097E150026FF0035004683
:100680001027750895019102C009ABA102850509E3
:1006900025A1020926092709300931093209330940
:1006A0003409400941094209431501250B3501452B
:1006B0000B75089501B100C00501093B150026FF27
:1006C00001350046FF01750A9501B1027506B101B9
:1006D000C0050F0989A102850609222528150135C3
:1006E00001452875089501B102098BA102098C0901
:1006F0008D098E250315013501450375089501B156
:1007000000C009AC150027FFFF0000350047FFFFC0
:10071000000075109501B100C0097FA1028507098D
:100720008075109501150027FFFF0000350047FF79
:10073000FF0000B102098326FF0046FF00750895FF
:1007400001B10209A909AA75019502150025013513
:10075000004501B10275069501B103C0C0180341FF
:100760000072006400750069006E006F0020004C8C
:10077000004C00430004030904220341007200649A
:1007800000750069006E006F0020004C0065006F6E
:10079000006E006100720064006F00120100020030
:1007A00000004041233680000101020001120100D7
:1007B00002020000404123368000010102000100D6
:1007C000C18081C1C000000000240027002A002D44
:1007D00000300000000000250028002B002E003112
:1007E00000040404040403040502020202040302D8
:1007F00002020206060606060604040202020404B9
:10080000040802011040804010204080408008020F
:100810000401804020100201108010204040200080
:1008200000000200080E0000030401000B0000009D
:100830000000000000000000000000000000A42CE8
:1008400011241FBECFEFDAE0DEBFCDBF11E0A0E084
:10085000B1E0E2E7F1E602C005900D92A23AB107DD
:10086000D9F725E0A2EAB1E001C01D92AD34B2078C
:10087000E1F714E0C0E2D4E004C02197FE010E9439
:10088000A530CF31D107C9F70E94AC180C94B7300E
:100890000C9400008C30F8F4282F30E09EE1899F02
:1008A000F0011124E952FE4F90819923A1F090812B
:1008B0009D7F9083F901E455FC4F958191110BC008
:1008C000E091A301F091A4010084F185E02D099548
:1008D0001092BC0308950895FC01CB012091E8001B
:1008E00022FFFCCF282F215028F03091F1003083D7
:1008F0003196F9CF24E620939A032BEF2093E8005A
:1009000008950F931F93CF93DF93DB01A40FB51FBF
:10091000FB016EEFEA17FB0791F187FF02C02491FC
:1009200001C0208100919E0310919F03C0919C0300
:10093000D0919D030C171D07B4F49091E8009570B9
:10094000E1F39091E80092FD1CC02093F10020910A
:100950009E0330919F032F5F3F4F2F733327232B2D
:1009600011F46093E80020919E0330919F032F5F64
:100970003F4F30939F0320939E033196CBCFCA0104
:1009800002C08FEF9FEFDF91CF911F910F910895DC
:10099000CF93DF9300D000D01F92CDB7DEB7FC011C
:1009A00081819081913A29F5813009F0BCC0828122
:1009B000863051F445E050E067EA73E080E40E943D
:1009C00081041092A703AFC0873009F0ACC08983BF
:1009D0008FEF9FEF9B838A838BE08C8383E08D83F3
:1009E00045E050E0BE016F5F7F4F80E40E948104CC
:1009F0009AC0913209F097C0893009F094C0828181
:100A0000853009F090C064E070E0CE0101960E944C
:100A10006C0486E08093A70380910F018B3021F155
:100A2000A0910F0181E08A0F80930F019EE1E09178
:100A30000F019E9FF0011124E952FE4F808188230F
:100A400051F080910F018B3030F480910F018F5F56
:100A500080930F01ECCF8EE1A89FF0011124E952A1
:100A6000FE4F81E0808301C0A0E0A093A803A11104
:100A700004C082E08093A90350C01092260581E053
:100A80008093A9038A819EE1A99FD0011124A952D4
:100A9000BE4F11968C9311978FEF9FEF50969C93BA
:100AA0008E931F9754961C921E92539752961C92A7
:100AB0001E92519713968C93139714968C931497B8
:100AC00056961C921E9255971E961C921E921D972A
:100AD00016961C9216978FEF9FE71A969C938E930B
:100AE000199758961C921E9257975C961C921E92CC
:100AF0005B975D961C925D9788EE93E01C969C93A5
:100B00008E931B97E091A301F091A4010684F785D1
:100B1000E02DBD01CE01019609958FEF9FEF9093D7
:100B2000AB038093AA0381E00F900F900F900F907A
:100B30000F90DF91CF91089542E450E06AE172E0B6
:100B400080E80E94810440E250E06CE572E080E8B9
:100B50000E94810483E090E00895EF92FF921F933A
:100B6000CF93DF93EC01162FE881F9810480F581A2
:100B7000E02D09957C01E881F9810680F781E02D5F
:100B8000612FCE010995C7019927DF91CF911F9160
:100B9000FF90EF900895FC0191818081813A29F4C2
:100BA0009D7F81E0913091F414C0813279F49A30C4
:100BB00049F09B3019F0993049F40AC08281809342
:100BC0000E0106C0828180930D0102C080E008956D
:100BD00081E008958C30F0F49EE1899FF0011124AA
:100BE000E952FE4F80818823A9F080818260808352
:100BF0008091BC0381110EC00E94A3176093A701CE
:100C00007093A8018093A9019093AA0181E0809339
:100C1000BC0308950895CF92DF92EF92FF92609106
:100C20004A0370914B03072E000C880B990B0E940E
:100C3000CF2E6B017C0160914C0370914D0380912C
:100C40004E0390914F030E94CF2E9B01AC01C70130
:100C5000B6010E94252EFF90EF90DF90CF9008956F
:100C6000CF92DF92EF92FF920F931F938B019C0123
:100C700040914403509145036A01E12CF12C662711
:100C80007727CB016C197D098E099F090617170775
:100C9000280739074CF0C901B801C016D106E20691
:100CA000F30614F4C701B6011F910F91FF90EF9066
:100CB000DF90CF9008954F925F926F927F928F92C4
:100CC0009F92AF92BF92CF92DF92EF92FF92CF931B
:100CD000DF9300D000D0CDB7DEB74B015C0157FFEA
:100CE00002C04D5F5F4F6A01D594C794D594C794F5
:100CF0000E940B0669837A838B839C839B01AC01E2
:100D0000C501B4010E94842F20E030E040E251E4AC
:100D10000E94842F2B013C0120E030E040E85FE39B
:100D20000E947F2F0D2C000CEE08FF0818161CF4F3
:100D3000C701B60128C020E030E040E85FEBC30106
:100D4000B2010E94202E87FF06C0C701B6010E9493
:100D50003006CB011EC0C701B6010E94CF2E9B01F9
:100D6000AC01C501B4010E94842F29813A814B81D5
:100D70005C810E94842F20E030E040E251E40E9438
:100D8000842F0E94972E0E94300688279927861B61
:100D9000970B0F900F900F900F90DF91CF91FF90D6
:100DA000EF90DF90CF90BF90AF909F908F907F900B
:100DB0006F905F904F9008958F929F92AF92BF92E5
:100DC000CF92DF92EF92FF924B015C01BA01550F77
:100DD000880B990B0E94CF2E6B017C0120E030E044
:100DE000A901C501B4010E947F2FA5019401181625
:100DF0000CF05058C701B6010E94842F6B017C0192
:100E00000E940B069B01AC01C701B6010E94842F12
:100E100020E030E040E851E40E94842F20E030E000
:100E200040E251E40E94842F20E030E040E05DE3A6
:100E30000E94842F0E94972E0E9430066B017C0135
:100E400020E030E0A901C501B4010E947F2F1816EF
:100E50002CF4882799278C199D090DC020E030E0DB
:100E6000A901C501B4010E94202E87FF02C0C6015E
:100E700002C080E090E0FF90EF90DF90CF90BF90B5
:100E8000AF909F908F900895CF92DF92EF92FF9254
:100E9000CF93DF936B017C01EA0120E030E0A901F0
:100EA0000E947F2F181694F020E030E0A901C701BE
:100EB000B6010E94202E87FF3AC020E030E0A90151
:100EC000C701B6010E94B42D6B017C01BE01DD0F8C
:100ED000880B990B0E94CF2E9B01AC01C701B60174
:100EE0000E94842F6B017C010E940B069B01AC01C8
:100EF000C701B6010E94842F20E030E040E851E4B1
:100F00000E94842F20E030E040E251E40E94842FD0
:100F100020E030E040E05BE30E94842F0E94972EA7
:100F20000E94300688279927861B970B02C080E015
:100F300090E0DF91CF91FF90EF90DF90CF900895F8
:100F40001F920F920FB60F9211240F900FBE0F90A9
:100F50001F9018951F920F920FB60F9211242F9386
:100F60003F934F935F936F937F938F939F93AF9331
:100F7000BF93EF93FF939091A60389B18C70892B57
:100F800090E09C0135952795359527952093A603EC
:100F90004091A2035091A3036091A4037091A50313
:100FA000FC01E25BFE4F8081082E000C990BAA0B1E
:100FB000BB0B840F951FA61FB71F8093A2039093AE
:100FC000A303A093A403B093A5038091A103FF9171
:100FD000EF91BF91AF919F918F917F916F915F91B1
:100FE0004F913F912F910F900FBE0F901F9018952A
:100FF000CF92DF92EF92FF920F931F93CF93DF93E5
:101000001F92CDB7DEB7F82EE42E8B01C82ED92E55
:101010008C2D8F198E1588F4F80161918F01C6010E
:1010200069830E943A2D6981681719F0C6010E94F0
:10103000422DFFEFCF1ADF0AEBCF0F90DF91CF9158
:101040001F910F91FF90EF90DF90CF900895CF9276
:10105000DF92EF92FF920F931F93CF93DF931F9234
:10106000CDB7DEB78B016B017C01E61AF70A9C2D28
:10107000901B941758F4C7018C0D9D1D49830E9445
:101080003A2DF60181936F014981F1CF0F90DF91E5
:10109000CF911F910F91FF90EF90DF90CF90089527
:1010A0008F929F92AF92BF92CF92DF92EF92FF9278
:1010B00040E050E020E0682F70E0812C912C54013A
:1010C0008394FA013296DB0102C0B595A795EA95A3
:1010D000E2F775016401042E04C0CC0CDD1CEE1C8B
:1010E000FF1C0A94D2F7A0FF02C02C2902C0C094B2
:1010F0002C214F5F5F4F4430510519F730E0220F2C
:10110000331FF901EC5CFE4F80FF05C080819181A7
:101110009695879502C080819181FF90EF90DF9036
:10112000CF90BF90AF909F908F9008951F920F9295
:101130000FB60F921124EF92FF921F932F933F93BC
:101140004F935F936F937F938F939F93AF93BF93CF
:10115000EF93FF93CF93DF93CDB7DEB76197DEBFF9
:10116000CDBF1092E9008091E80083FF59C1FE01D4
:101170003A96CF0128E02E0F2E1729F03091F1007A
:1011800030833196F9CF24E620939A0322EF2093FF
:10119000E8002A8527FF05C03091E80030FFFCCF2A
:1011A00003C03EEF3093E800322F307609F0C5C01F
:1011B0008B85811105C01092F1001092F10029C1B8
:1011C000982F9D7F913009F424C1853049F4809196
:1011D000E80080FFFCCF8C8580688093E30019C114
:1011E000863009F07CC01D85E888F9881092E900F6
:1011F00010929F0310929E03123091F510929D035E
:1012000010929C030E949C0599E0BE016F5F7F4F86
:10121000FB01292F11922A95E9F799831A8391E00E
:101220009E8390E898879AEF998720919E0330914A
:101230009F03275F3F4F3C832B838D831092E900F0
:1012400010929F0310929E03F0929D03E0929C03E4
:1012500049E050E080E00E9481040E949C05D9C0D2
:10126000F0929D03E0929C03123259F441EE54E057
:101270006CE772E080E80E948104892B09F0C9C004
:10128000CCC0113069F488899989089711F41093BA
:101290009B0380919B03811111C06BE977E016C01D
:1012A000133009F0BAC08C85882359F0823061F080
:1012B000813009F0B2C06DE577E008C06DEA77E0F3
:1012C00005C065E777E002C069E777E06115710561
:1012D00009F4A3C0FB01449150E080E849C0873085
:1012E00009F49BC0883021F481E08093F10091C023
:1012F000893009F08EC0237009F08FC080E090E043
:1013000031E026E341E0480F4093E9003093EB00E1
:101310000196FC01E154F84FE491E093EC00209336
:10132000ED008530910571F78EE78093EA00109209
:10133000EA008C858093A2016CC0288939891092BB
:10134000E90010929F0310929E0330939D03209317
:101350009C032E85211154C08B859A85913A59F4AE
:10136000813209F05AC047E050E060E171E080E06E
:101370000E9481044EC0913209F04FC0803239F48E
:1013800067E070E080E191E00E946C0442C082322C
:1013900009F043C08C8580931701809110019091D2
:1013A0001101A0911201B0911301803B9440A1055D
:1013B000B10579F58091170180FD11C087E797E7A6
:1013C00090930108809300089BE088E10FB6F894A1
:1013D000A895809360000FBE909360001AC00FB66E
:1013E000F894A895809160008861809360001092C5
:1013F00060000FBEA895109201081092000809C065
:10140000223059F4E0912705F091280509958823A9
:1014100021F08EEF8093E80003C081E28093EB001F
:1014200061960FB6F894DEBF0FBECDBFDF91CF91AE
:10143000FF91EF91BF91AF919F918F917F916F91AC
:101440005F914F913F912F911F91FF90EF900F90DF
:101450000FBE0F901F9018958F929F92AF92BF92E0
:10146000CF92DF92EF92FF920F931F93CF93DF9370
:1014700000D01F92CDB7DEB7382F8B018091A2012B
:10148000882389F04A018AEFF82E832F8770E82E8F
:1014900090E4C92E832F8072B82E2AE3D22E832F98
:1014A0008074A82E21C08FEF9FEF5FC08FB7F89494
:1014B000E092E9009091E80095FF1AC09091F20047
:1014C0002C2D291B8FBF211115C0FA94FF2059F331
:1014D00061E070E080E090E039834A835B830E94A2
:1014E0007D1739814A815B8181149104F9F634C0FA
:1014F00020E0E8CF822F90E0881699060CF4282D82
:10150000822F90E0881A990A6FB7F894E092E90068
:10151000BB2029F02150A8F01092F100FBCFF80178
:1015200037FF07C0215058F074917093F100319645
:10153000F9CF215020F071917093F100FACF080F8C
:10154000191F8091E80085FF0DC08114910411F4EA
:10155000A11008C06FBFC8CF5D9884E68093A00338
:10156000CA0103C0D092E800F5CF0F900F900F9002
:10157000DF91CF911F910F91FF90EF90DF90CF906F
:10158000BF90AF909F908F9008959091A201992362
:1015900011F057FF03C08FEF9FEF08952FB7F89416
:1015A00087708093E9008091F20090E0841795079E
:1015B0000CF4AC01842FFB0194E6815030F0909341
:1015C0009A033091F1003193F8CF4115510521F084
:1015D0008091F200882319F02FBFCA0108958BE68D
:1015E0008093E800F9CF1F920F920FB60F9211244B
:1015F0002F933F934F935F936F937F938F939F931B
:10160000AF93BF93EF93FF93CF93DF93CDB7DEB745
:10161000C054D109DEBFCDBF8091E1001092E1003E
:1016200083FF0FC01092E90091E09093EB001092BD
:10163000EC0092E39093ED001092A20198E0909359
:10164000F00082FF46C083E08093E9008091F200C1
:10165000882319F08AE38093E8009FB7F89482E02A
:101660008093E9008091F2009FBF882321F08FE7EB
:1016700094E00E948D0F9FB7F89485E08093E90075
:101680008091F2009FBF8823C1F08091290590913D
:101690002A05892B91F040E450E0BE016F5F7F4F37
:1016A00085E00E94C50A97FD08C0E0912905F091E8
:1016B0002A05BC01CE01019609958091A0038823DB
:1016C00041F08091A00381508093A003811101C05B
:1016D0005D9AC05CDF4F0FB6F894DEBF0FBECDBF82
:1016E000DF91CF91FF91EF91BF91AF919F918F913A
:1016F0007F916F915F914F913F912F910F900FBE0E
:101700000F901F901895EF92FF920F931F93CF9316
:10171000DF931F92CDB7DEB789838B017A0141E059
:1017200050E0BE016F5F7F4F84E00E942C0AA7014A
:10173000B80184E40E942C0A0F90DF91CF911F9191
:101740000F91FF90EF9008951F93CF93DF93DC01EB
:1017500011961C9111979C91953009F467C060F522
:10176000923009F443C0A8F4913009F04DC1E091E2
:10177000A301F091A4012EE1129FB001112469523E
:101780007E4F028CF38DE02DCD01DF91CF911F9123
:1017900009949330C9F1943009F036C1E091A30166
:1017A000F091A4012EE1129FB001112469527E4FE5
:1017B0000488F589E02D35C09B3009F49DC038F4CC
:1017C000963009F441C09A3009F44CC01DC19C30D8
:1017D00009F4CBC0913F09F017C140E450E0BD01CE
:1017E00082EFDF91CF911F910C94830BE091A301C5
:1017F000F091A4013EE1139FB001112469527E4F84
:101800000088F189E02D0DC0E091A301F091A401C1
:101810008EE1189FB001112469527E4F0288F3892E
:10182000E02DCD01DF91CF911F910994E091A301AB
:10183000F091A4013EE1139FB001112469527E4F43
:101840000688F789E02DEDCFE091A301F091A40186
:101850008EE1189FB001112469527E4F008CF18DEA
:10186000E02DDFCF1F3F09F41FE712969C919130C6
:1018700099F4812F0E94EA05E12FF0E0E455FC4F36
:1018800085818111C1C0E091A301F091A40106807E
:10189000F781E02D812F47C0923029F5C1E08C2FD0
:1018A0000E944A04CF5FCC30D1F7C12FD0E0C4559D
:1018B000DC4F8D81811109C0E091A301F091A40159
:1018C0000084F185E02D8FE70995812F0E94EA05BC
:1018D0008D81811199C0E091A301F091A40106804E
:1018E000F781E02D1FC0933009F08EC0812FDF916A
:1018F000CF911F910C944A0481E01F3FC1F4809363
:101900000F0188E691E0E7EDF1E0DF019C011D9217
:1019100021503040E1F7E091A301F091A40102844D
:10192000F385E02D8FE7DF91CF911F91099480938C
:1019300026051C3008F068C03EE1139FF001112419
:10194000E952FE4F108280910F01181710F4109386
:101950000F01E091A301F091A4010284F385E02D31
:10196000812F09951092BC034FC082E08093BD0384
:101970009091BE0394609093BE039091BE039061DA
:101980009093BE031092BF031330B1F040F41130B6
:1019900079F01230C9F58091BE03826033C01530F2
:1019A00071F1B0F0163081F58091BE038E7F2AC0B0
:1019B0008091BE038D7F26C0E091A301F091A40128
:1019C0000480F581E02D80E009951092BF031CC0D2
:1019D000E091A301F091A4010480F581E02D81E064
:1019E000099581E080930F0188E691E0E7EDF1E051
:1019F000DF019C011D9221503040E1F705C080912C
:101A0000BE0381608093BE03DF91CF911F91089543
:101A1000DC01683810F0685825C0E62FF0E067FF59
:101A200012C0E058F10981E090E001C0880FEA950A
:101A3000EAF7809514969C911497892314968C93B9
:101A4000149760E00FC0E656FE4F6491662311F1D3
:101A500067FF08C014968C9114978D7F14968C9311
:101A600014976F77FD01369686E0662321F090810A
:101A7000961301C01082815031968111F6CFBD01BD
:101A80006C5F7F4F48E050E082E00E94830B81E072
:101A900090E0089580E090E00895FC01168217829E
:101AA00010861186128613861482BC016C5F7F4FEC
:101AB00048E050E082E00C94830BDC01683810F0C1
:101AC00068582DC0E62FF0E067FF11C0E058F1091B
:101AD00081E090E001C0880FEA95EAF714969C91A6
:101AE0001497892B14968C93149760E018C0E656CF
:101AF000FE4F6491611109C081E090E013969C93C0
:101B00008E93129780E090E0089567FF08C01496C6
:101B10008C911497826014968C9314976F77169615
:101B20008C911697861751F117968C9117978617F7
:101B300029F118968C911897861701F119968C91B6
:101B400019978617D9F01A968C911A978617B1F0C3
:101B50001B968C911B97861789F0FD01369680E0C5
:101B600090E02191211105C0FD01E80FF91F668366
:101B700005C0019686309105A1F7BECFBD016C5F0F
:101B80007F4F48E050E082E00E94830B81E090E0CC
:101B90000895CF92DF92EF92FF920F931F93CF930E
:101BA000DF936C01EB017B01E40EF51E00E010E019
:101BB000CE15DF0561F06991D601ED91FC910190A0
:101BC000F081E02DC6010995080F191FF1CFC8015A
:101BD000DF91CF911F910F91FF90EF90DF90CF9009
:101BE000089583E08093E9008091F200882319F042
:101BF0008AE38093E800089520917B0430917C046F
:101C000080917D0490917E0428173907A9F0E09116
:101C10007D04F0917E04E55CFB4F808120917D0482
:101C200030917E042F5F3F4F2F73332730937E0414
:101C300020937D0490E008958FEF9FEF0895209109
:101C40007B0430917C0480917D0490917E04281760
:101C5000390749F0E0917D04F0917E04E55CFB4F8B
:101C6000808190E008958FEF9FEF089580917B042D
:101C700090917C0420917D0430917E04821B930B13
:101C80008F739927089585ED8093BC008091BC00E7
:101C900084FDFCCF1092150408954091EF03262F88
:101CA00030E0240F311D21323105DCF42091150480
:101CB0002430C9F4FC0180E090E0861758F430919C
:101CC000EF032191DC01A353BC4FA30FB11D2C9353
:101CD0000196F3CF8091EF03680F6093EF0380E0EC
:101CE000089581E0089582E0089508958FEF9FEFB1
:101CF00008958FEF9FEF08958091CC0390E0919528
:101D0000819591090895CF93DF9300D0CDB7DEB7C9
:101D1000CB01642F49835A830E944D0E4981842F41
:101D20005A81952F0F900F90DF91CF910895CF9307
:101D3000DF931F92CDB7DEB7698361E0CE010196D4
:101D40000E944D0E81E090E00F90DF91CF910895B9
:101D50000895CF93DF93FC01EB0171818281898328
:101D6000878190859A878987258536854381548127
:101D70006EE1769FC001112489529E4FDC0150967E
:101D80005C934E931F9756963C932E93559764E021
:101D9000769FD0011124A955BE4F1D921D921D9210
:101DA0001C921397838594859E878D8782858E8369
:101DB00081E0DF91CF910895FC012281FB0127830F
:101DC000FC018381FB0180870895FC01828193815E
:101DD000FB01908F878B0895DC01FB0112968D919A
:101DE0009C911397908F878B14968D919C9115974A
:101DF000948F838F16968C911697858F17968D9159
:101E00009C911897948783870895DC01FB011296B3
:101E10008C91129782838281811110C015968D91C9
:101E20009C911697908F878B13968D919C91149708
:101E3000948F838F17968C9185830895828108955E
:101E4000DC01FB0112968C911297838313968C917F
:101E50001397848314968D919C911597948B838B03
:101E600016968D919C911797928B818B08959EE188
:101E7000899FF0011124E952FE4F708B6787568BC2
:101E8000458B94E0899FF0011124E955FE4F1082A3
:101E900011821282138208950895089510922605E2
:101EA00024E0829FC0011124FC01E955FE4F1082FD
:101EB000118212821382089525E0FC0120838EE5B1
:101EC00091E0089508958093260508950E94B23008
:101ED0000F931F93CF93DF931F92CDB7DEB78C0183
:101EE000698380911701882359F041E050E0BE01D9
:101EF0006F5F7F4F83E00E942C0A181619063CF092
:101F000081E090E0F8019383828380E090E00F907D
:101F1000DF91CF911F910F9108950F931F93CF934E
:101F2000DF931F92CDB7DEB700917B0410917C0444
:101F30000F5F1F4F0F73112780917D0490917E04D6
:101F400008171907F9F041E050E0BE016F5F7F4FBD
:101F500082E00E94C50A019719F4898190E002C0CD
:101F60008FEF9FEF8F3F2FEF920761F0E0917B049F
:101F7000F0917C04E55CFB4F808310937C0400931C
:101F80007B04D2CF0F90DF91CF911F910F910895D5
:101F90001F920F920FB60F9211242F933F934F93DE
:101FA0005F936F937F938F939F93AF93BF93EF93C1
:101FB000FF938091B900887F803609F49CC068F552
:101FC000883209F45BC090F4803109F454C038F4CD
:101FD000882309F4F6C0883009F44DC0F6C0883172
:101FE00009F44CC0803209F45DC0EFC0803409F4BC
:101FF00068C048F4803309F455C0883309F0E5C05F
:1020000080931404D8C0803509F44FC0883509F492
:102010005DC0883409F0D9C0D6C0883909F4C7C07A
:10202000A8F4883709F467C038F4883609F463C027
:10203000803709F460C0C9C0883809F4B8C0803955
:1020400009F45FC0803809F0C0C05BC0803B09F470
:1020500086C038F4803A09F466C0883A09F47FC033
:10206000B4C0803C09F4A7C0883C09F4A4C0883BF4
:1020700009F48AC0AAC080913A0410C09091390432
:1020800080913804981770F5E091390481E08E0F43
:1020900080933904F0E0E85EFB4F80818093BB00C1
:1020A00085EC86C0809314048EC0E091390481E0F1
:1020B0008E0F809339048091BB00F0E0E85EFB4F07
:1020C000808390913904809138046EC0E091390486
:1020D00081E08E0F809339048091BB00F0E0E85ED0
:1020E000FB4F80838091170481116DC081E0809344
:1020F000160484EA61C083E08093150410921304EF
:10210000CFCF80911304803208F051C0E0911304C6
:1021100081E08E0F809313048091BB00F0E0ED50BE
:10212000FC4F8083BDCF85EC8093BC0010921504DA
:1021300080911304803230F4E0911304F0E0ED500C
:10214000FC4F10826091130470E0E091F103F09174
:10215000F20383EF93E009951092130436C084E0F4
:10216000809315041092F0031092EF03E091ED03B9
:10217000F091EE0309958091EF03811105C081E094
:102180008093EF031092CD03E091F00381E08E0F76
:102190008093F003F0E0E353FC4F80818093BB0019
:1021A0009091F0038091EF03981708F479CF85E8B8
:1021B0008093BC000AC085EC8093BC00109215048B
:1021C00004C0109214040E94430EFF91EF91BF913E
:1021D000AF919F918F917F916F915F914F913F91BF
:1021E0002F910F900FBE0F901F9018952091A50171
:1021F0003091A6012817390708F4C90190938B0084
:1022000080938A0008952091A5013091A601281796
:10221000390708F4C90190938900809388000895D4
:102220004F925F926F927F928F929F92AF92BF92E6
:10223000CF92DF92EF92FF920F931F93CF93DF9392
:10224000CDB7DEB760970FB6F894DEBF0FBECDBF37
:10225000009709F46DC38C016091490370E080E040
:1022600090E00E94CF2E2AE037ED43E25CE30E942B
:10227000842F69837A838B839C83F801808091808B
:10228000A280B380B7FE08C0B094A09490948094CC
:10229000811C911CA11CB11CC501B4010E94CF2E50
:1022A0006B017C01609144037091450380E090E0F4
:1022B0000E94CD2E2B013C0126E636E646E65FE382
:1022C0000E94842F29813A814B815C810E94842F56
:1022D0006D837E838F8398879B01AC01C701B60114
:1022E0000E947F2F87FDCAC0A301920169817A8174
:1022F0008B819C810E94842F69877A878B879C873A
:1023000020E030E040E85FE30E94B32D9B01AC0188
:10231000C701B6010E94202E87FFB0C06D817E816B
:102320008F8198850E94972E6B017C01A5019401F5
:10233000261B370B480B590BAEE3B0E00E946F2D04
:102340004B015C0169857A858B859C850E94972E5F
:102350009B01AC012C193D094E095F09C501B4016F
:102360000E94502D69017A01FFEFCF1ADF0AEF0AB0
:10237000FF0A560161E08DE00E941C17C114D104D0
:1023800011F480E005C08FEFC816D10421F481E07C
:102390000E9413168AC0ECE2F8E0E4918E2F90E0E0
:1023A000FC013197EE30F10508F062C0EE55FF4FA9
:1023B0000C94A53084B5806884BDC7BC76C084B554
:1023C000806284BDC8BC71C08091800080688093A9
:1023D0008000D0928900C092880067C08091800000
:1023E000806280938000D0928B00C0928A005DC092
:1023F00080919000806880939000D0929900C09264
:10240000980053C080919000806280939000D09299
:102410009B00C0929A0049C0809190008860809390
:102420009000D0929D00C0929C003FC08091C0005F
:1024300080688093C0008091C0008F7B8093C00033
:10244000C092CF0032C08091C00080628093C000F3
:10245000C092D0002AC08091C20088608093C200E0
:102460008091C2008B7F8093C200C092D2001DC0B9
:10247000E0E8AE16B1040CF08ACF83CFA30192013D
:1024800069817A818B819C810E94842F20E030E0D9
:1024900040E85FE30E94B32D9B01AC01C701B60188
:1024A0000E947F2F87FD6DCF72CF6091460370E051
:1024B00060587109072E000C880B990B0E94CF2ED3
:1024C00020E030E04FE753E40E94252E6B017C01B1
:1024D0006093C8037093C9038093CA039093CB039E
:1024E00020E030E0A9010E947F2F87FD1DC0A701D9
:1024F000960160E070E080E89FE30E94B32D609356
:10250000C4037093C5038093C6039093C70380E010
:1025100090E0A0E8BFE38093C0039093C103A09331
:10252000C203B093C30323C020E030E0A901C70178
:10253000B6010E94202E87FF1AC080E090E0A0E83C
:10254000BFE38093C4039093C503A093C603B093E5
:10255000C7039C01AD01C701B6010E94B42D609371
:10256000C0037093C1038093C2039093C3039091FF
:102570004303F801C080D180E280F380892F80740A
:1025800091FDEAC0811195C01C141D041E041F0496
:10259000E4F5409044035090450320914703309167
:1025A00048034901A12CB12C612C712CC301B2014B
:1025B0000E94CD2E2091C0033091C1034091C203EF
:1025C0005091C3030E94842F0E94972E68197909A5
:1025D0008A099B09A70196010E948130A3019201FB
:1025E0000E94502DDA01C901880D991DAA1DBB1D3D
:1025F000F80180839183A283B38380E090E00E94FE
:102600000311F8018081918146C0C114D104E10415
:10261000F10409F444C04090440350904503809174
:102620004703909148034C01A12CB12CF094E09405
:10263000D094C094C11CD11CE11CF11C612C712CE4
:10264000C301B2010E94CD2E2091C4033091C50375
:102650004091C6035091C7030E94842F0E94972E79
:10266000681979098A099B09A70196010E9481309E
:10267000A30192010E94502DDA01C901880D991D14
:10268000AA1DBB1DF80180839183A283B3830E949E
:10269000031180E090E00E94F6102F9A49C180E07B
:1026A00090E00E94031180E090E00E94F6102F98C5
:1026B0003FC1E0914403F09145031C141D041E0426
:1026C0001F04DCF44F019694879480914703909106
:1026D0004803880E991EA12CB12C2F01612C712C5E
:1026E000C301B201681979098A099B09A7019601FA
:1026F0000E948130A301920119C0C114D104E104E8
:10270000F10411F14F0196948794809147039091C1
:102710004803881A990AA12CB12CA5019401C7017C
:10272000B6010E9481309F0140E050E00E94502D90
:10273000DA01C901880D991DAA1DBB1DF80180830E
:102740009183A283B38303C0CF01969587950E949E
:10275000031180E090E0D4C0811133C0F7FC02C0C7
:102760002F9A01C02F9880914703909148036C01E4
:10277000E12CF12C8090440390904503A12CB12CC6
:10278000F801208131814281538157FF07C0509564
:102790004095309521953F4F4F4F5F4FC501B40194
:1027A0006C197D098E099F090E948130A501940151
:1027B0000E94502DDA01C9018C0D9D1DAE1DBF1D5B
:1027C00081C01C141D041E041F046CF520E030E0C1
:1027D00040E85FE360913F037091400380914103C3
:1027E000909142030E94B42D209104013091050183
:1027F00040910601509107010E94842F0E94972E5C
:102800004B015C0160910001709101018091020116
:10281000909103010E94972E681979098A099B09F2
:10282000A70196013FC0C114D104E104F10409F4E9
:102830004FC020913F03309140034091410350919C
:10284000420360E070E080E89FE30E94B32D209196
:1028500004013091050140910601509107010E9449
:10286000842F0E94972E4B015C0122273327A90158
:102870002C193D094E095F09609108017091090109
:1028800080910A0190910B012D873E874F87588BCD
:102890000E94972E681979098A099B092D853E8522
:1028A0004F8558890E94813020914403309145031F
:1028B00040E050E00E94502DDA01C901880D991DB9
:1028C000AA1DBB1DF80180839183A283B3830BC033
:1028D00060910401709105018091060190910701BA
:1028E0000E949E2ECB010E94031160910401709101
:1028F000050180910601909107010E949E2ECB0157
:1029000060960FB6F894DEBF0FBECDBFDF91CF91BA
:102910001F910F91FF90EF90DF90CF90BF90AF90FD
:102920009F908F907F906F905F904F900C94F610D7
:1029300060960FB6F894DEBF0FBECDBFDF91CF918A
:102940001F910F91FF90EF90DF90CF90BF90AF90CD
:102950009F908F907F906F905F904F9008956091BF
:10296000A5017091A60180E090E00E94CD2E9B0110
:10297000AC0160E07EEF8FEF96E40E94252E089573
:102980002F923F924F925F926F927F928F929F927F
:10299000AF92BF92CF92DF92EF92FF920F931F936D
:1029A000CF93DF93CDB7DEB729970FB6F894DEBF8C
:1029B0000FBECDBF998788874B012B831D830C8366
:1029C0001701DF82CE82042F10E08C819D816C0183
:1029D000E12CF12CE885F985F7FD2BC0C80196950F
:1029E000982F882797958795BF01681B790B072E2D
:1029F000000C880B990B0E94CF2E2B013C01C701C4
:102A0000B6010E94CD2E9B01AC01C301B2010E9410
:102A1000252E2B013C01C8019695982F8827979564
:102A200087959A838983EB8190E8E99FB00111240F
:102A30002AC0B8017695762F662777956795E88541
:102A4000F9856E0F7F1F072E000C880B990B0E94D3
:102A5000CF2E2B013C01C701B6010E94CD2E9B0158
:102A6000AC01C301B2010E94252E2B013C0160E89C
:102A70006003C001619F900D11249A8389832B818B
:102A80006203B001112488859985681B790B072E94
:102A9000000C880B990B0E94CF2E6B017C01B101B9
:102AA00080E090E00E94CD2E9B01AC01C701B601F1
:102AB0000E94252E6B017C018A149B0408F43FC000
:102AC0008E819F818A0D9B1D88169906C0F50C8109
:102AD0001D810A0D1B1D8016910690F4B4016A1920
:102AE0007B0980E090E00E94CD2E9B01AC01C301E8
:102AF000B2010E94842F0E94972E89819A811CC066
:102B00008219930988159905E8F48A189B08EE81C3
:102B1000FF818E1A9F0AB401620D731D80E090E060
:102B20000E94CD2E9B01AC01C701B6010E94842FEB
:102B30000E94972E88859985860F971F05C080E093
:102B400090E002C08885998529960FB6F894DEBF7B
:102B50000FBECDBFDF91CF911F910F91FF90EF90EE
:102B6000DF90CF90BF90AF909F908F907F906F90AD
:102B70005F904F903F902F9008958F929F92AF92C9
:102B8000BF92CF92DF92EF92FF92CF93DF934B01F0
:102B90005C01EA010E940B066B017C01DE01A501CC
:102BA00094010E947A2D0E94CF2EA70196010E94C7
:102BB000842F20E030E040E051E40E94842F20E0A8
:102BC00030E040E251E40E94842F20E030E040E811
:102BD0005BE30E94842F0E94972E0E9430069095FE
:102BE0008095709561957F4F8F4F9F4FDF91CF916B
:102BF000FF90EF90DF90CF90BF90AF909F908F901D
:102C00000895009769F0FC0101900020E9F73197E1
:102C1000AF01481B590BBC018FE794E00C94C90D20
:102C200080E090E00895ECE2F8E04491EDE0F8E017
:102C30009491EEEEF7E02491222309F44DC0442351
:102C4000C1F150E0FA013197EE30F10590F5E05511
:102C5000FF4F0C94A530309180003F7703C0309136
:102C600080003F7D3093800024C034B53F7702C0A0
:102C700034B53F7D34BD1DC0309190003F7707C013
:102C8000309190003F7D03C030919000377F3093AA
:102C900090000FC03091C0003F7703C03091C0005A
:102CA0003F7D3093C00005C03091C200377F309324
:102CB000C200E22FF0E0EE0FFF1FED52F84FA5919A
:102CC000B4912FB7F894EC91811103C090959E2395
:102CD00001C09E2B9C932FBF0895E0917F04F0913B
:102CE00080040190F081E02D682F8FE794E0099433
:102CF000CF93DF938DE00E946D16EC018AE00E9475
:102D00006D168C0F9D1FDF91CF9108958F929F922A
:102D1000AF92BF92EF92FF920F931F93CF93DF93E7
:102D2000CDB7DEB7A1970FB6F894DEBF0FBECDBF0B
:102D3000162F042F19A2423008F40AE07E0121E286
:102D4000E20EF11C802E912CA12CB12C612FA5013B
:102D500094010E94822D029F1019112481E0E81A2B
:102D6000F1081A3014F4105D01C0195CF7011083EA
:102D7000122F732FCA01232B242B252B39F7C701C0
:102D80000E940116A1960FB6F894DEBF0FBECDBF0C
:102D9000DF91CF911F910F91FF90EF90BF90AF9077
:102DA0009F908F900895CF92DF92EF92FF92CF93F2
:102DB000DF9397FF19C06B017C018DE20E946D16B5
:102DC000EC0166277727CB016C197D098E099F09D5
:102DD0004AE00E9486168C0F9D1FDF91CF91FF90D5
:102DE000EF90DF90CF9008954AE0DF91CF91FF9070
:102DF000EF90DF90CF900C948616CF93DF93BC01B9
:102E0000990F880B990B0E94D316EC010E9478163B
:102E10008C0F9D1FDF91CF910895BC01990F880BF6
:102E2000990B0C94D316682F70E080E090E04AE094
:102E30000C9486160C940116CF93DF9390E0FC015E
:102E4000E050F84F2491FC01EF51F84F8491882312
:102E500061F190E0880F991FFC01EB53F84FC59189
:102E6000D491FC01ED52F84FA591B491611109C0C4
:102E70009FB7F8948881209582238883EC912E2334
:102E80000BC0623061F49FB7F8943881822F80952F
:102E900083238883EC912E2B2C939FBF06C08FB782
:102EA000F894E8812E2B28838FBFDF91CF9108956E
:102EB0003FB7F8948091300590913105A09132058B
:102EC000B091330526B5A89B05C02F3F19F0019698
:102ED000A11DB11D3FBFBA2FA92F982F8827820FA0
:102EE000911DA11DB11DBC01CD0142E0660F771FF0
:102EF000881F991F4A95D1F70895CF92DF92EF92DC
:102F0000FF92CF93DF936B017C010E945817EB0176
:102F1000C114D104E104F10479F00E9458176C1B2C
:102F20007D0B683E7340A0F381E0C81AD108E10828
:102F3000F108C851DC4FECCFDF91CF91FF90EF90BB
:102F4000DF90CF9008952FB7F89460912C05709181
:102F50002D0580912E0590912F052FBF08950F9379
:102F60001F930E94A3176093870470938804809333
:102F7000890490938A04E0917F04F0918004008496
:102F8000F185E02D8FE794E0099597FF1FC00E941F
:102F9000A31700918704109188042091890430912F
:102FA0008A04DC01CB01801B910BA20BB30B0091B7
:102FB0008304109184042091850430918604801745
:102FC0009107A207B307B8F28FEF9FEF1F910F9100
:102FD0000895FF920F931F93CF93DF9300D000D0FB
:102FE000CDB7DEB70E94AF17FC0197FD11C08D323F
:102FF000910591F0C0970A9778F0E0917F04F091E5
:1030000080040680F781E02D8FE794E00995EACFF0
:1030100060E070E0CB014CC020E030E0A901F12C71
:10302000E130F105F1F0ED32F105C9F0CF01C097C3
:103030000A97B8F4AAE0B0E00E946F2D8F01FF0F4D
:10304000220B330BDC01CB01800F911FA21FB31F9A
:103050009C01AD01205331094109510902C0FF24EF
:10306000F394E0917F04F09180040680F781E02DD5
:103070008FE794E029833A834B835C8309950E9410
:10308000AF17FC01C09729813A814B815C810A9777
:1030900038F2E130F10521F2FF2041F06627772771
:1030A000CB01621B730B840B950B02C0CA01B901E3
:1030B0000F900F900F900F90DF91CF911F910F9174
:1030C000FF9008951F920F920FB60F9211242F9325
:1030D0003F938F939F93AF93BF9380912C059091D3
:1030E0002D05A0912E05B0912F0530912B0523E0E1
:1030F000230F2D3720F40196A11DB11D05C026E830
:10310000230F0296A11DB11D20932B0580932C0542
:1031100090932D05A0932E05B0932F058091300537
:1031200090913105A0913205B09133050196A11D12
:10313000B11D8093300590933105A0933205B09373
:103140003305BF91AF919F918F913F912F910F9038
:103150000FBE0F901F901895CF93DF93CDB7DEB7BA
:10316000C054D1090FB6F894DEBF0FBECDBF78941E
:1031700084B5826084BD84B5816084BD85B582607C
:1031800085BD85B5816085BD80916E00816080932D
:103190006E00109281008091810082608093810096
:1031A00080918100816080938100809180008160A6
:1031B0008093800080919100826080939100809143
:1031C0009100816080939100809190008160809354
:1031D00090008091C10084608093C1008091C10003
:1031E00082608093C1008091C10081608093C100A2
:1031F0008091C30081608093C3008091C000826091
:103200008093C0008091C20081608093C200809151
:103210007A00846080937A0080917A008260809343
:103220007A0080917A00816080937A0080917A00A0
:10323000806880937A001092A20181E08093D70089
:1032400080EA8093D80082E189BD09B400FEFDCFF9
:1032500061E070E080E090E00E947D1780E980935B
:10326000D8001CE01093E2001092E0001092890355
:1032700010928803109277031092780310927903CA
:1032800010927A03109272031092710310928003CD
:103290001092810310928203109283031092840390
:1032A00010928503109286031092870342E0BE01BC
:1032B000615F7F4F80E090E00E9427088F859889AA
:1032C0008A3F910509F407C18AEF90E09E878D87B8
:1032D00042E0BE01635F7F4F80E090E00E94F8070C
:1032E00019821A821B821C8244E0BE016F5F7F4FED
:1032F00082E090E00E94F80788E394E09E878D8743
:1033000042E0BE01635F7F4F86E090E00E94F807D5
:1033100084E6898B41E0BE016F5E7F4F88E090E0DC
:103320000E94F80741E0BE016F5E7F4F8BE090E0A6
:103330000E94F80741E0BE016F5E7F4F8CE090E095
:103340000E94F80741E0BE016F5E7F4F80E190E090
:103350000E94F80741E0BE016F5E7F4F8DE090E074
:103360000E94F80782E3898B41E0BE016F5E7F4FC8
:1033700089E090E00E94F80741E0BE016F5E7F4F58
:103380008AE090E00E94F80741E0BE016F5E7F4F47
:103390008EE090E00E94F80786E4898B41E0BE0150
:1033A0006F5E7F4F8FE090E00E94F8071E861D86BB
:1033B00042E0BE01635F7F4F81E190E00E94F80729
:1033C0008FEF97E09E878D8742E0BE01635F7F4F5E
:1033D00083E190E00E94F8078FEF9FE09E878D8742
:1033E00042E0BE01635F7F4F85E190E00E94F807F5
:1033F00080E8898B41E0BE016F5E7F4F87E190E0FE
:103400000E94F80781E0898B41E0BE016F5E7F4F2B
:1034100088E190E00E94F80780E699E0A0E0B0E043
:1034200089839A83AB83BC8344E0BE016F5F7F4F87
:1034300089E190E00E94F807198B41E0BE016F5EC0
:103440007F4F8DE190E00E94F8071E861D8642E0C6
:10345000BE01635F7F4F8AE290E00E94F80742E07E
:10346000BE01635F7F4F8EE290E00E94F80742E06A
:10347000BE01635F7F4F82E390E00E94F80742E065
:10348000BE01635F7F4F86E390E00E94F8078FEFF5
:1034900093E09E878D8742E0BE01635F7F4F8CE2A1
:1034A00090E00E94F80742E0BE01635F7F4F80E337
:1034B00090E00E94F80742E0BE01635F7F4F84E323
:1034C00090E00E94F80742E0BE01635F7F4F88E30F
:1034D00090E00E94F80742E06AE473E086E090E042
:1034E0000E94270844E065E573E089E190E00E94CE
:1034F000270841E069E473E088E090E00E94270833
:1035000041E060E673E089E090E00E94270841E036
:103510006FE573E08AE090E00E94270841E06EE5E5
:1035200073E08BE090E00E94270841E06DE573E0D6
:103530008CE090E00E94270841E06CE573E08DE0AC
:1035400090E00E94270841E06BE573E08EE090E098
:103550000E94270841E06AE573E08FE090E00E9456
:10356000270841E069E573E080E190E00E942708C8
:1035700041E066E473E087E190E00E94270841E0C3
:103580006FE773E088E190E00E94270842E067E47B
:1035900073E081E190E00E94270842E064E473E078
:1035A00083E190E00E94270842E063E573E085E153
:1035B00090E00E94270841E063E473E08DE190E031
:1035C0000E94270842E06AE873E08AE290E00E94E5
:1035D000270842E06CE873E08CE290E00E94270844
:1035E00042E06BE773E08EE290E00E94270842E041
:1035F0006DE773E080E390E00E94270842E063E714
:1036000073E082E390E00E94270842E065E773E000
:1036100084E390E00E94270842E06DE673E086E3D1
:1036200090E00E94270842E06FE673E088E390E0B4
:103630000E942708609155037091560380915703AB
:10364000909158030E94CF2E20E030E044EB53E4E9
:103650000E94252E6B017C0180914A0390914B03BF
:10366000BC01990F880B990B0E94CF2E9B01AC01D6
:10367000C701B6010E94842F0E94972E60934C03CD
:1036800070934D0380934E0390934F03DC01CB0165
:10369000B595A7959795879580938E0390938F0303
:1036A000A0939003B093910360E082E10E941C1705
:1036B00060E083E10E941C1760E084E10E941C1717
:1036C00060E085E10E941C1762E084E00E941C1704
:1036D00062E086E10E941C1762E087E10E941C17ED
:1036E00062E08CE00E941C1762E086E00E941C17DA
:1036F00062E087E00E941C1762E088E00E941C17CD
:1037000062E085E00E941C1788E191E09093A4019B
:103710008093A30188EC94E090932805809327057B
:1037200084EA9BE090932A0580932905279A1091BB
:103730004303812F0E9450085C019093A60180935F
:10374000A5019093450380934403609147037091D2
:10375000480380E090E00E94CD2E6B017C01B50112
:1037600080E090E00E94CD2E9B01AC01C701B60124
:103770000E94252E60933F03709340038093410382
:1037800090934203012F017010FD05C020E030E04E
:103790004AEF54E404C020E030E04AE754E460918A
:1037A00008017091090180910A0190910B010E941A
:1037B000842F609308017093090180930A0190930C
:1037C0000B01011105C020E030E04AEF54E404C0D1
:1037D00020E030E04AE754E4609104017091050173
:1037E00080910601909107010E94842F609304014B
:1037F000709305018093060190930701011105C0A4
:1038000020E030E04AEF54E404C020E030E04AE732
:1038100054E4609100017091010180910201909146
:1038200003010E94842F6093000170930101809333
:103830000201909303011092800010928100109277
:103840006F0016BA8091A5019091A6019093870010
:1038500080938600109289001092880010928B004D
:1038600010928A00809143038274823421F4809103
:103870008100826003C0809181008160809381001B
:103880008091430380FF09C0809180008260809313
:10389000800080918100806108C0809180008260FA
:1038A000809380008091810088618093810080E016
:1038B00090E00E94031180918000806880938000D6
:1038C000259A80E090E00E94F6108091800080624E
:1038D00080938000269A61E08DE00E941C1713E01F
:1038E00081E00E94131664E170E080E090E00E94A5
:1038F0007D1780E00E94131664E170E080E090E0A4
:103900000E947D17115061F71092670310926803AF
:103910001092690310926A0387E693E00E941011E7
:1039200010926603109265038FEF97E09093520315
:103930008093510380914603809350030E9458174F
:1039400060939203709393038093940390939503F1
:103950000E9458176093910470939204809393048B
:1039600090939404009196031091970320919803EB
:10397000309199036B017C01C01AD10AE20AF30A63
:10398000C0928D04D0928E04E0928F04F092900445
:103990000091920310919303209194033091950329
:1039A0006B017C01C01AD10AE20AF30A40EDC41689
:1039B00047E0D406E104F10410F40C949A2C6093CF
:1039C0009203709393038093940390939503409094
:1039D0008E0350908F036090900370909103730159
:1039E0006201C094D094E094F0944C185D086E0885
:1039F0007F08A0918803B0918903A30192010E94DE
:103A00007A2D2FEF3FE040E050E00E94502DDA0188
:103A1000C9018C0D9D1DAE1DBF1D80938403909325
:103A20008503A0938603B0938703809380039093CC
:103A30008103A0938203B0938303B0907F03B5FA10
:103A4000882780F9B6FC8260B7FE02C0846013C08C
:103A5000813089F4609177037091780380917903C4
:103A600090917A03A30192010E9481302FEF3FEFE2
:103A700040E050E017C0823019F1833029F4A09162
:103A80007103B091720306C08430D1F4A0916B032E
:103A9000B0916C03A30192010E947A2D2FEF3FE0B9
:103AA00040E050E00E94502DC20ED31EE41EF51ED1
:103AB000C0928003D0928103E0928203F09283034C
:103AC000C0908003D0908103E0908203F090830344
:103AD00080919A0490919B04A0919C04B0919D04C4
:103AE000C0929A04D0929B04E0929C04F0929D04B0
:103AF0002091A204222309F445C0A090CB0454E0F5
:103B0000A59E8001112406561B4FA7019601281B74
:103B1000390B4A0B5B0BCA01B9010E94CF2ED801A9
:103B200019966D937D938D939C931C971A2D0AE0A3
:103B300060E070E0CB01B4E01B9FF0011124E65679
:103B4000FB4F21853285438554850E94B42D112376
:103B500011F0115001C019E0015069F720E030E088
:103B600040E251E40E94252E21E02A0D2A3018F46B
:103B70002093CB0402C01092CB0468A779A78AA730
:103B80009BA70FC081E08093A20410929E04109224
:103B90009F041092A0041092A10418A619A61AA6B8
:103BA0001BA62091CC043091CD044091CE045091BD
:103BB000CF0488A599A5AAA5BBA58093CC04909312
:103BC000CD04A093CE04B093CF048091D404882375
:103BD00009F440C0A0902505E4E0AE9E80011124C8
:103BE0000D551B4F68A5792FCD010E94B32DD8012B
:103BF000D2966D937D938D939C93D5971A2D04E166
:103C000060E070E0CB01B4E01B9FF0011124ED55A2
:103C1000FB4F22A933A944A955A90E94B42D112311
:103C200011F0115001C013E1015069F720E030E0BC
:103C300040EA51E40E94252E21E02A0D243118F497
:103C40002093250502C01092250568AB79AB8AAB9D
:103C50009BAB0FC081E08093D4041092D0041092EB
:103C6000D1041092D2041092D30418AA19AA1AAA45
:103C70001BAA80912605882359F1B0FE23C70E9414
:103C8000AF149B01AC0160E070E080E094E40E941E
:103C9000252E4B015C0160915A0370E080E090E0BA
:103CA0000E94CF2E9B01AC01C501B4010E94842F5C
:103CB00020E030E048EC52E40E94252E0E94972E2E
:103CC000AB01C701B6010E94BD152B013C01FDC629
:103CD000EBEAF1E0FFA3EEA31F8A1E8A412C512CD0
:103CE00032010E891F890F5F1F4F1F8B0E8B4EE114
:103CF0009801429F8001439F100D112409521E4FCD
:103D0000D8018C918370833009F0CFC60E94AF1424
:103D10006B017C01F80121853285A789B08D0E9455
:103D2000AB302FEF3FE740E050E00E94502DCA013A
:103D3000B9010E94CF2EA70196010E94252E0E9454
:103D4000972E9B01AC01D8011B968D919C911C97DD
:103D5000059730F4E4E0F0E01C96FC93EE931B979B
:103D6000FEE1EF2ECE88DF88EC9CF001ED9CF00D9B
:103D70001124E952FE4FE1818E2F90E0FC01319732
:103D8000ED30F10508F07BC6EA5AFF4F0C94A530E0
:103D90000E94AF146A8B7B8B8C8B9D8B2EE10E89DE
:103DA0001F89209FC001219F900D1124AC01495211
:103DB0005E4F1A01DA0119968D909C901A975596CC
:103DC000AD90BC9056971F96CD90DC905097519631
:103DD000ED90FC90529753960D911C915497149628
:103DE0002C91149713964C91139757968D919C9103
:103DF0005897EEA1FFA1608171810E94C0149401C7
:103E0000DC010E94AB302FEF3FE740E050E00E9422
:103E1000502DCA01B9010E94CF2E2A893B894C89B5
:103E20005D890E94252E0E94972E0E9430069B01DC
:103E3000AC01A0915E03B0E00E946F2D24E630E05B
:103E400040E050E00E94502D421A530A640A750A5D
:103E500072C10E94AF146A8B7B8B8C8B9D8B5EE151
:103E6000E52ECE88DF88EC9CF001ED9CF00D11244E
:103E7000E952FE4F018512851B8F0A8FC588D688AF
:103E8000DF8ECE8EE784F088FBA2EAA20189128938
:103E90001DA70CA70389148918AF0FAB84809380EA
:103EA000AEA1BFA12D903C90078510896085A780A9
:103EB0000A2C000CBB08062E000C770B6A197B0934
:103EC000CB01770FAA0BBB0B6627782F892F9A2F70
:103ED0000E94CF2E6B017C01B80180E090E00E942F
:103EE000CD2E20E030E04AE754E40E94252E9B01CD
:103EF000AC01C701B6010E94252E6B017C01C101F6
:103F0000B8010E949130BC0180E090E00E94CD2E6B
:103F100020E030E04AE754E40E94252E9B01AC01EA
:103F2000C701B6010E94842F0E94972EBA2CAA24A2
:103F3000C501860F971FAE8CBF8CCAA0DBA0ECA476
:103F4000FDA40FA918AD282D492DB1010E94C01460
:103F50002A8D3B8DDC010E94AB302FEF3FE740E024
:103F600050E00E94502DCA01B9010E94CF2E2A892B
:103F70003B894C895D890E94252E0E94972E0E94C4
:103F80003006461A570A680A790A79C50E94AF14A2
:103F90006A8F7B8F8C8F9D8F4EE1C42EEE89FF89B7
:103FA000CE9EC001CF9E900D11248C0109521E4F50
:103FB0001801D80119960D90BC91A02DBF8FAE8F1E
:103FC000F801038CF48DE02DFBA3EAA3D8015D96E4
:103FD000BC91BCA7F80183849484A588B688C78463
:103FE000D088E188F2880389148924814381AEA1B5
:103FF000BFA10D90BC91A02DBB8BAA8B8789908D02
:10400000BD010E94C0148C01B40180E090E00E94C8
:10401000CD2E20E030E04AE754E40E94252E9B019B
:10402000AC0160E070E080E89FE30E94252E6B0108
:104030007C018A899B89B4010E949130BC0180E097
:1040400090E00E94CD2E20E030E04AE754E40E9448
:10405000252E9B01AC01C701B6010E94842F6B0184
:104060007C01BCA56B2F70E080E090E00E94CD2E1B
:1040700020E030E040E85BE30E94842F9B01AC012C
:10408000C701B6010E94B42D2BED3FE049EC50E48E
:104090000E94842F0E94F12F9B01AC01EAA1FBA199
:1040A0006F01FF0FEE08FF08B801110F880B990B85
:1040B0002DAF21963FAF21974EAF5FAF0E94CF2E1D
:1040C0002DAD21963FAD21974EAD5FAD0E94842F5F
:1040D0000E94972ECB01770FAA0BBB0BA70196016D
:1040E000280F391F4A1F5B1FAE8DBF8D0E946F2D99
:1040F0002FEF3FE740E050E00E94502DCA01B90188
:104100000E94CF2E2A8D3B8D4C8D5D8D0E94252ED9
:104110000E94972E9B01AC01A0915D03B0E00E942C
:104120006F2D24E630E040E050E00E94502D420E1A
:10413000531E641E751ED10116968C91169782FF30
:104140009EC41D966D917C911E9780E090E00E9428
:10415000CD2E2BED3FE049EC50E40E94842F20E06F
:1041600030E040E058E30E94842F0E94F12F9B0131
:10417000AC01C301B2012DAF21963FAF21974EAFE5
:104180005FAF0E94CF2E2DAD21963FAD21974EAD52
:104190005FAD0E94842F0E94972E2B013C016FC4BB
:1041A0000E94AF146A8F7B8F8C8F9D8F3EE1E32E30
:1041B000CE88DF88EC9CF001ED9CF00D1124E952D3
:1041C000FE4F018512851F8F0E8F238D348DC901FF
:1041D000330FAA0BBB0B8AA39BA3ACA3BDA3958DE6
:1041E0009CA723843484A588B688C784D088E188B6
:1041F000F2880389148924814381AEA1BFA10D9067
:10420000BC91A02DBB8BAA8B8789908DBD010E948C
:10421000C014BC01990F880B990B0E94CF2E4B0143
:104220005C01B10180E090E00E94CD2E20E030E002
:104230004AE754E40E94252E9B01AC0160E070E047
:1042400080E89FE30E94252E6B017C018A899B896F
:10425000B1010E949130BC0180E090E00E94CD2E1F
:1042600020E030E04AE754E40E94252E9B01AC0197
:10427000C701B6010E94842F6B017C01BCA56B2F86
:1042800070E080E090E00E94CD2E20E030E040E839
:104290005BE30E94842F9B01AC01C701B6010E9421
:1042A000B42D2BED3FE049EC50E40E94842F0E9496
:1042B000F12F6B017C0120E030E0A9010E947F2FEB
:1042C00087FF0CC020E030E0A901C701B6010E94C1
:1042D000202E87FF05C0EFEFECAB02C0F1E0FCAB96
:1042E000CCA86C2DCC0C770B880B990B0E94CF2E91
:1042F0009B01AC01C501B4010E94842F0E94972E3E
:10430000CB01770FAA0BBB0BE0C10E94AF146E8FDD
:104310007F8F88A399A30EE1EE88FF880E9DF001A0
:104320000F9DF00D1124E952FE4F218532853BA3EC
:104330002AA3238D348DC901330FAA0BBB0B8CA785
:104340009DA7AEA7BFA7358DA385B485BB8BAA8BD0
:10435000A588B688C784D088E188F2880389148943
:1043600024814381AEA1BFA10D90BC91A02DBB8F34
:10437000AA8F8789908DBD0121963FAF21970E941A
:10438000C0141C01EA89FB89BF0180E090E00E9413
:10439000CD2E4B015C0121963FAD219760E4630F68
:1043A00070E080E090E00E94CD2E20E030E040E818
:1043B0005BE30E94842FA50194010E94842F0E9438
:1043C0009E2E8A8D9B8D860F971F6A897B890E94FE
:1043D00091308C01BC0180E090E00E94CD2E20E065
:1043E00030E04AE754E40E94252E6B017C0120E076
:1043F00030E0A9010E947F2F87FD3CC020E030E023
:104400004AE754E4C501B4010E94252E6A8F7B8FD0
:104410008C8F9D8F20E030E040E05FE30E94842F8E
:104420009B01AC01C701B6010E94202E87FF22C06C
:10443000B101032C000C880B990B0E94CF2E20E0B9
:1044400030E040E850E40E94842F2A8D3B8D4C8D53
:104450005D8D0E94252EA70196010E94842F0E9447
:10446000972E3194219431086101C60ED71EDEAA21
:10447000CDAA51C020E030E04AE754E4C501B401C0
:104480000E94252E4B015C0120E030E040E05FE31C
:104490000E94842F9B01AC01C701B6010E947F2FAF
:1044A00087FD39C0A5019401C701B6010E94202EE5
:1044B00087FF31C0B101032C000C880B990B0E94BF
:1044C000CF2E20E030E040E850EC0E94842FA50180
:1044D00094010E94252E6B017C018A899B89969507
:1044E0008795B801681B790B80E090E00E94CD2E83
:1044F00020E030E04AE754E40E94252E9B01AC0105
:10450000C701B6010E94842F0E94972E7101E60E0A
:10451000F71EFEAAEDAA0DA91EA9C801110FAA0B2C
:10452000BB0B2CA53DA54EA55FA5280F391F4A1F23
:104530005B1FAAA1BBA10E946F2D2FEF3FE740E0B8
:1045400050E00E94502DCA01B9010E94CF2E2E8D3D
:104550003F8D48A159A10E94252E0E94972E9B01B4
:10456000AC01A0915D03B0E00E946F2D24E630E025
:1045700040E050E00E94502D420E531E641E751EF6
:104580007EC20E94AF146A8F7B8F8C8F9D8F4EE10D
:104590002E893F89429FF001439FF00D1124E9527B
:1045A000FE4F818592859F8F8E8F238D348D69017B
:1045B000330FEE08FF08CAA2DBA2ECA2FDA2358DE4
:1045C00023843484A588B688C784D088E188F2889B
:1045D0000389148924814381AEA1BFA10D90BC91B0
:1045E000A02DBB8BAA8B8789908DBD0121963FAFF3
:1045F00021970E94C0148C01B10180E090E00E94DC
:10460000CD2E4B015C0121963FAD219760E8630FF1
:1046100070E080E090E00E94CD2E20E030E040E8A5
:104620005BE30E94842FA50194010E94842F0E94C5
:104630009E2E8A899B89860F971FB1010E94913017
:104640009B8B8A8B82159305D0F5B801012E000C47
:10465000880B990B0E94CF2E9B01AC010E94B42DB8
:104660006B017C0120E030E04AE754E4C501B4016D
:104670000E94252E9B01AC01C701B6010E94252E88
:104680004B015C01CA88DB88B60180E090E00E94A3
:10469000CD2E20E030E04AE754E40E94252E9B0115
:1046A000AC01C501B4010E94842F0E94972E119580
:1046B000019511097801E60EF71EFCAEEBAE0BADCD
:1046C0001CADC801110FAA0BBB0B2AA13BA14CA129
:1046D0005DA1280F391F4A1F5B1FAE8DBF8D0E9441
:1046E0006F2D2FEF3FE740E050E00E94502DCA01B0
:1046F000B9010E94CF2E2A8D3B8D4C8D5D8D2BCF25
:104700000E94AF146A8F7B8F8C8F9D8F4EE12E8914
:104710003F89429FF001439FF00D1124E952FE4F63
:10472000818592859F8F8E8F238D348D6901330F04
:10473000EE08FF08CAA2DBA2ECA2FDA2358D2384FD
:104740003484A588B688C784D088E188F288038934
:10475000148924814381AEA1BFA10D90BC91A02DED
:10476000BB8BAA8B8789908DBD0121963FAF219786
:104770000E94C0148C01B10180E090E00E94CD2E17
:104780004B015C0121963FAD219760E8630F70E01B
:1047900080E090E00E94CD2E20E030E040E85BE336
:1047A0000E94842FA50194010E94842F0E949E2EB6
:1047B0008A899B89860F971FB1010E9491309B8B3C
:1047C0008A8B82159305D0F566277727601B710BBE
:1047D000072E000C880B990B0E94CF2E9B01AC0179
:1047E0000E94B42D6B017C0120E030E04AE754E4E4
:1047F000C501B4010E94252E9B01AC01C701B60181
:104800000E94252E4B015C01CA88DB88B60180E03E
:1048100090E00E94CD2E20E030E04AE754E40E9470
:10482000252E9B01AC01C501B4010E94842F0E947A
:10483000972E7801E60EF71EFAAEE9AE09AD1AAD75
:1048400040CFAEE18E899F89A89FF001A99FF00D0E
:104850001124E952FE4F038D148DA0915C03B0E04A
:104860000E946F2D20E436E040E050E00E94502D81
:1048700069017A0120918E0330918F03409190035A
:1048800050919103D8010E947A2DDC01CB011FE0E9
:10489000B595A795979587951A95D1F7092E000C90
:1048A000AA0BBB0B4091800350918103609182035E
:1048B000709183038A019B01081B190B2A0B3B0B88
:1048C000C901B801A6010E94BD15460E571E681EFB
:1048D000791ED5C0AEE18E899F89A89FF001A99F5E
:1048E000F00D1124E952FE4F038D148DA091600349
:1048F000B0E00E946F2D24E630E040E050E00E94DE
:10490000502D69017A01B801110F880B990B0E9493
:10491000CF2E2AE939EC4CEC54E40E94252E9B0161
:10492000AC0168A579A58AA59BA50E94B32DA60117
:104930000E94440762C0FEE1EF2ECE88DF88EC9C27
:10494000F001ED9CF00D1124E952FE4F038D148D02
:10495000A0915B03B0E00E946F2D24E630E040E0C0
:1049600050E00E94502D69017A01B801110F880BA7
:10497000990B0E94CF2E20E03EEF4FEF56E40E94AD
:10498000252E9B01AC0168A979A98AA99BA90E943F
:10499000B32DA6010E94DC0630C06EE10E891F898E
:1049A000609FF001619FF00D1124E952FE4F038DCD
:1049B000148DA0915F03B0E00E946F2D24E630E0DB
:1049C00040E050E00E94502D69017A01B801110FBA
:1049D000880B990B0E94CF2E2AE939EC4CEC54E459
:1049E0000E94252E9B01AC0168A579A58AA59BA5EF
:1049F0000E94B32DA6010E945B06092E000CAA0B93
:104A0000BB0B480E591E6A1E7B1E39C00E94AF1494
:104A10009B01AC01AEE18E899F89A89FF001A99FFF
:104A2000F00D1124E952FE4F838D948DBC01990F36
:104A3000880B990B2DAF21963FAF21974EAF5FAFFB
:104A40000E94CF2E2DAD21963FAD21974EAD5FAD8B
:104A50000E94252E0E94972E0E9430069B01AC01D9
:104A6000A0915D03B0E00E946F2D24E630E040E0AD
:104A700050E00E94502D421A530A640A750A0E949F
:104A8000A3170091A7011091A8012091A9013091CD
:104A9000AA01DC01CB01801B910BA20BB30BEEA191
:104AA000FFA180839183A283B3830EA11FA10C5F1A
:104AB0001F4F1FA30EA32E893F892B30310509F00C
:104AC00010C903C0412C512C320110917F0311FFFA
:104AD00031C00E94AF149B01AC01E091600367E418
:104AE00071E0E69FC001E79F900D1124BC0180E0BA
:104AF00090E02DAF21963FAF21974EAF5FAF0E9460
:104B0000CF2E2DAD21963FAD21974EAD5FAD0E94CA
:104B1000252E0E94972EAB0168A579A58AA59BA595
:104B20000E944407092E000CAA0BBB0B480E591E0D
:104B30006A1E7B1E12FF31C00E94AF149B01AC01A4
:104B4000E0915B0367E471E0E69FC001E79F900D91
:104B50001124BC0180E090E02DAF21963FAF21975A
:104B60004EAF5FAF0E94CF2E2DAD21963FAD219766
:104B70004EAD5FAD0E94252E0E94972EAB0168A915
:104B800079A98AA99BA90E94DC06092E000CAA0B10
:104B9000BB0B480E591E6A1E7B1E13FF31C00E94BC
:104BA000AF149B01AC01E0915F0367E471E0E69F05
:104BB000C001E79F900D1124BC0180E090E02DAF73
:104BC00021963FAF21974EAF5FAF0E94CF2E2DAD04
:104BD00021963FAD21974EAD5FAD0E94252E0E94DC
:104BE000972EAB0168A579A58AA59BA50E945B06B7
:104BF000092E000CAA0BBB0B480E591E6A1E7B1E09
:104C000080918E0390918F03A0919003B0919103B6
:104C1000AC01BD01E6E07595679557954795EA9516
:104C2000D1F7841B950BA60BB70B409180035091D5
:104C300081036091820370918303CC24DD2476018B
:104C4000C81AD90AEA0AFB0A4C155D056E057F05EC
:104C500034F084179507A607B7070CF049C077FD15
:104C600009C06A017B01C81AD90AEA0AFB0AD701FE
:104C7000C60104C0840F951FA61FB71F8093800331
:104C800090938103A0938203B09383030E94AF1497
:104C90009B01AC0160E07EEF8FEF96E40E94252E31
:104CA0006B017C016091590370E080E090E00E940C
:104CB000CF2E9B01AC01C701B6010E94842F20E0DA
:104CC00030E048EC52E40E94252E0E94972E6B01A2
:104CD0007C016091800370918103809182039091A7
:104CE0008303A6010E94BD15460E571E681E791E3D
:104CF000A0914903B0E0A30192010E946F2D24E628
:104D000030E040E050E00E94502DCA01B9010E94FD
:104D100030066B017C0114FF04C00E94D3160E9470
:104D20007816C0926703D0926803E0926903F0920C
:104D30006A0360918403709185038091860390914A
:104D400087030E94CF2E6B017C0160914C03709110
:104D50004D0380914E0390914F030E94CF2E9B01F3
:104D6000AC0160E07FEF8FE797E40E94252E9B0166
:104D7000AC01C701B6010E94842F0E94972E4B01FF
:104D80005C01611570488105910534F088248A948E
:104D90006FE7962EA12CB12C811410E891061FEF1D
:104DA000A106B10634F4812C50E8952EAA24AA94C9
:104DB000BA2C8092840390928503A0928603B092CD
:104DC000870387E693E00E9410110091650310911C
:104DD000660340908A0350908B03400E511E612C55
:104DE000712CC0907303D0907403C00ED11EE12CBF
:104DF000F12C2091710330917203C901330FAA0B7A
:104E0000BB0B9C01AD012C193D094E095F09AFEFA9
:104E1000BFE00E946F2D2091750330917603201B17
:104E2000310B40E050E02C193D094E095F090E940A
:104E3000502D2E8B3F8B488F598FC0906D03D09093
:104E40006E03C00ED11EE12CF12C20916B0330912A
:104E50006C03C901330FAA0BBB0B9C01AD012C19CC
:104E60003D094E095F09AFEFBFE00E946F2D209111
:104E70006F0330917003201B310B40E050E02C1980
:104E80003D094E095F090E94502D69017A01209168
:104E9000880330918903C901330FAA0BBB0B9C0116
:104EA000AD012419350946095709AFEFBFE00E944B
:104EB0006F2D20918C0330918D03201B310B40E02E
:104EC00050E024193509460957090E94502D211533
:104ED00040E1340714F02FEF3FE037FF02C020E03D
:104EE00030E030938903209388036E887F886114B3
:104EF00050E1750624F066246A944FE0742E77FE24
:104F000002C0612C712C7092720360927103C11403
:104F100060E1D60624F0CC24CA943FE0D32ED7FE1D
:104F200002C0C12CD12CD0926C03C0926B03209094
:104F30007B0330907C03200E311E412C512C80913C
:104F4000770390917803A0917903B0917A039C0143
:104F5000AD012219330944095509AFEFBFEF0E9493
:104F60006F2D20917D0330917E03201B310B890131
:104F700020E030E0A90198012219330944095509BC
:104F80000E94502D2115310581E04807510524F07C
:104F90002FEF3FEF40E050E057FF03C020E030E04C
:104FA000A9012093770330937803409379035093BA
:104FB0007A0389B182958F7091E0892790E0A0E013
:104FC000B0E081709927AA27BB27799B8260789BE4
:104FD00084604E9B88604F9B8061669B80621C9BB7
:104FE0008064369B806814E0880F991FAA1FBB1F3E
:104FF0001A95D1F78093610390936203A0936303A2
:10500000B0936403E0E89E1A89829A822B833C83E2
:105010002FEF2D83262D2295207F27602E8304E0FD
:10502000769467940A95E1F76F82C886D98624E062
:10503000B695A795979587952A95D1F78A871B8668
:105040001C864CE050E0BE016F5F7F4F84E00E9401
:10505000830B80918D0490918E04A0918F04B09168
:10506000900480319742A105B10508F463C48FE72D
:1050700094E00E94360E181619060CF04BC48FE708
:1050800094E00E94FC0DE82F8FE98E0F8A3108F41E
:10509000E0528E2F90E0FC01E154F109EA31F10574
:1050A00008F038C4ED59FF4F0C94A53080914A03A5
:1050B00090914B030E940D1780E20E946D16809123
:1050C00049030E94131780E20E946D1680916003CD
:1050D0000E94131780E20E946D1680915F030E9468
:1050E000131780E20E946D1680915E030E941317D1
:1050F00080E20E946D1680915D030E94131780E28A
:105100000E946D1680915C030E94131780E20E943A
:105110006D1680915B030E94131780E20E946D164A
:1051200080915A030E94131780E20E946D168091AD
:1051300059030E94131780E20E946D166091470385
:105140007091480380E090E04AE00E94861680E279
:105150000E946D16809146030E94131780E20E9400
:105160006D1680917F030E94131780E20E946D16D6
:10517000609144037091450380E090E04AE00E9412
:10518000861680E20E946D16609155037091560359
:1051900080915703909158030E94D31680E20E9499
:1051A0006D166091430370E060C183E991E00E9455
:1051B0001A178AEF90E00E940D1788E991E00E948B
:1051C0001A178AE991E00E941A178CE991E00E946F
:1051D0001A17A0C380919904082E000C990B98C34C
:1051E00080914403909145032091470330914803F7
:1051F000821B930B9695879596958795A0E0B0E0D6
:1052000089839A83AB83BC83CE0101960E941011DF
:1052100019821A821B821C82CE0101960E941011F3
:1052200082E08093990472C30E94E917611101C062
:1052300061E0609346036AC30E94E9176430710518
:105240008105910564F0613C07E2700709E0800781
:1052500091054CF060EC77E289E090E004C064E0F6
:1052600070E080E090E069837A838B839C83609315
:1052700055037093560380935703909358030E94ED
:10528000CF2E20E030E044EB53E40E94252E6B014A
:105290007C0160914A0370914B03072E000C880B30
:1052A000990B0E94CF2E9B01AC01C701B6013EC0F5
:1052B0000E94E9176E3171058105910574F06B014B
:1052C0007C01693077408105910564F0A8E0CA2E21
:1052D000A7E0DA2EE12CF12C05C0FEE1CF2ED12C77
:1052E000E12CF12CC982DA82EB82FC82D0924B0352
:1052F000C0924A0360915503709156038091570301
:10530000909158030E94CF2E20E030E044EB53E40C
:105310000E94252E4B015C01B601DD0C880B990B18
:105320000E94CF2E9B01AC01C501B4010E94842FC5
:105330000E94972E60934C0370934D0380934E030D
:1053400090934F03DC01CB01B595A7959795879571
:1053500080938E0390938F03A0939003B093910357
:10536000D5C20E94E917262F60917F0380E090E06C
:1053700030E0F901082E02C0F595E7950A94E2F7AE
:10538000C12CD12C7601C394082E04C0CC0CDD1C9A
:10539000EE1CFF1C0A94D2F7E0FF02C06C2902C089
:1053A000C0946C2101968830910519F760937F03B2
:1053B00070E080E090E042E00E9486160E9478163D
:1053C000A9C20E94E9178091430320E030E070E019
:1053D000AB01022E02C0559547950A94E2F7C12C05
:1053E000D12C7601C394022E04C0CC0CDD1CEE1C23
:1053F000FF1C0A94D2F740FF02C08C2902C0C0945F
:105400008C212F5F3F4F2830310511F780934303E4
:1054100041E063E473E08DE190E00E94F807809141
:1054200043030E945008BC0180E090E00E94CD2E12
:1054300020913F033091400340914103509142033A
:105440000E94842F0E94972E69837A838B839C838A
:1054500044E0BE016F5F7F4F81E190E00E94F8075A
:10546000809143030E945008BC0180E090E04AE034
:10547000A3CF80E090E04CC28FE794E00E94FC0D47
:10548000E82F8FE98E0F8A3108F4E0528E2F90E0DA
:10549000FC01E154F109E231F10508F03BC2E358A7
:1054A000FF4F0C94A5300E94E917611520E17207A7
:1054B0008105910524F06FEF7FE080E090E097FF99
:1054C00003C060E070E0CB0169837A838B839C83A7
:1054D00070937C0360937B0319C20E94E9176115E6
:1054E00030E173078105910524F06FEF7FE080E0E4
:1054F00090E097FF03C060E070E0CB0169837A839E
:105500008B839C8370937E0360937D03FFC10E9415
:10551000E917611540E174078105910524F06FEFEB
:105520007FE080E090E097FF03C060E070E0CB0197
:1055300069837A838B839C8370938B0360938A0344
:10554000E5C10E94E917611550E1750781059105D4
:1055500024F06FEF7FE080E090E097FF03C060E011
:1055600070E0CB0169837A838B839C8370938D0376
:1055700060938C03CBC10E94E9176115A0E17A0703
:105580008105910524F06FEF7FE080E090E097FFC8
:1055900003C060E070E0CB0169837A838B839C83D6
:1055A0007093740360937303B1C10E94E91761158E
:1055B000B0E17B078105910524F06FEF7FE080E08B
:1055C00090E097FF03C060E070E0CB0169837A83CD
:1055D0008B839C83709376036093750397C10E94BD
:1055E000E9176115E0E17E078105910524F06FEF71
:1055F0007FE080E090E097FF03C060E070E0CB01C7
:1056000069837A838B839C8370936E0360936D03AD
:105610007DC10E94E9176115F0E17F0781059105C1
:1056200024F06FEF7FE080E090E097FF03C060E040
:1056300070E0CB0169837A838B839C8370937003C2
:1056400060936F0363C180917B0390917C030E9400
:105650000D178FE991E00E941A1780917D039091B8
:105660007E030E940D178FE991E00E941A17809126
:105670008A0390918B030E940D178FE991E00E949D
:105680001A1780918C0390918D030E940D178FE95A
:1056900091E00E941A1780917303909174030E9405
:1056A0000D178FE991E00E941A1780917503909170
:1056B00076030E940D178FE991E00E941A178091DE
:1056C0006D0390916E030E940D178FE991E00E9487
:1056D0001A1780916F03909170031AC142E06AE437
:1056E00073E086E090E00E94F80744E065E573E02F
:1056F00089E190E00E94F80741E069E473E088E006
:1057000090E00E94F80741E060E673E089E090E0F5
:105710000E94F80741E06FE573E08AE090E00E94A4
:10572000F80741E06EE573E08BE090E00E94F80737
:1057300041E06DE573E08CE090E00E94F80741E005
:105740006CE573E08DE090E00E94F80741E06BE5C6
:1057500073E08EE090E00E94F80741E06AE573E0B4
:105760008FE090E00E94F80741E069E573E080E196
:1057700090E00E94F80741E066E473E087E190E082
:105780000E94F80741E06FE773E088E190E00E9433
:10579000F80742E067E473E081E190E00E94F807D7
:1057A00042E064E473E083E190E00E94F80742E0A5
:1057B00063E573E085E190E00E94F80742E06AE863
:1057C00073E08AE290E00E94F80742E06CE873E040
:1057D0008CE290E00E94F80742E06BE773E08EE213
:1057E00090E00E94F80742E06DE773E080E390E00C
:1057F0000E94F80742E063E773E082E390E00E94D2
:10580000F80742E065E773E084E390E00E94F80760
:1058100042E06DE673E086E390E00E94F80742E024
:105820006FE673E088E390E00E94F8076FC08FE7AF
:1058300094E00E94FC0DE82F8FE98E0F8A3108F466
:10584000E0528E2F90E0FC01E154F109E331F105C3
:1058500008F060C0E157FF4F0C94A5300E94E91793
:105860006093490353C00E94E91760935E034EC0E2
:105870000E94E9176093600349C00E94E917609392
:105880005F0344C00E94E91760935D033FC00E941C
:10589000E91760935C033AC00E94E91760935B03C9
:1058A00035C00E94E91760935A0330C00E94E9177F
:1058B000609359032BC00E94E91770E080E090E0EC
:1058C0000E94CD2E2FE632E143E85AE30E94842F56
:1058D0006B017C0160933F0370934003809341030D
:1058E00090934203609144037091450380E090E0FF
:1058F0000E94CD2E9B01AC01C701B6010E94842FEE
:105900000E949E2E709348036093470381E090E0CD
:105910000E94FD168091910490919204A0919304AD
:10592000B09194048093960390939703A093980367
:10593000B093990380E090E0892B11F40C94A81C9B
:105940000E9400000C94A81C109282041092810402
:1059500088EE93E0A0E0B0E0809383049093840409
:10596000A0938504B093860427E631E03093800449
:1059700020937F04109237051092360580933805E6
:1059800090933905A0933A05B0933B0589E791E0E0
:10599000909335058093340510929A0410929B04DD
:1059A00010929C0410929D0410929E0410929F04E9
:1059B0001092A0041092A1041092A2041092CB04A1
:1059C000E3EAF4E0119211921192119284E0EB3C1F
:1059D000F807C1F71092CC041092CD041092CE04B7
:1059E0001092CF041092D0041092D1041092D204DD
:1059F0001092D3041092D40410922505E5EDF4E042
:105A0000119211921192119285E0E532F807C1F7D7
:105A100081E08093260510929504109296041092CE
:105A2000970410929804109299040E94581760935A
:105A300091047093920480939304909394046093E0
:105A40008D0470938E0480938F04909390048BEC5C
:105A500095E0909328058093270510924C051092AD
:105A600043051092420589E891E0909341058093A7
:105A700040050895F999FECF92BD81BDF89A992706
:105A800080B50895262FF999FECF1FBA92BD81BD2A
:105A900020BD0FB6F894FA9AF99A0FBE01960895B0
:105AA000052E97FB1EF400940E94672D57FD07D02A
:105AB0000E94822D07FC03D04EF40C94672D509564
:105AC0004095309521953F4F4F4F5F4F08959095EA
:105AD0008095709561957F4F8F4F9F4F08950E94DD
