:100000000C9420040C9448040C9448040C940509A6
:100010000C94E1080C9448040C9448040C94480493
:100020000C9448040C9448040C94240C0C94C709B8
:100030000C9448040C9448040C9448040C94480410
:100040000C9448040C9448040C9448040C94480400
:100050000C9448040C9448040C9448040C949B1889
:100060000C9448040C9448040C9448040C944804E0
:100070000C9448040C9448040C9448040C944804D0
:100080000C9448040C9448040C9448040C944804C0
:100090000C94F9100C9448040C9448040C944804F3
:1000A0000C9448040C9448040C944804BA1F1B2078
:1000B000C221B82077227224B32313255C258D2515
:1000C000BF253126F8258B2D552AD42AAE2ECE2BCE
:1000D0003B2E012B562CAE2EAE2EAE2EAE2EAE2EBD
:1000E000AE2E5D2A562CAE2EDB29D529AE2E412907
:1000F000C029FE2BAE2E592CF32A702C8A2CA42C4E
:10010000BE2CD82CF22C0C2D262DAE2EAE2EAE2EC3
:10011000AE2EAE2EAE2EAE2EAE2EAE2E402D752EA7
:100120007A2E572E5C2EAE2E612E522EAE2E702EB3
:100130007F2EAE2EAE2E6B2EAE2EAE2EAE2EAE2E51
:10014000AE2E662E0B13101315131F1369136913AC
:100150006913291333133D134713541369135C13A5
:100160006E16711664166816921692169216751609
:1001700079167D168316871692168D1605A84CCD16
:10018000B2D44EB93836A9020C50B9918688083CD1
:10019000A6AAAA2ABE000000803F000000000000BE
:1001A00000002A2B280000000000000000000000D2
:1001B000000000000000000000002C9EB4A0A1A2DE
:1001C000A434A6A7A5AE362D3738271E1F2021221E
:1001D00023242526B333B62EB7B89F848586878817
:1001E000898A8B8C8D8E8F90919293949596979807
:1001F000999A9B9C9D2F3130A3AD350405060708C5
:10020000090A0B0C0D0E0F101112131415161718E6
:10021000191A1B1C1DAFB1B0B500080B0002020279
:100220000100090400000102020000052400100181
:100230000524010101042402060524060001070526
:10024000810310004009040100020A0000000705B4
:10025000020240000007058302400000090402007A
:10026000020300000009210101000122E104070549
:10027000840340000107050503400001050109044E
:10028000A10185040901A100093017000000002721
:10029000FFFF0000350047FFFF000075109501814A
:1002A00002093116000027FFFF0000350047FFFF5D
:1002B0000000751095018102093216000027FF0F1A
:1002C0000000350047FF0F0000750C950181020901
:1002D0003316000027FF0F0000350047FF0F000016
:1002E000750C95018102093416000027FF0F0000EC
:1002F000350047FF0F0000750C9501810209391583
:100300000125083500463B0165145500750495012B
:1003100081020509150025015500650019012918FC
:1003200075019518810285F10901150026FF0095D8
:100330003F7508918285F20901953F75088182C059
:10034000050F0992A1028502099F09A009A409A528
:1003500009A61500250135004501750195058102A5
:1003600095038103099415002501350045017501A8
:1003700095018102092215012528350145287507B7
:1003800095018102C00921A10285010922150125DB
:1003900028350145287508950191020925A1020912
:1003A000260927093009310932093309340940097E
:1003B0004109420943250B15013501450B75089587
:1003C000019100C009500954150027FFFF000035B6
:1003D0000047FFFF000066011055FD751095029162
:1003E0000255006600000952150026FF7F350046C1
:1003F000FF7F7510950191020953150125083501FC
:1004000045087508950191020955A10205010930B9
:10041000093115002501750195029102C0050F09EA
:100420005695019102950591030957A1020B010010
:100430000A000B02000A0066140055FE150026FF94
:100440007F3500479F8C0000751095019102550083
:10045000660000C0050F09A766011055FD150027AD
:10046000FFFF0000350047FFFF0000751095019168
:10047000026600005500C0050F095AA10285020955
:100480002215012528350145287508950191020995
:100490005B095D150026FF00350046FF7F75089556
:1004A000029102095C095E66011055FD26FF7F4638
:1004B000FF7F7510950291026600005500C0095F2C
:1004C000A102850309221501252835014528750853
:1004D0009501910209231500250135004501750498
:1004E000950191020958A1020B01000A000B0200BC
:1004F0000A00750295029102C0096016008026FF6D
:100500007F36008046FF7F751095019102096136A4
:10051000008046FF7F95019102150026FF7F350080
:1005200046FF7F0963751095019102096515002644
:10053000FF0046FF7F750895019102C0096EA10278
:1005400085040922150125283501452875089501DE
:1005500091020970150026FF7F350046FF7F751058
:1005600095019102096F16008026FF7F36008046B4
:10057000FF7F950191020971150026FF00350046A5
:1005800067016614005500750895019102097227EC
:10059000FFFF000047FFFF000066011055FD7510CA
:1005A000950191026600005500C00973A1028505FE
:1005B0000922150125283501452875089501910264
:1005C000097016018026FF7F36018046FF7F751077
:1005D00095019102C00974A1028506092215012521
:1005E0002835014528750895019102097509761588
:1005F00081257F36018046FF7F750895029102C0F4
:10060000050F0977A102850A092215012528350160
:1006100045287508950191020978A1020979097A9E
:10062000097B15012503750895019100C0097C150A
:100630000026FF00350046FF009102C00990A1028C
:10064000850B0922150125283501452875089501D6
:100650009102C00996A102850C0997099809990988
:100660009A099B099C15012506750895019100C002
:10067000097DA102850D097E150026FF0035004683
:100680001027750895019102C009ABA102850509E3
:1006900025A1020926092709300931093209330940
:1006A0003409400941094209431501250B3501452B
:1006B0000B75089501B100C00501093B150026FF27
:1006C00001350046FF01750A9501B1027506B101B9
:1006D000C0050F0989A102850609222528150135C3
:1006E00001452875089501B102098BA102098C0901
:1006F0008D098E250315013501450375089501B156
:1007000000C009AC150027FFFF0000350047FFFFC0
:10071000000075109501B100C0097FA1028507098D
:100720008075109501150027FFFF0000350047FF79
:10073000FF0000B102098326FF0046FF00750895FF
:1007400001B10209A909AA75019502150025013513
:10075000004501B10275069501B103C0C0180341FF
:100760000072006400750069006E006F0020004C8C
:10077000004C00430004030904220341007200649A
:1007800000750069006E006F0020004C0065006F6E
:10079000006E006100720064006F00120100020030
:1007A00000004041233680000101020001120100D7
:1007B00002020000404123368000010102000100D6
:1007C000C18081C1C000000000240027002A002D44
:1007D00000300000000000250028002B002E003112
:1007E00000040404040403040502020202040302D8
:1007F00002020206060606060604040202020404B9
:10080000040802011040804010204080408008020F
:100810000401804020100201108010204040200080
:1008200000000200080E0000030401000B0000009D
:100830000000000000000000000000000000C82EC2
:1008400011241FBECFEFDAE0DEBFCDBF11E0A0E084
:10085000B1E0EAEBF5E602C005900D92A23AB107CD
:10086000D9F725E0A2EAB1E001C01D92AF34B2078A
:10087000E1F714E0C0E2D4E004C02197FE010E9439
:10088000C932CF31D107C9F70E94E5180C94DB3289
:100890000C940000CF92DF92EF92FF926091B10131
:1008A0007091B201072E000C880B990B0E94F33057
:1008B0006B017C0160914C0370914D0380914E035C
:1008C00090914F030E94F3309B01AC01C701B60128
:1008D0000E944930FF90EF90DF90CF9008958C30C8
:1008E000F8F4282F30E09EE1899FF0011124EC51AB
:1008F000FE4F90819923A1F090819D7F9083F90113
:10090000EE55FC4F958191110BC0E091A301F09140
:10091000A4010084F185E02D09951092B203089599
:100920000895FC01CB012091E80022FFFCCF282F85
:10093000215028F03091F10030833196F9CF24E630
:10094000209396032BEF2093E80008950F931F93B5
:10095000CF93DF93DB01A40FB51FFB016EEFEA1706
:10096000FB0791F187FF02C0249101C02081009113
:100970009A0310919B03C0919803D09199030C178F
:100980001D07B4F49091E8009570E1F39091E800B0
:1009900092FD1CC02093F10020919A0330919B039B
:1009A0002F5F3F4F2F733327232B11F46093E80001
:1009B00020919A0330919B032F5F3F4F30939B030D
:1009C00020939A033196CBCFCA0102C08FEF9FEFDD
:1009D000DF91CF911F910F910895CF93DF9300D0B6
:1009E00000D01F92CDB7DEB7FC0181819081913A92
:1009F00029F5813009F0BCC08281863051F445E090
:100A000050E06DE973E080E40E94A60410929D031B
:100A1000AFC0873009F0ACC089838FEF9FEF9B8315
:100A20008A838BE08C8383E08D8345E050E0BE01B8
:100A30006F5F7F4F80E40E94A6049AC0913209F054
:100A400097C0893009F094C08281853009F090C048
:100A500064E070E0CE0101960E94910486E08093EC
:100A60009D0380910F018B3021F1A0910F0181E056
:100A70008A0F80930F019EE1E0910F019E9FF0018C
:100A80001124EC51FE4F8081882351F080910F0199
:100A90008B3030F480910F018F5F80930F01ECCF8A
:100AA0008EE1A89FF0011124EC51FE4F81E080837C
:100AB00001C0A0E0A0939E03A11104C082E0809336
:100AC0009F0350C01092280581E080939F038A8184
:100AD0009EE1A99FD0011124AC51BE4F11968C9379
:100AE00011978FEF9FEF50969C938E931F9754967C
:100AF0001C921E92539752961C921E9251971396D7
:100B00008C93139714968C93149756961C921E925E
:100B100055971E961C921E921D9716961C9216971C
:100B20008FEF9FE71A969C938E93199758961C9275
:100B30001E9257975C961C921E925B975D961C9234
:100B40005D9788EE93E01C969C938E931B97E091A3
:100B5000A301F091A4010684F785E02DBD01CE012B
:100B6000019609958FEF9FEF9093A1038093A003C7
:100B700081E00F900F900F900F900F90DF91CF9129
:100B8000089542E450E06AE172E080E80E94A60421
:100B900040E250E06CE572E080E80E94A60483E049
:100BA00090E00895EF92FF921F93CF93DF93EC01B3
:100BB000162FE881F9810480F581E02D09957C01EB
:100BC000E881F9810680F781E02D612FCE0109953A
:100BD000C7019927DF91CF911F91FF90EF90089562
:100BE000FC0191818081813A29F49D7F81E09130DF
:100BF00091F414C0813279F49A3049F09B3019F0A5
:100C0000993049F40AC0828180930E0106C0828126
:100C100080930D0102C080E0089581E008958C303A
:100C2000F0F49EE1899FF0011124EC51FE4F808188
:100C30008823A9F08081826080838091B203811132
:100C40000EC00E94DC176093B4017093B5018093CD
:100C5000B6019093B70181E08093B203089508959F
:100C60002F923F924F925F926F927F928F929F92BC
:100C7000AF92BF92CF92DF92EF92FF920F931F93AA
:100C8000CF93DF93CDB7DEB729970FB6F894DEBFC9
:100C90000FBECDBF998788874B012B831D830C83A3
:100CA0001701DF82CE82042F10E08C819D816C01C0
:100CB000E12CF12CE885F985F7FD2BC0C80196954C
:100CC000982F882797958795BF01681B790B072E6A
:100CD000000C880B990B0E94F3302B013C01C701DB
:100CE000B6010E94F1309B01AC01C301B2010E9428
:100CF00049302B013C01C8019695982F882797957C
:100D000087959A838983EB8190E8E99FB00111244C
:100D10002AC0B8017695762F662777956795E8857E
:100D2000F9856E0F7F1F072E000C880B990B0E9410
:100D3000F3302B013C01C701B6010E94F1309B0149
:100D4000AC01C301B2010E9449302B013C0160E8B3
:100D50006003C001619F900D11249A8389832B81C8
:100D60006203B001112488859985681B790B072ED1
:100D7000000C880B990B0E94F3306B017C01B101D0
:100D800080E090E00E94F1309B01AC01C701B60108
:100D90000E9449306B017C018A149B0408F43FC017
:100DA0008E819F818A0D9B1D88169906C0F50C8146
:100DB0001D810A0D1B1D8016910690F4B4016A195D
:100DC0007B0980E090E00E94F1309B01AC01C301FF
:100DD000B2010E94A8310E94BB3089819A811CC057
:100DE0008219930988159905E8F48A189B08EE8101
:100DF000FF818E1A9F0AB401620D731D80E090E09E
:100E00000E94F1309B01AC01C701B6010E94A831DC
:100E10000E94BB3088859985860F971F05C080E0AA
:100E200090E002C08885998529960FB6F894DEBFB8
:100E30000FBECDBFDF91CF911F910F91FF90EF902B
:100E4000DF90CF90BF90AF909F908F907F906F90EA
:100E50005F904F903F902F900895CF92DF92EF9246
:100E6000FF920F931F938B019C014091AC01509115
:100E7000AD016A01E12CF12C66277727CB016C19B3
:100E80007D098E099F0906171707280739074CF0B7
:100E9000C901B801C016D106E206F30614F4C70171
:100EA000B6011F910F91FF90EF90DF90CF900895C2
:100EB0008F929F92AF92BF92CF92DF92EF92FF926A
:100EC000CF93DF934B015C01EA010E944A046B015E
:100ED0007C01DE01A50194010E949E2F0E94F33047
:100EE000A70196010E94A83120E030E040E051E4E3
:100EF0000E94A83120E030E040E251E40E94A83195
:100F000020E030E040E85BE30E94A8310E94BB3063
:100F10000E942D0790958095709561957F4F8F4F1A
:100F20009F4FDF91CF91FF90EF90DF90CF90BF90D8
:100F3000AF909F908F9008954F925F926F927F92A3
:100F40008F929F92AF92BF92CF92DF92EF92FF92D9
:100F5000CF93DF9300D000D0CDB7DEB74B015C015B
:100F600057FF02C04D5F5F4F6A01D594C794D59477
:100F7000C7940E944A0469837A838B839C839B0174
:100F8000AC01C501B4010E94A83120E030E040E28C
:100F900051E40E94A8312B013C0120E030E040E800
:100FA0005FE30E94A3310D2C000CEE08FF08181619
:100FB0001CF4C701B60128C020E030E040E85FEB38
:100FC000C301B2010E94443087FF06C0C701B601C9
:100FD0000E942D07CB011EC0C701B6010E94F3304D
:100FE0009B01AC01C501B4010E94A83129813A815D
:100FF0004B815C810E94A83120E030E040E251E466
:101000000E94A8310E94BB300E942D078827992793
:10101000861B970B0F900F900F900F90DF91CF9141
:10102000FF90EF90DF90CF90BF90AF909F908F9008
:101030007F906F905F904F9008958F929F92AF92A4
:10104000BF92CF92DF92EF92FF924B015C01BA0107
:10105000550F880B990B0E94F3306B017C0120E047
:1010600030E0A901C501B4010E94A331A50194019A
:1010700018160CF05058C701B6010E94A8316B0138
:101080007C010E944A049B01AC01C701B6010E9489
:10109000A83120E030E040E851E40E94A83120E08F
:1010A00030E040E251E40E94A83120E030E040E02E
:1010B0005DE30E94A8310E94BB300E942D076B01A6
:1010C0007C0120E030E0A901C501B4010E94A331F8
:1010D00018162CF4882799278C199D090DC020E03B
:1010E00030E0A901C501B4010E94443087FF02C06D
:1010F000C60102C080E090E0FF90EF90DF90CF90BB
:10110000BF90AF909F908F900895CF92DF92EF9213
:10111000FF92CF93DF936B017C01EA0120E030E086
:10112000A9010E94A331181694F020E030E0A90133
:10113000C701B6010E94443087FF3AC020E030E08A
:10114000A901C701B6010E94D82F6B017C01BE0125
:10115000DD0F880B990B0E94F3309B01AC01C70196
:10116000B6010E94A8316B017C010E944A049B01D8
:10117000AC01C701B6010E94A83120E030E040E890
:1011800051E40E94A83120E030E040E251E40E94A6
:10119000A83120E030E040E05BE30E94A8310E94EB
:1011A000BB300E942D0788279927861B970B02C00A
:1011B00080E090E0DF91CF91FF90EF90DF90CF90B3
:1011C00008951F920F920FB60F9211242F933F9301
:1011D0004F935F936F937F938F939F93AF93BF933F
:1011E000EF93FF930E940316FF91EF91BF91AF9190
:1011F0009F918F917F916F915F914F913F912F912F
:101200000F900FBE0F901F9018951F920F920FB660
:101210000F9211242F933F934F935F936F937F937C
:101220008F939F93AF93BF93EF93FF930E94031607
:10123000FF91EF91BF91AF919F918F917F916F91AE
:101240005F914F913F912F910F900FBE0F901F9084
:101250001895CF92DF92EF92FF920F931F93CF9347
:10126000DF931F92CDB7DEB7F82EE42E8B01C82E88
:10127000D92E8C2D8F198E1588F4F80161918F016C
:10128000C60169830E945E2F6981681719F0C60143
:101290000E94662FFFEFCF1ADF0AEBCF0F90DF918E
:1012A000CF911F910F91FF90EF90DF90CF90089515
:1012B000CF92DF92EF92FF920F931F93CF93DF9322
:1012C0001F92CDB7DEB78B016B017C01E61AF70ADE
:1012D0009C2D901B941758F4C7018C0D9D1D4983BC
:1012E0000E945E2FF60181936F014981F1CF0F902B
:1012F000DF91CF911F910F91FF90EF90DF90CF90F2
:1013000008958F929F92AF92BF92CF92DF92EF9209
:10131000FF9240E050E020E0682F70E0812C912C9B
:1013200054018394FA013296DB0102C0B595A7956A
:10133000EA95E2F775016401042E04C0CC0CDD1CB3
:10134000EE1CFF1C0A94D2F7A0FF02C02C2902C099
:10135000C0942C214F5F5F4F4430510519F730E0A6
:10136000220F331FF901EC5CFE4F80FF05C0808126
:1013700091819695879502C080819181FF90EF9031
:10138000DF90CF90BF90AF909F908F9008951F9265
:101390000F920FB60F921124EF92FF921F932F938B
:1013A0003F934F935F936F937F938F939F93AF93ED
:1013B000BF93EF93FF93CF93DF93CDB7DEB76197E2
:1013C000DEBFCDBF1092E9008091E80083FF59C1D4
:1013D000FE013A96CF0128E02E0F2E1729F030910A
:1013E000F10030833196F9CF24E62093960322EF63
:1013F0002093E8002A8527FF05C03091E80030FFE0
:10140000FCCF03C03EEF3093E800322F307609F076
:10141000C5C08B85811105C01092F1001092F100BA
:1014200029C1982F9D7F913009F424C1853049F45A
:101430008091E80080FFFCCF8C8580688093E3007A
:1014400019C1863009F07CC01D85E888F9881092A2
:10145000E90010929B0310929A03123091F51092BA
:101460009903109298030E94C10599E0BE016F5F35
:101470007F4FFB01292F11922A95E9F799831A834F
:1014800091E09E8390E898879AEF998720919A033C
:1014900030919B03275F3F4F3C832B838D831092BA
:1014A000E90010929B0310929A03F0929903E09244
:1014B000980349E050E080E00E94A6040E94C10524
:1014C000D9C0F0929903E0929803123259F441EE98
:1014D00054E06CE772E080E80E94A604892B09F0D2
:1014E000C9C0CCC0113069F488899989089711F472
:1014F0001093970380919703811111C06BE977E0F6
:1015000016C0133009F0BAC08C85882359F0823098
:1015100061F0813009F0B2C06DE577E008C06DEA96
:1015200077E005C065E777E002C069E777E061151D
:10153000710509F4A3C0FB01449150E080E849C063
:10154000873009F49BC0883021F481E08093F1005A
:1015500091C0893009F08EC0237009F08FC080E0FF
:1015600090E031E026E341E0480F4093E9003093FA
:10157000EB000196FC01E154F84FE491E093EC009C
:101580002093ED008530910571F78EE78093EA0096
:101590001092EA008C858093A2016CC02889398959
:1015A0001092E90010929B0310929A0330939903D2
:1015B000209398032E85211154C08B859A85913AEA
:1015C00059F4813209F05AC047E050E060E171E01F
:1015D00080E00E94A6044EC0913209F04FC08032D4
:1015E00039F467E070E080E191E00E94910442C02C
:1015F000823209F043C08C858093170180911001DD
:1016000090911101A0911201B0911301803B94407F
:10161000A105B10579F58091170180FD11C087E71B
:1016200097E790930108809300089BE088E10FB64C
:10163000F894A895809360000FBE909360001AC044
:101640000FB6F894A895809160008861809360003F
:10165000109260000FBEA895109201081092000829
:1016600009C0223059F4E0912905F0912A05099525
:10167000882321F08EEF8093E80003C081E28093FD
:10168000EB0061960FB6F894DEBF0FBECDBFDF91C1
:10169000CF91FF91EF91BF91AF919F918F917F91EA
:1016A0006F915F914F913F912F911F91FF90EF901C
:1016B0000F900FBE0F901F9018958F929F92AF9230
:1016C000BF92CF92DF92EF92FF920F931F93CF932F
:1016D000DF9300D01F92CDB7DEB7382F8B018091FA
:1016E000A201882389F04A018AEFF82E832F8770A0
:1016F000E82E90E4C92E832F8072B82E2AE3D22ED2
:10170000832F8074A82E21C08FEF9FEF5FC08FB70B
:10171000F894E092E9009091E80095FF1AC090914A
:10172000F2002C2D291B8FBF211115C0FA94FF2028
:1017300059F361E070E080E090E039834A835B8395
:101740000E94B61739814A815B8181149104F9F6B0
:1017500034C020E0E8CF822F90E0881699060CF480
:10176000282D822F90E0881A990A6FB7F894E0929A
:10177000E900BB2029F02150A8F01092F100FBCF26
:10178000F80137FF07C0215058F074917093F100B1
:101790003196F9CF215020F071917093F100FACF7A
:1017A000080F191F8091E80085FF0DC08114910476
:1017B00011F4A11008C06FBFC8CF5D9884E6809374
:1017C0009C03CA0103C0D092E800F5CF0F900F90A0
:1017D0000F90DF91CF911F910F91FF90EF90DF90CD
:1017E000CF90BF90AF909F908F9008959091A2015D
:1017F000992311F057FF03C08FEF9FEF08952FB784
:10180000F89487708093E9008091F20090E084174B
:1018100095070CF4AC01842FFB0194E6815030F065
:10182000909396033091F1003193F8CF4115510513
:1018300021F08091F200882319F02FBFCA0108958A
:101840008BE68093E800F9CF1F920F920FB60F92AC
:1018500011242F933F934F935F936F937F938F93B5
:101860009F93AF93BF93EF93FF93CF93DF93CDB746
:10187000DEB7C054D109DEBFCDBF8091E100109228
:10188000E10083FF0FC01092E90091E09093EB001C
:101890001092EC0092E39093ED001092A20198E078
:1018A0009093F00082FF46C083E08093E90080912E
:1018B000F200882319F08AE38093E8009FB7F89438
:1018C00082E08093E9008091F2009FBF882321F09D
:1018D00081E894E00E94BE109FB7F89485E0809361
:1018E000E9008091F2009FBF8823C1F080912B0511
:1018F00090912C05892B91F040E450E0BE016F5F80
:101900007F4F85E00E94F60B97FD08C0E0912B0504
:10191000F0912C05BC01CE010196099580919C03A4
:10192000882341F080919C03815080939C03811116
:1019300001C05D9AC05CDF4F0FB6F894DEBF0FBEEA
:10194000CDBFDF91CF91FF91EF91BF91AF919F916B
:101950008F917F916F915F914F913F912F910F9058
:101960000FBE0F901F901895EF92FF920F931F9349
:10197000CF93DF931F92CDB7DEB789838B017A01B6
:1019800041E050E0BE016F5F7F4F84E00E945D0B3D
:10199000A701B80184E40E945D0B0F90DF91CF9105
:1019A0001F910F91FF90EF9008951F93CF93DF93B6
:1019B000DC0111961C9111979C91953009F467C038
:1019C00060F5923009F443C0A8F4913009F04DC19C
:1019D000E091A301F091A4012EE1129FB001112426
:1019E0006C517E4F028CF38DE02DCD01DF91CF91B4
:1019F0001F9109949330C9F1943009F036C1E091F8
:101A0000A301F091A4012EE1129FB00111246C51A9
:101A10007E4F0488F589E02D35C09B3009F49DC0C8
:101A200038F4963009F441C09A3009F44CC01DC115
:101A30009C3009F4CBC0913F09F017C140E450E05D
:101A4000BD0182EFDF91CF911F910C94B40CE09116
:101A5000A301F091A4013EE1139FB00111246C5148
:101A60007E4F0088F189E02D0DC0E091A301F09137
:101A7000A4018EE1189FB00111246C517E4F0288A1
:101A8000F389E02DCD01DF91CF911F910994E09171
:101A9000A301F091A4013EE1139FB00111246C5108
:101AA0007E4F0688F789E02DEDCFE091A301F091FC
:101AB000A4018EE1189FB00111246C517E4F008C5F
:101AC000F18DE02DDFCF1F3F09F41FE712969C91A7
:101AD000913099F4812F0E940F06E12FF0E0EE552E
:101AE000FC4F85818111C1C0E091A301F091A40157
:101AF0000680F781E02D812F47C0923029F5C1E0A3
:101B00008C2F0E946F04CF5FCC30D1F7C12FD0E073
:101B1000CE55DC4F8D81811109C0E091A301F09178
:101B2000A4010084F185E02D8FE70995812F0E94A3
:101B30000F068D81811199C0E091A301F091A4015C
:101B40000680F781E02D1FC0933009F08EC0812FF1
:101B5000DF91CF911F910C946F0481E01F3FC1F47E
:101B600080930F0188E691E0E4EEF1E0DF019C0153
:101B70001D9221503040E1F7E091A301F091A401C2
:101B80000284F385E02D8FE7DF91CF911F910994B7
:101B9000809328051C3008F068C03EE1139FF001D7
:101BA0001124EC51FE4F108280910F01181710F490
:101BB00010930F01E091A301F091A4010284F38539
:101BC000E02D812F09951092B2034FC082E08093DF
:101BD000B3039091B40394609093B4039091B403D1
:101BE00090619093B4031092B5031330B1F040F4B8
:101BF000113079F01230C9F58091B403826033C09E
:101C0000153071F1B0F0163081F58091B4038E7FFC
:101C10002AC08091B4038D7F26C0E091A301F0918A
:101C2000A4010480F581E02D80E009951092B503B0
:101C30001CC0E091A301F091A4010480F581E02D86
:101C400081E0099581E080930F0188E691E0E4EE60
:101C5000F1E0DF019C011D9221503040E1F705C009
:101C60008091B40381608093B403DF91CF911F9181
:101C70000895DC01683810F0685825C0E62FF0E0C0
:101C800067FF12C0E058F10981E090E001C0880FC1
:101C9000EA95EAF7809514969C91149789231496F7
:101CA0008C93149760E00FC0E656FE4F6491662354
:101CB00011F167FF08C014968C9114978D7F1496CC
:101CC0008C9314976F77FD01369686E0662321F09A
:101CD0009081961301C01082815031968111F6CF08
:101CE000BD016C5F7F4F48E050E082E00E94B40C81
:101CF00081E090E0089580E090E00895FC01168274
:101D0000178210861186128613861482BC016C5FBE
:101D10007F4F48E050E082E00C94B40CDC0168385E
:101D200010F068582DC0E62FF0E067FF11C0E058B2
:101D3000F10981E090E001C0880FEA95EAF7149676
:101D40009C911497892B14968C93149760E018C07B
:101D5000E656FE4F6491611109C081E090E0139650
:101D60009C938E93129780E090E0089567FF08C0DF
:101D700014968C911497826014968C9314976F77B5
:101D800016968C911697861751F117968C91179786
:101D9000861729F118968C911897861701F11996D4
:101DA0008C9119978617D9F01A968C911A978617E5
:101DB000B1F01B968C911B97861789F0FD01369622
:101DC00080E090E02191211105C0FD01E80FF91F8D
:101DD000668305C0019686309105A1F7BECFBD018F
:101DE0006C5F7F4F48E050E082E00E94B40C81E0DD
:101DF00090E00895CF92DF92EF92FF920F931F939E
:101E0000CF93DF936C01EB017B01E40EF51E00E044
:101E100010E0CE15DF0561F06991D601ED91FC91DE
:101E20000190F081E02DC6010995080F191FF1CF2F
:101E3000C801DF91CF911F910F91FF90EF90DF903C
:101E4000CF90089583E08093E9008091F200882389
:101E500019F08AE38093E80008952091710430918D
:101E60007204809173049091740428173907A9F0C3
:101E7000E0917304F0917404EF5CFB4F808120913A
:101E80007304309174042F5F3F4F2F7333273093C7
:101E900074042093730490E008958FEF9FEF0895EA
:101EA00020917104309172048091730490917404B4
:101EB0002817390749F0E0917304F0917404EF5C3E
:101EC000FB4F808190E008958FEF9FEF0895809100
:101ED0007104909172042091730430917404821BF8
:101EE000930B8F739927089585ED8093BC008091A3
:101EF000BC0084FDFCCF10920B0408954091E503D3
:101F0000262F30E0240F311D21323105DCF42091E1
:101F10000B042430C9F4FC0180E090E0861758F4EB
:101F20003091E5032191DC01AD53BC4FA30FB11DEE
:101F30002C930196F3CF8091E503680F6093E5033E
:101F400080E0089581E0089582E0089508958FEF7C
:101F50009FEF08958FEF9FEF08958091C20390E067
:101F60009195819591090895CF93DF9300D0CDB7D6
:101F7000DEB7CB01642F49835A830E947E0F4981CB
:101F8000842F5A81952F0F900F90DF91CF91089554
:101F9000CF93DF931F92CDB7DEB7698361E0CE01A7
:101FA00001960E947E0F81E090E00F90DF91CF912B
:101FB00008950895CF93DF93FC01EB017181828135
:101FC0008983878190859A8789872585368543818E
:101FD00054816EE1769FC00111248C519E4FDC012B
:101FE00050965C934E931F9756963C932E9355971D
:101FF00064E0769FD0011124AC54BE4F1D921D9217
:102000001D921C921397838594859E878D87828568
:102010008E8381E0DF91CF910895FC012281FB0145
:102020002783FC018381FB0180870895FC01828165
:102030009381FB01908F878B0895DC01FB01129641
:102040008D919C911397908F878B14968D919C9175
:102050001597948F838F16968C911697858F179668
:102060008D919C911897948783870895DC01FB01DB
:1020700012968C91129782838281811110C01596DD
:102080008D919C911697908F878B13968D919C9133
:102090001497948F838F17968C91858308958281EE
:1020A0000895DC01FB0112968C911297838313969D
:1020B0008C911397848314968D919C911597948B92
:1020C000838B16968D919C911797928B818B089597
:1020D0009EE1899FF0011124EC51FE4F708B6787C0
:1020E000568B458B94E0899FF0011124EC54FE4FF0
:1020F0001082118212821382089508950895109219
:10210000280524E0829FC0011124FC01EC54FE4FFD
:102110001082118212821382089525E0FC0120832F
:102120008EE491E0089508958093280508950E9413
:10213000D6320F931F93CF93DF931F92CDB7DEB7A5
:102140008C01698380911701882359F041E050E0A8
:10215000BE016F5F7F4F83E00E945D0B181619066A
:102160003CF081E090E0F8019383828380E090E08E
:102170000F90DF91CF911F910F9108950F931F93AF
:10218000CF93DF931F92CDB7DEB70091710410910A
:1021900072040F5F1F4F0F7311278091730490918A
:1021A000740408171907F9F041E050E0BE016F5FB1
:1021B0007F4F82E00E94F60B019719F4898190E02D
:1021C00002C08FEF9FEF8F3F2FEF920761F0E091FA
:1021D0007104F0917204EF5CFB4F808310937204E2
:1021E00000937104D2CF0F90DF91CF911F910F9187
:1021F00008951F920F920FB60F9211242F933F93C1
:102200004F935F936F937F938F939F93AF93BF93FE
:10221000EF93FF938091B900887F803609F49CC0CA
:1022200068F5883209F45BC090F4803109F454C039
:1022300038F4882309F4F6C0883009F44DC0F6C09C
:10224000883109F44CC0803209F45DC0EFC080349D
:1022500009F468C048F4803309F455C0883309F0A4
:10226000E5C080930A04D8C0803509F44FC0883592
:1022700009F45DC0883409F0D9C0D6C0883909F4A2
:10228000C7C0A8F4883709F467C038F4883609F461
:1022900063C0803709F460C0C9C0883809F4B8C089
:1022A000803909F45FC0803809F0C0C05BC0803B52
:1022B00009F486C038F4803A09F466C0883A09F413
:1022C0007FC0B4C0803C09F4A7C0883C09F4A4C016
:1022D000883B09F48AC0AAC08091300410C0909154
:1022E0002F0480912E04981770F5E0912F0481E05F
:1022F0008E0F80932F04F0E0E25FFB4F808180938C
:10230000BB0085EC86C080930A048EC0E0912F0448
:1023100081E08E0F80932F048091BB00F0E0E25F9C
:10232000FB4F808390912F0480912E046EC0E0912A
:102330002F0481E08E0F80932F048091BB00F0E08A
:10234000E25FFB4F808380910D0481116DC081E0BD
:1023500080930C0484EA61C083E080930B041092A4
:102360000904CFCF80910904803208F051C0E09178
:10237000090481E08E0F809309048091BB00F0E096
:10238000E751FC4F8083BDCF85EC8093BC00109259
:102390000B0480910904803230F4E0910904F0E0EC
:1023A000E751FC4F10826091090470E0E091E7036F
:1023B000F091E80389EE93E009951092090436C084
:1023C00084E080930B041092E6031092E503E09101
:1023D000E303F091E40309958091E503811105C0C1
:1023E00081E08093E5031092C303E091E60381E06E
:1023F0008E0F8093E603F0E0ED53FC4F80818093D5
:10240000BB009091E6038091E503981708F479CF1B
:1024100085E88093BC000AC085EC8093BC001092D4
:102420000B0404C010920A040E94740FFF91EF91F4
:10243000BF91AF919F918F917F916F915F914F91DC
:102440003F912F910F900FBE0F901F9018952091E4
:10245000A5013091A6012817390708F4C901909306
:102460008B0080938A0008952091A5013091A601E8
:102470002817390708F4C9019093890080938800D0
:1024800008954F925F926F927F928F929F92AF9238
:10249000BF92CF92DF92EF92FF920F931F93CF9351
:1024A000DF93CDB7DEB760970FB6F894DEBF0FBEEF
:1024B000CDBF009709F46DC38C016091B30170E04A
:1024C00080E090E00E94F3302AE037ED43E25CE3E5
:1024D0000E94A83169837A838B839C83F801808072
:1024E0009180A280B380B7FE08C0B094A09490946D
:1024F0008094811C911CA11CB11CC501B4010E94D7
:10250000F3306B017C016091AC017091AD0180E012
:1025100090E00E94F1302B013C0126E636E646E6CB
:102520005FE30E94A83129813A814B815C810E943E
:10253000A8316D837E838F8398879B01AC01C7018F
:10254000B6010E94A33187FDCAC0A301920169812F
:102550007A818B819C810E94A83169877A878B87D9
:102560009C8720E030E040E85FE30E94D72F9B018A
:10257000AC01C701B6010E94443087FFB0C06D8135
:102580007E818F8198850E94BB306B017C01A50103
:102590009401261B370B480B590BAEE3B0E00E94A9
:1025A000932F4B015C0169857A858B859C850E9400
:1025B000BB309B01AC012C193D094E095F09C501D7
:1025C000B4010E94742F69017A01FFEFCF1ADF0A6C
:1025D000EF0AFF0A560161E08DE00E945517C11411
:1025E000D10411F480E005C08FEFC816D10421F4A6
:1025F00081E00E944C168AC0ECE2F8E0E4918E2F54
:1026000090E0FC013197EE30F10508F062C0EE5524
:10261000FF4F0C94C93284B5806884BDC7BC76C0B6
:1026200084B5806284BDC8BC71C080918000806820
:1026300080938000D0928900C092880067C080910A
:102640008000806280938000D0928B00C0928A00CC
:102650005DC080919000806880939000D092990036
:10266000C092980053C08091900080628093900047
:10267000D0929B00C0929A0049C0809190008860DF
:1026800080939000D0929D00C0929C003FC08091AA
:10269000C00080688093C0008091C0008F7B8093D1
:1026A000C000C092CF0032C08091C0008062809391
:1026B000C000C092D0002AC08091C2008860809380
:1026C000C2008091C2008B7F8093C200C092D20072
:1026D0001DC0E0E8AE16B1040CF08ACF83CFA30191
:1026E000920169817A818B819C810E94A83120E0CE
:1026F00030E040E85FE30E94D72F9B01AC01C701A7
:10270000B6010E94A33187FD6DCF72CF6091AE01FB
:1027100070E060587109072E000C880B990B0E941D
:10272000F33020E030E04FE753E40E9449306B0182
:102730007C016093BE037093BF038093C0039093AA
:10274000C10320E030E0A9010E94A33187FD1DC034
:10275000A701960160E070E080E89FE30E94D72F18
:102760006093BA037093BB038093BC039093BD0343
:1027700080E090E0A0E8BFE38093B6039093B703B6
:10278000A093B803B093B90323C020E030E0A901BF
:10279000C701B6010E94443087FF1AC080E090E074
:1027A000A0E8BFE38093BA039093BB03A093BC035C
:1027B000B093BD039C01AD01C701B6010E94D82FA3
:1027C0006093B6037093B7038093B8039093B903F3
:1027D0009091AB01F801C080D180E280F380892F15
:1027E000807491FDEAC0811195C01C141D041E0463
:1027F0001F04E4F54090AC015090AD012091AF0171
:102800003091B0014901A12CB12C612C712CC30174
:10281000B2010E94F1302091B6033091B70340918C
:10282000B8035091B9030E94A8310E94BB306819C7
:1028300079098A099B09A70196010E94A532A30183
:1028400092010E94742FDA01C901880D991DAA1DF9
:10285000BB1DF80180839183A283B38380E090E065
:102860000E943412F8018081918146C0C114D104C4
:10287000E104F10409F444C04090AC015090AD0172
:102880008091AF019091B0014C01A12CB12CF0943A
:10289000E094D094C094C11CD11CE11CF11C612CAB
:1028A000712CC301B2010E94F1302091BA03309122
:1028B000BB034091BC035091BD030E94A8310E940C
:1028C000BB30681979098A099B09A70196010E9402
:1028D000A532A30192010E94742FDA01C901880D6B
:1028E000991DAA1DBB1DF80180839183A283B38328
:1028F0000E94341280E090E00E9427122F9A49C172
:1029000080E090E00E94341280E090E00E94271264
:102910002F983FC1E091AC01F091AD011C141D0452
:102920001E041F04DCF44F01969487948091AF013C
:102930009091B001880E991EA12CB12C2F01612C11
:10294000712CC301B201681979098A099B09A70191
:1029500096010E94A532A301920119C0C114D104AD
:10296000E104F10411F14F01969487948091AF0135
:102970009091B001881A990AA12CB12CA50194015B
:10298000C701B6010E94A5329F0140E050E00E94BD
:10299000742FDA01C901880D991DAA1DBB1DF8010C
:1029A00080839183A283B38303C0CF0196958795DB
:1029B0000E94341280E090E0D4C0811133C0F7FC53
:1029C00002C02F9A01C02F988091AF019091B00161
:1029D0006C01E12CF12C8090AC019090AD01A12C08
:1029E000B12CF801208131814281538157FF07C00A
:1029F00050954095309521953F4F4F4F5F4FC50102
:102A0000B4016C197D098E099F090E94A532A501A8
:102A100094010E94742FDA01C9018C0D9D1DAE1D19
:102A2000BF1D81C01C141D041E041F046CF520E092
:102A300030E040E85FE36091A7017091A8018091C8
:102A4000A9019091AA010E94D82F209104013091F0
:102A5000050140910601509107010E94A8310E9492
:102A6000BB304B015C0160910001709101018091CC
:102A70000201909103010E94BB30681979098A090B
:102A80009B09A70196013FC0C114D104E104F104E0
:102A900009F44FC02091A7013091A8014091A901EC
:102AA0005091AA0160E070E080E89FE30E94D72F78
:102AB00020910401309105014091060150910701D8
:102AC0000E94A8310E94BB304B015C0122273327B2
:102AD000A9012C193D094E095F0960910801709107
:102AE000090180910A0190910B012D873E874F8744
:102AF000588B0E94BB30681979098A099B092D857A
:102B00003E854F8558890E94A5322091AC013091B5
:102B1000AD0140E050E00E94742FDA01C901880D38
:102B2000991DAA1DBB1DF80180839183A283B383E5
:102B30000BC0609104017091050180910601909194
:102B400007010E94C230CB010E943412609104013F
:102B50007091050180910601909107010E94C23099
:102B6000CB0160960FB6F894DEBF0FBECDBFDF91EC
:102B7000CF911F910F91FF90EF90DF90CF90BF907A
:102B8000AF909F908F907F906F905F904F900C943C
:102B9000271260960FB6F894DEBF0FBECDBFDF914F
:102BA000CF911F910F91FF90EF90DF90CF90BF904A
:102BB000AF909F908F907F906F905F904F9008950F
:102BC0006091A5017091A60180E090E00E94F13033
:102BD0009B01AC0160E07EEF8FEF96E40E944930EC
:102BE0000895009769F0FC0101900020E9F7319702
:102BF000AF01481B590BBC0181E894E00C94FA0E1C
:102C000080E090E008958091800429B1922F9C701B
:102C1000892B90E0AC015595479555954795409384
:102C2000800440917C0450917D0460917E047091F9
:102C30007F04FC01ED5AFE4F8081082E000C990B99
:102C4000AA0BBB0B840F951FA61FB71F80937C0494
:102C500090937D04A0937E04B0937F0480917B04C5
:102C6000811119C021FF17C081E080937B048093FC
:102C7000790480939B048091750490917604A091CF
:102C80007704B091780480937C0490937D04A093A2
:102C90007E04B0937F040895ECE2F8E04491EDE007
:102CA000F8E09491EEEEF7E02491222309F44DC070
:102CB0004423C1F150E0FA013197EE30F10590F56F
:102CC000E055FF4F0C94C932309180003F7703C02C
:102CD000309180003F7D3093800024C034B53F7731
:102CE00002C034B53F7D34BD1DC0309190003F77A8
:102CF00007C0309190003F7D03C030919000377F36
:102D0000309390000FC03091C0003F7703C03091E6
:102D1000C0003F7D3093C00005C03091C200377FB6
:102D20003093C200E22FF0E0EE0FFF1FED52F84F9C
:102D3000A591B4912FB7F894EC91811103C09095AF
:102D40009E2301C09E2B9C932FBF0895E091810488
:102D5000F09182040190F081E02D682F81E894E0E9
:102D60000994CF93DF938DE00E94A616EC018AE0D0
:102D70000E94A6168C0F9D1FDF91CF9108958F9210
:102D80009F92AF92BF92EF92FF920F931F93CF93B8
:102D9000DF93CDB7DEB7A1970FB6F894DEBF0FBEB5
:102DA000CDBF162F042F19A2423008F40AE07E018D
:102DB00021E2E20EF11C802E912CA12CB12C612F6E
:102DC000A50194010E94A62F029F1019112481E0F1
:102DD000E81AF1081A3014F4105D01C0195CF7010B
:102DE0001083122F732FCA01232B242B252B39F785
:102DF000C7010E94F115A1960FB6F894DEBF0FBE71
:102E0000CDBFDF91CF911F910F91FF90EF90BF90B9
:102E1000AF909F908F900895CF92DF92EF92FF92A4
:102E2000CF93DF9397FF19C06B017C018DE20E9465
:102E3000A616EC0166277727CB016C197D098E0950
:102E40009F094AE00E94BF168C0F9D1FDF91CF9112
:102E5000FF90EF90DF90CF9008954AE0DF91CF91FF
:102E6000FF90EF90DF90CF900C94BF16CF93DF933D
:102E7000BC01990F880B990B0E940C17EC010E9462
:102E8000B1168C0F9D1FDF91CF910895BC01990F52
:102E9000880B990B0C940C17682F70E080E090E081
:102EA0004AE00C94BF160C94F115CF93DF9390E099
:102EB000FC01E050F84F2491FC01EF51F84F849150
:102EC000882361F190E0880F991FFC01EB53F84FC4
:102ED000C591D491FC01ED52F84FA591B4916111C7
:102EE00009C09FB7F8948881209582238883EC914C
:102EF0002E230BC0623061F49FB7F8943881822F83
:102F0000809583238883EC912E2B2C939FBF06C042
:102F10008FB7F894E8812E2B28838FBFDF91CF9154
:102F200008953FB7F8948091320590913305A091B0
:102F30003405B091350526B5A89B05C02F3F19F083
:102F40000196A11DB11D3FBFBA2FA92F982F882729
:102F5000820F911DA11DB11DBC01CD0142E0660F84
:102F6000771F881F991F4A95D1F70895CF92DF9256
:102F7000EF92FF92CF93DF936B017C010E94911738
:102F8000EB01C114D104E104F10479F00E9491171E
:102F90006C1B7D0B683E7340A0F381E0C81AD1081A
:102FA000E108F108C851DC4FECCFDF91CF91FF90E1
:102FB000EF90DF90CF9008952FB7F89460912E0591
:102FC00070912F0580913005909131052FBF0895A4
:102FD0000F931F930E94DC176093890470938A04F7
:102FE00080938B0490938C04E0918104F09182048F
:102FF0000084F185E02D81E894E0099597FF1FC0DA
:103000000E94DC170091890410918A0420918B049E
:1030100030918C04DC01CB01801B910BA20BB30B14
:1030200000918504109186042091870430918804D2
:1030300080179107A207B307B8F28FEF9FEF1F9198
:103040000F910895FF920F931F93CF93DF9300D0BA
:1030500000D0CDB7DEB70E94E817FC0197FD11C084
:103060008D32910591F0C0970A9778F0E091810434
:10307000F09182040680F781E02D81E894E00995C3
:10308000EACF60E070E0CB014CC020E030E0A90165
:10309000F12CE130F105F1F0ED32F105C9F0CF018D
:1030A000C0970A97B8F4AAE0B0E00E94932F8F016E
:1030B000FF0F220B330BDC01CB01800F911FA21FEE
:1030C000B31F9C01AD01205331094109510902C0D0
:1030D000FF24F394E0918104F09182040680F7814B
:1030E000E02D81E894E029833A834B835C83099542
:1030F0000E94E817FC01C09729813A814B815C81CD
:103100000A9738F2E130F10521F2FF2041F06627FD
:103110007727CB01621B730B840B950B02C0CA018E
:10312000B9010F900F900F900F90DF91CF911F91E9
:103130000F91FF9008951F920F920FB60F921124D6
:103140002F933F938F939F93AF93BF9380912E05BF
:1031500090912F05A0913005B091310530912D054A
:1031600023E0230F2D3720F40196A11DB11D05C0CA
:1031700026E8230F0296A11DB11D20932D058093F3
:103180002E0590932F05A0933005B09331058091C3
:10319000320590913305A0913405B0913505019623
:1031A000A11DB11D8093320590933305A093340582
:1031B000B0933505BF91AF919F918F913F912F9122
:1031C0000F900FBE0F901F901895CF93DF93CDB740
:1031D000DEB7C054D1090FB6F894DEBF0FBECDBF25
:1031E000789484B5826084BD84B5816084BD85B5E2
:1031F000826085BD85B5816085BD80916E008160EE
:1032000080936E0010928100809181008260809393
:103210008100809181008160809381008091800095
:103220008160809380008091910082608093910002
:1032300080919100816080939100809190008160E5
:10324000809390008091C10084608093C100809140
:10325000C10082608093C1008091C1008160809331
:10326000C1008091C30081608093C3008091C00041
:1032700082608093C0008091C20081608093C20010
:1032800080917A00846080937A0080917A008260D5
:1032900080937A0080917A00816080937A00809197
:1032A0007A00806880937A001092A20181E0809376
:1032B000D70080EA8093D80082E189BD09B400FE7E
:1032C000FDCF61E070E080E090E00E94B61780E9F9
:1032D0008093D8001CE01093E2001092E00010925E
:1032E00078031092770310927D0310927E03109260
:1032F0007F03109280031092720310927103109258
:10330000860310928703109288031092890310920B
:103310008A0310928B0310928C0310928D0342E06B
:10332000BE01615F7F4F80E090E00E9458098F8569
:1033300098898A3F910509F407C18AEF90E09E873A
:103340008D8742E0BE01635F7F4F80E090E00E9486
:10335000290919821A821B821C8244E0BE016F5F18
:103360007F4F82E090E00E94290988E394E09E87E5
:103370008D8742E0BE01635F7F4F86E090E00E9450
:10338000290984E6898B41E0BE016F5E7F4F88E0AA
:1033900090E00E94290941E0BE016F5E7F4F8BE003
:1033A00090E00E94290941E0BE016F5E7F4F8CE0F2
:1033B00090E00E94290941E0BE016F5E7F4F80E1ED
:1033C00090E00E94290941E0BE016F5E7F4F8DE0D1
:1033D00090E00E94290982E3898B41E0BE016F5E83
:1033E0007F4F89E090E00E94290941E0BE016F5EB5
:1033F0007F4F8AE090E00E94290941E0BE016F5EA4
:103400007F4F8EE090E00E94290986E4898B41E09D
:10341000BE016F5E7F4F8FE090E00E9429091E86FB
:103420001D8642E0BE01635F7F4F81E190E00E9414
:1034300029098FEF97E09E878D8742E0BE01635F89
:103440007F4F83E190E00E9429098FEF9FE09E87E4
:103450008D8742E0BE01635F7F4F85E190E00E946F
:10346000290980E8898B41E0BE016F5E7F4F87E1CB
:1034700090E00E94290981E0898B41E0BE016F5EE6
:103480007F4F88E190E00E94290980E699E0A0E062
:10349000B0E089839A83AB83BC8344E0BE016F5F55
:1034A0007F4F89E190E00E942909198B41E0BE011C
:1034B0006F5E7F4F8DE190E00E9429091E861D8678
:1034C00042E0BE01635F7F4F8AE290E00E942909DB
:1034D00042E0BE01635F7F4F8EE290E00E942909C7
:1034E00042E0BE01635F7F4F82E390E00E942909C2
:1034F00042E0BE01635F7F4F86E390E00E942909AE
:103500008FEF93E09E878D8742E0BE01635F7F4F20
:103510008CE290E00E94290942E0BE01635F7F4F88
:1035200080E390E00E94290942E0BE01635F7F4F83
:1035300084E390E00E94290942E0BE01635F7F4F6F
:1035400088E390E00E94290942E061EB71E086E0A7
:1035500090E00E94580944E067E974E082E090E05E
:103560000E94580944E065E573E089E190E00E941B
:10357000580941E063EB71E088E090E00E9458094F
:1035800041E06CE573E089E090E00E94580941E079
:103590006AE573E08AE090E00E94580941E06FE537
:1035A00073E08BE090E00E94580941E06EE573E023
:1035B0008CE090E00E94580941E06DE573E08DE0F9
:1035C00090E00E94580941E06BE573E08EE090E0E6
:1035D0000E94580941E060E673E08FE090E00E94AD
:1035E000580941E069E573E080E190E00E945809E4
:1035F00041E06EEA71E087E190E00E94580941E005
:1036000065E873E088E190E00E94580942E06FEAC3
:1036100071E081E190E00E94580942E06CEA71E0BB
:1036200083E190E00E94580942E063E573E085E1A0
:1036300090E00E94580941E06BEA71E08DE190E072
:103640000E94580942E069E773E08AE290E00E9434
:10365000580942E06BE773E08CE290E00E94580961
:1036600042E061E873E08EE290E00E94580942E097
:1036700063E873E080E390E00E94580942E063E76A
:1036800073E082E390E00E94580942E065E773E04E
:1036900084E390E00E94580942E06DE673E086E31F
:1036A00090E00E94580942E06FE673E088E390E002
:1036B0000E945809609155037091560380915703F9
:1036C000909158030E94F33020E030E044EB53E443
:1036D0000E9449306B017C018091B1019091B2014F
:1036E000BC01990F880B990B0E94F3309B01AC0130
:1036F000C701B6010E94A8310E94BB3060934C0301
:1037000070934D0380934E0390934F036B017C01A4
:10371000F594E794D794C794C0927504D092760438
:10372000E0927704F092780462E080E00E945517FE
:1037300062E081E00E94551762E082E00E94551726
:1037400010927B04C0927C04D0927D04E0927E04AF
:10375000F0927F04109280044A9B05C080918004FF
:103760008160809380044B9B05C0809180048260BF
:1037700080938004809169008F7C806180936900D0
:10378000EA9A809169008F73806480936900EB9A54
:1037900060E082E10E94551760E083E10E945517C6
:1037A00060E084E10E94551760E085E10E945517B2
:1037B00062E084E00E94551762E086E10E9455179E
:1037C00062E087E10E94551762E08CE00E94551785
:1037D00062E086E00E94551762E087E00E9455177C
:1037E00062E088E00E94551762E085E00E9455176C
:1037F00088E191E09093A4018093A3018DEE94E081
:1038000090932A058093290585ED9CE090932C05E3
:1038100080932B05279A1091AB01812F0E9481097B
:103820005C019093A6018093A5019093AD018093D4
:10383000AC016091AF017091B00180E090E00E9416
:10384000F1306B017C01B50180E090E00E94F13025
:103850009B01AC01C701B6010E9449306093A701EA
:103860007093A8018093A9019093AA01012F017080
:1038700010FD05C020E030E04AEF54E404C020E031
:1038800030E04AE754E460910801709109018091A9
:103890000A0190910B010E94A83160930801709376
:1038A000090180930A0190930B01011105C020E0EA
:1038B00030E04AEF54E404C020E030E04AE754E44A
:1038C00060910401709105018091060190910701BA
:1038D0000E94A83160930401709305018093060152
:1038E00090930701011105C020E030E04AEF54E455
:1038F00004C020E030E04AE754E460910001709198
:10390000010180910201909103010E94A83160930E
:1039100000017093010180930201909303011092C2
:1039200080001092810010926F0016BA8091A5015C
:103930009091A60190938700809386001092890051
:103940001092880010928B0010928A008091AB0137
:103950008274823421F480918100826003C080915E
:1039600081008160809381008091AB0180FF09C05C
:1039700080918000826080938000809181008061CE
:1039800008C08091800082608093800080918100D7
:1039900088618093810080E090E00E9434128091E1
:1039A0008000806880938000259A80E090E00E94EB
:1039B000271280918000806280938000269A61E0C7
:1039C0008DE00E94551713E081E00E944C1664E1DF
:1039D00070E080E090E00E94B61780E00E944C16F4
:1039E00064E170E080E090E00E94B617115061F74A
:1039F00010926703109268031092690310926A0391
:103A000087E693E00E9441128091750490917604BC
:103A1000A0917704B0917804F89480937C049093FB
:103A20007D04A0937E04B0937F0478941092660383
:103A3000109265038FEF97E09093520380935103A8
:103A40008091AE01809350030E94911760938E0382
:103A500070938F0380939003909391030E9491172A
:103A600060939304709394048093950490939604C8
:103A70000091920310919303209194033091950348
:103A80006B017C01C01AD10AE20AF30AC0928F04CA
:103A9000D0929004E0929104F092920400918E03EF
:103AA00010918F0320919003309191036B017C0161
:103AB000C01AD10AE20AF30A40EDC41647E0D40660
:103AC000E104F10410F40C94BE2E60938E03709305
:103AD0008F038093900390939103809179048823BE
:103AE00019F1F89480917C0490917D04A0917E045A
:103AF000B0917F0478944091750450917604609160
:103B0000770470917804841B950BA60BB70B40913A
:103B10009704509198046091990470919A04840FCD
:103B2000951FA61FB71F16C0F89480917C04909132
:103B30007D04A0917E04B0917F0478944091750437
:103B4000509176046091770470917804841B950BF2
:103B5000A60BB70B80938A0390938B03A0938C03DF
:103B6000B0938D0380918A0390918B03A0918C0375
:103B7000B0918D038093860390938703A09388036D
:103B8000B09389031091850315FB882780F916FDF2
:103B9000826017FF02C0846025C0813019F58091D2
:103BA000750490917604A0917704B09178046C012B
:103BB0007D01C094D094E094F0949C01AD012C1947
:103BC0003D094E095F0960917D0370917E038091EC
:103BD0007F03909180030E94A5322FEF3FEF40E0DA
:103BE00050E04AC0823099F44091750450917604B7
:103BF00060917704709178046A017B01C094D0943D
:103C0000E094F094A0917703B091780329C08330B9
:103C100099F4409175045091760460917704709105
:103C200078046A017B01C094D094E094F094A09150
:103C30007103B091720314C0843061F54091750432
:103C40005091760460917704709178046A017B0149
:103C5000C094D094E094F094A0916B03B0916C0365
:103C60009A01AB012C193D094E095F090E949E2F54
:103C70002FEF3FE040E050E00E94742FC20ED31EB1
:103C8000E41EF51EC0928603D0928703E09288035B
:103C9000F09289038090860390908703A090880318
:103CA000B090890380919C0490919D04A0919E0402
:103CB000B0919F0480929C0490929D04A0929E04D7
:103CC000B0929F042091A404222309F449C00091DA
:103CD000CD0454E0059F90011124B90164567B4F37
:103CE0007B01A5019401281B390B4A0B5B0BCA0110
:103CF000B9010E94F330D70119966D937D938D938E
:103D00009C931C97F02E3AE0E32E60E070E0CB012C
:103D1000B4E0FB9EF0011124E456FB4F218532856F
:103D2000438554850E94D82FFF2011F0FA9402C0D9
:103D300029E0F22EEA94E110EBCF20E030E040E2FF
:103D400051E40E9449300F5F0A3018F40093CD040B
:103D500002C01092CD0468A779A78AA79BA70FC0BD
:103D600081E08093A4041092A0041092A104109208
:103D7000A2041092A30418A619A61AA61BA62091A5
:103D8000CE043091CF044091D0045091D10488A545
:103D900099A5AAA5BBA58093CE049093CF04A09328
:103DA000D004B093D1048091D604882309F444C090
:103DB00000912705E4E00E9FC0011124BC016B5562
:103DC0007B4F7B0168A579A5CD010E94D72FD70134
:103DD000D2966D937D938D939C93D597F02EB4E1FD
:103DE000EB2E60E070E0CB01B4E0FB9EF00111240B
:103DF000EB55FB4F22A933A944A955A90E94D82FFE
:103E0000FF2011F0FA9402C0A3E1FA2EEA94E11027
:103E1000EBCF20E030E040EA51E40E9449300F5FF0
:103E2000043118F40093270502C01092270568ABEF
:103E300079AB8AAB9BAB0FC081E08093D604109224
:103E4000D2041092D3041092D4041092D50418AA6C
:103E500019AA1AAA1BAA80912805882359F110FFD4
:103E600023C70E94E0159B01AC0160E070E080E098
:103E700094E40E9449306B017C016091600370E022
:103E800080E090E00E94F3309B01AC01C701B601D5
:103E90000E94A83120E030E048EC52E40E94493012
:103EA0000E94BB30AB01C501B4010E9458072B0131
:103EB0003C01FDC6E8EBF1E0FFA3EEA31F8A1E8ADA
:103EC000412C512C32010E891F890F5F1F4F1F8B10
:103ED0000E8B4EE19801429F8001439F100D1124EB
:103EE0000C511E4FD8018C918370833009F0CFC6DE
:103EF0000E94E0156B017C01F80121853285A789BC
:103F0000B08D0E94CF322FEF3FE740E050E00E949B
:103F1000742FCA01B9010E94F330A70196010E94D3
:103F200049300E94BB309B01AC01D8011B968D919A
:103F30009C911C97059730F4E4E0F0E01C96FC930C
:103F4000EE931B97FEE1EF2ECE88DF88EC9CF0010C
:103F5000ED9CF00D1124EC51FE4FE1818E2F90E08D
:103F6000FC013197ED30F10508F07BC6EA5AFF4FAE
:103F70000C94C9320E94E0156A8B7B8B8C8B9D8BD5
:103F80002EE10E891F89209FC001219F900D1124D1
:103F9000AC014C515E4F1A01DA0119968D909C903C
:103FA0001A975596AD90BC9056971F96CD90DC9081
:103FB00050975196ED90FC90529753960D911C910D
:103FC000549714962C91149713964C9113975796D7
:103FD0008D919C915897EEA1FFA1608171810E9403
:103FE00030069401DC010E94CF322FEF3FE740E022
:103FF00050E00E94742FCA01B9010E94F3302A894F
:104000003B894C895D890E9449300E94BB300E94E7
:104010002D079B01AC01A0915F03B0E00E94932F9C
:1040200024E630E040E050E00E94742F421A530A28
:10403000640A750A72C10E94E0156A8B7B8B8C8BB7
:104040009D8B5EE1E52ECE88DF88EC9CF001ED9C37
:10405000F00D1124EC51FE4F018512851B8F0A8F44
:10406000C588D688DF8ECE8EE784F088FBA2EAA2D0
:10407000018912891DA70CA70389148918AF0FABFA
:1040800084809380AEA1BFA12D903C9007851089BC
:104090006085A7800A2C000CBB08062E000C770B4D
:1040A0006A197B09CB01770FAA0BBB0B6627782F08
:1040B000892F9A2F0E94F3306B017C01B80180E0B8
:1040C00090E00E94F13020E030E04AE754E40E94A2
:1040D00049309B01AC01C701B6010E9449306B0118
:1040E0007C01C101B8010E94B532BC0180E090E0C2
:1040F0000E94F13020E030E04AE754E40E94493069
:104100009B01AC01C701B6010E94A8310E94BB30DF
:10411000BA2CAA24C501860F971FAE8CBF8CCAA0EB
:10412000DBA0ECA4FDA40FA918AD282D492DB101E9
:104130000E9430062A8D3B8DDC010E94CF322FEF8A
:104140003FE740E050E00E94742FCA01B9010E948D
:10415000F3302A893B894C895D890E9449300E944D
:10416000BB300E942D07461A570A680A790A79C59A
:104170000E94E0156A8F7B8F8C8F9D8F4EE1C42E3D
:10418000EE89FF89CE9EC001CF9E900D11248C0137
:104190000C511E4F1801D80119960D90BC91A02DFD
:1041A000BF8FAE8FF801038CF48DE02DFBA3EAA343
:1041B000D8015D96BC91BCA7F80183849484A5883E
:1041C000B688C784D088E188F2880389148924815D
:1041D0004381AEA1BFA10D90BC91A02DBB8BAA8B3A
:1041E0008789908DBD010E9430068C01B40180E06A
:1041F00090E00E94F13020E030E04AE754E40E9471
:1042000049309B01AC0160E070E080E89FE30E94D0
:1042100049306B017C018A899B89B4010E94B532C7
:10422000BC0180E090E00E94F13020E030E04AE7FD
:1042300054E40E9449309B01AC01C701B6010E94C1
:10424000A8316B017C01BCA56B2F70E080E090E091
:104250000E94F13020E030E040E85BE30E94A831AA
:104260009B01AC01C701B6010E94D82F2BED3FE0A6
:1042700049EC50E40E94A8310E9415329B01AC0128
:10428000EAA1FBA16F01FF0FEE08FF08B801110FB3
:10429000880B990B2DAF21963FAF21974EAF5FAFA3
:1042A0000E94F3302DAD21963FAD21974EAD5FAD0D
:1042B0000E94A8310E94BB30CB01770FAA0BBB0B29
:1042C000A7019601280F391F4A1F5B1FAE8DBF8DB6
:1042D0000E94932F2FEF3FE740E050E00E94742FA1
:1042E000CA01B9010E94F3302A8D3B8D4C8D5D8D42
:1042F0000E9449300E94BB309B01AC01A0915E033B
:10430000B0E00E94932F24E630E040E050E00E94AD
:10431000742F420E531E641E751ED10116968C9189
:10432000169782FF9EC41D966D917C911E9780E02A
:1043300090E00E94F1302BED3FE049EC50E40E9408
:10434000A83120E030E040E058E30E94A8310E940C
:1043500015329B01AC01C301B2012DAF21963FAFD5
:1043600021974EAF5FAF0E94F3302DAD21963FAD48
:1043700021974EAD5FAD0E94A8310E94BB302B014A
:104380003C016FC40E94E0156A8F7B8F8C8F9D8FDC
:104390003EE1E32ECE88DF88EC9CF001ED9CF00D31
:1043A0001124EC51FE4F018512851F8F0E8F238D36
:1043B000348DA901330F660B770B4AA35BA36CA363
:1043C0007DA3558D5CA723843484A588B688C784D3
:1043D000D088E188F2880389148924814381AEA1C1
:1043E000BFA10D90BC91A02DBB8BAA8B8789908D0E
:1043F000BD010E943006BC01990F880B990B0E94E9
:10440000F3304B015C01B10180E090E00E94F1309B
:1044100020E030E04AE754E40E9449309B01AC01BF
:1044200060E070E080E89FE30E9449306B017C010E
:104430008A899B89B1010E94B532BC0180E090E07D
:104440000E94F13020E030E04AE754E40E94493015
:104450009B01AC01C701B6010E94A8316B017C0130
:10446000BCA56B2F70E080E090E00E94F13020E06E
:1044700030E040E85BE30E94A8319B01AC01C7013A
:10448000B6010E94D82F2BED3FE049EC50E40E948A
:10449000A8310E9415326B017C0120E030E0A901B7
:1044A0000E94A33187FF0CC020E030E0A901C701C2
:1044B000B6010E94443087FF05C0EFEFEEAB02C0AB
:1044C000F1E0FEABCEA86C2DCC0C770B880B990BD2
:1044D0000E94F3309B01AC01C501B4010E94A831D8
:1044E0000E94BB30CB01770FAA0BBB0BE0C10E942F
:1044F000E0156E8F7F8F88A399A30EE1EE88FF8869
:104500000E9DF0010F9DF00D1124EC51FE4F218501
:1045100032853BA32AA3238D348DA901330F660B6B
:10452000770B4CA75DA76EA77FA7358D6385748534
:104530007B8B6A8BA588B688C784D088E188F2888F
:104540000389148924814381AEA1BFA10D90BC9140
:10455000A02DBB8FAA8F8789908DBD0121963FAF7B
:1045600021970E9430061C01EA89FB89BF0180E087
:1045700090E00E94F1304B015C0121963FAD219704
:1045800060E4630F70E080E090E00E94F13020E092
:1045900030E040E85BE30E94A831A50194010E944D
:1045A000A8310E94C2308A8D9B8D860F971F6A8921
:1045B0007B890E94B5328C01BC0180E090E00E94B2
:1045C000F13020E030E04AE754E40E9449306B01CA
:1045D0007C0120E030E0A9010E94A33187FD3CC0AE
:1045E00020E030E04AE754E4C501B4010E944930BC
:1045F0006A8F7B8F8C8F9D8F20E030E040E05FE3FF
:104600000E94A8319B01AC01C701B6010E94443051
:1046100087FF22C0B101032C000C880B990B0E946C
:10462000F33020E030E040E850E40E94A8312A8DC9
:104630003B8D4C8D5D8D0E944930A70196010E94F3
:10464000A8310E94BB303194219431086101C60E1B
:10465000D71EDDAACCAA51C020E030E04AE754E4DE
:10466000C501B4010E9449304B015C0120E030E0FB
:1046700040E05FE30E94A8319B01AC01C701B60195
:104680000E94A33187FD39C0A5019401C701B6017D
:104690000E94443087FF31C0B101032C000C880B0D
:1046A000990B0E94F33020E030E040E850EC0E948B
:1046B000A831A50194010E9449306B017C018A89CF
:1046C0009B8996958795B801681B790B80E090E0EF
:1046D0000E94F13020E030E04AE754E40E94493083
:1046E0009B01AC01C701B6010E94A8310E94BB30FA
:1046F0007101E60EF71EFDAAECAA0CA91DA9C801BE
:10470000110FAA0BBB0B2CA53DA54EA55FA5280F2D
:10471000391F4A1F5B1FAAA1BBA10E94932F2FEF35
:104720003FE740E050E00E94742FCA01B9010E94A7
:10473000F3302E8D3F8D48A159A10E9449300E942F
:10474000BB309B01AC01A0915E03B0E00E94932FAF
:1047500024E630E040E050E00E94742F420E531EE9
:10476000641E751E7EC20E94E0156A8F7B8F8C8F3F
:104770009D8F4EE12E893F89429FF001439FF00DAE
:104780001124EC51FE4F618572857F8F6E8F238DD2
:10479000348DC901330FAA0BBB0B8AA39BA3ACA317
:1047A000BDA3358D23843484A588B688C784D0887A
:1047B000E188F2880389148924814381AEA1BFA1D5
:1047C0000D90BC91A02DBB8BAA8B8789908DBD01CC
:1047D00021963FAF21970E9430068C01B10180E005
:1047E00090E00E94F1304B015C0121963FAD219792
:1047F00060E8630F70E080E090E00E94F13020E01C
:1048000030E040E85BE30E94A831A50194010E94DA
:10481000A8310E94C2308A899B89860F971FB101F7
:104820000E94B5329B8B8A8B82159305D0F5B80117
:10483000012E000C880B990B0E94F3309B01AC01F8
:104840000E94D82F6B017C0120E030E04AE754E45D
:10485000C501B4010E9449309B01AC01C701B601FA
:104860000E9449304B015C01CA88DB88B60180E0B8
:1048700090E00E94F13020E030E04AE754E40E94EA
:1048800049309B01AC01C501B4010E94A8310E94CE
:10489000BB301195019511097801E60EF71EFCAEAB
:1048A000EBAE0BAD1CADC801110FAA0BBB0B2AA1BF
:1048B0003BA14CA15DA1280F391F4A1F5B1FAE8D84
:1048C000BF8D0E94932F2FEF3FE740E050E00E9402
:1048D000742FCA01B9010E94F3302A8D3B8D4C8D93
:1048E0005D8D2BCF0E94E0156A8F7B8F8C8F9D8F03
:1048F0004EE12E893F89429FF001439FF00D112424
:10490000EC51FE4F618572857F8F6E8F238D348DC4
:10491000C901330FAA0BBB0B8AA39BA3ACA3BDA3F6
:10492000358D23843484A588B688C784D088E188EF
:10493000F2880389148924814381AEA1BFA10D901F
:10494000BC91A02DBB8BAA8B8789908DBD01219630
:104950003FAF21970E9430068C01B10180E090E0CA
:104960000E94F1304B015C0121963FAD219760E838
:10497000630F70E080E090E00E94F13020E030E0D2
:1049800040E85BE30E94A831A50194010E94A83190
:104990000E94C2308A899B89860F971FB1010E94AD
:1049A000B5329B8B8A8B82159305D0F566277727C6
:1049B000601B710B072E000C880B990B0E94F330C3
:1049C0009B01AC010E94D82F6B017C0120E030E0FC
:1049D0004AE754E4C501B4010E9449309B01AC018F
:1049E000C701B6010E9449304B015C01CA88DB88CF
:1049F000B60180E090E00E94F13020E030E04AE72C
:104A000054E40E9449309B01AC01C501B4010E94ED
:104A1000A8310E94BB307801E60EF71EFAAEE9AE6F
:104A200009AD1AAD40CF8EE16E897F89869FF00176
:104A3000879FF00D1124EC51FE4F038D148DA09132
:104A40005D03B0E00E94932F20E436E040E050E0A8
:104A50000E94742F69017A012091750430917604C7
:104A60004091770450917804D8010E949E2FDC0178
:104A7000CB010FE0B595A795979587950A95D1F746
:104A8000092E000CAA0BBB0B4091860350918703A3
:104A900060918803709189038A019B01081B190B9F
:104AA0002A0B3B0BC901B801A6010E945807460E0C
:104AB000571E681E791ED5C08EE16E897F89869F3C
:104AC000F001879FF00D1124EC51FE4F038D148DE2
:104AD000A0915C03B0E00E94932F24E630E040E018
:104AE00050E00E94742F69017A01B801110F880B00
:104AF000990B0E94F3302AE939EC4CEC54E40E9403
:104B000049309B01AC0168A579A58AA59BA50E94A7
:104B1000D72FA6010E94850862C01EE1C12EAE8972
:104B2000BF89CA9EF001CB9EF00D1124EC51FE4FBF
:104B3000038D148DA0915B03B0E00E94932F24E6B7
:104B400030E040E050E00E94742F69017A01B80122
:104B5000110F880B990B0E94F33020E03EEF4FEFCE
:104B600056E40E9449309B01AC0168A979A98AA941
:104B70009BA90E94D72FA6010E941D0830C00EE1FC
:104B8000EE88FF880E9DF0010F9DF00D1124EC5171
:104B9000FE4F038D148DA0915A03B0E00E94932F15
:104BA00024E630E040E050E00E94742F69017A0171
:104BB000B801110F880B990B0E94F3302AE939ECE8
:104BC0004CEC54E40E9449309B01AC0168A579A5E6
:104BD0008AA59BA50E94D72FA6010E949C07092E9B
:104BE000000CAA0BBB0B480E591E6A1E7B1E39C057
:104BF0000E94E0159B01AC018EE16E897F89869F42
:104C0000F001879FF00D1124EC51FE4F838D948DA0
:104C1000BC01990F880B990B2DAF21963FAF2197BF
:104C20004EAF5FAF0E94F3302DAD21963FAD21977F
:104C30004EAD5FAD0E9449300E94BB300E942D07EF
:104C40009B01AC01A0915E03B0E00E94932F24E68B
:104C500030E040E050E00E94742F421A530A640A88
:104C6000750A0E94DC170091B4011091B5012091E2
:104C7000B6013091B701DC01CB01801B910BA20B77
:104C8000B30BEEA1FFA180839183A283B3830EA116
:104C90001FA10C5F1F4F1FA30EA32E893F892B302E
:104CA000310509F010C903C0412C512C320110917B
:104CB000850311FF31C00E94E0159B01AC01E0911A
:104CC0005C0367E471E0E69FC001E79F900D11244B
:104CD000BC0180E090E02DAF21963FAF21974EAF11
:104CE0005FAF0E94F3302DAD21963FAD21974EADC1
:104CF0005FAD0E9449300E94BB30AB0168A579A529
:104D00008AA59BA50E948508092E000CAA0BBB0B47
:104D1000480E591E6A1E7B1E12FF31C00E94E0150C
:104D20009B01AC01E0915B0367E471E0E69FC00189
:104D3000E79F900D1124BC0180E090E02DAF2196FB
:104D40003FAF21974EAF5FAF0E94F3302DAD21965C
:104D50003FAD21974EAD5FAD0E9449300E94BB3000
:104D6000AB0168A979A98AA99BA90E941D08092EEF
:104D7000000CAA0BBB0B480E591E6A1E7B1E13FFAC
:104D800031C00E94E0159B01AC01E0915A0367E439
:104D900071E0E69FC001E79F900D1124BC0180E007
:104DA00090E02DAF21963FAF21974EAF5FAF0E94AD
:104DB000F3302DAD21963FAD21974EAD5FAD0E94F2
:104DC00049300E94BB30AB0168A579A58AA59BA597
:104DD0000E949C07092E000CAA0BBB0B480E591E03
:104DE0006A1E7B1E40917504509176046091770491
:104DF000709178048091860390918703A091880335
:104E0000B0918903CC24DD247601C41AD50AE60AC0
:104E1000F70A8C159D05AE05BF0534F048175907F4
:104E20006A077B070CF045C0B7FD05C0841B950BD6
:104E3000A60BB70B04C0840F951FA61FB71F809346
:104E4000860390938703A0938803B09389030E94FD
:104E5000E0159B01AC0160E07EEF8FEF96E40E94CD
:104E600049306B017C016091590370E080E090E073
:104E70000E94F3309B01AC01C701B6010E94A8312A
:104E800020E030E048EC52E40E9449300E94BB3000
:104E90006B017C0160918603709187038091880388
:104EA00090918903A6010E945807460E571E681E5E
:104EB000791EA091B301B0E0A30192010E94932F4B
:104EC00024E630E040E050E00E94742FCA01B901AE
:104ED0000E942D076B017C0114FF04C00E940C1777
:104EE0000E94B116C0926703D0926803E0926903F2
:104EF000F0926A0360918A0370918B0380918C0316
:104F000090918D030E94F3306B017C0160914C0302
:104F100070914D0380914E0390914F030E94F330A6
:104F20009B01AC0160E07FEF8FE797E40E9449307E
:104F30009B01AC01C701B6010E94A8310E94BB30A1
:104F40004B015C01611570488105910534F088249E
:104F50008A94BFE79B2EA12CB12C811440E89406C3
:104F60004FEFA406B40634F4812CA0E89A2EAA24AC
:104F7000AA94BA2C80928A0390928B03A0928C03FD
:104F8000B0928D0387E693E00E9441120091650381
:104F9000109166034090790350907A03400E511EA1
:104FA000612C712CC0907303D0907403C00ED11E7D
:104FB000E12CF12C2091710330917203C901330F60
:104FC000AA0BBB0B9C01AD012C193D094E095F09D1
:104FD000AFEFBFE00E94932F2091750330917603CD
:104FE000201B310B40E050E02C193D094E095F09B0
:104FF0000E94742F2E8B3F8B488F598FC0906D036A
:10500000D0906E03C00ED11EE12CF12C20916B03C9
:1050100030916C03C901330FAA0BBB0B9C01AD018E
:105020002C193D094E095F09AFEFBFE00E94932F95
:1050300020916F0330917003201B310B40E050E052
:105040002C193D094E095F090E94742F69017A01EC
:105050002091770330917803C901330FAA0BBB0B62
:105060009C01AD012419350946095709AFEFBFE08E
:105070000E94932F20917B0330917C03201B310BE6
:1050800040E050E024193509460957090E94742F61
:105090002901411450E1550624F044244A94FFE0CC
:1050A0005F2E57FE02C0412C512C50927803409243
:1050B00077036E887F88611460E1760624F06624A9
:1050C0006A94EFE07E2E77FE02C0612C712C709204
:1050D000720360927103C11470E1D70624F0CC24EE
:1050E000CA947FE0D72ED7FE02C0C12CD12CD0921B
:1050F0006C03C0926B038091810390918203800FB7
:10510000911F9C0140E050E02E8B3F8B488F598FC0
:1051100020917D0330917E0340917F035091800365
:105120006E897F89888D998D261B370B480B590B0B
:10513000AFEFBFEF0E94932F209183033091840340
:10514000201B310B40E050E0EE88FF88088D198D60
:105150002E193F09400B510B0E94742F2115310568
:1051600001E04007510524F02FEF3FEF40E050E011
:1051700057FF03C020E030E0A90120937D03309366
:105180007E0340937F035093800389B182958F7093
:1051900091E0892790E0A0E0B0E081709927AA27EC
:1051A000BB27799B8260789B84604E9B88604F9B75
:1051B0008061669B80621C9B8064369B806844E0B3
:1051C000880F991FAA1FBB1F4A95D1F780936103CF
:1051D00090936203A0936303B093640310E8911A61
:1051E00089829A822B833C834D82262D2295207FB3
:1051F00025292E8354E0769467945A95E1F76F82BF
:10520000C886D98664E0B695A795979587956A95DF
:10521000D1F78A871B861C864CE050E0BE016F5F89
:105220007F4F84E00E94B40C80918F049091900491
:10523000A0919104B091920480319742A105B105EB
:1052400008F49CC581E894E00E94670F18161906BF
:105250000CF084C581E894E00E942D0FE82F8FE9BF
:105260008E0F8A3108F4E0528E2F90E0FC01E15459
:10527000F109EA31F10508F071C5ED59FF4F0C94C1
:10528000C9328091B1019091B2010E94461780E22B
:105290000E94A6168091B3010E944C1780E20E94E2
:1052A000A61680915C030E944C1780E20E94A6160D
:1052B00080915A030E944C1780E20E94A6168091AA
:1052C0005F030E944C1780E20E94A61680915E0345
:1052D0000E944C1780E20E94A61680915D030E94F6
:1052E0004C1780E20E94A61680915B030E944C1727
:1052F00080E20E94A616809160030E944C1780E213
:105300000E94A616809159030E944C1780E20E94C9
:10531000A6166091AF017091B00180E090E04AE084
:105320000E94BF1680E20E94A6168091AE010E94E4
:105330004C1780E20E94A616809185030E944C17AC
:1053400080E20E94A6166091AC017091AD0180E0F0
:1053500090E04AE00E94BF1680E20E94A61660918B
:1053600055037091560380915703909158030E9402
:105370000C1780E20E94A6166091AB0170E092C209
:1053800083E991E00E9453178AEF90E00E9446174C
:1053900088E991E00E9453178AE991E00E9453172F
:1053A0008CE991E00E945317D9C480919B04082E88
:1053B000000C990BD1C4F89480917C0490917D04E9
:1053C000A0917E04B0917F04789419821A821B8286
:1053D0001C82F894C0907C04D0907D04E0907E0400
:1053E000F0907F0478948091AC019091AD01209170
:1053F000AF013091B001821B930B969587959695DE
:105400008795A0E0B0E089839A83AB83BC83CE010B
:1054100001960E9441121EEFF89440917C04509135
:105420007D0460917E0470917F047894809179046A
:10543000882351F019821A821B821C82CE010196A8
:105440000E94411281E024C09A01AB012C193D0950
:105450004E095F09A091B101B091B2010E949E2F47
:1054600020914C0330914D0340914E0350914F03D6
:105470000E94742F283631404105510564F019828D
:105480001A821B821C82CE0101960E94411283E087
:1054900080939B045FC462E370E080E090E00E9430
:1054A000B617115009F0B8CF55C40E9422186111E7
:1054B00001C061E06093AE014DC4F89440907C045B
:1054C00050907D0460907E0470907F047894809169
:1054D000750490917604A0917704B0917804481AED
:1054E000590A6A0A7B0A8091970490919804A091C6
:1054F0009904B0919A04480E591E6A1E7B1E0E94A0
:105500002218643071058105910594F06B017C01CE
:1055100071ECC71677E2D70679E0E706F1046CF084
:1055200010ECC12E17E2D12E19E0E12EF12C05C0AE
:10553000B4E0CB2ED12CE12CF12CC982DA82EB82A3
:10554000FC826091B1017091B201072E000C880BB2
:10555000990B0E94F3304B015C01C301B2010E9420
:10556000F330A50194010E94A8312B013C01609108
:105570004C0370914D0380914E0390914F030E9414
:10558000F3309B01AC01C301B2010E9449302B01F1
:105590003C01C0925503D0925603E0925703F0921B
:1055A0005803C701B601ADC080917504909176048F
:1055B000A0917704B0917804F89440917C045091C4
:1055C0007D0460917E0470917F047894841B950B18
:1055D000A60BB70B8093970490939804A09399041B
:1055E000B0939A04B7C31092970410929804109243
:1055F000990410929A0444E067E974E082E090E034
:1056000037C3F89480907C0490907D04A0907E0431
:10561000B0907F0478948091750490917604A09165
:105620007704B0917804881A990AAA0ABB0A809173
:10563000970490919804A0919904B0919A04880ECF
:10564000991EAA1EBB1E0E9422186E31710581058B
:10565000910584F06B017C0189E0C81687E0D806CB
:10566000E104F10464F0A8E0CA2EA7E0DA2EE12CF0
:10567000F12C05C0FEE1CF2ED12CE12CF12CC982FA
:10568000DA82EB82FC82C501B4010E94F3304B0147
:105690005C016091B1017091B201072E000C880B82
:1056A000990B0E94F3309B01AC01C501B4010E942B
:1056B000A8314B015C0160914C0370914D038091C6
:1056C0004E0390914F030E94F3309B01AC01C50142
:1056D000B4010E9449302B013C01D092B201C0922A
:1056E000B101B601DD0C880B990B0E94F3304B0120
:1056F0005C0160915503709156038091570390911E
:1057000058030E94F33020E030E044EB53E40E9461
:105710004930A50194010E94A8310E94BB306093DA
:105720004C0370934D0380934E0390934F036B0192
:105730007C01F594E794D794C794C0927504D092F5
:105740007604E0927704F09278040E94F3309B0193
:10575000AC01C301B2010E94A831A50194010E94CD
:1057600049300E94BB30C60ED71EE81EF91E80913C
:10577000970490919804A0919904B0919A04C81A42
:10578000D90AEA0AFB0AF894C0927C04D0927D04FC
:10579000E0927E04F0927F047894DCC20E9422188A
:1057A000262F6091850380E090E030E0F901082E1B
:1057B00002C0F595E7950A94E2F7C12CD12C760149
:1057C000C394082E04C0CC0CDD1CEE1CFF1C0A94F4
:1057D000D2F7E0FF02C06C2902C0C0946C21019690
:1057E0008830910519F76093850370E080E090E0C0
:1057F00042E00E94BF160E94B116B0C20E94221859
:105800008091AB0120E030E070E0AB01022E02C0DD
:10581000559547950A94E2F7C12CD12C7601C39493
:10582000022E04C0CC0CDD1CEE1CFF1C0A94D2F727
:1058300040FF02C08C2902C0C0948C212F5F3F4FD3
:105840002830310511F78093AB0141E06BEA71E03C
:105850008DE190E00E9429098091AB010E948109AD
:10586000BC0180E090E00E94F1302091A7013091CE
:10587000A8014091A9015091AA010E94A8310E945B
:10588000BB3069837A838B839C8344E0BE016F5F66
:105890007F4F81E190E00E9429098091AB010E9435
:1058A0008109BC0180E090E04AE0A3CF80E090E075
:1058B00053C281E894E00E942D0FE82F8FE98E0FEC
:1058C0008A3108F4E0528E2F90E0FC01E154F10996
:1058D000E231F10508F042C2E358FF4F0C94C9329F
:1058E0000E9422186115A0E17A078105910524F034
:1058F0006FEF7FE080E090E097FF03C060E070E032
:10590000CB0169837A838B839C837093820360933A
:10591000810320C20E9422186115B0E17B07810536
:10592000910524F06FEF7FE080E090E097FF03C0E7
:1059300060E070E0CB0169837A838B839C837093F2
:1059400084036093830306C20E9422186115E0E17C
:105950007E078105910524F06FEF7FE080E090E005
:1059600097FF03C060E070E0CB0169837A838B838B
:105970009C8370937A0360937903ECC10E94221890
:105980006115F0E17F078105910524F06FEF7FE05D
:1059900080E090E097FF03C060E070E0CB01698396
:1059A0007A838B839C8370937C0360937B03D2C147
:1059B0000E942218611500E170078105910524F00D
:1059C0006FEF7FE080E090E097FF03C060E070E061
:1059D000CB0169837A838B839C8370937403609378
:1059E0007303B8C10E942218611510E17107810587
:1059F000910524F06FEF7FE080E090E097FF03C017
:105A000060E070E0CB0169837A838B839C83709321
:105A10007603609375039EC10E942218611520E1F0
:105A200072078105910524F06FEF7FE080E090E040
:105A300097FF03C060E070E0CB0169837A838B83BA
:105A40009C8370936E0360936D0384C10E9422183F
:105A5000611530E173078105910524F06FEF7FE058
:105A600080E090E097FF03C060E070E0CB016983C5
:105A70007A838B839C837093700360936F036AC1F6
:105A800080918103909182030E9446178FE991E0F3
:105A90000E94531780918303909184030E944617BC
:105AA0008FE991E00E9453178091790390917A03D6
:105AB0000E9446178FE991E00E94531780917B0363
:105AC00090917C030E9446178FE991E00E94531742
:105AD00080917303909174030E9446178FE991E0BF
