:100000000C9415040C943D040C943D040C9474065B
:100010000C9450060C943D040C943D040C943D0447
:100020000C943D040C943D040C9493090C943607F5
:100030000C943D040C943D040C943D040C943D043C
:100040000C943D040C943D040C943D040C943D042C
:100050000C943D040C943D040C943D040C947D19C7
:100060000C943D040C943D040C943D040C943D040C
:100070000C943D040C943D040C943D040C943D04FC
:100080000C943D040C943D040C943D040C943D04EC
:100090000C94680E0C943D040C943D040C943D04A7
:1000A0000C943D040C943D040C943D049B20FC20D6
:1000B000BB22992170236825AC2409265226832669
:1000C000B5263327EE268D2E802C222D712F022E61
:1000D000FE2E352D8A2E712F712F712F712F712FBA
:1000E000712FAB2C882C712F1D2C172C712F712B7D
:1000F000F42B322E712F8A2E8A2E382F3D2F1A2F55
:100100001F2F712F242F152F712F332F422F712F57
:10011000712F2E2F712F712F712F712F712F292F6A
:100120007B10801085108F10D910D910D91099101C
:10013000A310AD10B710C410D910CC1084158715BA
:100140007A157E15A815A815A8158B158F1593156A
:1001500099159D15A815A31505A84CCDB2D44EB977
:100160003836A9020C50B9918688083CA6AAAA2A5A
:10017000BE000000803F00000000000000002A2BAD
:100180002800000000000000000000000000000047
:100190000000000000002C9EB4A0A1A2A434A6A7D9
:1001A000A5AE362D3738271E1F20212223242526D1
:1001B000B333B62EB7B89F8485868788898A8B8C9F
:1001C0008D8E8F909192939495969798999A9B9CE7
:1001D0009D2F3130A3AD350405060708090A0B0C25
:1001E0000D0E0F101112131415161718191A1B1CC7
:1001F0001DAFB1B0B500080B0002020201000904F6
:100200000000010202000005240010010524010184
:1002100001042402060524060001070581031000DD
:100220004009040100020A00000007050202400024
:1002300000070583024000000904020002030000D9
:100240000009210101000122E104070584034000A7
:10025000010705050340000105010904A10185040A
:100260000901A1000930170000000027FFFF00006E
:10027000350047FFFF000075109501810209311616
:10028000000027FFFF0000350047FFFF000075104A
:1002900095018102093216000027FF0F000035008A
:1002A00047FF0F0000750C9501810209331600000D
:1002B00027FF0F0000350047FF0F0000750C950168
:1002C0008102093416000027FF0F0000350047FFA8
:1002D0000F0000750C9501810209391501250835BB
:1002E00000463B016514550075049501810205091E
:1002F000150025015500650019012918750195188B
:10030000810285F10901150026FF00953F750891CE
:100310008285F20901953F75088182C0050F099217
:10032000A1028502099F09A009A409A509A6150033
:10033000250135004501750195058102950381036D
:1003400009941500250135004501750195018102CB
:1003500009221501252835014528750795018102D7
:10036000C00921A102850109221501252835014571
:10037000287508950191020925A102092609270976
:100380003009310932093309340940094109420968
:1003900043250B15013501450B750895019100C0EA
:1003A00009500954150027FFFF0000350047FFFFE3
:1003B000000066011055FD7510950291025500660A
:1003C00000000952150026FF7F350046FF7F75109B
:1003D0009501910209531501250835014508750855
:1003E000950191020955A102050109300931150055
:1003F0002501750195029102C0050F0956950191DD
:1004000002950591030957A1020B01000A000B0296
:10041000000A0066140055FE150026FF7F350047D0
:100420009F8C00007510950191025500660000C078
:10043000050F09A766011055FD150027FFFF0000F5
:10044000350047FFFF00007510950191026600001E
:100450005500C0050F095AA1028502092215012580
:100460002835014528750895019102095B095D153C
:100470000026FF00350046FF7F75089502910209AE
:100480005C095E66011055FD26FF7F46FF7F7510F3
:10049000950291026600005500C0095FA102850324
:1004A0000922150125283501452875089501910275
:1004B00009231500250135004501750495019102B8
:1004C0000958A1020B01000A000B02000A00750284
:1004D00095029102C0096016008026FF7F360080D9
:1004E00046FF7F751095019102096136008046FF35
:1004F0007F95019102150026FF7F350046FF7F0999
:10050000637510950191020965150026FF0046FFED
:100510007F750895019102C0096EA1028504092228
:1005200015012528350145287508950191020970A6
:10053000150026FF7F350046FF7F7510950191025B
:10054000096F16008026FF7F36008046FF7F9501E9
:1005500091020971150026FF0035004667016614F7
:10056000005500750895019102097227FFFF0000F0
:1005700047FFFF000066011055FD751095019102BF
:100580006600005500C00973A10285050922150106
:100590002528350145287508950191020970160135
:1005A0008026FF7F36018046FF7F751095019102FE
:1005B000C00974A1028506092215012528350145C7
:1005C00028750895019102097509761581257F36F0
:1005D000018046FF7F750895029102C0050F0977DB
:1005E000A102850A0922150125283501452875082B
:1005F000950191020978A1020979097A097B15010F
:100600002503750895019100C0097C150026FF009F
:10061000350046FF009102C00990A102850B092216
:100620001501252835014528750895019102C00955
:1006300096A102850C099709980999099A099B09BD
:100640009C15012506750895019100C0097DA10240
:10065000850D097E150026FF003500461027750818
:1006600095019102C009ABA10285050925A10209E6
:1006700026092709300931093209330934094009AB
:1006800041094209431501250B3501450B750895B4
:1006900001B100C00501093B150026FF01350046E8
:1006A000FF01750A9501B1027506B101C0050F0978
:1006B00089A10285060922252815013501452875DD
:1006C000089501B102098BA102098C098D098E25BB
:1006D0000315013501450375089501B100C009AC4A
:1006E000150027FFFF0000350047FFFF00007510D1
:1006F0009501B100C0097FA1028507098075109599
:1007000001150027FFFF0000350047FFFF0000B183
:1007100002098326FF0046FF0075089501B1020912
:10072000A909AA750195021500250135004501B1F9
:100730000275069501B103C0C01803410072006440
:1007400000750069006E006F0020004C004C0043F3
:10075000000403090422034100720064007500696B
:10076000006E006F0020004C0065006F006E00619D
:1007700000720064006F001201000200000040419E
:100780002336800001010200011201000202000074
:10079000404123368000010102000100C18081C177
:1007A000C000000000240027002A002D00300000B7
:1007B000000000250028002B002E00310000000062
:1007C000002300260029002C002F00040404040448
:1007D00003040502020202040302020202060606E4
:1007E0000606060404020202040404080201104082
:1007F000804010204080408008020401804020108A
:100800000201108010204040200000000200080E6D
:100810000000030401000B000000000000000000C5
:1008200000000000000000008B2F11241FBECFEF3E
:10083000DAE0DEBFCDBF11E0A0E0B1E0E0E4F8E631
:1008400002C005900D92A63AB107D9F725E0A6EAB5
:10085000B1E001C01D92A939B207E1F714E0C5E18A
:10086000D4E004C02197FE010E940C34C431D107AA
:10087000C9F70E94C7190C941E340C9400008C30E8
:10088000F8F4282F30E09EE1899FF0011124E9510E
:10089000FE4F90819923A1F090819D7F9083F90173
:1008A000EE54FC4F958191110BC0E091A701F0919E
:1008B000A8010084F185E02D09951092C2030895E6
:1008C0000895FC01CB012091E80022FFFCCF282FE6
:1008D000215028F03091F10030833196F9CF24E691
:1008E0002093A6032BEF2093E80008950F931F9306
:1008F000CF93DF93DB01A40FB51FFB016EEFEA1767
:10090000FB0791F187FF02C0249101C02081009173
:10091000AA031091AB03C091A803D091A9030C17AF
:100920001D07B4F49091E8009570E1F39091E80010
:1009300092FD1CC02093F1002091AA033091AB03DB
:100940002F5F3F4F2F733327232B11F46093E80061
:100950002091AA033091AB032F5F3F4F3093AB033D
:100960002093AA033196CBCFCA0102C08FEF9FEF2D
:10097000DF91CF911F910F910895CF93DF9300D016
:1009800000D01F92CDB7DEB7FC0181819081913AF2
:1009900029F5813009F0BCC08281863051F445E0F0
:1009A00050E06DEA73E080E40E9476041092AD039B
:1009B000AFC0873009F0ACC089838FEF9FEF9B8376
:1009C0008A838BE08C8383E08D8345E050E0BE0119
:1009D0006F5F7F4F80E40E9476049AC0913209F0E5
:1009E00097C0893009F094C08281853009F090C0A9
:1009F00064E070E0CE0101960E94610486E080937D
:100A0000AD0380910F018B3021F1A0910F0181E0A6
:100A10008A0F80930F019EE1E0910F019E9FF001EC
:100A20001124E951FE4F8081882351F080910F01FC
:100A30008B3030F480910F018F5F80930F01ECCFEA
:100A40008EE1A89FF0011124E951FE4F81E08083DF
:100A500001C0A0E0A093AE03A11104C082E0809386
:100A6000AF0350C010927A0581E08093AF038A8172
:100A70009EE1A99FD0011124A951BE4F11968C93DC
:100A800011978FEF9FEF50969C938E931F975496DC
:100A90001C921E92539752961C921E925197139637
:100AA0008C93139714968C93149756961C921E92BF
:100AB00055971E961C921E921D9716961C9216977D
:100AC0008FEF9FE71A969C938E93199758961C92D6
:100AD0001E9257975C961C921E925B975D961C9295
:100AE0005D9788EE93E01C969C938E931B97E09104
:100AF000A701F091A8010684F785E02DBD01CE0184
:100B0000019609958FEF9FEF9093B1038093B00307
:100B100081E00F900F900F900F900F90DF91CF9189
:100B2000089542E450E066EF71E080E80E947604A8
:100B300040E250E068E372E080E80E94760483E0DF
:100B400090E00895EF92FF921F93CF93DF93EC0113
:100B5000162FE881F9810480F581E02D09957C014B
:100B6000E881F9810680F781E02D612FCE0109959A
:100B7000C7019927DF91CF911F91FF90EF900895C2
:100B8000FC0191818081813A29F49D7F81E091303F
:100B900091F414C0813279F49A3049F09B3019F005
:100BA000993049F40AC0828180930E0106C0828187
:100BB00080930D0102C080E0089581E008958C309B
:100BC000F0F49EE1899FF0011124E951FE4F8081EC
:100BD0008823A9F08081826080838091C203811183
:100BE0000EC00E946F176093B7017093B801809395
:100BF000B9019093BA0181E08093C20308950895EA
:100C0000CF92DF92EF92FF926091B4017091B501A3
:100C1000072E000C880B990B0E9436326B017C0169
:100C200060914F0370915003809151039091520352
:100C30000E9436329B01AC01C701B6010E948C3183
:100C4000FF90EF90DF90CF900895CF92DF92EF92D8
:100C5000FF920F931F938B019C014091B001509123
:100C6000B1016A01E12CF12C66277727CB016C19C1
:100C70007D098E099F0906171707280739074CF0C9
:100C8000C901B801C016D106E206F30614F4C70183
:100C9000B6011F910F91FF90EF90DF90CF900895D4
:100CA0001F920F920FB60F9211242F933F934F93E1
:100CB0005F936F937F938F939F93AF93BF93EF93C4
:100CC000FF930E94D215FF91EF91BF91AF919F9139
:100CD0008F917F916F915F914F913F912F910F90E5
:100CE0000FBE0F901F9018951F920F920FB60F9284
:100CF00011242F933F934F935F936F937F938F9321
:100D00009F93AF93BF93EF93FF930E94D215FF91F0
:100D1000EF91BF91AF919F918F917F916F915F9173
:100D20004F913F912F910F900FBE0F901F901895EC
:100D3000CF92DF92EF92FF920F931F93CF93DF93A7
:100D40001F92CDB7DEB7F82EE42E8B01C82ED92E18
:100D50008C2D8F198E1588F4F80161918F01C601D1
:100D600069830E94A1306981681719F0C6010E9449
:100D7000A930FFEFCF1ADF0AEBCF0F90DF91CF91B1
:100D80001F910F91FF90EF90DF90CF900895CF9239
:100D9000DF92EF92FF920F931F93CF93DF931F92F7
:100DA000CDB7DEB78B016B017C01E61AF70A9C2DEB
:100DB000901B941758F4C7018C0D9D1D49830E9408
:100DC000A130F60181936F014981F1CF0F90DF913E
:100DD000CF911F910F91FF90EF90DF90CF900895EA
:100DE0008F929F92AF92BF92CF92DF92EF92FF923B
:100DF00040E050E020E0682F70E0812C912C5401FD
:100E00008394FA013296DB0102C0B595A795EA9565
:100E1000E2F775016401042E04C0CC0CDD1CEE1C4D
:100E2000FF1C0A94D2F7A0FF02C02C2902C0C09474
:100E30002C214F5F5F4F4430510519F730E0220FEE
:100E4000331FF901EC5CFE4F80FF05C0808191816A
:100E50009695879502C080819181FF90EF90DF90F9
:100E6000CF90BF90AF909F908F9008951F920F9258
:100E70000FB60F921124EF92FF921F932F933F937F
:100E80004F935F936F937F938F939F93AF93BF9392
:100E9000EF93FF93CF93DF93CDB7DEB76197DEBFBC
:100EA000CDBF1092E9008091E80083FF59C1FE0197
:100EB0003A96CF0128E02E0F2E1729F03091F1003D
:100EC00030833196F9CF24E62093A60322EF2093B6
:100ED000E8002A8527FF05C03091E80030FFFCCFED
:100EE00003C03EEF3093E800322F307609F0C5C0E2
:100EF0008B85811105C01092F1001092F10029C17B
:100F0000982F9D7F913009F424C1853049F4809158
:100F1000E80080FFFCCF8C8580688093E30019C1D6
:100F2000863009F07CC01D85E888F9881092E900B8
:100F30001092AB031092AA03123091F51092A903FC
:100F40001092A8030E94910599E0BE016F5F7F4F48
:100F5000FB01292F11922A95E9F799831A8391E0D1
:100F60009E8390E898879AEF99872091AA03309101
:100F7000AB03275F3F4F3C832B838D831092E900A7
:100F80001092AB031092AA03F092A903E092A80377
:100F900049E050E080E00E9476040E949105D9C0AB
:100FA000F092A903E092A803123259F441EE54E002
:100FB00068E572E080E80E947604892B09F0C9C0D8
:100FC000CCC0113069F488899989089711F410937D
:100FD000A7038091A703811111C067E777E016C0CE
:100FE000133009F0BAC08C85882359F0823061F043
:100FF000813009F0B2C069E377E008C069E877E0C2
:1010000005C061E577E002C065E577E0611571052F
:1010100009F4A3C0FB01449150E080E849C0873047
:1010200009F49BC0883021F481E08093F10091C0E5
:10103000893009F08EC0237009F08FC080E090E005
:1010400031E026E341E0480F4093E9003093EB00A4
:101050000196FC01E556F84FE491E093EC002093F3
:10106000ED008530910571F78EE78093EA001092CC
:10107000EA008C858093A6016CC02889398910927A
:10108000E9001092AB031092AA033093A9032093B6
:10109000A8032E85211154C08B859A85913A59F465
:1010A000813209F05AC047E050E060E171E080E031
:1010B0000E9476044EC0913209F04FC0803239F45C
:1010C00067E070E080E191E00E94610442C08232FA
:1010D00009F043C08C858093170180911001909195
:1010E0001101A0911201B0911301803B9440A10520
:1010F000B10579F58091170180FD11C087E797E769
:1011000090930108809300089BE088E10FB6F89463
:10111000A895809360000FBE909360001AC00FB630
:10112000F894A89580916000886180936000109287
:1011300060000FBEA895109201081092000809C027
:10114000223059F4E0917B05F0917C0509958823C4
:1011500021F08EEF8093E80003C081E28093EB00E2
:1011600061960FB6F894DEBF0FBECDBFDF91CF9171
:10117000FF91EF91BF91AF919F918F917F916F916F
:101180005F914F913F912F911F91FF90EF900F90A2
:101190000FBE0F901F9018958F929F92AF92BF92A3
:1011A000CF92DF92EF92FF920F931F93CF93DF9333
:1011B00000D01F92CDB7DEB7382F8B018091A601EA
:1011C000882389F04A018AEFF82E832F8770E82E52
:1011D00090E4C92E832F8072B82E2AE3D22E832F5B
:1011E0008074A82E21C08FEF9FEF5FC08FB7F89457
:1011F000E092E9009091E80095FF1AC09091F2000A
:101200002C2D291B8FBF211115C0FA94FF2059F3F3
:1012100061E070E080E090E039834A835B830E9464
:10122000491739814A815B8181149104F9F634C0F0
:1012300020E0E8CF822F90E0881699060CF4282D44
:10124000822F90E0881A990A6FB7F894E092E9002B
:10125000BB2029F02150A8F01092F100FBCFF8013B
:1012600037FF07C0215058F074917093F100319608
:10127000F9CF215020F071917093F100FACF080F4F
:10128000191F8091E80085FF0DC08114910411F4AD
:10129000A11008C06FBFC8CF5D9884E68093AC03EF
:1012A000CA0103C0D092E800F5CF0F900F900F90C5
:1012B000DF91CF911F910F91FF90EF90DF90CF9032
:1012C000BF90AF909F908F9008959091A601992321
:1012D00011F057FF03C08FEF9FEF08952FB7F894D9
:1012E00087708093E9008091F20090E08417950761
:1012F0000CF4AC01842FFB0194E6815030F0909304
:10130000A6033091F1003193F8CF4115510521F03A
:101310008091F200882319F02FBFCA0108958BE64F
:101320008093E800F9CF1F920F920FB60F9211240D
:101330002F933F934F935F936F937F938F939F93DD
:10134000AF93BF93EF93FF93CF93DF93CDB7DEB708
:10135000C054D109DEBFCDBF8091E1001092E10001
:1013600083FF0FC01092E90091E09093EB00109280
:10137000EC0092E39093ED001092A60198E0909318
:10138000F00082FF46C083E08093E9008091F20084
:10139000882319F08AE38093E8009FB7F89482E0ED
:1013A0008093E9008091F2009FBF882321F080E9BB
:1013B00094E00E942D0E9FB7F89485E08093E90099
:1013C0008091F2009FBF8823C1F080917D059091AC
:1013D0007E05892B91F040E450E0BE016F5F7F4FA6
:1013E00085E00E94650997FD08C0E0917D05F091B8
:1013F0007E05BC01CE01019609958091AC0388233E
:1014000041F08091AC0381508093AC03811101C005
:101410005D9AC05CDF4F0FB6F894DEBF0FBECDBF44
:10142000DF91CF91FF91EF91BF91AF919F918F91FC
:101430007F916F915F914F913F912F910F900FBED0
:101440000F901F901895EF92FF920F931F93CF93D9
:10145000DF931F92CDB7DEB789838B017A0141E01C
:1014600050E0BE016F5F7F4F84E00E94CC08A7016F
:10147000B80184E40E94CC080F90DF91CF911F91B6
:101480000F91FF90EF9008951F93CF93DF93DC01AE
:1014900011961C9111979C91953009F467C060F5E5
:1014A000923009F443C0A8F4913009F04DC1E091A5
:1014B000A701F091A8012EE1129FB00111246951FA
:1014C0007E4F028CF38DE02DCD01DF91CF911F91E6
:1014D00009949330C9F1943009F036C1E091A70125
:1014E000F091A8012EE1129FB001112469517E4FA5
:1014F0000488F589E02D35C09B3009F49DC038F48F
:10150000963009F441C09A3009F44CC01DC19C309A
:1015100009F4CBC0913F09F017C140E450E0BD0190
:1015200082EFDF91CF911F910C94230AE091A701E4
:10153000F091A8013EE1139FB001112469517E4F43
:101540000088F189E02D0DC0E091A701F091A8017C
:101550008EE1189FB001112469517E4F0288F389F2
:10156000E02DCD01DF91CF911F910994E091A7016A
:10157000F091A8013EE1139FB001112469517E4F03
:101580000688F789E02DEDCFE091A701F091A80141
:101590008EE1189FB001112469517E4F008CF18DAE
:1015A000E02DDFCF1F3F09F41FE712969C91913089
:1015B00099F4812F0E94DF05E12FF0E0EE54FC4FFB
:1015C00085818111C1C0E091A701F091A801068039
:1015D000F781E02D812F47C0923029F5C1E08C2F93
:1015E0000E943F04CF5FCC30D1F7C12FD0E0CE5462
:1015F000DC4F8D81811109C0E091A701F091A80114
:101600000084F185E02D8FE70995812F0E94DF0589
:101610008D81811199C0E091A701F091A801068008
:10162000F781E02D1FC0933009F08EC0812FDF912C
:10163000CF911F910C943F0481E01F3FC1F4809330
:101640000F0188E691E0E7EEF1E0DF019C011D92D9
:1016500021503040E1F7E091A701F091A801028408
:10166000F385E02D8FE7DF91CF911F91099480934F
:101670007A051C3008F068C03EE1139FF001112488
:10168000E951FE4F108280910F01181710F410934A
:101690000F01E091A701F091A8010284F385E02DEC
:1016A000812F09951092C2034FC082E08093C3033B
:1016B0009091C40394609093C4039091C40390618B
:1016C0009093C4031092C5031330B1F040F411306D
:1016D00079F01230C9F58091C403826033C01530AF
:1016E00071F1B0F0163081F58091C4038E7F2AC06D
:1016F0008091C4038D7F26C0E091A701F091A801DD
:101700000480F581E02D80E009951092C5031CC08E
:10171000E091A701F091A8010480F581E02D81E01E
:10172000099581E080930F0188E691E0E7EEF1E012
:10173000DF019C011D9221503040E1F705C08091EE
:10174000C40381608093C403DF91CF911F910895FA
:10175000DC01683810F0685825C0E62FF0E067FF1C
:1017600012C0E058F10981E090E001C0880FEA95CD
:10177000EAF7809514969C911497892314968C937C
:10178000149760E00FC0EA58FE4F6491662311F190
:1017900067FF08C014968C9114978D7F14968C93D4
:1017A00014976F77FD01369686E0662321F09081CD
:1017B000961301C01082815031968111F6CFBD0180
:1017C0006C5F7F4F48E050E082E00E94230A81E096
:1017D00090E0089580E090E00895FC011682178261
:1017E00010861186128613861482BC016C5F7F4FAF
:1017F00048E050E082E00C94230ADC01683810F0E5
:1018000068582DC0E62FF0E067FF11C0E058F109DD
:1018100081E090E001C0880FEA95EAF714969C9168
:101820001497892B14968C93149760E018C0EA588B
:10183000FE4F6491611109C081E090E013969C9382
:101840008E93129780E090E0089567FF08C0149689
:101850008C911497826014968C9314976F771696D8
:101860008C911697861751F117968C9117978617BA
:1018700029F118968C911897861701F119968C9179
:1018800019978617D9F01A968C911A978617B1F086
:101890001B968C911B97861789F0FD01369680E088
:1018A00090E02191211105C0FD01E80FF91F668329
:1018B00005C0019686309105A1F7BECFBD016C5FD2
:1018C0007F4F48E050E082E00E94230A81E090E0F0
:1018D0000895CF92DF92EF92FF920F931F93CF93D1
:1018E000DF936C01EB017B01E40EF51E00E010E0DC
:1018F000CE15DF0561F06991D601ED91FC91019063
:10190000F081E02DC6010995080F191FF1CFC8011C
:10191000DF91CF911F910F91FF90EF90DF90CF90CB
:10192000089583E08093E9008091F200882319F004
:101930008AE38093E800089520917D0430917E042D
:1019400080917F049091800428173907A9F0E091D5
:101950007F04F0918004E35CFB4F808120917F0441
:10196000309180042F5F3F4F2F73332730938004D3
:1019700020937F0490E008958FEF9FEF08952091CA
:101980007D0430917E0480917F049091800428171B
:10199000390749F0E0917F04F0918004E35CFB4F4C
:1019A000808190E008958FEF9FEF089580917D04EE
:1019B00090917E0420917F0430918004821B930BD0
:1019C0008F739927089585ED8093BC008091BC00AA
:1019D00084FDFCCF1092170408954091F103262F47
:1019E00030E0240F311D21323105DCF42091170441
:1019F0002430C9F4FC0180E090E0861758F430915F
:101A0000F1032191DC01A153BC4FA30FB11D2C9315
:101A10000196F3CF8091F103680F6093F10380E0AA
:101A2000089581E0089582E0089508958FEF9FEF73
:101A300008958FEF9FEF08958091CE0390E09195E8
:101A4000819591090895CF93DF9300D0CDB7DEB78C
:101A5000CB01642F49835A830E94ED0C4981842F66
:101A60005A81952F0F900F90DF91CF910895CF93CA
:101A7000DF931F92CDB7DEB7698361E0CE01019697
:101A80000E94ED0C81E090E00F90DF91CF910895DE
:101A90000895CF93DF93FC01EB01718182818983EB
:101AA000878190859A8789872585368543815481EA
:101AB0006EE1769FC001112489519E4FDC01509642
:101AC0005C934E931F9756963C932E93559764E0E4
:101AD000769FD0011124A954BE4F1D921D921D92D4
:101AE0001C921397838594859E878D8782858E832C
:101AF00081E0DF91CF910895FC012281FB012783D2
:101B0000FC018381FB0180870895FC018281938120
:101B1000FB01908F878B0895DC01FB0112968D915C
:101B20009C911397908F878B14968D919C9115970C
:101B3000948F838F16968C911697858F17968D911B
:101B40009C911897948783870895DC01FB01129676
:101B50008C91129782838281811110C015968D918C
:101B60009C911697908F878B13968D919C911497CB
:101B7000948F838F17968C91858308958281089521
:101B8000DC01FB0112968C911297838313968C9142
:101B90001397848314968D919C911597948B838BC6
:101BA00016968D919C911797928B818B08959EE14B
:101BB000899FF0011124E951FE4F708B6787568B86
:101BC000458B94E0899FF0011124E954FE4F108267
:101BD00011821282138208950895089510927A0551
:101BE00024E0829FC0011124FC01E954FE4F1082C1
:101BF000118212821382089525E0FC0120838EE475
:101C000091E00895089580937A0508950E9419340B
:101C10000F931F93CF93DF931F92CDB7DEB78C0145
:101C2000698380911701882359F041E050E0BE019B
:101C30006F5F7F4F83E00E94CC08181619063CF0B6
:101C400081E090E0F8019383828380E090E00F9040
:101C5000DF91CF911F910F9108950F931F93CF9311
:101C6000DF931F92CDB7DEB700917D0410917E0403
:101C70000F5F1F4F0F73112780917F049091800495
:101C800008171907F9F041E050E0BE016F5F7F4F80
:101C900082E00E946509019719F4898190E002C0F1
:101CA0008FEF9FEF8F3F2FEF920761F0E0917D0460
:101CB000F0917E04E35CFB4F808310937E040093DD
:101CC0007D04D2CF0F90DF91CF911F910F91089596
:101CD0001F920F920FB60F9211242F933F934F93A1
:101CE0005F936F937F938F939F93AF93BF93EF9384
:101CF000FF938091B900887F803609F49CC068F515
:101D0000883209F45BC090F4803109F454C038F48F
:101D1000882309F4F6C0883009F44DC0F6C0883134
:101D200009F44CC0803209F45DC0EFC0803409F47E
:101D300068C048F4803309F455C0883309F0E5C021
:101D400080931604D8C0803509F44FC0883509F453
:101D50005DC0883409F0D9C0D6C0883909F4C7C03D
:101D6000A8F4883709F467C038F4883609F463C0EA
:101D7000803709F460C0C9C0883809F4B8C0803918
:101D800009F45FC0803809F0C0C05BC0803B09F433
:101D900086C038F4803A09F466C0883A09F47FC0F6
:101DA000B4C0803C09F4A7C0883C09F4A4C0883BB7
:101DB00009F48AC0AAC080913C0410C090913B04F1
:101DC00080913A04981770F5E0913B0481E08E0F02
:101DD00080933B04F0E0E65EFB4F80818093BB0084
:101DE00085EC86C0809316048EC0E0913B0481E0B0
:101DF0008E0F80933B048091BB00F0E0E65EFB4FCA
:101E0000808390913B0480913A046EC0E0913B0442
:101E100081E08E0F80933B048091BB00F0E0E65E92
:101E2000FB4F80838091190481116DC081E0809304
:101E3000180484EA61C083E08093170410921504AB
:101E4000CFCF80911504803208F051C0E091150485
:101E500081E08E0F809315048091BB00F0E0EB5081
:101E6000FC4F8083BDCF85EC8093BC00109217049B
:101E700080911504803230F4E0911504F0E0EB50CD
:101E8000FC4F10826091150470E0E091F303F09133
:101E9000F40385EF93E009951092150436C084E0B1
:101EA000809317041092F2031092F103E091EF0374
:101EB000F091F00309958091F103811105C081E053
:101EC0008093F1031092CF03E091F20381E08E0F33
:101ED0008093F203F0E0E153FC4F80818093BB00DC
:101EE0009091F2038091F103981708F479CF85E877
:101EF0008093BC000AC085EC8093BC00109217044C
:101F000004C0109216040E94E30CFF91EF91BF9160
:101F1000AF919F918F917F916F915F914F913F9181
:101F20002F910F900FBE0F901F9018952091A9012F
:101F30003091AA012817390708F4C90190938B0042
:101F400080938A0008952091A9013091AA01281751
:101F5000390708F4C9019093890080938800089597
:101F60004F925F926F927F928F929F92AF92BF92A9
:101F7000CF92DF92EF92FF920F931F93CF93DF9355
:101F8000CDB7DEB760970FB6F894DEBF0FBECDBFFA
:101F9000009709F4F7C28C016091B60170E080E00F
:101FA00090E00E9436322AE037ED43E25CE30E9483
:101FB000EB3269837A838B839C83F80180809180E4
:101FC000A280B380B7FE08C0B094A094909480948F
:101FD000811C911CA11CB11CC501B4010E943632A8
:101FE0006B017C016091B0017091B10180E090E0E3
:101FF0000E9434322B013C0126E636E646E65FE3DA
:102000000E94EB3229813A814B815C810E94EB3244
:102010006D837E838F8398879B01AC01C701B601D6
:102020000E94E63287FDCBC0A301920169817A81CB
:102030008B819C810E94EB3269877A878B879C8792
:1020400020E030E040E85FE30E941A319B01AC01E0
:10205000C701B6010E94873187FFB1C06D817E81C3
:102060008F8198850E94FE316B017C01A50194014E
:10207000261B370B480B590BAEE3B0E00E94D6305D
:102080004B015C0169857A858B859C850E94FE31B8
:102090009B01AC012C193D094E095F09C501B40132
:1020A0000E94B73069017A01FFEFCF1ADF0AEF0A09
:1020B000FF0A560161E08DE00E94E816C114D104C8
:1020C00011F460E005C08FEFC816D10429F461E077
:1020D0008DE00E94B8168AC0E6E1F8E0E4918E2F08
:1020E00090E0FC013197EE30F10508F062C0E05756
:1020F000FF4F0C940C3484B5806884BDC7BC76C097
:1021000084B5806284BDC8BC71C080918000806845
:1021100080938000D0928900C092880067C080912F
:102120008000806280938000D0928B00C0928A00F1
:102130005DC080919000806880939000D09299005B
:10214000C092980053C0809190008062809390006C
:10215000D0929B00C0929A0049C080919000886004
:1021600080939000D0929D00C0929C003FC08091CF
:10217000C00080688093C0008091C0008F7B8093F6
:10218000C000C092CF0032C08091C00080628093B6
:10219000C000C092D0002AC08091C20088608093A5
:1021A000C2008091C2008B7F8093C200C092D20097
:1021B0001DC0E0E8AE16B1040CF089CF82CFA301B8
:1021C000920169817A818B819C810E94EB3220E0AF
:1021D00030E040E85FE30E941A319B01AC01C70187
:1021E000B6010E94E63287FD6CCF71CF80E090E0AF
:1021F000A0E8BFE38093CA039093CB03A093CC03E2
:10220000B093CD038093C6039093C703A093C803F4
:10221000B093C9039091AF01F801C080D180E280F2
:10222000F380892F807491FDC1C081116CC01C1492
:102230001D041E041F045CF54090B0015090B101D4
:102240008090B2019090B301A12CB12C612C712C23
:10225000C301B201681979098A099B09A70196018E
:102260000E94E833A30192010E94B730820E931EB0
:10227000A41EB51EF80180829182A282B38280E002
:1022800090E00E94A30FF801808191812EC0C114BB
:10229000D104E104F10469F14090B0015090B10122
:1022A0008090B2019090B301A12CB12C612C712CC3
:1022B000A50194012419350946095709C701B6013A
:1022C0000E94E833A30192010E94B730DA01C901EC
:1022D000880D991DAA1DBB1DF80180839183A283DF
:1022E000B3830E94A30F80E090E00E94960F2F9A84
:1022F00049C180E090E00E94A30F80E090E00E943E
:10230000960F2F983FC1E091B001F091B1011C14DC
:102310001D041E041F04DCF44F01969487948091E1
:10232000B2019091B301880E991EA12CB12C2F01FE
:10233000612C712CC301B201681979098A099B09C2
:10234000A70196010E94E833A301920119C0C114AC
:10235000D104E104F10411F14F0196948794809126
:10236000B2019091B301881A990AA12CB12CA50150
:102370009401C701B6010E94E8339F0140E050E09C
:102380000E94B730DA01C901880D991DAA1DBB1D35
:10239000F80180839183A283B38303C0CF01969514
:1023A00087950E94A30F80E090E0D4C0811133C0D4
:1023B000F7FC02C02F9A01C02F988091B201909132
:1023C000B3016C01E12CF12C8090B0019090B1012F
:1023D000A12CB12CF801208131814281538157FF1A
:1023E00007C050954095309521953F4F4F4F5F4F17
:1023F000C501B4016C197D098E099F090E94E8335B
:10240000A50194010E94B730DA01C9018C0D9D1D10
:10241000AE1DBF1D81C01C141D041E041F046CF5DD
:1024200020E030E040E85FE36091AB017091AC01E7
:102430008091AD019091AE010E941B312091040169
:102440003091050140910601509107010E94EB3245
:102450000E94FE314B015C0160910001709101010D
:1024600080910201909103010E94FE31681979095F
:102470008A099B09A70196013FC0C114D104E10458
:10248000F10409F44FC02091AB013091AC014091AF
:10249000AD015091AE0160E070E080E89FE30E94E2
:1024A0001A312091040130910501409106015091AB
:1024B00007010E94EB320E94FE314B015C01222792
:1024C0003327A9012C193D094E095F0960910801C4
:1024D0007091090180910A0190910B012D873E872F
:1024E0004F87588B0E94FE31681979098A099B0928
:1024F0002D853E854F8558890E94E8332091B00193
:102500003091B10140E050E00E94B730DA01C901DA
:10251000880D991DAA1DBB1DF80180839183A2839C
:10252000B3830BC060910401709105018091060195
:10253000909107010E940532CB010E94A30F609188
:1025400004017091050180910601909107010E949C
:102550000532CB0160960FB6F894DEBF0FBECDBF3B
:10256000DF91CF911F910F91FF90EF90DF90CF906F
:10257000BF90AF909F908F907F906F905F904F90A3
:102580000C94960F60960FB6F894DEBF0FBECDBFC9
:10259000DF91CF911F910F91FF90EF90DF90CF903F
:1025A000BF90AF909F908F907F906F905F904F9073
:1025B00008956091A9017091AA0180E090E00E94C5
:1025C00034329B01AC0160E07EEF8FEF96E40E9415
:1025D0008C3108952F923F924F925F926F927F922B
:1025E0008F929F92AF92BF92CF92DF92EF92FF9223
:1025F0000F931F93CF93DF93CDB7DEB729970FB615
:10260000F894DEBF0FBECDBF998788874B012B831F
:102610001D830C831701DF82CE82042F10E08C8192
:102620009D816C01E12CF12CE885F985F7FD2BC02B
:10263000C8019695982F882797958795BF01681BA5
:10264000790B072E000C880B990B0E9436322B0158
:102650003C01C701B6010E9434329B01AC01C301A9
:10266000B2010E948C312B013C01C8019695982F34
:102670008827979587959A838983EB8190E8E99FCE
:10268000B00111242AC0B8017695762F6627779578
:102690006795E885F9856E0F7F1F072E000C880B64
:1026A000990B0E9436322B013C01C701B6010E94F2
:1026B00034329B01AC01C301B2010E948C312B0169
:1026C0003C0160E86003C001619F900D11249A8372
:1026D00089832B816203B001112488859985681B49
:1026E000790B072E000C880B990B0E9436326B0178
:1026F0007C01B10180E090E00E9434329B01AC018A
:10270000C701B6010E948C316B017C018A149B04C5
:1027100008F43FC08E819F818A0D9B1D8816990603
:10272000C0F50C811D810A0D1B1D8016910690F4C9
:10273000B4016A197B0980E090E00E9434329B0169
:10274000AC01C301B2010E94EB320E94FE318981CB
:102750009A811CC08219930988159905E8F48A1892
:102760009B08EE81FF818E1A9F0AB401620D731DD2
:1027700080E090E00E9434329B01AC01C701B601B9
:102780000E94EB320E94FE3188859985860F971F43
:1027900005C080E090E002C08885998529960FB633
:1027A000F894DEBF0FBECDBFDF91CF911F910F9187
:1027B000FF90EF90DF90CF90BF90AF909F908F9061
:1027C0007F906F905F904F903F902F9008958F92E1
:1027D0009F92AF92BF92CF92DF92EF92FF92CF93F0
:1027E000DF934B015C01EA010E9400066B017C0152
:1027F000DE01A50194010E94E1300E943632A7015A
:1028000096010E94EB3220E030E040E051E40E946B
:10281000EB3220E030E040E251E40E94EB3220E075
:1028200030E040E85BE30E94EB320E94FE310E9400
:10283000250690958095709561957F4F8F4F9F4F9E
:10284000DF91CF91FF90EF90DF90CF90BF90AF904E
:102850009F908F9008954F925F926F927F928F9288
:102860009F92AF92BF92CF92DF92EF92FF92CF935F
:10287000DF9300D000D0CDB7DEB74B015C0157FF2E
:1028800002C04D5F5F4F6A01D594C794D594C79439
:102890000E94000669837A838B839C839B01AC0131
:1028A000C501B4010E94EB3220E030E040E251E487
:1028B0000E94EB322B013C0120E030E040E85FE376
:1028C0000E94E6320D2C000CEE08FF0818161CF4CE
:1028D000C701B60128C020E030E040E85FEBC3014B
:1028E000B2010E94873187FF06C0C701B6010E946E
:1028F0002506CB011EC0C701B6010E9436329B01DE
:10290000AC01C501B4010E94EB3229813A814B81AF
:102910005C810E94EB3220E030E040E251E40E9412
:10292000EB320E94FE310E94250688279927861BDC
:10293000970B0F900F900F900F90DF91CF91FF901A
:10294000EF90DF90CF90BF90AF909F908F907F904F
:102950006F905F904F9008958F929F92AF92BF9229
:10296000CF92DF92EF92FF924B015C01BA01550FBB
:10297000880B990B0E9436326B017C0120E030E01D
:10298000A901C501B4010E94E632A50194011816FF
:102990000CF05058C701B6010E94EB326B017C016C
:1029A0000E9400069B01AC01C701B6010E94EB32F8
:1029B00020E030E040E851E40E94EB3220E030E0DB
:1029C00040E251E40E94EB3220E030E040E05DE381
:1029D0000E94EB320E94FE310E9425066B017C01B1
:1029E00020E030E0A901C501B4010E94E6321816CA
:1029F0002CF4882799278C199D090DC020E030E020
:102A0000A901C501B4010E94873187FF02C0C60138
:102A100002C080E090E0FF90EF90DF90CF90BF90F9
:102A2000AF909F908F900895CF92DF92EF92FF9298
:102A3000CF93DF936B017C01EA0120E030E0A90134
:102A40000E94E632181694F020E030E0A901C70198
:102A5000B6010E94873187FF3AC020E030E0A9012B
:102A6000C701B6010E941B316B017C01BE01DD0F65
:102A7000880B990B0E9436329B01AC01C701B6014D
:102A80000E94EB326B017C010E9400069B01AC01AD
:102A9000C701B6010E94EB3220E030E040E851E48B
:102AA0000E94EB3220E030E040E251E40E94EB3241
:102AB00020E030E040E05BE30E94EB320E94FE3118
:102AC0000E94250688279927861B970B02C080E065
:102AD00090E0DF91CF91FF90EF90DF90CF9008953D
:102AE00090E0FC013197EE30F10590F5E256FF4F92
:102AF0000C940C34809180008F7703C0809180000B
:102B00008F7D80938000089584B58F7702C084B54F
:102B10008F7D84BD0895809190008F7707C080914C
:102B200090008F7D03C080919000877F80939000FC
:102B300008958091C0008F7703C08091C0008F7D81
:102B40008093C00008958091C200877F8093C20067
:102B50000895CF93DF93282F30E0F901E75FF74F17
:102B60008491F901E651F84FD491F901E553F84FFA
:102B7000C491CC2391F081110E947015EC2FF0E0EC
:102B8000EE0FFF1FE354F84FA591B491EC91ED23A4
:102B900081E090E021F480E002C080E090E0DF91ED
:102BA000CF91089590918F0489B18C70892B90E01A
:102BB0009C01359527953595279520938F04409155
:102BC0008B0450918C0460918D0470918E04FC01F3
:102BD000ED5AFE4F8081082E000C990BAA0BBB0BFF
:102BE000840F951FA61FB71F80938B0490938C04AE
:102BF000A0938D04B0938E0480918A040895E0918F
:102C00009004F09191040190F081E02D682F80E90B
:102C100094E00994CF93DF938DE00E94FF15EC01BF
:102C20008AE00E94FF158C0F9D1FDF91CF910895C0
:102C3000009769F0FC0101900020E9F73197AF019E
:102C4000481B590BBC0180E994E00C94690C80E0AE
:102C500090E008958F929F92AF92BF92EF92FF9271
:102C60000F931F93CF93DF93CDB7DEB7A1970FB626
:102C7000F894DEBF0FBECDBF162F042F19A242302D
:102C800008F40AE07E0121E2E20EF11C802E912C74
:102C9000A12CB12C612FA50194010E94E930029F63
:102CA0001019112481E0E81AF1081A3014F4105DAB
:102CB00001C0195CF7011083122F732FCA01232B57
:102CC000242B252B39F7C7010E941816A1960FB6A1
:102CD000F894DEBF0FBECDBFDF91CF911F910F9152
:102CE000FF90EF90BF90AF909F908F900895CF92FC
:102CF000DF92EF92FF92CF93DF9397FF19C06B01A2
:102D00007C018DE20E94FF15EC0166277727CB013D
:102D10006C197D098E099F094AE00E942A168C0FC2
:102D20009D1FDF91CF91FF90EF90DF90CF9008959E
:102D30004AE0DF91CF91FF90EF90DF90CF900C941D
:102D40002A16CF93DF93BC01990F880B990B0E9431
:102D50007716EC010E940A168C0F9D1FDF91CF9110
:102D60000895682F70E080E090E04AE00C942A1605
:102D70001F93CF93DF93282F30E0F901E75FF74FE0
:102D80008491F901E651F84FD491F901E553F84FD8
:102D9000C491CC23C9F0162F81110E947015EC2F1D
:102DA000F0E0EE0FFF1FE155F84FA591B4918FB7FA
:102DB000F894111105C09C91ED2FE095E92302C014
:102DC000EC91ED2BEC938FBFDF91CF911F91089584
:102DD000CF93DF9390E0FC01E651F84F2491FC0182
:102DE000E553F84F8491882361F190E0880F991F93
:102DF000FC01EF55F84FC591D491FC01E155F84F16
:102E0000A591B491611109C09FB7F894888120956C
:102E100082238883EC912E230BC0623061F49FB72C
:102E2000F8943881822F809583238883EC912E2B10
:102E30002C939FBF06C08FB7F894E8812E2B288370
:102E40008FBFDF91CF9108953FB7F89480918504AB
:102E500090918604A0918704B091880426B5A89B20
:102E600005C02F3F19F00196A11DB11D3FBFBA2F1C
:102E7000A92F982F8827820F911DA11DB11DBC017C
:102E8000CD0142E0660F771F881F991F4A95D1F741
:102E90000895CF92DF92EF92FF92CF93DF936B0171
:102EA0007C010E942417EB01C114D104E104F10458
:102EB00079F00E9424176C1B7D0B683E7340A0F3D1
:102EC00081E0C81AD108E108F108C851DC4FECCF05
:102ED000DF91CF91FF90EF90DF90CF9008952FB7C3
:102EE000F8946091810470918204809183049091A0
:102EF00084042FBF08958F929F92AF92BF92CF927A
:102F0000DF92EF92FF920F931F93CF9380919F04D4
:102F10000E94A9158111E4C00E942417C090B70433
:102F2000D090B804E090B904F090BA04DC01CB0171
:102F30008C199D09AE09BF098093BB049093BC0412
:102F4000A093BD04B093BE040E9424176093B704FD
:102F50007093B8048093B9049093BA041092CD048E
:102F6000C0E0C12CD12C76018091A00490E047965E
:102F70002C2F30E082179307BCF061E080919E0413
:102F80000E94B81660E080919E040E94B816C83175
:102F900048F480919F040E94A915CC0CDD1CEE1C06
:102FA000FF1CC82ACF5FE0CFD701C601A058009709
:102FB000A10511E0B10718F021E02093D904209178
:102FC000DF04222361F04FEF5FEF6FEF70E08A01C3
:102FD0009B01081B190B2A0B3B0BD901C80140911F
:102FE000B5045091B6042091D3043091D404B901B2
:102FF000615071094617570729F41092B6041092D0
:10300000B50406C04F5F5F4F5093B6044093B504BC
:103010000097A105B10509F456C0F090CD0441E038
:103020004F0D4093CD04E091B504F091B604EE0F3E
:10303000FF1FEE0FFF1FE256FB4F83879487A58784
:10304000B6878091C3048823F1F18091C004811177
:1030500004C081E08093C00436C0A0E040E050E0AE
:10306000BA018A2F90E0821793078CF4880F991F7A
:10307000880F991FFC01E256FB4F83849484A5843A
:10308000B684480D591D6A1D7B1DAF5FEACF0090C5
:10309000C10404C075956795579547950A94D2F772
:1030A0004093B1045093B2046093B3047093B4049A
:1030B0001092C0041092C30481E08093CE04F39474
:1030C000F394F092CD040E946F176093DA0470932A
:1030D000DB048093DC049093DD041092DE041AC0BC
:1030E0000E946F17C090DA04D090DB04E090DC04FB
:1030F000F090DD04DC01CB018C199D09AE09BF09FC
:1031000085369105A105B10518F081E08093DE04B4
:103110001092CD048091CD04CF911F910F91FF901B
:10312000EF90DF90CF90BF90AF909F908F900895D9
:10313000CF92DF92EF92FF92CF9381E08093C3040E
:103140001092C0041092D1040E946F172091CF04F6
:103150003091D0046B017C01C20ED31EE11CF11C26
:103160000E947B17C82F8091D20481110BC00E944E
:103170006F17C616D706E806F90620F481E080939B
:10318000D10402C0C23061F7CF91FF90EF90DF9081
:10319000CF9008950F931F930E946F176093980428
:1031A0007093990480939A0490939B04E091900407
:1031B000F09191040084F185E02D80E994E0099577
:1031C00097FF1FC00E946F170091980410919904F7
:1031D00020919A0430919B04DC01CB01801B910B60
:1031E000A20BB30B009194041091950420919604C6
:1031F0003091970480179107A207B307B8F28FEFB9
:103200009FEF1F910F910895FF920F931F93CF93FC
:10321000DF9300D000D0CDB7DEB70E94CA18FC0102
:1032200097FD11C08D32910591F0C0970A9778F003
:10323000E0919004F09191040680F781E02D80E9FF
:1032400094E00995EACF60E070E0CB014CC020E04B
:1032500030E0A901F12CE130F105F1F0ED32F1059A
:10326000C9F0CF01C0970A97B8F4AAE0B0E00E9475
:10327000D6308F01FF0F220B330BDC01CB01800F07
:10328000911FA21FB31F9C01AD01205331094109B9
:10329000510902C0FF24F394E0919004F09191044D
:1032A0000680F781E02D80E994E029833A834B83FF
:1032B0005C8309950E94CA18FC01C09729813A8154
:1032C0004B815C810A9738F2E130F10521F2FF2051
:1032D00041F066277727CB01621B730B840B950B9C
:1032E00002C0CA01B9010F900F900F900F90DF91AB
:1032F000CF911F910F91FF9008951F920F920FB6DB
:103300000F9211242F933F938F939F93AF93BF936B
:103310008091810490918204A0918304B0918404EF
:103320003091980523E0230F2D3720F40196A11D3D
:10333000B11D05C026E8230F0296A11DB11D2093E3
:1033400098058093810490938204A0938304B093A2
:1033500084048091850490918604A0918704B091A3
:1033600088040196A11DB11D809385049093860465
:10337000A0938704B0938804BF91AF919F918F91E0
:103380003F912F910F900FBE0F901F901895CF93E4
:10339000DF93CDB7DEB7C354D1090FB6F894DEBFC3
:1033A0000FBECDBF789484B5826084BD84B5816042
:1033B00084BD85B5826085BD85B5816085BD809100
:1033C0006E00816080936E00109281008091810078
:1033D0008260809381008091810081608093810070
:1033E0008091800081608093800080919100826054
:1033F00080939100809191008160809391008091F1
:1034000090008160809390008091C10084608093DF
:10341000C1008091C10082608093C1008091C10091
:1034200081608093C1008091C30081608093C3005C
:103430008091C00082608093C0008091C200816052
:103440008093C20080917A00846080937A0080919A
:103450007A00826080937A0080917A008160809304
:103460007A0080917A00806880937A001092A60199
:1034700081E08093D70080EA8093D80082E189BD03
:1034800009B400FEFDCF61E070E080E090E00E94B2
:10349000491780E98093D8001CE01093E200109255
:1034A000E00010928403109283031092890310921B
:1034B0008A0310928B0310928C0310927E03109259
:1034C0007D03109292031092930310929403109232
:1034D00095031092960310929703109298031092FE
:1034E000990342E0BE01615F7F4F80E090E00E945F
:1034F000C7068F8598898A3F910509F4C1C08AEF74
:1035000090E09E878D8742E0BE01635F7F4F80E041
:1035100090E00E94980619821A821B821C8244E065
:10352000BE016F5F7F4F82E090E00E94980688E3C3
:1035300094E09E878D8742E0BE01635F7F4F86E007
:1035400090E00E94980684E6898B41E0BE016F5EA0
:103550007F4F88E090E00E94980641E0BE016F5ED8
:103560007F4F8BE090E00E94980641E0BE016F5EC5
:103570007F4F8CE090E00E94980641E0BE016F5EB4
:103580007F4F80E190E00E94980641E0BE016F5EAF
:103590007F4F8DE090E00E94980682E3898B41E0A6
:1035A000BE016F5E7F4F89E090E00E94980641E087
:1035B000BE016F5E7F4F8AE090E00E94980641E076
:1035C000BE016F5E7F4F8EE090E00E94980686E419
:1035D000898B41E0BE016F5E7F4F8FE090E00E94DB
:1035E00098061E861D8642E0BE01635F7F4F81E123
:1035F00090E00E9498068FEF97E09E878D8742E0CB
:10360000BE01635F7F4F83E190E00E9498068FEFD9
:103610009FE09E878D8742E0BE01635F7F4F85E11B
:1036200090E00E9498068DE2898B41E0BE016F5EBA
:103630007F4F87E190E00E94980681E0898B41E00E
:10364000BE016F5E7F4F88E190E00E94980680E6A1
:1036500099E0A0E0B0E089839A83AB83BC8344E027
:10366000BE016F5F7F4F89E190E00E949806198B41
:1036700041E0BE016F5E7F4F8DE190E00E949806B1
:1036800042E064EB71E086E090E00E94C70644E00F
:1036900069E573E089E190E00E94C70641E066EBCE
:1036A00071E088E090E00E94C70641E064E673E0C4
:1036B00089E090E00E94C70641E062E673E08AE09C
:1036C00090E00E94C70641E067E673E08BE090E07F
:1036D0000E94C70641E066E673E08CE090E00E943D
:1036E000C70641E065E673E08DE090E00E94C70602
:1036F00041E063E673E08EE090E00E94C70641E09F
:1037000068E673E08FE090E00E94C70641E061E662
:1037100073E080E190E00E94C70641E062E773E059
:1037200087E190E00E94C70641E061E973E088E12B
:1037300090E00E94C70642E062EB71E081E190E018
:103740000E94C70642E060EB71E083E190E00E94D6
:10375000C70642E067E573E085E190E00E94C70696
:1037600041E06FEA71E08DE190E00E94C7068FEFC3
:103770009FE09093860380938503109288031092B4
:10378000870390938E0380938D0310929003109281
:103790008F039093800380937F0310928203109293
:1037A000810390937A038093790310927C031092A3
:1037B0007B036091590370915A0380915B03909150
:1037C0005C030E94363220E030E044EB53E40E9478
:1037D0008C316B017C018091B4019091B501BC01E9
:1037E000990F880B990B0E9436329B01AC01C701DF
:1037F000B6010E94EB320E94FE3160934F0370933A
:10380000500380935103909352036B017C01F59414
:10381000E794D794C794C0929A03D0929B03E09206
:103820009C03F0929D0362E080E00E94E81662E053
:1038300081E00E94E81610928A04C0928B04D09214
:103840008C04E0928D04F0928E0410928F044A9BB7
:1038500005C080918F04816080938F044B9B05C0CD
:1038600080918F04826080938F04809169008F7CA7
:10387000806180936900EA9A809169008F73806407
:1038800080936900EB9A60E082E10E94E81660E0B4
:1038900083E10E94E81660E084E10E94E8166E9AD7
:1038A0005798249A109255031092540310925D0376
:1038B00010925E0310925F03109260031092530304
:1038C0001092560361E080919E040E94E81660E029
:1038D00080919F040E94E81611E01093A00460E01C
:1038E00080919E040E94B8161093A0040E946F1746
:1038F0006093DA047093DB048093DC049093DD041E
:103900000E946F17603679408105910518F40E9476
:103910007B17F6CF0E9498181092CE046091720324
:1039200070E080E090E00E94343220E030E040E837
:103930005EE30E94EB329B01AC016093A1047093A3
:10394000A2048093A3049093A40460E070E080E854
:103950009FE30E948C316093A5047093A60480932A
:10396000A7049093A80488E191E09093A801809324
:10397000A7018DEB94E090937C0580937B0584E414
:103980009AE090937E0580937D05279A1091AF0170
:10399000812F0E94F0065C019093AA018093A901F7
:1039A0009093B1018093B0016091B2017091B30125
:1039B00080E090E00E9434326B017C01B50180E030
:1039C00090E00E9434329B01AC01C701B6010E9415
:1039D0008C316093AB017093AC018093AD019093F7
:1039E000AE01012F017010FD05C020E030E04AEF6C
:1039F00054E404C020E030E04AE754E46091080158
:103A00007091090180910A0190910B010E94EB32A3
:103A1000609308017093090180930A0190930B0150
:103A2000011105C020E030E04AEF54E404C020E07A
:103A300030E04AE754E460910401709105018091FF
:103A40000601909107010E94EB326093040170938C
:103A500005018093060190930701011105C020E044
:103A600030E04AEF54E404C020E030E04AE754E498
:103A70006091000170910101809102019091030118
:103A80000E94EB3260930001709301018093020168
:103A900090930301109280001092810010926F00A9
:103AA00016BA8091A9019091AA0190938700809302
:103AB0008600109289001092880010928B0010925C
:103AC0008A008091AF018274823421F48091810058
:103AD000826003C080918100816080938100809129
:103AE000AF0180FF09C080918000826080938000D8
:103AF00080918100806108C0809180008260809305
:103B000080008091810088618093810080E090E056
:103B10000E94A30F80918000806880938000259A86
:103B200080E090E00E94960F8091800080628093F8
:103B30008000269A61E08DE00E94E81613E061E0C3
:103B40008DE00E94B81664E170E080E090E00E9491
:103B5000491760E08DE00E94B81664E170E080E0F3
:103B600090E00E944917115051F710927303109280
:103B70007403109275031092760383E793E00E941A
:103B8000B00F80919A0390919B03A0919C03B091F8
:103B90009D03F89480938B0490938C04A0938D04E0
:103BA000B0938E04789482E090E0909370038093B9
:103BB0006F038FEF97E090936E0380936D03809176
:103BC0007203809371030E94241760939E03709385
:103BD0009F038093A0039093A1030E9424176093F6
:103BE000E5047093E6048093E7049093E804009161
:103BF000A2031091A3032091A4033091A5036B01AC
:103C00007C01C01AD10AE20AF30AC092E104D09200
:103C1000E204E092E304F092E40400919E03109128
:103C20009F032091A0033091A1036B017C01C01A76
:103C3000D10AE20AF30A40EDC41647E0D406E104D3
:103C4000F10410F40C94812F60939E0370939F03F2
:103C50008093A0039093A103E2E210925603809117
:103C6000540390915503829774F01092550310926B
:103C7000540310925D0310925E0310925F03109242
:103C80006003109253038091540390915503823046
:103C9000910564F4892B09F42C9A80915403909136
:103CA0005503019709F045C02C9843C09C01217031
:103CB000332780FD3AC099B1991F9927991F909396
:103CC000560380915303803258F540915D03509123
:103CD0005E0360915F037091600301E010E020E0FB
:103CE00030E0082E04C0000F111F221F331F0A945A
:103CF000D2F7992329F0402B512B622B732B08C04C
:103D0000009510952095309540235123622373230D
:103D100040935D0350935E0360935F037093600371
:103D20008F5F80935303769A04C02130310509F4E4
:103D30007698809154039091550301969093550382
:103D400080935403E15009F088CFF89480918B045C
:103D500090918C04A0918D04B0918E047894409140
:103D60009A0350919B0360919C0370919D03841B67
:103D7000950BA60BB70B8093960390939703A09394
:103D80009803B09399038093920390939303A09325
:103D90009403B0939503B0909103B5FA882780F906
:103DA000B6FC8260B7FE02C084601DC08130D9F4C9
:103DB0006A017B01C094D094E094F0949A01AB0125
:103DC0002C193D094E095F096091890370918A039E
:103DD00080918B0390918C030E94E8332FEF3FEF8B
:103DE00040E050E032C0823059F46A017B01C09457
:103DF000D094E094F094A0918303B091840319C00F
:103E0000833059F46A017B01C094D094E094F0941B
:103E1000A0917D03B0917E030CC0843021F56A012E
:103E20007B01C094D094E094F094A0917703B0917A
:103E300078039A01AB012C193D094E095F090E94D4
:103E4000E1302FEF3FE040E050E00E94B730C20E7B
:103E5000D31EE41EF51EC0929203D0929303E0920B
:103E60009403F0929503C0909203D0909303E09056
:103E70009403F09095038091EE049091EF04A0914B
:103E8000F004B091F104C092EE04D092EF04E092FD
:103E9000F004F092F1042091F604222309F445C0C5
:103EA000A0901F0554E0A59E8001112402511B4FD4
:103EB000A7019601281B390B4A0B5B0BCA01B901FC
:103EC0000E943632D80119966D937D938D939C9301
:103ED0001C971A2D0AE060E070E0CB01B4E01B9F54
:103EE000F0011124E251FB4F218532854385548531
:103EF0000E941B31112311F0115001C019E0015033
:103F000069F720E030E040E251E40E948C3121E08A
:103F10002A0D2A3018F420931F0502C010921F05A5
:103F200068A77CA78DA79EA70FC081E08093F604A9
:103F30001092F2041092F3041092F4041092F5041B
:103F400018A61CA61DA61EA62091200530912105AD
:103F5000409122055091230588A59CA5ADA5BEA53D
:103F60008093200590932105A0932205B09323050B
:103F700080912805882309F440C0A0907905E4E0E9
:103F8000AE9E8001112409501B4F68A5792FCD01E9
:103F90000E941A31D801D2966D937D938D939C9394
:103FA000D5971A2D04E160E070E0CB01B4E01B9FCF
:103FB000F0011124E950FB4F22A933A944A955A9C6
:103FC0000E941B31112311F0115001C013E1015067
:103FD00069F720E030E040EA51E40E948C3121E0B2
:103FE0002A0D243118F42093790502C01092790526
:103FF0006BAB7CAB8DAB9EAB0FC081E08093280593
:10400000109224051092250510922605109227057E
:104010001BAA1CAA1DAA1EAA80917A05882359F101
:10402000B0FE44C70E94D9129B01AC0160E070E071
:1040300080E094E40E948C314B015C016091680344
:1040400070E080E090E00E9436329B01AC01C50137
:10405000B4010E94EB3220E030E048EC52E40E94D0
:104060008C310E94FE31AB01C701B6010E94E713FB
:104070002B013C011EC7EBEBF1E0FD8FEC8F1B8A9F
:104080001A8A412C512C32010A891B890F5F1F4F5C
:104090001B8B0A8B4EE19801429F8001439F100DBC
:1040A000112409511E4FD8018C918370833009F07F
:1040B000F0C60E94D9126B017C01F801218532857E
:1040C000A789B08D0E9412342FEF3FE740E050E007
:1040D0000E94B730CA01B9010E943632A701960189
:1040E0000E948C310E94FE319B01AC01D8011B96CD
:1040F0008D919C911C97059730F4E4E0F0E01C96BC
:10410000FC93EE931B97FEE1EF2ECA88DB88EC9CB4
:10411000F001ED9CF00D1124E951FE4FE1818E2F4D
:1041200090E0FC013197ED30F10508F09CC6EA5AA9
:10413000FF4F0C940C340E94D9126C8B7D8B8E8BAC
:104140009F8B2EE10A891B89209FC001219F900D22
:104150001124AC0149515E4F1A01DA0119968D9074
:104160009C901A975596AD90BC9056971F96CD90FF
:10417000DC9050975196ED90FC90529753960D918C
:104180001C91549714962C91149713964C91139755
:1041900057968D919C915897EC8DFD8D6081718122
:1041A0000E94EA129401DC010E9412342FEF3FE7D3
:1041B00040E050E00E94B730CA01B9010E94363297
:1041C0002C893D894E895F890E948C310E94FE3185
:1041D0000E9425069B01AC01A0916703B0E00E94FC
:1041E000D63024E630E040E050E00E94B730421A7A
:1041F000530A640A750A7EC10E94D9126C8B7D8BAA
:104200008E8B9F8B6EE1E62ECA88DB88EC9CF001DA
:10421000ED9CF00D1124E951FE4F01851285198F97
:10422000088FC588D688D9A2C8A2E784F088FDA2E5
:10423000ECA20189128918AB0FA7038914891FAF5B
:104240000EAF84809380AC8DBD8D2D903C90078502
:1042500010896085A7800A2C000CBB08062E000C74
:10426000770B6A197B09CB01770FAA0BBB0B66276B
:10427000782F892F9A2F0E9436326B017C01B8016A
:1042800080E090E00E94343220E030E04AE754E4DD
:104290000E948C319B01AC01C701B6010E948C3198
:1042A0006B017C01C101B8010E94F833BC0180E0C0
:1042B00090E00E94343220E030E04AE754E40E946B
:1042C0008C319B01AC01C701B6010E94EB320E9408
:1042D000FE31BA2CAA24C501860F971FA8A0B9A049
:1042E000CCA0DDA0EFA4F8A80EAD1FAD282D492D60
:1042F000B1010E94EA12288D398DDC010E9412342E
:104300002FEF3FE740E050E00E94B730CA01B9010B
:104310000E9436322C893D894E895F890E948C31FA
:104320000E94FE310E942506461A570A680A790A39
:104330009AC50E94D912688F798F8A8F9B8F5EE110
:10434000C52EEA89FB89CE9EC001CF9E900D112417
:104350008C0109511E4F1801D80119960D90BC917E
:10436000A02DB9A3A8A3F801038CF48DE02DFDA323
:10437000ECA3D8015D96BC91BFA7F8018384948417
:10438000A588B688C784D088E188F2880389148913
:1043900024814381AC8DBD8D0D90BC91A02DBD8B32
:1043A000AC8B8789908DBD010E94EA128C01B4010B
:1043B00080E090E00E94343220E030E04AE754E4AC
:1043C0000E948C319B01AC0160E070E080E89FE3CB
:1043D0000E948C316B017C018C899D89B4010E9403
:1043E000F833BC0180E090E00E94343220E030E0FD
:1043F0004AE754E40E948C319B01AC01C701B6012D
:104400000E94EB326B017C01BFA56B2F70E080E056
:1044100090E00E94343220E030E040E85BE30E940C
:10442000EB329B01AC01C701B6010E941B312BEDA1
:104430003FE049EC50E40E94EB320E9458339B016C
:10444000AC01ECA1FDA16F01FF0FEE08FF08B80160
:10445000110F880B990B21962FAF219724963FAF10
:10446000249722964FAF229723965FAF23970E94FF
:10447000363221962FAD219724963FAD2497229670
:104480004FAD229723965FAD23970E94EB320E9497
:10449000FE31CB01770FAA0BBB0BA7019601280FAA
:1044A000391F4A1F5B1FA8A1B9A10E94D6302FEF68
:1044B0003FE740E050E00E94B730CA01B9010E94D6
:1044C0003632288D398D4A8D5B8D0E948C310E9449
:1044D000FE319B01AC01A0916603B0E00E94D63092
:1044E00024E630E040E050E00E94B730420E531E18
:1044F000641E751ED10116968C91169782FFB3C467
:104500001D966D917C911E9780E090E00E94343260
:104510002BED3FE049EC50E40E94EB3220E030E02C
:1045200040E058E30E94EB320E9458339B01AC01FB
:10453000C301B20121962FAF219724963FAF249754
:1045400022964FAF229723965FAF23970E94363271
:1045500021962FAD219724963FAD249722964FADFB
:10456000229723965FAD23970E94EB320E94FE3183
:104570002B013C0178C40E94D912688F798F8A8FF1
:104580009B8F4EE1E42ECA88DB88EC9CF001ED9C09
:10459000F00D1124E951FE4F0185128519A308A3DE
:1045A000238D348DA901330F660B770B4CA35DA3CC
:1045B0006EA37FA3558D5FA723843484A588B68816
:1045C000C784D088E188F2880389148924814381D3
:1045D000AC8DBD8D0D90BC91A02DBD8BAC8B878912
:1045E000908DBD010E94EA12BC01990F880B990BB6
:1045F0000E9436324B015C01B10180E090E00E94E4
:10460000343220E030E04AE754E40E948C319B01D0
:10461000AC0160E070E080E89FE30E948C316B01A8
:104620007C018C899D89B1010E94F833BC0180E036
:1046300090E00E94343220E030E04AE754E40E94E7
:104640008C319B01AC01C701B6010E94EB326B01BA
:104650007C01BFA56B2F70E080E090E00E943432B7
:1046600020E030E040E85BE30E94EB329B01AC01CC
:10467000C701B6010E941B312BED3FE049EC50E42D
:104680000E94EB320E9458336B017C0120E030E045
:10469000A9010E94E63287FF0CC020E030E0A901AA
:1046A000C701B6010E94873187FF05C0EFEFEFAB6E
:1046B00002C0F1E0FFABCFA86C2DCC0C770B880BC0
:1046C000990B0E9436329B01AC01C501B4010E94D6
:1046D000EB320E94FE31CB01770FAA0BBB0BDDC181
:1046E0000E94D91268A379A38AA39BA30EE1EA884A
:1046F000FB880E9DF0010F9DF00D1124E951FE4F36
:10470000218532853DA32CA3238D348DA901330F40
:10471000660B770B4FA758AB69AB7AAB358D6385CA
:1047200074857D8B6C8BA588B688C784D088E1881A
:10473000F2880389148924814381AC8DBD8D0D904D
:10474000BC91A02DB98FA88F8789908DBD0124962B
:104750003FAF24970E94EA121C01EC89FD89BF013A
:1047600080E090E00E9434324B015C0124963FAD22
:10477000249760E4630F70E080E090E00E943432A0
:1047800020E030E040E85BE30E94EB32A5019401B9
:104790000E94EB320E940532888D998D860F971FFB
:1047A0006C897D890E94F8338C01BC0180E090E027
:1047B0000E94343220E030E04AE754E40E948C3119
:1047C0006B017C0120E030E0A9010E94E63287FD08
:1047D0003CC020E030E04AE754E4C501B4010E9447
:1047E0008C31688F798F8A8F9B8F20E030E040E09A
:1047F0005FE30E94EB329B01AC01C701B6010E944E
:10480000873187FF22C0B101032C000C880B990B64
:104810000E94363220E030E040E850E40E94EB3263
:10482000288D398D4A8D5B8D0E948C31A7019601B0
:104830000E94EB320E94FE313194219431086101D3
:10484000C60ED71ED9AEC8AE51C020E030E04AE750
:1048500054E4C501B4010E948C314B015C0120E09D
:1048600030E040E05FE30E94EB329B01AC01C70106
:10487000B6010E94E63287FD39C0A5019401C70147
:10488000B6010E94873187FF31C0B101032C000CB3
:10489000880B990B0E94363220E030E040E850EC63
:1048A0000E94EB32A50194010E948C316B017C01C6
:1048B0008C899D8996958795B801681B790B80E056
:1048C00090E00E94343220E030E04AE754E40E9455
:1048D0008C319B01AC01C701B6010E94EB320E94F2
:1048E000FE317101E60EF71EF9AEE8AE08AD19AD66
:1048F000C801110FAA0BBB0B2FA538A949A95AA9AA
:10490000280F391F4A1F5B1FACA1BDA10E94D630E2
:104910002FEF3FE740E050E00E94B730CA01B901F5
:104920000E94363228A139A14AA15BA10E948C3194
:104930000E94FE319B01AC01A0916603B0E00E9491
:10494000D63024E630E040E050E00E94B730420E1E
:10495000531E641E751E87C20E94D912688F798FFC
:104960008A8F9B8F4EE12A893B89429FF001439FAA
:10497000F00D1124E951FE4F6185728579A368A37A
:10498000238D348DC901330FAA0BBB0B8CA39DA3C0
:10499000AEA3BFA3358D23843484A588B688C7848D
:1049A000D088E188F2880389148924814381AC8D01
:1049B000BD8D8D909C908789908DB40124963FAFDA
:1049C00024970E94EA129D8B8C8BB10180E090E0CD
:1049D0000E9434326B017C0124963FAD249760E83D
:1049E000630F70E080E090E00E94343220E030E01D
:1049F00040E85BE30E94EB32A70196010E94EB3294
:104A00000E940532C401860F971FB1010E94F8333E
:104A10008C0182159305D8F5EC89FD89BF01FF0F44
:104A2000880B990B0E9436329B01AC010E941B310E
:104A30004B015C0120E030E04AE754E4C701B601D5
:104A40000E948C319B01AC01C501B4010E948C31E4
:104A50006B017C01B80180E090E00E94343220E0DC
:104A600030E04AE754E40E948C319B01AC01C7015D
:104A7000B6010E94EB320E94FE312C893D893195AE
:104A8000219531096901C60ED71EDBAECAAEEAAC6C
:104A9000FBACC701FF0CAA0BBB0B2CA13DA14EA187
:104AA0005FA1280F391F4A1F5B1FA8A1B9A10E944F
:104AB000D6302FEF3FE740E050E00E94B730CA0108
:104AC000B9010E943632288D398D4A8D5B8D2ECFEB
:104AD0000E94D912688F798F8A8F9B8F2EE10A8965
:104AE0001B89209FF001219FF00D1124E951FE4FF9
:104AF0004185528559A348A3238D348DB901330FC5
:104B0000880B990B6CA37DA38EA39FA3358D238463
:104B10003484A588B688C784D088E188F288038960
:104B2000148924814381AC8DBD8D8D909C908789A3
:104B3000908DB40124963FAF24970E94EA129D8B7A
:104B40008C8BB10180E090E00E9434326B017C01DB
:104B500024963FAD249760E8630F70E080E090E01A
:104B60000E94343220E030E040E85BE30E94EB3208
:104B7000A70196010E94EB320E940532C401860F04
:104B8000971FB1010E94F8338C0182159305D0F56F
:104B90006C897D89719561957109072E000C880BD0
:104BA000990B0E9436329B01AC010E941B314B01D4
:104BB0005C0120E030E04AE754E4C701B6010E94FE
:104BC0008C319B01AC01C501B4010E948C316B0199
:104BD0007C01B80180E090E00E94343220E030E0B7
:104BE0004AE754E40E948C319B01AC01C701B60135
:104BF0000E94EB320E94FE31EC89FD89E60FF71F1F
:104C0000FDAFECAFCCACDDACC601DD0CAA0BBB0B31
:104C100044CF0EE1EA88FB880E9DF0010F9DF00D58
:104C20001124E951FE4F038D148DA0916503B0E06E
:104C30000E94D63020E436E040E050E00E94B730D9
:104C400069017A0120919A0330919B0340919C0362
:104C500050919D03D8010E94E130DC01CB012FE08F
:104C6000B595A795979587952A95D1F7092E000CAC
:104C7000AA0BBB0B40919203509193036091940354
:104C8000709195038A019B01081B190B2A0B3B0BA2
:104C9000C901B801A6010E94E713460E571E681EFF
:104CA000791EE1C08EE16A897B89869FF001879F2A
:104CB000F00D1124E951FE4F038D148DA091640372
:104CC000B0E00E94D63024E630E040E050E00E94A0
:104CD000B73069017A01B801110F880B990B0E9456
:104CE00036322AE939EC4CEC54E40E948C319B01B9
:104CF000AC0168A57CA58DA59EA50E941A31A601D0
:104D00000E94141562C08EE1C82EAA89BB89CA9E72
:104D1000F001CB9EF00D1124E951FE4F038D148D4F
:104D2000A0916303B0E00E94D63024E630E040E07A
:104D300050E00E94B73069017A01B801110F880B69
:104D4000990B0E94363220E03EEF4FEF56E40E946E
:104D50008C319B01AC016BA97CA98DA99EA90E94F5
:104D60001A31A6010E94AC1430C00EE1EA88FB881B
:104D70000E9DF0010F9DF00D1124E951FE4F038DA2
:104D8000148DA0916203B0E00E94D63024E630E09A
:104D900040E050E00E94B73069017A01B801110F7C
:104DA000880B990B0E9436322AE939EC4CEC54E41A
:104DB0000E948C319B01AC0168A57CA58DA59EA5A8
:104DC0000E941A31A6010E942B14092E000CAA0B76
:104DD000BB0B480E591E6A1E7B1E45C00E94D9128D
:104DE0009B01AC018EE16A897B89869FF001879FD8
:104DF000F00D1124E951FE4F838D948DBC01990F64
:104E0000880B990B21962FAF219724963FAF2497BB
:104E100022964FAF229723965FAF23970E94363298
:104E200021962FAD219724963FAD249722964FAD22
:104E3000229723965FAD23970E948C310E94FE310A
:104E40000E9425069B01AC01A0916603B0E00E9480
:104E5000D63024E630E040E050E00E94B730421AFD
:104E6000530A640A750A0E946F170091B7011091E6
:104E7000B8012091B9013091BA01DC01CB01801B4E
:104E8000910BA20BB30BEC8DFD8D80839183A283DC
:104E9000B3830C8D1D8D0C5F1F4F1D8F0C8F2A89C6
:104EA0003B892B30310509F0EFC803C0412C512C50
:104EB00032011091910311FF3DC00E94D9129B0154
:104EC000AC01E091640367E471E0E69FC001E79FF5
:104ED000900D1124BC0180E090E021962FAF219726
:104EE00024963FAF249722964FAF229723965FAF29
:104EF00023970E94363221962FAD219724963FADFD
:104F0000249722964FAD229723965FAD23970E9458
:104F10008C310E94FE31AB0168A57CA58DA59EA5B4
:104F20000E941415092E000CAA0BBB0B480E591E2B
:104F30006A1E7B1E12FF3DC00E94D9129B01AC016C
:104F4000E091630367E471E0E69FC001E79F900D85
:104F50001124BC0180E090E021962FAF2197249688
:104F60003FAF249722964FAF229723965FAF2397A8
:104F70000E94363221962FAD219724963FAD24977B
:104F800022964FAD229723965FAD23970E948C31D6
:104F90000E94FE31AB016BA97CA98DA99EA90E943C
:104FA000AC14092E000CAA0BBB0B480E591E6A1E2E
:104FB0007B1E13FF3DC00E94D9129B01AC01E09102
:104FC000620367E471E0E69FC001E79F900D112442
:104FD000BC0180E090E021962FAF219724963FAF4F
:104FE000249722964FAF229723965FAF23970E9474
:104FF000363221962FAD219724963FAD24972296E5
:105000004FAD229723965FAD23970E948C310E946B
:10501000FE31AB0168A57CA58DA59EA50E942B1431
:10502000092E000CAA0BBB0B480E591E6A1E7B1ED4
:1050300040919A0350919B0360919C0370919D0352
:105040008091920390919303A0919403B091950362
:10505000CC24DD247601C41AD50AE60AF70A8C1599
:105060009D05AE05BF0534F0481759076A077B0751
:105070000CF045C0B7FD05C0841B950BA60BB70B04
:1050800004C0840F951FA61FB71F809392039093AF
:105090009303A0939403B09395030E94D9129B01AC
:1050A000AC0160E07EEF8FEF96E40E948C316B01E3
:1050B0007C016091610370E080E090E00E943632F4
:1050C0009B01AC01C701B6010E94EB3220E030E049
:1050D00048EC52E40E948C310E94FE316B017C014D
:1050E0006091920370919303809194039091950342
:1050F000A6010E94E713460E571E681E791EA09156
:10510000B601B0E0A30192010E94D63024E630E05F
:1051100040E050E00E94B730CA01B9010E94250664
:105120006B017C0114FF04C00E9477160E940A16CE
:10513000C0927303D0927403E0927503F0927603E9
:1051400060919603709197038091980390919903D1
:105150000E9436326B017C0160914F0370915003C5
:1051600080915103909152030E9436329B01AC0111
:1051700060E07FEF8FE797E40E948C319B01AC01E8
:10518000C701B6010E94EB320E94FE314B015C0167
:10519000611570488105910534F088248A940FE7E1
:1051A000902EA12CB12C811440E894064FEFA40658
:1051B000B40634F4812C10E8912EAA24AA94BA2CB7
:1051C0008092960390929703A0929803B0929903CD
:1051D00083E793E00E94B00F1091720380917103F6
:1051E000181741F1612F70E080E090E00E943432A6
:1051F00020E030E040E85EE30E94EB329B01AC012E
:105200006093A1047093A2048093A3049093A404D8
:1052100060E070E080E89FE30E948C316093A50419
:105220007093A6048093A7049093A804109371032D
:105230000E9498180E947B174091D3045091D40487
:10524000A0E0C12CD12C76012A2F30E0241735079D
:105250008CF4220F331F220F331FF901E256FB4F4C
:105260000385148525853685C00ED11EE21EF31EEA
:10527000AF5FEACFD701C6010090C10404C0B59565
:10528000A795979587950A94D2F78093D504909324
:10529000D604A093D704B093D8040091B104109120
:1052A000B2042091B3043091B404BC01CD01601B61
:1052B000710B820B930B0E9436322091A504309122
:1052C000A6044091A7045091A8040E94EB320E94CA
:1052D000FE312B013C0120908303309084038091A8
:1052E0008503909186032816390624F430928603AC
:1052F00020928503809187039091880382159305FE
:1053000024F4309288032092870380918D0390913A
:105310008E03092E000CAA0BBB0B481659066A0611
:105320007B0624F450928E0340928D0380918F036C
:1053300090919003092E000CAA0BBB0B84159505C8
:10534000A605B70524F45092900340928F03209154
:105350007D0330917E0380917F0390918003281715
:10536000390724F43093800320937F0380918103D5
:10537000909182038217930724F430938203209341
:105380008103C0907703D0907803DB8ACA8A80912A
:10539000790390917A03C816D90624F4D0927A033F
:1053A000C092790380917B0390917C03EA88FB880B
:1053B0008E159F0524F4F0927C03E0927B0300910C
:1053C0006F03109170038091850390918603800F85
:1053D000911F6C01E12CF12CCC8EDD8EEE8EFF8EB8
:1053E000C0907F03D0908003C00ED11EE12CF12C21
:1053F000C901330FAA0BBB0B9C01AD012C193D0950
:105400004E095F09AFEFBFE00E94D63020918103C3
:1054100030918203201B310B40E050E02C193D09F4
:105420004E095F090E94B73028A739A74AA75BA792
:105430008091790390917A03800F911F6C01E12C88
:10544000F12C2A893B89C901330FAA0BBB0B9C01A4
:10545000AD012C193D094E095F09AFEFBFE00E9475
:10546000D63020917B0330917C03201B310B40E030
:1054700050E02C193D094E095F090E94B7302C8B72
:105480003D8B4E8B5F8B9101330C440B550BCC8CB9
:10549000DD8CEE8CFF8C2C193D094E095F09AFEFB6
:1054A000BFE00E94D6302091870330918803201BF3
:1054B000310B890120E030E0A90198012C193D0948
:1054C0004E095F090E94B730211500E1300714F042
:1054D0002FEF3FE037FF02C020E030E0309384033D
:1054E00020938303E8A5F9A5E11510E1F10714F075
:1054F000EFEFFFE0F7FF02C0E0E0F0E0F0937E03A3
:10550000E0937D036C897D89611540E1740714F097
:105510006FEF7FE077FF02C060E070E07093780388
:105520006093770380916D0390916E03A0E0B0E0EB
:10553000481659066A067B064CF4109289031092AD
:105540008A0310928B0310928C030CC0481A590ADC
:105550006A0A7B0A4092890350928A0360928B0305
:1055600070928C034090890350908A0360908B0363
:1055700070908C034114510451E0650671042CF0C5
:1055800044244A94542C612C712C77FE03C0412C86
:10559000512C32014092890350928A0360928B030E
:1055A00070928C0380915D0390915E03A0915F03E4
:1055B000B0916003482F4F70413081F0423081F04C
:1055C000443081F0483081F0433081F0463081F042
:1055D000493081F04C3081F040E00FC041E00DC017
:1055E00043E00BC045E009C047E007C042E005C00A
:1055F00044E003C048E001C046E0807F842B8093F4
:10560000690390936A03A0936B03B0936C03A401A6
:10561000505849835A834B825C822D832E2F2295CA
:10562000207F232B2E836F0124E0D694C7942A95E4
:10563000E1F7CF826887282F2295207F272B2987A3
:10564000AC01BD0134E076956795579547953A953D
:10565000D1F74A87AC01BD01ECE076956795579587
:105660004795EA95D1F74B87F4E1B695A7959795BD
:105670008795FA95D1F78C874CE050E0BE016F5FBB
:105680007F4F84E00E94230A8091E1049091E2041C
:10569000A091E304B091E40480319742A105B105E3
:1056A00008F42FC480E994E00E94D60C181619065D
:1056B0000CF017C480E994E00E949C0CE82F8FE95D
:1056C0008E0F8A3108F4E0528E2F90E0FC01E154F5
:1056D000F109EA31F10508F004C4ED59FF4F0C94CB
:1056E0000C346091B4017091B501072E000C880B49
:1056F000990B0E94771680E20E94FF158091B601F7
:105700000E94B11680E20E94FF15809164030E94FE
:10571000B11680E20E94FF15809162030E94B116CB
:1057200080E20E94FF15809167030E94B11680E21B
:105730000E94FF15809166030E94B11680E20E94CC
:10574000FF15809165030E94B11680E20E94FF154B
:10575000809163030E94B11680E20E94FF15809140
:1057600068030E94B11680E20E94FF1580916103D8
:105770000E94B11680E20E94FF156091B201709103
:10578000B30180E090E04AE00E942A1680E20E9485
:10579000FF15809172030E94B11680E20E94FF15EE
:1057A000809191030E94B11680E20E94FF156091E2
:1057B000B0017091B10180E090E04AE00E942A16A9
:1057C00080E20E94FF156091590370915A03809105
:1057D0005B0390915C030E94771680E20E94FF15A4
:1057E0006091AF0170E092C283E991E00E941816C7
:1057F0006AEF70E080E090E00E94771688E991E01F
:105800000E9418168AE991E00E9418168CE991E02E
:105810000E9418168EE991E00E94181680EA91E025
:105820000E94181682EA91E00E9418165AC38091CD
:10583000ED04082E000C990B52C3F894C0908B0411
:10584000D0908C04E0908D04F0908E047894809138
:10585000B0019091B1012091B2013091B301821B4E
:10586000930B9695879596958795A0E0B0E08983F0
:105870009A83AB83BC83CE0101960E94B00FD701FF
:10588000C6011EEFF89480908B0490908C04A09039
:105890008D04B0908E04789488159905AA05BB05EF
:1058A00054F46CE271E080E090E00E9449171150DE
:1058B000D501C40139F719821A821B821C82CE01DC
:1058C00001960E94B00F80914F0390915003A091D8
:1058D0005103B0915203F89480938B0490938C04FD
:1058E000A0938D04B0938E047894C814D904EA046C
:1058F000FB0411F482E001C081E08093ED04EDC26D
:105900000E940419611101C061E060937203E5C255
:105910008FEF9FE090938603809385031092880316
:105920001092870390938E0380938D0310929003BF
:1059300010928F039093800380937F0310928203D1
:105940001092810390937A038093790310927C03E1
:1059500010927B03C2C2F89440908B0450908C0448
:1059600060908D0470908E04789480919A03909149
:105970009B03A0919C03B0919D03481A590A6A0A9F
:105980007B0A8091E9049091EA04A091EB04B09124
:10599000EC04480E591E6A1E7B1E0E9404196430D6
:1059A00071058105910594F06B017C0171ECC716BE
:1059B00077E2D70679E0E706F1046CF010ECC12E2F
:1059C00017E2D12E19E0E12EF12C05C0B4E0CB2E68
:1059D000D12CE12CF12CC982DA82EB82FC8260911D
:1059E000B4017091B501072E000C880B990B0E9431
:1059F00036324B015C01C301B2010E943632A5016F
:105A000094010E94EB322B013C0160914F03709195
:105A1000500380915103909152030E9436329B01B2
:105A2000AC01C301B2010E948C312B013C01C09238
:105A30005903D0925A03E0925B03F0925C03C701D2
:105A4000B60193C080919A0390919B03A0919C030F
:105A5000B0919D03F89480938B0490938C04A09351
:105A60008D04B0938E04789455C1F89480908B0483
:105A700090908C04A0908D04B0908E0478948091C6
:105A80009A0390919B03A0919C03B0919D03881A67
:105A9000990AAA0ABB0A8091E9049091EA04A091AC
:105AA000EB04B091EC04880E991EAA1EBB1E0E9446
:105AB00004196E3171058105910584F06B017C013B
:105AC00089E0C81687E0D806E104F10464F0A8E094
:105AD000CA2EA7E0DA2EE12CF12C05C0FEE1CF2E74
