:100000000C940E040C9436040C9436040C941D06C7
:100010000C94F9050C9436040C9436040C943604B4
:100020000C9436040C9436040C943C090C94DF06B2
:100030000C9436040C9436040C9436040C94360458
:100040000C9436040C9436040C9436040C94360448
:100050000C9436040C9436040C9436040C948118D9
:100060000C9436040C9436040C9436040C94360428
:100070000C9436040C9436040C9436040C94360418
:100080000C9436040C9436040C9436040C94360408
:100090000C94360E0C9436040C9436040C943604EE
:1000A0000C9436040C9436040C943604B21F1320BE
:1000B000D221B02087227F24C323202569259A25B9
:1000C000CC254A260526612D3F2BDE2B4C2ED62C27
:1000D000D92D0B2C5E2D4C2E4C2E4C2E4C2E4C2EF6
:1000E0004C2E6A2B472B4C2EC52ABF2A4C2E192A80
:1000F0009C2A062D4C2E5E2DFD2B132E182EF52D31
:10010000FA2D4C2EFF2DF02D4C2E0E2E1D2E4C2E8A
:100110004C2E092E4C2E4C2E4C2E4C2E4C2E042E9A
:1001200048104D1052105C10A610A610A6106610B4
:1001300070107A1084109110A61099104A164D165E
:10014000401644166E166E166E1651165516591632
:100150005F1663166E16691605A84CCDB2D44EB95B
:100160003836A9020C50B9918688083CA6AAAA2A5A
:10017000BE000000803F00000000000000002A2BAD
:100180002800000000000000000000000000000047
:100190000000000000002C9EB4A0A1A2A434A6A7D9
:1001A000A5AE362D3738271E1F20212223242526D1
:1001B000B333B62EB7B89F8485868788898A8B8C9F
:1001C0008D8E8F909192939495969798999A9B9CE7
:1001D0009D2F3130A3AD350405060708090A0B0C25
:1001E0000D0E0F101112131415161718191A1B1CC7
:1001F0001DAFB1B0B500080B0002020201000904F6
:100200000000010202000005240010010524010184
:1002100001042402060524060001070581031000DD
:100220004009040100020A00000007050202400024
:1002300000070583024000000904020002030000D9
:100240000009210101000122E104070584034000A7
:10025000010705050340000105010904A10185040A
:100260000901A1000930170000000027FFFF00006E
:10027000350047FFFF000075109501810209311616
:10028000000027FFFF0000350047FFFF000075104A
:1002900095018102093216000027FF0F000035008A
:1002A00047FF0F0000750C9501810209331600000D
:1002B00027FF0F0000350047FF0F0000750C950168
:1002C0008102093416000027FF0F0000350047FFA8
:1002D0000F0000750C9501810209391501250835BB
:1002E00000463B016514550075049501810205091E
:1002F000150025015500650019012918750195188B
:10030000810285F10901150026FF00953F750891CE
:100310008285F20901953F75088182C0050F099217
:10032000A1028502099F09A009A409A509A6150033
:10033000250135004501750195058102950381036D
:1003400009941500250135004501750195018102CB
:1003500009221501252835014528750795018102D7
:10036000C00921A102850109221501252835014571
:10037000287508950191020925A102092609270976
:100380003009310932093309340940094109420968
:1003900043250B15013501450B750895019100C0EA
:1003A00009500954150027FFFF0000350047FFFFE3
:1003B000000066011055FD7510950291025500660A
:1003C00000000952150026FF7F350046FF7F75109B
:1003D0009501910209531501250835014508750855
:1003E000950191020955A102050109300931150055
:1003F0002501750195029102C0050F0956950191DD
:1004000002950591030957A1020B01000A000B0296
:10041000000A0066140055FE150026FF7F350047D0
:100420009F8C00007510950191025500660000C078
:10043000050F09A766011055FD150027FFFF0000F5
:10044000350047FFFF00007510950191026600001E
:100450005500C0050F095AA1028502092215012580
:100460002835014528750895019102095B095D153C
:100470000026FF00350046FF7F75089502910209AE
:100480005C095E66011055FD26FF7F46FF7F7510F3
:10049000950291026600005500C0095FA102850324
:1004A0000922150125283501452875089501910275
:1004B00009231500250135004501750495019102B8
:1004C0000958A1020B01000A000B02000A00750284
:1004D00095029102C0096016008026FF7F360080D9
:1004E00046FF7F751095019102096136008046FF35
:1004F0007F95019102150026FF7F350046FF7F0999
:10050000637510950191020965150026FF0046FFED
:100510007F750895019102C0096EA1028504092228
:1005200015012528350145287508950191020970A6
:10053000150026FF7F350046FF7F7510950191025B
:10054000096F16008026FF7F36008046FF7F9501E9
:1005500091020971150026FF0035004667016614F7
:10056000005500750895019102097227FFFF0000F0
:1005700047FFFF000066011055FD751095019102BF
:100580006600005500C00973A10285050922150106
:100590002528350145287508950191020970160135
:1005A0008026FF7F36018046FF7F751095019102FE
:1005B000C00974A1028506092215012528350145C7
:1005C00028750895019102097509761581257F36F0
:1005D000018046FF7F750895029102C0050F0977DB
:1005E000A102850A0922150125283501452875082B
:1005F000950191020978A1020979097A097B15010F
:100600002503750895019100C0097C150026FF009F
:10061000350046FF009102C00990A102850B092216
:100620001501252835014528750895019102C00955
:1006300096A102850C099709980999099A099B09BD
:100640009C15012506750895019100C0097DA10240
:10065000850D097E150026FF003500461027750818
:1006600095019102C009ABA10285050925A10209E6
:1006700026092709300931093209330934094009AB
:1006800041094209431501250B3501450B750895B4
:1006900001B100C00501093B150026FF01350046E8
:1006A000FF01750A9501B1027506B101C0050F0978
:1006B00089A10285060922252815013501452875DD
:1006C000089501B102098BA102098C098D098E25BB
:1006D0000315013501450375089501B100C009AC4A
:1006E000150027FFFF0000350047FFFF00007510D1
:1006F0009501B100C0097FA1028507098075109599
:1007000001150027FFFF0000350047FFFF0000B183
:1007100002098326FF0046FF0075089501B1020912
:10072000A909AA750195021500250135004501B1F9
:100730000275069501B103C0C01803410072006440
:1007400000750069006E006F0020004C004C0043F3
:10075000000403090422034100720064007500696B
:10076000006E006F0020004C0065006F006E00619D
:1007700000720064006F001201000200000040419E
:100780002336800001010200011201000202000074
:10079000404123368000010102000100C18081C177
:1007A000C000000000240027002A002D00300000B7
:1007B000000000250028002B002E00310004040456
:1007C00004040304050202020204030202020206F8
:1007D00006060606060404020202040404080201D6
:1007E000104080401020408040800802040180407A
:1007F0002010020110801020404020000000020064
:10080000080E0000030401000B00000000000000BF
:1008100000000000000000000000662E11241FBE32
:10082000CFEFDAE0DEBFCDBF11E0A0E0B1E0E6EF50
:10083000F4E602C005900D92A63AB107D9F725E07B
:10084000A6EAB1E001C01D92AB35B207E1F714E0B2
:10085000CEE0D4E004C02197FE010E946732CD3083
:10086000D107C9F70E94CB180C9479320C94000080
:100870008C30F8F4282F30E09EE1899FF00111249C
:10088000E851FE4F90819923A1F090819D7F908344
:10089000F901E255FC4F958191110BC0E091A70140
:1008A000F091A8010084F185E02D09951092BE0316
:1008B00008950895FC01CB012091E80022FFFCCFB0
:1008C000282F215028F03091F10030833196F9CF54
:1008D00024E62093A2032BEF2093E80008950F93C2
:1008E0001F93CF93DF93DB01A40FB51FFB016EEFC6
:1008F000EA17FB0791F187FF02C0249101C0208114
:100900000091A6031091A703C091A403D091A50361
:100910000C171D07B4F49091E8009570E1F39091E5
:10092000E80092FD1CC02093F1002091A6033091B5
:10093000A7032F5F3F4F2F733327232B11F46093AF
:10094000E8002091A6033091A7032F5F3F4F30931B
:10095000A7032093A6033196CBCFCA0102C08FEF25
:100960009FEFDF91CF911F910F910895CF93DF9368
:1009700000D000D01F92CDB7DEB7FC0181819081FD
:10098000913A29F5813009F0BCC08281863051F45A
:1009900045E050E069EA73E080E40E946F04109241
:1009A000A903AFC0873009F0ACC089838FEF9FEFF8
:1009B0009B838A838BE08C8383E08D8345E050E0CA
:1009C000BE016F5F7F4F80E40E946F049AC0913236
:1009D00009F097C0893009F094C08281853009F010
:1009E00090C064E070E0CE0101960E945A0486E057
:1009F0008093A90380910F018B3021F1A0910F0109
:100A000081E08A0F80930F019EE1E0910F019E9F8C
:100A1000F0011124E851FE4F8081882351F080912C
:100A20000F018B3030F480910F018F5F80930F01A5
:100A3000ECCF8EE1A89FF0011124E851FE4F81E038
:100A4000808301C0A0E0A093AA03A11104C082E0AA
:100A50008093AB0350C01092340581E08093AB03C8
:100A60008A819EE1A99FD0011124A851BE4F119601
:100A70008C9311978FEF9FEF50969C938E931F97B7
:100A800054961C921E92539752961C921E92519706
:100A900013968C93139714968C93149756961C92D6
:100AA0001E9255971E961C921E921D9716961C928A
:100AB00016978FEF9FE71A969C938E9319975896E7
:100AC0001C921E9257975C961C921E925B975D96A5
:100AD0001C925D9788EE93E01C969C938E931B97D7
:100AE000E091A701F091A8010684F785E02DBD01F2
:100AF000CE01019609958FEF9FEF9093AD03809300
:100B0000AC0381E00F900F900F900F900F90DF914A
:100B1000CF91089542E450E066EF71E080E80E94D2
:100B20006F0440E250E068E372E080E80E946F04E6
:100B300083E090E00895EF92FF921F93CF93DF93AD
:100B4000EC01162FE881F9810480F581E02D0995EB
:100B50007C01E881F9810680F781E02D612FCE01CB
:100B60000995C7019927DF91CF911F91FF90EF90D1
:100B70000895FC0191818081813A29F49D7F81E073
:100B8000913091F414C0813279F49A3049F09B305D
:100B900019F0993049F40AC0828180930E0106C091
:100BA000828180930D0102C080E0089581E0089564
:100BB0008C30F0F49EE1899FF0011124E851FE4F42
:100BC00080818823A9F08081826080838091BE0328
:100BD00081110EC00E94C2176093B8017093B901D1
:100BE0008093BA019093BB0181E08093BE03089586
:100BF00008951F920F920FB60F9211242F933F93D7
:100C00004F935F936F937F938F939F93AF93BF9314
:100C1000EF93FF930E94DF15FF91EF91BF91AF918A
:100C20009F918F917F916F915F914F913F912F9104
:100C30000F900FBE0F901F9018951F920F920FB636
:100C40000F9211242F933F934F935F936F937F9352
:100C50008F939F93AF93BF93EF93FF930E94DF1502
:100C6000FF91EF91BF91AF919F918F917F916F9184
:100C70005F914F913F912F910F900FBE0F901F905A
:100C80001895CF92DF92EF92FF920F931F93CF931D
:100C9000DF931F92CDB7DEB7F82EE42E8B01C82E5E
:100CA000D92E8C2D8F198E1588F4F80161918F0142
:100CB000C60169830E94FC2E6981681719F0C6017C
:100CC0000E94042FFFEFCF1ADF0AEBCF0F90DF91C6
:100CD000CF911F910F91FF90EF90DF90CF900895EB
:100CE000CF92DF92EF92FF920F931F93CF93DF93F8
:100CF0001F92CDB7DEB78B016B017C01E61AF70AB4
:100D00009C2D901B941758F4C7018C0D9D1D498391
:100D10000E94FC2EF60181936F014981F1CF0F9063
:100D2000DF91CF911F910F91FF90EF90DF90CF90C7
:100D300008958F929F92AF92BF92CF92DF92EF92DF
:100D4000FF9240E050E020E0682F70E0812C912C71
:100D500054018394FA013296DB0102C0B595A79540
:100D6000EA95E2F775016401042E04C0CC0CDD1C89
:100D7000EE1CFF1C0A94D2F7A0FF02C02C2902C06F
:100D8000C0942C214F5F5F4F4430510519F730E07C
:100D9000220F331FF901EC5CFE4F80FF05C08081FC
:100DA00091819695879502C080819181FF90EF9007
:100DB000DF90CF90BF90AF909F908F9008951F923B
:100DC0000F920FB60F921124EF92FF921F932F9361
:100DD0003F934F935F936F937F938F939F93AF93C3
:100DE000BF93EF93FF93CF93DF93CDB7DEB76197B8
:100DF000DEBFCDBF1092E9008091E80083FF59C1AA
:100E0000FE013A96CF0128E02E0F2E1729F03091DF
:100E1000F10030833196F9CF24E62093A20322EF2C
:100E20002093E8002A8527FF05C03091E80030FFB5
:100E3000FCCF03C03EEF3093E800322F307609F04C
:100E4000C5C08B85811105C01092F1001092F10090
:100E500029C1982F9D7F913009F424C1853049F430
:100E60008091E80080FFFCCF8C8580688093E30050
:100E700019C1863009F07CC01D85E888F988109278
:100E8000E9001092A7031092A603123091F5109278
:100E9000A5031092A4030E948A0599E0BE016F5F2A
:100EA0007F4FFB01292F11922A95E9F799831A8325
:100EB00091E09E8390E898879AEF99872091A60306
:100EC0003091A703275F3F4F3C832B838D83109284
:100ED000E9001092A7031092A603F092A503E092F6
:100EE000A40349E050E080E00E946F040E948A055C
:100EF000D9C0F092A503E092A403123259F441EE56
:100F000054E068E572E080E80E946F04892B09F0E4
:100F1000C9C0CCC0113069F488899989089711F447
:100F20001093A3038091A303811111C067E777E0B9
:100F300016C0133009F0BAC08C85882359F082306E
:100F400061F0813009F0B2C069E377E008C069E878
:100F500077E005C061E577E002C065E577E06115FF
:100F6000710509F4A3C0FB01449150E080E849C039
:100F7000873009F49BC0883021F481E08093F10030
:100F800091C0893009F08EC0237009F08FC080E0D5
:100F900090E031E026E341E0480F4093E9003093D0
:100FA000EB000196FC01E556F84FE491E093EC006C
:100FB0002093ED008530910571F78EE78093EA006C
:100FC0001092EA008C858093A6016CC0288939892B
:100FD0001092E9001092A7031092A6033093A50384
:100FE0002093A4032E85211154C08B859A85913AB4
:100FF00059F4813209F05AC047E050E060E171E0F5
:1010000080E00E946F044EC0913209F04FC08032E0
:1010100039F467E070E080E191E00E945A0442C038
:10102000823209F043C08C858093170180911001B2
:1010300090911101A0911201B0911301803B944055
:10104000A105B10579F58091170180FD11C087E7F1
:1010500097E790930108809300089BE088E10FB622
:10106000F894A895809360000FBE909360001AC01A
:101070000FB6F894A8958091600088618093600015
:10108000109260000FBEA8951092010810920008FF
:1010900009C0223059F4E0913505F09136050995E3
:1010A000882321F08EEF8093E80003C081E28093D3
:1010B000EB0061960FB6F894DEBF0FBECDBFDF9197
:1010C000CF91FF91EF91BF91AF919F918F917F91C0
:1010D0006F915F914F913F912F911F91FF90EF90F2
:1010E0000F900FBE0F901F9018958F929F92AF9206
:1010F000BF92CF92DF92EF92FF920F931F93CF9305
:10110000DF9300D01F92CDB7DEB7382F8B018091CF
:10111000A601882389F04A018AEFF82E832F877071
:10112000E82E90E4C92E832F8072B82E2AE3D22EA7
:10113000832F8074A82E21C08FEF9FEF5FC08FB7E1
:10114000F894E092E9009091E80095FF1AC0909120
:10115000F2002C2D291B8FBF211115C0FA94FF20FE
:1011600059F361E070E080E090E039834A835B836B
:101170000E949C1739814A815B8181149104F9F6A0
:1011800034C020E0E8CF822F90E0881699060CF456
:10119000282D822F90E0881A990A6FB7F894E09270
:1011A000E900BB2029F02150A8F01092F100FBCFFC
:1011B000F80137FF07C0215058F074917093F10087
:1011C0003196F9CF215020F071917093F100FACF50
:1011D000080F191F8091E80085FF0DC0811491044C
:1011E00011F4A11008C06FBFC8CF5D9884E680934A
:1011F000A803CA0103C0D092E800F5CF0F900F906A
:101200000F90DF91CF911F910F91FF90EF90DF90A2
:10121000CF90BF90AF909F908F9008959091A6012E
:10122000992311F057FF03C08FEF9FEF08952FB759
:10123000F89487708093E9008091F20090E0841721
:1012400095070CF4AC01842FFB0194E6815030F03B
:101250009093A2033091F1003193F8CF41155105DD
:1012600021F08091F200882319F02FBFCA01089560
:101270008BE68093E800F9CF1F920F920FB60F9282
:1012800011242F933F934F935F936F937F938F938B
:101290009F93AF93BF93EF93FF93CF93DF93CDB71C
:1012A000DEB7C054D109DEBFCDBF8091E1001092FE
:1012B000E10083FF0FC01092E90091E09093EB00F2
:1012C0001092EC0092E39093ED001092A60198E04A
:1012D0009093F00082FF46C083E08093E900809104
:1012E000F200882319F08AE38093E8009FB7F8940E
:1012F00082E08093E9008091F2009FBF882321F073
:101300008DE894E00E94FB0D9FB7F89485E08093F0
:10131000E9008091F2009FBF8823C1F080913705DA
:1013200090913805892B91F040E450E0BE016F5F49
:101330007F4F85E00E940E0997FD08C0E0913705B8
:10134000F0913805BC01CE01019609958091A80362
:10135000882341F08091A80381508093A8038111D4
:1013600001C05D9AC05CDF4F0FB6F894DEBF0FBEC0
:10137000CDBFDF91CF91FF91EF91BF91AF919F9141
:101380008F917F916F915F914F913F912F910F902E
:101390000FBE0F901F901895EF92FF920F931F931F
:1013A000CF93DF931F92CDB7DEB789838B017A018C
:1013B00041E050E0BE016F5F7F4F84E00E947508FE
:1013C000A701B80184E40E9475080F90DF91CF91C6
:1013D0001F910F91FF90EF9008951F93CF93DF938C
:1013E000DC0111961C9111979C91953009F467C00E
:1013F00060F5923009F443C0A8F4913009F04DC172
:10140000E091A701F091A8012EE1129FB0011124F3
:1014100068517E4F028CF38DE02DCD01DF91CF918D
:101420001F9109949330C9F1943009F036C1E091CD
:10143000A701F091A8012EE1129FB001112468517B
:101440007E4F0488F589E02D35C09B3009F49DC09E
:1014500038F4963009F441C09A3009F44CC01DC1EB
:101460009C3009F4CBC0913F09F017C140E450E033
:10147000BD0182EFDF91CF911F910C94CC09E091D7
:10148000A701F091A8013EE1139FB001112468511A
:101490007E4F0088F189E02D0DC0E091A701F09109
:1014A000A8018EE1189FB001112468517E4F028877
:1014B000F389E02DCD01DF91CF911F910994E09147
:1014C000A701F091A8013EE1139FB00111246851DA
:1014D0007E4F0688F789E02DEDCFE091A701F091CE
:1014E000A8018EE1189FB001112468517E4F008C35
:1014F000F18DE02DDFCF1F3F09F41FE712969C917D
:10150000913099F4812F0E94D805E12FF0E0E25547
:10151000FC4F85818111C1C0E091A701F091A80124
:101520000680F781E02D812F47C0923029F5C1E078
:101530008C2F0E943804CF5FCC30D1F7C12FD0E080
:10154000C255DC4F8D81811109C0E091A701F09156
:10155000A8010084F185E02D8FE70995812F0E9475
:10156000D8058D81811199C0E091A701F091A80162
:101570000680F781E02D1FC0933009F08EC0812FC7
:10158000DF91CF911F910C94380481E01F3FC1F48B
:1015900080930F0188E691E0E8EEF1E0DF019C0125
:1015A0001D9221503040E1F7E091A701F091A80190
:1015B0000284F385E02D8FE7DF91CF911F9109948D
:1015C000809334051C3008F068C03EE1139FF001A1
:1015D0001124E851FE4F108280910F01181710F46A
:1015E00010930F01E091A701F091A8010284F38507
:1015F000E02D812F09951092BE034FC082E08093A9
:10160000BF039091C00394609093C0039091C00376
:1016100090619093C0031092C1031330B1F040F475
:10162000113079F01230C9F58091C003826033C067
:10163000153071F1B0F0163081F58091C0038E7FC6
:101640002AC08091C0038D7F26C0E091A701F09150
:10165000A8010480F581E02D80E009951092C10376
:101660001CC0E091A701F091A8010480F581E02D54
:1016700081E0099581E080930F0188E691E0E8EE32
:10168000F1E0DF019C011D9221503040E1F705C0DF
:101690008091C00381608093C003DF91CF911F913F
:1016A0000895DC01683810F0685825C0E62FF0E096
:1016B00067FF12C0E058F10981E090E001C0880F97
:1016C000EA95EAF7809514969C91149789231496CD
:1016D0008C93149760E00FC0EA58FE4F6491662324
:1016E00011F167FF08C014968C9114978D7F1496A2
:1016F0008C9314976F77FD01369686E0662321F070
:101700009081961301C01082815031968111F6CFDD
:10171000BD016C5F7F4F48E050E082E00E94CC0941
:1017200081E090E0089580E090E00895FC01168249
:10173000178210861186128613861482BC016C5F94
:101740007F4F48E050E082E00C94CC09DC0168381F
:1017500010F068582DC0E62FF0E067FF11C0E05888
:10176000F10981E090E001C0880FEA95EAF714964C
:101770009C911497892B14968C93149760E018C051
:10178000EA58FE4F6491611109C081E090E0139620
:101790009C938E93129780E090E0089567FF08C0B5
:1017A00014968C911497826014968C9314976F778B
:1017B00016968C911697861751F117968C9117975C
:1017C000861729F118968C911897861701F11996AA
:1017D0008C9119978617D9F01A968C911A978617BB
:1017E000B1F01B968C911B97861789F0FD013696F8
:1017F00080E090E02191211105C0FD01E80FF91F63
:10180000668305C0019686309105A1F7BECFBD0164
:101810006C5F7F4F48E050E082E00E94CC0981E09D
:1018200090E00895CF92DF92EF92FF920F931F9373
:10183000CF93DF936C01EB017B01E40EF51E00E01A
:1018400010E0CE15DF0561F06991D601ED91FC91B4
:101850000190F081E02DC6010995080F191FF1CF05
:10186000C801DF91CF911F910F91FF90EF90DF9012
:10187000CF90089583E08093E9008091F20088235F
:1018800019F08AE38093E800089520917D04309157
:101890007E0480917F049091800428173907A9F075
:1018A000E0917F04F0918004E35CFB4F8081209104
:1018B0007F04309180042F5F3F4F2F733327309385
:1018C000800420937F0490E008958FEF9FEF0895A8
:1018D00020917D0430917E0480917F04909180045A
:1018E0002817390749F0E0917F04F0918004E35C08
:1018F000FB4F808190E008958FEF9FEF08958091D6
:101900007D0490917E0420917F0430918004821B9D
:10191000930B8F739927089585ED8093BC00809178
:10192000BC0084FDFCCF1092170408954091F10390
:10193000262F30E0240F311D21323105DCF42091B7
:1019400017042430C9F4FC0180E090E0861758F4B5
:101950003091F1032191DC01A153BC4FA30FB11DC4
:101960002C930196F3CF8091F103680F6093F103FC
:1019700080E0089581E0089582E0089508958FEF52
:101980009FEF08958FEF9FEF08958091CE0390E031
:101990009195819591090895CF93DF9300D0CDB7AC
:1019A000DEB7CB01642F49835A830E94960C49818C
:1019B000842F5A81952F0F900F90DF91CF9108952A
:1019C000CF93DF931F92CDB7DEB7698361E0CE017D
:1019D00001960E94960C81E090E00F90DF91CF91EC
:1019E00008950895CF93DF93FC01EB01718182810B
:1019F0008983878190859A87898725853685438164
:101A000054816EE1769FC001112488519E4FDC0104
:101A100050965C934E931F9756963C932E935597F2
:101A200064E0769FD0011124A854BE4F1D921D92F0
:101A30001D921C921397838594859E878D8782853E
:101A40008E8381E0DF91CF910895FC012281FB011B
:101A50002783FC018381FB0180870895FC0182813B
:101A60009381FB01908F878B0895DC01FB01129617
:101A70008D919C911397908F878B14968D919C914B
:101A80001597948F838F16968C911697858F17963E
:101A90008D919C911897948783870895DC01FB01B1
:101AA00012968C91129782838281811110C01596B3
:101AB0008D919C911697908F878B13968D919C9109
:101AC0001497948F838F17968C91858308958281C4
:101AD0000895DC01FB0112968C9112978383139673
:101AE0008C911397848314968D919C911597948B68
:101AF000838B16968D919C911797928B818B08956D
:101B00009EE1899FF0011124E851FE4F708B678799
:101B1000568B458B94E0899FF0011124E854FE4FC9
:101B200010821182128213820895089508951092EE
:101B3000340524E0829FC0011124FC01E854FE4FCB
:101B40001082118212821382089525E0FC01208305
:101B50008EE491E008950895809334050895CF921E
:101B6000DF92EF92FF926091B5017091B601072E5E
:101B7000000C880B990B0E9491306B017C016091E5
:101B800050037091510380915203909153030E942E
:101B900091309B01AC01C701B6010E94E72FFF9075
:101BA000EF90DF90CF9008950E9474320F931F93AF
:101BB000CF93DF931F92CDB7DEB78C0169838091FD
:101BC0001701882359F041E050E0BE016F5F7F4F5D
:101BD00083E00E947508181619063CF081E090E039
:101BE000F8019383828380E090E00F90DF91CF91A2
:101BF0001F910F9108950F931F93CF93DF931F921F
:101C0000CDB7DEB700917D0410917E040F5F1F4FAA
:101C10000F73112780917F04909180040817190792
:101C2000F9F041E050E0BE016F5F7F4F82E00E941B
:101C30000E09019719F4898190E002C08FEF9FEFA0
:101C40008F3F2FEF920761F0E0917D04F0917E04C9
:101C5000E35CFB4F808310937E0400937D04D2CF1E
:101C60000F90DF91CF911F910F9108951F920F92C6
:101C70000FB60F9211242F933F934F935F936F935F
:101C80007F938F939F93AF93BF93EF93FF93809135
:101C9000B900887F803609F49CC068F5883209F461
:101CA0005BC090F4803109F454C038F4882309F4FF
:101CB000F6C0883009F44DC0F6C0883109F44CC034
:101CC000803209F45DC0EFC0803409F468C048F484
:101CD000803309F455C0883309F0E5C080931604B9
:101CE000D8C0803509F44FC0883509F45DC0883408
:101CF00009F0D9C0D6C0883909F4C7C0A8F488371C
:101D000009F467C038F4883609F463C0803709F4F1
:101D100060C0C9C0883809F4B8C0803909F45FC010
:101D2000803809F0C0C05BC0803B09F486C038F43D
:101D3000803A09F466C0883A09F47FC0B4C0803C98
:101D400009F4A7C0883C09F4A4C0883B09F48AC000
:101D5000AAC080913C0410C090913B0480913A0449
:101D6000981770F5E0913B0481E08E0F80933B045F
:101D7000F0E0E65EFB4F80818093BB0085EC86C07F
:101D8000809316048EC0E0913B0481E08E0F809317
:101D90003B048091BB00F0E0E65EFB4F80839091B6
:101DA0003B0480913A046EC0E0913B0481E08E0FC9
:101DB00080933B048091BB00F0E0E65EFB4F8083A4
:101DC0008091190481116DC081E08093180484EA28
:101DD00061C083E08093170410921504CFCF8091E7
:101DE0001504803208F051C0E091150481E08E0F97
:101DF000809315048091BB00F0E0EB50FC4F808392
:101E0000BDCF85EC8093BC0010921704809115041F
:101E1000803230F4E0911504F0E0EB50FC4F10827A
:101E20006091150470E0E091F303F091F40385EF05
:101E300093E009951092150436C084E0809317044E
:101E40001092F2031092F103E091EF03F091F0038E
:101E500009958091F103811105C081E08093F10320
:101E60001092CF03E091F20381E08E0F8093F20392
:101E7000F0E0E153FC4F80818093BB009091F2032E
:101E80008091F103981708F479CF85E88093BC001E
:101E90000AC085EC8093BC001092170404C0109215
:101EA00016040E948C0CFF91EF91BF91AF919F910E
:101EB0008F917F916F915F914F913F912F910F90F3
:101EC0000FBE0F901F9018952091A9013091AA0183
:101ED0002817390708F4C90190938B0080938A0072
:101EE00008952091A9013091AA012817390708F413
:101EF000C901909389008093880008954F925F9262
:101F00006F927F928F929F92AF92BF92CF92DF9209
:101F1000EF92FF920F931F93CF93DF93CDB7DEB76E
:101F200060970FB6F894DEBF0FBECDBF009709F4DF
:101F30006DC38C016091B70170E080E090E00E9479
:101F400091302AE037ED43E25CE30E944631698339
:101F50007A838B839C83F80180809180A280B380F8
:101F6000B7FE08C0B094A09490948094811C911CFA
:101F7000A11CB11CC501B4010E9491306B017C0110
:101F80006091B0017091B10180E090E00E948F30CB
:101F90002B013C0126E636E646E65FE30E94463129
:101FA00029813A814B815C810E9446316D837E8319
:101FB0008F8398879B01AC01C701B6010E94413114
:101FC00087FDCAC0A301920169817A818B819C81BE
:101FD0000E94463169877A878B879C8720E030E0B2
:101FE00040E85FE30E94752F9B01AC01C701B60179
:101FF0000E94E22F87FFB0C06D817E818F8198851E
:102000000E9459306B017C01A5019401261B370BFE
:10201000480B590BAEE3B0E00E94312F4B015C013D
:1020200069857A858B859C850E9459309B01AC011E
:102030002C193D094E095F09C501B4010E94122FF8
:1020400069017A01FFEFCF1ADF0AEF0AFF0A560192
:1020500061E08DE00E943B17C114D10411F480E0CF
:1020600005C08FEFC816D10421F481E00E94281624
:102070008AC0E8E0F8E0E4918E2F90E0FC0131970F
:10208000EE30F10508F062C0E057FF4F0C94673264
:1020900084B5806884BDC7BC76C084B5806284BDC9
:1020A000C8BC71C080918000806880938000D0920D
:1020B0008900C092880067C0809180008062809310
:1020C0008000D0928B00C0928A005DC08091900009
:1020D000806880939000D0929900C092980053C07D
:1020E00080919000806280939000D0929B00C0927B
:1020F0009A0049C080919000886080939000D092AF
:102100009D00C0929C003FC08091C0008068809379
:10211000C0008091C0008F7B8093C000C092CF0030
:1021200032C08091C00080628093C000C092D00015
:102130002AC08091C20088608093C2008091C20052
:102140008B7F8093C200C092D2001DC0E0E8AE1623
:10215000B1040CF08ACF83CFA301920169817A8107
:102160008B819C810E94463120E030E040E85FE3B3
:102170000E94752F9B01AC01C701B6010E9441313D
:1021800087FD6DCF72CF6091B20170E06058710928
:10219000072E000C880B990B0E94913020E030E054
:1021A0004FE753E40E94E72F6B017C016093CA0361
:1021B0007093CB038093CC039093CD0320E030E069
:1021C000A9010E94413187FD1DC0A701960160E071
:1021D00070E080E89FE30E94752F6093C6037093C0
:1021E000C7038093C8039093C90380E090E0A0E800
:1021F000BFE38093C2039093C303A093C403B0933F
:10220000C50323C020E030E0A901C701B6010E9448
:10221000E22F87FF1AC080E090E0A0E8BFE3809340
:10222000C6039093C703A093C803B093C9039C014E
:10223000AD01C701B6010E94762F6093C20370936F
:10224000C3038093C4039093C5039091AF01F80139
:10225000C080D180E280F380892F807491FDEAC034
:10226000811195C01C141D041E041F04E4F5409048
:10227000B0015090B1012091B3013091B4014901F6
:10228000A12CB12C612C712CC301B2010E948F30A2
:102290002091C2033091C3034091C4035091C50300
:1022A0000E9446310E945930681979098A099B09B0
:1022B000A70196010E944332A30192010E94122FAE
:1022C000DA01C901880D991DAA1DBB1DF801808383
:1022D0009183A283B38380E090E00E94710FF801A4
:1022E0008081918146C0C114D104E104F10409F454
:1022F00044C04090B0015090B1018091B3019091E1
:10230000B4014C01A12CB12CF094E094D094C09471
:10231000C11CD11CE11CF11C612C712CC301B20148
:102320000E948F302091C6033091C7034091C803AB
:102330005091C9030E9446310E94593068197909A9
:102340008A099B09A70196010E944332A3019201C9
:102350000E94122FDA01C901880D991DAA1DBB1D0B
:10236000F80180839183A283B3830E94710F80E080
:1023700090E00E94640F2F9A49C180E090E00E9493
:10238000710F80E090E00E94640F2F983FC1E091B0
:10239000B001F091B1011C141D041E041F04DCF4F3
:1023A0004F01969487948091B3019091B401880E67
:1023B000991EA12CB12C2F01612C712CC301B201EB
:1023C000681979098A099B09A70196010E9443327D
:1023D000A301920119C0C114D104E104F10411F167
:1023E0004F01969487948091B3019091B401881A1B
:1023F000990AA12CB12CA5019401C701B6010E9434
:1024000043329F0140E050E00E94122FDA01C901DF
:10241000880D991DAA1DBB1DF80180839183A2839D
:10242000B38303C0CF01969587950E94710F80E01A
:1024300090E0D4C0811133C0F7FC02C02F9A01C0D4
:102440002F988091B3019091B4016C01E12CF12C93
:102450008090B0019090B101A12CB12CF8012081A5
:1024600031814281538157FF07C050954095309587
:1024700021953F4F4F4F5F4FC501B4016C197D0946
:102480008E099F090E944332A50194010E94122FD8
:10249000DA01C9018C0D9D1DAE1DBF1D81C01C142C
:1024A0001D041E041F046CF520E030E040E85FE3EB
:1024B0006091AB017091AC018091AD019091AE0142
:1024C0000E94762F20910401309105014091060170
:1024D000509107010E9446310E9459304B015C0126
:1024E00060910001709101018091020190910301BE
:1024F0000E945930681979098A099B09A701960138
:102500003FC0C114D104E104F10409F44FC020918B
:10251000AB013091AC014091AD015091AE0160E052
:1025200070E080E89FE30E94752F209104013091B4
:10253000050140910601509107010E9446310E9419
:1025400059304B015C0122273327A9012C193D0981
:102550004E095F09609108017091090180910A019B
:1025600090910B012D873E874F87588B0E945930E1
:10257000681979098A099B092D853E854F855889F7
:102580000E9443322091B0013091B10140E050E00F
:102590000E94122FDA01C901880D991DAA1DBB1DC9
:1025A000F80180839183A283B3830BC060910401FF
:1025B0007091050180910601909107010E946030A1
:1025C000CB010E94710F609104017091050180910F
:1025D0000601909107010E946030CB0160960FB612
:1025E000F894DEBF0FBECDBFDF91CF911F910F9149
:1025F000FF90EF90DF90CF90BF90AF909F908F9023
:102600007F906F905F904F900C94640F60960FB620
:10261000F894DEBF0FBECDBFDF91CF911F910F9118
:10262000FF90EF90DF90CF90BF90AF909F908F90F2
:102630007F906F905F904F9008956091A901709185
:10264000AA0180E090E00E948F309B01AC0160E025
:102650007EEF8FEF96E40E94E72F08952F923F922E
:102660004F925F926F927F928F929F92AF92BF92A2
:10267000CF92DF92EF92FF920F931F93CF93DF934E
:10268000CDB7DEB729970FB6F894DEBF0FBECDBF2A
:10269000998788874B012B831D830C831701DF8269
:1026A000CE82042F10E08C819D816C01E12CF12CF5
:1026B000E885F985F7FD2BC0C8019695982F8827E6
:1026C00097958795BF01681B790B072E000C880B27
:1026D000990B0E9491302B013C01C701B6010E9469
:1026E0008F309B01AC01C301B2010E94E72F2B0187
:1026F0003C01C8019695982F8827979587959A83CE
:102700008983EB8190E8E99FB00111242AC0B801C8
:102710007695762F662777956795E885F9856E0F0C
:102720007F1F072E000C880B990B0E9491302B0104
:102730003C01C701B6010E948F309B01AC01C3016F
:10274000B2010E94E72F2B013C0160E86003C00149
:10275000619F900D11249A8389832B816203B001BC
:10276000112488859985681B790B072E000C880B2E
:10277000990B0E9491306B017C01B10180E090E0E7
:102780000E948F309B01AC01C701B6010E94E72F68
:102790006B017C018A149B0408F43FC08E819F81E9
:1027A0008A0D9B1D88169906C0F50C811D810A0DA6
:1027B0001B1D8016910690F4B4016A197B0980E014
:1027C00090E00E948F309B01AC01C301B2010E94D6
:1027D00046310E94593089819A811CC0821993091F
:1027E00088159905E8F48A189B08EE81FF818E1AF6
:1027F0009F0AB401620D731D80E090E00E948F304B
:102800009B01AC01C701B6010E9446310E945930BC
:1028100088859985860F971F05C080E090E002C0EB
:102820008885998529960FB6F894DEBF0FBECDBF77
:10283000DF91CF911F910F91FF90EF90DF90CF909C
:10284000BF90AF909F908F907F906F905F904F90D0
:102850003F902F900895CF92DF92EF92FF920F93C7
:102860001F938B019C014091B0015091B1016A010D
:10287000E12CF12C66277727CB016C197D098E0995
:102880009F0906171707280739074CF0C901B80137
:10289000C016D106E206F30614F4C701B6011F9173
:1028A0000F91FF90EF90DF90CF9008958F929F92BD
:1028B000AF92BF92CF92DF92EF92FF92CF93DF93CE
:1028C0004B015C01EA010E94AF0D6B017C01DE014E
:1028D000A50194010E943C2F0E949130A70196010E
:1028E0000E94463120E030E040E051E40E94463151
:1028F00020E030E040E251E40E94463120E030E048
:1029000040E85BE30E9446310E9459300E942B143C
:1029100090958095709561957F4F8F4F9F4FDF9178
:10292000CF91FF90EF90DF90CF90BF90AF909F90AE
:102930008F9008954F925F926F927F928F929F92A5
:10294000AF92BF92CF92DF92EF92FF92CF93DF933D
:1029500000D000D0CDB7DEB74B015C0157FF02C0FD
:102960004D5F5F4F6A01D594C794D594C7940E9478
:10297000AF0D69837A838B839C839B01AC01C50176
:10298000B4010E94463120E030E040E251E40E9470
:1029900046312B013C0120E030E040E85FE30E943B
:1029A00041310D2C000CEE08FF0818161CF4C7016D
:1029B000B60128C020E030E040E85FEBC301B2017F
:1029C0000E94E22F87FF06C0C701B6010E942B14A8
:1029D000CB011EC0C701B6010E9491309B01AC0122
:1029E000C501B4010E94463129813A814B815C8145
:1029F0000E94463120E030E040E251E40E9446313E
:102A00000E9459300E942B1488279927861B970B08
:102A10000F900F900F900F90DF91CF91FF90EF905C
:102A2000DF90CF90BF90AF909F908F907F906F90EE
:102A30005F904F9008958F929F92AF92BF92CF92E6
:102A4000DF92EF92FF924B015C01BA01550F880BA8
:102A5000990B0E9491306B017C0120E030E0A901CC
:102A6000C501B4010E944131A501940118160CF072
:102A70005058C701B6010E9446316B017C010E948B
:102A8000AF0D9B01AC01C701B6010E94463120E0A9
:102A900030E040E851E40E94463120E030E040E27E
:102AA00051E40E94463120E030E040E05DE30E94C6
:102AB00046310E9459300E942B146B017C0120E0AA
:102AC00030E0A901C501B4010E94413118162CF46F
:102AD000882799278C199D090DC020E030E0A901B5
:102AE000C501B4010E94E22F87FF02C0C60102C0E7
:102AF00080E090E0FF90EF90DF90CF90BF90AF909C
:102B00009F908F900895CF92DF92EF92FF92CF9394
:102B1000DF936B017C01EA0120E030E0A9010E9413
:102B20004131181694F020E030E0A901C701B60148
:102B30000E94E22F87FF3AC020E030E0A901C701E0
:102B4000B6010E94762F6B017C01BE01DD0F880B60
:102B5000990B0E9491309B01AC01C701B6010E9404
:102B600046316B017C010E94AF0D9B01AC01C70196
:102B7000B6010E94463120E030E040E851E40E9476
:102B8000463120E030E040E251E40E94463120E04E
:102B900030E040E05BE30E9446310E9459300E94E1
:102BA0002B1488279927861B970B02C080E090E0A2
:102BB000DF91CF91FF90EF90DF90CF9008958091BB
:102BC0008C0429B1922F9C70892B90E0AC01559513
:102BD00047955595479540938C04409188045091B2
:102BE000890460918A0470918B04FC01ED5AFE4FB8
:102BF0008081082E000C990BAA0BBB0B840F951F2C
:102C0000A61FB71F8093880490938904A0938A0419
:102C1000B0938B0480918704811119C021FF17C0E4
:102C200081E080938704809385048093A70480913A
:102C3000810490918204A0918304B09184048093D4
:102C4000880490938904A0938A04B0938B04089518
:102C5000E8E0F8E04491E9EEF7E09491EAECF7E07F
:102C60002491222309F44DC04423C1F150E0FA011C
:102C70003197EE30F10590F5E256FF4F0C94673234
:102C8000309180003F7703C0309180003F7D3093CA
:102C9000800024C034B53F7702C034B53F7D34BDD9
:102CA0001DC0309190003F7707C0309190003F7D6C
:102CB00003C030919000377F309390000FC0309167
:102CC000C0003F7703C03091C0003F7D3093C0000B
:102CD00005C03091C200377F3093C200E22FF0E090
:102CE000EE0FFF1FE155F84FA591B4912FB7F8945F
:102CF000EC91811103C090959E2301C09E2B9C9363
:102D00002FBF0895E0918D04F0918E040190F08121
:102D1000E02D682F8DE894E00994CF93DF938DE048
:102D20000E948216EC018AE00E9482168C0F9D1F81
:102D3000DF91CF910895009769F0FC010190002088
:102D4000E9F73197AF01481B590BBC018DE894E0BE
:102D50000C94120C80E090E008958F929F92AF92B5
:102D6000BF92EF92FF920F931F93CF93DF93CDB754
:102D7000DEB7A1970FB6F894DEBF0FBECDBF162FFA
:102D8000042F19A2423008F40AE07E0121E2E20E8B
:102D9000F11C802E912CA12CB12C612FA501940146
:102DA0000E94442F029F1019112481E0E81AF108B3
:102DB0001A3014F4105D01C0195CF7011083122F52
:102DC000732FCA01232B242B252B39F7C7010E940F
:102DD0009B16A1960FB6F894DEBF0FBECDBFDF9154
:102DE000CF911F910F91FF90EF90BF90AF909F9068
:102DF0008F900895CF92DF92EF92FF92CF93DF935F
:102E000097FF19C06B017C018DE20E948216EC01D4
:102E100066277727CB016C197D098E099F094AE047
:102E20000E94AD168C0F9D1FDF91CF91FF90EF9008
:102E3000DF90CF9008954AE0DF91CF91FF90EF901F
:102E4000DF90CF900C94AD16CF93DF93BC01990F18
:102E5000880B990B0E94FA16EC010E948D168C0FBC
:102E60009D1FDF91CF910895682F70E080E090E082
:102E70004AE00C94AD16CF93DF9390E0FC01E4524E
:102E8000F84F2491FC01E354F84F8491882361F1B9
:102E900090E0880F991FFC01EF55F84FC591D49130
:102EA000FC01E155F84FA591B491611109C09FB79C
:102EB000F8948881209582238883EC912E230BC07F
:102EC000623061F49FB7F8943881822F8095832314
:102ED0008883EC912E2B2C939FBF06C08FB7F8945C
:102EE000E8812E2B28838FBFDF91CF9108953FB7C4
:102EF000F89480913E0590913F05A0914005B091D6
:102F0000410526B5A89B05C02F3F19F00196A11DCC
:102F1000B11D3FBFBA2FA92F982F8827820F911D6F
:102F2000A11DB11DBC01CD0142E0660F771F881FB6
:102F3000991F4A95D1F70895CF92DF92EF92FF92B1
:102F4000CF93DF936B017C010E947717EB01C114D3
:102F5000D104E104F10479F00E9477176C1B7D0B1A
:102F6000683E7340A0F381E0C81AD108E108F10877
:102F7000C851DC4FECCFDF91CF91FF90EF90DF9005
:102F8000CF9008952FB7F89460913A0570913B0562
:102F900080913C0590913D052FBF08950F931F939D
:102FA0000E94C217609395047093960480939704CF
:102FB00090939804E0918D04F0918E040084F18543
:102FC000E02D8DE894E0099597FF1FC00E94C2177D
:102FD00000919504109196042091970430919804E3
:102FE000DC01CB01801B910BA20BB30B0091910470
:102FF00010919204209193043091940480179107CA
:10300000A207B307B8F28FEF9FEF1F910F910895BA
:10301000FF920F931F93CF93DF9300D000D0CDB7D3
:10302000DEB70E94CE17FC0197FD11C08D329105CD
:1030300091F0C0970A9778F0E0918D04F0918E049A
:103040000680F781E02D8DE894E00995EACF60E0F5
:1030500070E0CB014CC020E030E0A901F12CE13060
:10306000F105F1F0ED32F105C9F0CF01C0970A97F3
:10307000B8F4AAE0B0E00E94312F8F01FF0F220BBD
:10308000330BDC01CB01800F911FA21FB31F9C01EA
:10309000AD01205331094109510902C0FF24F394C5
:1030A000E0918D04F0918E040680F781E02D8DE88B
:1030B00094E029833A834B835C8309950E94CE1761
:1030C000FC01C09729813A814B815C810A9738F2D3
:1030D000E130F10521F2FF2041F066277727CB018F
:1030E000621B730B840B950B02C0CA01B9010F90D0
:1030F0000F900F900F90DF91CF911F910F91FF9044
:1031000008951F920F920FB60F9211242F933F93A1
:103110008F939F93AF93BF9380913A0590913B0516
:10312000A0913C05B0913D053091390523E0230F76
:103130002D3720F40196A11DB11D05C026E8230FEF
:103140000296A11DB11D2093390580933A059093F5
:103150003B05A0933C05B0933D0580913E059091C1
:103160003F05A0914005B09141050196A11DB11DFB
:1031700080933E0590933F05A0934005B093410591
:10318000BF91AF919F918F913F912F910F900FBE63
:103190000F901F901895CF93DF93CDB7DEB7C35430
:1031A000D1090FB6F894DEBF0FBECDBF789484B5B9
:1031B000826084BD84B5816084BD85B5826085BD33
:1031C00085B5816085BD80916E00816080936E00C1
:1031D00010928100809181008260809381008091B3
:1031E0008100816080938100809180008160809364
:1031F0008000809191008260809391008091910085
:103200008160809391008091900081608093900014
:103210008091C10084608093C1008091C100826070
:103220008093C1008091C10081608093C100809132
:10323000C30081608093C3008091C000826080934E
:10324000C0008091C20081608093C20080917A00AA
:10325000846080937A0080917A00826080937A0003
:1032600080917A00816080937A0080917A008068F2
:1032700080937A001092A60181E08093D70080EAC3
:103280008093D80082E189BD09B400FEFDCF61E0E2
:1032900070E080E090E00E949C1780E98093D80065
:1032A0001CE01093E2001092E00010928403109250
:1032B00083031092890310928A0310928B03109259
:1032C0008C0310927E0310927D0310929203109251
:1032D0009303109294031092950310929603109208
:1032E0009703109298031092990342E0BE01615F28
:1032F0007F4F80E090E00E9470068F8598898A3F1A
:10330000910509F4C1C08AEF90E09E878D8742E065
:10331000BE01635F7F4F80E090E00E94410619820A
:103320001A821B821C8244E0BE016F5F7F4F82E0E5
:1033300090E00E94410688E394E09E878D8742E0FA
:10334000BE01635F7F4F86E090E00E94410684E605
:10335000898B41E0BE016F5E7F4F88E090E00E9464
:10336000410641E0BE016F5E7F4F8BE090E00E941E
:10337000410641E0BE016F5E7F4F8CE090E00E940D
:10338000410641E0BE016F5E7F4F80E190E00E9408
:10339000410641E0BE016F5E7F4F8DE090E00E94EC
:1033A000410682E3898B41E0BE016F5E7F4F89E079
:1033B00090E00E94410641E0BE016F5E7F4F8AE0CF
:1033C00090E00E94410641E0BE016F5E7F4F8EE0BB
:1033D00090E00E94410686E4898B41E0BE016F5E69
:1033E0007F4F8FE090E00E9441061E861D8642E0DE
:1033F000BE01635F7F4F81E190E00E9441068FEF45
:1034000097E09E878D8742E0BE01635F7F4F83E137
:1034100090E00E9441068FEF9FE09E878D8742E0FB
:10342000BE01635F7F4F85E190E00E94410680E826
:10343000898B41E0BE016F5E7F4F87E190E00E9483
:10344000410681E0898B41E0BE016F5E7F4F88E1DC
:1034500090E00E94410680E699E0A0E0B0E0898318
:103460009A83AB83BC8344E0BE016F5F7F4F89E1E9
:1034700090E00E944106198B41E0BE016F5E7F4FD4
:103480008DE190E00E94410642E065EB71E086E04C
:1034900090E00E94700644E063EA74E082E090E00D
:1034A0000E94700644E06DE573E089E190E00E94BF
:1034B000700641E067EB71E088E090E00E947006E2
:1034C00041E068E673E089E090E00E94700641E028
:1034D00066E673E08AE090E00E94700641E06BE6E9
:1034E00073E08BE090E00E94700641E06AE673E0D2
:1034F0008CE090E00E94700641E069E673E08DE0A8
:1035000090E00E94700641E067E673E08EE090E094
:103510000E94700641E06CE673E08FE090E00E944C
:10352000700641E065E673E080E190E00E9470067D
:1035300041E062EB71E087E190E00E94700641E0BB
:1035400061E973E088E190E00E94700642E063EB7D
:1035500071E081E190E00E94700642E060EB71E072
:1035600083E190E00E94700642E06BE573E085E144
:1035700090E00E94700641E06FEA71E08DE190E01A
:103580000E9470068FEF9FE09093860380938503DF
:10359000109288031092870390938E0380938D037B
:1035A0001092900310928F039093800380937F0377
:1035B000109282031092810390937A03809379038F
:1035C00010927C0310927B0360915D0370915E0307
:1035D00080915F03909160030E94913020E030E081
:1035E00044EB53E40E94E72F6B017C018091B5010D
:1035F0009091B601BC01990F880B990B0E949130F4
:103600009B01AC01C701B6010E9446310E945930AE
:10361000609350037093510380935203909353032C
:103620006B017C01F594E794D794C794C092810410
:10363000D0928204E0928304F092840462E080E0FD
:103640000E943B1762E081E00E943B1762E082E04B
:103650000E943B1710928704C0928804D09289047C
:10366000E0928A04F0928B0410928C044A9B05C06D
:1036700080918C04816080938C044B9B05C0809169
:103680008C04826080938C04809169008F7C8061BF
:1036900080936900EA9A809169008F7380648093B7
:1036A0006900EB9A60E082E10E943B1760E083E1F1
:1036B0000E943B1760E084E10E943B1760E085E1D7
:1036C0000E943B176E9A5798249A109259031092B1
:1036D00058031092610310926203109263031092D8
:1036E00064031092570310925A0388E191E090937B
:1036F000A8018093A70186EB94E090933605809310
:1037000035058DEE99E09093380580933705279A1B
:103710001091AF01812F0E9499065C019093AA013C
:103720008093A9019093B1018093B0016091B3019E
:103730007091B40180E090E00E948F306B017C01B9
:10374000B50180E090E00E948F309B01AC01C70181
:10375000B6010E94E72F6093AB017093AC01809398
:10376000AD019093AE01012F017010FD05C020E066
:1037700030E04AEF54E404C020E030E04AE754E48B
:10378000609108017091090180910A0190910B01EB
:103790000E944631609308017093090180930A01E9
:1037A00090930B01011105C020E030E04AEF54E492
:1037B00004C020E030E04AE754E4609104017091D5
:1037C000050180910601909107010E9446316093A6
:1037D0000401709305018093060190930701011184
:1037E00005C020E030E04AEF54E404C020E030E0BF
:1037F0004AE754E460910001709101018091020157
:10380000909103010E944631609300017093010181
:103810008093020190930301109280001092810026
:1038200010926F0016BA8091A9019091AA0190930D
:103830008700809386001092890010928800109271
:103840008B0010928A008091AF018274823421F43F
:1038500080918100826003C08091810081608093AB
:1038600081008091AF0180FF09C08091800082605B
:103870008093800080918100806108C080918000E9
:1038800082608093800080918100886180938100B4
:1038900080E090E00E94710F8091800080688093AA
:1038A0008000259A80E090E00E94640F8091800063
:1038B000806280938000269A61E08DE00E943B1731
:1038C00013E081E00E94281664E170E080E090E05F
:1038D0000E949C1780E00E94281664E170E080E05E
:1038E00090E00E949C17115061F7109273031092A0
:1038F0007403109275031092760383E793E00E949D
:103900007E0F8091810490918204A0918304B091F4
:103910008404F8948093880490938904A0938A0483
:10392000B0938B04789482E090E09093720380933C
:1039300071038FEF97E09093560380935503809126
:10394000B201809354030E94771760939A03709397
:103950009B0380939C0390939D030E947717609331
:103960009F047093A0048093A1049093A2040091FB
:103970009E0310919F032091A0033091A1036B013E
:103980007C01C01AD10AE20AF30AC0929B04D092C9
:103990009C04E0929D04F0929E0400919A03109181
:1039A0009B0320919C0330919D036B017C01C01A05
:1039B000D10AE20AF30A40EDC41647E0D406E10456
:1039C000F10410F40C945C2E60939A0370939B03A3
:1039D00080939C0390939D03E2E210925A0380919E
:1039E000580390915903829774F0109259031092E2
:1039F00058031092610310926203109263031092B5
:103A000064031092570380915803909159038230B8
:103A1000910564F4892B09F42C9A809158039091B4
:103A20005903019709F045C02C9843C09C012170AF
:103A3000332780FD3AC099B1991F9927991F909318
:103A40005A0380915703803258F540916103509199
:103A50006203609163037091640301E010E020E071
:103A600030E0082E04C0000F111F221F331F0A94DC
:103A7000D2F7992329F0402B512B622B732B08C0CE
:103A80000095109520953095402351236223732390
:103A900040936103509362036093630370936403E4
:103AA0008F5F80935703769A04C02130310509F463
:103AB00076988091580390915903019690935903F9
:103AC00080935803E15009F088CF809185048823C2
:103AD00019F1F8948091880490918904A0918A0446
:103AE000B0918B047894409181045091820460914C
:103AF000830470918404841B950BA60BB70B409133
:103B0000A3045091A4046091A5047091A604840FAD
:103B1000951FA61FB71F16C0F89480918804909136
:103B20008904A0918A04B0918B0478944091810417
:103B3000509182046091830470918404841B950BDE
:103B4000A60BB70B8093960390939703A0939803CB
:103B5000B09399038091960390919703A091980355
:103B6000B09199038093920390939303A09394034D
:103B7000B09395031091910315FB882780F916FDEA
:103B8000826017FF02C0846025C0813019F58091E2
:103B9000810490918204A0918304B09184046C010B
:103BA0007D01C094D094E094F0949C01AD012C1957
:103BB0003D094E095F096091890370918A038091E4
:103BC0008B0390918C030E9443322FEF3FEF40E034
:103BD00050E04AC0823099F44091810450918204AF
:103BE00060918304709184046A017B01C094D09435
:103BF000E094F094A0918303B091840329C08330B2
:103C000099F44091810450918204609183047091F1
:103C100084046A017B01C094D094E094F094A09154
:103C20007D03B0917E0314C0843061F5409181041E
:103C30005091820460918304709184046A017B0135
:103C4000C094D094E094F094A0917703B09178035D
:103C50009A01AB012C193D094E095F090E943C2FC6
:103C60002FEF3FE040E050E00E94122FC20ED31E23
:103C7000E41EF51EC0929203D0929303E092940347
:103C8000F09295038090920390909303A0909403F8
:103C9000B09095038091A8049091A904A091AA04E2
:103CA000B091AB048092A8049092A904A092AA04B7
:103CB000B092AB042091B004222309F449C00091D2
:103CC000D90454E0059F90011124B90168557B4F38
:103CD0007B01A5019401281B390B4A0B5B0BCA0120
:103CE000B9010E949130D70119966D937D938D9300
:103CF0009C931C97F02E3AE0E32E60E070E0CB013D
:103D0000B4E0FB9EF0011124E855FB4F218532857C
:103D1000438554850E94762FFF2011F0FA9402C04B
:103D200029E0F22EEA94E110EBCF20E030E040E20F
:103D300051E40E94E72F0F5F0A3018F40093D90472
:103D400002C01092D90468A37CA78DA79EA70FC0BC
:103D500081E08093B0041092AC041092AD041092F4
:103D6000AE041092AF0418A21CA61DA61EA6209198
:103D7000DA043091DB044091DC045091DD0488A129
:103D80009CA5ADA5BEA58093DA049093DB04A09317
:103D9000DC04B093DD048091E204882309F444C07C
:103DA00000913305E4E00E9FC0011124BC016F5463
:103DB0007B4F7B0168A17CA5CD010E94752FD701A7
:103DC000D2966D937D938D939C93D597F02EB4E10D
:103DD000EB2E60E070E0CB01B4E0FB9EF00111241B
:103DE000EF54FB4F22A933A944A955A90E94762F6D
:103DF000FF2011F0FA9402C0A3E1FA2EEA94E11038
:103E0000EBCF20E030E040EA51E40E94E72F0F5F63
:103E1000043118F40093330502C0109233056BABE4
:103E20007CAB8DAB9EAB0FC081E08093E20410921F
:103E3000DE041092DF041092E0041092E1041BAA49
:103E40001CAA1DAA1EAA80913405882359F110FFCF
:103E500044C70E941D139B01AC0160E070E080E04C
:103E600094E40E94E72F6B017C0160916C0370E089
:103E700080E090E00E9491309B01AC01C701B60147
:103E80000E94463120E030E048EC52E40E94E72FE7
:103E90000E945930AB01C501B4010E9456142B0198
:103EA0003C011EC7ECEBF1E0FB8FEA8F1B8A1A8AFC
:103EB000412C512C32010A891B890F5F1F4F1B8B2C
:103EC0000A8B4EE19801429F8001439F100D1124FF
:103ED00008511E4FD8018C918370833009F0F0C6D1
:103EE0000E941D136B017C01F80121853285A78991
:103EF000B08D0E946D322FEF3FE740E050E00E940E
:103F0000122FCA01B9010E949130A70196010E94A7
:103F1000E72F0E9459309B01AC01D8011B968D916F
:103F20009C911C97059730F4E4E0F0E01C96FC931C
:103F3000EE931B97FEE1EF2ECA88DB88EC9CF00124
:103F4000ED9CF00D1124E851FE4FE1818E2F90E0A1
:103F5000FC013197ED30F10508F09CC6EA5AFF4F9D
:103F60000C9467320E941D136E8B7F8B888F998F04
:103F70002EE10A891B89209FC001219F900D1124E9
:103F8000AC0148515E4F1A01DA0119968D909C9050
:103F90001A975596AD90BC9056971F96CD90DC9091
:103FA00050975196ED90FC90529753960D911C911D
:103FB000549714962C91149713964C9113975796E7
:103FC0008D919C915897EA8DFB8D608171810E9443
:103FD0002E139401DC010E946D322FEF3FE740E089
:103FE00050E00E94122FCA01B9010E9491302E891F
:103FF0003F89488D598D0E94E72F0E9459300E94B9
:104000002B149B01AC01A0916B03B0E00E94312FF7
:1040100024E630E040E050E00E94122F421A530A9A
:10402000640A750A7EC10E941D136E8B7F8B888F78
:10403000998F6EE1E62ECA88DB88EC9CF001ED9C3E
:10404000F00D1124E851FE4F018512851D8F0C8F54
:10405000C588D688DDA2CCA2E784F088F9A6E8A6B8
:104060000189128918AB0FA7038914891FAF0EAFFE
:1040700084809380AA8DBB8D2D903C9007851089FC
:104080006085A7800A2C000CBB08062E000C770B5D
:104090006A197B09CB01770FAA0BBB0B6627782F18
:1040A000892F9A2F0E9491306B017C01B80180E02A
:1040B00090E00E948F3020E030E04AE754E40E9414
:1040C000E72F9B01AC01C701B6010E94E72F6B01EE
:1040D0007C01C101B8010E945332BC0180E090E034
:1040E0000E948F3020E030E04AE754E40E94E72F3E
:1040F0009B01AC01C701B6010E9446310E945930B4
:10410000BA2CAA24C501860F971FACA0BDA0C8A4D5
:10411000D9A4EFA4F8A80EAD1FAD282D492DB101EB
:104120000E942E132C8D3D8DDC010E946D322FEFED
:104130003FE740E050E00E94122FCA01B9010E94FF
:1041400091302E893F89488D598D0E94E72F0E941A
:1041500059300E942B14461A570A680A790A9AC5E0
:104160000E941D136C8F7D8F8E8F9F8F5EE1C52EF9
:10417000EA89FB89CE9EC001CF9E900D11248C014F
:1041800008511E4F1801D80119960D90BC91A02D11
:10419000BDA3ACA3F801038CF48DE02DF9A7E8A72B
:1041A000D8015D96BC91BFA7F80183849484A5884B
:1041B000B688C784D088E188F2880389148924816D
:1041C0004381AA8DBB8D0D90BC91A02DBF8BAE8B72
:1041D0008789908DBD010E942E138C01B40180E06F
:1041E00090E00E948F3020E030E04AE754E40E94E3
:1041F000E72F9B01AC0160E070E080E89FE30E9444
:10420000E72F6B017C018E899F89B4010E94533294
:10421000BC0180E090E00E948F3020E030E04AE76F
:1042200054E40E94E72F9B01AC01C701B6010E9434
:1042300046316B017C01BFA56B2F70E080E090E000
:104240000E948F3020E030E040E85BE30E9446317E
:104250009B01AC01C701B6010E94762F2BED3FE018
:1042600049EC50E40E9446310E94B3319B01AC01FD
:10427000E8A5F9A56F01FF0FEE08FF08B801110FBF
:10428000880B990B21962FAF219724963FAF249747
:1042900022964FAF229723965FAF23970E949130CB
:1042A00021962FAD219724963FAD249722964FADAE
:1042B000229723965FAD23970E9446310E94593082
:1042C000CB01770FAA0BBB0BA7019601280F391F53
:1042D0004A1F5B1FACA1BDA10E94312F2FEF3FE70A
:1042E00040E050E00E94122FCA01B9010E949130B3
:1042F0002C8D3D8D4E8D5F8D0E94E72F0E94593091
:104300009B01AC01A0916A03B0E00E94312F24E62A
:1043100030E040E050E00E94122F420E531E641E17
:10432000751ED10116968C91169782FFB3C41D9607
:104330006D917C911E9780E090E00E948F302BED74
:104340003FE049EC50E40E94463120E030E040E09C
:1043500058E30E9446310E94B3319B01AC01C30176
:10436000B20121962FAF219724963FAF2497229632
:104370004FAF229723965FAF23970E9491302196EB
:104380002FAD219724963FAD249722964FAD2297CB
:1043900023965FAD23970E9446310E9459302B012E
:1043A0003C0178C40E941D136C8F7D8F8E8F9F8F70
:1043B0004EE1E42ECA88DB88EC9CF001ED9CF00D08
:1043C0001124E851FE4F018512851DA30CA3238DF6
:1043D000348DA901330F660B770B48A759A76AA73D
:1043E0007BA7558D5FA723843484A588B688C784AE
:1043F000D088E188F2880389148924814381AA8DB9
:10440000BB8D0D90BC91A02DBF8BAE8B8789908DFD
:10441000BD010E942E13BC01990F880B990B0E94BD
:1044200091304B015C01B10180E090E00E948F303F
:1044300020E030E04AE754E40E94E72F9B01AC0102
:1044400060E070E080E89FE30E94E72F6B017C0151
:104450008E899F89B1010E945332BC0180E090E0B7
:104460000E948F3020E030E04AE754E40E94E72FBA
:104470009B01AC01C701B6010E9446316B017C0172
:10448000BFA56B2F70E080E090E00E948F3020E0AD
:1044900030E040E85BE30E9446319B01AC01C7017C
:1044A000B6010E94762F2BED3FE049EC50E40E94CC
:1044B00046310E94B3316B017C0120E030E0A9015C
:1044C0000E94413187FF0CC020E030E0A901C70104
:1044D000B6010E94E22F87FF05C0EFEFEFAB02C0ED
:1044E000F1E0FFABCFA86C2DCC0C770B880B990BB0
:1044F0000E9491309B01AC01C501B4010E9446317C
:104500000E945930CB01770FAA0BBB0BDDC10E9473
:104510001D136CA37DA38EA39FA30EE1EA88FB88E5
:104520000E9DF0010F9DF00D1124E851FE4F2185E5
:10453000328539A728A7238D348DA901330F660B47
:10454000770B4FA758AB69AB7AAB358D6385748514
:104550007F8B6E8BA588B688C784D088E188F28867
:104560000389148924814381AA8DBB8D0D90BC9150
:10457000A02DBD8FAC8F8789908DBD0124963FAF54
:1045800024970E942E131C01EE89FF89BF0180E051
:1045900090E00E948F304B015C0124963FAD249740
:1045A00060E4630F70E080E090E00E948F3020E0D4
:1045B00030E040E85BE30E944631A50194010E948F
:1045C00046310E9460308C8D9D8D860F971F6E89BD
:1045D0007F890E9453328C01BC0180E090E00E94F0
:1045E0008F3020E030E04AE754E40E94E72F6B016F
:1045F0007C0120E030E0A9010E94413187FD3CC0F0
:1046000020E030E04AE754E4C501B4010E94E72FFE
:104610006C8F7D8F8E8F9F8F20E030E040E05FE3D6
:104620000E9446319B01AC01C701B6010E94E22FF6
:1046300087FF22C0B101032C000C880B990B0E944C
:10464000913020E030E040E850E40E9446312C8D6B
:104650003D8D4E8D5F8D0E94E72FA70196010E9430
:1046600046310E9459303194219431086101C60EBF
:10467000D71ED9AEC8AE51C020E030E04AE754E4BE
:10468000C501B4010E94E72F4B015C0120E030E03E
:1046900040E05FE30E9446319B01AC01C701B601D7
:1046A0000E94413187FD39C0A5019401C701B601BF
:1046B0000E94E22F87FF31C0B101032C000C880B50
:1046C000990B0E94913020E030E040E850EC0E94CD
:1046D0004631A50194010E94E72F6B017C018E8970
:1046E0009F8996958795B801681B790B80E090E0CB
:1046F0000E948F3020E030E04AE754E40E94E72F28
:104700009B01AC01C701B6010E9446310E9459309D
:104710007101E60EF71EF9AEE8AE08AD19ADC8019D
:10472000110FAA0BBB0B2FA538A949A95AA9280F0D
:10473000391F4A1F5B1FA8A5B9A50E94312F2FEF73
:104740003FE740E050E00E94122FCA01B9010E94E9
:1047500091302CA13DA14EA15FA10E94E72F0E94A4
:1047600059309B01AC01A0916A03B0E00E94312F47
:1047700024E630E040E050E00E94122F420E531E2B
:10478000641E751E87C20E941D136C8F7D8F8E8FD5
:104790009F8F4EE12A893B89429FF001439FF00D94
:1047A0001124E851FE4F618572857DA36CA3238D92
:1047B000348DC901330FAA0BBB0B88A799A7AAA7F1
:1047C000BBA7358D23843484A588B688C784D08858
:1047D000E188F2880389148924814381AA8DBB8DE5
:1047E0008D909C908789908DB40124963FAF24973B
:1047F0000E942E139F8B8E8BB10180E090E00E946F
:104800008F306B017C0124963FAD249760E8630FE5
:1048100070E080E090E00E948F3020E030E040E8DF
:104820005BE30E944631A70196010E9446310E9437
:104830006030C401860F971FB1010E9453328C0172
:1048400082159305D8F5EE89FF89BF01FF0F880B0C
:10485000990B0E9491309B01AC010E94762F4B0175
:104860005C0120E030E04AE754E4C701B6010E9451
:10487000E72F9B01AC01C501B4010E94E72F6B013A
:104880007C01B80180E090E00E948F3020E030E0B1
:104890004AE754E40E94E72F9B01AC01C701B6012F
:1048A0000E9446310E9459302E893F8931952195C9
:1048B00031096901C60ED71EDBAECAAEEAACFBAC4D
:1048C000C701FF0CAA0BBB0B28A539A54AA55BA500
:1048D000280F391F4A1F5B1FACA1BDA10E94312FB9
:1048E0002FEF3FE740E050E00E94122FCA01B901CC
:1048F0000E9491302C8D3D8D4E8D5F8D2ECF0E946C
:104900001D136C8F7D8F8E8F9F8F2EE10A891B89DF
:10491000209FF001219FF00D1124E851FE4F4185A9
:1049200052855DA34CA3238D348DB901330F880BC1
:10493000990B68A779A78AA79BA7358D2384348410
:10494000A588B688C784D088E188F288038914894D
:1049500024814381AA8DBB8D8D909C908789908DF9
:10496000B40124963FAF24970E942E139F8B8E8B09
:10497000B10180E090E00E948F306B017C012496B1
:104980003FAD249760E8630F70E080E090E00E9404
:104990008F3020E030E040E85BE30E944631A70121
:1049A00096010E9446310E946030C401860F971F15
:1049B000B1010E9453328C0182159305D0F56E89A6
:1049C0007F89719561957109072E000C880B990BF1
:1049D0000E9491309B01AC010E94762F4B015C013B
:1049E00020E030E04AE754E4C701B6010E94E72F17
:1049F0009B01AC01C501B4010E94E72F6B017C0152
:104A0000B80180E090E00E948F3020E030E04AE77B
:104A100054E40E94E72F9B01AC01C701B6010E943C
:104A200046310E945930EE89FF89E60FF71FFDAF2E
:104A3000ECAFCCACDDACC601DD0CAA0BBB0B44CF9C
:104A40000EE1EA88FB880E9DF0010F9DF00D112408
:104A5000E851FE4F038D148DA0916903B0E00E94D0
:104A6000312F20E436E040E050E00E94122F69012F
:104A70007A01209181043091820440918304509105
:104A80008404D8010E943C2FDC01CB012FE0B595B6
:104A9000A795979587952A95D1F7092E000CAA0B13
:104AA000BB0B4091920350919303609194037091DA
:104AB00095038A019B01081B190B2A0B3B0BC901AB
:104AC000B801A6010E945614460E571E681E791E94
:104AD000E1C08EE16A897B89869FF001879FF00D96
:104AE0001124E851FE4F038D148DA0916803B0E0AE
:104AF0000E94312F24E630E040E050E00E94122F67
:104B000069017A01B801110F880B990B0E9491304D
:104B10002AE939EC4CEC54E40E94E72F9B01AC01EC
:104B200068A17CA58DA59EA50E94752FA6010E9457
:104B3000831562C00EE1C02EAA89BB89CA9EF0010E
:104B4000CB9EF00D1124E851FE4F038D148DA091E2
:104B50006703B0E00E94312F24E630E040E050E0EF
:104B60000E94122F69017A01B801110F880B990B6D
:104B70000E94913020E03EEF4FEF56E40E94E72F75
:104B80009B01AC016BA97CA98DA99EA90E94752FE0
:104B9000A6010E941B1530C00EE1EA88FB880E9D1D
:104BA000F0010F9DF00D1124E851FE4F038D148D7F
:104BB000A0916603B0E00E94312F24E630E040E08F
:104BC00050E00E94122F69017A01B801110F880B81
:104BD000990B0E9491302AE939EC4CEC54E40E9484
:104BE000E72F9B01AC0168A17CA58DA59EA50E9425
:104BF000752FA6010E949A14092E000CAA0BBB0B5C
:104C0000480E591E6A1E7B1E45C00E941D139B0143
:104C1000AC018EE16A897B89869FF001879FF00D48
:104C20001124E851FE4F838D948DBC01990F880BA0
:104C3000990B21962FAF219724963FAF2497229668
:104C40004FAF229723965FAF23970E949130219612
:104C50002FAD219724963FAD249722964FAD2297F2
:104C600023965FAD23970E94E72F0E9459300E9440
:104C70002B149B01AC01A0916A03B0E00E94312F7C
:104C800024E630E040E050E00E94122F421A530A1E
:104C9000640A750A0E94C2170091B8011091B90107
:104CA0002091BA013091BB01DC01CB01801B910B3B
:104CB000A20BB30BEA8DFB8D80839183A283B38318
:104CC0000A8D1B8D0C5F1F4F1B8F0A8F2A893B8912
:104CD0002B30310509F0EFC803C0412C512C3201B3
:104CE0001091910311FF3DC00E941D139B01AC0167
:104CF000E091680367E471E0E69FC001E79F900DD3
:104D00001124BC0180E090E021962FAF21972496DA
:104D10003FAF249722964FAF229723965FAF2397FA
:104D20000E94913021962FAD219724963FAD249774
:104D300022964FAD229723965FAD23970E94E72FCF
:104D40000E945930AB0168A17CA58DA59EA50E944B
:104D50008315092E000CAA0BBB0B480E591E6A1EA8
:104D60007B1E12FF3DC00E941D139B01AC01E09110
:104D7000670367E471E0E69FC001E79F900D11248F
:104D8000BC0180E090E021962FAF219724963FAFA1
:104D9000249722964FAF229723965FAF23970E94C6
:104DA000913021962FAD219724963FAD24972296DE
:104DB0004FAD229723965FAD23970E94E72F0E9465
:104DC0005930AB016BA97CA98DA99EA90E941B1526
:104DD000092E000CAA0BBB0B480E591E6A1E7B1E27
:104DE00013FF3DC00E941D139B01AC01E0916603BF
:104DF00067E471E0E69FC001E79F900D1124BC01BC
:104E000080E090E021962FAF219724963FAF249722
:104E100022964FAF229723965FAF23970E9491303F
:104E200021962FAD219724963FAD249722964FAD22
:104E3000229723965FAD23970E94E72F0E94593057
:104E4000AB0168A17CA58DA59EA50E949A14092E90
:104E5000000CAA0BBB0B480E591E6A1E7B1E40910C
:104E60008104509182046091830470918404809144
:104E7000920390919303A0919403B0919503CC2455
:104E8000DD247601C41AD50AE60AF70A8C159D05B9
:104E9000AE05BF0534F0481759076A077B070CF0C9
:104EA00045C0B7FD05C0841B950BA60BB70B04C00E
:104EB000840F951FA61FB71F8093920390939303AF
:104EC000A0939403B09395030E941D139B01AC0122
:104ED00060E07EEF8FEF96E40E94E72F6B017C018C
:104EE0006091650370E080E090E00E9491309B014A
:104EF000AC01C701B6010E94463120E030E048EC29
:104F000052E40E94E72F0E9459306B017C016091AE
:104F10009203709193038091940390919503A6015D
:104F20000E945614460E571E681E791EA091B701A6
:104F3000B0E0A30192010E94312F24E630E040E06E
:104F400050E00E94122FCA01B9010E942B146B017C
:104F50007C0114FF04C00E94FA160E948D16C092B4
:104F60007303D0927403E0927503F092760360911C
:104F700096037091970380919803909199030E94F2
:104F800091306B017C0160915003709151038091CD
:104F90005203909153030E9491309B01AC0160E059
:104FA0007FEF8FE797E40E94E72F9B01AC01C701D9
:104FB000B6010E9446310E9459302B013C01611517
:104FC00070488105910534F044244A941FE7512E1E
:104FD000612C712C411440E854064FEF64067406AE
:104FE00034F4412CB0E85B2E66246A94762C40920F
:104FF000960350929703609298037092990383E707
:1050000093E00E947E0FC0908303D0908403DB8ED8
:10501000CA8E8091850390918603C816D90624F420
:10502000D0928603C0928503809187039091880374
:10503000EA8CFB8C8E159F0524F4F0928803E09295
:1050400087030091890310918A0320918B0330918B
:105050008C0308A319A32AA33BA380918D039091ED
:105060008E03092E000CAA0BBB0B081719072A0781
:105070003B0724F410938E0300938D0380918F03DC
:1050800090919003092E000CAA0BBB0BC8A0D9A0CD
:10509000EAA0FBA08C159D05AE05BF0524F4D092B7
:1050A0009003C0928F0320917D0330917E03809105
:1050B0007F03909180032817390724F430938003ED
:1050C00020937F038091810390918203821793073D
:1050D00024F430938203209381030091770310918D
:1050E00078038091790390917A030817190724F4C3
:1050F00010937A030093790380917B0390917C0352
:105100008017910724F410937C0300937B03209075
:10511000710330907203C0908503D0908603C20C57
:10512000D31CE12CF12C80907F0390908003820CA3
:10513000931CA12CB12CC901330FAA0BBB0B9C01F2
:10514000AD01281939094A095B09AFEFBFE00E9498
:10515000312F20918103309182032219330940E0DD
:1051600050E0281939094A095B090E94122F2A8B3D
:105170003B8B4C8B5D8B8090790390907A03820CF3
:10518000931CA12CB12CC801110FAA0BBB0B9C01C5
:10519000AD01281939094A095B09AFEFBFE00E9448
:1051A000312F20917B0330917C032219330989012F
:1051B00020E030E0A9019801281939094A095B0962
:1051C0000E94122F49015A010A8D1B8DC801110F2F
:1051D000AA0BBB0B9C01AD012C193D094E095F09BF
:1051E000AFEFBFE00E94312F2091870330918803F9
:1051F00022193309890120E030E0A90198012C1916
:105200003D094E095F090E94122F8901011520E115
:10521000120714F00FEF1FE017FF02C000E010E0CC
:105220001093840300938303CA88DB88C11420E1B0
:10523000D20624F04FEF5FE05B8B4A8BCA88DB8895
:10524000D7FE02C01B8A1A8AEA88FB88F0927E0386
:10525000E0927D03811420E1920624F088248A9450
:10526000AFE09A2E97FE02C0812C912C9092780389
:1052700080927703C0908D03D0908E03C20CD31C14
:10528000E12CF12C28A139A14AA15BA12C193D09DF
:105290004E095F09AFEFBFEF0E94312F20918F03BE
:1052A000309190032219330940E050E02C193D0958
:1052B0004E095F090E94122F2115310561E0460752
:1052C000510524F02FEF3FEF40E050E057FF03C0BF
:1052D00020E030E0A9012093890330938A034093B2
:1052E0008B0350938C03C0906103D0906203E090D5
:1052F0006303F09064039C2D9F70913081F0923095
:1053000081F0943081F0983081F0933081F09630C4
:1053100081F0993081F09C3081F060E00FC061E055
:105320000DC063E00BC065E009C067E007C062E044
:1053300005C064E003C068E001C066E0D701C601B3
:10534000807F8E8B9F8BA88FB98F862B80936D0368
:1053500090936E03A0936F03B0937003B2017058E3
:1053600069837A832B833C830D832A892295207F4E
:10537000212B2E834A885B8824E0569447942A95F3
:10538000E1F74F828886282F2295207F29292987B7
:10539000AC01BD0134E076956795579547953A95F0
:1053A000D1F74A87AC01BD01ECE07695679557953A
:1053B0004795EA95D1F74B87F4E1B695A795979570
:1053C0008795FA95D1F78C874CE050E0BE016F5F6E
:1053D0007F4F84E00E94CC0980919B0490919C04B3
:1053E000A0919D04B0919E0480319742A105B10522
:1053F00008F462C48DE894E00E947F0C1816190628
:105400000CF04AC48DE894E00E94450CE82F8FE927
:105410008E0F8A3108F4E0528E2F90E0FC01E154A7
:10542000F109EA31F10508F037C4ED59FF4F0C944A
:1054300067326091B5017091B601072E000C880BA0
:10544000990B0E94FA1680E20E9482168091B701A1
:105450000E94341780E20E948216809168030E94A5
:10546000341780E20E948216809166030E943417EE
:1054700080E20E94821680916B030E94341780E2C2
:105480000E94821680916A030E94341780E20E9473
:105490008216809169030E94341780E20E9482166E
:1054A000809167030E94341780E20E9482168091E7
:1054B0006C030E94341780E20E948216809165037B
:1054C0000E94341780E20E9482166091B3017091AD
:1054D000B40180E090E04AE00E94AD1680E20E94B4
:1054E00082168091B2010E94341780E20E948216D7
:1054F000809191030E94341780E20E94821660918D
:10550000B0017091B10180E090E04AE00E94AD16D8
:1055100080E20E94821660915D0370915E0380912B
:105520005F03909160030E94FA1680E20E94821647
:105530006091AF0170E0BEC283E991E00E949B16CA
:105540006AEF70E080E090E00E94FA1688E991E04E
:105550000E949B168AE991E00E949B168CE991E0DB
:105560000E949B168EE991E00E949B1680EA91E0D2
:105570000E949B1682EA91E00E949B168DC3809147
:10558000A704082E000C990B85C3F8948091880419
:1055900090918904A0918A04B0918B047894198227
:1055A0001A821B821C82F894C0908804D0908904CF
:1055B000E0908A04F0908B0478948091B0019091EF
:1055C000B1012091B3013091B401821B930B9695E8
:1055D000879596958795A0E0B0E089839A83AB8301
:1055E000BC83CE0101960E947E0F1EEFF89440917D
:1055F00088045091890460918A0470918B04789496
:1056000080918504882351F019821A821B821C82A2
:10561000CE0101960E947E0F81E024C09A01AB0169
:105620002C193D094E095F09A091B501B091B60151
:105630000E943C2F2091500330915103409152031E
:10564000509153030E94122F2836314041055105D5
:1056500064F019821A821B821C82CE0101960E947C
:105660007E0F83E08093A70413C362E370E080E0C1
:1056700090E00E949C17115009F0B8CF09C30E9416
:105680000818611101C061E06093B20101C38FEF9E
:105690009FE0909386038093850310928803109275
:1056A000870390938E0380938D0310929003109242
:1056B0008F039093800380937F0310928203109254
:1056C000810390937A038093790310927C03109264
:1056D0007B03DEC2F8944090880450908904609067
:1056E0008A0470908B047894809181049091820454
:1056F000A0918304B0918404481A590A6A0A7B0A6B
:105700008091A3049091A404A091A504B091A60453
:10571000480E591E6A1E7B1E0E94081864307105CF
:10572000810591057CF06B017C01613C77428940E9
:1057300091056CF010ECC12E17E2D12E19E0E12E8C
:10574000F12C05C0B4E0CB2ED12CE12CF12CC98278
:10575000DA82EB82FC826091B5017091B601072E6E
:10576000000C880B990B0E9491304B015C01C30126
:10577000B2010E949130A50194010E9446312B0193
:105780003C016091500370915103809152039091BC
:1057900053030E9491309B01AC01C301B2010E94EE
:1057A000E72F2B013C01C0925D03D0925E03E09293
:1057B0005F03F0926003C701B601ABC08091810422
:1057C00090918204A0918304B0918404F894409154
:1057D00088045091890460918A0470918B047894B4
:1057E000841B950BA60BB70B8093A3049093A40482
:1057F000A093A504B093A6044BC21092A3041092E8
:10580000A4041092A5041092A60444E063EA74E094
:1058100082E090E0CBC1F894809088049090890455
:10582000A0908A04B0908B04789480918104909128
:105830008204A0918304B0918404881A990AAA0A68
:10584000BB0A8091A3049091A404A091A504B091F7
:10585000A604880E991EAA1EBB1E0E9408186E314F
:1058600071058105910574F06B017C016930774009
:105870008105910564F0A8E0CA2EA7E0DA2EE12C9C
:10588000F12C05C0FEE1CF2ED12CE12CF12CC982E8
:10589000DA82EB82FC82C501B4010E9491304B0197
:1058A0005C016091B5017091B601072E000C880B68
:1058B000990B0E9491309B01AC01C501B4010E947B
:1058C00046314B015C01609150037091510380910E
:1058D0005203909153030E9491309B01AC01C5018A
:1058E000B4010E94E72F2B013C01D092B601C09277
:1058F000B501B601DD0C880B990B0E9491304B016C
:105900005C0160915D0370915E0380915F039091F3
:1059100060030E94913020E030E044EB53E40E94A9
:10592000E72FA50194010E9446310E9459306093EF
:1059300050037093510380935203909353036B0170
:105940007C01F594E794D794C794C0928104D092D7
:105950008204E0928304F09284040E9491309B01BF
:10596000AC01C301B2010E944631A50194010E941D
:10597000E72F0E945930C60ED71EE81EF91E8091EF
:10598000A3049091A404A091A504B091A604C81A00
:10599000D90AEA0AFB0AF894C0928804D0928904D2
:1059A000E0928A04F0928B04789472C10E940818E5
:1059B000262F6091910380E090E030E0F901082EFD
:1059C00002C0F595E7950A94E2F7C12CD12C760137
:1059D000C394082E04C0CC0CDD1CEE1CFF1C0A94E2
:1059E000D2F7E0FF02C06C2902C0C0946C2101967E
:1059F0008830910519F76093910370E080E090E0A2
:105A000042E00E94AD160E948D1646C10E94081801
:105A10008091AF0120E030E070E0AB01022E02C0C7
:105A2000559547950A94E2F7C12CD12C7601C39481
:105A3000022E04C0CC0CDD1CEE1CFF1C0A94D2F715
:105A400040FF02C08C2902C0C0948C212F5F3F4FC1
:105A50002830310511F78093AF0141E06FEA71E022
:105A60008DE190E00E9441068091AF010E9499066D
:105A7000BC0180E090E00E948F302091AB0130911A
:105A8000AC014091AD015091AE010E9446310E949F
:105A9000593069837A838B839C8344E0BE016F5FB6
:105AA0007F4F81E190E00E9441068091AF010E940A
:105AB0009906BC0180E090E04AE0A3CF80E090E04E
:105AC000E9C042E065EB71E086E090E00E944106AB
:105AD00044E063EA74E082E090E00E94410644E022
