:100000000C940E040C9436040C948E070C94AC07DC
:100010000C949D070C9436040C9436040C9436040E
:100020000C9436040C9436040C94F50A0C9498083D
:100030000C9436040C9436040C9436040C94360458
:100040000C9436040C9436040C9436040C94360448
:100050000C9436040C9436040C9436040C94D91A7F
:100060000C9436040C9436040C9436040C94360428
:100070000C9436040C9436040C9436040C94360418
:100080000C9436040C9436040C9436040C94360408
:100090000C9422100C9436040C9436040C94360400
:1000A0000C9436040C9436040C9436047121D2213D
:1000B00091236F22462441268225E2262B275C27A6
:1000C0008E270C28C727A22ED52C652D862F172EFC
:1000D000132F702D9F2E862F862F862F862F862FEB
:1000E000862F002DDD2C862F852C7F2C862FD52B5F
:1000F000582C472E862F9F2E9F2E4D2F522F2F2F5D
:10010000342F862F392F2A2F862F482F572F862FAF
:10011000862F432F862F862F862F862F862F3E2FC2
:10012000911296129B12A512EF12EF12EF12AF125C
:10013000B912C312CD12DA12EF12E2120E1A111A0C
:10014000041A081A321A321A321A151A191A1D1AF2
:10015000231A271A321A2D1A05A84CCDB2D44EB93B
:100160003836A9020C50B9918688083CA6AAAA2A5A
:10017000BE000000803F00000000000000002A2BAD
:100180002800000000000000000000000000000047
:100190000000000000002C9EB4A0A1A2A434A6A7D9
:1001A000A5AE362D3738271E1F20212223242526D1
:1001B000B333B62EB7B89F8485868788898A8B8C9F
:1001C0008D8E8F909192939495969798999A9B9CE7
:1001D0009D2F3130A3AD350405060708090A0B0C25
:1001E0000D0E0F101112131415161718191A1B1CC7
:1001F0001DAFB1B0B500080B0002020201000904F6
:100200000000010202000005240010010524010184
:1002100001042402060524060001070581031000DD
:100220004009040100020A00000007050202400024
:1002300000070583024000000904020002030000D9
:100240000009210101000122E104070584034000A7
:10025000010705050340000105010904A10185040A
:100260000901A1000930170000000027FFFF00006E
:10027000350047FFFF000075109501810209311616
:10028000000027FFFF0000350047FFFF000075104A
:1002900095018102093216000027FF0F000035008A
:1002A00047FF0F0000750C9501810209331600000D
:1002B00027FF0F0000350047FF0F0000750C950168
:1002C0008102093416000027FF0F0000350047FFA8
:1002D0000F0000750C9501810209391501250835BB
:1002E00000463B016514550075049501810205091E
:1002F000150025015500650019012918750195188B
:10030000810285F10901150026FF00953F750891CE
:100310008285F20901953F75088182C0050F099217
:10032000A1028502099F09A009A409A509A6150033
:10033000250135004501750195058102950381036D
:1003400009941500250135004501750195018102CB
:1003500009221501252835014528750795018102D7
:10036000C00921A102850109221501252835014571
:10037000287508950191020925A102092609270976
:100380003009310932093309340940094109420968
:1003900043250B15013501450B750895019100C0EA
:1003A00009500954150027FFFF0000350047FFFFE3
:1003B000000066011055FD7510950291025500660A
:1003C00000000952150026FF7F350046FF7F75109B
:1003D0009501910209531501250835014508750855
:1003E000950191020955A102050109300931150055
:1003F0002501750195029102C0050F0956950191DD
:1004000002950591030957A1020B01000A000B0296
:10041000000A0066140055FE150026FF7F350047D0
:100420009F8C00007510950191025500660000C078
:10043000050F09A766011055FD150027FFFF0000F5
:10044000350047FFFF00007510950191026600001E
:100450005500C0050F095AA1028502092215012580
:100460002835014528750895019102095B095D153C
:100470000026FF00350046FF7F75089502910209AE
:100480005C095E66011055FD26FF7F46FF7F7510F3
:10049000950291026600005500C0095FA102850324
:1004A0000922150125283501452875089501910275
:1004B00009231500250135004501750495019102B8
:1004C0000958A1020B01000A000B02000A00750284
:1004D00095029102C0096016008026FF7F360080D9
:1004E00046FF7F751095019102096136008046FF35
:1004F0007F95019102150026FF7F350046FF7F0999
:10050000637510950191020965150026FF0046FFED
:100510007F750895019102C0096EA1028504092228
:1005200015012528350145287508950191020970A6
:10053000150026FF7F350046FF7F7510950191025B
:10054000096F16008026FF7F36008046FF7F9501E9
:1005500091020971150026FF0035004667016614F7
:10056000005500750895019102097227FFFF0000F0
:1005700047FFFF000066011055FD751095019102BF
:100580006600005500C00973A10285050922150106
:100590002528350145287508950191020970160135
:1005A0008026FF7F36018046FF7F751095019102FE
:1005B000C00974A1028506092215012528350145C7
:1005C00028750895019102097509761581257F36F0
:1005D000018046FF7F750895029102C0050F0977DB
:1005E000A102850A0922150125283501452875082B
:1005F000950191020978A1020979097A097B15010F
:100600002503750895019100C0097C150026FF009F
:10061000350046FF009102C00990A102850B092216
:100620001501252835014528750895019102C00955
:1006300096A102850C099709980999099A099B09BD
:100640009C15012506750895019100C0097DA10240
:10065000850D097E150026FF003500461027750818
:1006600095019102C009ABA10285050925A10209E6
:1006700026092709300931093209330934094009AB
:1006800041094209431501250B3501450B750895B4
:1006900001B100C00501093B150026FF01350046E8
:1006A000FF01750A9501B1027506B101C0050F0978
:1006B00089A10285060922252815013501452875DD
:1006C000089501B102098BA102098C098D098E25BB
:1006D0000315013501450375089501B100C009AC4A
:1006E000150027FFFF0000350047FFFF00007510D1
:1006F0009501B100C0097FA1028507098075109599
:1007000001150027FFFF0000350047FFFF0000B183
:1007100002098326FF0046FF0075089501B1020912
:10072000A909AA750195021500250135004501B1F9
:100730000275069501B103C0C01803410072006440
:1007400000750069006E006F0020004C004C0043F3
:10075000000403090422034100720064007500696B
:10076000006E006F0020004C0065006F006E00619D
:1007700000720064006F001201000200000040419E
:100780002336800001010200011201000202000074
:10079000404123368000010102000100C18081C177
:1007A000C000000000240027002A002D00300000B7
:1007B000000000250028002B002E00310004040456
:1007C00004040304050202020204030202020206F8
:1007D00006060606060404020202040404080201D6
:1007E000104080401020408040800802040180407A
:1007F0002010020110801020404020000000020064
:10080000080E0000030401000B00000000000000BF
:1008100000000000000000000000A02F11241FBEF7
:10082000CFEFDAE0DEBFCDBF11E0A0E0B1E0E6EC53
:10083000F7E602C005900D92A83AB107D9F725E076
:10084000A8EAB1E001C01D92AE3AB207E1F714E0A8
:10085000CEE0D4E004C02197FE010E94CF33CD301A
:10086000D107C9F70E94231B0C94E1330C940000BC
:100870008C30F8F4282F30E09EE1899FF00111249C
:10088000E651FE4F90819923A1F090819D7F908346
:10089000F901ED54FC4F958191110BC0E091A90134
:1008A000F091AA010084F185E02D09951092C3030F
:1008B00008950895FC01CB012091E80022FFFCCFB0
:1008C000282F215028F03091F10030833196F9CF54
:1008D00024E62093A1032BEF2093E80008950F93C3
:1008E0001F93CF93DF93DB01A40FB51FFB016EEFC6
:1008F000EA17FB0791F187FF02C0249101C0208114
:100900000091A5031091A603C091A303D091A40365
:100910000C171D07B4F49091E8009570E1F39091E5
:10092000E80092FD1CC02093F1002091A5033091B6
:10093000A6032F5F3F4F2F733327232B11F46093B0
:10094000E8002091A5033091A6032F5F3F4F30931D
:10095000A6032093A5033196CBCFCA0102C08FEF27
:100960009FEFDF91CF911F910F910895CF93DF9368
:1009700000D000D01F92CDB7DEB7FC0181819081FD
:10098000913A29F5813009F0BCC08281863051F45A
:1009900045E050E06EEA73E080E40E946F0410923C
:1009A000AE03AFC0873009F0ACC089838FEF9FEFF3
:1009B0009B838A838BE08C8383E08D8345E050E0CA
:1009C000BE016F5F7F4F80E40E946F049AC0913236
:1009D00009F097C0893009F094C08281853009F010
:1009E00090C064E070E0CE0101960E945A0486E057
:1009F0008093AE0380910F018B3021F1A0910F0104
:100A000081E08A0F80930F019EE1E0910F019E9F8C
:100A1000F0011124E651FE4F8081882351F080912E
:100A20000F018B3030F480910F018F5F80930F01A5
:100A3000ECCF8EE1A89FF0011124E651FE4F81E03A
:100A4000808301C0A0E0A093AF03A11104C082E0A5
:100A50008093B00350C01092930581E08093B0035F
:100A60008A819EE1A99FD0011124A651BE4F119603
:100A70008C9311978FEF9FEF50969C938E931F97B7
:100A800054961C921E92539752961C921E92519706
:100A900013968C93139714968C93149756961C92D6
:100AA0001E9255971E961C921E921D9716961C928A
:100AB00016978FEF9FE71A969C938E9319975896E7
:100AC0001C921E9257975C961C921E925B975D96A5
:100AD0001C925D9788EE93E01C969C938E931B97D7
:100AE000E091A901F091AA010684F785E02DBD01EE
:100AF000CE01019609958FEF9FEF9093B2038093FB
:100B0000B10381E00F900F900F900F900F90DF9145
:100B1000CF91089542E450E066EF71E080E80E94D2
:100B20006F0440E250E068E372E080E80E946F04E6
:100B300083E090E00895EF92FF921F93CF93DF93AD
:100B4000EC01162FE881F9810480F581E02D0995EB
:100B50007C01E881F9810680F781E02D612FCE01CB
:100B60000995C7019927DF91CF911F91FF90EF90D1
:100B70000895FC0191818081813A29F49D7F81E073
:100B8000913091F414C0813279F49A3049F09B305D
:100B900019F0993049F40AC0828180930E0106C091
:100BA000828180930D0102C080E0089581E0089564
:100BB0008C30F0F49EE1899FF0011124E651FE4F44
:100BC00080818823A9F08081826080838091C30323
:100BD00081110EC00E94CD1A6093BA017093BB01BF
:100BE0008093BC019093BD0181E08093C30308957D
:100BF0000895CF92DF92EF92FF926091B7017091CA
:100C0000B801072E000C880B990B0E94F9316B017B
:100C10007C01609152037091530380915403909131
:100C200055030E94F9319B01AC01C701B6010E9436
:100C30004F31FF90EF90DF90CF900895CF92DF92E9
:100C4000EF92FF920F931F938B019C014091B20191
:100C50005091B3016A01E12CF12C66277727CB0173
:100C60006C197D098E099F09061717072807390790
:100C70004CF0C901B801C016D106E206F30614F41F
:100C8000C701B6011F910F91FF90EF90DF90CF90B9
:100C900008954F925F926F927F928F929F92AF9240
:100CA000BF92CF92DF92EF92FF92CF93DF9300D06B
:100CB00000D0CDB7DEB74B015C0157FF02C04D5FDE
:100CC0005F4F6A01D594C794D594C7940E94F905E3
:100CD00069837A838B839C839B01AC01C501B4013A
:100CE0000E94AE3220E030E040E251E40E94AE3299
:100CF0002B013C0120E030E040E85FE30E94A93294
:100D00000D2C000CEE08FF0818161CF4C701B601E4
:100D100028C020E030E040E85FEBC301B2010E9450
:100D20004A3187FF06C0C701B6010E941E06CB01EB
:100D30001EC0C701B6010E94F9319B01AC01C5017B
:100D4000B4010E94AE3229813A814B815C810E94BC
:100D5000AE3220E030E040E251E40E94AE320E9428
:100D6000C1310E941E0688279927861B970B0F907A
:100D70000F900F900F90DF91CF91FF90EF90DF9049
:100D8000CF90BF90AF909F908F907F906F905F902B
:100D90004F9008958F929F92AF92BF92CF92DF9221
:100DA000EF92FF924B015C01BA01550F880B990B32
:100DB0000E94F9316B017C0120E030E0A901C501FE
:100DC000B4010E94A932A501940118160CF05058E4
:100DD000C701B6010E94AE326B017C010E94F90589
:100DE0009B01AC01C701B6010E94AE3220E030E0A9
:100DF00040E851E40E94AE3220E030E040E251E4AD
:100E00000E94AE3220E030E040E05DE30E94AE326E
:100E10000E94C1310E941E066B017C0120E030E07F
:100E2000A901C501B4010E94A93218162CF4882723
:100E300099278C199D090DC020E030E0A901C5015A
:100E4000B4010E944A3187FF02C0C60102C080E09F
:100E500090E0FF90EF90DF90CF90BF90AF909F9089
:100E60008F900895CF92DF92EF92FF92CF93DF930E
:100E70006B017C01EA0120E030E0A9010E94A93267
:100E8000181694F020E030E0A901C701B6010E94D5
:100E90004A3187FF3AC020E030E0A901C701B6011E
:100EA0000E94DE306B017C01BE01DD0F880B990BC7
:100EB0000E94F9319B01AC01C701B6010E94AE321C
:100EC0006B017C010E94F9059B01AC01C701B601D1
:100ED0000E94AE3220E030E040E851E40E94AE32A1
:100EE00020E030E040E251E40E94AE3220E030E009
:100EF00040E05BE30E94AE320E94C1310E941E06B8
:100F000088279927861B970B02C080E090E0DF912D
:100F1000CF91FF90EF90DF90CF9008951F920F92A6
:100F20000FB60F9211248F9381E0809356038F9117
:100F30000F900FBE0F901F9018951F920F920FB633
:100F40000F9211248F9381E0809356038F910F901D
:100F50000FBE0F901F9018951F920F920FB60F9211
:100F600011242F933F934F935F936F937F938F93AE
:100F70009F93AF93BF93EF93FF939091AD0389B18C
:100F80008C70892B90E09C01359527953595279598
:100F90002093AD034091A9035091AA036091AB0344
:100FA0007091AC03FC01E25BFE4F8081082E000CC7
:100FB000990BAA0BBB0B840F951FA61FB71F80931D
:100FC000A9039093AA03A093AB03B093AC038091C1
:100FD000A803FF91EF91BF91AF919F918F917F9166
:100FE0006F915F914F913F912F910F900FBE0F9096
:100FF0001F901895CF92DF92EF92FF920F931F935D
:10100000CF93DF931F92CDB7DEB7F82EE42E8B017E
:10101000C82ED92E8C2D8F198E1588F4F801619168
:101020008F01C60169830E9464306981681719F0D5
:10103000C6010E946C30FFEFCF1ADF0AEBCF0F9092
:10104000DF91CF911F910F91FF90EF90DF90CF90A4
:101050000895CF92DF92EF92FF920F931F93CF9359
:10106000DF931F92CDB7DEB78B016B017C01E61ACF
:10107000F70A9C2D901B941758F4C7018C0D9D1DE9
:1010800049830E946430F60181936F014981F1CF59
:101090000F90DF91CF911F910F91FF90EF90DF9014
:1010A000CF9008958F929F92AF92BF92CF92DF928E
:1010B000EF92FF9240E050E020E0682F70E0812C3A
:1010C000912C54018394FA013296DB0102C0B5954C
:1010D000A795EA95E2F775016401042E04C0CC0CD3
:1010E000DD1CEE1CFF1C0A94D2F7A0FF02C02C29C5
:1010F00002C0C0942C214F5F5F4F4430510519F757
:1011000030E0220F331FF901EC5CFE4F80FF05C079
:10111000808191819695879502C080819181FF9011
:10112000EF90DF90CF90BF90AF909F908F900895F9
:101130001F920F920FB60F921124EF92FF921F93FE
:101140002F933F934F935F936F937F938F939F93CF
:10115000AF93BF93EF93FF93CF93DF93CDB7DEB7FA
:101160006197DEBFCDBF1092E9008091E80083FF58
:1011700059C1FE013A96CF0128E02E0F2E1729F013
:101180003091F10030833196F9CF24E62093A1030A
:1011900022EF2093E8002A8527FF05C03091E80060
:1011A00030FFFCCF03C03EEF3093E800322F3076A3
:1011B00009F0C5C08B85811105C01092F100109215
:1011C000F10029C1982F9D7F913009F424C1853009
:1011D00049F48091E80080FFFCCF8C858068809383
:1011E000E30019C1863009F07CC01D85E888F988C4
:1011F0001092E9001092A6031092A503123091F507
:101200001092A4031092A3030E948A0599E0BE01E4
:101210006F5F7F4FFB01292F11922A95E9F7998380
:101220001A8391E09E8390E898879AEF998720919E
:10123000A5033091A603275F3F4F3C832B838D830B
:101240001092E9001092A6031092A503F092A40355
:10125000E092A30349E050E080E00E946F040E9406
:101260008A05D9C0F092A403E092A303123259F484
:1012700041EE54E068E572E080E80E946F04892B3B
:1012800009F0C9C0CCC0113069F4888999890897E0
:1012900011F41093A2038091A203811111C067E79A
:1012A00077E016C0133009F0BAC08C85882359F056
:1012B000823061F0813009F0B2C069E377E008C0A4
:1012C00069E877E005C061E577E002C065E577E0B1
:1012D0006115710509F4A3C0FB01449150E080E859
:1012E00049C0873009F49BC0883021F481E08093A5
:1012F000F10091C0893009F08EC0237009F08FC0D1
:1013000080E090E031E026E341E0480F4093E900BF
:101310003093EB000196FC01E556F84FE491E09321
:10132000EC002093ED008530910571F78EE78093F6
:10133000EA001092EA008C858093A8016CC028898D
:1013400039891092E9001092A6031092A5033093F8
:10135000A4032093A3032E85211154C08B859A8565
:10136000913A59F4813209F05AC047E050E060E107
:1013700071E080E00E946F044EC0913209F04FC0CE
:10138000803239F467E070E080E191E00E945A0415
:1013900042C0823209F043C08C858093170180914E
:1013A000100190911101A0911201B0911301803BA5
:1013B0009440A105B10579F58091170180FD11C018
:1013C00087E797E790930108809300089BE088E106
:1013D0000FB6F894A895809360000FBE90936000BC
:1013E0001AC00FB6F894A895809160008861809328
:1013F0006000109260000FBEA89510920108109234
:10140000000809C0223059F4E0919405F091950547
:101410000995882321F08EEF8093E80003C081E2D4
:101420008093EB0061960FB6F894DEBF0FBECDBF80
:10143000DF91CF91FF91EF91BF91AF919F918F91EC
:101440007F916F915F914F913F912F911F91FF90ED
:10145000EF900F900FBE0F901F9018958F929F9254
:10146000AF92BF92CF92DF92EF92FF920F931F93B2
:10147000CF93DF9300D01F92CDB7DEB7382F8B010B
:101480008091A801882389F04A018AEFF82E832FE2
:101490008770E82E90E4C92E832F8072B82E2AE33D
:1014A000D22E832F8074A82E21C08FEF9FEF5FC0B4
:1014B0008FB7F894E092E9009091E80095FF1AC088
:1014C0009091F2002C2D291B8FBF211115C0FA9489
:1014D000FF2059F361E070E080E090E039834A83B7
:1014E0005B830E94821A39814A815B818114910455
:1014F000F9F634C020E0E8CF822F90E088169906F4
:101500000CF4282D822F90E0881A990A6FB7F8946E
:10151000E092E900BB2029F02150A8F01092F100E0
:10152000FBCFF80137FF07C0215058F0749170933A
:10153000F1003196F9CF215020F071917093F100B4
:10154000FACF080F191F8091E80085FF0DC08114A4
:10155000910411F4A11008C06FBFC8CF5D9884E654
:101560008093A703CA0103C0D092E800F5CF0F9083
:101570000F900F90DF91CF911F910F91FF90EF90FF
:10158000DF90CF90BF90AF909F908F9008959091F3
:10159000A801992311F057FF03C08FEF9FEF089523
:1015A0002FB7F89487708093E9008091F20090E063
:1015B000841795070CF4AC01842FFB0194E681504D
:1015C00030F09093A1033091F1003193F8CF4115A1
:1015D000510521F08091F200882319F02FBFCA0134
:1015E00008958BE68093E800F9CF1F920F920FB613
:1015F0000F9211242F933F934F935F936F937F9399
:101600008F939F93AF93BF93EF93FF93CF93DF930A
:10161000CDB7DEB7C054D109DEBFCDBF8091E100A8
:101620001092E10083FF0FC01092E90091E09093C7
:10163000EB001092EC0092E39093ED001092A80161
:1016400098E09093F00082FF46C083E08093E90029
:101650008091F200882319F08AE38093E8009FB715
:10166000F89482E08093E9008091F2009FBF882384
:1016700021F08BEC94E00E94E70F9FB7F89485E08F
:101680008093E9008091F2009FBF8823C1F0809190
:10169000960590919705892B91F040E450E0BE01AA
:1016A0006F5F7F4F85E00E94C70A97FD08C0E091F9
:1016B0009605F0919705BC01CE01019609958091A0
:1016C000A703882341F08091A70381508093A7034B
:1016D000811101C05D9AC05CDF4F0FB6F894DEBF88
:1016E0000FBECDBFDF91CF91FF91EF91BF91AF9131
:1016F0009F918F917F916F915F914F913F912F912A
:101700000F900FBE0F901F901895EF92FF920F93BE
:101710001F93CF93DF931F92CDB7DEB789838B01E1
:101720007A0141E050E0BE016F5F7F4F84E00E948C
:101730002E0AA701B80184E40E942E0A0F90DF91BF
:10174000CF911F910F91FF90EF9008951F93CF932A
:10175000DF93DC0111961C9111979C91953009F44F
:1017600067C060F5923009F443C0A8F4913009F0E5
:101770004DC1E091A901F091AA012EE1129FB001A3
:10178000112466517E4F028CF38DE02DCD01DF9147
:10179000CF911F9109949330C9F1943009F036C16B
:1017A000E091A901F091AA012EE1129FB00111244C
:1017B00066517E4F0488F589E02D35C09B3009F4D1
:1017C0009DC038F4963009F441C09A3009F44CC0F9
:1017D0001DC19C3009F4CBC0913F09F017C140E412
:1017E00050E0BD0182EFDF91CF911F910C94850BEA
:1017F000E091A901F091AA013EE1139FB0011124EB
:1018000066517E4F0088F189E02D0DC0E091A9015D
:10181000F091AA018EE1189FB001112466517E4F0C
:101820000288F389E02DCD01DF91CF911F910994BA
:10183000E091A901F091AA013EE1139FB0011124AA
:1018400066517E4F0688F789E02DEDCFE091A90122
:10185000F091AA018EE1189FB001112466517E4FCC
:10186000008CF18DE02DDFCF1F3F09F41FE71296AA
:101870009C91913099F4812F0E94D805E12FF0E0DE
:10188000ED54FC4F85818111C1C0E091A901F09117
:10189000AA010680F781E02D812F47C0923029F5FB
:1018A000C1E08C2F0E943804CF5FCC30D1F7C12F1C
:1018B000D0E0CD54DC4F8D81811109C0E091A901A8
:1018C000F091AA010084F185E02D8FE70995812F21
:1018D0000E94D8058D81811199C0E091A901F091F4
:1018E000AA010680F781E02D1FC0933009F08EC059
:1018F000812FDF91CF911F910C94380481E01F3F1D
:10190000C1F480930F0188E691E0EAEEF1E0DF0197
:101910009C011D9221503040E1F7E091A901F09126
:10192000AA010284F385E02D8FE7DF91CF911F910B
:101930000994809393051C3008F068C03EE1139F22
:10194000F0011124E651FE4F108280910F0118170B
:1019500010F410930F01E091A901F091AA01028403
:10196000F385E02D812F09951092C3034FC082E0CB
:101970008093C4039091C50394609093C5039091A4
:10198000C50390619093C5031092C6031330B1F064
:1019900040F4113079F01230C9F58091C5038260AE
:1019A00033C0153071F1B0F0163081F58091C50368
:1019B0008E7F2AC08091C5038D7F26C0E091A9014A
:1019C000F091AA010480F581E02D80E00995109244
:1019D000C6031CC0E091A901F091AA010480F58121
:1019E000E02D81E0099581E080930F0188E691E088
:1019F000EAEEF1E0DF019C011D9221503040E1F759
:101A000005C08091C50381608093C503DF91CF91AC
:101A10001F910895DC01683810F0685825C0E62F42
:101A2000F0E067FF12C0E058F10981E090E001C0EA
:101A3000880FEA95EAF7809514969C91149789236C
:101A400014968C93149760E00FC0EA58FE4F64918F
:101A5000662311F167FF08C014968C9114978D7F4F
:101A600014968C9314976F77FD01369686E0662363
:101A700021F09081961301C010828150319681111E
:101A8000F6CFBD016C5F7F4F48E050E082E00E94DE
:101A9000850B81E090E0089580E090E00895FC01DE
:101AA0001682178210861186128613861482BC0154
:101AB0006C5F7F4F48E050E082E00C94850BDC01C6
:101AC000683810F068582DC0E62FF0E067FF11C0AD
:101AD000E058F10981E090E001C0880FEA95EAF74B
:101AE00014969C911497892B14968C93149760E00C
:101AF00018C0EA58FE4F6491611109C081E090E07E
:101B000013969C938E93129780E090E0089567FF60
:101B100008C014968C911497826014968C93149735
:101B20006F7716968C911697861751F117968C91B0
:101B30001797861729F118968C911897861701F137
:101B400019968C9119978617D9F01A968C911A9735
:101B50008617B1F01B968C911B97861789F0FD01B3
:101B6000369680E090E02191211105C0FD01E80F3B
:101B7000F91F668305C0019686309105A1F7BECF97
:101B8000BD016C5F7F4F48E050E082E00E94850B12
:101B900081E090E00895CF92DF92EF92FF920F9351
:101BA0001F93CF93DF936C01EB017B01E40EF51ED5
:101BB00000E010E0CE15DF0561F06991D601ED91EE
:101BC000FC910190F081E02DC6010995080F191FC5
:101BD000F1CFC801DF91CF911F910F91FF90EF904E
:101BE000DF90CF90089583E08093E9008091F20028
:101BF000882319F08AE38093E800089520917A04FD
:101C000030917B0480917C0490917D0428173907E2
:101C1000A9F0E0917C04F0917D04E65CFB4F8081AB
:101C200020917C0430917D042F5F3F4F2F73332729
:101C300030937D0420937C0490E008958FEF9FEF14
:101C4000089520917A0430917B0480917C049091D6
:101C50007D042817390749F0E0917C04F0917D0458
:101C6000E65CFB4F808190E008958FEF9FEF089531
:101C700080917A0490917B0420917C0430917D04C2
:101C8000821B930B8F739927089585ED8093BC0079
:101C90008091BC0084FDFCCF1092CA04089540914D
:101CA0001504262F30E0240F311D21323105DCF4DC
:101CB0002091CA042430C9F4FC0180E090E086172A
:101CC00058F4309115042191DC01AD50BC4FA30FA5
:101CD000B11D2C930196F3CF80911504680F60938A
:101CE000150480E0089581E0089582E00895089544
:101CF000E0917F0480917E04E81730F4F0E0EC5727
:101D0000FB4F808190E008958FEF9FEF08959091B1
:101D10007F0480917E04981750F4E92FF0E0EC578F
:101D2000FB4F208130E09F5F90937F0402C02FEF34
:101D30003FEFC901089580917E0490E020917F04D7
:101D4000821B91090895CF92DF92EF92FF920F9339
:101D50001F93CF93DF937C01262F972F8A018091C9
:101D60008304882391F0C62FD72F6E01C40ED51E91
:101D7000CC15DD0571F06991D701ED91FC910190D1
:101D8000F081E02DC7010995F3CF642F822F0E94C7
:101D90004F0EC801DF91CF911F910F91FF90EF90EF
:101DA000DF90CF900895CF93DF931F92CDB7DEB72A
:101DB0006983209183042223D1F020918004203272
:101DC00040F021E030E0FC013383228380E090E0AA
:101DD00015C080918104E82FF0E0ED52FC4F99810D
:101DE00090838F5F809381048093800405C061E0BD
:101DF000CE0101960E944F0E81E090E00F90DF919E
:101E0000CF9108950895CF93DF93FC01EB01718189
:101E100082818983878190859A8789872585368500
:101E2000438154816EE1769FC001112486519E4FFB
:101E3000DC0150965C934E931F9756963C932E93DD
:101E4000559764E0769FD0011124A654BE4F1D9291
:101E50001D921D921C921397838594859E878D8772
:101E600082858E8381E0DF91CF910895FC012281EC
:101E7000FB012783FC018381FB0180870895FC011E
:101E800082819381FB01908F878B0895DC01FB0198
:101E900012968D919C911397908F878B14968D91AC
:101EA0009C911597948F838F16968C911697858F9A
:101EB00017968D919C911897948783870895DC01DC
:101EC000FB0112968C91129782838281811110C03E
:101ED00015968D919C911697908F878B13968D9167
:101EE0009C911497948F838F17968C918583089576
:101EF00082810895DC01FB0112968C9112978383F5
:101F000013968C911397848314968D919C911597B9
:101F1000948B838B16968D919C911797928B818BC6
:101F200008959EE1899FF0011124E651FE4F708BC8
:101F30006787568B458B94E0899FF0011124E65406
:101F4000FE4F10821182128213820895089508951F
:101F50001092930524E0829FC0011124FC01E654F5
:101F6000FE4F1082118212821382089525E0FC0137
:101F700020838EE591E00895089580939305089558
:101F80000E94DC330F931F93CF93DF931F92CDB743
:101F9000DEB78C01698380911701882359F041E0F5
:101FA00050E0BE016F5F7F4F83E00E942E0A18163B
:101FB00019063CF081E090E0F8019383828380E091
:101FC00090E00F90DF91CF911F910F9108950F93A3
:101FD0001F93CF93DF931F92CDB7DEB700917A04A2
:101FE00010917B040F5F1F4F0F73112780917C04AA
:101FF00090917D0408171907F9F041E050E0BE0107
:102000006F5F7F4F82E00E94C70A019719F48981B0
:1020100090E002C08FEF9FEF8F3F2FEF920761F0AC
:10202000E0917A04F0917B04E65CFB4F808310938F
:102030007B0400937A04D2CF0F90DF91CF911F9150
:102040000F9108951F920F920FB60F9211242F93A4
:102050003F934F935F936F937F938F939F93AF9330
:10206000BF93EF93FF938091B900887F803609F486
:102070009CC068F5883209F45BC090F4803109F4A3
:1020800054C038F4882309F4F6C0883009F44DC0F0
:10209000F6C0883109F44CC0803209F45DC0EFC04D
:1020A000803409F468C048F4803309F455C088339B
:1020B00009F0E5C08093C804D8C0803509F44FC04A
:1020C000883509F45DC0883409F0D9C0D6C0883994
:1020D00009F4C7C0A8F4883709F467C038F4883613
:1020E00009F463C0803709F460C0C9C0883809F4B6
:1020F000B8C0803909F45FC0803809F0C0C05BC047
:10210000803B09F486C038F4803A09F466C0883A06
:1021100009F47FC0B4C0803C09F4A7C0883C09F42E
:10212000A4C0883B09F48AC0AAC08091C50410C02D
:102130009091C7048091C604981770F5E091C70488
:1021400081E08E0F8093C704F0E0EC55FB4F808157
:102150008093BB0085EC86C08093C8048EC0E0915C
:10216000C70481E08E0F8093C7048091BB00F0E02C
:10217000EC55FB4F80839091C7048091C6046EC0DC
:10218000E091C70481E08E0F8093C7048091BB006B
:10219000F0E0EC55FB4F80838091C90481116DC044
:1021A00081E08093C40484EA61C083E08093CA0420
:1021B00010923904CFCF80913904803208F051C099
:1021C000E091390481E08E0F809339048091BB0047
:1021D000F0E0E75EFB4F8083BDCF85EC8093BC00D1
:1021E0001092CA0480913904803230F4E0913904AD
:1021F000F0E0E75EFB4F10826091390470E0E091FF
:102200001704F091180489E194E0099510923904BB
:1022100036C084E08093CA0410921604109215040C
:10222000E0911304F0911404099580911504811133
:1022300005C081E0809315041092F303E091160429
:1022400081E08E0F80931604F0E0ED50FC4F80810A
:102250008093BB009091160480911504981708F4A0
:1022600079CF85E88093BC000AC085EC8093BC00E0
:102270001092CA0404C01092C8040E94450EFF9137
:10228000EF91BF91AF919F918F917F916F915F91EE
:102290004F913F912F910F900FBE0F901F90189567
:1022A0002091800490918204213208F049C08091ED
:1022B000CA048111FCCF32E03093CA046093C90490
:1022C0003FEF3093C8041092C7042093C604A3EDD7
:1022D000B3E044EA54E0FA013E2F341B321718F4FD
:1022E0003D913193F9CF1092C5042091C504990F07
:1022F000922B9093C5049091C404913061F4109294
:10230000C4049091C5049093BB009091BC0093FDD0
:10231000F8CF95EC01C095EE9093BC009091CA0463
:102320009230E1F39091C8049F3F79F08091C80406
:10233000803241F08091C804803331F084E005C0E0
:1023400081E003C082E001C083E01092810410921A
:1023500080041092830408952091AB013091AC0168
:102360002817390708F4C90190938B0080938A00DD
:1023700008952091AB013091AC012817390708F47A
:10238000C901909389008093880008954F925F92CD
:102390006F927F928F929F92AF92BF92CF92DF9275
:1023A000EF92FF920F931F93CF93DF93CDB7DEB7DA
:1023B00060970FB6F894DEBF0FBECDBF009709F44B
:1023C0006EC38C016091B90170E080E090E00E94E2
:1023D000F9312AE037ED43E25CE30E94AE326983D3
:1023E0007A838B839C83F80180809180A280B38064
:1023F000B7FE08C0B094A09490948094811C911C66
:10240000A11CB11CC501B4010E94F9316B017C0112
:102410006091B2017091B30180E090E00E94F731C9
:102420002B013C0126E636E646E65FE30E94AE322B
:1024300029813A814B815C810E94AE326D837E831B
:102440008F8398879B01AC01C701B6010E94A93216
:1024500087FDCBC0A301920169817A818B819C8128
:102460000E94AE3269877A878B879C8720E030E0B4
:1024700040E85FE30E94DD309B01AC01C701B6017B
:102480000E944A3187FFB1C06D817E818F8198851E
:102490000E94C1316B017C01A5019401261B370B01
:1024A000480B590BAEE3B0E00E9499304B015C0140
:1024B00069857A858B859C850E94C1319B01AC0121
:1024C0002C193D094E095F09C501B4010E947A30FB
:1024D00069017A01FFEFCF1ADF0AEF0AFF0A5601FE
:1024E00061E08DE00E94461AC114D10411F460E04D
:1024F00005C08FEFC816D10429F461E08DE00E9479
:10250000E7198AC0E8E0F8E0E4918E2F90E0FC0142
:102510003197EE30F10508F062C0E057FF4F0C94A0
:10252000CF3384B5806884BDC7BC76C084B5806273
:1025300084BDC8BC71C08091800080688093800099
:10254000D0928900C092880067C08091800080622C
:1025500080938000D0928B00C0928A005DC08091F1
:102560009000806880939000D0929900C09298006B
:1025700053C080919000806280939000D0929B0025
:10258000C0929A0049C0809190008860809390002A
:10259000D0929D00C0929C003FC08091C000806896
:1025A0008093C0008091C0008F7B8093C000C09258
:1025B000CF0032C08091C00080628093C000C09282
:1025C000D0002AC08091C20088608093C2008091B0
:1025D000C2008B7F8093C200C092D2001DC0E0E891
:1025E000AE16B1040CF089CF82CFA30192016981AC
:1025F0007A818B819C810E94AE3220E030E040E8FD
:102600005FE30E94DD309B01AC01C701B6010E946F
:10261000A93287FD6CCF71CF6091B40170E0605832
:102620007109072E000C880B990B0E94F93120E0EC
:1026300030E04FE753E40E944F316B017C0160931F
:10264000CF037093D0038093D1039093D20320E003
:1026500030E0A9010E94A93287FD1DC0A7019601A3
:1026600060E070E080E89FE30E94DD306093CB0380
:102670007093CC038093CD039093CE0380E090E0E1
:10268000A0E8BFE38093C7039093C803A093C90356
:10269000B093CA0323C020E030E0A901C701B6010E
:1026A0000E944A3187FF1AC080E090E0A0E8BFE3B3
:1026B0008093CB039093CC03A093CD03B093CE0330
:1026C0009C01AD01C701B6010E94DE306093C703D3
:1026D0007093C8038093C9039093CA039091B1018A
:1026E000F801C080D180E280F380892F807491FD51
:1026F000EAC0811195C01C141D041E041F04E4F5DA
:102700004090B2015090B3012091B5013091B601D3
:102710004901A12CB12C612C712CC301B2010E9482
:10272000F7312091C7033091C8034091C9035091FC
:10273000CA030E94AE320E94C131681979098A0920
:102740009B09A70196010E94AB33A30192010E944D
:102750007A30DA01C901880D991DAA1DBB1DF80147
:1027600080839183A283B38380E090E00E94B911BB
:10277000F8018081918146C0C114D104E104F104C3
:1027800009F444C04090B2015090B3018091B5016A
:102790009091B6014C01A12CB12CF094E094D0940E
:1027A000C094C11CD11CE11CF11C612C712CC30113
:1027B000B2010E94F7312091CB033091CC034091BC
:1027C000CD035091CE030E94AE320E94C1316819F0
:1027D00079098A099B09A70196010E94AB33A301DD
:1027E00092010E947A30DA01C901880D991DAA1D53
:1027F000BB1DF80180839183A283B3830E94B9112A
:1028000080E090E00E94AC112F9A49C180E090E0F6
:102810000E94B91180E090E00E94AC112F983FC156
:10282000E091B201F091B3011C141D041E041F04B9
:10283000DCF44F01969487948091B5019091B60194
:10284000880E991EA12CB12C2F01612C712CC30173
:10285000B201681979098A099B09A70196010E94AA
:10286000AB33A301920119C0C114D104E104F104F6
:1028700011F14F01969487948091B5019091B60122
:10288000881A990AA12CB12CA5019401C701B6019F
:102890000E94AB339F0140E050E00E947A30DA01A1
:1028A000C901880D991DAA1DBB1DF8018083918364
:1028B000A283B38303C0CF01969587950E94B91177
:1028C00080E090E0D4C0811133C0F7FC02C02F9AA1
:1028D00001C02F988091B5019091B6016C01E12C57
:1028E000F12C8090B2019090B301A12CB12CF80191
:1028F000208131814281538157FF07C05095409517
:10290000309521953F4F4F4F5F4FC501B4016C1972
:102910007D098E099F090E94AB33A50194010E9495
:102920007A30DA01C9018C0D9D1DAE1DBF1D81C01D
:102930001C141D041E041F046CF520E030E040E868
:102940005FE36091AD017091AE018091AF01909114
:10295000B0010E94DE3020910401309105014091C8
:102960000601509107010E94AE320E94C1314B0115
:102970005C016091000170910101809102019091D0
:1029800003010E94C131681979098A099B09A701CD
:1029900096013FC0C114D104E104F10409F44FC011
:1029A0002091AD013091AE014091AF015091B00145
:1029B00060E070E080E89FE30E94DD302091040138
:1029C0003091050140910601509107010E94AE32FD
:1029D0000E94C1314B015C0122273327A9012C1928
:1029E0003D094E095F0960910801709109018091CC
:1029F0000A0190910B012D873E874F87588B0E94CB
:102A0000C131681979098A099B092D853E854F8551
:102A100058890E94AB332091B2013091B30140E05C
:102A200050E00E947A30DA01C901880D991DAA1D73
:102A3000BB1DF80180839183A283B3830BC0609197
:102A400004017091050180910601909107010E9497
:102A5000C831CB010E94B911609104017091050148
:102A600080910601909107010E94C831CB016096C8
:102A70000FB6F894DEBF0FBECDBFDF91CF911F918F
:102A80000F91FF90EF90DF90CF90BF90AF909F900D
:102A90008F907F906F905F904F900C94AC116096E8
:102AA0000FB6F894DEBF0FBECDBFDF91CF911F915F
:102AB0000F91FF90EF90DF90CF90BF90AF909F90DD
:102AC0008F907F906F905F904F9008956091AB01D1
:102AD0007091AC0180E090E00E94F7319B01AC0165
:102AE00060E07EEF8FEF96E40E944F3108952F92C1
:102AF0003F924F925F926F927F928F929F92AF928E
:102B0000BF92CF92DF92EF92FF920F931F93CF93DA
:102B1000DF93CDB7DEB729970FB6F894DEBF0FBEAF
:102B2000CDBF998788874B012B831D830C831701A9
:102B3000DF82CE82042F10E08C819D816C01E12C1C
:102B4000F12CE885F985F7FD2BC0C8019695982FE3
:102B5000882797958795BF01681B790B072E000C76
:102B6000880B990B0E94F9312B013C01C701B6017A
:102B70000E94F7319B01AC01C301B2010E944F31A9
:102B80002B013C01C8019695982F8827979587952A
:102B90009A838983EB8190E8E99FB00111242AC0D0
:102BA000B8017695762F662777956795E885F9853C
:102BB0006E0F7F1F072E000C880B990B0E94F931B6
:102BC0002B013C01C701B6010E94F7319B01AC010A
:102BD000C301B2010E944F312B013C0160E8600348
:102BE000C001619F900D11249A8389832B81620318
:102BF000B001112488859985681B790B072E000C7C
:102C0000880B990B0E94F9316B017C01B10180E0C6
:102C100090E00E94F7319B01AC01C701B6010E9410
:102C20004F316B017C018A149B0408F43FC08E81F4
:102C30009F818A0D9B1D88169906C0F50C811D8108
:102C40000A0D1B1D8016910690F4B4016A197B09C8
:102C500080E090E00E94F7319B01AC01C301B2011A
:102C60000E94AE320E94C13189819A811CC08219B2
:102C7000930988159905E8F48A189B08EE81FF816D
:102C80008E1A9F0AB401620D731D80E090E00E94CD
:102C9000F7319B01AC01C701B6010E94AE320E9420
:102CA000C13188859985860F971F05C080E090E027
:102CB00002C08885998529960FB6F894DEBF0FBEAD
:102CC000CDBFDF91CF911F910F91FF90EF90DF90DB
:102CD000CF90BF90AF909F908F907F906F905F90BC
:102CE0004F903F902F9008958F929F92AF92BF92F6
:102CF000CF92DF92EF92FF92CF93DF934B015C0173
:102D0000EA010E94F9056B017C01DE01A501940135
:102D10000E94A4300E94F931A70196010E94AE32B0
:102D200020E030E040E051E40E94AE3220E030E0AC
:102D300040E251E40E94AE3220E030E040E85BE344
:102D40000E94AE320E94C1310E941E06909580956D
:102D5000709561957F4F8F4F9F4FDF91CF91FF907F
:102D6000EF90DF90CF90BF90AF909F908F9008959D
:102D70009091CA049111FCCF91E09093CA04909372
:102D8000C9042FEF2093C8041092C704260F209384
:102D9000C6049093C5049091C504880F892B809335
:102DA000C5048091C404813061F41092C404809100
:102DB000C5048093BB008091BC0083FDF8CF85ECF7
:102DC00001C085EE8093BC008091CA048130E1F39C
:102DD0008091C704861710F46091C704A4EAB4E098
:102DE00024E834E0F9018E2F821B861718F48D91A8
:102DF0008193F9CF862F0895009769F0FC01019027
:102E00000020E9F73197AF01481B590BBC018BEC4F
:102E100094E00C94CB0D80E090E00895CF93DF9385
:102E20001092E9041092E8049091E50421E02093C7
:102E30008304909382041092810410928004A091E4
:102E4000EA04B091EB04ED91FC9111970190F081AF
:102E5000E02D682FCD01099561E08091EA04909101
:102E6000EB040E945011882319F08AE99FEF0DC0EE
:102E700062E08091E5040E94B81610927F0480936E
:102E80007E04823049F089E99FEF9093E9048093B2
:102E9000E80480E090E01BC08091EA049091EB048C
:102EA000DC01ED91FC910680F781E02D0995D82F8A
:102EB000B0E0CB2F8091EA049091EB04DC01ED911E
:102EC000FC910680F781E02D09958C0F9D1FDF9105
:102ED000CF9108950F931F930E94CD1A6093D3044E
:102EE0007093D4048093D5049093D604E091CB04DE
:102EF000F091CC040084F185E02D8BEC94E00995F1
:102F000097FF1FC00E94CD1A0091D3041091D404E2
:102F10002091D5043091D604DC01CB01801B910BAC
:102F2000A20BB30B0091CF041091D0042091D104D7
:102F30003091D20480179107A207B307B8F28FEF40
:102F40009FEF1F910F910895E091CB04F091CC0475
:102F50000190F081E02D682F8BEC94E00994CF93E1
:102F6000DF938DE00E94A417EC018AE00E94A41771
:102F70008C0F9D1FDF91CF9108958F929F92AF92FA
:102F8000BF92EF92FF920F931F93CF93DF93CDB732
:102F9000DEB7A1970FB6F894DEBF0FBECDBF162FD8
:102FA000042F19A2423008F40AE07E0121E2E20E69
:102FB000F11C802E912CA12CB12C612FA501940124
:102FC0000E94AC30029F1019112481E0E81AF10828
:102FD0001A3014F4105D01C0195CF7011083122F30
:102FE000732FCA01232B242B252B39F7C7010E94ED
:102FF000FC16A1960FB6F894DEBF0FBECDBFDF91D1
:10300000CF911F910F91FF90EF90BF90AF909F9045
:103010008F900895CF92DF92EF92FF92CF93DF933C
:1030200097FF19C06B017C018DE20E94A417EC018F
:1030300066277727CB016C197D098E099F094AE025
:103040000E94BD178C0F9D1FDF91CF91FF90EF90D5
:10305000DF90CF9008954AE0DF91CF91FF90EF90FD
:10306000DF90CF900C94BD17CF92DF92EF92FF923A
:103070006B017C018CE00E940E17E5EEF4E09F707E
:10308000948B838B6785708981899289C786D08A62
:10309000E18AF28AFF90EF90DF90CF900895CF936E
:1030A0001092E9041092E8048091E50491E0909375
:1030B0008304809382041092810410928004809192
:1030C000EA049091EB04DC01ED91FC910190F08118
:1030D000E02D67E0099561E08091EA049091EB04AE
:1030E0000E945011C82F882341F08CE99FEF9093E4
:1030F000E9048093E804C0E01EC061E08091E5042B
:103100000E94B81610927F0480937E04813039F0BB
:103110008BE99FEF9093E9048093E8040CC08091C1
:10312000EA049091EB04DC01ED91FC910680F781BB
:10313000E02D0995C82F8C2FCF910895CF93C82FDC
:103140001092E9041092E8048091E50491E09093D4
:1031500083048093820410928104109280048091F1
:10316000EA049091EB04DC01ED91FC910190F08177
:10317000E02D67E009958091EA049091EB04DC0171
:10318000ED91FC910190F081E02D6C2F099561E0AB
:103190008091EA049091EB040E945011882331F051
:1031A00088E39FEF9093E9048093E8048091E8041A
:1031B000CF910895CF93DF93BC01990F880B990BA2
:1031C0000E940A18EC010E94AF178C0F9D1FDF911F
:1031D000CF9108958F929F92AF92BF92CF92DF923C
:1031E000EF92FF920F931F938EE00E940E17209193
:1031F000E8043091E9044091F4045091F5046091A1
:10320000F6047091F704232B21F0342F252FCB01E6
:103210004FC09F702091F8043091F9044901032EAA
:10322000000CAA08BB086C01092E000CEE08FF0870
:103230002130E8E03E075CF0F901F8508E179F0757
:1032400034F4505F6F4F7F4F8A019B010EC0813075
:10325000E8E09E078CF0FC01F8502E173F0764F45D
:103260008A019B01105121093109081919092A09FC
:103270003B09B901A80104C0481959096A097B0929
:103280004C0D5D1D6E1D7F1D4093F4045093F5049D
:103290006093F6047093F7049093F9048093F80414
:1032A0003091F4042091F5048091F6049091F70494
:1032B000632F722F1F910F91FF90EF90DF90CF90AF
:1032C000BF90AF909F908F900895682F70E080E03E
:1032D00090E04AE00C94BD170C94FC16FF920F93FB
:1032E0001F93CF93DF9300D000D0CDB7DEB70E94FD
:1032F0006A17FC0197FD11C08D32910591F0C097BE
:103300000A9778F0E091CB04F091CC040680F78125
:10331000E02D8BEC94E00995EACF60E070E0CB0102
:103320004CC020E030E0A901F12CE130F105F1F0D2
:10333000ED32F105C9F0CF01C0970A97B8F4AAE0C1
:10334000B0E00E9499308F01FF0F220B330BDC019C
:10335000CB01800F911FA21FB31F9C01AD01205311
:1033600031094109510902C0FF24F394E091CB04D3
:10337000F091CC040680F781E02D8BEC94E029835A
:103380003A834B835C8309950E946A17FC01C097BE
:1033900029813A814B815C810A9738F2E130F1054D
:1033A00021F2FF2041F066277727CB01621B730BC8
:1033B000840B950B02C0CA01B9010F900F900F90BA
:1033C0000F90DF91CF911F910F91FF900895362FAD
:1033D00090E0FC01E550F84F4491FC01E452F84FB5
:1033E0002491FC01E354F84F8491882309F44DC0E3
:1033F0004423C1F150E0FA013197EE30F10590F528
:10340000E256FF4F0C94CF33909180009F7703C01A
:10341000909180009F7D9093800024C094B59F7709
:1034200002C094B59F7D94BD1DC0909190009F7780
:1034300007C0909190009F7D03C090919000977F6E
:10344000909390000FC09091C0009F7703C090911F
:10345000C0009F7D9093C00005C09091C200977FEF
:103460009093C200E82FF0E0EE0FFF1FE155F84FF8
:10347000A591B4918FB7F894EC91311103C02095C8
:103480002E2301C02E2B2C938FBF0895CF93DF9353
:1034900090E0FC01E452F84F2491FC01E354F84F12
:1034A0008491882361F190E0880F991FFC01EF550A
:1034B000F84FC591D491FC01E155F84FA591B49115
:1034C000611109C09FB7F894888120958223888371
:1034D000EC912E230BC0623061F49FB7F8943881D1
:1034E000822F809583238883EC912E2B2C939FBF72
:1034F00006C08FB7F894E8812E2B28838FBFDF9109
:10350000CF910895CF92DF92EF92FF92CF93DF9306
:103510006B017C010E94A81AEB01C114D104E104E3
:10352000F10479F00E94A81A6C1B7D0B683E734071
:10353000A0F381E0C81AD108E108F108C851DC4FB6
:10354000ECCFDF91CF91FF90EF90DF90CF90089577
:103550003FB7F8948091AA059091AB05A091AC0576
:10356000B091AD0526B5A89B05C02F3F19F0019677
:10357000A11DB11D3FBFBA2FA92F982F8827820FF9
:10358000911DA11DB11DBC01CD0142E0660F771F49
:10359000881F991F4A95D1F708952FB7F894609125
:1035A000A6057091A7058091A8059091A9052FBF48
:1035B00008951F920F920FB60F9211242F933F93ED
:1035C0008F939F93AF93BF938091A6059091A7058A
:1035D000A091A805B091A9053091A50523E0230F7E
:1035E0002D3720F40196A11DB11D05C026E8230F3B
:1035F0000296A11DB11D2093A5058093A605909369
:10360000A705A093A805B093A9058091AA0590915C
:10361000AB05A091AC05B091AD050196A11DB11D02
:103620008093AA059093AB05A093AC05B093AD052C
:10363000BF91AF919F918F913F912F910F900FBEAE
:103640000F901F901895CF93DF93CDB7DEB7C3547B
:10365000D1090FB6F894DEBF0FBECDBF789484B504
:10366000826084BD84B5816084BD85B5826085BD7E
:1036700085B5816085BD80916E00816080936E000C
:1036800010928100809181008260809381008091FE
:1036900081008160809381008091800081608093AF
:1036A00080008091910082608093910080919100D0
:1036B0008160809391008091900081608093900060
:1036C0008091C10084608093C1008091C1008260BC
:1036D0008093C1008091C10081608093C10080917E
:1036E000C30081608093C3008091C000826080939A
:1036F000C0008091C20081608093C20080917A00F6
:10370000846080937A0080917A00826080937A004E
:1037100080917A00816080937A0080917A0080683D
:1037200080937A001092A80181E08093D70080EA0C
:103730008093D80082E189BD09B400FEFDCF61E02D
:1037400070E080E090E00E94821A80E98093D800C7
:103750001CE01093E2001092E00010927F031092A0
:103760007E031092840310928503109286031092B8
:103770008703109279031092780310928D031092B0
:103780008E0310928F031092900310929103109267
:103790009203109293031092940342E0BE01615F82
:1037A0007F4F80E090E00E9429088F8598898A3FAA
:1037B000910509F4C1C08AEF90E09E878D8742E0B1
:1037C000BE01635F7F4F80E090E00E94FA0719829C
:1037D0001A821B821C8244E0BE016F5F7F4F82E031
:1037E00090E00E94FA0788E394E09E878D8742E08C
:1037F000BE01635F7F4F86E090E00E94FA0784E697
:10380000898B41E0BE016F5E7F4F88E090E00E94AF
:10381000FA0741E0BE016F5E7F4F8BE090E00E94AF
:10382000FA0741E0BE016F5E7F4F8CE090E00E949E
:10383000FA0741E0BE016F5E7F4F80E190E00E9499
:10384000FA0741E0BE016F5E7F4F8DE090E00E947D
:10385000FA0782E3898B41E0BE016F5E7F4F89E00A
:1038600090E00E94FA0741E0BE016F5E7F4F8AE060
:1038700090E00E94FA0741E0BE016F5E7F4F8EE04C
:1038800090E00E94FA0786E4898B41E0BE016F5EFA
:103890007F4F8FE090E00E94FA071E861D8642E06F
:1038A000BE01635F7F4F81E190E00E94FA078FEFD6
:1038B00097E09E878D8742E0BE01635F7F4F83E183
:1038C00090E00E94FA078FEF9FE09E878D8742E08D
:1038D000BE01635F7F4F85E190E00E94FA0780E8B8
:1038E000898B41E0BE016F5E7F4F87E190E00E94CF
:1038F000FA0781E0898B41E0BE016F5E7F4F88E16E
:1039000090E00E94FA0780E090E1A0E0B0E08983B7
:103910009A83AB83BC8344E0BE016F5F7F4F89E134
:1039200090E00E94FA07198B41E0BE016F5E7F4F65
:103930008DE190E00E94FA0742E067EB71E086E0DB
:1039400090E00E94290844E06CE573E089E190E092
:103950000E94290841E069EB71E088E090E00E9454
:10396000290841E063E673E089E090E00E942908BD
:1039700041E061E673E08AE090E00E94290841E0BE
:1039800066E673E08BE090E00E94290841E065E67E
:1039900073E08CE090E00E94290841E064E673E067
:1039A0008DE090E00E94290841E062E673E08EE03D
:1039B00090E00E94290841E067E673E08FE090E024
:1039C0000E94290841E060E673E080E190E00E94F7
:1039D000290841E064EB71E087E190E00E9429084A
:1039E00041E06CE873E088E190E00E94290842E041
:1039F00065EB71E081E190E00E94290842E062EB12
:103A000071E083E190E00E94290842E06AE573E0FA
:103A100085E190E00E94290841E061EB71E08DE1D1
:103A200090E00E9429088FEF9FE09093810380939C
:103A300080031092830310928203909389038093F2
:103A4000880310928B0310928A0390937B038093D8
:103A50007A0310927D0310927C03909375038093F8
:103A60007403109277031092760360915C03709157
:103A70005D0380915E0390915F030E94F93120E025
:103A800030E044EB53E40E944F316B017C018091A4
:103A9000B7019091B801BC01990F880B990B0E9456
:103AA000F9319B01AC01C701B6010E94AE320E9400
:103AB000C1316093520370935303809354039093E6
:103AC0005503DC01CB01B595A79597958795809314
:103AD000950390939603A0939703B093980360E0A7
:103AE00082E10E94461A60E083E10E94461A60E08B
:103AF00084E10E94461A60E085E10E94461A62E075
:103B000084E00E94461A62E086E10E94461A62E062
:103B100087E10E94461A62E08CE00E94461A62E049
:103B200086E00E94461A62E087E00E94461A62E040
:103B300088E00E94461A62E085E00E94461A62E030
:103B400081E00E94461A80916900806C8093690030
:103B5000EB9A88E191E09093AA018093A90186EB0A
:103B600094E0909395058093940586EA9BE090936A
:103B7000970580939605279A1091B101812F0E9495
:103B800052085C019093AC018093AB019093B30118
:103B90008093B2016091B5017091B60180E090E030
:103BA0000E94F7316B017C01B50180E090E00E943A
:103BB000F7319B01AC01C701B6010E944F31609300
:103BC000AD017093AE018093AF019093B001012FCE
:103BD000017010FD05C020E030E04AEF54E404C05D
:103BE00020E030E04AE754E4609108017091090157
:103BF00080910A0190910B010E94AE3260930801FE
:103C00007093090180930A0190930B01011105C083
:103C100020E030E04AEF54E404C020E030E04AE71E
:103C200054E4609104017091050180910601909126
:103C300007010E94AE3260930401709305018093E6
:103C4000060190930701011105C020E030E04AEF22
:103C500054E404C020E030E04AE754E460910001FD
:103C60007091010180910201909103010E94AE3296
:103C7000609300017093010180930201909303010E
:103C8000109280001092810010926F0016BA8091FD
:103C9000AB019091AC0190938700809386001092C5
:103CA00089001092880010928B0010928A008091F7
:103CB000B1018274823421F480918100826003C05A
:103CC000809181008160809381008091B10180FFAB
:103CD00009C0809180008260809380008091810083
:103CE000806108C080918000826080938000809114
:103CF000810088618093810080E090E00E94B9118A
:103D000080918000806880938000259A80E090E018
:103D10000E94AC1180918000806280938000269A7E
:103D200061E08DE00E94461A13E061E08DE00E94A0
:103D3000E71964E170E080E090E00E94821A60E0A0
:103D40008DE00E94E71964E170E080E090E00E945D
:103D5000821A115051F710926E0310926F03109255
:103D60007003109271038EE693E00E94C61182E008
:103D700090E090936D0380936C038FEF97E09093A6
:103D80005903809358038091B40180935703109294
:103D90007F0410927E04109281041092800410928D
:103DA000CA0411E01093C9041092C40461E082E0D7
:103DB0000E94E71961E083E00E94E7198091B90051
:103DC0008E7F8093B9008091B9008D7F8093B90078
:103DD00088E48093B80085E48093BC008FEF8093E3
:103DE000E6041092E7048091E50410938304809325
:103DF0008204109281041092800461E08091EA04B0
:103E00009091EB040E9450110E944F18837E0E94F3
:103E10009E180E944F188C7F0E949E1860919503F7
:103E20007091960380919703909198030E943418A3
:103E30000E94A81A6093990370939A0380939B033E
:103E400090939C030E94A81A6093FE047093FF0451
:103E5000809300059093010500919D0310919E03AE
:103E600020919F033091A0036B017C01C01AD10AFD
:103E7000E20AF30AC092FA04D092FB04E092FC0436
:103E8000F092FD040091990310919A0320919B03F5
:103E900030919C036B017C01C01AD10AE20AF30A3B
:103EA00040EDC41647E0D406E104F10410F40C948C
:103EB000962F6093990370939A0380939B0390933A
:103EC0009C03809156038823A1F060919503709123
:103ED000960380919703909198030E943418609301
:103EE00091037093920380939303909394031092A1
:103EF00056030E94EA188090950390909603A09034
:103F00009703B0909803DC01CB0188199909AA099D
:103F1000BB098093910390939203A0939303B09372
:103F2000940380938D0390938E03A0938F03B0939B
:103F3000900310918C0315FB882780F916FD826091
:103F400017FF02C084601DC08130D9F4750164017F
:103F5000C094D094E094F094A50194012C193D09EB
:103F60004E095F09609184037091850380918603F7
:103F7000909187030E94AB332FEF3FEF40E050E07A
:103F800032C0823059F475016401C094D094E09439
:103F9000F094A0917E03B0917F0319C0833059F44F
:103FA00075016401C094D094E094F094A0917803DA
:103FB000B09179030CC0843021F575016401C0947F
:103FC000D094E094F094A0917203B0917303A50192
:103FD00094012C193D094E095F090E94A4302FEF6E
:103FE0003FE040E050E00E947A30C20ED31EE41E53
:103FF000F51EC0928D03D0928E03E0928F03F09253
:10400000900380908D0390908E03A0908F03B090CA
:1040100090038091070590910805A0910905B09142
:104020000A058092070590920805A0920905B092B2
:104030000A0520910F05222309F449C00091380593
:1040400054E0059F90011124B901695F7A4F7B010B
:10405000A5019401281B390B4A0B5B0BCA01B9015E
:104060000E94F931D70119966D937D938D939C939E
:104070001C97F02EBAE0EB2E60E070E0CB01B4E0CC
:10408000FB9EF0011124E95FFA4F218532854385BB
:1040900054850E94DE30FF2011F0FA9402C0A9E09E
:1040A000FA2EEA94E110EBCF20E030E040E251E458
:1040B0000E944F310F5F0A3018F40093380502C098
:1040C0001092380568A37CA78DA79EA70FC081E03A
:1040D00080930F0510920B0510920C0510920D05A0
:1040E00010920E0518A21CA61DA61EA62091390529
:1040F00030913A0540913B0550913C0588A19CA523
:10410000ADA5BEA58093390590933A05A0933B05D4
:10411000B0933C0580914105882309F444C0009187
:104120009205E4E00E9FC0011124BC01605F7A4F4C
:104130007B0168A17CA5CD010E94DD30D701D2961C
:104140006D937D938D939C93D597F02EF4E1EF2E94
:1041500060E070E0CB01B4E0FB9EF0011124E05F71
:10416000FA4F22A933A944A955A90E94DE30FF20A5
:1041700011F0FA9402C0E3E1FE2EEA94E110EBCFD5
:1041800020E030E040EA51E40E944F310F5F0431FB
:1041900018F40093920502C0109292056BAB7CABB1
:1041A0008DAB9EAB0FC081E08093410510923D0521
:1041B00010923E0510923F05109240051BAA1CAAC2
:1041C0001DAA1EAA80919305882359F110FF47C7A5
:1041D0000E9466159B01AC0160E070E080E094E411
:1041E0000E944F316B017C016091670370E080E0B9
:1041F00090E00E94F9319B01AC01C701B6010E9419
:10420000AE3220E030E048EC52E40E944F310E9490
:10421000C131AB01C501B4010E9474162B013C01F0
:1042200021C7EEEBF1E0FB8FEA8F1B8A1A8A412C43
:10423000512C32010A891B890F5F1F4F1B8B0A8B80
:104240004EE19801429F8001439F100D11240651B9
:104250001E4FD8018C918370833009F0F3C60E9401
:1042600066156B017C01F80121853285A789B08D27
:104270000E94D5332FEF3FE740E050E00E947A30B4
:10428000CA01B9010E94F931A70196010E944F317C
:104290000E94C1319B01AC01D8011B968D919C916C
:1042A0001C97059730F4E4E0F0E01C96FC93EE9345
:1042B0001B976EE1E62ECA88DB88EC9CF001ED9C32
:1042C000F00D1124E651FE4FE1818E2F90E0FC01AC
:1042D0003197ED30F10508F09FC6EA5AFF4F0C9474
:1042E000CF330E9466156E8B7F8B888F998F2EE15E
:1042F0000A891B89209FC001219F900D1124AC01C8
:1043000046515E4F1A01DA0119968D909C901A97CA
:104310005596AD90BC9056971F96CD90DC905097D7
:104320005196ED90FC90529753960D911C91549795
:1043300014962C91149713964C91139757968D9130
:104340009C915897EA8DFB8D608171810E94771551
:104350009401DC010E94D5332FEF3FE740E050E0AD
:104360000E947A30CA01B9010E94F9312E893F8931
:10437000488D598D0E944F310E94C1310E941E0606
:104380009B01AC01A0916603B0E00E94993024E645
:1043900030E040E050E00E947A30421A530A640A4A
:1043A000750A7EC10E9466156E8B7F8B888F998FF0
:1043B0001EE1E12ECA88DB88EC9CF001ED9CF00D3B
:1043C0001124E651FE4F018512851D8F0C8FC58883
:1043D000D688DDA2CCA2E784F088F9A6E8A60189F8
:1043E000128918AB0FA7038914891BAF0AAF848009
:1043F0009380AA8DBB8D2D903C9007851089608598
:10440000A7800A2C000CBB08062E000C770B6A193B
:104410007B09CB01770FAA0BBB0B6627782F892F5F
:104420009A2F0E94F9316B017C01B80180E090E085
:104430000E94F73120E030E04AE754E40E944F3117
:104440009B01AC01C701B6010E944F316B017C0199
:10445000C101B8010E94BB33BC0180E090E00E9422
:10446000F73120E030E04AE754E40E944F319B01ED
:10447000AC01C701B6010E94AE320E94C131BA2C14
:10448000AA24C501860F971FACA0BDA0C8A4D9A4BB
:10449000EFA4F8A80AAD1BAD282D492DB1010E944B
:1044A00077152C8D3D8DDC010E94D5332FEF3FE732
:1044B00040E050E00E947A30CA01B9010E94F9310F
:1044C0002E893F89488D598D0E944F310E94C131FC
:1044D0000E941E06461A570A680A790A9DC50E945C
:1044E00066156C8F7D8F8E8F9F8FBEE1CB2EEA89F4
:1044F000FB89CE9EC001CF9E900D11248C010651E8
:104500001E4F1801D80119960D90BC91A02DBDA386
:10451000ACA3F801038CF48DE02DF9A7E8A7D8012E
:104520005D96BC91BFA7F80183849484A588B68862
:10453000C784D088E188F288038914892481438163
:10454000AA8DBB8D0D90BC91A02DBF8BAE8B8789A2
:10455000908DBD010E9477158C01B40180E090E040
:104560000E94F73120E030E04AE754E40E944F31E6
:104570009B01AC0160E070E080E89FE30E944F3156
:104580006B017C018E899F89B4010E94BB33BC0101
:1045900080E090E00E94F73120E030E04AE754E408
:1045A0000E944F319B01AC01C701B6010E94AE329F
:1045B0006B017C01BFA56B2F70E080E090E00E9452
:1045C000F73120E030E040E85BE30E94AE329B012F
:1045D000AC01C701B6010E94DE302BED3FE049EC93
:1045E00050E40E94AE320E941B339B01AC01E8A54F
:1045F000F9A56F01FF0FEE08FF08B801110F880B36
:10460000990B21962FAF219724963FAF249722969E
:104610004FAF229723965FAF23970E94F9312196DF
:104620002FAD219724963FAD249722964FAD229728
:1046300023965FAD23970E94AE320E94C131CB0119
:10464000770FAA0BBB0BA7019601280F391F4A1F32
:104650005B1FACA1BDA10E9499302FEF3FE740E066
:1046600050E00E947A30CA01B9010E94F9312C8DC4
:104670003D8D4E8D5F8D0E944F310E94C1319B0157
:10468000AC01A0916503B0E00E94993024E630E0CF
:1046900040E050E00E947A30420E531E641E751EA8
:1046A000D10116968C91169782FFB6C41D966D9116
:1046B0007C911E9780E090E00E94F7312BED3FE067
:1046C00049EC50E40E94AE3220E030E040E058E394
:1046D0000E94AE320E941B339B01AC01C301B201A8
:1046E00021962FAF219724963FAF249722964FAF64
:1046F000229723965FAF23970E94F93121962FAD21
:10470000219724963FAD249722964FAD229723966A
:104710005FAD23970E94AE320E94C1312B013C0154
:104720007BC40E9466156C8F7D8F8E8F9F8FAEE14C
:10473000EA2ECA88DB88EC9CF001ED9CF00D112478
:10474000E651FE4F018512851DA30CA3238D348DE8
:10475000A901330F660B770B48A759A76AA77BA758
:10476000558D5FA723843484A588B688C784D088F4
:10477000E188F2880389148924814381AA8DBB8D45
:104780000D90BC91A02DBF8BAE8B8789908DBD0104
:104790000E947715BC01990F880B990B0E94F93183
:1047A0004B015C01B10180E090E00E94F73120E014
:1047B00030E04AE754E40E944F319B01AC0160E0D5
:1047C00070E080E89FE30E944F316B017C018E898D
:1047D0009F89B1010E94BB33BC0180E090E00E9440
:1047E000F73120E030E04AE754E40E944F319B016A
:1047F000AC01C701B6010E94AE326B017C01BFA5BE
:104800006B2F70E080E090E00E94F73120E030E014
:1048100040E85BE30E94AE329B01AC01C701B601E8
:104820000E94DE302BED3FE049EC50E40E94AE32B6
:104830000E941B336B017C0120E030E0A9010E9443
:10484000A93287FF0CC020E030E0A901C701B60102
:104850000E944A3187FF05C0EFEFEFAB02C0F1E0E5
:10486000FFABCFA86C2DCC0C770B880B990B0E945B
:10487000F9319B01AC01C501B4010E94AE320E9426
:10488000C131CB01770FAA0BBB0BE0C10E946615AB
:104890006CA37DA38EA39FA30EE1EA88FB880E9DE7
:1048A000F0010F9DF00D1124E651FE4F2185328558
:1048B00039A728A7238D348DA901330F660B770BF9
:1048C0004FA758AB69AB7AAB358D638574857F8B09
:1048D0006E8BA588B688C784D088E188F288038962
:1048E000148924814381AA8DBB8D0D90BC91A02D8C
:1048F000BD8FAC8F8789908DBD0124963FAF2497E3
:104900000E9477151C01EE89FF89BF0180E090E0CD
:104910000E94F7314B015C0124963FAD249760E47F
:10492000630F70E080E090E00E94F73120E030E01B
:1049300040E85BE30E94AE32A50194010E94AE32D2
:104940000E94C8318C8D9D8D860F971F6E897F893F
:104950000E94BB338C01BC0180E090E00E94F731E3
:1049600020E030E04AE754E40E944F316B017C01C3
:1049700020E030E0A9010E94A93287FD3CC020E080
:1049800030E04AE754E4C501B4010E944F316C8F16
:104990007D8F8E8F9F8F20E030E040E05FE30E94AC
:1049A000AE329B01AC01C701B6010E944A3187FFBC
:1049B00022C0B101032C000C880B990B0E94F93125
:1049C00020E030E040E850E40E94AE322C8D3D8D76
:1049D0004E8D5F8D0E944F31A70196010E94AE322D
:1049E0000E94C1313194219431086101C60ED71E55
:1049F000D9AEC8AE51C020E030E04AE754E4C5016A
:104A0000B4010E944F314B015C0120E030E040E0F6
:104A10005FE30E94AE329B01AC01C701B6010E9468
:104A2000A93287FD39C0A5019401C701B6010E94D2
:104A30004A3187FF31C0B101032C000C880B990B60
:104A40000E94F93120E030E040E850EC0E94AE32A4
:104A5000A50194010E944F316B017C018E899F89D1
:104A600096958795B801681B790B80E090E00E94CD
:104A7000F73120E030E04AE754E40E944F319B01D7
:104A8000AC01C701B6010E94AE320E94C131710172
:104A9000E60EF71EF9AEE8AE08AD19ADC801110F6C
:104AA000AA0BBB0B2FA538A949A95AA9280F391F52
:104AB0004A1F5B1FA8A5B9A50E9499302FEF3FE7B9
:104AC00040E050E00E947A30CA01B9010E94F931F9
:104AD0002CA13DA14EA15FA10E944F310E94C13186
:104AE0009B01AC01A0916503B0E00E94993024E6DF
:104AF00030E040E050E00E947A30420E531E641EC7
:104B0000751E8AC20E9466156C8F7D8F8E8F9F8F57
:104B10004EE12A893B89429FF001439FF00D112409
:104B2000E651FE4F618572857DA36CA3238D348D84
:104B3000C901330FAA0BBB0B88A799A7AAA7BBA7CC
:104B4000358D23843484A588B688C784D088E188CD
:104B5000F2880389148924814381AA8DBB8D0D902D
:104B6000BC91A02DBF8BAE8B8789908DBD01249603
:104B70003FAF24970E9477158C01B10180E090E04F
:104B80000E94F7314B015C0124963FAD249760E809
:104B9000630F70E080E090E00E94F73120E030E0A9
:104BA00040E85BE30E94AE32A50194010E94AE3260
:104BB0000E94C8318E899F89860F971FB1010E947C
:104BC000BB339F8B8E8B82159305D0F5B801012ED8
:104BD000000C880B990B0E94F9319B01AC010E94DB
:104BE000DE306B017C0120E030E04AE754E4C5018F
:104BF000B4010E944F319B01AC01C701B6010E9474
:104C00004F314B015C01CE88DF88B60180E090E037
:104C10000E94F73120E030E04AE754E40E944F312F
:104C20009B01AC01C501B4010E94AE320E94C131AA
:104C30001195019511097801E60EF71EFFAEEEAE53
:104C40000EAD1FADC801110FAA0BBB0B28A539A5CE
:104C50004AA55BA5280F391F4A1F5B1FACA1BDA148
:104C60000E9499302FEF3FE740E050E00E947A30F9
:104C7000CA01B9010E94F9312C8D3D8D4E8D5F8D99
:104C80002BCF0E9466156C8F7D8F8E8F9F8F4EE18C
:104C90002A893B89429FF001439FF00D1124E65180
:104CA000FE4F618572857DA36CA3238D348DC90170
:104CB000330FAA0BBB0B88A799A7AAA7BBA7358D53
:104CC00023843484A588B688C784D088E188F28894
:104CD0000389148924814381AA8DBB8D0D90BC91D9
:104CE000A02DBF8BAE8B8789908DBD0124963FAFE1
:104CF00024970E9477158C01B10180E090E00E941A
:104D0000F7314B015C0124963FAD249760E8630FB7
:104D100070E080E090E00E94F73120E030E040E871
:104D20005BE30E94AE32A50194010E94AE320E9464
:104D3000C8318E899F89860F971FB1010E94BB33AE
:104D40009F8B8E8B82159305D0F566277727601B86
:104D5000710B072E000C880B990B0E94F9319B01F7
:104D6000AC010E94DE306B017C0120E030E04AE7BC
:104D700054E4C501B4010E944F319B01AC01C7014D
:104D8000B6010E944F314B015C01CE88DF88B6012D
:104D900080E090E00E94F73120E030E04AE754E400
:104DA0000E944F319B01AC01C501B4010E94AE329B
:104DB0000E94C1317801E60EF71EFDAEECAE0CADDF
:104DC0001DAD40CF8EE16A897B89869FF001879F68
:104DD000F00D1124E651FE4F038D148DA091640354
:104DE000B0E00E94993020E436E040E050E00E94BC
:104DF0007A3069017A0120919503309196034091B0
:104E0000970350919803D8010E94A430DC01CB0194
:104E1000EFE0B595A79597958795EA95D1F7092E77
:104E2000000CAA0BBB0B40918D0350918E03609137
:104E30008F03709190038A019B01081B190B2A0BA9
:104E40003B0BC901B801A6010E947416460E571EFD
:104E5000681E791EE1C08EE16A897B89869FF00118
:104E6000879FF00D1124E651FE4F038D148DA09104
:104E70006303B0E00E94993024E630E040E050E067
:104E80000E947A3069017A01B801110F880B990BE1
:104E90000E94F9312AE939EC4CEC54E40E944F317C
:104EA0009B01AC0168A17CA58DA59EA50E94DD306B
:104EB000A6010E94320762C07EE1C72EAA89BB8983
:104EC000CA9EF001CB9EF00D1124E651FE4F038DDA
:104ED000148DA0916203B0E00E94993024E630E086
:104EE00040E050E00E947A3069017A01B801110F68
:104EF000880B990B0E94F93120E03EEF4FEF56E40A
:104F00000E944F319B01AC016BA97CA98DA99EA980
:104F10000E94DD30A6010E94CA0630C00EE1EA8878
:104F2000FB880E9DF0010F9DF00D1124E651FE4F00
:104F3000038D148DA0916103B0E00E94993024E6A6
:104F400030E040E050E00E947A3069017A01B80117
:104F5000110F880B990B0E94F9312AE939EC4CECBE
:104F600054E40E944F319B01AC0168A17CA58DA542
:104F70009EA50E94DD30A6010E944906092E000C64
:104F8000AA0BBB0B480E591E6A1E7B1E45C00E9411
:104F900066159B01AC018EE16A897B89869FF001D1
:104FA000879FF00D1124E651FE4F838D948DBC0137
:104FB000990F880B990B21962FAF219724963FAF1D
:104FC000249722964FAF229723965FAF23970E9494
:104FD000F93121962FAD219724963FAD2497229643
:104FE0004FAD229723965FAD23970E944F310E94C9
:104FF000C1310E941E069B01AC01A0916503B0E087
:105000000E94993024E630E040E050E00E947A307F
:10501000421A530A640A750A0E94CD1A0091BA0115
:105020001091BB012091BC013091BD01DC01CB018D
:10503000801B910BA20BB30BEA8DFB8D80839183B8
:10504000A283B3830A8D1B8D0C5F1F4F1B8F0A8FAA
:105050002A893B892B30310509F0ECC803C0412C6B
:10506000512C320110918C0311FF3DC00E94661536
:105070009B01AC01E091630367E471E0E69FC0012E
:10508000E79F900D1124BC0180E090E021962FAFA6
:10509000219724963FAF249722964FAF22972396CD
:1050A0005FAF23970E94F93121962FAD2197249667
:1050B0003FAD249722964FAD229723965FAD23975D
:1050C0000E944F310E94C131AB0168A17CA58DA522
:1050D0009EA50E943207092E000CAA0BBB0B480E9E
:1050E000591E6A1E7B1E12FF3DC00E9466159B0161
:1050F000AC01E091620367E471E0E69FC001E79FC5
:10510000900D1124BC0180E090E021962FAF2197F3
:1051100024963FAF249722964FAF229723965FAFF6
:1051200023970E94F93121962FAD219724963FAD08
:10513000249722964FAD229723965FAD23970E9426
:105140004F310E94C131AB016BA97CA98DA99EA9E9
:105150000E94CA06092E000CAA0BBB0B480E591E52
:105160006A1E7B1E13FF3DC00E9466159B01AC01A9
:10517000E091610367E471E0E69FC001E79F900D55
:105180001124BC0180E090E021962FAF2197249656
:105190003FAF249722964FAF229723965FAF239776
:1051A0000E94F93121962FAD219724963FAD249787
:1051B00022964FAD229723965FAD23970E944F31E1
:1051C0000E94C131AB0168A17CA58DA59EA50E945E
:1051D0004906092E000CAA0BBB0B480E591E6A1E6D
:1051E0007B1E4091950350919603609197037091B7
:1051F000980380918D0390918E03A0918F03B091BD
:105200009003CC24DD247601C41AD50AE60AF70AF5
:105210008C159D05AE05BF0534F0481759076A0780
:105220007B070CF045C0B7FD05C0841B950BA60B92
:10523000B70B04C0840F951FA61FB71F80938D0363
:1052400090938E03A0938F03B09390030E946615F2
:105250009B01AC0160E07EEF8FEF96E40E944F313E
:105260006B017C016091600370E080E090E00E943F
:10527000F9319B01AC01C701B6010E94AE3220E0BA
:1052800030E048EC52E40E944F310E94C1316B0182
:105290007C0160918D0370918E0380918F039091BA
:1052A0009003A6010E947416460E571E681E791EB2
:1052B000A091B901B0E0A30192010E94993024E6C7
:1052C00030E040E050E00E947A30CA01B9010E940B
:1052D0001E066B017C0114FF04C00E940A180E9484
:1052E000AF17C0926E03D0926F03E0927003F092FA
:1052F0007103609191037091920380919303909157
:1053000094030E94F9316B017C016091520370910A
:10531000530380915403909155030E94F9319B01EE
:10532000AC0160E07FEF8FE797E40E944F319B0173
:10533000AC01C701B6010E94AE320E94C1312B01FF
:105340003C01611570488105910534F044244A946C
:105350006FE7562E612C712C411440E854064FEF34
:105360006406740634F4412C50E8552E66246A9481
:10537000762C409291035092920360929303709224
:1053800094038EE693E00E94C611C0907E03D090F5
:105390007F03DB8ECA8E8091800390918103C816B3
:1053A000D90624F4D0928103C092800380918203B5
:1053B00090918303EA8CFB8C8E159F0524F4F09268
:1053C0008303E0928203009184031091850320916E
:1053D00086033091870308A319A32AA33BA38091D6
:1053E000880390918903092E000CAA0BBB0B0817A8
:1053F00019072A073B0724F41093890300938803B5
:1054000080918A0390918B03092E000CAA0BBB0B91
:10541000C8A0D9A0EAA0FBA08C159D05AE05BF05CC
:1054200024F4D0928B03C0928A03209178033091A8
:10543000790380917A0390917B032817390724F42C
:1054400030937B0320937A0380917C0390917D03BA
:105450008217930724F430937D0320937C030091FB
:105460007203109173038091740390917503081770
:10547000190724F410937503009374038091760345
:10548000909177038017910724F41093770300938A
:10549000760320906C0330906D03C0908003D09011
:1054A0008103C20CD31CE12CF12C80907A039090E4
:1054B0007B03820C931CA12CB12CC901330FAA0BC6
:1054C000BB0B9C01AD01281939094A095B09AFEFF3
:1054D000BFE00E94993020917C0330917D03221916
:1054E000330940E050E0281939094A095B090E9454
:1054F0007A302A8B3B8B4C8B5D8B80907403909021
:105500007503820C931CA12CB12CC801110FAA0B9E
:10551000BB0B9C01AD01281939094A095B09AFEFA2
:10552000BFE00E94993020917603309177032219D1
:105530003309890120E030E0A901980128193909CF
:105540004A095B090E947A3049015A010A8D1B8D74
:10555000C801110FAA0BBB0B9C01AD012C193D0911
:105560004E095F09AFEFBFE00E949930209182039E
:105570003091830322193309890120E030E0A90129
:1055800098012C193D094E095F090E947A30890162
:10559000011520E1120714F00FEF1FE017FF02C002
:1055A00000E010E010937F0300937E03CA88DB883D
:1055B000C11420E1D20624F04FEF5FE05B8B4A8BF1
:1055C000CA88DB88D7FE02C01B8A1A8AEA88FB8851
:1055D000F0927903E0927803811420E1920624F09E
:1055E00088248A944FE0942E97FE02C0812C912C3F
:1055F0009092730380927203C0908803D0908903C5
:10560000C20CD31CE12CF12C28A139A14AA15BA129
:105610002C193D094E095F09AFEFBFEF0E94993089
:1056200020918A0330918B032219330940E050E026
:105630002C193D094E095F090E947A302115310568
:1056400061E04607510524F02FEF3FEF40E050E0C6
:1056500057FF03C020E030E0A9012093840330937A
:105660008503409386035093870389B182958F7099
:1056700091E0892790E0A0E0B0E081709927AA2707
:10568000BB27799B8260789B84604E9B88604F9B90
:105690008061669B80621C9B8064369B8068682F5B
:1056A0006F70613081F0623081F0643081F0683079
:1056B00081F0633081F0663081F0693081F06C30C8
:1056C00081F060E00FC061E00DC063E00BC065E0F9
:1056D00009C067E007C062E005C064E003C068E09D
:1056E00001C066E0807F862B8093680390936903F6
:1056F000A0936A03B0936B03B201705869837A83F5
:105700002B833C830D832A892295207F212B2E8396
:105710004A885B8824E0569447942A95E1F74F82A3
:105720008886282F2295207F2929298734E0B6955D
:10573000A795979587953A95D1F78A871B861C86FA
:105740004CE050E0BE016F5F7F4F84E00E94850B0C
:105750008091FA049091FB04A091FC04B091FD04A7
:1057600080319742A105B10508F4E0C38BEC94E0C9
:105770000E94380E181619060CF0C8C38BEC94E082
:105780000E94FE0DE82F8FE98E0F8A3108F4E05257
:105790008E2F90E0FC01E154F109EA31F10508F0A7
:1057A000B5C3ED59FF4F0C94CF336091B7017091A1
:1057B000B801072E000C880B990B0E940A1880E292
:1057C0000E94A4178091B9010E94651980E20E948D
:1057D000A417809163030E94651980E20E94A417B8
:1057E000809161030E94651980E20E94A417809154
:1057F00066030E94651980E20E94A41780916503E8
:105800000E94651980E20E94A417809164030E949F
:10581000651980E20E94A417809162030E946519B5
:1058200080E20E94A417809167030E94651980E2BC
:105830000E94A417809160030E94651980E20E9473
:10584000A4176091B5017091B60180E090E04AE044
:105850000E94BD1780E20E94A4178091B4010E94AB
:10586000651980E20E94A41780918C030E9465193B
:1058700080E20E94A4176091B2017091B30180E0B0
:1058800090E04AE00E94BD1780E20E94A417609158
:105890005C0370915D0380915E0390915F030E94B1
:1058A0000A1880E20E94A4176091B10170E043C21F
:1058B00083E991E00E946C196AEF70E080E090E06B
:1058C0000E940A1888E991E00E946C198AE991E027
:1058D0000E946C198CE991E00E946C198EE991E0AC
:1058E0000E946C1980EA91E00E946C1982EA91E0B2
:1058F0000E946C1984EA91E00E946C1907C38091A0
:105900000605082E000C990BFFC20E94EA184B01F5
:105910005C018091B2019091B3012091B501309169
:10592000B601821B930B9695879596958795A0E077
:10593000B0E089839A83AB83BC83CE0101960E9439
:10594000C611240135011EEF0E94EA186B017C018B
:105950004616570668067906CCF019821A821B8211
:105960001C82CE0101960E94C61160915203709173
:10597000530380915403909155030E9434188C1462
:105980009D04AE04BF0469F482E00CC06CE271E0D7
:1059900080E090E00E94821A115026013701A1F6A2
:1059A000DCCF81E080930605ADC20E946E196111C3
:1059B00001C061E06093B401A5C28FEF9FE09093B6
:1059C000810380938003109283031092820390934B
:1059D00089038093880310928B0310928A0390931B
:1059E0007B0380937A0310927D0310927C03909343
:1059F000750380937403109277031092760382C22A
:105A00000E94EA1800919503109196032091970344
:105A1000309198032B013C01401A510A620A730A23
:105A20000E946E19643071058105910594F06B0137
:105A30007C0181ECC81687E2D80689E0E806F1040B
:105A40006CF010ECC12E17E2D12E19E0E12EF12CF2
:105A500005C0B4E0CB2ED12CE12CF12CC982DA8226
:105A6000EB82FC826091B7017091B801072E000CA7
:105A7000880B990B0E94F9314B015C01C301B20103
:105A80000E94F931A50194010E94AE322B013C0124
:105A90006091520370915303809154039091550388
:105AA0000E94F9319B01AC01C301B2010E944F3148
:105AB0002B013C01C0925C03D0925D03E0925E0337
:105AC000F0925F03C701B60179C0609195037091B0
:105AD000960380919703909198030E9434182FC1E8
