:100000000C9432040C945A040C9448060C949006F8
:100010000C946C060C945A040C945A040C945A04D4
:100020000C945A040C945A040C94AF090C94520783
:100030000C945A040C945A040C945A040C945A04C8
:100040000C945A040C945A040C945A040C945A04B8
:100050000C945A040C945A040C945A040C94B51839
:100060000C945A040C945A040C945A040C945A0498
:100070000C945A040C945A040C945A040C945A0488
:100080000C945A040C945A040C945A040C945A0478
:100090000C94A90E0C945A040C945A040C945A040F
:1000A0000C945A040C945A040C945A046520C620EB
:1000B0006D22632122231D255E24BE2507263826B6
:1000C0006A26DC26A3261730FC2B782C5D31582DB0
:1000D000EA308D2CDD2D5D315D315D315D315D317D
:1000E0005D31042C8A2C5D31992B932B5D31F42AE0
:1000F000722B882D5D31E52E8A2CF42D0E2E282EA4
:10010000422E5C2E762E8E2E5D315D315D315D315D
:100110005D315D315D315D315D315D31D62EFC2E5D
:10012000162F302F4A2F642F7E2F982FB22F5D313C
:100130005D315D315D315D315D315D315D315D314F
:10014000CC2F2431293106310B315D311031013191
:100150005D311F312E315D315D311A315D315D31DF
:100160005D315D315D311531BB10C010C510CF1050
:10017000191119111911D910E310ED10F71004110C
:1001800019110C115B165E16511655167F167F1647
:100190007F16621666166A16701674167F167A1621
:1001A00005A84CCDB2D44EB93836A9020C50B9913D
:1001B0008688083CA6AAAA2ABE000000803F00004C
:1001C0000000000000002A2B2800000000000000B2
:1001D00000000000000000000000000000002C9E55
:1001E000B4A0A1A2A434A6A7A5AE362D3738271EE9
:1001F0001F20212223242526B333B62EB7B89F848F
:1002000085868788898A8B8C8D8E8F909192939426
:1002100095969798999A9B9C9D2F3130A3AD350464
:1002200005060708090A0B0C0D0E0F101112131406
:1002300015161718191A1B1C1DAFB1B0B500080B05
:100240000002020201000904000001020200000590
:1002500024001001052401010104240206052406DE
:1002600000010705810310004009040100020A0093
:10027000000007050202400000070583024000005D
:10028000090402000203000000092101010001220B
:10029000E104070584034000010705050340000150
:1002A00005010904A10185040901A1000930170015
:1002B00000000027FFFF0000350047FFFF0000752A
:1002C0001095018102093116000027FFFF0000355B
:1002D0000047FFFF000075109501810209321600EA
:1002E0000027FF0F0000350047FF0F0000750C9539
:1002F000018102093316000027FF0F000035004777
:10030000FF0F0000750C95018102093416000027CB
:10031000FF0F0000350047FF0F0000750C950181AD
:10032000020939150125083500463B0165145500C1
:100330007504950181020509150025015500650028
:100340001901291875019518810285F10901150017
:1003500026FF00953F7508918285F20901953F754A
:10036000088182C0050F0992A1028502099F09A098
:1003700009A409A509A61500250135004501750147
:100380009505810295038103099415002501350027
:1003900045017501950181020922150125283501C4
:1003A0004528750795018102C00921A1028501092F
:1003B0002215012528350145287508950191020966
:1003C00025A1020926092709300931093209330913
:1003D000340940094109420943250B1501350145FE
:1003E0000B750895019100C009500954150027FFAD
:1003F000FF0000350047FFFF000066011055FD7546
:10040000109502910255006600000952150026FF62
:100410007F350046FF7F7510950191020953150144
:100420002508350145087508950191020955A10275
:100430000501093009311500250175019502910268
:10044000C0050F095695019102950591030957A121
:10045000020B01000A000B02000A0066140055FEA0
:10046000150026FF7F3500479F8C00007510950111
:1004700091025500660000C0050F09A766011055DE
:10048000FD150027FFFF0000350047FFFF00007546
:1004900010950191026600005500C0050F095AA190
:1004A0000285020922150125283501452875089580
:1004B000019102095B095D150026FF00350046FF2A
:1004C0007F750895029102095C095E66011055FD71
:1004D00026FF7F46FF7F751095029102660000554A
:1004E00000C0095FA10285030922150125283501F5
:1004F000452875089501910209231500250135004D
:1005000045017504950191020958A1020B01000AE9
:10051000000B02000A00750295029102C0096016E4
:10052000008026FF7F36008046FF7F751095019181
:1005300002096136008046FF7F9501910215002671
:10054000FF7F350046FF7F09637510950191020911
:1005500065150026FF0046FF7F750895019102C0D2
:10056000096EA102850409221501252835014528B7
:100570007508950191020970150026FF7F35004628
:10058000FF7F751095019102096F16008026FF7F8D
:1005900036008046FF7F950191020971150026FF04
:1005A00000350046670166140055007508950191F5
:1005B00002097227FFFF000047FFFF0000660110DD
:1005C00055FD7510950191026600005500C0097334
:1005D000A102850509221501252835014528750840
:1005E00095019102097016018026FF7F3601804631
:1005F000FF7F751095019102C00974A1028506095B
:100600002215012528350145287508950191020913
:100610007509761581257F36018046FF7F7508951F
:10062000029102C0050F0977A102850A092215016E
:100630002528350145287508950191020978A10200
:100640000979097A097B150125037508950191003F
:10065000C0097C150026FF00350046FF009102C04E
:100660000990A102850B092215012528350145288D
:10067000750895019102C00996A102850C09970998
:10068000980999099A099B099C15012506750895F1
:10069000019100C0097DA102850D097E150026FF8C
:1006A000003500461027750895019102C009ABA1DD
:1006B0000285050925A10209260927093009310902
:1006C000320933093409400941094209431501251A
:1006D0000B3501450B75089501B100C00501093BBB
:1006E000150026FF01350046FF01750A9501B1028C
:1006F0007506B101C0050F0989A1028506092225E9
:100700002815013501452875089501B102098BA10D
:1007100002098C098D098E250315013501450375E4
:10072000089501B100C009AC150027FFFF00003596
:100730000047FFFF000075109501B100C0097FA1BF
:10074000028507098075109501150027FFFF00003D
:10075000350047FFFF0000B102098326FF0046FF76
:100760000075089501B10209A909AA75019502153C
:1007700000250135004501B10275069501B103C0A0
:10078000C01803410072006400750069006E006FBC
:100790000020004C004C00430004030904220341E4
:1007A0000072006400750069006E006F0020004C4C
:1007B0000065006F006E006100720064006F00123F
:1007C00001000200000040412336800001010200C8
:1007D00001120100020200004041233680000101A5
:1007E00002000100C18081C1C00000000024002778
:1007F000002A002D00300000000000250028002BFA
:10080000002E003100040404040403040502020263
:100810000204030202020206060606060604040299
:1008200002020404040802011040804010204080AD
:100830004080080204018040201002011080102036
:100840004040200000000200080E000003040100E8
:100850000B0000000000000000000000000000008D
:100860000000773111241FBECFEFDAE0DEBFCDBF2D
:1008700011E0A0E0B1E0E8E1FBE602C005900D92D6
:10088000A83AB107D9F725E0A8EAB1E001C01D9266
:10089000AB36B207E1F714E0C2E3D4E004C021971D
:1008A000FE010E947835C133D107C9F70E94FF18B5
:1008B0000C948A350C9400008C30F8F4282F30E02A
:1008C0009EE1899FF0011124E651FE4F908199230A
:1008D000A1F090819D7F9083F901ED53FC4F9581AC
:1008E00091110BC0E091A901F091AA010084F1855A
:1008F000E02D09951092D30308950895FC01CB01D2
:100900002091E80022FFFCCF282F215028F03091C1
:10091000F10030833196F9CF24E62093B7032BEF13
:100920002093E80008950F931F93CF93DF93DB018B
:10093000A40FB51FFB016EEFEA17FB0791F187FFCC
:1009400002C0249101C020810091BB031091BC031F
:10095000C091B903D091BA030C171D07B4F490915C
:10096000E8009570E1F39091E80092FD1CC020939F
:10097000F1002091BB033091BC032F5F3F4F2F73D9
:100980003327232B11F46093E8002091BB033091AF
:10099000BC032F5F3F4F3093BC032093BB033196C2
:1009A000CBCFCA0102C08FEF9FEFDF91CF911F9194
:1009B0000F910895CF93DF9300D000D01F92CDB751
:1009C000DEB7FC0181819081913A29F5813009F0EF
:1009D000BCC08281863051F445E050E06EEB73E09C
:1009E00080E40E9493041092BE03AFC0873009F0E8
:1009F000ACC089838FEF9FEF9B838A838BE08C83CE
:100A000083E08D8345E050E0BE016F5F7F4F80E45F
:100A10000E9493049AC0913209F097C0893009F07E
:100A200094C08281853009F090C064E070E0CE010E
:100A300001960E947E0486E08093BE0380910F01A0
:100A40008B3021F1A0910F0181E08A0F80930F017B
:100A50009EE1E0910F019E9FF0011124E651FE4FAF
:100A60008081882351F080910F018B3030F4809188
:100A70000F018F5F80930F01ECCF8EE1A89FF001F3
:100A80001124E651FE4F81E0808301C0A0E0A093D5
:100A9000BF03A11104C082E08093C00350C0109234
:100AA000440581E08093C0038A819EE1A99FD00123
:100AB0001124A651BE4F11968C9311978FEF9FEF83
:100AC00050969C938E931F9754961C921E92539708
:100AD00052961C921E92519713968C9313971496CC
:100AE0008C93149756961C921E9255971E961C92A4
:100AF0001E921D9716961C9216978FEF9FE71A96D7
:100B00009C938E93199758961C921E9257975C96B9
:100B10001C921E925B975D961C925D9788EE93E007
:100B20001C969C938E931B97E091A901F091AA01CA
:100B30000684F785E02DBD01CE01019609958FEF62
:100B40009FEF9093C2038093C10381E00F900F90B9
:100B50000F900F900F90DF91CF91089542E450E0F5
:100B60006EE372E080E80E94930440E250E060E8A7
:100B700072E080E80E94930483E090E00895EF9291
:100B8000FF921F93CF93DF93EC01162FE881F98139
:100B90000480F581E02D09957C01E881F9810680CA
:100BA000F781E02D612FCE010995C7019927DF91CB
:100BB000CF911F91FF90EF900895FC01918180816A
:100BC000813A29F49D7F81E0913091F414C0813203
:100BD00079F49A3049F09B3019F0993049F40AC001
:100BE000828180930E0106C0828180930D0102C034
:100BF00080E0089581E008958C30F0F49EE1899FB3
:100C0000F0011124E651FE4F80818823A9F08081F4
:100C1000826080838091D30381110EC00E94F617F9
:100C20006093BA017093BB018093BC019093BD01A6
:100C300081E08093D30308950895CF92DF92EF92DD
:100C4000FF920F931F938B019C014091B201509131
:100C5000B3016A01E12CF12C66277727CB016C19CF
:100C60007D098E099F0906171707280739074CF0D9
:100C7000C901B801C016D106E206F30614F4C70193
:100C8000B6011F910F91FF90EF90DF90CF900895E4
:100C90001F920F920FB60F9211248F939F93AF93D1
:100CA000BF938091560390915703A0915803B09140
:100CB0005903F8948093980490939904A0939A040C
:100CC000B0939B047894BF91AF919F918F910F90B7
:100CD0000FBE0F901F9018951F920F920FB60F9294
:100CE00011242F933F934F935F936F937F938F9331
:100CF0009F93AF93BF93EF93FF930E949316FF913F
:100D0000EF91BF91AF919F918F917F916F915F9183
:100D10004F913F912F910F900FBE0F901F901895FC
:100D20001F920F920FB60F9211242F933F934F9360
:100D30005F936F937F938F939F93AF93BF93EF9343
:100D4000FF930E949316FF91EF91BF91AF919F91F6
:100D50008F917F916F915F914F913F912F910F9064
:100D60000FBE0F901F901895CF92DF92EF92FF92D7
:100D70000F931F93CF93DF931F92CDB7DEB7F82E5B
:100D8000E42E8B01C82ED92E8C2D8F198E1588F448
:100D9000F80161918F01C60169830E940D3269815A
:100DA000681719F0C6010E941532FFEFCF1ADF0A4B
:100DB000EBCF0F90DF91CF911F910F91FF90EF90AC
:100DC000DF90CF900895CF92DF92EF92FF920F9332
:100DD0001F93CF93DF931F92CDB7DEB78B016B01CB
:100DE0007C01E61AF70A9C2D901B941758F4C70152
:100DF0008C0D9D1D49830E940D32F60181936F0178
:100E00004981F1CF0F90DF91CF911F910F91FF900A
:100E1000EF90DF90CF9008958F929F92AF92BF9204
:100E2000CF92DF92EF92FF9240E050E020E0682FF7
:100E300070E0812C912C54018394FA013296DB01ED
:100E400002C0B595A795EA95E2F775016401042EF5
:100E500004C0CC0CDD1CEE1CFF1C0A94D2F7A0FFD2
:100E600002C02C2902C0C0942C214F5F5F4F443038
:100E7000510519F730E0220F331FF901EC5CFE4FEA
:100E800080FF05C0808191819695879502C0808101
:100E90009181FF90EF90DF90CF90BF90AF909F90A7
:100EA0008F9008951F920F920FB60F921124EF9218
:100EB000FF921F932F933F934F935F936F937F9373
:100EC0008F939F93AF93BF93EF93FF93CF93DF9352
:100ED000CDB7DEB76197DEBFCDBF1092E90080913C
:100EE000E80083FF59C1FE013A96CF0128E02E0F9A
:100EF0002E1729F03091F10030833196F9CF24E696
:100F00002093B70322EF2093E8002A8527FF05C02E
:100F10003091E80030FFFCCF03C03EEF3093E80093
:100F2000322F307609F0C5C08B85811105C0109233
:100F3000F1001092F10029C1982F9D7F913009F4A2
:100F400024C1853049F48091E80080FFFCCF8C8576
:100F500080688093E30019C1863009F07CC01D854C
:100F6000E888F9881092E9001092BC031092BB0344
:100F7000123091F51092BA031092B9030E94AE0597
:100F800099E0BE016F5F7F4FFB01292F11922A95D7
:100F9000E9F799831A8391E09E8390E898879AEF06
:100FA00099872091BB033091BC03275F3F4F3C835F
:100FB0002B838D831092E9001092BC031092BB0327
:100FC000F092BA03E092B90349E050E080E00E9459
:100FD00093040E94AE05D9C0F092BA03E092B9031F
:100FE000123259F441EE54E060EA72E080E80E9467
:100FF0009304892B09F0C9C0CCC0113069F48889E9
:101000009989089711F41093B8038091B80381115E
:1010100011C06FEB77E016C0133009F0BAC08C85B1
:10102000882359F0823061F0813009F0B2C061E864
:1010300077E008C061ED77E005C069E977E002C0BC
:101040006DE977E06115710509F4A3C0FB014491D6
:1010500050E080E849C0873009F49BC0883021F413
:1010600081E08093F10091C0893009F08EC0237037
:1010700009F08FC080E090E031E026E341E0480FC6
:101080004093E9003093EB000196FC01ED51F84FDD
:10109000E491E093EC002093ED008530910571F729
:1010A0008EE78093EA001092EA008C858093A80175
:1010B0006CC0288939891092E9001092BC03109203
:1010C000BB033093BA032093B9032E85211154C07A
:1010D0008B859A85913A59F4813209F05AC047E0DC
:1010E00050E060E171E080E00E9493044EC09132D4
:1010F00009F04FC0803239F467E070E080E191E0A0
:101100000E947E0442C0823209F043C08C858093E5
:1011100017018091100190911101A0911201B091DD
:101120001301803B9440A105B10579F58091170129
:1011300080FD11C087E797E790930108809300082E
:101140009BE088E10FB6F894A895809360000FBEED
:10115000909360001AC00FB6F894A8958091600033
:10116000886180936000109260000FBEA895109275
:1011700001081092000809C0223059F4E091450599
:10118000F09146050995882321F08EEF8093E800C1
:1011900003C081E28093EB0061960FB6F894DEBF46
:1011A0000FBECDBFDF91CF91FF91EF91BF91AF9176
:1011B0009F918F917F916F915F914F913F912F916F
:1011C0001F91FF90EF900F900FBE0F901F901895FA
:1011D0008F929F92AF92BF92CF92DF92EF92FF9247
:1011E0000F931F93CF93DF9300D01F92CDB7DEB73D
:1011F000382F8B018091A801882389F04A018AEF5A
:10120000F82E832F8770E82E90E4C92E832F8072EA
:10121000B82E2AE3D22E832F8074A82E21C08FEF00
:101220009FEF5FC08FB7F894E092E9009091E800DB
:1012300095FF1AC09091F2002C2D291B8FBF211110
:1012400015C0FA94FF2059F361E070E080E090E06F
:1012500039834A835B830E94D01739814A815B813D
:1012600081149104F9F634C020E0E8CF822F90E099
:10127000881699060CF4282D822F90E0881A990A76
:101280006FB7F894E092E900BB2029F02150A8F054
:101290001092F100FBCFF80137FF07C0215058F042
:1012A00074917093F1003196F9CF215020F0719133
:1012B0007093F100FACF080F191F8091E80085FFA5
:1012C0000DC08114910411F4A11008C06FBFC8CFE4
:1012D0005D9884E68093BD03CA0103C0D092E80004
:1012E000F5CF0F900F900F90DF91CF911F910F913D
:1012F000FF90EF90DF90CF90BF90AF909F908F9036
:1013000008959091A801992311F057FF03C08FEF22
:101310009FEF08952FB7F89487708093E90080912C
:10132000F20090E0841795070CF4AC01842FFB01C8
:1013300094E6815030F09093B7033091F1003193EF
:10134000F8CF4115510521F08091F200882319F062
:101350002FBFCA0108958BE68093E800F9CF1F9252
:101360000F920FB60F9211242F933F934F935F93D9
:101370006F937F938F939F93AF93BF93EF93FF935D
:10138000CF93DF93CDB7DEB7C054D109DEBFCDBF59
:101390008091E1001092E10083FF0FC01092E900FC
:1013A00091E09093EB001092EC0092E39093ED00AB
:1013B0001092A80198E09093F00082FF46C083E06D
:1013C0008093E9008091F200882319F08AE38093EA
:1013D000E8009FB7F89482E08093E9008091F200E2
:1013E0009FBF882321F08DE994E00E946E0E9FB785
:1013F000F89485E08093E9008091F2009FBF8823F4
:10140000C1F08091470590914805892B91F040E407
:1014100050E0BE016F5F7F4F85E00E94810997FD1C
:1014200008C0E0914705F0914805BC01CE01019646
:1014300009958091BD03882341F08091BD038150BF
:101440008093BD03811101C05D9AC05CDF4F0FB670
:10145000F894DEBF0FBECDBFDF91CF91FF91EF912A
:10146000BF91AF919F918F917F916F915F914F91BC
:101470003F912F910F900FBE0F901F901895EF92F4
:10148000FF920F931F93CF93DF931F92CDB7DEB7D9
:1014900089838B017A0141E050E0BE016F5F7F4F8D
:1014A00084E00E94E808A701B80184E40E94E808EB
:1014B0000F90DF91CF911F910F91FF90EF900895C2
:1014C0001F93CF93DF93DC0111961C9111979C9190
:1014D000953009F467C060F5923009F443C0A8F470
:1014E000913009F04DC1E091A901F091AA012EE1DE
:1014F000129FB001112466517E4F028CF38DE02DB6
:10150000CD01DF91CF911F9109949330C9F19430AF
:1015100009F036C1E091A901F091AA012EE1129FD4
:10152000B001112466517E4F0488F589E02D35C045
:101530009B3009F49DC038F4963009F441C09A30CC
:1015400009F44CC01DC19C3009F4CBC0913F09F097
:1015500017C140E450E0BD0182EFDF91CF911F91B0
:101560000C943F0AE091A901F091AA013EE1139F7A
:10157000B001112466517E4F0088F189E02D0DC025
:10158000E091A901F091AA018EE1189FB001112408
:1015900066517E4F0288F389E02DCD01DF91CF9116
:1015A0001F910994E091A901F091AA013EE1139FD6
:1015B000B001112466517E4F0688F789E02DEDCFEA
:1015C000E091A901F091AA018EE1189FB0011124C8
:1015D00066517E4F008CF18DE02DDFCF1F3F09F467
:1015E0001FE712969C91913099F4812F0E94FC057F
:1015F000E12FF0E0ED53FC4F85818111C1C0E091F6
:10160000A901F091AA010680F781E02D812F47C042
:10161000923029F5C1E08C2F0E945C04CF5FCC3062
:10162000D1F7C12FD0E0CD53DC4F8D81811109C09E
:10163000E091A901F091AA010084F185E02D8FE7E6
:101640000995812F0E94FC058D81811199C0E0913F
:10165000A901F091AA010680F781E02D1FC0933007
:1016600009F08EC0812FDF91CF911F910C945C0403
:1016700081E01F3FC1F480930F0188E691E0EAEE1C
:10168000F1E0DF019C011D9221503040E1F7E09133
:10169000A901F091AA010284F385E02D8FE7DF9183
:1016A000CF911F910994809344051C3008F068C0C5
:1016B0003EE1139FF0011124E651FE4F108280910C
:1016C0000F01181710F410930F01E091A901F09188
:1016D000AA010284F385E02D812F09951092D3038E
:1016E0004FC082E08093D4039091D503946090938F
:1016F000D5039091D50390619093D5031092D603B2
:101700001330B1F040F4113079F01230C9F5809106
:10171000D503826033C0153071F1B0F0163081F519
:101720008091D5038E7F2AC08091D5038D7F26C0FE
:10173000E091A901F091AA010480F581E02D80E0FB
:1017400009951092D6031CC0E091A901F091AA015D
:101750000480F581E02D81E0099581E080930F01FF
:1017600088E691E0EAEEF1E0DF019C011D92215054
:101770003040E1F705C08091D50381608093D503A7
:10178000DF91CF911F910895DC01683810F06858FF
:1017900025C0E62FF0E067FF12C0E058F10981E0B4
:1017A00090E001C0880FEA95EAF7809514969C9125
:1017B0001497892314968C93149760E00FC0E25419
:1017C000FE4F6491662311F167FF08C014968C9157
:1017D00014978D7F14968C9314976F77FD0136962E
:1017E00086E0662321F09081961301C0108281501B
:1017F00031968111F6CFBD016C5F7F4F48E050E01C
:1018000082E00E943F0A81E090E0089580E090E04D
:101810000895FC011682178210861186128613869F
:101820001482BC016C5F7F4F48E050E082E00C9472
:101830003F0ADC01683810F068582DC0E62FF0E050
:1018400067FF11C0E058F10981E090E001C0880F06
:10185000EA95EAF714969C911497892B14968C9329
:10186000149760E018C0E254FE4F6491611109C002
:1018700081E090E013969C938E93129780E090E025
:10188000089567FF08C014968C911497826014968F
:101890008C9314976F7716968C911697861751F143
:1018A00017968C911797861729F118968C9118978F
:1018B000861701F119968C9119978617D9F01A9607
:1018C0008C911A978617B1F01B968C911B978617EF
:1018D00089F0FD01369680E090E02191211105C04C
:1018E000FD01E80FF91F668305C00196863091055A
:1018F000A1F7BECFBD016C5F7F4F48E050E082E0B2
:101900000E943F0A81E090E00895CF92DF92EF922B
:10191000FF920F931F93CF93DF936C01EB017B0139
:10192000E40EF51E00E010E0CE15DF0561F06991D0
:10193000D601ED91FC910190F081E02DC601099551
:10194000080F191FF1CFC801DF91CF911F910F919F
:10195000FF90EF90DF90CF90089583E08093E900AF
:101960008091F200882319F08AE38093E8000895BB
:101970002091920430919304809194049091950465
:1019800028173907A9F0E0919404F0919504EE5AD4
:10199000FB4F808120919404309195042F5F3F4F3D
:1019A0002F733327309395042093940490E0089587
:1019B0008FEF9FEF089520919204309193048091CE
:1019C0009404909195042817390749F0E091940404
:1019D000F0919504EE5AFB4F808190E008958FEFCF
:1019E0009FEF089580919204909193042091940424
:1019F00030919504821B930B8F739927089585ED81
:101A00008093BC008091BC0084FDFCCF10922C041C
:101A1000089540910604262F30E0240F311D213215
:101A20003105DCF420912C042430C9F4FC0180E061
:101A300090E0861758F4309106042191DC01AC51F6
:101A4000BC4FA30FB11D2C930196F3CF80910604D8
:101A5000680F6093060480E0089581E0089582E0B5
:101A6000089508958FEF9FEF08958FEF9FEF0895EA
:101A70008091E30390E09195819591090895CF932A
:101A8000DF9300D0CDB7DEB7CB01642F49835A83F3
:101A90000E94090D4981842F5A81952F0F900F9034
:101AA000DF91CF910895CF93DF931F92CDB7DEB72B
:101AB000698361E0CE0101960E94090D81E090E00A
:101AC0000F90DF91CF9108950895CF93DF93FC019C
:101AD000EB01718182818983878190859A878987CB
:101AE00025853685438154816EE1769FC00111249E
:101AF00086519E4FDC0150965C934E931F975696ED
:101B00003C932E93559764E0769FD0011124A65400
:101B1000BE4F1D921D921D921C9213978385948532
:101B20009E878D8782858E8381E0DF91CF91089596
:101B3000FC012281FB012783FC018381FB0180875B
:101B40000895FC0182819381FB01908F878B08951A
:101B5000DC01FB0112968D919C911397908F878BDE
:101B600014968D919C911597948F838F16968C91D6
:101B70001697858F17968D919C91189794878387D8
:101B80000895DC01FB0112968C9112978283828169
:101B9000811110C015968D919C911697908F878B0F
:101BA00013968D919C911497948F838F17968C9197
:101BB0008583089582810895DC01FB0112968C9142
:101BC0001297838313968C911397848314968D9127
:101BD0009C911597948B838B16968D919C9117975A
:101BE000928B818B08959EE1899FF0011124E6512B
:101BF000FE4F708B6787568B458B94E0899FF00171
:101C00001124E654FE4F108211821282138208952D
:101C1000089508951092440524E0829FC001112484
:101C2000FC01E654FE4F1082118212821382089545
:101C300025E0FC0120838EE491E0089508958093CF
:101C400044050895CF92DF92EF92FF926091B70121
:101C50007091B801072E000C880B990B0E94A233DB
:101C60006B017C0160915203709153038091540386
:101C7000909155030E94A2339B01AC01C701B601AC
:101C80000E94F832FF90EF90DF90CF9008950E946D
:101C900085350F931F93CF93DF931F92CDB7DEB798
:101CA0008C01698380911701882359F041E050E04D
:101CB000BE016F5F7F4F83E00E94E8081816190687
:101CC0003CF081E090E0F8019383828380E090E033
:101CD0000F90DF91CF911F910F9108950F931F9354
:101CE000CF93DF931F92CDB7DEB70091920410918E
:101CF00093040F5F1F4F0F731127809194049091ED
:101D0000950408171907F9F041E050E0BE016F5F34
:101D10007F4F82E00E948109019719F4898190E048
:101D200002C08FEF9FEF8F3F2FEF920761F0E0919E
:101D30009204F0919304EE5AFB4F80831093930426
:101D400000939204D2CF0F90DF91CF911F910F910A
:101D500008951F920F920FB60F9211242F933F9365
:101D60004F935F936F937F938F939F93AF93BF93A3
:101D7000EF93FF938091B900887F803609F49CC06F
:101D800068F5883209F45BC090F4803109F454C0DE
:101D900038F4882309F4F6C0883009F44DC0F6C041
:101DA000883109F44CC0803209F45DC0EFC0803442
:101DB00009F468C048F4803309F455C0883309F049
:101DC000E5C080932B04D8C0803509F44FC0883516
:101DD00009F45DC0883409F0D9C0D6C0883909F447
:101DE000C7C0A8F4883709F467C038F4883609F406
:101DF00063C0803709F460C0C9C0883809F4B8C02E
:101E0000803909F45FC0803809F0C0C05BC0803BF6
:101E100009F486C038F4803A09F466C0883A09F4B7
:101E20007FC0B4C0803C09F4A7C0883C09F4A4C0BA
:101E3000883B09F48AC0AAC08091510410C09091D7
:101E4000500480914F04981770F5E091500481E0A0
:101E50008E0F80935004F0E0E15DFB4F8081809312
:101E6000BB0085EC86C080932B048EC0E0915004AB
:101E700081E08E0F809350048091BB00F0E0E15D23
:101E8000FB4F80839091500480914F046EC0E0918D
:101E9000500481E08E0F809350048091BB00F0E0ED
:101EA000E15DFB4F808380912E0481116DC081E044
:101EB00080932D0484EA61C083E080932C04109207
:101EC0002A04CFCF80912A04803208F051C0E091DB
:101ED0002A0481E08E0F80932A048091BB00F0E0F9
:101EE000E65FFB4F8083BDCF85EC8093BC001092F2
:101EF0002C0480912A04803230F4E0912A04F0E02E
:101F0000E65FFB4F108260912A0470E0E0910804C4
:101F1000F09109048AE094E0099510922A0436C0F1
:101F200084E080932C041092070410920604E09140
:101F30000404F0910504099580910604811105C0FF
:101F400081E0809306041092E403E091070481E0AD
:101F50008E0F80930704F0E0EC51FC4F808180935A
:101F6000BB009091070480910604981708F479CF7C
:101F700085E88093BC000AC085EC8093BC00109279
:101F80002C0404C010922B040E94FF0CFF91EF91CF
:101F9000BF91AF919F918F917F916F915F914F9181
:101FA0003F912F910F900FBE0F901F901895209189
:101FB000AB013091AC012817390708F4C90190939F
:101FC0008B0080938A0008952091AB013091AC0181
:101FD0002817390708F4C901909389008093880075
:101FE00008954F925F926F927F928F929F92AF92DD
:101FF000BF92CF92DF92EF92FF920F931F93CF93F6
:10200000DF93CDB7DEB760970FB6F894DEBF0FBE93
:10201000CDBF009709F46DC38C016091B90170E0E8
:1020200080E090E00E94A2332AE037ED43E25CE3D7
:102030000E94573469837A838B839C83F801808064
:102040009180A280B380B7FE08C0B094A094909411
:102050008094811C911CA11CB11CC501B4010E947B
:10206000A2336B017C016091B2017091B30180E0F9
:1020700090E00E94A0332B013C0126E636E646E6BE
:102080005FE30E94573429813A814B815C810E9431
:1020900057346D837E838F8398879B01AC01C70182
:1020A000B6010E94523487FDCAC0A3019201698122
:1020B0007A818B819C810E94573469877A878B87CC
:1020C0009C8720E030E040E85FE30E9486329B017D
:1020D000AC01C701B6010E94F33287FFB0C06D8129
:1020E0007E818F8198850E946A336B017C01A501F6
:1020F0009401261B370B480B590BAEE3B0E00E944E
:1021000042324B015C0169857A858B859C850E94F2
:102110006A339B01AC012C193D094E095F09C501C9
:10212000B4010E94233269017A01FFEFCF1ADF0A5E
:10213000EF0AFF0A560161E08DE00E946F17C1149B
:10214000D10411F480E005C08FEFC816D10421F44A
:1021500081E00E9439168AC0E0E5F8E0E4918E2F14
:1021600090E0FC013197EE30F10508F062C0EC54CC
:10217000FF4F0C94783584B5806884BDC7BC76C0A9
:1021800084B5806284BDC8BC71C0809180008068C5
:1021900080938000D0928900C092880067C08091AF
:1021A0008000806280938000D0928B00C0928A0071
:1021B0005DC080919000806880939000D0929900DB
:1021C000C092980053C080919000806280939000EC
:1021D000D0929B00C0929A0049C080919000886084
:1021E00080939000D0929D00C0929C003FC080914F
:1021F000C00080688093C0008091C0008F7B809376
:10220000C000C092CF0032C08091C0008062809335
:10221000C000C092D0002AC08091C2008860809324
:10222000C2008091C2008B7F8093C200C092D20016
:102230001DC0E0E8AE16B1040CF08ACF83CFA30135
:10224000920169817A818B819C810E94573420E0C0
:1022500030E040E85FE30E9486329B01AC01C70199
:10226000B6010E94523487FD6DCF72CF6091B401E8
:1022700070E060587109072E000C880B990B0E94C2
:10228000A23320E030E04FE753E40E94F8326B01C4
:102290007C016093DF037093E0038093E1039093EC
:1022A000E20320E030E0A9010E94523487FD1DC006
:1022B000A701960160E070E080E89FE30E9486320B
:1022C0006093DB037093DC038093DD039093DE0364
:1022D00080E090E0A0E8BFE38093D7039093D80319
:1022E000A093D903B093DA0323C020E030E0A90122
:1022F000C701B6010E94F33287FF1AC080E090E068
:10230000A0E8BFE38093DB039093DC03A093DD039D
:10231000B093DE039C01AD01C701B6010E94873274
:102320006093D7037093D8038093D9039093DA0313
:102330009091B101F801C080D180E280F380892FB3
:10234000807491FDEAC0811195C01C141D041E0407
:102350001F04E4F54090B2015090B3012091B50103
:102360003091B6014901A12CB12C612C712CC30113
:10237000B2010E94A0332091D7033091D80340913D
:10238000D9035091DA030E9457340E946A336819C6
:1023900079098A099B09A70196010E945435A30176
:1023A00092010E942332DA01C901880D991DAA1DEC
:1023B000BB1DF80180839183A283B38380E090E00A
:1023C0000E94E40FF8018081918146C0C114D104BC
:1023D000E104F10409F444C04090B2015090B3010B
:1023E0008091B5019091B6014C01A12CB12CF094D3
:1023F000E094D094C094C11CD11CE11CF11C612C50
:10240000712CC301B2010E94A0332091DB033091F3
:10241000DC034091DD035091DE030E9457340E949B
:102420006A33681979098A099B09A70196010E94F4
:102430005435A30192010E942332DA01C901880DAB
:10244000991DAA1DBB1DF80180839183A283B383CC
:102450000E94E40F80E090E00E94D70F2F9A49C1BC
:1024600080E090E00E94E40F80E090E00E94D70FAF
:102470002F983FC1E091B201F091B3011C141D04EB
:102480001E041F04DCF44F01969487948091B501DB
:102490009091B601880E991EA12CB12C2F01612CB0
:1024A000712CC301B201681979098A099B09A70136
:1024B00096010E945435A301920119C0C114D104A0
:1024C000E104F10411F14F01969487948091B501D4
:1024D0009091B601881A990AA12CB12CA5019401FA
:1024E000C701B6010E9454359F0140E050E00E94B0
:1024F0002332DA01C901880D991DAA1DBB1DF801FF
:1025000080839183A283B38303C0CF01969587957F
:102510000E94E40F80E090E0D4C0811133C0F7FC4A
:1025200002C02F9A01C02F988091B5019091B601F9
:102530006C01E12CF12C8090B2019090B301A12CA0
:10254000B12CF801208131814281538157FF07C0AE
:1025500050954095309521953F4F4F4F5F4FC501A6
:10256000B4016C197D098E099F090E945435A5019B
:1025700094010E942332DA01C9018C0D9D1DAE1D0C
:10258000BF1D81C01C141D041E041F046CF520E037
:1025900030E040E85FE36091AD017091AE01809161
:1025A000AF019091B0010E948732209104013091D7
:1025B000050140910601509107010E9457340E9485
:1025C0006A334B015C0160910001709101018091BF
:1025D0000201909103010E946A33681979098A09FE
:1025E0009B09A70196013FC0C114D104E104F10485
:1025F00009F44FC02091AD013091AE014091AF017F
:102600005091B00160E070E080E89FE30E94863264
:10261000209104013091050140910601509107017C
:102620000E9457340E946A334B015C0122273327F2
:10263000A9012C193D094E095F09609108017091AB
:10264000090180910A0190910B012D873E874F87E8
:10265000588B0E946A33681979098A099B092D856C
:102660003E854F8558890E9454352091B2013091A2
:10267000B30140E050E00E942332DA01C901880D25
:10268000991DAA1DBB1DF80180839183A283B3838A
:102690000BC0609104017091050180910601909139
:1026A00007010E947133CB010E94E40F6091040185
:1026B0007091050180910601909107010E9471338C
:1026C000CB0160960FB6F894DEBF0FBECDBFDF9191
:1026D000CF911F910F91FF90EF90DF90CF90BF901F
:1026E000AF909F908F907F906F905F904F900C94E1
:1026F000D70F60960FB6F894DEBF0FBECDBFDF9147
:10270000CF911F910F91FF90EF90DF90CF90BF90EE
:10271000AF909F908F907F906F905F904F900895B3
:102720006091AB017091AC0180E090E00E94A03319
:102730009B01AC0160E07EEF8FEF96E40E94F832DF
:1027400008952F923F924F925F926F927F928F9255
:102750009F92AF92BF92CF92DF92EF92FF920F9330
:102760001F93CF93DF93CDB7DEB729970FB6F894B9
:10277000DEBF0FBECDBF998788874B012B831D839A
:102780000C831701DF82CE82042F10E08C819D81A3
:102790006C01E12CF12CE885F985F7FD2BC0C8010F
:1027A0009695982F882797958795BF01681B790B79
:1027B000072E000C880B990B0E94A2332B013C01C1
:1027C000C701B6010E94A0339B01AC01C301B20155
:1027D0000E94F8322B013C01C8019695982F88275A
:1027E000979587959A838983EB8190E8E99FB0015B
:1027F00011242AC0B8017695762F662777956795BC
:10280000E885F9856E0F7F1F072E000C880B990B4A
:102810000E94A2332B013C01C701B6010E94A033E4
:102820009B01AC01C301B2010E94F8322B013C01B3
:1028300060E86003C001619F900D11249A83898331
:102840002B816203B001112488859985681B790B5F
:10285000072E000C880B990B0E94A2336B017C01A0
:10286000B10180E090E00E94A0339B01AC01C70160
:10287000B6010E94F8326B017C018A149B0408F4B3
:102880003FC08E819F818A0D9B1D88169906C0F5D9
:102890000C811D810A0D1B1D8016910690F4B40158
:1028A0006A197B0980E090E00E94A0339B01AC0193
:1028B000C301B2010E9457340E946A3389819A8110
:1028C0001CC08219930988159905E8F48A189B0899
:1028D000EE81FF818E1A9F0AB401620D731D80E0A4
:1028E00090E00E94A0339B01AC01C701B6010E9499
:1028F00057340E946A3388859985860F971F05C0D3
:1029000080E090E002C08885998529960FB6F894FA
:10291000DEBF0FBECDBFDF91CF911F910F91FF9012
:10292000EF90DF90CF90BF90AF909F908F907F906F
:102930006F905F904F903F902F9008958F929F924D
:10294000AF92BF92CF92DF92EF92FF92CF93DF933D
:102950004B015C01EA010E94220E6B017C01DE0149
:10296000A50194010E944D320E94A233A701960155
:102970000E94573420E030E040E051E40E94573498
:1029800020E030E040E251E40E94573420E030E0A3
:1029900040E85BE30E9457340E946A330E941D06A0
:1029A00090958095709561957F4F8F4F9F4FDF91E8
:1029B000CF91FF90EF90DF90CF90BF90AF909F901E
:1029C0008F9008954F925F926F927F928F929F9215
:1029D000AF92BF92CF92DF92EF92FF92CF93DF93AD
:1029E00000D000D0CDB7DEB74B015C0157FF02C06D
:1029F0004D5F5F4F6A01D594C794D594C7940E94E8
:102A0000220E69837A838B839C839B01AC01C50171
:102A1000B4010E94573420E030E040E251E40E94CB
:102A200057342B013C0120E030E040E85FE30E9496
:102A300052340D2C000CEE08FF0818161CF4C701C8
:102A4000B60128C020E030E040E85FEBC301B201EE
:102A50000E94F33287FF06C0C701B6010E941D061F
:102A6000CB011EC0C701B6010E94A2339B01AC017D
:102A7000C501B4010E94573429813A814B815C81A0
:102A80000E94573420E030E040E251E40E94573485
:102A90000E946A330E941D0688279927861B970B80
:102AA0000F900F900F900F90DF91CF91FF90EF90CC
:102AB000DF90CF90BF90AF909F908F907F906F905E
:102AC0005F904F9008958F929F92AF92BF92CF9256
:102AD000DF92EF92FF924B015C01BA01550F880B18
:102AE000990B0E94A2336B017C0120E030E0A90128
:102AF000C501B4010E945234A501940118160CF0CE
:102B00005058C701B6010E9457346B017C010E94E6
:102B1000220E9B01AC01C701B6010E94573420E090
:102B200030E040E851E40E94573420E030E040E2D9
:102B300051E40E94573420E030E040E05DE30E9421
:102B400057340E946A330E941D066B017C0120E00D
:102B500030E0A901C501B4010E94523418162CF4CA
:102B6000882799278C199D090DC020E030E0A90124
:102B7000C501B4010E94F33287FF02C0C60102C042
:102B800080E090E0FF90EF90DF90CF90BF90AF900B
:102B90009F908F900895CF92DF92EF92FF92CF9304
:102BA000DF936B017C01EA0120E030E0A9010E9483
:102BB0005234181694F020E030E0A901C701B601A4
:102BC0000E94F33287FF3AC020E030E0A901C7013C
:102BD000B6010E9487326B017C01BE01DD0F880BBC
:102BE000990B0E94A2339B01AC01C701B6010E9460
:102BF00057346B017C010E94220E9B01AC01C7017E
:102C0000B6010E94573420E030E040E851E40E94D1
:102C1000573420E030E040E251E40E94573420E095
:102C200030E040E05BE30E9457340E946A330E9428
:102C30001D0688279927861B970B02C080E090E02D
:102C4000DF91CF91FF90EF90DF90CF9008950097A4
:102C500069F0FC0101900020E9F73197AF01481BB2
:102C6000590BBC018DE994E00C94850C80E090E058
:102C70000895E0E5F8E04491E1E3F8E09491E2E1C1
:102C8000F8E02491222309F44DC04423C1F150E01F
:102C9000FA013197EE30F10590F5EE53FF4F0C94A9
:102CA0007835309180003F7703C0309180003F7DC0
:102CB0003093800024C034B53F7702C034B53F7DE7
:102CC00034BD1DC0309190003F7707C03091900017
:102CD0003F7D03C030919000377F309390000FC04C
:102CE0003091C0003F7703C03091C0003F7D3093EA
:102CF000C00005C03091C200377F3093C200E22F80
:102D0000F0E0EE0FFF1FE950F84FA591B4912FB7F7
:102D1000F894EC91811103C090959E2301C09E2BE5
:102D20009C932FBF089590919C0489B18C70892B3E
:102D300090E09C01359527953595279520939C0427
:102D4000409198045091990460919A0470919B0469
:102D5000FC01ED5AFE4F8081082E000C990BAA0B46
:102D6000BB0B840F951FA61FB71F809398049093E9
:102D70009904A0939A04B0939B04809197040895BA
:102D8000E0919D04F0919E040190F081E02D682F68
:102D90008DE994E00994CF93DF938DE00E94C016F3
:102DA000EC018AE00E94C0168C0F9D1FDF91CF912D
:102DB00008958F929F92AF92BF92EF92FF920F93DE
:102DC0001F93CF93DF93CDB7DEB7A1970FB6F894DB
:102DD000DEBF0FBECDBF162F042F19A2423008F45C
:102DE0000AE07E0121E2E20EF11C802E912CA12C42
:102DF000B12C612FA50194010E945532029F101938
:102E0000112481E0E81AF1081A3014F4105D01C0B1
:102E1000195CF7011083122F732FCA01232B242B67
:102E2000252B39F7C7010E942716A1960FB6F894F3
:102E3000DEBF0FBECDBFDF91CF911F910F91FF90ED
:102E4000EF90BF90AF909F908F900895CF92DF92B8
:102E5000EF92FF92CF93DF9397FF19C06B017C0134
:102E60008DE20E94C016EC0166277727CB016C1912
:102E70007D098E099F094AE00E94D9168C0F9D1F7B
:102E8000DF91CF91FF90EF90DF90CF9008954AE0CF
:102E9000DF91CF91FF90EF90DF90CF900C94D916F7
:102EA000CF93DF93BC01990F880B990B0E942617D3
:102EB000EC010E94CB168C0F9D1FDF91CF910895DE
:102EC000BC01990F880B990B0C942617682F70E0A2
:102ED00080E090E04AE00C94D9160C942716CF932A
:102EE000DF9390E0FC01EC5DF74F2491FC01EB5F78
:102EF000F74F8491882361F190E0880F991FFC01BE
:102F0000E751F84FC591D491FC01E950F84FA591D4
:102F1000B491611109C09FB7F894888120958223EC
:102F20008883EC912E230BC0623061F49FB7F89434
:102F30003881822F809583238883EC912E2B2C93CC
:102F40009FBF06C08FB7F894E8812E2B28838FBFD0
:102F5000DF91CF9108953FB7F89480914E059091FD
:102F60004F05A0915005B091510526B5A89B05C00D
:102F70002F3F19F00196A11DB11D3FBFBA2FA92FF8
:102F8000982F8827820F911DA11DB11DBC01CD0175
:102F900042E0660F771F881F991F4A95D1F7089561
:102FA000CF92DF92EF92FF92CF93DF936B017C0180
:102FB0000E94AB17EB01C114D104E104F10479F0D4
:102FC0000E94AB176C1B7D0B683E7340A0F381E041
:102FD000C81AD108E108F108C851DC4FECCFDF91E5
:102FE000CF91FF90EF90DF90CF9008952FB7F89496
:102FF00060914A0570914B0580914C0590914D056B
:103000002FBF08950F931F930E94F6176093A50496
:103010007093A6048093A7049093A804E0919D0464
:10302000F0919E040084F185E02D8DE994E00995EE
:1030300097FF1FC00E94F6170091A5041091A604E7
:103040002091A7043091A804DC01CB01801B910BD7
:10305000A20BB30B0091A1041091A2042091A30430
:103060003091A40480179107A207B307B8F28FEF3D
:103070009FEF1F910F910895FF920F931F93CF938E
:10308000DF9300D000D0CDB7DEB70E940218FC015C
:1030900097FD11C08D32910591F0C0970A9778F095
:1030A000E0919D04F0919E040680F781E02D8DE96A
:1030B00094E00995EACF60E070E0CB014CC020E0DD
:1030C00030E0A901F12CE130F105F1F0ED32F1052C
:1030D000C9F0CF01C0970A97B8F4AAE0B0E00E9407
:1030E00042328F01FF0F220B330BDC01CB01800F2B
:1030F000911FA21FB31F9C01AD012053310941094B
:10310000510902C0FF24F394E0919D04F0919E04C4
:103110000680F781E02D8DE994E029833A834B8383
:103120005C8309950E940218FC01C09729813A81AD
:103130004B815C810A9738F2E130F10521F2FF20E2
:1031400041F066277727CB01621B730B840B950B2D
:1031500002C0CA01B9010F900F900F900F90DF913C
:10316000CF911F910F91FF9008951F920F920FB66C
:103170000F9211242F933F938F939F93AF93BF93FD
:1031800080914A0590914B05A0914C05B0914D0559
:103190003091490523E0230F2D3720F40196A11D1E
:1031A000B11D05C026E8230F0296A11DB11D209375
:1031B000490580934A0590934B05A0934C05B09325
:1031C0004D0580914E0590914F05A0915005B0910D
:1031D00051050196A11DB11D80934E0590934F0599
:1031E000A0935005B0935105BF91AF919F918F91DE
:1031F0003F912F910F900FBE0F901F901895CF9376
:10320000DF93CDB7DEB7C054D1090FB6F894DEBF57
:103210000FBECDBF789484B5826084BD84B58160D3
:1032200084BD85B5826085BD85B5816085BD809191
:103230006E00816080936E00109281008091810009
:103240008260809381008091810081608093810001
:1032500080918000816080938000809191008260E5
:103260008093910080919100816080939100809182
:1032700090008160809390008091C1008460809371
:10328000C1008091C10082608093C1008091C10023
:1032900081608093C1008091C30081608093C300EE
:1032A0008091C00082608093C0008091C2008160E4
:1032B0008093C20080917A00846080937A0080912C
:1032C0007A00826080937A0080917A008160809396
:1032D0007A0080917A00806880937A001092A80129
:1032E00081E08093D70080EA8093D80082E189BD95
:1032F00009B400FEFDCF61E070E080E090E00E9444
:10330000D01780E98093D8001CE01093E20010925F
:10331000E000109299031092980310929E0310926D
:103320009F031092A0031092A10310929303109296
:1033300092031092A7031092A8031092A90310926F
:10334000AA031092AB031092AC031092AD0310923B
:10335000AE0342E0BE01615F7F4F80E090E00E94DB
:10336000E3068F8598898A3F910509F44AC18AEF5F
:1033700090E09E878D8742E0BE01635F7F4F80E0D3
:1033800090E00E94B40619821A821B821C8244E0DB
:10339000BE016F5F7F4F82E090E00E94B40688E339
:1033A00094E09E878D8742E0BE01635F7F4F86E099
:1033B00090E00E94B40684E6898B41E0BE016F5E16
:1033C0007F4F88E090E00E94B40641E0BE016F5E4E
:1033D0007F4F8BE090E00E94B40641E0BE016F5E3B
:1033E0007F4F8CE090E00E94B40641E0BE016F5E2A
:1033F0007F4F80E190E00E94B40641E0BE016F5E25
:103400007F4F8DE090E00E94B40682E3898B41E01B
:10341000BE016F5E7F4F89E090E00E94B40641E0FC
:10342000BE016F5E7F4F8AE090E00E94B40641E0EB
:10343000BE016F5E7F4F8EE090E00E94B40686E48E
:10344000898B41E0BE016F5E7F4F8FE090E00E946C
:10345000B4061E861D8642E0BE01635F7F4F81E198
:1034600090E00E94B4068FEF97E09E878D8742E040
:10347000BE01635F7F4F83E190E00E94B4068FEF4F
:103480009FE09E878D8742E0BE01635F7F4F85E1AD
:1034900090E00E94B40680E8898B41E0BE016F5E37
:1034A0007F4F87E190E00E94B40681E0898B41E084
:1034B000BE016F5E7F4F88E190E00E94B40680E617
:1034C00099E0A0E0B0E089839A83AB83BC8344E0B9
:1034D000BE016F5F7F4F89E190E00E94B406198BB7
:1034E00041E0BE016F5E7F4F8DE190E00E94B40627
:1034F000EE24EA94F12CFE86ED8642E0BE01635F85
:103500007F4F8EE190E00E94B4060FEF11E01E871E
:103510000D8742E0BE01635F7F4F80E290E00E9432
:10352000B4068FEF92E09E878D8742E0BE01635F15
:103530007F4F82E290E00E94B406FE86ED8642E074
:10354000BE01635F7F4F84E290E00E94B4061E8755
:103550000D8742E0BE01635F7F4F86E290E00E94EC
:10356000B4061E861D8642E0BE01635F7F4F88E27F
:1035700090E00E94B4061E861D8642E0BE01635F95
:103580007F4F8AE290E00E94B40642E0BE01635F92
:103590007F4F8EE290E00E94B40642E0BE01635F7E
:1035A0007F4F82E390E00E94B40642E0BE01635F79
:1035B0007F4F86E390E00E94B4068FEF93E09E87F2
:1035C0008D8742E0BE01635F7F4F8CE290E00E94F6
:1035D000B40642E0BE01635F7F4F80E390E00E944B
:1035E000B40642E0BE01635F7F4F84E390E00E9437
:1035F000B40642E0BE01635F7F4F88E390E00E9423
:10360000B40642E067EB71E086E090E00E94E306DA
:1036100044E063E673E089E190E00E94E30641E064
:1036200069EB71E088E090E00E94E30641E06EE61D
:1036300073E089E090E00E94E30641E06CE673E00D
:103640008AE090E00E94E30641E061E773E08BE0EE
:1036500090E00E94E30641E060E773E08CE090E0D8
:103660000E94E30641E06FE673E08DE090E00E9487
:10367000E30641E06DE673E08EE090E00E94E30631
:1036800041E062E773E08FE090E00E94E30641E0F2
:103690006BE673E080E190E00E94E30641E064EBBA
:1036A00071E087E190E00E94E30641E066EA73E0A2
:1036B00088E190E00E94E30642E065EB71E081E181
:1036C00090E00E94E30642E062EB71E083E190E06B
:1036D0000E94E30642E061E673E085E190E00E942B
:1036E000E30641E061EB71E08DE190E00E94E306CA
:1036F00042E063E773E08EE190E00E94E30642E07F
:1037000065E773E080E290E00E94E30642E067E74D
:1037100073E082E290E00E94E30642E069E773E032
:1037200084E290E00E94E30642E06BE773E086E209
:1037300090E00E94E30641E06DE773E088E290E0EC
:103740000E94E30642E06AE973E08AE290E00E94A8
:10375000E30642E06CE973E08CE290E00E94E3064D
:1037600042E062EA73E08EE290E00E94E30642E00B
:1037700064EA73E080E390E00E94E30642E064E9DB
:1037800073E082E390E00E94E30642E066E973E0C2
:1037900084E390E00E94E30642E06EE873E086E393
:1037A00090E00E94E30642E060E973E088E390E085
:1037B0000E94E30660916303709164038091650346
:1037C000909166030E94A23320E030E044EB53E482
:1037D0000E94F8326B017C018091B7019091B80191
:1037E000BC01990F880B990B0E94A2339B01AC017D
:1037F000C701B6010E9457340E946A336093520396
:103800007093530380935403909355036B017C0191
:10381000F594E794D794C794C0925603D092570377
:10382000E0925803F092590362E080E00E946F1723
:1038300062E081E00E946F1762E082E00E946F17F1
:10384000809169008C6080936900E99A10929704D6
:10385000C0929804D0929904E0929A04F0929B044A
:1038600010929C044A9B05C080919C0481608093C7
:103870009C044B9B05C080919C04826080939C04B7
:10388000809169008F7C806180936900EA9A8091C1
:1038900069008F73806480936900EB9A60E082E135
:1038A0000E946F1760E083E10E946F1760E084E17F
:1038B0000E946F1760E085E10E946F1760E086E16B
:1038C0000E946F1760E087E10E946F176E9A579809
:1038D000249A10925F0310925E0310926703109275
:1038E00068031092690310926A0310925D031092AC
:1038F000600388E191E09093AA018093A9018AED89
:1039000094E0909346058093450580E69AE0909375
:10391000480580934705279A1091B101812F0E9495
:103920000C075C019093AC018093AB019093B301C1
:103930008093B2016091B5017091B60180E090E092
:103940000E94A0336B017C01B50180E090E00E94F1
:10395000A0339B01AC01C701B6010E94F83260930D
:10396000AD017093AE018093AF019093B001012F30
:10397000017010FD05C020E030E04AEF54E404C0BF
:1039800020E030E04AE754E46091080170910901B9
:1039900080910A0190910B010E94573460930801B5
:1039A0007093090180930A0190930B01011105C0E6
:1039B00020E030E04AEF54E404C020E030E04AE781
:1039C00054E4609104017091050180910601909189
:1039D00007010E945734609304017093050180939E
:1039E000060190930701011105C020E030E04AEF85
:1039F00054E404C020E030E04AE754E46091000160
:103A00007091010180910201909103010E9457344D
:103A10006093000170930101809302019093030170
:103A2000109280001092810010926F0016BA80915F
:103A3000AB019091AC019093870080938600109227
:103A400089001092880010928B0010928A00809159
:103A5000B1018274823421F480918100826003C0BC
:103A6000809181008160809381008091B10180FF0D
:103A700009C08091800082608093800080918100E5
:103A8000806108C080918000826080938000809176
:103A9000810088618093810080E090E00E94E40FC3
:103AA00080918000806880938000259A80E090E07B
:103AB0000E94D70F80918000806280938000269AB8
:103AC00061E08DE00E946F1713E081E00E943916DB
:103AD00064E170E080E090E00E94D01780E00E94F6
:103AE000391664E170E080E090E00E94D017115038
:103AF00061F7109288031092890310928A03109242
:103B00008B0388E893E00E94F10F80915603909117
:103B10005703A0915803B0915903F89480939804E7
:103B200090939904A0939A04B0939B047894109274
:103B30008703109286038FEF97E090935C03809346
:103B40005B038091B40180935A030E94AB1760938A
:103B5000AF037093B0038093B1039093B2030E94BC
:103B6000AB176093AF047093B0048093B10490934B
:103B7000B2040091B3031091B4032091B5033091C6
:103B8000B6036B017C01C01AD10AE20AF30AC092A3
:103B9000AB04D092AC04E092AD04F092AE0400917C
:103BA000AF031091B0032091B1033091B2036B01C8
:103BB0007C01C01AD10AE20AF30A40EDC41647E0BC
:103BC000D406E104F10410F40C946D316093AF035A
:103BD0007093B0038093B1039093B203E2E210922A
:103BE000600380915E0390915F03829774F010925E
:103BF0005F0310925E0310926703109268031092A5
:103C0000690310926A0310925D0380915E039091A4
:103C10005F038230910564F4892B09F42C9A80911A
:103C20005E0390915F03019709F045C02C9843C053
:103C30009C012170332780FD3AC099B1991F9927C3
:103C4000991F9093600380915D03803258F54091F5
:103C50006703509168036091690370916A0301E002
:103C600010E020E030E0082E04C0000F111F221FDA
:103C7000331F0A94D2F7992329F0402B512B622B42
:103C8000732B08C000951095209530954023512343
:103C9000622373234093670350936803609369031F
:103CA00070936A038F5F80935D03769A04C021301E
:103CB000310509F4769880915E0390915F03019637
:103CC00090935F0380935E03E15009F088CFF894EE
:103CD0008091980490919904A0919A04B0919B04CA
:103CE0007894409156035091570360915803709116
:103CF0005903841B950BA60BB70B8093AB039093D2
:103D0000AC03A093AD03B093AE038093A70390934D
:103D1000A803A093A903B093AA031091A60315FBCF
:103D2000882780F916FD826017FF02C084601DC0DD
:103D30008130D9F46A017B01C094D094E094F0946E
:103D40009A01AB012C193D094E095F0960919E0350
:103D500070919F038091A0039091A1030E9454351C
:103D60002FEF3FEF40E050E032C0823059F46A015B
:103D70007B01C094D094E094F094A0919803B0910A
:103D8000990319C0833059F46A017B01C094D0941F
:103D9000E094F094A0919203B09193030CC084300E
:103DA00021F56A017B01C094D094E094F094A09135
:103DB0008C03B0918D039A01AB012C193D094E097A
:103DC0005F090E944D322FEF3FE040E050E00E943B
:103DD0002332C20ED31EE41EF51EC092A703D0925A
:103DE000A803E092A903F092AA038090A703909001
:103DF000A803A090A903B090AA038091B804909161
:103E0000B904A091BA04B091BB048092B804909216
:103E1000B904A092BA04B092BB042091C00422233A
:103E200009F449C00091E90454E0059F9001112470
:103E3000B90168547B4F7B01A5019401281B390B04
:103E40004A0B5B0BCA01B9010E94A233D701199634
:103E50006D937D938D939C931C97F02E3AE0E32E07
:103E600060E070E0CB01B4E0FB9EF0011124E85467
:103E7000FB4F21853285438554850E948732FF2080
:103E800011F0FA9402C029E0F22EEA94E110EBCF8F
:103E900020E030E040E251E40E94F8320F5F0A3047
:103EA00018F40093E90402C01092E90468A779A706
:103EB0008AA79BA70FC081E08093C0041092BC0426
:103EC0001092BD041092BE041092BF0418A619A649
:103ED0001AA61BA62091EA043091EB044091EC0451
:103EE0005091ED0488A599A5AAA5BBA58093EA04E5
:103EF0009093EB04A093EC04B093ED048091F20452
:103F0000882309F444C000914305E4E00E9FC001FA
:103F10001124BC016F537B4F7B0168A579A5CD01AE
:103F20000E948632D701D2966D937D938D939C9398
:103F3000D597F02EB4E1EB2E60E070E0CB01B4E059
:103F4000FB9EF0011124EF53FB4F22A933A944A992
:103F500055A90E948732FF2011F0FA9402C0A3E114
:103F6000FA2EEA94E110EBCF20E030E040EA51E491
:103F70000E94F8320F5F043118F40093430502C029
:103F80001092430568AB79AB8AAB9BAB0FC081E065
:103F90008093F2041092EE041092EF041092F00459
:103FA0001092F10418AA19AA1AAA1BAA8091440512
:103FB000882359F110FF23C70E9490139B01AC0185
:103FC00060E070E080E094E40E94F8326B017C01D4
:103FD0006091720370E080E090E00E94A2339B0148
:103FE000AC01C701B6010E94573420E030E048EC34
:103FF00052E40E94F8320E946A33AB01C501B40159
:104000000E949E142B013C01FDC6EEEBF1E0FFA3E4
:10401000EEA31F8A1E8A412C512C32010E891F8962
:104020000F5F1F4F1F8B0E8B4EE19801429F800147
:10403000439F100D112406511E4FD8018C9183709F
:10404000833009F0CFC60E9490136B017C01F80108
:1040500021853285A789B08D0E947E352FEF3FE7FD
:1040600040E050E00E942332CA01B9010E94A2330D
:10407000A70196010E94F8320E946A339B01AC01AD
:10408000D8011B968D919C911C97059730F4E4E024
:10409000F0E01C96FC93EE931B97FEE1EF2ECE888A
:1040A000DF88EC9CF001ED9CF00D1124E651FE4FF1
:1040B000E1818E2F90E0FC013197ED30F10508F0A1
:1040C0007BC6EA5AFF4F0C9478350E9490136A8B96
:1040D0007B8B8C8B9D8B2EE10E891F89209FC001CD
:1040E000219F900D1124AC0146515E4F1A01DA0157
:1040F00019968D909C901A975596AD90BC905697B6
:104100001F96CD90DC9050975196ED90FC90529771
:1041100053960D911C91549714962C9114971396C5
:104120004C91139757968D919C915897EEA1FFA1B2
:10413000608171810E94A1139401DC010E947E358F
:104140002FEF3FE740E050E00E942332CA01B9015F
:104150000E94A2332A893B894C895D890E94F832EA
:104160000E946A330E941D069B01AC01A09171035D
:10417000B0E00E94423224E630E040E050E00E948D
:104180002332421A530A640A750A72C10E949013BC
:104190006A8B7B8B8C8B9D8B5EE1E52ECE88DF88D6
:1041A000EC9CF001ED9CF00D1124E651FE4F0185D1
:1041B00012851B8F0A8FC588D688DF8ECE8EE78446
:1041C000F088FBA2EAA2018912891DA70CA7038926
:1041D00014891CAF0BAF84809380AEA1BFA12D903A
:1041E0003C90078510896085A7800A2C000CBB08CD
:1041F000062E000C770B6A197B09CB01770FAA0BEF
:10420000BB0B6627782F892F9A2F0E94A2336B0150
:104210007C01B80180E090E00E94A03320E030E013
:104220004AE754E40E94F8329B01AC01C701B60191
:104230000E94F8326B017C01C101B8010E94643513
:10424000BC0180E090E00E94A03320E030E04AE72B
:1042500054E40E94F8329B01AC01C701B6010E94F0
:1042600057340E946A33BA2CAA24C501860F971FBF
:10427000AE8CBF8CCAA0DBA0ECA4FDA40BAD1CAD22
:10428000282D492DB1010E94A1132A8D3B8DDC01FF
:104290000E947E352FEF3FE740E050E00E9423323E
:1042A000CA01B9010E94A2332A893B894C895D89E0
:1042B0000E94F8320E946A330E941D06461A570A6D
:1042C000680A790A79C50E9490136A8F7B8F8C8F58
:1042D0009D8F4EE1C42EEE89FF89CE9EC001CF9EF8
:1042E000900D11248C0106511E4F1801D80119960A
:1042F0000D90BC91A02DBF8FAE8FF801038CF48D73
:10430000E02DFBA3EAA3D8015D96BC91BCA7F80100
:1043100083849484A588B688C784D088E188F2888D
:104320000389148924814381AEA1BFA10D90BC9162
:10433000A02DBB8BAA8B8789908DBD010E94A113F4
:104340008C01B40180E090E00E94A03320E030E0D6
:104350004AE754E40E94F8329B01AC0160E070E04F
:1043600080E89FE30E94F8326B017C018A899B8977
:10437000B4010E946435BC0180E090E00E94A0334B
:1043800020E030E04AE754E40E94F8329B01AC019F
:10439000C701B6010E9457346B017C01BCA56B2F8D
:1043A00070E080E090E00E94A03320E030E040E840
:1043B0005BE30E9457349B01AC01C701B6010E9428
:1043C00087322BED3FE049EC50E40E9457340E94C5
:1043D000C4349B01AC01EAA1FBA16F01FF0FEE0801
:1043E000FF08B801110F880B990B2DAF21963FAF35
:1043F00021974EAF5FAF0E94A2332DAD21963FAD06
:1044000021974EAD5FAD0E9457340E946A33CB01B5
:10441000770FAA0BBB0BA7019601280F391F4A1F64
:104420005B1FAE8DBF8D0E9442322FEF3FE740E011
:1044300050E00E942332CA01B9010E94A2332A8DA2
:104440003B8D4C8D5D8D0E94F8320E946A339B013A
:10445000AC01A0917003B0E00E94423224E630E04B
:1044600040E050E00E942332420E531E641E751E2F
:10447000D10116968C91169782FF9EC41D966D9160
:104480007C911E9780E090E00E94A0332BED3FE0EE
:1044900049EC50E40E94573420E030E040E058E31B
:1044A0000E9457340E94C4349B01AC01C301B20185
:1044B0002DAF21963FAF21974EAF5FAF0E94A23341
:1044C0002DAD21963FAD21974EAD5FAD0E94573483
:1044D0000E946A332B013C016FC40E9490136A8FC3
:1044E0007B8F8C8F9D8F3EE1E32ECE88DF88EC9C06
:1044F000F001ED9CF00D1124E651FE4F018512856F
:104500001F8F0E8F238D348DA901330F660B770B10
:104510004AA35BA36CA37DA3558D5CA7238434843D
:10452000A588B688C784D088E188F2880389148971
:1045300024814381AEA1BFA10D90BC91A02DBB8B66
:10454000AA8B8789908DBD010E94A113BC01990F90
:10455000880B990B0E94A2334B015C01B10180E0F2
:1045600090E00E94A03320E030E04AE754E40E944B
:10457000F8329B01AC0160E070E080E89FE30E94AC
:10458000F8326B017C018A899B89B1010E946435F4
:10459000BC0180E090E00E94A03320E030E04AE7D8
:1045A00054E40E94F8329B01AC01C701B6010E949D
:1045B00057346B017C01BCA56B2F70E080E090E06C
:1045C0000E94A03320E030E040E85BE30E945734D3
:1045D0009B01AC01C701B6010E9487322BED3FE081
:1045E00049EC50E40E9457340E94C4346B017C01B2
:1045F00020E030E0A9010E94523487FF0CC020E087
:1046000030E0A901C701B6010E94F33287FF05C05F
:10461000EFEFECAB02C0F1E0FCABCCA86C2DCC0C06
:10462000770B880B990B0E94A2339B01AC01C5014B
:10463000B4010E9457340E946A33CB01770FAA0B52
:10464000BB0BE0C10E9490136E8F7F8F88A399A34C
:104650000EE1EE88FF880E9DF0010F9DF00D1124F4
:10466000E651FE4F218532853BA32AA3238D348D4D
:10467000A901330F660B770B4CA75DA76EA77FA729
:10468000358D638574857B8B6A8BA588B688C784D6
:10469000D088E188F2880389148924814381AEA1FE
:1046A000BFA10D90BC91A02DBB8FAA8F8789908D43
:1046B000BD0121963FAF21970E94A1131C01EA89F9
:1046C000FB89BF0180E090E00E94A0334B015C01B8
:1046D00021963FAD219760E4630F70E080E090E0A9
:1046E0000E94A03320E030E040E85BE30E945734B2
:1046F000A50194010E9457340E9471338A8D9B8DCD
:10470000860F971F6A897B890E9464358C01BC01E2
:1047100080E090E00E94A03320E030E04AE754E4DB
:104720000E94F8326B017C0120E030E0A9010E9478
:10473000523487FD3CC020E030E04AE754E4C50134
:10474000B4010E94F8326A8F7B8F8C8F9D8F20E09E
:1047500030E040E05FE30E9457349B01AC01C701A9
:10476000B6010E94F33287FF22C0B101032C000C76
:10477000880B990B0E94A23320E030E040E850E41F
:104780000E9457342A8D3B8D4C8D5D8D0E94F832EE
:10479000A70196010E9457340E946A3331942194F4
:1047A00031086101C60ED71EDEAACDAA51C020E095
:1047B00030E04AE754E4C501B4010E94F8324B01ED
:1047C0005C0120E030E040E05FE30E9457349B0151
:1047D000AC01C701B6010E94523487FD39C0A50162
:1047E0009401C701B6010E94F33287FF31C0B101C5
:1047F000032C000C880B990B0E94A23320E030E0C0
:1048000040E850EC0E945734A50194010E94F83210
:104810006B017C018A899B8996958795B801681BF5
:10482000790B80E090E00E94A03320E030E04AE77E
:1048300054E40E94F8329B01AC01C701B6010E940A
:1048400057340E946A337101E60EF71EFEAAEDAAE4
:104850000DA91EA9C801110FAA0BBB0B2CA53DA5C4
:104860004EA55FA5280F391F4A1F5B1FAAA1BBA138
:104870000E9442322FEF3FE740E050E00E94233297
:10488000CA01B9010E94A2332E8D3F8D48A159A1C2
:104890000E94F8320E946A339B01AC01A091700320
:1048A000B0E00E94423224E630E040E050E00E9456
:1048B0002332420E531E641E751E7EC20E94901348
:1048C0006A8F7B8F8C8F9D8F4EE12E893F89429F0F
:1048D000F001439FF00D1124E651FE4F6185728572
:1048E0007F8F6E8F238D348DC901330FAA0BBB0BC5
:1048F0008AA39BA3ACA3BDA3358D23843484A58850
:10490000B688C784D088E188F28803891489248115
:104910004381AEA1BFA10D90BC91A02DBB8BAA8BF2
:104920008789908DBD0121963FAF21970E94A113E9
:104930008C01B10180E090E00E94A0334B015C014A
:1049400021963FAD219760E8630F70E080E090E032
:104950000E94A03320E030E040E85BE30E9457343F
:10496000A50194010E9457340E9471338A899B8962
:10497000860F971FB1010E9464359B8B8A8B82152D
:104980009305D0F5B801012E000C880B990B0E94FD
:10499000A2339B01AC010E9487326B017C0120E0B5
:1049A00030E04AE754E4C501B4010E94F8329B01AB
:1049B000AC01C701B6010E94F8324B015C01CA8804
:1049C000DB88B60180E090E00E94A03320E030E078
:1049D0004AE754E40E94F8329B01AC01C501B401DE
:1049E0000E9457340E946A3311950195110978018C
:1049F000E60EF71EF8AEEFAA0FA918ADC801110F09
:104A0000AA0BBB0B2AA13BA14CA15DA1280F391F0A
:104A10004A1F5B1FAE8DBF8D0E9442322FEF3FE7D2
:104A200040E050E00E942332CA01B9010E94A23343
:104A30002A8D3B8D4C8D5D8D2BCF0E9490136A8FFC
:104A40007B8F8C8F9D8F4EE12E893F89429FF00195
:104A5000439FF00D1124E651FE4F618572857F8FD3
:104A60006E8F238D348DC901330FAA0BBB0B8AA324
:104A70009BA3ACA3BDA3358D23843484A588B688BD
:104A8000C784D088E188F28803891489248143810E
:104A9000AEA1BFA10D90BC91A02DBB8BAA8B878925
:104AA000908DBD0121963FAF21970E94A1138C01EB
:104AB000B10180E090E00E94A0334B015C0121969F
:104AC0003FAD219760E8630F70E080E090E00E94C6
:104AD000A03320E030E040E85BE30E945734A501BA
:104AE00094010E9457340E9471338A899B89860FF2
:104AF000971FB1010E9464359B8B8A8B82159305A9
:104B0000D0F566277727601B710B072E000C880BEA
:104B1000990B0E94A2339B01AC010E9487326B016A
:104B20007C0120E030E04AE754E4C501B4010E9472
:104B3000F8329B01AC01C701B6010E94F8324B016B
:104B40005C01CA88DB88B60180E090E00E94A03357
:104B500020E030E04AE754E40E94F8329B01AC01C7
:104B6000C501B4010E9457340E946A337801E60EF1
:104B7000F71EFAAEE9AE09AD1AAD40CF8EE16E89EF
:104B80007F89869FF001879FF00D1124E651FE4F2B
:104B9000038D148DA0916F03B0E00E94423220E497
:104BA00036E040E050E00E94233269017A01209112
:104BB0005603309157034091580350915903D8013F
:104BC0000E944D32DC01CB010FE0B595A79597957A
:104BD00087950A95D1F7092E000CAA0BBB0B4091C3
:104BE000A7035091A8036091A9037091AA038A01B9
:104BF0009B01081B190B2A0B3B0BC901B801A6012D
:104C00000E949E14460E571E681E791ED5C08EE166
:104C10006E897F89869FF001879FF00D1124E651F0
:104C2000FE4F038D148DA0916E03B0E00E944232BE
:104C300024E630E040E050E00E94233269017A012E
:104C4000B801110F880B990B0E94A2332AE939ECA5
:104C50004CEC54E40E94F8329B01AC0168A579A5A4
:104C60008AA59BA50E948632A6010E94CB1562C030
:104C70001EE1C12EAE89BF89CA9EF001CB9EF00D08
:104C80001124E651FE4F038D148DA0916D03B0E009
:104C90000E94423224E630E040E050E00E9423329D
:104CA00069017A01B801110F880B990B0E94A23398
:104CB00020E03EEF4FEF56E40E94F8329B01AC013A
:104CC00068A979A98AA99BA90E948632A6010E9497
:104CD000631530C00EE1EE88FF880E9DF0010F9D38
:104CE000F00D1124E651FE4F038D148DA0916C033D
:104CF000B0E00E94423224E630E040E050E00E9402
:104D0000233269017A01B801110F880B990B0E94B7
:104D1000A2332AE939EC4CEC54E40E94F8329B01AE
:104D2000AC0168A579A58AA59BA50E948632A6013B
:104D30000E94E214092E000CAA0BBB0B480E591E50
:104D40006A1E7B1E39C00E9490139B01AC018EE14C
:104D50006E897F89869FF001879FF00D1124E651AF
:104D6000FE4F838D948DBC01990F880B990B2DAF4D
:104D700021963FAF21974EAF5FAF0E94A2332DAD7A
:104D800021963FAD21974EAD5FAD0E94F8320E9453
:104D90006A330E941D069B01AC01A0917003B0E034
:104DA0000E94423224E630E040E050E00E9423328C
:104DB000421A530A640A750A0E94F6170091BA0152
:104DC0001091BB012091BC013091BD01DC01CB01F0
:104DD000801B910BA20BB30BEEA1FFA180839183EB
:104DE000A283B3830EA11FA10C5F1F4F1FA30EA3AD
:104DF0002E893F892B30310509F010C903C0412CA1
:104E0000512C32011091A60311FF31C00E94901362
:104E10009B01AC01E0916E0367E471E0E69FC00185
:104E2000E79F900D1124BC0180E090E02DAF21960A
:104E30003FAF21974EAF5FAF0E94A2332DAD2196B9
:104E40003FAD21974EAD5FAD0E94F8320E946A33AC
:104E5000AB0168A579A58AA59BA50E94CB15092E53
:104E6000000CAA0BBB0B480E591E6A1E7B1E12FFBC
:104E700031C00E9490139B01AC01E0916D0367E487
:104E800071E0E69FC001E79F900D1124BC0180E016
:104E900090E02DAF21963FAF21974EAF5FAF0E94BC
:104EA000A2332DAD21963FAD21974EAD5FAD0E944F
:104EB000F8320E946A33AB0168A979A98AA99BA933
:104EC0000E946315092E000CAA0BBB0B480E591E3D
:104ED0006A1E7B1E13FF31C00E9490139B01AC0120
:104EE000E0916C0367E471E0E69FC001E79F900DDD
:104EF0001124BC0180E090E02DAF21963FAF2197B7
:104F00004EAF5FAF0E94A2332DAD21963FAD2197EA
:104F10004EAD5FAD0E94F8320E946A33AB0168A5C6
:104F200079A58AA59BA50E94E214092E000CAA0B64
:104F3000BB0B480E591E6A1E7B1E409156035091B2
:104F4000570360915803709159038091A703909182
:104F5000A803A091A903B091AA03CC24DD24760173
:104F6000C41AD50AE60AF70A8C159D05AE05BF05D9
:104F700034F0481759076A077B070CF045C0B7FDA6
:104F800005C0841B950BA60BB70B04C0840F951F9F
:104F9000A61FB71F8093A7039093A803A093A9030C
:104FA000B093AA030E9490139B01AC0160E07EEFD6
:104FB0008FEF96E40E94F8326B017C0160916B03E5
:104FC00070E080E090E00E94A2339B01AC01C70139
:104FD000B6010E94573420E030E048EC52E40E94D1
:104FE000F8320E946A336B017C016091A7037091D3
:104FF000A8038091A9039091AA03A6010E949E1480
:10500000460E571E681E791EA091B901B0E0A3019B
:1050100092010E94423224E630E040E050E00E94DB
:105020002332CA01B9010E941D066B017C0114FFE5
:1050300004C00E9426170E94CB16C0928803D0920B
:105040008903E0928A03F0928B036091AB03709125
:10505000AC038091AD039091AE030E94A2336B012B
:105060007C0160915203709153038091540390919D
:1050700055030E94A2339B01AC0160E07FEF8FE7F4
:1050800097E40E94F8329B01AC01C701B6010E946F
:1050900057340E946A334B015C01611570488105E9
:1050A000910534F088248A94BFE79B2EA12CB12C63
:1050B000811440E894064FEFA406B40634F4812C22
:1050C000A0E89A2EAA24AA94BA2C8092AB039092BC
:1050D000AC03A092AD03B092AE0388E893E00E94C7
:1050E000F10F0091860310918703C0909A03D0902E
:1050F0009B03C00ED11EE12CF12C409094035090E4
:105100009503400E511E612C712C20919203309119
:105110009303C901330FAA0BBB0B9C01AD012419EA
:10512000350946095709AFEFBFE00E94423220918E
:10513000960330919703201B310B40E050E0241977
:105140003509460957090E9423322E8B3F8B488F21
:10515000598F40908E0350908F03400E511E612C4A
:10516000712C20918C0330918D03C901330FAA0B50
:10517000BB0B9C01AD012419350946095709AFEF56
:10518000BFE00E9442322091900330919103201B96
:10519000310B40E050E024193509460957090E94B7
:1051A000233229013A012091980330919903C901D2
:1051B000330FAA0BBB0B9C01AD012C193D094E0905
:1051C0005F09AFEFBFE00E94423220919C03309113
:1051D0009D03201B310B40E050E02C193D094E0986
:1051E0005F090E9423321901211450E1350624F091
:1051F00022242A94FFE03F2E37FE02C0212C312CBE
:105200003092990320929803CE88DF88C11460E120
:10521000D60624F0CC24CA94EFE0DE2ED7FE02C0DE
:10522000C12CD12CD0929303C0929203411470E10F
:10523000570624F044244A947FE0572E57FE02C0BC
:10524000412C512C50928D0340928C038091A203EB
:105250009091A303800F911F9C0140E050E02E8BA2
:105260003F8B488F598F20919E0330919F0340912F
:10527000A0035091A1036E897F89888D998D261B8B
:10528000370B480B590BAFEFBFEF0E944232209112
:10529000A4033091A503201B310B40E050E0EE88C1
:1052A000FF88088D198D2E193F09400B510B0E9464
:1052B00023322115310501E04007510524F02FEF7D
:1052C0003FEF40E050E057FF03C020E030E0A9018D
:1052D00020939E0330939F034093A0035093A10318
:1052E000E0906703F09068030091690310916A03EE
:1052F0009E2D9F70913081F0923081F0943081F03A
:10530000983081F0933081F0963081F0993081F0BF
:105310009C3081F060E00FC061E00DC063E00BC025
:1053200065E009C067E007C062E005C064E003C053
:1053300068E001C066E0D801C701807F8A8B9B8B43
:10534000AC8BBD8B862B60917D0362FF0CC00091FE
:105350007E0310917F03EFEFF3E0E01BF10BF0937E
:105360007F03E0937E0363FF0CC0009180031091E4
:105370008103EFEFF3E0E01BF10BF0938103E09387
:10538000800360FF05C084FF02C08F7E01C0806182
:10539000E0917E03F0917F030091730310917403F9
:1053A000E017F107A0F40091800310918103E090D1
:1053B0007B03F0907C030E151F0508F066C0E0909B
:1053C0007903F0907A030E151F05E0F463C0009195
:1053D000750310917603E017F107A0F400918003A4
:1053E00010918103E0907B03F0907C030E151F0564
:1053F00008F055C0E0907903F0907A030E151F0570
:1054000008F452C00091750310917603E017F1077C
:10541000F0F00091770310917803E017F107B8F4EA
:105420000091800310918103E0907B03F0907C0356
:105430000E151F05F0F5E0907903F0907A030E1534
:105440001F0528F461FD3AC084FD4BC037C00091B0
:10545000770310917803E017F107D0F1E091800312
:10546000F091810300917B0310917C03E017F10719
:1054700050F50091790310917A03E017F10740F598
:1054800061FF2AC084FF28C02CC0E12CF12C01E070
:1054900010E02BC0E12CF12C02E010E026C0E12C42
:1054A000F12C04E010E021C0E12CF12C08E010E028
:1054B0001CC0E12CF12C00E110E017C0E12CF12C14
:1054C00000E210E012C0E12CF12C00E410E00DC06D
:1054D000E12CF12C870109C0E12CF12C00E810E04F
:1054E00004C0E12CF12C8701E39444E0EE0CFF1C96
:1054F000001F111F4A95D1F78F7EAF70B07F8E29A4
:105500009F29A02BB12B8093820390938303A093B8
:105510008403B0938503E0E89E1A89829A822B83E4
:105520003C832D822C2D2295207F23292E8354E02D
:10553000D694C7945A95E1F7CF824886282F2295B2
:10554000207F25292987AC01BD01E4E07695679588
:1055500057954795EA95D1F74A87AC01BD01FCE024
:105560007695679557954795FA95D1F74B8714E14E
:10557000B695A795979587951A95D1F78C874CE0A6
:1055800050E0BE016F5F7F4F84E00E943F0A809130
:10559000AB049091AC04A091AD04B091AE04803105
:1055A0009742A105B10508F498C68DE994E00E94E0
:1055B000F20C181619060CF080C68DE994E00E94D2
:1055C000B80CE82F8FE98E0F8A3108F4E0528E2F45
:1055D00090E0FC01E154F109EA31F10508F06DC6F3
:1055E000ED59FF4F0C9478358091B7019091B80137
:1055F0000E94601780E20E94C0168091B9010E944B
:10560000661780E20E94C01680916E030E946617A2
:1056100080E20E94C01680916C030E94661780E2AF
:105620000E94C016809171030E94661780E20E945A
:10563000C016809170030E94661780E20E94C01617
:1056400080916F030E94661780E20E94C0168091CD
:105650006D030E94661780E20E94C016809172035B
:105660000E94661780E20E94C01680916B030E9420
:10567000661780E20E94C0166091B5017091B60174
:1056800080E090E04AE00E94D91680E20E94C016B5
:105690008091B4010E94661780E20E94C01680913A
:1056A000A6030E94661780E20E94C0166091B201B4
:1056B0007091B30180E090E04AE00E94D91680E248
:1056C0000E94C0166091630370916403809165032A
:1056D000909166030E94261780E20E94C016609196
:1056E000B1015FC383E991E00E946D178AEF90E0FA
:1056F0000E94601788E991E00E946D178AE991E0A5
:105700000E946D178CE991E00E946D178EE991E07F
:105710000E946D1780EA91E00E946D1782EA91E085
:105720000E946D17CAC58091B704082E000C990B12
:10573000C2C5F894C0909804D0909904E0909A045F
:10574000F0909B0478948091B2019091B3012091E4
:10575000B5013091B601821B930B9695879596956E
:105760008795A0E0B0E089839A83AB83BC83CE01A8
:1057700001960E94F10FD701C6011EEFF8948090A8
:10578000980490909904A0909A04B0909B04789407
:1057900088159905AA05BB0554F46CE271E080E018
:1057A00090E00E94D0171150D501C40139F7198239
:1057B0001A821B821C82CE0101960E94F10F8091F9
:1057C000520390915303A0915403B0915503F89460
:1057D0008093980490939904A0939A04B0939B04A7
:1057E0007894C814D904EA04FB0411F482E001C0DF
:1057F00081E08093B7045DC50E943C18611101C02F
:1058000061E06093B40155C5F894409098045090BD
:10581000990460909A0470909B0478948091560348
:1058200090915703A0915803B0915903481A590A0F
:105830006A0A7B0A8091B3049091B404A091B504E4
:10584000B091B604480E591E6A1E7B1E0E943C1879
:1058500064307105810591057CF06B017C01613C30
:105860007742894091056CF010ECC12E17E2D12EE1
:1058700019E0E12EF12C05C0B4E0CB2ED12CE12CA7
:10588000F12CC982DA82EB82FC826091B7017091BF
:10589000B801072E000C880B990B0E94A2334B0114
:1058A0005C01C301B2010E94A233A50194010E94D0
:1058B00057342B013C016091520370915303809146
:1058C0005403909155030E94A2339B01AC01C30184
:1058D000B2010E94F8322B013C01C0926303D092C6
:1058E0006403E0926503F0926603C701B60193C0BA
:1058F0008091560390915703A0915803B09159039A
:10590000F8948093980490939904A0939A04B09388
:105910009B04789480E090E0CEC4F8948090980442
:1059200090909904A0909A04B0909B0478948091F0
:10593000560390915703A0915803B0915903881AC8
:10594000990AAA0ABB0A8091B3049091B404A09169
:10595000B504B091B604880E991EAA1EBB1E0E9403
:105960003C186E3171058105910574F06B017C0165
:10597000693077408105910564F0A8E0CA2EA7E060
:10598000DA2EE12CF12C05C0FEE1CF2ED12CE12C3A
:10599000F12CC982DA82EB82FC82C501B4010E943B
:1059A000A2334B015C016091B7017091B801072EE1
:1059B000000C880B990B0E94A2339B01AC01C5011E
:1059C000B4010E9457344B015C0160915203709105
:1059D000530380915403909155030E94A2339B017D
:1059E000AC01C501B4010E94F8322B013C01D092F8
:1059F000B801C092B701B601DD0C880B990B0E946B
:105A0000A2334B015C016091630370916403809148
:105A10006503909166030E94A23320E030E044EBDE
:105A200053E40E94F832A50194010E9457340E9469
:105A30006A3360935203709353038093540390939B
:105A400055036B017C01F594E794D794C794C092F9
:105A50005603D0925703E0925803F09259030E94E4
:105A6000A2339B01AC01C301B2010E945734A501CE
:105A700094010E94F8320E946A33C60ED71EE81EB7
:105A8000F91E8091B3049091B404A091B504B09133
:105A9000B604C81AD90AEA0AFB0AF894C092980414
:105AA000D0929904E0929A04F0929B04789401C4F5
:105AB0000E943C18262F6091A60380E090E030E021
:105AC000F901082E02C0F595E7950A94E2F7C12C7A
:105AD000D12C7601C394082E04C0CC0CDD1CEE1C26
